{
	"Escrow_Simple.sol": {
		"Escrow": {
			"abi": [
				{
					"inputs": [
						{
							"internalType": "address payable",
							"name": "_buyer",
							"type": "address"
						},
						{
							"internalType": "address payable",
							"name": "_seller",
							"type": "address"
						}
					],
					"stateMutability": "nonpayable",
					"type": "constructor"
				},
				{
					"inputs": [],
					"name": "buyer",
					"outputs": [
						{
							"internalType": "address payable",
							"name": "",
							"type": "address"
						}
					],
					"stateMutability": "view",
					"type": "function"
				},
				{
					"inputs": [],
					"name": "confirmPayment",
					"outputs": [],
					"stateMutability": "nonpayable",
					"type": "function"
				},
				{
					"inputs": [],
					"name": "escrow",
					"outputs": [
						{
							"internalType": "address payable",
							"name": "",
							"type": "address"
						}
					],
					"stateMutability": "view",
					"type": "function"
				},
				{
					"inputs": [],
					"name": "failed",
					"outputs": [],
					"stateMutability": "payable",
					"type": "function"
				},
				{
					"inputs": [],
					"name": "payment",
					"outputs": [],
					"stateMutability": "payable",
					"type": "function"
				},
				{
					"inputs": [],
					"name": "seller",
					"outputs": [
						{
							"internalType": "address payable",
							"name": "",
							"type": "address"
						}
					],
					"stateMutability": "view",
					"type": "function"
				},
				{
					"inputs": [],
					"name": "state",
					"outputs": [
						{
							"internalType": "enum Escrow.State",
							"name": "",
							"type": "uint8"
						}
					],
					"stateMutability": "view",
					"type": "function"
				}
			],
			"devdoc": {
				"kind": "dev",
				"methods": {},
				"version": 1
			},
			"evm": {
				"assembly": "    /* \"Escrow_Simple.sol\":63:1446  contract Escrow... */\n  mstore(0x40, 0x80)\n    /* \"Escrow_Simple.sol\":282:608  constructor(address payable _buyer, address payable _seller)... */\n  callvalue\n  dup1\n  iszero\n  tag_1\n  jumpi\n  0x00\n  dup1\n  revert\ntag_1:\n  pop\n  mload(0x40)\n  sub(codesize, bytecodeSize)\n  dup1\n  bytecodeSize\n  dup4\n  codecopy\n  dup2\n  dup2\n  add\n  0x40\n  mstore\n  dup2\n  add\n  swap1\n  tag_2\n  swap2\n  swap1\n  tag_3\n  jump\t// in\ntag_2:\n    /* \"Escrow_Simple.sol\":376:386  msg.sender */\n  caller\n    /* \"Escrow_Simple.sol\":359:365  escrow */\n  0x02\n  0x00\n    /* \"Escrow_Simple.sol\":359:387  escrow = payable(msg.sender) */\n  0x0100\n  exp\n  dup2\n  sload\n  dup2\n  0xffffffffffffffffffffffffffffffffffffffff\n  mul\n  not\n  and\n  swap1\n  dup4\n  0xffffffffffffffffffffffffffffffffffffffff\n  and\n  mul\n  or\n  swap1\n  sstore\n  pop\n    /* \"Escrow_Simple.sol\":416:422  _buyer */\n  dup2\n    /* \"Escrow_Simple.sol\":406:422  escrow != _buyer */\n  0xffffffffffffffffffffffffffffffffffffffff\n  and\n    /* \"Escrow_Simple.sol\":406:412  escrow */\n  0x02\n  0x00\n  swap1\n  sload\n  swap1\n  0x0100\n  exp\n  swap1\n  div\n  0xffffffffffffffffffffffffffffffffffffffff\n  and\n    /* \"Escrow_Simple.sol\":406:422  escrow != _buyer */\n  0xffffffffffffffffffffffffffffffffffffffff\n  and\n  sub\n    /* \"Escrow_Simple.sol\":398:447  require(escrow != _buyer,\"escrow can't be buyer\") */\n  tag_6\n  jumpi\n  mload(0x40)\n  0x08c379a000000000000000000000000000000000000000000000000000000000\n  dup2\n  mstore\n  0x04\n  add\n  tag_7\n  swap1\n  tag_8\n  jump\t// in\ntag_7:\n  mload(0x40)\n  dup1\n  swap2\n  sub\n  swap1\n  revert\ntag_6:\n    /* \"Escrow_Simple.sol\":476:483  _seller */\n  dup1\n    /* \"Escrow_Simple.sol\":466:483  escrow != _seller */\n  0xffffffffffffffffffffffffffffffffffffffff\n  and\n    /* \"Escrow_Simple.sol\":466:472  escrow */\n  0x02\n  0x00\n  swap1\n  sload\n  swap1\n  0x0100\n  exp\n  swap1\n  div\n  0xffffffffffffffffffffffffffffffffffffffff\n  and\n    /* \"Escrow_Simple.sol\":466:483  escrow != _seller */\n  0xffffffffffffffffffffffffffffffffffffffff\n  and\n  sub\n    /* \"Escrow_Simple.sol\":458:509  require(escrow != _seller,\"escrow can't be seller\") */\n  tag_9\n  jumpi\n  mload(0x40)\n  0x08c379a000000000000000000000000000000000000000000000000000000000\n  dup2\n  mstore\n  0x04\n  add\n  tag_10\n  swap1\n  tag_11\n  jump\t// in\ntag_10:\n  mload(0x40)\n  dup1\n  swap2\n  sub\n  swap1\n  revert\ntag_9:\n    /* \"Escrow_Simple.sol\":528:534  _buyer */\n  dup2\n    /* \"Escrow_Simple.sol\":520:525  buyer */\n  0x00\n  dup1\n    /* \"Escrow_Simple.sol\":520:534  buyer = _buyer */\n  0x0100\n  exp\n  dup2\n  sload\n  dup2\n  0xffffffffffffffffffffffffffffffffffffffff\n  mul\n  not\n  and\n  swap1\n  dup4\n  0xffffffffffffffffffffffffffffffffffffffff\n  and\n  mul\n  or\n  swap1\n  sstore\n  pop\n    /* \"Escrow_Simple.sol\":553:560  _seller */\n  dup1\n    /* \"Escrow_Simple.sol\":545:551  seller */\n  0x01\n  0x00\n    /* \"Escrow_Simple.sol\":545:560  seller =_seller */\n  0x0100\n  exp\n  dup2\n  sload\n  dup2\n  0xffffffffffffffffffffffffffffffffffffffff\n  mul\n  not\n  and\n  swap1\n  dup4\n  0xffffffffffffffffffffffffffffffffffffffff\n  and\n  mul\n  or\n  swap1\n  sstore\n  pop\n    /* \"Escrow_Simple.sol\":581:600  State.await_payment */\n  0x00\n    /* \"Escrow_Simple.sol\":573:578  state */\n  0x02\n  0x14\n    /* \"Escrow_Simple.sol\":573:600  state = State.await_payment */\n  0x0100\n  exp\n  dup2\n  sload\n  dup2\n  0xff\n  mul\n  not\n  and\n  swap1\n  dup4\n  0x02\n  dup2\n  gt\n  iszero\n  tag_12\n  jumpi\n  tag_13\n  tag_14\n  jump\t// in\ntag_13:\ntag_12:\n  mul\n  or\n  swap1\n  sstore\n  pop\n    /* \"Escrow_Simple.sol\":282:608  constructor(address payable _buyer, address payable _seller)... */\n  pop\n  pop\n    /* \"Escrow_Simple.sol\":63:1446  contract Escrow... */\n  jump(tag_15)\n    /* \"#utility.yul\":88:205   */\ntag_17:\n    /* \"#utility.yul\":197:198   */\n  0x00\n    /* \"#utility.yul\":194:195   */\n  dup1\n    /* \"#utility.yul\":187:199   */\n  revert\n    /* \"#utility.yul\":334:460   */\ntag_19:\n    /* \"#utility.yul\":371:378   */\n  0x00\n    /* \"#utility.yul\":411:453   */\n  0xffffffffffffffffffffffffffffffffffffffff\n    /* \"#utility.yul\":404:409   */\n  dup3\n    /* \"#utility.yul\":400:454   */\n  and\n    /* \"#utility.yul\":389:454   */\n  swap1\n  pop\n    /* \"#utility.yul\":334:460   */\n  swap2\n  swap1\n  pop\n  jump\t// out\n    /* \"#utility.yul\":466:570   */\ntag_20:\n    /* \"#utility.yul\":511:518   */\n  0x00\n    /* \"#utility.yul\":540:564   */\n  tag_34\n    /* \"#utility.yul\":558:563   */\n  dup3\n    /* \"#utility.yul\":540:564   */\n  tag_19\n  jump\t// in\ntag_34:\n    /* \"#utility.yul\":529:564   */\n  swap1\n  pop\n    /* \"#utility.yul\":466:570   */\n  swap2\n  swap1\n  pop\n  jump\t// out\n    /* \"#utility.yul\":576:714   */\ntag_21:\n    /* \"#utility.yul\":657:689   */\n  tag_36\n    /* \"#utility.yul\":683:688   */\n  dup2\n    /* \"#utility.yul\":657:689   */\n  tag_20\n  jump\t// in\ntag_36:\n    /* \"#utility.yul\":650:655   */\n  dup2\n    /* \"#utility.yul\":647:690   */\n  eq\n    /* \"#utility.yul\":637:708   */\n  tag_37\n  jumpi\n    /* \"#utility.yul\":704:705   */\n  0x00\n    /* \"#utility.yul\":701:702   */\n  dup1\n    /* \"#utility.yul\":694:706   */\n  revert\n    /* \"#utility.yul\":637:708   */\ntag_37:\n    /* \"#utility.yul\":576:714   */\n  pop\n  jump\t// out\n    /* \"#utility.yul\":720:879   */\ntag_22:\n    /* \"#utility.yul\":785:790   */\n  0x00\n    /* \"#utility.yul\":816:822   */\n  dup2\n    /* \"#utility.yul\":810:823   */\n  mload\n    /* \"#utility.yul\":801:823   */\n  swap1\n  pop\n    /* \"#utility.yul\":832:873   */\n  tag_39\n    /* \"#utility.yul\":867:872   */\n  dup2\n    /* \"#utility.yul\":832:873   */\n  tag_21\n  jump\t// in\ntag_39:\n    /* \"#utility.yul\":720:879   */\n  swap3\n  swap2\n  pop\n  pop\n  jump\t// out\n    /* \"#utility.yul\":885:1424   */\ntag_3:\n    /* \"#utility.yul\":980:986   */\n  0x00\n    /* \"#utility.yul\":988:994   */\n  dup1\n    /* \"#utility.yul\":1037:1039   */\n  0x40\n    /* \"#utility.yul\":1025:1034   */\n  dup4\n    /* \"#utility.yul\":1016:1023   */\n  dup6\n    /* \"#utility.yul\":1012:1035   */\n  sub\n    /* \"#utility.yul\":1008:1040   */\n  slt\n    /* \"#utility.yul\":1005:1124   */\n  iszero\n  tag_41\n  jumpi\n    /* \"#utility.yul\":1043:1122   */\n  tag_42\n  tag_17\n  jump\t// in\ntag_42:\n    /* \"#utility.yul\":1005:1124   */\ntag_41:\n    /* \"#utility.yul\":1163:1164   */\n  0x00\n    /* \"#utility.yul\":1188:1260   */\n  tag_43\n    /* \"#utility.yul\":1252:1259   */\n  dup6\n    /* \"#utility.yul\":1243:1249   */\n  dup3\n    /* \"#utility.yul\":1232:1241   */\n  dup7\n    /* \"#utility.yul\":1228:1250   */\n  add\n    /* \"#utility.yul\":1188:1260   */\n  tag_22\n  jump\t// in\ntag_43:\n    /* \"#utility.yul\":1178:1260   */\n  swap3\n  pop\n    /* \"#utility.yul\":1134:1270   */\n  pop\n    /* \"#utility.yul\":1309:1311   */\n  0x20\n    /* \"#utility.yul\":1335:1407   */\n  tag_44\n    /* \"#utility.yul\":1399:1406   */\n  dup6\n    /* \"#utility.yul\":1390:1396   */\n  dup3\n    /* \"#utility.yul\":1379:1388   */\n  dup7\n    /* \"#utility.yul\":1375:1397   */\n  add\n    /* \"#utility.yul\":1335:1407   */\n  tag_22\n  jump\t// in\ntag_44:\n    /* \"#utility.yul\":1325:1407   */\n  swap2\n  pop\n    /* \"#utility.yul\":1280:1417   */\n  pop\n    /* \"#utility.yul\":885:1424   */\n  swap3\n  pop\n  swap3\n  swap1\n  pop\n  jump\t// out\n    /* \"#utility.yul\":1430:1599   */\ntag_23:\n    /* \"#utility.yul\":1514:1525   */\n  0x00\n    /* \"#utility.yul\":1548:1554   */\n  dup3\n    /* \"#utility.yul\":1543:1546   */\n  dup3\n    /* \"#utility.yul\":1536:1555   */\n  mstore\n    /* \"#utility.yul\":1588:1592   */\n  0x20\n    /* \"#utility.yul\":1583:1586   */\n  dup3\n    /* \"#utility.yul\":1579:1593   */\n  add\n    /* \"#utility.yul\":1564:1593   */\n  swap1\n  pop\n    /* \"#utility.yul\":1430:1599   */\n  swap3\n  swap2\n  pop\n  pop\n  jump\t// out\n    /* \"#utility.yul\":1605:1776   */\ntag_24:\n    /* \"#utility.yul\":1745:1768   */\n  0x657363726f772063616e27742062652062757965720000000000000000000000\n    /* \"#utility.yul\":1741:1742   */\n  0x00\n    /* \"#utility.yul\":1733:1739   */\n  dup3\n    /* \"#utility.yul\":1729:1743   */\n  add\n    /* \"#utility.yul\":1722:1769   */\n  mstore\n    /* \"#utility.yul\":1605:1776   */\n  pop\n  jump\t// out\n    /* \"#utility.yul\":1782:2148   */\ntag_25:\n    /* \"#utility.yul\":1924:1927   */\n  0x00\n    /* \"#utility.yul\":1945:2012   */\n  tag_48\n    /* \"#utility.yul\":2009:2011   */\n  0x15\n    /* \"#utility.yul\":2004:2007   */\n  dup4\n    /* \"#utility.yul\":1945:2012   */\n  tag_23\n  jump\t// in\ntag_48:\n    /* \"#utility.yul\":1938:2012   */\n  swap2\n  pop\n    /* \"#utility.yul\":2021:2114   */\n  tag_49\n    /* \"#utility.yul\":2110:2113   */\n  dup3\n    /* \"#utility.yul\":2021:2114   */\n  tag_24\n  jump\t// in\ntag_49:\n    /* \"#utility.yul\":2139:2141   */\n  0x20\n    /* \"#utility.yul\":2134:2137   */\n  dup3\n    /* \"#utility.yul\":2130:2142   */\n  add\n    /* \"#utility.yul\":2123:2142   */\n  swap1\n  pop\n    /* \"#utility.yul\":1782:2148   */\n  swap2\n  swap1\n  pop\n  jump\t// out\n    /* \"#utility.yul\":2154:2573   */\ntag_8:\n    /* \"#utility.yul\":2320:2324   */\n  0x00\n    /* \"#utility.yul\":2358:2360   */\n  0x20\n    /* \"#utility.yul\":2347:2356   */\n  dup3\n    /* \"#utility.yul\":2343:2361   */\n  add\n    /* \"#utility.yul\":2335:2361   */\n  swap1\n  pop\n    /* \"#utility.yul\":2407:2416   */\n  dup2\n    /* \"#utility.yul\":2401:2405   */\n  dup2\n    /* \"#utility.yul\":2397:2417   */\n  sub\n    /* \"#utility.yul\":2393:2394   */\n  0x00\n    /* \"#utility.yul\":2382:2391   */\n  dup4\n    /* \"#utility.yul\":2378:2395   */\n  add\n    /* \"#utility.yul\":2371:2418   */\n  mstore\n    /* \"#utility.yul\":2435:2566   */\n  tag_51\n    /* \"#utility.yul\":2561:2565   */\n  dup2\n    /* \"#utility.yul\":2435:2566   */\n  tag_25\n  jump\t// in\ntag_51:\n    /* \"#utility.yul\":2427:2566   */\n  swap1\n  pop\n    /* \"#utility.yul\":2154:2573   */\n  swap2\n  swap1\n  pop\n  jump\t// out\n    /* \"#utility.yul\":2579:2751   */\ntag_26:\n    /* \"#utility.yul\":2719:2743   */\n  0x657363726f772063616e27742062652073656c6c657200000000000000000000\n    /* \"#utility.yul\":2715:2716   */\n  0x00\n    /* \"#utility.yul\":2707:2713   */\n  dup3\n    /* \"#utility.yul\":2703:2717   */\n  add\n    /* \"#utility.yul\":2696:2744   */\n  mstore\n    /* \"#utility.yul\":2579:2751   */\n  pop\n  jump\t// out\n    /* \"#utility.yul\":2757:3123   */\ntag_27:\n    /* \"#utility.yul\":2899:2902   */\n  0x00\n    /* \"#utility.yul\":2920:2987   */\n  tag_54\n    /* \"#utility.yul\":2984:2986   */\n  0x16\n    /* \"#utility.yul\":2979:2982   */\n  dup4\n    /* \"#utility.yul\":2920:2987   */\n  tag_23\n  jump\t// in\ntag_54:\n    /* \"#utility.yul\":2913:2987   */\n  swap2\n  pop\n    /* \"#utility.yul\":2996:3089   */\n  tag_55\n    /* \"#utility.yul\":3085:3088   */\n  dup3\n    /* \"#utility.yul\":2996:3089   */\n  tag_26\n  jump\t// in\ntag_55:\n    /* \"#utility.yul\":3114:3116   */\n  0x20\n    /* \"#utility.yul\":3109:3112   */\n  dup3\n    /* \"#utility.yul\":3105:3117   */\n  add\n    /* \"#utility.yul\":3098:3117   */\n  swap1\n  pop\n    /* \"#utility.yul\":2757:3123   */\n  swap2\n  swap1\n  pop\n  jump\t// out\n    /* \"#utility.yul\":3129:3548   */\ntag_11:\n    /* \"#utility.yul\":3295:3299   */\n  0x00\n    /* \"#utility.yul\":3333:3335   */\n  0x20\n    /* \"#utility.yul\":3322:3331   */\n  dup3\n    /* \"#utility.yul\":3318:3336   */\n  add\n    /* \"#utility.yul\":3310:3336   */\n  swap1\n  pop\n    /* \"#utility.yul\":3382:3391   */\n  dup2\n    /* \"#utility.yul\":3376:3380   */\n  dup2\n    /* \"#utility.yul\":3372:3392   */\n  sub\n    /* \"#utility.yul\":3368:3369   */\n  0x00\n    /* \"#utility.yul\":3357:3366   */\n  dup4\n    /* \"#utility.yul\":3353:3370   */\n  add\n    /* \"#utility.yul\":3346:3393   */\n  mstore\n    /* \"#utility.yul\":3410:3541   */\n  tag_57\n    /* \"#utility.yul\":3536:3540   */\n  dup2\n    /* \"#utility.yul\":3410:3541   */\n  tag_27\n  jump\t// in\ntag_57:\n    /* \"#utility.yul\":3402:3541   */\n  swap1\n  pop\n    /* \"#utility.yul\":3129:3548   */\n  swap2\n  swap1\n  pop\n  jump\t// out\n    /* \"#utility.yul\":3554:3734   */\ntag_14:\n    /* \"#utility.yul\":3602:3679   */\n  0x4e487b7100000000000000000000000000000000000000000000000000000000\n    /* \"#utility.yul\":3599:3600   */\n  0x00\n    /* \"#utility.yul\":3592:3680   */\n  mstore\n    /* \"#utility.yul\":3699:3703   */\n  0x21\n    /* \"#utility.yul\":3696:3697   */\n  0x04\n    /* \"#utility.yul\":3689:3704   */\n  mstore\n    /* \"#utility.yul\":3723:3727   */\n  0x24\n    /* \"#utility.yul\":3720:3721   */\n  0x00\n    /* \"#utility.yul\":3713:3728   */\n  revert\n    /* \"Escrow_Simple.sol\":63:1446  contract Escrow... */\ntag_15:\n  dataSize(sub_0)\n  dup1\n  dataOffset(sub_0)\n  0x00\n  codecopy\n  0x00\n  return\nstop\n\nsub_0: assembly {\n        /* \"Escrow_Simple.sol\":63:1446  contract Escrow... */\n      mstore(0x40, 0x80)\n      jumpi(tag_1, lt(calldatasize, 0x04))\n      shr(0xe0, calldataload(0x00))\n      dup1\n      0x7150d8ae\n      gt\n      tag_9\n      jumpi\n      dup1\n      0x7150d8ae\n      eq\n      tag_5\n      jumpi\n      dup1\n      0xba414fa6\n      eq\n      tag_6\n      jumpi\n      dup1\n      0xc19d93fb\n      eq\n      tag_7\n      jumpi\n      dup1\n      0xe2fdcc17\n      eq\n      tag_8\n      jumpi\n      jump(tag_1)\n    tag_9:\n      dup1\n      0x08551a53\n      eq\n      tag_2\n      jumpi\n      dup1\n      0x42f6487a\n      eq\n      tag_3\n      jumpi\n      dup1\n      0x62ef1f81\n      eq\n      tag_4\n      jumpi\n    tag_1:\n      0x00\n      dup1\n      revert\n        /* \"Escrow_Simple.sol\":122:151  address payable public seller */\n    tag_2:\n      callvalue\n      dup1\n      iszero\n      tag_10\n      jumpi\n      0x00\n      dup1\n      revert\n    tag_10:\n      pop\n      tag_11\n      tag_12\n      jump\t// in\n    tag_11:\n      mload(0x40)\n      tag_13\n      swap2\n      swap1\n      tag_14\n      jump\t// in\n    tag_13:\n      mload(0x40)\n      dup1\n      swap2\n      sub\n      swap1\n      return\n        /* \"Escrow_Simple.sol\":616:851  function payment() payable public ... */\n    tag_3:\n      tag_15\n      tag_16\n      jump\t// in\n    tag_15:\n      stop\n        /* \"Escrow_Simple.sol\":859:1143  function confirmPayment() public... */\n    tag_4:\n      callvalue\n      dup1\n      iszero\n      tag_17\n      jumpi\n      0x00\n      dup1\n      revert\n    tag_17:\n      pop\n      tag_18\n      tag_19\n      jump\t// in\n    tag_18:\n      stop\n        /* \"Escrow_Simple.sol\":87:115  address payable public buyer */\n    tag_5:\n      callvalue\n      dup1\n      iszero\n      tag_20\n      jumpi\n      0x00\n      dup1\n      revert\n    tag_20:\n      pop\n      tag_21\n      tag_22\n      jump\t// in\n    tag_21:\n      mload(0x40)\n      tag_23\n      swap2\n      swap1\n      tag_14\n      jump\t// in\n    tag_23:\n      mload(0x40)\n      dup1\n      swap2\n      sub\n      swap1\n      return\n        /* \"Escrow_Simple.sol\":1151:1435  function failed() public payable ... */\n    tag_6:\n      tag_24\n      tag_25\n      jump\t// in\n    tag_24:\n      stop\n        /* \"Escrow_Simple.sol\":255:273  State public state */\n    tag_7:\n      callvalue\n      dup1\n      iszero\n      tag_26\n      jumpi\n      0x00\n      dup1\n      revert\n    tag_26:\n      pop\n      tag_27\n      tag_28\n      jump\t// in\n    tag_27:\n      mload(0x40)\n      tag_29\n      swap2\n      swap1\n      tag_30\n      jump\t// in\n    tag_29:\n      mload(0x40)\n      dup1\n      swap2\n      sub\n      swap1\n      return\n        /* \"Escrow_Simple.sol\":158:187  address payable public escrow */\n    tag_8:\n      callvalue\n      dup1\n      iszero\n      tag_31\n      jumpi\n      0x00\n      dup1\n      revert\n    tag_31:\n      pop\n      tag_32\n      tag_33\n      jump\t// in\n    tag_32:\n      mload(0x40)\n      tag_34\n      swap2\n      swap1\n      tag_14\n      jump\t// in\n    tag_34:\n      mload(0x40)\n      dup1\n      swap2\n      sub\n      swap1\n      return\n        /* \"Escrow_Simple.sol\":122:151  address payable public seller */\n    tag_12:\n      0x01\n      0x00\n      swap1\n      sload\n      swap1\n      0x0100\n      exp\n      swap1\n      div\n      0xffffffffffffffffffffffffffffffffffffffff\n      and\n      dup2\n      jump\t// out\n        /* \"Escrow_Simple.sol\":616:851  function payment() payable public ... */\n    tag_16:\n        /* \"Escrow_Simple.sol\":689:694  buyer */\n      0x00\n      dup1\n      sload\n      swap1\n      0x0100\n      exp\n      swap1\n      div\n      0xffffffffffffffffffffffffffffffffffffffff\n      and\n        /* \"Escrow_Simple.sol\":675:694  msg.sender == buyer */\n      0xffffffffffffffffffffffffffffffffffffffff\n      and\n        /* \"Escrow_Simple.sol\":675:685  msg.sender */\n      caller\n        /* \"Escrow_Simple.sol\":675:694  msg.sender == buyer */\n      0xffffffffffffffffffffffffffffffffffffffff\n      and\n      eq\n        /* \"Escrow_Simple.sol\":667:723  require(msg.sender == buyer,\"Only buyer can do payment\") */\n      tag_36\n      jumpi\n      mload(0x40)\n      0x08c379a000000000000000000000000000000000000000000000000000000000\n      dup2\n      mstore\n      0x04\n      add\n      tag_37\n      swap1\n      tag_38\n      jump\t// in\n    tag_37:\n      mload(0x40)\n      dup1\n      swap2\n      sub\n      swap1\n      revert\n    tag_36:\n        /* \"Escrow_Simple.sol\":751:770  State.await_payment */\n      0x00\n        /* \"Escrow_Simple.sol\":742:770  state == State.await_payment */\n      0x02\n      dup2\n      gt\n      iszero\n      tag_39\n      jumpi\n      tag_40\n      tag_41\n      jump\t// in\n    tag_40:\n    tag_39:\n        /* \"Escrow_Simple.sol\":742:747  state */\n      0x02\n      0x14\n      swap1\n      sload\n      swap1\n      0x0100\n      exp\n      swap1\n      div\n      0xff\n      and\n        /* \"Escrow_Simple.sol\":742:770  state == State.await_payment */\n      0x02\n      dup2\n      gt\n      iszero\n      tag_42\n      jumpi\n      tag_43\n      tag_41\n      jump\t// in\n    tag_43:\n    tag_42:\n      eq\n        /* \"Escrow_Simple.sol\":734:804  require(state == State.await_payment,\"must be in await payment state\") */\n      tag_44\n      jumpi\n      mload(0x40)\n      0x08c379a000000000000000000000000000000000000000000000000000000000\n      dup2\n      mstore\n      0x04\n      add\n      tag_45\n      swap1\n      tag_46\n      jump\t// in\n    tag_45:\n      mload(0x40)\n      dup1\n      swap2\n      sub\n      swap1\n      revert\n    tag_44:\n        /* \"Escrow_Simple.sol\":823:843  State.await_delivery */\n      0x01\n        /* \"Escrow_Simple.sol\":815:820  state */\n      0x02\n      0x14\n        /* \"Escrow_Simple.sol\":815:843  state = State.await_delivery */\n      0x0100\n      exp\n      dup2\n      sload\n      dup2\n      0xff\n      mul\n      not\n      and\n      swap1\n      dup4\n      0x02\n      dup2\n      gt\n      iszero\n      tag_47\n      jumpi\n      tag_48\n      tag_41\n      jump\t// in\n    tag_48:\n    tag_47:\n      mul\n      or\n      swap1\n      sstore\n      pop\n        /* \"Escrow_Simple.sol\":616:851  function payment() payable public ... */\n      jump\t// out\n        /* \"Escrow_Simple.sol\":859:1143  function confirmPayment() public... */\n    tag_19:\n        /* \"Escrow_Simple.sol\":930:936  seller */\n      0x01\n      0x00\n      swap1\n      sload\n      swap1\n      0x0100\n      exp\n      swap1\n      div\n      0xffffffffffffffffffffffffffffffffffffffff\n      and\n        /* \"Escrow_Simple.sol\":916:936  msg.sender == seller */\n      0xffffffffffffffffffffffffffffffffffffffff\n      and\n        /* \"Escrow_Simple.sol\":916:926  msg.sender */\n      caller\n        /* \"Escrow_Simple.sol\":916:936  msg.sender == seller */\n      0xffffffffffffffffffffffffffffffffffffffff\n      and\n      eq\n        /* \"Escrow_Simple.sol\":908:971  require(msg.sender == seller,\"Only seller can confirm payment\") */\n      tag_50\n      jumpi\n      mload(0x40)\n      0x08c379a000000000000000000000000000000000000000000000000000000000\n      dup2\n      mstore\n      0x04\n      add\n      tag_51\n      swap1\n      tag_52\n      jump\t// in\n    tag_51:\n      mload(0x40)\n      dup1\n      swap2\n      sub\n      swap1\n      revert\n    tag_50:\n        /* \"Escrow_Simple.sol\":999:1019  State.await_delivery */\n      0x01\n        /* \"Escrow_Simple.sol\":990:1019  state == State.await_delivery */\n      0x02\n      dup2\n      gt\n      iszero\n      tag_53\n      jumpi\n      tag_54\n      tag_41\n      jump\t// in\n    tag_54:\n    tag_53:\n        /* \"Escrow_Simple.sol\":990:995  state */\n      0x02\n      0x14\n      swap1\n      sload\n      swap1\n      0x0100\n      exp\n      swap1\n      div\n      0xff\n      and\n        /* \"Escrow_Simple.sol\":990:1019  state == State.await_delivery */\n      0x02\n      dup2\n      gt\n      iszero\n      tag_55\n      jumpi\n      tag_56\n      tag_41\n      jump\t// in\n    tag_56:\n    tag_55:\n      eq\n        /* \"Escrow_Simple.sol\":982:1053  require(state == State.await_delivery,\"must be in await payment state\") */\n      tag_57\n      jumpi\n      mload(0x40)\n      0x08c379a000000000000000000000000000000000000000000000000000000000\n      dup2\n      mstore\n      0x04\n      add\n      tag_58\n      swap1\n      tag_46\n      jump\t// in\n    tag_58:\n      mload(0x40)\n      dup1\n      swap2\n      sub\n      swap1\n      revert\n    tag_57:\n        /* \"Escrow_Simple.sol\":1064:1070  seller */\n      0x01\n      0x00\n      swap1\n      sload\n      swap1\n      0x0100\n      exp\n      swap1\n      div\n      0xffffffffffffffffffffffffffffffffffffffff\n      and\n        /* \"Escrow_Simple.sol\":1064:1079  seller.transfer */\n      0xffffffffffffffffffffffffffffffffffffffff\n      and\n        /* \"Escrow_Simple.sol\":1064:1102  seller.transfer(address(this).balance) */\n      0x08fc\n        /* \"Escrow_Simple.sol\":1080:1101  address(this).balance */\n      selfbalance\n        /* \"Escrow_Simple.sol\":1064:1102  seller.transfer(address(this).balance) */\n      swap1\n      dup2\n      iszero\n      mul\n      swap1\n      mload(0x40)\n      0x00\n      mload(0x40)\n      dup1\n      dup4\n      sub\n      dup2\n      dup6\n      dup9\n      dup9\n      call\n      swap4\n      pop\n      pop\n      pop\n      pop\n      iszero\n      dup1\n      iszero\n      tag_60\n      jumpi\n      returndatasize\n      0x00\n      dup1\n      returndatacopy\n      revert(0x00, returndatasize)\n    tag_60:\n      pop\n        /* \"Escrow_Simple.sol\":1121:1135  State.complete */\n      0x02\n        /* \"Escrow_Simple.sol\":1113:1118  state */\n      dup1\n      0x14\n        /* \"Escrow_Simple.sol\":1113:1135  state = State.complete */\n      0x0100\n      exp\n      dup2\n      sload\n      dup2\n      0xff\n      mul\n      not\n      and\n      swap1\n      dup4\n      0x02\n      dup2\n      gt\n      iszero\n      tag_61\n      jumpi\n      tag_62\n      tag_41\n      jump\t// in\n    tag_62:\n    tag_61:\n      mul\n      or\n      swap1\n      sstore\n      pop\n        /* \"Escrow_Simple.sol\":859:1143  function confirmPayment() public... */\n      jump\t// out\n        /* \"Escrow_Simple.sol\":87:115  address payable public buyer */\n    tag_22:\n      0x00\n      dup1\n      sload\n      swap1\n      0x0100\n      exp\n      swap1\n      div\n      0xffffffffffffffffffffffffffffffffffffffff\n      and\n      dup2\n      jump\t// out\n        /* \"Escrow_Simple.sol\":1151:1435  function failed() public payable ... */\n    tag_25:\n        /* \"Escrow_Simple.sol\":1223:1229  seller */\n      0x01\n      0x00\n      swap1\n      sload\n      swap1\n      0x0100\n      exp\n      swap1\n      div\n      0xffffffffffffffffffffffffffffffffffffffff\n      and\n        /* \"Escrow_Simple.sol\":1209:1229  msg.sender == seller */\n      0xffffffffffffffffffffffffffffffffffffffff\n      and\n        /* \"Escrow_Simple.sol\":1209:1219  msg.sender */\n      caller\n        /* \"Escrow_Simple.sol\":1209:1229  msg.sender == seller */\n      0xffffffffffffffffffffffffffffffffffffffff\n      and\n      eq\n        /* \"Escrow_Simple.sol\":1201:1259  require(msg.sender == seller,\"Only seller can do this!!!\") */\n      tag_64\n      jumpi\n      mload(0x40)\n      0x08c379a000000000000000000000000000000000000000000000000000000000\n      dup2\n      mstore\n      0x04\n      add\n      tag_65\n      swap1\n      tag_66\n      jump\t// in\n    tag_65:\n      mload(0x40)\n      dup1\n      swap2\n      sub\n      swap1\n      revert\n    tag_64:\n        /* \"Escrow_Simple.sol\":1287:1307  State.await_delivery */\n      0x01\n        /* \"Escrow_Simple.sol\":1278:1307  state == State.await_delivery */\n      0x02\n      dup2\n      gt\n      iszero\n      tag_67\n      jumpi\n      tag_68\n      tag_41\n      jump\t// in\n    tag_68:\n    tag_67:\n        /* \"Escrow_Simple.sol\":1278:1283  state */\n      0x02\n      0x14\n      swap1\n      sload\n      swap1\n      0x0100\n      exp\n      swap1\n      div\n      0xff\n      and\n        /* \"Escrow_Simple.sol\":1278:1307  state == State.await_delivery */\n      0x02\n      dup2\n      gt\n      iszero\n      tag_69\n      jumpi\n      tag_70\n      tag_41\n      jump\t// in\n    tag_70:\n    tag_69:\n      eq\n        /* \"Escrow_Simple.sol\":1270:1341  require(state == State.await_delivery,\"must be in await payment state\") */\n      tag_71\n      jumpi\n      mload(0x40)\n      0x08c379a000000000000000000000000000000000000000000000000000000000\n      dup2\n      mstore\n      0x04\n      add\n      tag_72\n      swap1\n      tag_46\n      jump\t// in\n    tag_72:\n      mload(0x40)\n      dup1\n      swap2\n      sub\n      swap1\n      revert\n    tag_71:\n        /* \"Escrow_Simple.sol\":1352:1357  buyer */\n      0x00\n      dup1\n      sload\n      swap1\n      0x0100\n      exp\n      swap1\n      div\n      0xffffffffffffffffffffffffffffffffffffffff\n      and\n        /* \"Escrow_Simple.sol\":1352:1366  buyer.transfer */\n      0xffffffffffffffffffffffffffffffffffffffff\n      and\n        /* \"Escrow_Simple.sol\":1352:1389  buyer.transfer(address(this).balance) */\n      0x08fc\n        /* \"Escrow_Simple.sol\":1367:1388  address(this).balance */\n      selfbalance\n        /* \"Escrow_Simple.sol\":1352:1389  buyer.transfer(address(this).balance) */\n      swap1\n      dup2\n      iszero\n      mul\n      swap1\n      mload(0x40)\n      0x00\n      mload(0x40)\n      dup1\n      dup4\n      sub\n      dup2\n      dup6\n      dup9\n      dup9\n      call\n      swap4\n      pop\n      pop\n      pop\n      pop\n      iszero\n      dup1\n      iszero\n      tag_74\n      jumpi\n      returndatasize\n      0x00\n      dup1\n      returndatacopy\n      revert(0x00, returndatasize)\n    tag_74:\n      pop\n        /* \"Escrow_Simple.sol\":1408:1427  State.await_payment */\n      0x00\n        /* \"Escrow_Simple.sol\":1400:1405  state */\n      0x02\n      0x14\n        /* \"Escrow_Simple.sol\":1400:1427  state = State.await_payment */\n      0x0100\n      exp\n      dup2\n      sload\n      dup2\n      0xff\n      mul\n      not\n      and\n      swap1\n      dup4\n      0x02\n      dup2\n      gt\n      iszero\n      tag_75\n      jumpi\n      tag_76\n      tag_41\n      jump\t// in\n    tag_76:\n    tag_75:\n      mul\n      or\n      swap1\n      sstore\n      pop\n        /* \"Escrow_Simple.sol\":1151:1435  function failed() public payable ... */\n      jump\t// out\n        /* \"Escrow_Simple.sol\":255:273  State public state */\n    tag_28:\n      0x02\n      0x14\n      swap1\n      sload\n      swap1\n      0x0100\n      exp\n      swap1\n      div\n      0xff\n      and\n      dup2\n      jump\t// out\n        /* \"Escrow_Simple.sol\":158:187  address payable public escrow */\n    tag_33:\n      0x02\n      0x00\n      swap1\n      sload\n      swap1\n      0x0100\n      exp\n      swap1\n      div\n      0xffffffffffffffffffffffffffffffffffffffff\n      and\n      dup2\n      jump\t// out\n        /* \"#utility.yul\":7:133   */\n    tag_77:\n        /* \"#utility.yul\":44:51   */\n      0x00\n        /* \"#utility.yul\":84:126   */\n      0xffffffffffffffffffffffffffffffffffffffff\n        /* \"#utility.yul\":77:82   */\n      dup3\n        /* \"#utility.yul\":73:127   */\n      and\n        /* \"#utility.yul\":62:127   */\n      swap1\n      pop\n        /* \"#utility.yul\":7:133   */\n      swap2\n      swap1\n      pop\n      jump\t// out\n        /* \"#utility.yul\":139:243   */\n    tag_78:\n        /* \"#utility.yul\":184:191   */\n      0x00\n        /* \"#utility.yul\":213:237   */\n      tag_96\n        /* \"#utility.yul\":231:236   */\n      dup3\n        /* \"#utility.yul\":213:237   */\n      tag_77\n      jump\t// in\n    tag_96:\n        /* \"#utility.yul\":202:237   */\n      swap1\n      pop\n        /* \"#utility.yul\":139:243   */\n      swap2\n      swap1\n      pop\n      jump\t// out\n        /* \"#utility.yul\":249:391   */\n    tag_79:\n        /* \"#utility.yul\":352:384   */\n      tag_98\n        /* \"#utility.yul\":378:383   */\n      dup2\n        /* \"#utility.yul\":352:384   */\n      tag_78\n      jump\t// in\n    tag_98:\n        /* \"#utility.yul\":347:350   */\n      dup3\n        /* \"#utility.yul\":340:385   */\n      mstore\n        /* \"#utility.yul\":249:391   */\n      pop\n      pop\n      jump\t// out\n        /* \"#utility.yul\":397:651   */\n    tag_14:\n        /* \"#utility.yul\":506:510   */\n      0x00\n        /* \"#utility.yul\":544:546   */\n      0x20\n        /* \"#utility.yul\":533:542   */\n      dup3\n        /* \"#utility.yul\":529:547   */\n      add\n        /* \"#utility.yul\":521:547   */\n      swap1\n      pop\n        /* \"#utility.yul\":557:644   */\n      tag_100\n        /* \"#utility.yul\":641:642   */\n      0x00\n        /* \"#utility.yul\":630:639   */\n      dup4\n        /* \"#utility.yul\":626:643   */\n      add\n        /* \"#utility.yul\":617:623   */\n      dup5\n        /* \"#utility.yul\":557:644   */\n      tag_79\n      jump\t// in\n    tag_100:\n        /* \"#utility.yul\":397:651   */\n      swap3\n      swap2\n      pop\n      pop\n      jump\t// out\n        /* \"#utility.yul\":657:837   */\n    tag_41:\n        /* \"#utility.yul\":705:782   */\n      0x4e487b7100000000000000000000000000000000000000000000000000000000\n        /* \"#utility.yul\":702:703   */\n      0x00\n        /* \"#utility.yul\":695:783   */\n      mstore\n        /* \"#utility.yul\":802:806   */\n      0x21\n        /* \"#utility.yul\":799:800   */\n      0x04\n        /* \"#utility.yul\":792:807   */\n      mstore\n        /* \"#utility.yul\":826:830   */\n      0x24\n        /* \"#utility.yul\":823:824   */\n      0x00\n        /* \"#utility.yul\":816:831   */\n      revert\n        /* \"#utility.yul\":843:956   */\n    tag_80:\n        /* \"#utility.yul\":924:925   */\n      0x03\n        /* \"#utility.yul\":917:922   */\n      dup2\n        /* \"#utility.yul\":914:926   */\n      lt\n        /* \"#utility.yul\":904:950   */\n      tag_103\n      jumpi\n        /* \"#utility.yul\":930:948   */\n      tag_104\n      tag_41\n      jump\t// in\n    tag_104:\n        /* \"#utility.yul\":904:950   */\n    tag_103:\n        /* \"#utility.yul\":843:956   */\n      pop\n      jump\t// out\n        /* \"#utility.yul\":962:1089   */\n    tag_81:\n        /* \"#utility.yul\":1007:1014   */\n      0x00\n        /* \"#utility.yul\":1036:1041   */\n      dup2\n        /* \"#utility.yul\":1025:1041   */\n      swap1\n      pop\n        /* \"#utility.yul\":1042:1083   */\n      tag_106\n        /* \"#utility.yul\":1077:1082   */\n      dup3\n        /* \"#utility.yul\":1042:1083   */\n      tag_80\n      jump\t// in\n    tag_106:\n        /* \"#utility.yul\":962:1089   */\n      swap2\n      swap1\n      pop\n      jump\t// out\n        /* \"#utility.yul\":1095:1222   */\n    tag_82:\n        /* \"#utility.yul\":1151:1160   */\n      0x00\n        /* \"#utility.yul\":1184:1216   */\n      tag_108\n        /* \"#utility.yul\":1210:1215   */\n      dup3\n        /* \"#utility.yul\":1184:1216   */\n      tag_81\n      jump\t// in\n    tag_108:\n        /* \"#utility.yul\":1171:1216   */\n      swap1\n      pop\n        /* \"#utility.yul\":1095:1222   */\n      swap2\n      swap1\n      pop\n      jump\t// out\n        /* \"#utility.yul\":1228:1371   */\n    tag_83:\n        /* \"#utility.yul\":1321:1364   */\n      tag_110\n        /* \"#utility.yul\":1358:1363   */\n      dup2\n        /* \"#utility.yul\":1321:1364   */\n      tag_82\n      jump\t// in\n    tag_110:\n        /* \"#utility.yul\":1316:1319   */\n      dup3\n        /* \"#utility.yul\":1309:1365   */\n      mstore\n        /* \"#utility.yul\":1228:1371   */\n      pop\n      pop\n      jump\t// out\n        /* \"#utility.yul\":1377:1611   */\n    tag_30:\n        /* \"#utility.yul\":1476:1480   */\n      0x00\n        /* \"#utility.yul\":1514:1516   */\n      0x20\n        /* \"#utility.yul\":1503:1512   */\n      dup3\n        /* \"#utility.yul\":1499:1517   */\n      add\n        /* \"#utility.yul\":1491:1517   */\n      swap1\n      pop\n        /* \"#utility.yul\":1527:1604   */\n      tag_112\n        /* \"#utility.yul\":1601:1602   */\n      0x00\n        /* \"#utility.yul\":1590:1599   */\n      dup4\n        /* \"#utility.yul\":1586:1603   */\n      add\n        /* \"#utility.yul\":1577:1583   */\n      dup5\n        /* \"#utility.yul\":1527:1604   */\n      tag_83\n      jump\t// in\n    tag_112:\n        /* \"#utility.yul\":1377:1611   */\n      swap3\n      swap2\n      pop\n      pop\n      jump\t// out\n        /* \"#utility.yul\":1617:1786   */\n    tag_84:\n        /* \"#utility.yul\":1701:1712   */\n      0x00\n        /* \"#utility.yul\":1735:1741   */\n      dup3\n        /* \"#utility.yul\":1730:1733   */\n      dup3\n        /* \"#utility.yul\":1723:1742   */\n      mstore\n        /* \"#utility.yul\":1775:1779   */\n      0x20\n        /* \"#utility.yul\":1770:1773   */\n      dup3\n        /* \"#utility.yul\":1766:1780   */\n      add\n        /* \"#utility.yul\":1751:1780   */\n      swap1\n      pop\n        /* \"#utility.yul\":1617:1786   */\n      swap3\n      swap2\n      pop\n      pop\n      jump\t// out\n        /* \"#utility.yul\":1792:1967   */\n    tag_85:\n        /* \"#utility.yul\":1932:1959   */\n      0x4f6e6c792062757965722063616e20646f207061796d656e7400000000000000\n        /* \"#utility.yul\":1928:1929   */\n      0x00\n        /* \"#utility.yul\":1920:1926   */\n      dup3\n        /* \"#utility.yul\":1916:1930   */\n      add\n        /* \"#utility.yul\":1909:1960   */\n      mstore\n        /* \"#utility.yul\":1792:1967   */\n      pop\n      jump\t// out\n        /* \"#utility.yul\":1973:2339   */\n    tag_86:\n        /* \"#utility.yul\":2115:2118   */\n      0x00\n        /* \"#utility.yul\":2136:2203   */\n      tag_116\n        /* \"#utility.yul\":2200:2202   */\n      0x19\n        /* \"#utility.yul\":2195:2198   */\n      dup4\n        /* \"#utility.yul\":2136:2203   */\n      tag_84\n      jump\t// in\n    tag_116:\n        /* \"#utility.yul\":2129:2203   */\n      swap2\n      pop\n        /* \"#utility.yul\":2212:2305   */\n      tag_117\n        /* \"#utility.yul\":2301:2304   */\n      dup3\n        /* \"#utility.yul\":2212:2305   */\n      tag_85\n      jump\t// in\n    tag_117:\n        /* \"#utility.yul\":2330:2332   */\n      0x20\n        /* \"#utility.yul\":2325:2328   */\n      dup3\n        /* \"#utility.yul\":2321:2333   */\n      add\n        /* \"#utility.yul\":2314:2333   */\n      swap1\n      pop\n        /* \"#utility.yul\":1973:2339   */\n      swap2\n      swap1\n      pop\n      jump\t// out\n        /* \"#utility.yul\":2345:2764   */\n    tag_38:\n        /* \"#utility.yul\":2511:2515   */\n      0x00\n        /* \"#utility.yul\":2549:2551   */\n      0x20\n        /* \"#utility.yul\":2538:2547   */\n      dup3\n        /* \"#utility.yul\":2534:2552   */\n      add\n        /* \"#utility.yul\":2526:2552   */\n      swap1\n      pop\n        /* \"#utility.yul\":2598:2607   */\n      dup2\n        /* \"#utility.yul\":2592:2596   */\n      dup2\n        /* \"#utility.yul\":2588:2608   */\n      sub\n        /* \"#utility.yul\":2584:2585   */\n      0x00\n        /* \"#utility.yul\":2573:2582   */\n      dup4\n        /* \"#utility.yul\":2569:2586   */\n      add\n        /* \"#utility.yul\":2562:2609   */\n      mstore\n        /* \"#utility.yul\":2626:2757   */\n      tag_119\n        /* \"#utility.yul\":2752:2756   */\n      dup2\n        /* \"#utility.yul\":2626:2757   */\n      tag_86\n      jump\t// in\n    tag_119:\n        /* \"#utility.yul\":2618:2757   */\n      swap1\n      pop\n        /* \"#utility.yul\":2345:2764   */\n      swap2\n      swap1\n      pop\n      jump\t// out\n        /* \"#utility.yul\":2770:2950   */\n    tag_87:\n        /* \"#utility.yul\":2910:2942   */\n      0x6d75737420626520696e206177616974207061796d656e742073746174650000\n        /* \"#utility.yul\":2906:2907   */\n      0x00\n        /* \"#utility.yul\":2898:2904   */\n      dup3\n        /* \"#utility.yul\":2894:2908   */\n      add\n        /* \"#utility.yul\":2887:2943   */\n      mstore\n        /* \"#utility.yul\":2770:2950   */\n      pop\n      jump\t// out\n        /* \"#utility.yul\":2956:3322   */\n    tag_88:\n        /* \"#utility.yul\":3098:3101   */\n      0x00\n        /* \"#utility.yul\":3119:3186   */\n      tag_122\n        /* \"#utility.yul\":3183:3185   */\n      0x1e\n        /* \"#utility.yul\":3178:3181   */\n      dup4\n        /* \"#utility.yul\":3119:3186   */\n      tag_84\n      jump\t// in\n    tag_122:\n        /* \"#utility.yul\":3112:3186   */\n      swap2\n      pop\n        /* \"#utility.yul\":3195:3288   */\n      tag_123\n        /* \"#utility.yul\":3284:3287   */\n      dup3\n        /* \"#utility.yul\":3195:3288   */\n      tag_87\n      jump\t// in\n    tag_123:\n        /* \"#utility.yul\":3313:3315   */\n      0x20\n        /* \"#utility.yul\":3308:3311   */\n      dup3\n        /* \"#utility.yul\":3304:3316   */\n      add\n        /* \"#utility.yul\":3297:3316   */\n      swap1\n      pop\n        /* \"#utility.yul\":2956:3322   */\n      swap2\n      swap1\n      pop\n      jump\t// out\n        /* \"#utility.yul\":3328:3747   */\n    tag_46:\n        /* \"#utility.yul\":3494:3498   */\n      0x00\n        /* \"#utility.yul\":3532:3534   */\n      0x20\n        /* \"#utility.yul\":3521:3530   */\n      dup3\n        /* \"#utility.yul\":3517:3535   */\n      add\n        /* \"#utility.yul\":3509:3535   */\n      swap1\n      pop\n        /* \"#utility.yul\":3581:3590   */\n      dup2\n        /* \"#utility.yul\":3575:3579   */\n      dup2\n        /* \"#utility.yul\":3571:3591   */\n      sub\n        /* \"#utility.yul\":3567:3568   */\n      0x00\n        /* \"#utility.yul\":3556:3565   */\n      dup4\n        /* \"#utility.yul\":3552:3569   */\n      add\n        /* \"#utility.yul\":3545:3592   */\n      mstore\n        /* \"#utility.yul\":3609:3740   */\n      tag_125\n        /* \"#utility.yul\":3735:3739   */\n      dup2\n        /* \"#utility.yul\":3609:3740   */\n      tag_88\n      jump\t// in\n    tag_125:\n        /* \"#utility.yul\":3601:3740   */\n      swap1\n      pop\n        /* \"#utility.yul\":3328:3747   */\n      swap2\n      swap1\n      pop\n      jump\t// out\n        /* \"#utility.yul\":3753:3934   */\n    tag_89:\n        /* \"#utility.yul\":3893:3926   */\n      0x4f6e6c792073656c6c65722063616e20636f6e6669726d207061796d656e7400\n        /* \"#utility.yul\":3889:3890   */\n      0x00\n        /* \"#utility.yul\":3881:3887   */\n      dup3\n        /* \"#utility.yul\":3877:3891   */\n      add\n        /* \"#utility.yul\":3870:3927   */\n      mstore\n        /* \"#utility.yul\":3753:3934   */\n      pop\n      jump\t// out\n        /* \"#utility.yul\":3940:4306   */\n    tag_90:\n        /* \"#utility.yul\":4082:4085   */\n      0x00\n        /* \"#utility.yul\":4103:4170   */\n      tag_128\n        /* \"#utility.yul\":4167:4169   */\n      0x1f\n        /* \"#utility.yul\":4162:4165   */\n      dup4\n        /* \"#utility.yul\":4103:4170   */\n      tag_84\n      jump\t// in\n    tag_128:\n        /* \"#utility.yul\":4096:4170   */\n      swap2\n      pop\n        /* \"#utility.yul\":4179:4272   */\n      tag_129\n        /* \"#utility.yul\":4268:4271   */\n      dup3\n        /* \"#utility.yul\":4179:4272   */\n      tag_89\n      jump\t// in\n    tag_129:\n        /* \"#utility.yul\":4297:4299   */\n      0x20\n        /* \"#utility.yul\":4292:4295   */\n      dup3\n        /* \"#utility.yul\":4288:4300   */\n      add\n        /* \"#utility.yul\":4281:4300   */\n      swap1\n      pop\n        /* \"#utility.yul\":3940:4306   */\n      swap2\n      swap1\n      pop\n      jump\t// out\n        /* \"#utility.yul\":4312:4731   */\n    tag_52:\n        /* \"#utility.yul\":4478:4482   */\n      0x00\n        /* \"#utility.yul\":4516:4518   */\n      0x20\n        /* \"#utility.yul\":4505:4514   */\n      dup3\n        /* \"#utility.yul\":4501:4519   */\n      add\n        /* \"#utility.yul\":4493:4519   */\n      swap1\n      pop\n        /* \"#utility.yul\":4565:4574   */\n      dup2\n        /* \"#utility.yul\":4559:4563   */\n      dup2\n        /* \"#utility.yul\":4555:4575   */\n      sub\n        /* \"#utility.yul\":4551:4552   */\n      0x00\n        /* \"#utility.yul\":4540:4549   */\n      dup4\n        /* \"#utility.yul\":4536:4553   */\n      add\n        /* \"#utility.yul\":4529:4576   */\n      mstore\n        /* \"#utility.yul\":4593:4724   */\n      tag_131\n        /* \"#utility.yul\":4719:4723   */\n      dup2\n        /* \"#utility.yul\":4593:4724   */\n      tag_90\n      jump\t// in\n    tag_131:\n        /* \"#utility.yul\":4585:4724   */\n      swap1\n      pop\n        /* \"#utility.yul\":4312:4731   */\n      swap2\n      swap1\n      pop\n      jump\t// out\n        /* \"#utility.yul\":4737:4913   */\n    tag_91:\n        /* \"#utility.yul\":4877:4905   */\n      0x4f6e6c792073656c6c65722063616e20646f2074686973212121000000000000\n        /* \"#utility.yul\":4873:4874   */\n      0x00\n        /* \"#utility.yul\":4865:4871   */\n      dup3\n        /* \"#utility.yul\":4861:4875   */\n      add\n        /* \"#utility.yul\":4854:4906   */\n      mstore\n        /* \"#utility.yul\":4737:4913   */\n      pop\n      jump\t// out\n        /* \"#utility.yul\":4919:5285   */\n    tag_92:\n        /* \"#utility.yul\":5061:5064   */\n      0x00\n        /* \"#utility.yul\":5082:5149   */\n      tag_134\n        /* \"#utility.yul\":5146:5148   */\n      0x1a\n        /* \"#utility.yul\":5141:5144   */\n      dup4\n        /* \"#utility.yul\":5082:5149   */\n      tag_84\n      jump\t// in\n    tag_134:\n        /* \"#utility.yul\":5075:5149   */\n      swap2\n      pop\n        /* \"#utility.yul\":5158:5251   */\n      tag_135\n        /* \"#utility.yul\":5247:5250   */\n      dup3\n        /* \"#utility.yul\":5158:5251   */\n      tag_91\n      jump\t// in\n    tag_135:\n        /* \"#utility.yul\":5276:5278   */\n      0x20\n        /* \"#utility.yul\":5271:5274   */\n      dup3\n        /* \"#utility.yul\":5267:5279   */\n      add\n        /* \"#utility.yul\":5260:5279   */\n      swap1\n      pop\n        /* \"#utility.yul\":4919:5285   */\n      swap2\n      swap1\n      pop\n      jump\t// out\n        /* \"#utility.yul\":5291:5710   */\n    tag_66:\n        /* \"#utility.yul\":5457:5461   */\n      0x00\n        /* \"#utility.yul\":5495:5497   */\n      0x20\n        /* \"#utility.yul\":5484:5493   */\n      dup3\n        /* \"#utility.yul\":5480:5498   */\n      add\n        /* \"#utility.yul\":5472:5498   */\n      swap1\n      pop\n        /* \"#utility.yul\":5544:5553   */\n      dup2\n        /* \"#utility.yul\":5538:5542   */\n      dup2\n        /* \"#utility.yul\":5534:5554   */\n      sub\n        /* \"#utility.yul\":5530:5531   */\n      0x00\n        /* \"#utility.yul\":5519:5528   */\n      dup4\n        /* \"#utility.yul\":5515:5532   */\n      add\n        /* \"#utility.yul\":5508:5555   */\n      mstore\n        /* \"#utility.yul\":5572:5703   */\n      tag_137\n        /* \"#utility.yul\":5698:5702   */\n      dup2\n        /* \"#utility.yul\":5572:5703   */\n      tag_92\n      jump\t// in\n    tag_137:\n        /* \"#utility.yul\":5564:5703   */\n      swap1\n      pop\n        /* \"#utility.yul\":5291:5710   */\n      swap2\n      swap1\n      pop\n      jump\t// out\n\n    auxdata: 0xa26469706673582212209408ae326e8d552bf6c6c0733c16652c231540d68a5211d8e16ec5222891fac664736f6c63430008140033\n}\n",
				"bytecode": {
					"linkReferences": {},
					"object": "608060405234801562000010575f80fd5b5060405162000d0738038062000d078339818101604052810190620000369190620002b3565b3360025f6101000a81548173ffffffffffffffffffffffffffffffffffffffff021916908373ffffffffffffffffffffffffffffffffffffffff1602179055508173ffffffffffffffffffffffffffffffffffffffff1660025f9054906101000a900473ffffffffffffffffffffffffffffffffffffffff1673ffffffffffffffffffffffffffffffffffffffff160362000108576040517f08c379a0000000000000000000000000000000000000000000000000000000008152600401620000ff9062000356565b60405180910390fd5b8073ffffffffffffffffffffffffffffffffffffffff1660025f9054906101000a900473ffffffffffffffffffffffffffffffffffffffff1673ffffffffffffffffffffffffffffffffffffffff16036200019a576040517f08c379a00000000000000000000000000000000000000000000000000000000081526004016200019190620003c4565b60405180910390fd5b815f806101000a81548173ffffffffffffffffffffffffffffffffffffffff021916908373ffffffffffffffffffffffffffffffffffffffff1602179055508060015f6101000a81548173ffffffffffffffffffffffffffffffffffffffff021916908373ffffffffffffffffffffffffffffffffffffffff1602179055505f600260146101000a81548160ff02191690836002811115620002415762000240620003e4565b5b0217905550505062000411565b5f80fd5b5f73ffffffffffffffffffffffffffffffffffffffff82169050919050565b5f6200027d8262000252565b9050919050565b6200028f8162000271565b81146200029a575f80fd5b50565b5f81519050620002ad8162000284565b92915050565b5f8060408385031215620002cc57620002cb6200024e565b5b5f620002db858286016200029d565b9250506020620002ee858286016200029d565b9150509250929050565b5f82825260208201905092915050565b7f657363726f772063616e277420626520627579657200000000000000000000005f82015250565b5f6200033e601583620002f8565b91506200034b8262000308565b602082019050919050565b5f6020820190508181035f8301526200036f8162000330565b9050919050565b7f657363726f772063616e27742062652073656c6c6572000000000000000000005f82015250565b5f620003ac601683620002f8565b9150620003b98262000376565b602082019050919050565b5f6020820190508181035f830152620003dd816200039e565b9050919050565b7f4e487b71000000000000000000000000000000000000000000000000000000005f52602160045260245ffd5b6108e8806200041f5f395ff3fe60806040526004361061006f575f3560e01c80637150d8ae1161004d5780637150d8ae146100bd578063ba414fa6146100e7578063c19d93fb146100f1578063e2fdcc171461011b5761006f565b806308551a531461007357806342f6487a1461009d57806362ef1f81146100a7575b5f80fd5b34801561007e575f80fd5b50610087610145565b604051610094919061065d565b60405180910390f35b6100a561016a565b005b3480156100b2575f80fd5b506100bb610299565b005b3480156100c8575f80fd5b506100d161042f565b6040516100de919061065d565b60405180910390f35b6100ef610452565b005b3480156100fc575f80fd5b506101056105e6565b60405161011291906106e9565b60405180910390f35b348015610126575f80fd5b5061012f6105f9565b60405161013c919061065d565b60405180910390f35b60015f9054906101000a900473ffffffffffffffffffffffffffffffffffffffff1681565b5f8054906101000a900473ffffffffffffffffffffffffffffffffffffffff1673ffffffffffffffffffffffffffffffffffffffff163373ffffffffffffffffffffffffffffffffffffffff16146101f7576040517f08c379a00000000000000000000000000000000000000000000000000000000081526004016101ee9061075c565b60405180910390fd5b5f600281111561020a57610209610676565b5b600260149054906101000a900460ff16600281111561022c5761022b610676565b5b1461026c576040517f08c379a0000000000000000000000000000000000000000000000000000000008152600401610263906107c4565b60405180910390fd5b6001600260146101000a81548160ff0219169083600281111561029257610291610676565b5b0217905550565b60015f9054906101000a900473ffffffffffffffffffffffffffffffffffffffff1673ffffffffffffffffffffffffffffffffffffffff163373ffffffffffffffffffffffffffffffffffffffff1614610328576040517f08c379a000000000000000000000000000000000000000000000000000000000815260040161031f9061082c565b60405180910390fd5b6001600281111561033c5761033b610676565b5b600260149054906101000a900460ff16600281111561035e5761035d610676565b5b1461039e576040517f08c379a0000000000000000000000000000000000000000000000000000000008152600401610395906107c4565b60405180910390fd5b60015f9054906101000a900473ffffffffffffffffffffffffffffffffffffffff1673ffffffffffffffffffffffffffffffffffffffff166108fc4790811502906040515f60405180830381858888f19350505050158015610402573d5f803e3d5ffd5b5060028060146101000a81548160ff0219169083600281111561042857610427610676565b5b0217905550565b5f8054906101000a900473ffffffffffffffffffffffffffffffffffffffff1681565b60015f9054906101000a900473ffffffffffffffffffffffffffffffffffffffff1673ffffffffffffffffffffffffffffffffffffffff163373ffffffffffffffffffffffffffffffffffffffff16146104e1576040517f08c379a00000000000000000000000000000000000000000000000000000000081526004016104d890610894565b60405180910390fd5b600160028111156104f5576104f4610676565b5b600260149054906101000a900460ff16600281111561051757610516610676565b5b14610557576040517f08c379a000000000000000000000000000000000000000000000000000000000815260040161054e906107c4565b60405180910390fd5b5f8054906101000a900473ffffffffffffffffffffffffffffffffffffffff1673ffffffffffffffffffffffffffffffffffffffff166108fc4790811502906040515f60405180830381858888f193505050501580156105b9573d5f803e3d5ffd5b505f600260146101000a81548160ff021916908360028111156105df576105de610676565b5b0217905550565b600260149054906101000a900460ff1681565b60025f9054906101000a900473ffffffffffffffffffffffffffffffffffffffff1681565b5f73ffffffffffffffffffffffffffffffffffffffff82169050919050565b5f6106478261061e565b9050919050565b6106578161063d565b82525050565b5f6020820190506106705f83018461064e565b92915050565b7f4e487b71000000000000000000000000000000000000000000000000000000005f52602160045260245ffd5b600381106106b4576106b3610676565b5b50565b5f8190506106c4826106a3565b919050565b5f6106d3826106b7565b9050919050565b6106e3816106c9565b82525050565b5f6020820190506106fc5f8301846106da565b92915050565b5f82825260208201905092915050565b7f4f6e6c792062757965722063616e20646f207061796d656e74000000000000005f82015250565b5f610746601983610702565b915061075182610712565b602082019050919050565b5f6020820190508181035f8301526107738161073a565b9050919050565b7f6d75737420626520696e206177616974207061796d656e7420737461746500005f82015250565b5f6107ae601e83610702565b91506107b98261077a565b602082019050919050565b5f6020820190508181035f8301526107db816107a2565b9050919050565b7f4f6e6c792073656c6c65722063616e20636f6e6669726d207061796d656e74005f82015250565b5f610816601f83610702565b9150610821826107e2565b602082019050919050565b5f6020820190508181035f8301526108438161080a565b9050919050565b7f4f6e6c792073656c6c65722063616e20646f20746869732121210000000000005f82015250565b5f61087e601a83610702565b91506108898261084a565b602082019050919050565b5f6020820190508181035f8301526108ab81610872565b905091905056fea26469706673582212209408ae326e8d552bf6c6c0733c16652c231540d68a5211d8e16ec5222891fac664736f6c63430008140033",
					"opcodes": "PUSH1 0x80 PUSH1 0x40 MSTORE CALLVALUE DUP1 ISZERO PUSH3 0x10 JUMPI PUSH0 DUP1 REVERT JUMPDEST POP PUSH1 0x40 MLOAD PUSH3 0xD07 CODESIZE SUB DUP1 PUSH3 0xD07 DUP4 CODECOPY DUP2 DUP2 ADD PUSH1 0x40 MSTORE DUP2 ADD SWAP1 PUSH3 0x36 SWAP2 SWAP1 PUSH3 0x2B3 JUMP JUMPDEST CALLER PUSH1 0x2 PUSH0 PUSH2 0x100 EXP DUP2 SLOAD DUP2 PUSH20 0xFFFFFFFFFFFFFFFFFFFFFFFFFFFFFFFFFFFFFFFF MUL NOT AND SWAP1 DUP4 PUSH20 0xFFFFFFFFFFFFFFFFFFFFFFFFFFFFFFFFFFFFFFFF AND MUL OR SWAP1 SSTORE POP DUP2 PUSH20 0xFFFFFFFFFFFFFFFFFFFFFFFFFFFFFFFFFFFFFFFF AND PUSH1 0x2 PUSH0 SWAP1 SLOAD SWAP1 PUSH2 0x100 EXP SWAP1 DIV PUSH20 0xFFFFFFFFFFFFFFFFFFFFFFFFFFFFFFFFFFFFFFFF AND PUSH20 0xFFFFFFFFFFFFFFFFFFFFFFFFFFFFFFFFFFFFFFFF AND SUB PUSH3 0x108 JUMPI PUSH1 0x40 MLOAD PUSH32 0x8C379A000000000000000000000000000000000000000000000000000000000 DUP2 MSTORE PUSH1 0x4 ADD PUSH3 0xFF SWAP1 PUSH3 0x356 JUMP JUMPDEST PUSH1 0x40 MLOAD DUP1 SWAP2 SUB SWAP1 REVERT JUMPDEST DUP1 PUSH20 0xFFFFFFFFFFFFFFFFFFFFFFFFFFFFFFFFFFFFFFFF AND PUSH1 0x2 PUSH0 SWAP1 SLOAD SWAP1 PUSH2 0x100 EXP SWAP1 DIV PUSH20 0xFFFFFFFFFFFFFFFFFFFFFFFFFFFFFFFFFFFFFFFF AND PUSH20 0xFFFFFFFFFFFFFFFFFFFFFFFFFFFFFFFFFFFFFFFF AND SUB PUSH3 0x19A JUMPI PUSH1 0x40 MLOAD PUSH32 0x8C379A000000000000000000000000000000000000000000000000000000000 DUP2 MSTORE PUSH1 0x4 ADD PUSH3 0x191 SWAP1 PUSH3 0x3C4 JUMP JUMPDEST PUSH1 0x40 MLOAD DUP1 SWAP2 SUB SWAP1 REVERT JUMPDEST DUP2 PUSH0 DUP1 PUSH2 0x100 EXP DUP2 SLOAD DUP2 PUSH20 0xFFFFFFFFFFFFFFFFFFFFFFFFFFFFFFFFFFFFFFFF MUL NOT AND SWAP1 DUP4 PUSH20 0xFFFFFFFFFFFFFFFFFFFFFFFFFFFFFFFFFFFFFFFF AND MUL OR SWAP1 SSTORE POP DUP1 PUSH1 0x1 PUSH0 PUSH2 0x100 EXP DUP2 SLOAD DUP2 PUSH20 0xFFFFFFFFFFFFFFFFFFFFFFFFFFFFFFFFFFFFFFFF MUL NOT AND SWAP1 DUP4 PUSH20 0xFFFFFFFFFFFFFFFFFFFFFFFFFFFFFFFFFFFFFFFF AND MUL OR SWAP1 SSTORE POP PUSH0 PUSH1 0x2 PUSH1 0x14 PUSH2 0x100 EXP DUP2 SLOAD DUP2 PUSH1 0xFF MUL NOT AND SWAP1 DUP4 PUSH1 0x2 DUP2 GT ISZERO PUSH3 0x241 JUMPI PUSH3 0x240 PUSH3 0x3E4 JUMP JUMPDEST JUMPDEST MUL OR SWAP1 SSTORE POP POP POP PUSH3 0x411 JUMP JUMPDEST PUSH0 DUP1 REVERT JUMPDEST PUSH0 PUSH20 0xFFFFFFFFFFFFFFFFFFFFFFFFFFFFFFFFFFFFFFFF DUP3 AND SWAP1 POP SWAP2 SWAP1 POP JUMP JUMPDEST PUSH0 PUSH3 0x27D DUP3 PUSH3 0x252 JUMP JUMPDEST SWAP1 POP SWAP2 SWAP1 POP JUMP JUMPDEST PUSH3 0x28F DUP2 PUSH3 0x271 JUMP JUMPDEST DUP2 EQ PUSH3 0x29A JUMPI PUSH0 DUP1 REVERT JUMPDEST POP JUMP JUMPDEST PUSH0 DUP2 MLOAD SWAP1 POP PUSH3 0x2AD DUP2 PUSH3 0x284 JUMP JUMPDEST SWAP3 SWAP2 POP POP JUMP JUMPDEST PUSH0 DUP1 PUSH1 0x40 DUP4 DUP6 SUB SLT ISZERO PUSH3 0x2CC JUMPI PUSH3 0x2CB PUSH3 0x24E JUMP JUMPDEST JUMPDEST PUSH0 PUSH3 0x2DB DUP6 DUP3 DUP7 ADD PUSH3 0x29D JUMP JUMPDEST SWAP3 POP POP PUSH1 0x20 PUSH3 0x2EE DUP6 DUP3 DUP7 ADD PUSH3 0x29D JUMP JUMPDEST SWAP2 POP POP SWAP3 POP SWAP3 SWAP1 POP JUMP JUMPDEST PUSH0 DUP3 DUP3 MSTORE PUSH1 0x20 DUP3 ADD SWAP1 POP SWAP3 SWAP2 POP POP JUMP JUMPDEST PUSH32 0x657363726F772063616E27742062652062757965720000000000000000000000 PUSH0 DUP3 ADD MSTORE POP JUMP JUMPDEST PUSH0 PUSH3 0x33E PUSH1 0x15 DUP4 PUSH3 0x2F8 JUMP JUMPDEST SWAP2 POP PUSH3 0x34B DUP3 PUSH3 0x308 JUMP JUMPDEST PUSH1 0x20 DUP3 ADD SWAP1 POP SWAP2 SWAP1 POP JUMP JUMPDEST PUSH0 PUSH1 0x20 DUP3 ADD SWAP1 POP DUP2 DUP2 SUB PUSH0 DUP4 ADD MSTORE PUSH3 0x36F DUP2 PUSH3 0x330 JUMP JUMPDEST SWAP1 POP SWAP2 SWAP1 POP JUMP JUMPDEST PUSH32 0x657363726F772063616E27742062652073656C6C657200000000000000000000 PUSH0 DUP3 ADD MSTORE POP JUMP JUMPDEST PUSH0 PUSH3 0x3AC PUSH1 0x16 DUP4 PUSH3 0x2F8 JUMP JUMPDEST SWAP2 POP PUSH3 0x3B9 DUP3 PUSH3 0x376 JUMP JUMPDEST PUSH1 0x20 DUP3 ADD SWAP1 POP SWAP2 SWAP1 POP JUMP JUMPDEST PUSH0 PUSH1 0x20 DUP3 ADD SWAP1 POP DUP2 DUP2 SUB PUSH0 DUP4 ADD MSTORE PUSH3 0x3DD DUP2 PUSH3 0x39E JUMP JUMPDEST SWAP1 POP SWAP2 SWAP1 POP JUMP JUMPDEST PUSH32 0x4E487B7100000000000000000000000000000000000000000000000000000000 PUSH0 MSTORE PUSH1 0x21 PUSH1 0x4 MSTORE PUSH1 0x24 PUSH0 REVERT JUMPDEST PUSH2 0x8E8 DUP1 PUSH3 0x41F PUSH0 CODECOPY PUSH0 RETURN INVALID PUSH1 0x80 PUSH1 0x40 MSTORE PUSH1 0x4 CALLDATASIZE LT PUSH2 0x6F JUMPI PUSH0 CALLDATALOAD PUSH1 0xE0 SHR DUP1 PUSH4 0x7150D8AE GT PUSH2 0x4D JUMPI DUP1 PUSH4 0x7150D8AE EQ PUSH2 0xBD JUMPI DUP1 PUSH4 0xBA414FA6 EQ PUSH2 0xE7 JUMPI DUP1 PUSH4 0xC19D93FB EQ PUSH2 0xF1 JUMPI DUP1 PUSH4 0xE2FDCC17 EQ PUSH2 0x11B JUMPI PUSH2 0x6F JUMP JUMPDEST DUP1 PUSH4 0x8551A53 EQ PUSH2 0x73 JUMPI DUP1 PUSH4 0x42F6487A EQ PUSH2 0x9D JUMPI DUP1 PUSH4 0x62EF1F81 EQ PUSH2 0xA7 JUMPI JUMPDEST PUSH0 DUP1 REVERT JUMPDEST CALLVALUE DUP1 ISZERO PUSH2 0x7E JUMPI PUSH0 DUP1 REVERT JUMPDEST POP PUSH2 0x87 PUSH2 0x145 JUMP JUMPDEST PUSH1 0x40 MLOAD PUSH2 0x94 SWAP2 SWAP1 PUSH2 0x65D JUMP JUMPDEST PUSH1 0x40 MLOAD DUP1 SWAP2 SUB SWAP1 RETURN JUMPDEST PUSH2 0xA5 PUSH2 0x16A JUMP JUMPDEST STOP JUMPDEST CALLVALUE DUP1 ISZERO PUSH2 0xB2 JUMPI PUSH0 DUP1 REVERT JUMPDEST POP PUSH2 0xBB PUSH2 0x299 JUMP JUMPDEST STOP JUMPDEST CALLVALUE DUP1 ISZERO PUSH2 0xC8 JUMPI PUSH0 DUP1 REVERT JUMPDEST POP PUSH2 0xD1 PUSH2 0x42F JUMP JUMPDEST PUSH1 0x40 MLOAD PUSH2 0xDE SWAP2 SWAP1 PUSH2 0x65D JUMP JUMPDEST PUSH1 0x40 MLOAD DUP1 SWAP2 SUB SWAP1 RETURN JUMPDEST PUSH2 0xEF PUSH2 0x452 JUMP JUMPDEST STOP JUMPDEST CALLVALUE DUP1 ISZERO PUSH2 0xFC JUMPI PUSH0 DUP1 REVERT JUMPDEST POP PUSH2 0x105 PUSH2 0x5E6 JUMP JUMPDEST PUSH1 0x40 MLOAD PUSH2 0x112 SWAP2 SWAP1 PUSH2 0x6E9 JUMP JUMPDEST PUSH1 0x40 MLOAD DUP1 SWAP2 SUB SWAP1 RETURN JUMPDEST CALLVALUE DUP1 ISZERO PUSH2 0x126 JUMPI PUSH0 DUP1 REVERT JUMPDEST POP PUSH2 0x12F PUSH2 0x5F9 JUMP JUMPDEST PUSH1 0x40 MLOAD PUSH2 0x13C SWAP2 SWAP1 PUSH2 0x65D JUMP JUMPDEST PUSH1 0x40 MLOAD DUP1 SWAP2 SUB SWAP1 RETURN JUMPDEST PUSH1 0x1 PUSH0 SWAP1 SLOAD SWAP1 PUSH2 0x100 EXP SWAP1 DIV PUSH20 0xFFFFFFFFFFFFFFFFFFFFFFFFFFFFFFFFFFFFFFFF AND DUP2 JUMP JUMPDEST PUSH0 DUP1 SLOAD SWAP1 PUSH2 0x100 EXP SWAP1 DIV PUSH20 0xFFFFFFFFFFFFFFFFFFFFFFFFFFFFFFFFFFFFFFFF AND PUSH20 0xFFFFFFFFFFFFFFFFFFFFFFFFFFFFFFFFFFFFFFFF AND CALLER PUSH20 0xFFFFFFFFFFFFFFFFFFFFFFFFFFFFFFFFFFFFFFFF AND EQ PUSH2 0x1F7 JUMPI PUSH1 0x40 MLOAD PUSH32 0x8C379A000000000000000000000000000000000000000000000000000000000 DUP2 MSTORE PUSH1 0x4 ADD PUSH2 0x1EE SWAP1 PUSH2 0x75C JUMP JUMPDEST PUSH1 0x40 MLOAD DUP1 SWAP2 SUB SWAP1 REVERT JUMPDEST PUSH0 PUSH1 0x2 DUP2 GT ISZERO PUSH2 0x20A JUMPI PUSH2 0x209 PUSH2 0x676 JUMP JUMPDEST JUMPDEST PUSH1 0x2 PUSH1 0x14 SWAP1 SLOAD SWAP1 PUSH2 0x100 EXP SWAP1 DIV PUSH1 0xFF AND PUSH1 0x2 DUP2 GT ISZERO PUSH2 0x22C JUMPI PUSH2 0x22B PUSH2 0x676 JUMP JUMPDEST JUMPDEST EQ PUSH2 0x26C JUMPI PUSH1 0x40 MLOAD PUSH32 0x8C379A000000000000000000000000000000000000000000000000000000000 DUP2 MSTORE PUSH1 0x4 ADD PUSH2 0x263 SWAP1 PUSH2 0x7C4 JUMP JUMPDEST PUSH1 0x40 MLOAD DUP1 SWAP2 SUB SWAP1 REVERT JUMPDEST PUSH1 0x1 PUSH1 0x2 PUSH1 0x14 PUSH2 0x100 EXP DUP2 SLOAD DUP2 PUSH1 0xFF MUL NOT AND SWAP1 DUP4 PUSH1 0x2 DUP2 GT ISZERO PUSH2 0x292 JUMPI PUSH2 0x291 PUSH2 0x676 JUMP JUMPDEST JUMPDEST MUL OR SWAP1 SSTORE POP JUMP JUMPDEST PUSH1 0x1 PUSH0 SWAP1 SLOAD SWAP1 PUSH2 0x100 EXP SWAP1 DIV PUSH20 0xFFFFFFFFFFFFFFFFFFFFFFFFFFFFFFFFFFFFFFFF AND PUSH20 0xFFFFFFFFFFFFFFFFFFFFFFFFFFFFFFFFFFFFFFFF AND CALLER PUSH20 0xFFFFFFFFFFFFFFFFFFFFFFFFFFFFFFFFFFFFFFFF AND EQ PUSH2 0x328 JUMPI PUSH1 0x40 MLOAD PUSH32 0x8C379A000000000000000000000000000000000000000000000000000000000 DUP2 MSTORE PUSH1 0x4 ADD PUSH2 0x31F SWAP1 PUSH2 0x82C JUMP JUMPDEST PUSH1 0x40 MLOAD DUP1 SWAP2 SUB SWAP1 REVERT JUMPDEST PUSH1 0x1 PUSH1 0x2 DUP2 GT ISZERO PUSH2 0x33C JUMPI PUSH2 0x33B PUSH2 0x676 JUMP JUMPDEST JUMPDEST PUSH1 0x2 PUSH1 0x14 SWAP1 SLOAD SWAP1 PUSH2 0x100 EXP SWAP1 DIV PUSH1 0xFF AND PUSH1 0x2 DUP2 GT ISZERO PUSH2 0x35E JUMPI PUSH2 0x35D PUSH2 0x676 JUMP JUMPDEST JUMPDEST EQ PUSH2 0x39E JUMPI PUSH1 0x40 MLOAD PUSH32 0x8C379A000000000000000000000000000000000000000000000000000000000 DUP2 MSTORE PUSH1 0x4 ADD PUSH2 0x395 SWAP1 PUSH2 0x7C4 JUMP JUMPDEST PUSH1 0x40 MLOAD DUP1 SWAP2 SUB SWAP1 REVERT JUMPDEST PUSH1 0x1 PUSH0 SWAP1 SLOAD SWAP1 PUSH2 0x100 EXP SWAP1 DIV PUSH20 0xFFFFFFFFFFFFFFFFFFFFFFFFFFFFFFFFFFFFFFFF AND PUSH20 0xFFFFFFFFFFFFFFFFFFFFFFFFFFFFFFFFFFFFFFFF AND PUSH2 0x8FC SELFBALANCE SWAP1 DUP2 ISZERO MUL SWAP1 PUSH1 0x40 MLOAD PUSH0 PUSH1 0x40 MLOAD DUP1 DUP4 SUB DUP2 DUP6 DUP9 DUP9 CALL SWAP4 POP POP POP POP ISZERO DUP1 ISZERO PUSH2 0x402 JUMPI RETURNDATASIZE PUSH0 DUP1 RETURNDATACOPY RETURNDATASIZE PUSH0 REVERT JUMPDEST POP PUSH1 0x2 DUP1 PUSH1 0x14 PUSH2 0x100 EXP DUP2 SLOAD DUP2 PUSH1 0xFF MUL NOT AND SWAP1 DUP4 PUSH1 0x2 DUP2 GT ISZERO PUSH2 0x428 JUMPI PUSH2 0x427 PUSH2 0x676 JUMP JUMPDEST JUMPDEST MUL OR SWAP1 SSTORE POP JUMP JUMPDEST PUSH0 DUP1 SLOAD SWAP1 PUSH2 0x100 EXP SWAP1 DIV PUSH20 0xFFFFFFFFFFFFFFFFFFFFFFFFFFFFFFFFFFFFFFFF AND DUP2 JUMP JUMPDEST PUSH1 0x1 PUSH0 SWAP1 SLOAD SWAP1 PUSH2 0x100 EXP SWAP1 DIV PUSH20 0xFFFFFFFFFFFFFFFFFFFFFFFFFFFFFFFFFFFFFFFF AND PUSH20 0xFFFFFFFFFFFFFFFFFFFFFFFFFFFFFFFFFFFFFFFF AND CALLER PUSH20 0xFFFFFFFFFFFFFFFFFFFFFFFFFFFFFFFFFFFFFFFF AND EQ PUSH2 0x4E1 JUMPI PUSH1 0x40 MLOAD PUSH32 0x8C379A000000000000000000000000000000000000000000000000000000000 DUP2 MSTORE PUSH1 0x4 ADD PUSH2 0x4D8 SWAP1 PUSH2 0x894 JUMP JUMPDEST PUSH1 0x40 MLOAD DUP1 SWAP2 SUB SWAP1 REVERT JUMPDEST PUSH1 0x1 PUSH1 0x2 DUP2 GT ISZERO PUSH2 0x4F5 JUMPI PUSH2 0x4F4 PUSH2 0x676 JUMP JUMPDEST JUMPDEST PUSH1 0x2 PUSH1 0x14 SWAP1 SLOAD SWAP1 PUSH2 0x100 EXP SWAP1 DIV PUSH1 0xFF AND PUSH1 0x2 DUP2 GT ISZERO PUSH2 0x517 JUMPI PUSH2 0x516 PUSH2 0x676 JUMP JUMPDEST JUMPDEST EQ PUSH2 0x557 JUMPI PUSH1 0x40 MLOAD PUSH32 0x8C379A000000000000000000000000000000000000000000000000000000000 DUP2 MSTORE PUSH1 0x4 ADD PUSH2 0x54E SWAP1 PUSH2 0x7C4 JUMP JUMPDEST PUSH1 0x40 MLOAD DUP1 SWAP2 SUB SWAP1 REVERT JUMPDEST PUSH0 DUP1 SLOAD SWAP1 PUSH2 0x100 EXP SWAP1 DIV PUSH20 0xFFFFFFFFFFFFFFFFFFFFFFFFFFFFFFFFFFFFFFFF AND PUSH20 0xFFFFFFFFFFFFFFFFFFFFFFFFFFFFFFFFFFFFFFFF AND PUSH2 0x8FC SELFBALANCE SWAP1 DUP2 ISZERO MUL SWAP1 PUSH1 0x40 MLOAD PUSH0 PUSH1 0x40 MLOAD DUP1 DUP4 SUB DUP2 DUP6 DUP9 DUP9 CALL SWAP4 POP POP POP POP ISZERO DUP1 ISZERO PUSH2 0x5B9 JUMPI RETURNDATASIZE PUSH0 DUP1 RETURNDATACOPY RETURNDATASIZE PUSH0 REVERT JUMPDEST POP PUSH0 PUSH1 0x2 PUSH1 0x14 PUSH2 0x100 EXP DUP2 SLOAD DUP2 PUSH1 0xFF MUL NOT AND SWAP1 DUP4 PUSH1 0x2 DUP2 GT ISZERO PUSH2 0x5DF JUMPI PUSH2 0x5DE PUSH2 0x676 JUMP JUMPDEST JUMPDEST MUL OR SWAP1 SSTORE POP JUMP JUMPDEST PUSH1 0x2 PUSH1 0x14 SWAP1 SLOAD SWAP1 PUSH2 0x100 EXP SWAP1 DIV PUSH1 0xFF AND DUP2 JUMP JUMPDEST PUSH1 0x2 PUSH0 SWAP1 SLOAD SWAP1 PUSH2 0x100 EXP SWAP1 DIV PUSH20 0xFFFFFFFFFFFFFFFFFFFFFFFFFFFFFFFFFFFFFFFF AND DUP2 JUMP JUMPDEST PUSH0 PUSH20 0xFFFFFFFFFFFFFFFFFFFFFFFFFFFFFFFFFFFFFFFF DUP3 AND SWAP1 POP SWAP2 SWAP1 POP JUMP JUMPDEST PUSH0 PUSH2 0x647 DUP3 PUSH2 0x61E JUMP JUMPDEST SWAP1 POP SWAP2 SWAP1 POP JUMP JUMPDEST PUSH2 0x657 DUP2 PUSH2 0x63D JUMP JUMPDEST DUP3 MSTORE POP POP JUMP JUMPDEST PUSH0 PUSH1 0x20 DUP3 ADD SWAP1 POP PUSH2 0x670 PUSH0 DUP4 ADD DUP5 PUSH2 0x64E JUMP JUMPDEST SWAP3 SWAP2 POP POP JUMP JUMPDEST PUSH32 0x4E487B7100000000000000000000000000000000000000000000000000000000 PUSH0 MSTORE PUSH1 0x21 PUSH1 0x4 MSTORE PUSH1 0x24 PUSH0 REVERT JUMPDEST PUSH1 0x3 DUP2 LT PUSH2 0x6B4 JUMPI PUSH2 0x6B3 PUSH2 0x676 JUMP JUMPDEST JUMPDEST POP JUMP JUMPDEST PUSH0 DUP2 SWAP1 POP PUSH2 0x6C4 DUP3 PUSH2 0x6A3 JUMP JUMPDEST SWAP2 SWAP1 POP JUMP JUMPDEST PUSH0 PUSH2 0x6D3 DUP3 PUSH2 0x6B7 JUMP JUMPDEST SWAP1 POP SWAP2 SWAP1 POP JUMP JUMPDEST PUSH2 0x6E3 DUP2 PUSH2 0x6C9 JUMP JUMPDEST DUP3 MSTORE POP POP JUMP JUMPDEST PUSH0 PUSH1 0x20 DUP3 ADD SWAP1 POP PUSH2 0x6FC PUSH0 DUP4 ADD DUP5 PUSH2 0x6DA JUMP JUMPDEST SWAP3 SWAP2 POP POP JUMP JUMPDEST PUSH0 DUP3 DUP3 MSTORE PUSH1 0x20 DUP3 ADD SWAP1 POP SWAP3 SWAP2 POP POP JUMP JUMPDEST PUSH32 0x4F6E6C792062757965722063616E20646F207061796D656E7400000000000000 PUSH0 DUP3 ADD MSTORE POP JUMP JUMPDEST PUSH0 PUSH2 0x746 PUSH1 0x19 DUP4 PUSH2 0x702 JUMP JUMPDEST SWAP2 POP PUSH2 0x751 DUP3 PUSH2 0x712 JUMP JUMPDEST PUSH1 0x20 DUP3 ADD SWAP1 POP SWAP2 SWAP1 POP JUMP JUMPDEST PUSH0 PUSH1 0x20 DUP3 ADD SWAP1 POP DUP2 DUP2 SUB PUSH0 DUP4 ADD MSTORE PUSH2 0x773 DUP2 PUSH2 0x73A JUMP JUMPDEST SWAP1 POP SWAP2 SWAP1 POP JUMP JUMPDEST PUSH32 0x6D75737420626520696E206177616974207061796D656E742073746174650000 PUSH0 DUP3 ADD MSTORE POP JUMP JUMPDEST PUSH0 PUSH2 0x7AE PUSH1 0x1E DUP4 PUSH2 0x702 JUMP JUMPDEST SWAP2 POP PUSH2 0x7B9 DUP3 PUSH2 0x77A JUMP JUMPDEST PUSH1 0x20 DUP3 ADD SWAP1 POP SWAP2 SWAP1 POP JUMP JUMPDEST PUSH0 PUSH1 0x20 DUP3 ADD SWAP1 POP DUP2 DUP2 SUB PUSH0 DUP4 ADD MSTORE PUSH2 0x7DB DUP2 PUSH2 0x7A2 JUMP JUMPDEST SWAP1 POP SWAP2 SWAP1 POP JUMP JUMPDEST PUSH32 0x4F6E6C792073656C6C65722063616E20636F6E6669726D207061796D656E7400 PUSH0 DUP3 ADD MSTORE POP JUMP JUMPDEST PUSH0 PUSH2 0x816 PUSH1 0x1F DUP4 PUSH2 0x702 JUMP JUMPDEST SWAP2 POP PUSH2 0x821 DUP3 PUSH2 0x7E2 JUMP JUMPDEST PUSH1 0x20 DUP3 ADD SWAP1 POP SWAP2 SWAP1 POP JUMP JUMPDEST PUSH0 PUSH1 0x20 DUP3 ADD SWAP1 POP DUP2 DUP2 SUB PUSH0 DUP4 ADD MSTORE PUSH2 0x843 DUP2 PUSH2 0x80A JUMP JUMPDEST SWAP1 POP SWAP2 SWAP1 POP JUMP JUMPDEST PUSH32 0x4F6E6C792073656C6C65722063616E20646F2074686973212121000000000000 PUSH0 DUP3 ADD MSTORE POP JUMP JUMPDEST PUSH0 PUSH2 0x87E PUSH1 0x1A DUP4 PUSH2 0x702 JUMP JUMPDEST SWAP2 POP PUSH2 0x889 DUP3 PUSH2 0x84A JUMP JUMPDEST PUSH1 0x20 DUP3 ADD SWAP1 POP SWAP2 SWAP1 POP JUMP JUMPDEST PUSH0 PUSH1 0x20 DUP3 ADD SWAP1 POP DUP2 DUP2 SUB PUSH0 DUP4 ADD MSTORE PUSH2 0x8AB DUP2 PUSH2 0x872 JUMP JUMPDEST SWAP1 POP SWAP2 SWAP1 POP JUMP INVALID LOG2 PUSH5 0x6970667358 0x22 SLT KECCAK256 SWAP5 ADDMOD 0xAE ORIGIN PUSH15 0x8D552BF6C6C0733C16652C231540D6 DUP11 MSTORE GT 0xD8 0xE1 PUSH15 0xC5222891FAC664736F6C6343000814 STOP CALLER "
				},
				"gasEstimates": {
					"creation": {
						"codeDepositCost": "456000",
						"executionCost": "infinite",
						"totalCost": "infinite"
					},
					"external": {
						"buyer()": "2505",
						"confirmPayment()": "infinite",
						"escrow()": "2574",
						"failed()": "infinite",
						"payment()": "28905",
						"seller()": "2509",
						"state()": "2649"
					}
				},
				"methodIdentifiers": {
					"buyer()": "7150d8ae",
					"confirmPayment()": "62ef1f81",
					"escrow()": "e2fdcc17",
					"failed()": "ba414fa6",
					"payment()": "42f6487a",
					"seller()": "08551a53",
					"state()": "c19d93fb"
				}
			},
			"storageLayout": {
				"storage": [
					{
						"astId": 3,
						"contract": "Escrow_Simple.sol:Escrow",
						"label": "buyer",
						"offset": 0,
						"slot": "0",
						"type": "t_address_payable"
					},
					{
						"astId": 5,
						"contract": "Escrow_Simple.sol:Escrow",
						"label": "seller",
						"offset": 0,
						"slot": "1",
						"type": "t_address_payable"
					},
					{
						"astId": 7,
						"contract": "Escrow_Simple.sol:Escrow",
						"label": "escrow",
						"offset": 0,
						"slot": "2",
						"type": "t_address_payable"
					},
					{
						"astId": 14,
						"contract": "Escrow_Simple.sol:Escrow",
						"label": "state",
						"offset": 20,
						"slot": "2",
						"type": "t_enum(State)11"
					}
				],
				"types": {
					"t_address_payable": {
						"encoding": "inplace",
						"label": "address payable",
						"numberOfBytes": "20"
					},
					"t_enum(State)11": {
						"encoding": "inplace",
						"label": "enum Escrow.State",
						"numberOfBytes": "1"
					}
				}
			},
			"userdoc": {
				"kind": "user",
				"methods": {},
				"version": 1
			}
		}
	}
}