{
	"vesting.sol": {
		"TokenVesting": {
			"abi": [
				{
					"inputs": [
						{
							"internalType": "address",
							"name": "_tokenAddress",
							"type": "address"
						}
					],
					"stateMutability": "nonpayable",
					"type": "constructor"
				},
				{
					"anonymous": false,
					"inputs": [
						{
							"indexed": false,
							"internalType": "address",
							"name": "beneficiary",
							"type": "address"
						},
						{
							"indexed": false,
							"internalType": "uint256",
							"name": "amount",
							"type": "uint256"
						}
					],
					"name": "TokensReleased",
					"type": "event"
				},
				{
					"inputs": [
						{
							"internalType": "address",
							"name": "_beneficiary",
							"type": "address"
						}
					],
					"name": "calculateVestedAmount",
					"outputs": [
						{
							"internalType": "uint256",
							"name": "",
							"type": "uint256"
						}
					],
					"stateMutability": "view",
					"type": "function"
				},
				{
					"inputs": [
						{
							"internalType": "address",
							"name": "_beneficiary",
							"type": "address"
						},
						{
							"internalType": "uint256",
							"name": "_totalTokens",
							"type": "uint256"
						},
						{
							"internalType": "uint256",
							"name": "_startTime",
							"type": "uint256"
						},
						{
							"internalType": "uint256",
							"name": "_cliffDuration",
							"type": "uint256"
						},
						{
							"internalType": "uint256",
							"name": "_vestingDuration",
							"type": "uint256"
						}
					],
					"name": "createVestingSchedule",
					"outputs": [],
					"stateMutability": "nonpayable",
					"type": "function"
				},
				{
					"inputs": [
						{
							"internalType": "address",
							"name": "_beneficiary",
							"type": "address"
						}
					],
					"name": "releaseTokens",
					"outputs": [],
					"stateMutability": "nonpayable",
					"type": "function"
				},
				{
					"inputs": [],
					"name": "tokenAddress",
					"outputs": [
						{
							"internalType": "address",
							"name": "",
							"type": "address"
						}
					],
					"stateMutability": "view",
					"type": "function"
				},
				{
					"inputs": [
						{
							"internalType": "address",
							"name": "",
							"type": "address"
						}
					],
					"name": "vestedTokens",
					"outputs": [
						{
							"internalType": "uint256",
							"name": "",
							"type": "uint256"
						}
					],
					"stateMutability": "view",
					"type": "function"
				},
				{
					"inputs": [
						{
							"internalType": "address",
							"name": "",
							"type": "address"
						}
					],
					"name": "vestingSchedules",
					"outputs": [
						{
							"internalType": "uint256",
							"name": "totalTokens",
							"type": "uint256"
						},
						{
							"internalType": "uint256",
							"name": "startTime",
							"type": "uint256"
						},
						{
							"internalType": "uint256",
							"name": "cliffDuration",
							"type": "uint256"
						},
						{
							"internalType": "uint256",
							"name": "vestingDuration",
							"type": "uint256"
						},
						{
							"internalType": "uint256",
							"name": "releasedTokens",
							"type": "uint256"
						},
						{
							"internalType": "bool",
							"name": "isActive",
							"type": "bool"
						}
					],
					"stateMutability": "view",
					"type": "function"
				}
			],
			"devdoc": {
				"kind": "dev",
				"methods": {},
				"version": 1
			},
			"evm": {
				"assembly": "    /* \"vesting.sol\":61:3200  contract TokenVesting ... */\n  mstore(0x40, 0x80)\n    /* \"vesting.sol\":542:701  constructor(address _tokenAddress)... */\n  callvalue\n  dup1\n  iszero\n  tag_1\n  jumpi\n  0x00\n  dup1\n  revert\ntag_1:\n  pop\n  mload(0x40)\n  sub(codesize, bytecodeSize)\n  dup1\n  bytecodeSize\n  dup4\n  codecopy\n  dup2\n  dup2\n  add\n  0x40\n  mstore\n  dup2\n  add\n  swap1\n  tag_2\n  swap2\n  swap1\n  tag_3\n  jump\t// in\ntag_2:\n    /* \"vesting.sol\":626:627  0 */\n  0x00\n    /* \"vesting.sol\":601:628  _tokenAddress != address(0) */\n  0xffffffffffffffffffffffffffffffffffffffff\n  and\n    /* \"vesting.sol\":601:614  _tokenAddress */\n  dup2\n    /* \"vesting.sol\":601:628  _tokenAddress != address(0) */\n  0xffffffffffffffffffffffffffffffffffffffff\n  and\n  sub\n    /* \"vesting.sol\":593:654  require(_tokenAddress != address(0), \"Invalid token address\") */\n  tag_6\n  jumpi\n  mload(0x40)\n  0x08c379a000000000000000000000000000000000000000000000000000000000\n  dup2\n  mstore\n  0x04\n  add\n  tag_7\n  swap1\n  tag_8\n  jump\t// in\ntag_7:\n  mload(0x40)\n  dup1\n  swap2\n  sub\n  swap1\n  revert\ntag_6:\n    /* \"vesting.sol\":680:693  _tokenAddress */\n  dup1\n    /* \"vesting.sol\":665:677  tokenAddress */\n  0x02\n  0x00\n    /* \"vesting.sol\":665:693  tokenAddress = _tokenAddress */\n  0x0100\n  exp\n  dup2\n  sload\n  dup2\n  0xffffffffffffffffffffffffffffffffffffffff\n  mul\n  not\n  and\n  swap1\n  dup4\n  0xffffffffffffffffffffffffffffffffffffffff\n  and\n  mul\n  or\n  swap1\n  sstore\n  pop\n    /* \"vesting.sol\":542:701  constructor(address _tokenAddress)... */\n  pop\n    /* \"vesting.sol\":61:3200  contract TokenVesting ... */\n  jump(tag_9)\n    /* \"#utility.yul\":88:205   */\ntag_11:\n    /* \"#utility.yul\":197:198   */\n  0x00\n    /* \"#utility.yul\":194:195   */\n  dup1\n    /* \"#utility.yul\":187:199   */\n  revert\n    /* \"#utility.yul\":334:460   */\ntag_13:\n    /* \"#utility.yul\":371:378   */\n  0x00\n    /* \"#utility.yul\":411:453   */\n  0xffffffffffffffffffffffffffffffffffffffff\n    /* \"#utility.yul\":404:409   */\n  dup3\n    /* \"#utility.yul\":400:454   */\n  and\n    /* \"#utility.yul\":389:454   */\n  swap1\n  pop\n    /* \"#utility.yul\":334:460   */\n  swap2\n  swap1\n  pop\n  jump\t// out\n    /* \"#utility.yul\":466:562   */\ntag_14:\n    /* \"#utility.yul\":503:510   */\n  0x00\n    /* \"#utility.yul\":532:556   */\n  tag_26\n    /* \"#utility.yul\":550:555   */\n  dup3\n    /* \"#utility.yul\":532:556   */\n  tag_13\n  jump\t// in\ntag_26:\n    /* \"#utility.yul\":521:556   */\n  swap1\n  pop\n    /* \"#utility.yul\":466:562   */\n  swap2\n  swap1\n  pop\n  jump\t// out\n    /* \"#utility.yul\":568:690   */\ntag_15:\n    /* \"#utility.yul\":641:665   */\n  tag_28\n    /* \"#utility.yul\":659:664   */\n  dup2\n    /* \"#utility.yul\":641:665   */\n  tag_14\n  jump\t// in\ntag_28:\n    /* \"#utility.yul\":634:639   */\n  dup2\n    /* \"#utility.yul\":631:666   */\n  eq\n    /* \"#utility.yul\":621:684   */\n  tag_29\n  jumpi\n    /* \"#utility.yul\":680:681   */\n  0x00\n    /* \"#utility.yul\":677:678   */\n  dup1\n    /* \"#utility.yul\":670:682   */\n  revert\n    /* \"#utility.yul\":621:684   */\ntag_29:\n    /* \"#utility.yul\":568:690   */\n  pop\n  jump\t// out\n    /* \"#utility.yul\":696:839   */\ntag_16:\n    /* \"#utility.yul\":753:758   */\n  0x00\n    /* \"#utility.yul\":784:790   */\n  dup2\n    /* \"#utility.yul\":778:791   */\n  mload\n    /* \"#utility.yul\":769:791   */\n  swap1\n  pop\n    /* \"#utility.yul\":800:833   */\n  tag_31\n    /* \"#utility.yul\":827:832   */\n  dup2\n    /* \"#utility.yul\":800:833   */\n  tag_15\n  jump\t// in\ntag_31:\n    /* \"#utility.yul\":696:839   */\n  swap3\n  swap2\n  pop\n  pop\n  jump\t// out\n    /* \"#utility.yul\":845:1196   */\ntag_3:\n    /* \"#utility.yul\":915:921   */\n  0x00\n    /* \"#utility.yul\":964:966   */\n  0x20\n    /* \"#utility.yul\":952:961   */\n  dup3\n    /* \"#utility.yul\":943:950   */\n  dup5\n    /* \"#utility.yul\":939:962   */\n  sub\n    /* \"#utility.yul\":935:967   */\n  slt\n    /* \"#utility.yul\":932:1051   */\n  iszero\n  tag_33\n  jumpi\n    /* \"#utility.yul\":970:1049   */\n  tag_34\n  tag_11\n  jump\t// in\ntag_34:\n    /* \"#utility.yul\":932:1051   */\ntag_33:\n    /* \"#utility.yul\":1090:1091   */\n  0x00\n    /* \"#utility.yul\":1115:1179   */\n  tag_35\n    /* \"#utility.yul\":1171:1178   */\n  dup5\n    /* \"#utility.yul\":1162:1168   */\n  dup3\n    /* \"#utility.yul\":1151:1160   */\n  dup6\n    /* \"#utility.yul\":1147:1169   */\n  add\n    /* \"#utility.yul\":1115:1179   */\n  tag_16\n  jump\t// in\ntag_35:\n    /* \"#utility.yul\":1105:1179   */\n  swap2\n  pop\n    /* \"#utility.yul\":1061:1189   */\n  pop\n    /* \"#utility.yul\":845:1196   */\n  swap3\n  swap2\n  pop\n  pop\n  jump\t// out\n    /* \"#utility.yul\":1202:1371   */\ntag_17:\n    /* \"#utility.yul\":1286:1297   */\n  0x00\n    /* \"#utility.yul\":1320:1326   */\n  dup3\n    /* \"#utility.yul\":1315:1318   */\n  dup3\n    /* \"#utility.yul\":1308:1327   */\n  mstore\n    /* \"#utility.yul\":1360:1364   */\n  0x20\n    /* \"#utility.yul\":1355:1358   */\n  dup3\n    /* \"#utility.yul\":1351:1365   */\n  add\n    /* \"#utility.yul\":1336:1365   */\n  swap1\n  pop\n    /* \"#utility.yul\":1202:1371   */\n  swap3\n  swap2\n  pop\n  pop\n  jump\t// out\n    /* \"#utility.yul\":1377:1548   */\ntag_18:\n    /* \"#utility.yul\":1517:1540   */\n  0x496e76616c696420746f6b656e20616464726573730000000000000000000000\n    /* \"#utility.yul\":1513:1514   */\n  0x00\n    /* \"#utility.yul\":1505:1511   */\n  dup3\n    /* \"#utility.yul\":1501:1515   */\n  add\n    /* \"#utility.yul\":1494:1541   */\n  mstore\n    /* \"#utility.yul\":1377:1548   */\n  pop\n  jump\t// out\n    /* \"#utility.yul\":1554:1920   */\ntag_19:\n    /* \"#utility.yul\":1696:1699   */\n  0x00\n    /* \"#utility.yul\":1717:1784   */\n  tag_39\n    /* \"#utility.yul\":1781:1783   */\n  0x15\n    /* \"#utility.yul\":1776:1779   */\n  dup4\n    /* \"#utility.yul\":1717:1784   */\n  tag_17\n  jump\t// in\ntag_39:\n    /* \"#utility.yul\":1710:1784   */\n  swap2\n  pop\n    /* \"#utility.yul\":1793:1886   */\n  tag_40\n    /* \"#utility.yul\":1882:1885   */\n  dup3\n    /* \"#utility.yul\":1793:1886   */\n  tag_18\n  jump\t// in\ntag_40:\n    /* \"#utility.yul\":1911:1913   */\n  0x20\n    /* \"#utility.yul\":1906:1909   */\n  dup3\n    /* \"#utility.yul\":1902:1914   */\n  add\n    /* \"#utility.yul\":1895:1914   */\n  swap1\n  pop\n    /* \"#utility.yul\":1554:1920   */\n  swap2\n  swap1\n  pop\n  jump\t// out\n    /* \"#utility.yul\":1926:2345   */\ntag_8:\n    /* \"#utility.yul\":2092:2096   */\n  0x00\n    /* \"#utility.yul\":2130:2132   */\n  0x20\n    /* \"#utility.yul\":2119:2128   */\n  dup3\n    /* \"#utility.yul\":2115:2133   */\n  add\n    /* \"#utility.yul\":2107:2133   */\n  swap1\n  pop\n    /* \"#utility.yul\":2179:2188   */\n  dup2\n    /* \"#utility.yul\":2173:2177   */\n  dup2\n    /* \"#utility.yul\":2169:2189   */\n  sub\n    /* \"#utility.yul\":2165:2166   */\n  0x00\n    /* \"#utility.yul\":2154:2163   */\n  dup4\n    /* \"#utility.yul\":2150:2167   */\n  add\n    /* \"#utility.yul\":2143:2190   */\n  mstore\n    /* \"#utility.yul\":2207:2338   */\n  tag_42\n    /* \"#utility.yul\":2333:2337   */\n  dup2\n    /* \"#utility.yul\":2207:2338   */\n  tag_19\n  jump\t// in\ntag_42:\n    /* \"#utility.yul\":2199:2338   */\n  swap1\n  pop\n    /* \"#utility.yul\":1926:2345   */\n  swap2\n  swap1\n  pop\n  jump\t// out\n    /* \"vesting.sol\":61:3200  contract TokenVesting ... */\ntag_9:\n  dataSize(sub_0)\n  dup1\n  dataOffset(sub_0)\n  0x00\n  codecopy\n  0x00\n  return\nstop\n\nsub_0: assembly {\n        /* \"vesting.sol\":61:3200  contract TokenVesting ... */\n      mstore(0x40, 0x80)\n      callvalue\n      dup1\n      iszero\n      tag_1\n      jumpi\n      0x00\n      dup1\n      revert\n    tag_1:\n      pop\n      jumpi(tag_2, lt(calldatasize, 0x04))\n      shr(0xe0, calldataload(0x00))\n      dup1\n      0x1bf0b08b\n      eq\n      tag_3\n      jumpi\n      dup1\n      0x3dee0397\n      eq\n      tag_4\n      jumpi\n      dup1\n      0x87b0be48\n      eq\n      tag_5\n      jumpi\n      dup1\n      0x9d76ea58\n      eq\n      tag_6\n      jumpi\n      dup1\n      0xfdb20ccb\n      eq\n      tag_7\n      jumpi\n      dup1\n      0xffa06b2a\n      eq\n      tag_8\n      jumpi\n    tag_2:\n      0x00\n      dup1\n      revert\n        /* \"vesting.sol\":709:1440  function createVestingSchedule(address _beneficiary,uint256 _totalTokens,uint256 _startTime,uint256 _cliffDuration,uint256 _vestingDuration) public ... */\n    tag_3:\n      tag_9\n      0x04\n      dup1\n      calldatasize\n      sub\n      dup2\n      add\n      swap1\n      tag_10\n      swap2\n      swap1\n      tag_11\n      jump\t// in\n    tag_10:\n      tag_12\n      jump\t// in\n    tag_9:\n      stop\n        /* \"vesting.sol\":384:431  mapping(address => uint256) public vestedTokens */\n    tag_4:\n      tag_13\n      0x04\n      dup1\n      calldatasize\n      sub\n      dup2\n      add\n      swap1\n      tag_14\n      swap2\n      swap1\n      tag_15\n      jump\t// in\n    tag_14:\n      tag_16\n      jump\t// in\n    tag_13:\n      mload(0x40)\n      tag_17\n      swap2\n      swap1\n      tag_18\n      jump\t// in\n    tag_17:\n      mload(0x40)\n      dup1\n      swap2\n      sub\n      swap1\n      return\n        /* \"vesting.sol\":1448:2123  function releaseTokens(address _beneficiary) public {... */\n    tag_5:\n      tag_19\n      0x04\n      dup1\n      calldatasize\n      sub\n      dup2\n      add\n      swap1\n      tag_20\n      swap2\n      swap1\n      tag_15\n      jump\t// in\n    tag_20:\n      tag_21\n      jump\t// in\n    tag_19:\n      stop\n        /* \"vesting.sol\":440:467  address public tokenAddress */\n    tag_6:\n      tag_22\n      tag_23\n      jump\t// in\n    tag_22:\n      mload(0x40)\n      tag_24\n      swap2\n      swap1\n      tag_25\n      jump\t// in\n    tag_24:\n      mload(0x40)\n      dup1\n      swap2\n      sub\n      swap1\n      return\n        /* \"vesting.sol\":318:377  mapping(address => VestingSchedule) public vestingSchedules */\n    tag_7:\n      tag_26\n      0x04\n      dup1\n      calldatasize\n      sub\n      dup2\n      add\n      swap1\n      tag_27\n      swap2\n      swap1\n      tag_15\n      jump\t// in\n    tag_27:\n      tag_28\n      jump\t// in\n    tag_26:\n      mload(0x40)\n      tag_29\n      swap7\n      swap6\n      swap5\n      swap4\n      swap3\n      swap2\n      swap1\n      tag_30\n      jump\t// in\n    tag_29:\n      mload(0x40)\n      dup1\n      swap2\n      sub\n      swap1\n      return\n        /* \"vesting.sol\":2131:3197  function calculateVestedAmount(address _beneficiary) public view returns (uint256) {... */\n    tag_8:\n      tag_31\n      0x04\n      dup1\n      calldatasize\n      sub\n      dup2\n      add\n      swap1\n      tag_32\n      swap2\n      swap1\n      tag_15\n      jump\t// in\n    tag_32:\n      tag_33\n      jump\t// in\n    tag_31:\n      mload(0x40)\n      tag_34\n      swap2\n      swap1\n      tag_18\n      jump\t// in\n    tag_34:\n      mload(0x40)\n      dup1\n      swap2\n      sub\n      swap1\n      return\n        /* \"vesting.sol\":709:1440  function createVestingSchedule(address _beneficiary,uint256 _totalTokens,uint256 _startTime,uint256 _cliffDuration,uint256 _vestingDuration) public ... */\n    tag_12:\n        /* \"vesting.sol\":906:907  0 */\n      0x00\n        /* \"vesting.sol\":882:908  _beneficiary != address(0) */\n      0xffffffffffffffffffffffffffffffffffffffff\n      and\n        /* \"vesting.sol\":882:894  _beneficiary */\n      dup6\n        /* \"vesting.sol\":882:908  _beneficiary != address(0) */\n      0xffffffffffffffffffffffffffffffffffffffff\n      and\n      sub\n        /* \"vesting.sol\":874:940  require(_beneficiary != address(0), \"Invalid beneficiary address\") */\n      tag_36\n      jumpi\n      mload(0x40)\n      0x08c379a000000000000000000000000000000000000000000000000000000000\n      dup2\n      mstore\n      0x04\n      add\n      tag_37\n      swap1\n      tag_38\n      jump\t// in\n    tag_37:\n      mload(0x40)\n      dup1\n      swap2\n      sub\n      swap1\n      revert\n    tag_36:\n        /* \"vesting.sol\":1003:1004  0 */\n      0x00\n        /* \"vesting.sol\":959:975  vestingSchedules */\n      dup1\n        /* \"vesting.sol\":959:989  vestingSchedules[_beneficiary] */\n      0x00\n        /* \"vesting.sol\":976:988  _beneficiary */\n      dup8\n        /* \"vesting.sol\":959:989  vestingSchedules[_beneficiary] */\n      0xffffffffffffffffffffffffffffffffffffffff\n      and\n      0xffffffffffffffffffffffffffffffffffffffff\n      and\n      dup2\n      mstore\n      0x20\n      add\n      swap1\n      dup2\n      mstore\n      0x20\n      add\n      0x00\n      keccak256\n        /* \"vesting.sol\":959:999  vestingSchedules[_beneficiary].startTime */\n      0x01\n      add\n      sload\n        /* \"vesting.sol\":959:1004  vestingSchedules[_beneficiary].startTime == 0 */\n      eq\n        /* \"vesting.sol\":951:1040  require(vestingSchedules[_beneficiary].startTime == 0, \"Vesting schedule already exists\") */\n      tag_39\n      jumpi\n      mload(0x40)\n      0x08c379a000000000000000000000000000000000000000000000000000000000\n      dup2\n      mstore\n      0x04\n      add\n      tag_40\n      swap1\n      tag_41\n      jump\t// in\n    tag_40:\n      mload(0x40)\n      dup1\n      swap2\n      sub\n      swap1\n      revert\n    tag_39:\n        /* \"vesting.sol\":1053:1092  VestingSchedule storage vestingSchedule */\n      0x00\n        /* \"vesting.sol\":1095:1111  vestingSchedules */\n      dup1\n        /* \"vesting.sol\":1095:1125  vestingSchedules[_beneficiary] */\n      0x00\n        /* \"vesting.sol\":1112:1124  _beneficiary */\n      dup8\n        /* \"vesting.sol\":1095:1125  vestingSchedules[_beneficiary] */\n      0xffffffffffffffffffffffffffffffffffffffff\n      and\n      0xffffffffffffffffffffffffffffffffffffffff\n      and\n      dup2\n      mstore\n      0x20\n      add\n      swap1\n      dup2\n      mstore\n      0x20\n      add\n      0x00\n      keccak256\n        /* \"vesting.sol\":1053:1125  VestingSchedule storage vestingSchedule = vestingSchedules[_beneficiary] */\n      swap1\n      pop\n        /* \"vesting.sol\":1166:1178  _totalTokens */\n      dup5\n        /* \"vesting.sol\":1136:1151  vestingSchedule */\n      dup2\n        /* \"vesting.sol\":1136:1163  vestingSchedule.totalTokens */\n      0x00\n      add\n        /* \"vesting.sol\":1136:1178  vestingSchedule.totalTokens = _totalTokens */\n      dup2\n      swap1\n      sstore\n      pop\n        /* \"vesting.sol\":1217:1227  _startTime */\n      dup4\n        /* \"vesting.sol\":1189:1204  vestingSchedule */\n      dup2\n        /* \"vesting.sol\":1189:1214  vestingSchedule.startTime */\n      0x01\n      add\n        /* \"vesting.sol\":1189:1227  vestingSchedule.startTime = _startTime */\n      dup2\n      swap1\n      sstore\n      pop\n        /* \"vesting.sol\":1270:1284  _cliffDuration */\n      dup3\n        /* \"vesting.sol\":1238:1253  vestingSchedule */\n      dup2\n        /* \"vesting.sol\":1238:1267  vestingSchedule.cliffDuration */\n      0x02\n      add\n        /* \"vesting.sol\":1238:1284  vestingSchedule.cliffDuration = _cliffDuration */\n      dup2\n      swap1\n      sstore\n      pop\n        /* \"vesting.sol\":1329:1345  _vestingDuration */\n      dup2\n        /* \"vesting.sol\":1295:1310  vestingSchedule */\n      dup2\n        /* \"vesting.sol\":1295:1326  vestingSchedule.vestingDuration */\n      0x03\n      add\n        /* \"vesting.sol\":1295:1345  vestingSchedule.vestingDuration = _vestingDuration */\n      dup2\n      swap1\n      sstore\n      pop\n        /* \"vesting.sol\":1389:1390  0 */\n      0x00\n        /* \"vesting.sol\":1356:1371  vestingSchedule */\n      dup2\n        /* \"vesting.sol\":1356:1386  vestingSchedule.releasedTokens */\n      0x04\n      add\n        /* \"vesting.sol\":1356:1390  vestingSchedule.releasedTokens = 0 */\n      dup2\n      swap1\n      sstore\n      pop\n        /* \"vesting.sol\":1428:1432  true */\n      0x01\n        /* \"vesting.sol\":1401:1416  vestingSchedule */\n      dup2\n        /* \"vesting.sol\":1401:1425  vestingSchedule.isActive */\n      0x05\n      add\n      0x00\n        /* \"vesting.sol\":1401:1432  vestingSchedule.isActive = true */\n      0x0100\n      exp\n      dup2\n      sload\n      dup2\n      0xff\n      mul\n      not\n      and\n      swap1\n      dup4\n      iszero\n      iszero\n      mul\n      or\n      swap1\n      sstore\n      pop\n        /* \"vesting.sol\":863:1440  {... */\n      pop\n        /* \"vesting.sol\":709:1440  function createVestingSchedule(address _beneficiary,uint256 _totalTokens,uint256 _startTime,uint256 _cliffDuration,uint256 _vestingDuration) public ... */\n      pop\n      pop\n      pop\n      pop\n      pop\n      jump\t// out\n        /* \"vesting.sol\":384:431  mapping(address => uint256) public vestedTokens */\n    tag_16:\n      mstore(0x20, 0x01)\n      dup1\n      0x00\n      mstore\n      keccak256(0x00, 0x40)\n      0x00\n      swap2\n      pop\n      swap1\n      pop\n      sload\n      dup2\n      jump\t// out\n        /* \"vesting.sol\":1448:2123  function releaseTokens(address _beneficiary) public {... */\n    tag_21:\n        /* \"vesting.sol\":1511:1550  VestingSchedule storage vestingSchedule */\n      0x00\n        /* \"vesting.sol\":1553:1569  vestingSchedules */\n      dup1\n        /* \"vesting.sol\":1553:1583  vestingSchedules[_beneficiary] */\n      0x00\n        /* \"vesting.sol\":1570:1582  _beneficiary */\n      dup4\n        /* \"vesting.sol\":1553:1583  vestingSchedules[_beneficiary] */\n      0xffffffffffffffffffffffffffffffffffffffff\n      and\n      0xffffffffffffffffffffffffffffffffffffffff\n      and\n      dup2\n      mstore\n      0x20\n      add\n      swap1\n      dup2\n      mstore\n      0x20\n      add\n      0x00\n      keccak256\n        /* \"vesting.sol\":1511:1583  VestingSchedule storage vestingSchedule = vestingSchedules[_beneficiary] */\n      swap1\n      pop\n        /* \"vesting.sol\":1602:1617  vestingSchedule */\n      dup1\n        /* \"vesting.sol\":1602:1626  vestingSchedule.isActive */\n      0x05\n      add\n      0x00\n      swap1\n      sload\n      swap1\n      0x0100\n      exp\n      swap1\n      div\n      0xff\n      and\n        /* \"vesting.sol\":1594:1657  require(vestingSchedule.isActive, \"Vesting schedule not found\") */\n      tag_43\n      jumpi\n      mload(0x40)\n      0x08c379a000000000000000000000000000000000000000000000000000000000\n      dup2\n      mstore\n      0x04\n      add\n      tag_44\n      swap1\n      tag_45\n      jump\t// in\n    tag_44:\n      mload(0x40)\n      dup1\n      swap2\n      sub\n      swap1\n      revert\n    tag_43:\n        /* \"vesting.sol\":1706:1707  0 */\n      0x00\n        /* \"vesting.sol\":1676:1688  vestedTokens */\n      0x01\n        /* \"vesting.sol\":1676:1702  vestedTokens[_beneficiary] */\n      0x00\n        /* \"vesting.sol\":1689:1701  _beneficiary */\n      dup5\n        /* \"vesting.sol\":1676:1702  vestedTokens[_beneficiary] */\n      0xffffffffffffffffffffffffffffffffffffffff\n      and\n      0xffffffffffffffffffffffffffffffffffffffff\n      and\n      dup2\n      mstore\n      0x20\n      add\n      swap1\n      dup2\n      mstore\n      0x20\n      add\n      0x00\n      keccak256\n      sload\n        /* \"vesting.sol\":1676:1707  vestedTokens[_beneficiary] == 0 */\n      eq\n        /* \"vesting.sol\":1668:1735  require(vestedTokens[_beneficiary] == 0, \"Tokens already released\") */\n      tag_46\n      jumpi\n      mload(0x40)\n      0x08c379a000000000000000000000000000000000000000000000000000000000\n      dup2\n      mstore\n      0x04\n      add\n      tag_47\n      swap1\n      tag_48\n      jump\t// in\n    tag_47:\n      mload(0x40)\n      dup1\n      swap2\n      sub\n      swap1\n      revert\n    tag_46:\n        /* \"vesting.sol\":1748:1768  uint256 vestedAmount */\n      0x00\n        /* \"vesting.sol\":1771:1806  calculateVestedAmount(_beneficiary) */\n      tag_49\n        /* \"vesting.sol\":1793:1805  _beneficiary */\n      dup4\n        /* \"vesting.sol\":1771:1792  calculateVestedAmount */\n      tag_33\n        /* \"vesting.sol\":1771:1806  calculateVestedAmount(_beneficiary) */\n      jump\t// in\n    tag_49:\n        /* \"vesting.sol\":1748:1806  uint256 vestedAmount = calculateVestedAmount(_beneficiary) */\n      swap1\n      pop\n        /* \"vesting.sol\":1840:1841  0 */\n      0x00\n        /* \"vesting.sol\":1825:1837  vestedAmount */\n      dup2\n        /* \"vesting.sol\":1825:1841  vestedAmount > 0 */\n      gt\n        /* \"vesting.sol\":1817:1877  require(vestedAmount > 0, \"No tokens available for release\") */\n      tag_50\n      jumpi\n      mload(0x40)\n      0x08c379a000000000000000000000000000000000000000000000000000000000\n      dup2\n      mstore\n      0x04\n      add\n      tag_51\n      swap1\n      tag_52\n      jump\t// in\n    tag_51:\n      mload(0x40)\n      dup1\n      swap2\n      sub\n      swap1\n      revert\n    tag_50:\n        /* \"vesting.sol\":1919:1931  vestedAmount */\n      dup1\n        /* \"vesting.sol\":1890:1902  vestedTokens */\n      0x01\n        /* \"vesting.sol\":1890:1916  vestedTokens[_beneficiary] */\n      0x00\n        /* \"vesting.sol\":1903:1915  _beneficiary */\n      dup6\n        /* \"vesting.sol\":1890:1916  vestedTokens[_beneficiary] */\n      0xffffffffffffffffffffffffffffffffffffffff\n      and\n      0xffffffffffffffffffffffffffffffffffffffff\n      and\n      dup2\n      mstore\n      0x20\n      add\n      swap1\n      dup2\n      mstore\n      0x20\n      add\n      0x00\n      keccak256\n        /* \"vesting.sol\":1890:1931  vestedTokens[_beneficiary] = vestedAmount */\n      dup2\n      swap1\n      sstore\n      pop\n        /* \"vesting.sol\":1949:1961  tokenAddress */\n      0x02\n      0x00\n      swap1\n      sload\n      swap1\n      0x0100\n      exp\n      swap1\n      div\n      0xffffffffffffffffffffffffffffffffffffffff\n      and\n        /* \"vesting.sol\":1942:1971  IToken(tokenAddress).transfer */\n      0xffffffffffffffffffffffffffffffffffffffff\n      and\n      0xa9059cbb\n        /* \"vesting.sol\":1972:1984  _beneficiary */\n      dup5\n        /* \"vesting.sol\":1986:1998  vestedAmount */\n      dup4\n        /* \"vesting.sol\":1942:1999  IToken(tokenAddress).transfer(_beneficiary, vestedAmount) */\n      mload(0x40)\n      dup4\n      0xffffffff\n      and\n      0xe0\n      shl\n      dup2\n      mstore\n      0x04\n      add\n      tag_53\n      swap3\n      swap2\n      swap1\n      tag_54\n      jump\t// in\n    tag_53:\n      0x20\n      mload(0x40)\n      dup1\n      dup4\n      sub\n      dup2\n      0x00\n      dup8\n      gas\n      call\n      iszero\n      dup1\n      iszero\n      tag_56\n      jumpi\n      returndatasize\n      0x00\n      dup1\n      returndatacopy\n      revert(0x00, returndatasize)\n    tag_56:\n      pop\n      pop\n      pop\n      pop\n      mload(0x40)\n      returndatasize\n      not(0x1f)\n      0x1f\n      dup3\n      add\n      and\n      dup3\n      add\n      dup1\n      0x40\n      mstore\n      pop\n      dup2\n      add\n      swap1\n      tag_57\n      swap2\n      swap1\n      tag_58\n      jump\t// in\n    tag_57:\n      pop\n        /* \"vesting.sol\":2043:2055  vestedAmount */\n      dup1\n        /* \"vesting.sol\":2010:2025  vestingSchedule */\n      dup3\n        /* \"vesting.sol\":2010:2040  vestingSchedule.releasedTokens */\n      0x04\n      add\n        /* \"vesting.sol\":2010:2055  vestingSchedule.releasedTokens = vestedAmount */\n      dup2\n      swap1\n      sstore\n      pop\n        /* \"vesting.sol\":2073:2115  TokensReleased(_beneficiary, vestedAmount) */\n      0xc7798891864187665ac6dd119286e44ec13f014527aeeb2b8eb3fd413df93179\n        /* \"vesting.sol\":2088:2100  _beneficiary */\n      dup4\n        /* \"vesting.sol\":2102:2114  vestedAmount */\n      dup3\n        /* \"vesting.sol\":2073:2115  TokensReleased(_beneficiary, vestedAmount) */\n      mload(0x40)\n      tag_59\n      swap3\n      swap2\n      swap1\n      tag_54\n      jump\t// in\n    tag_59:\n      mload(0x40)\n      dup1\n      swap2\n      sub\n      swap1\n      log1\n        /* \"vesting.sol\":1500:2123  {... */\n      pop\n      pop\n        /* \"vesting.sol\":1448:2123  function releaseTokens(address _beneficiary) public {... */\n      pop\n      jump\t// out\n        /* \"vesting.sol\":440:467  address public tokenAddress */\n    tag_23:\n      0x02\n      0x00\n      swap1\n      sload\n      swap1\n      0x0100\n      exp\n      swap1\n      div\n      0xffffffffffffffffffffffffffffffffffffffff\n      and\n      dup2\n      jump\t// out\n        /* \"vesting.sol\":318:377  mapping(address => VestingSchedule) public vestingSchedules */\n    tag_28:\n      mstore(0x20, 0x00)\n      dup1\n      0x00\n      mstore\n      keccak256(0x00, 0x40)\n      0x00\n      swap2\n      pop\n      swap1\n      pop\n      dup1\n      0x00\n      add\n      sload\n      swap1\n      dup1\n      0x01\n      add\n      sload\n      swap1\n      dup1\n      0x02\n      add\n      sload\n      swap1\n      dup1\n      0x03\n      add\n      sload\n      swap1\n      dup1\n      0x04\n      add\n      sload\n      swap1\n      dup1\n      0x05\n      add\n      0x00\n      swap1\n      sload\n      swap1\n      0x0100\n      exp\n      swap1\n      div\n      0xff\n      and\n      swap1\n      pop\n      dup7\n      jump\t// out\n        /* \"vesting.sol\":2131:3197  function calculateVestedAmount(address _beneficiary) public view returns (uint256) {... */\n    tag_33:\n        /* \"vesting.sol\":2205:2212  uint256 */\n      0x00\n        /* \"vesting.sol\":2225:2264  VestingSchedule storage vestingSchedule */\n      dup1\n        /* \"vesting.sol\":2267:2283  vestingSchedules */\n      0x00\n        /* \"vesting.sol\":2267:2297  vestingSchedules[_beneficiary] */\n      dup1\n        /* \"vesting.sol\":2284:2296  _beneficiary */\n      dup5\n        /* \"vesting.sol\":2267:2297  vestingSchedules[_beneficiary] */\n      0xffffffffffffffffffffffffffffffffffffffff\n      and\n      0xffffffffffffffffffffffffffffffffffffffff\n      and\n      dup2\n      mstore\n      0x20\n      add\n      swap1\n      dup2\n      mstore\n      0x20\n      add\n      0x00\n      keccak256\n        /* \"vesting.sol\":2225:2297  VestingSchedule storage vestingSchedule = vestingSchedules[_beneficiary] */\n      swap1\n      pop\n        /* \"vesting.sol\":2316:2331  vestingSchedule */\n      dup1\n        /* \"vesting.sol\":2316:2340  vestingSchedule.isActive */\n      0x05\n      add\n      0x00\n      swap1\n      sload\n      swap1\n      0x0100\n      exp\n      swap1\n      div\n      0xff\n      and\n        /* \"vesting.sol\":2308:2371  require(vestingSchedule.isActive, \"Vesting schedule not found\") */\n      tag_61\n      jumpi\n      mload(0x40)\n      0x08c379a000000000000000000000000000000000000000000000000000000000\n      dup2\n      mstore\n      0x04\n      add\n      tag_62\n      swap1\n      tag_45\n      jump\t// in\n    tag_62:\n      mload(0x40)\n      dup1\n      swap2\n      sub\n      swap1\n      revert\n    tag_61:\n        /* \"vesting.sol\":2434:2449  vestingSchedule */\n      dup1\n        /* \"vesting.sol\":2434:2463  vestingSchedule.cliffDuration */\n      0x02\n      add\n      sload\n        /* \"vesting.sol\":2406:2421  vestingSchedule */\n      dup2\n        /* \"vesting.sol\":2406:2431  vestingSchedule.startTime */\n      0x01\n      add\n      sload\n        /* \"vesting.sol\":2406:2463  vestingSchedule.startTime + vestingSchedule.cliffDuration */\n      tag_63\n      swap2\n      swap1\n      tag_64\n      jump\t// in\n    tag_63:\n        /* \"vesting.sol\":2388:2403  block.timestamp */\n      timestamp\n        /* \"vesting.sol\":2388:2463  block.timestamp < vestingSchedule.startTime + vestingSchedule.cliffDuration */\n      lt\n        /* \"vesting.sol\":2384:3190  if (block.timestamp < vestingSchedule.startTime + vestingSchedule.cliffDuration) {... */\n      iszero\n      tag_65\n      jumpi\n        /* \"vesting.sol\":2547:2548  0 */\n      0x00\n        /* \"vesting.sol\":2540:2548  return 0 */\n      swap2\n      pop\n      pop\n      jump(tag_60)\n        /* \"vesting.sol\":2384:3190  if (block.timestamp < vestingSchedule.startTime + vestingSchedule.cliffDuration) {... */\n    tag_65:\n        /* \"vesting.sol\":2617:2632  vestingSchedule */\n      dup1\n        /* \"vesting.sol\":2617:2648  vestingSchedule.vestingDuration */\n      0x03\n      add\n      sload\n        /* \"vesting.sol\":2589:2604  vestingSchedule */\n      dup2\n        /* \"vesting.sol\":2589:2614  vestingSchedule.startTime */\n      0x01\n      add\n      sload\n        /* \"vesting.sol\":2589:2648  vestingSchedule.startTime + vestingSchedule.vestingDuration */\n      tag_67\n      swap2\n      swap1\n      tag_64\n      jump\t// in\n    tag_67:\n        /* \"vesting.sol\":2570:2585  block.timestamp */\n      timestamp\n        /* \"vesting.sol\":2570:2648  block.timestamp >= vestingSchedule.startTime + vestingSchedule.vestingDuration */\n      lt\n        /* \"vesting.sol\":2566:3190  if (block.timestamp >= vestingSchedule.startTime + vestingSchedule.vestingDuration) {... */\n      tag_68\n      jumpi\n        /* \"vesting.sol\":2734:2749  vestingSchedule */\n      dup1\n        /* \"vesting.sol\":2734:2761  vestingSchedule.totalTokens */\n      0x00\n      add\n      sload\n        /* \"vesting.sol\":2727:2761  return vestingSchedule.totalTokens */\n      swap2\n      pop\n      pop\n      jump(tag_60)\n        /* \"vesting.sol\":2566:3190  if (block.timestamp >= vestingSchedule.startTime + vestingSchedule.vestingDuration) {... */\n    tag_68:\n        /* \"vesting.sol\":2880:2899  uint256 elapsedTime */\n      0x00\n        /* \"vesting.sol\":2920:2935  vestingSchedule */\n      dup2\n        /* \"vesting.sol\":2920:2945  vestingSchedule.startTime */\n      0x01\n      add\n      sload\n        /* \"vesting.sol\":2902:2917  block.timestamp */\n      timestamp\n        /* \"vesting.sol\":2902:2945  block.timestamp - vestingSchedule.startTime */\n      tag_70\n      swap2\n      swap1\n      tag_71\n      jump\t// in\n    tag_70:\n        /* \"vesting.sol\":2880:2945  uint256 elapsedTime = block.timestamp - vestingSchedule.startTime */\n      swap1\n      pop\n        /* \"vesting.sol\":2960:2981  uint256 vestingPeriod */\n      0x00\n        /* \"vesting.sol\":3018:3033  vestingSchedule */\n      dup3\n        /* \"vesting.sol\":3018:3047  vestingSchedule.cliffDuration */\n      0x02\n      add\n      sload\n        /* \"vesting.sol\":2984:2999  vestingSchedule */\n      dup4\n        /* \"vesting.sol\":2984:3015  vestingSchedule.vestingDuration */\n      0x03\n      add\n      sload\n        /* \"vesting.sol\":2984:3047  vestingSchedule.vestingDuration - vestingSchedule.cliffDuration */\n      tag_72\n      swap2\n      swap1\n      tag_71\n      jump\t// in\n    tag_72:\n        /* \"vesting.sol\":2960:3047  uint256 vestingPeriod = vestingSchedule.vestingDuration - vestingSchedule.cliffDuration */\n      swap1\n      pop\n        /* \"vesting.sol\":3062:3082  uint256 vestedAmount */\n      0x00\n        /* \"vesting.sol\":3131:3144  vestingPeriod */\n      dup2\n        /* \"vesting.sol\":3116:3127  elapsedTime */\n      dup4\n        /* \"vesting.sol\":3086:3101  vestingSchedule */\n      dup6\n        /* \"vesting.sol\":3086:3113  vestingSchedule.totalTokens */\n      0x00\n      add\n      sload\n        /* \"vesting.sol\":3086:3127  vestingSchedule.totalTokens * elapsedTime */\n      tag_73\n      swap2\n      swap1\n      tag_74\n      jump\t// in\n    tag_73:\n        /* \"vesting.sol\":3085:3144  (vestingSchedule.totalTokens * elapsedTime) / vestingPeriod */\n      tag_75\n      swap2\n      swap1\n      tag_76\n      jump\t// in\n    tag_75:\n        /* \"vesting.sol\":3062:3144  uint256 vestedAmount = (vestingSchedule.totalTokens * elapsedTime) / vestingPeriod */\n      swap1\n      pop\n        /* \"vesting.sol\":3166:3178  vestedAmount */\n      dup1\n        /* \"vesting.sol\":3159:3178  return vestedAmount */\n      swap5\n      pop\n      pop\n      pop\n      pop\n      pop\n        /* \"vesting.sol\":2131:3197  function calculateVestedAmount(address _beneficiary) public view returns (uint256) {... */\n    tag_60:\n      swap2\n      swap1\n      pop\n      jump\t// out\n        /* \"#utility.yul\":88:205   */\n    tag_78:\n        /* \"#utility.yul\":197:198   */\n      0x00\n        /* \"#utility.yul\":194:195   */\n      dup1\n        /* \"#utility.yul\":187:199   */\n      revert\n        /* \"#utility.yul\":334:460   */\n    tag_80:\n        /* \"#utility.yul\":371:378   */\n      0x00\n        /* \"#utility.yul\":411:453   */\n      0xffffffffffffffffffffffffffffffffffffffff\n        /* \"#utility.yul\":404:409   */\n      dup3\n        /* \"#utility.yul\":400:454   */\n      and\n        /* \"#utility.yul\":389:454   */\n      swap1\n      pop\n        /* \"#utility.yul\":334:460   */\n      swap2\n      swap1\n      pop\n      jump\t// out\n        /* \"#utility.yul\":466:562   */\n    tag_81:\n        /* \"#utility.yul\":503:510   */\n      0x00\n        /* \"#utility.yul\":532:556   */\n      tag_112\n        /* \"#utility.yul\":550:555   */\n      dup3\n        /* \"#utility.yul\":532:556   */\n      tag_80\n      jump\t// in\n    tag_112:\n        /* \"#utility.yul\":521:556   */\n      swap1\n      pop\n        /* \"#utility.yul\":466:562   */\n      swap2\n      swap1\n      pop\n      jump\t// out\n        /* \"#utility.yul\":568:690   */\n    tag_82:\n        /* \"#utility.yul\":641:665   */\n      tag_114\n        /* \"#utility.yul\":659:664   */\n      dup2\n        /* \"#utility.yul\":641:665   */\n      tag_81\n      jump\t// in\n    tag_114:\n        /* \"#utility.yul\":634:639   */\n      dup2\n        /* \"#utility.yul\":631:666   */\n      eq\n        /* \"#utility.yul\":621:684   */\n      tag_115\n      jumpi\n        /* \"#utility.yul\":680:681   */\n      0x00\n        /* \"#utility.yul\":677:678   */\n      dup1\n        /* \"#utility.yul\":670:682   */\n      revert\n        /* \"#utility.yul\":621:684   */\n    tag_115:\n        /* \"#utility.yul\":568:690   */\n      pop\n      jump\t// out\n        /* \"#utility.yul\":696:835   */\n    tag_83:\n        /* \"#utility.yul\":742:747   */\n      0x00\n        /* \"#utility.yul\":780:786   */\n      dup2\n        /* \"#utility.yul\":767:787   */\n      calldataload\n        /* \"#utility.yul\":758:787   */\n      swap1\n      pop\n        /* \"#utility.yul\":796:829   */\n      tag_117\n        /* \"#utility.yul\":823:828   */\n      dup2\n        /* \"#utility.yul\":796:829   */\n      tag_82\n      jump\t// in\n    tag_117:\n        /* \"#utility.yul\":696:835   */\n      swap3\n      swap2\n      pop\n      pop\n      jump\t// out\n        /* \"#utility.yul\":841:918   */\n    tag_84:\n        /* \"#utility.yul\":878:885   */\n      0x00\n        /* \"#utility.yul\":907:912   */\n      dup2\n        /* \"#utility.yul\":896:912   */\n      swap1\n      pop\n        /* \"#utility.yul\":841:918   */\n      swap2\n      swap1\n      pop\n      jump\t// out\n        /* \"#utility.yul\":924:1046   */\n    tag_85:\n        /* \"#utility.yul\":997:1021   */\n      tag_120\n        /* \"#utility.yul\":1015:1020   */\n      dup2\n        /* \"#utility.yul\":997:1021   */\n      tag_84\n      jump\t// in\n    tag_120:\n        /* \"#utility.yul\":990:995   */\n      dup2\n        /* \"#utility.yul\":987:1022   */\n      eq\n        /* \"#utility.yul\":977:1040   */\n      tag_121\n      jumpi\n        /* \"#utility.yul\":1036:1037   */\n      0x00\n        /* \"#utility.yul\":1033:1034   */\n      dup1\n        /* \"#utility.yul\":1026:1038   */\n      revert\n        /* \"#utility.yul\":977:1040   */\n    tag_121:\n        /* \"#utility.yul\":924:1046   */\n      pop\n      jump\t// out\n        /* \"#utility.yul\":1052:1191   */\n    tag_86:\n        /* \"#utility.yul\":1098:1103   */\n      0x00\n        /* \"#utility.yul\":1136:1142   */\n      dup2\n        /* \"#utility.yul\":1123:1143   */\n      calldataload\n        /* \"#utility.yul\":1114:1143   */\n      swap1\n      pop\n        /* \"#utility.yul\":1152:1185   */\n      tag_123\n        /* \"#utility.yul\":1179:1184   */\n      dup2\n        /* \"#utility.yul\":1152:1185   */\n      tag_85\n      jump\t// in\n    tag_123:\n        /* \"#utility.yul\":1052:1191   */\n      swap3\n      swap2\n      pop\n      pop\n      jump\t// out\n        /* \"#utility.yul\":1197:2108   */\n    tag_11:\n        /* \"#utility.yul\":1292:1298   */\n      0x00\n        /* \"#utility.yul\":1300:1306   */\n      dup1\n        /* \"#utility.yul\":1308:1314   */\n      0x00\n        /* \"#utility.yul\":1316:1322   */\n      dup1\n        /* \"#utility.yul\":1324:1330   */\n      0x00\n        /* \"#utility.yul\":1373:1376   */\n      0xa0\n        /* \"#utility.yul\":1361:1370   */\n      dup7\n        /* \"#utility.yul\":1352:1359   */\n      dup9\n        /* \"#utility.yul\":1348:1371   */\n      sub\n        /* \"#utility.yul\":1344:1377   */\n      slt\n        /* \"#utility.yul\":1341:1461   */\n      iszero\n      tag_125\n      jumpi\n        /* \"#utility.yul\":1380:1459   */\n      tag_126\n      tag_78\n      jump\t// in\n    tag_126:\n        /* \"#utility.yul\":1341:1461   */\n    tag_125:\n        /* \"#utility.yul\":1500:1501   */\n      0x00\n        /* \"#utility.yul\":1525:1578   */\n      tag_127\n        /* \"#utility.yul\":1570:1577   */\n      dup9\n        /* \"#utility.yul\":1561:1567   */\n      dup3\n        /* \"#utility.yul\":1550:1559   */\n      dup10\n        /* \"#utility.yul\":1546:1568   */\n      add\n        /* \"#utility.yul\":1525:1578   */\n      tag_83\n      jump\t// in\n    tag_127:\n        /* \"#utility.yul\":1515:1578   */\n      swap6\n      pop\n        /* \"#utility.yul\":1471:1588   */\n      pop\n        /* \"#utility.yul\":1627:1629   */\n      0x20\n        /* \"#utility.yul\":1653:1706   */\n      tag_128\n        /* \"#utility.yul\":1698:1705   */\n      dup9\n        /* \"#utility.yul\":1689:1695   */\n      dup3\n        /* \"#utility.yul\":1678:1687   */\n      dup10\n        /* \"#utility.yul\":1674:1696   */\n      add\n        /* \"#utility.yul\":1653:1706   */\n      tag_86\n      jump\t// in\n    tag_128:\n        /* \"#utility.yul\":1643:1706   */\n      swap5\n      pop\n        /* \"#utility.yul\":1598:1716   */\n      pop\n        /* \"#utility.yul\":1755:1757   */\n      0x40\n        /* \"#utility.yul\":1781:1834   */\n      tag_129\n        /* \"#utility.yul\":1826:1833   */\n      dup9\n        /* \"#utility.yul\":1817:1823   */\n      dup3\n        /* \"#utility.yul\":1806:1815   */\n      dup10\n        /* \"#utility.yul\":1802:1824   */\n      add\n        /* \"#utility.yul\":1781:1834   */\n      tag_86\n      jump\t// in\n    tag_129:\n        /* \"#utility.yul\":1771:1834   */\n      swap4\n      pop\n        /* \"#utility.yul\":1726:1844   */\n      pop\n        /* \"#utility.yul\":1883:1885   */\n      0x60\n        /* \"#utility.yul\":1909:1962   */\n      tag_130\n        /* \"#utility.yul\":1954:1961   */\n      dup9\n        /* \"#utility.yul\":1945:1951   */\n      dup3\n        /* \"#utility.yul\":1934:1943   */\n      dup10\n        /* \"#utility.yul\":1930:1952   */\n      add\n        /* \"#utility.yul\":1909:1962   */\n      tag_86\n      jump\t// in\n    tag_130:\n        /* \"#utility.yul\":1899:1962   */\n      swap3\n      pop\n        /* \"#utility.yul\":1854:1972   */\n      pop\n        /* \"#utility.yul\":2011:2014   */\n      0x80\n        /* \"#utility.yul\":2038:2091   */\n      tag_131\n        /* \"#utility.yul\":2083:2090   */\n      dup9\n        /* \"#utility.yul\":2074:2080   */\n      dup3\n        /* \"#utility.yul\":2063:2072   */\n      dup10\n        /* \"#utility.yul\":2059:2081   */\n      add\n        /* \"#utility.yul\":2038:2091   */\n      tag_86\n      jump\t// in\n    tag_131:\n        /* \"#utility.yul\":2028:2091   */\n      swap2\n      pop\n        /* \"#utility.yul\":1982:2101   */\n      pop\n        /* \"#utility.yul\":1197:2108   */\n      swap3\n      swap6\n      pop\n      swap3\n      swap6\n      swap1\n      swap4\n      pop\n      jump\t// out\n        /* \"#utility.yul\":2114:2443   */\n    tag_15:\n        /* \"#utility.yul\":2173:2179   */\n      0x00\n        /* \"#utility.yul\":2222:2224   */\n      0x20\n        /* \"#utility.yul\":2210:2219   */\n      dup3\n        /* \"#utility.yul\":2201:2208   */\n      dup5\n        /* \"#utility.yul\":2197:2220   */\n      sub\n        /* \"#utility.yul\":2193:2225   */\n      slt\n        /* \"#utility.yul\":2190:2309   */\n      iszero\n      tag_133\n      jumpi\n        /* \"#utility.yul\":2228:2307   */\n      tag_134\n      tag_78\n      jump\t// in\n    tag_134:\n        /* \"#utility.yul\":2190:2309   */\n    tag_133:\n        /* \"#utility.yul\":2348:2349   */\n      0x00\n        /* \"#utility.yul\":2373:2426   */\n      tag_135\n        /* \"#utility.yul\":2418:2425   */\n      dup5\n        /* \"#utility.yul\":2409:2415   */\n      dup3\n        /* \"#utility.yul\":2398:2407   */\n      dup6\n        /* \"#utility.yul\":2394:2416   */\n      add\n        /* \"#utility.yul\":2373:2426   */\n      tag_83\n      jump\t// in\n    tag_135:\n        /* \"#utility.yul\":2363:2426   */\n      swap2\n      pop\n        /* \"#utility.yul\":2319:2436   */\n      pop\n        /* \"#utility.yul\":2114:2443   */\n      swap3\n      swap2\n      pop\n      pop\n      jump\t// out\n        /* \"#utility.yul\":2449:2567   */\n    tag_87:\n        /* \"#utility.yul\":2536:2560   */\n      tag_137\n        /* \"#utility.yul\":2554:2559   */\n      dup2\n        /* \"#utility.yul\":2536:2560   */\n      tag_84\n      jump\t// in\n    tag_137:\n        /* \"#utility.yul\":2531:2534   */\n      dup3\n        /* \"#utility.yul\":2524:2561   */\n      mstore\n        /* \"#utility.yul\":2449:2567   */\n      pop\n      pop\n      jump\t// out\n        /* \"#utility.yul\":2573:2795   */\n    tag_18:\n        /* \"#utility.yul\":2666:2670   */\n      0x00\n        /* \"#utility.yul\":2704:2706   */\n      0x20\n        /* \"#utility.yul\":2693:2702   */\n      dup3\n        /* \"#utility.yul\":2689:2707   */\n      add\n        /* \"#utility.yul\":2681:2707   */\n      swap1\n      pop\n        /* \"#utility.yul\":2717:2788   */\n      tag_139\n        /* \"#utility.yul\":2785:2786   */\n      0x00\n        /* \"#utility.yul\":2774:2783   */\n      dup4\n        /* \"#utility.yul\":2770:2787   */\n      add\n        /* \"#utility.yul\":2761:2767   */\n      dup5\n        /* \"#utility.yul\":2717:2788   */\n      tag_87\n      jump\t// in\n    tag_139:\n        /* \"#utility.yul\":2573:2795   */\n      swap3\n      swap2\n      pop\n      pop\n      jump\t// out\n        /* \"#utility.yul\":2801:2919   */\n    tag_88:\n        /* \"#utility.yul\":2888:2912   */\n      tag_141\n        /* \"#utility.yul\":2906:2911   */\n      dup2\n        /* \"#utility.yul\":2888:2912   */\n      tag_81\n      jump\t// in\n    tag_141:\n        /* \"#utility.yul\":2883:2886   */\n      dup3\n        /* \"#utility.yul\":2876:2913   */\n      mstore\n        /* \"#utility.yul\":2801:2919   */\n      pop\n      pop\n      jump\t// out\n        /* \"#utility.yul\":2925:3147   */\n    tag_25:\n        /* \"#utility.yul\":3018:3022   */\n      0x00\n        /* \"#utility.yul\":3056:3058   */\n      0x20\n        /* \"#utility.yul\":3045:3054   */\n      dup3\n        /* \"#utility.yul\":3041:3059   */\n      add\n        /* \"#utility.yul\":3033:3059   */\n      swap1\n      pop\n        /* \"#utility.yul\":3069:3140   */\n      tag_143\n        /* \"#utility.yul\":3137:3138   */\n      0x00\n        /* \"#utility.yul\":3126:3135   */\n      dup4\n        /* \"#utility.yul\":3122:3139   */\n      add\n        /* \"#utility.yul\":3113:3119   */\n      dup5\n        /* \"#utility.yul\":3069:3140   */\n      tag_88\n      jump\t// in\n    tag_143:\n        /* \"#utility.yul\":2925:3147   */\n      swap3\n      swap2\n      pop\n      pop\n      jump\t// out\n        /* \"#utility.yul\":3153:3243   */\n    tag_89:\n        /* \"#utility.yul\":3187:3194   */\n      0x00\n        /* \"#utility.yul\":3230:3235   */\n      dup2\n        /* \"#utility.yul\":3223:3236   */\n      iszero\n        /* \"#utility.yul\":3216:3237   */\n      iszero\n        /* \"#utility.yul\":3205:3237   */\n      swap1\n      pop\n        /* \"#utility.yul\":3153:3243   */\n      swap2\n      swap1\n      pop\n      jump\t// out\n        /* \"#utility.yul\":3249:3358   */\n    tag_90:\n        /* \"#utility.yul\":3330:3351   */\n      tag_146\n        /* \"#utility.yul\":3345:3350   */\n      dup2\n        /* \"#utility.yul\":3330:3351   */\n      tag_89\n      jump\t// in\n    tag_146:\n        /* \"#utility.yul\":3325:3328   */\n      dup3\n        /* \"#utility.yul\":3318:3352   */\n      mstore\n        /* \"#utility.yul\":3249:3358   */\n      pop\n      pop\n      jump\t// out\n        /* \"#utility.yul\":3364:4127   */\n    tag_30:\n        /* \"#utility.yul\":3591:3595   */\n      0x00\n        /* \"#utility.yul\":3629:3632   */\n      0xc0\n        /* \"#utility.yul\":3618:3627   */\n      dup3\n        /* \"#utility.yul\":3614:3633   */\n      add\n        /* \"#utility.yul\":3606:3633   */\n      swap1\n      pop\n        /* \"#utility.yul\":3643:3714   */\n      tag_148\n        /* \"#utility.yul\":3711:3712   */\n      0x00\n        /* \"#utility.yul\":3700:3709   */\n      dup4\n        /* \"#utility.yul\":3696:3713   */\n      add\n        /* \"#utility.yul\":3687:3693   */\n      dup10\n        /* \"#utility.yul\":3643:3714   */\n      tag_87\n      jump\t// in\n    tag_148:\n        /* \"#utility.yul\":3724:3796   */\n      tag_149\n        /* \"#utility.yul\":3792:3794   */\n      0x20\n        /* \"#utility.yul\":3781:3790   */\n      dup4\n        /* \"#utility.yul\":3777:3795   */\n      add\n        /* \"#utility.yul\":3768:3774   */\n      dup9\n        /* \"#utility.yul\":3724:3796   */\n      tag_87\n      jump\t// in\n    tag_149:\n        /* \"#utility.yul\":3806:3878   */\n      tag_150\n        /* \"#utility.yul\":3874:3876   */\n      0x40\n        /* \"#utility.yul\":3863:3872   */\n      dup4\n        /* \"#utility.yul\":3859:3877   */\n      add\n        /* \"#utility.yul\":3850:3856   */\n      dup8\n        /* \"#utility.yul\":3806:3878   */\n      tag_87\n      jump\t// in\n    tag_150:\n        /* \"#utility.yul\":3888:3960   */\n      tag_151\n        /* \"#utility.yul\":3956:3958   */\n      0x60\n        /* \"#utility.yul\":3945:3954   */\n      dup4\n        /* \"#utility.yul\":3941:3959   */\n      add\n        /* \"#utility.yul\":3932:3938   */\n      dup7\n        /* \"#utility.yul\":3888:3960   */\n      tag_87\n      jump\t// in\n    tag_151:\n        /* \"#utility.yul\":3970:4043   */\n      tag_152\n        /* \"#utility.yul\":4038:4041   */\n      0x80\n        /* \"#utility.yul\":4027:4036   */\n      dup4\n        /* \"#utility.yul\":4023:4042   */\n      add\n        /* \"#utility.yul\":4014:4020   */\n      dup6\n        /* \"#utility.yul\":3970:4043   */\n      tag_87\n      jump\t// in\n    tag_152:\n        /* \"#utility.yul\":4053:4120   */\n      tag_153\n        /* \"#utility.yul\":4115:4118   */\n      0xa0\n        /* \"#utility.yul\":4104:4113   */\n      dup4\n        /* \"#utility.yul\":4100:4119   */\n      add\n        /* \"#utility.yul\":4091:4097   */\n      dup5\n        /* \"#utility.yul\":4053:4120   */\n      tag_90\n      jump\t// in\n    tag_153:\n        /* \"#utility.yul\":3364:4127   */\n      swap8\n      swap7\n      pop\n      pop\n      pop\n      pop\n      pop\n      pop\n      pop\n      jump\t// out\n        /* \"#utility.yul\":4133:4302   */\n    tag_91:\n        /* \"#utility.yul\":4217:4228   */\n      0x00\n        /* \"#utility.yul\":4251:4257   */\n      dup3\n        /* \"#utility.yul\":4246:4249   */\n      dup3\n        /* \"#utility.yul\":4239:4258   */\n      mstore\n        /* \"#utility.yul\":4291:4295   */\n      0x20\n        /* \"#utility.yul\":4286:4289   */\n      dup3\n        /* \"#utility.yul\":4282:4296   */\n      add\n        /* \"#utility.yul\":4267:4296   */\n      swap1\n      pop\n        /* \"#utility.yul\":4133:4302   */\n      swap3\n      swap2\n      pop\n      pop\n      jump\t// out\n        /* \"#utility.yul\":4308:4485   */\n    tag_92:\n        /* \"#utility.yul\":4448:4477   */\n      0x496e76616c69642062656e656669636961727920616464726573730000000000\n        /* \"#utility.yul\":4444:4445   */\n      0x00\n        /* \"#utility.yul\":4436:4442   */\n      dup3\n        /* \"#utility.yul\":4432:4446   */\n      add\n        /* \"#utility.yul\":4425:4478   */\n      mstore\n        /* \"#utility.yul\":4308:4485   */\n      pop\n      jump\t// out\n        /* \"#utility.yul\":4491:4857   */\n    tag_93:\n        /* \"#utility.yul\":4633:4636   */\n      0x00\n        /* \"#utility.yul\":4654:4721   */\n      tag_157\n        /* \"#utility.yul\":4718:4720   */\n      0x1b\n        /* \"#utility.yul\":4713:4716   */\n      dup4\n        /* \"#utility.yul\":4654:4721   */\n      tag_91\n      jump\t// in\n    tag_157:\n        /* \"#utility.yul\":4647:4721   */\n      swap2\n      pop\n        /* \"#utility.yul\":4730:4823   */\n      tag_158\n        /* \"#utility.yul\":4819:4822   */\n      dup3\n        /* \"#utility.yul\":4730:4823   */\n      tag_92\n      jump\t// in\n    tag_158:\n        /* \"#utility.yul\":4848:4850   */\n      0x20\n        /* \"#utility.yul\":4843:4846   */\n      dup3\n        /* \"#utility.yul\":4839:4851   */\n      add\n        /* \"#utility.yul\":4832:4851   */\n      swap1\n      pop\n        /* \"#utility.yul\":4491:4857   */\n      swap2\n      swap1\n      pop\n      jump\t// out\n        /* \"#utility.yul\":4863:5282   */\n    tag_38:\n        /* \"#utility.yul\":5029:5033   */\n      0x00\n        /* \"#utility.yul\":5067:5069   */\n      0x20\n        /* \"#utility.yul\":5056:5065   */\n      dup3\n        /* \"#utility.yul\":5052:5070   */\n      add\n        /* \"#utility.yul\":5044:5070   */\n      swap1\n      pop\n        /* \"#utility.yul\":5116:5125   */\n      dup2\n        /* \"#utility.yul\":5110:5114   */\n      dup2\n        /* \"#utility.yul\":5106:5126   */\n      sub\n        /* \"#utility.yul\":5102:5103   */\n      0x00\n        /* \"#utility.yul\":5091:5100   */\n      dup4\n        /* \"#utility.yul\":5087:5104   */\n      add\n        /* \"#utility.yul\":5080:5127   */\n      mstore\n        /* \"#utility.yul\":5144:5275   */\n      tag_160\n        /* \"#utility.yul\":5270:5274   */\n      dup2\n        /* \"#utility.yul\":5144:5275   */\n      tag_93\n      jump\t// in\n    tag_160:\n        /* \"#utility.yul\":5136:5275   */\n      swap1\n      pop\n        /* \"#utility.yul\":4863:5282   */\n      swap2\n      swap1\n      pop\n      jump\t// out\n        /* \"#utility.yul\":5288:5469   */\n    tag_94:\n        /* \"#utility.yul\":5428:5461   */\n      0x56657374696e67207363686564756c6520616c72656164792065786973747300\n        /* \"#utility.yul\":5424:5425   */\n      0x00\n        /* \"#utility.yul\":5416:5422   */\n      dup3\n        /* \"#utility.yul\":5412:5426   */\n      add\n        /* \"#utility.yul\":5405:5462   */\n      mstore\n        /* \"#utility.yul\":5288:5469   */\n      pop\n      jump\t// out\n        /* \"#utility.yul\":5475:5841   */\n    tag_95:\n        /* \"#utility.yul\":5617:5620   */\n      0x00\n        /* \"#utility.yul\":5638:5705   */\n      tag_163\n        /* \"#utility.yul\":5702:5704   */\n      0x1f\n        /* \"#utility.yul\":5697:5700   */\n      dup4\n        /* \"#utility.yul\":5638:5705   */\n      tag_91\n      jump\t// in\n    tag_163:\n        /* \"#utility.yul\":5631:5705   */\n      swap2\n      pop\n        /* \"#utility.yul\":5714:5807   */\n      tag_164\n        /* \"#utility.yul\":5803:5806   */\n      dup3\n        /* \"#utility.yul\":5714:5807   */\n      tag_94\n      jump\t// in\n    tag_164:\n        /* \"#utility.yul\":5832:5834   */\n      0x20\n        /* \"#utility.yul\":5827:5830   */\n      dup3\n        /* \"#utility.yul\":5823:5835   */\n      add\n        /* \"#utility.yul\":5816:5835   */\n      swap1\n      pop\n        /* \"#utility.yul\":5475:5841   */\n      swap2\n      swap1\n      pop\n      jump\t// out\n        /* \"#utility.yul\":5847:6266   */\n    tag_41:\n        /* \"#utility.yul\":6013:6017   */\n      0x00\n        /* \"#utility.yul\":6051:6053   */\n      0x20\n        /* \"#utility.yul\":6040:6049   */\n      dup3\n        /* \"#utility.yul\":6036:6054   */\n      add\n        /* \"#utility.yul\":6028:6054   */\n      swap1\n      pop\n        /* \"#utility.yul\":6100:6109   */\n      dup2\n        /* \"#utility.yul\":6094:6098   */\n      dup2\n        /* \"#utility.yul\":6090:6110   */\n      sub\n        /* \"#utility.yul\":6086:6087   */\n      0x00\n        /* \"#utility.yul\":6075:6084   */\n      dup4\n        /* \"#utility.yul\":6071:6088   */\n      add\n        /* \"#utility.yul\":6064:6111   */\n      mstore\n        /* \"#utility.yul\":6128:6259   */\n      tag_166\n        /* \"#utility.yul\":6254:6258   */\n      dup2\n        /* \"#utility.yul\":6128:6259   */\n      tag_95\n      jump\t// in\n    tag_166:\n        /* \"#utility.yul\":6120:6259   */\n      swap1\n      pop\n        /* \"#utility.yul\":5847:6266   */\n      swap2\n      swap1\n      pop\n      jump\t// out\n        /* \"#utility.yul\":6272:6448   */\n    tag_96:\n        /* \"#utility.yul\":6412:6440   */\n      0x56657374696e67207363686564756c65206e6f7420666f756e64000000000000\n        /* \"#utility.yul\":6408:6409   */\n      0x00\n        /* \"#utility.yul\":6400:6406   */\n      dup3\n        /* \"#utility.yul\":6396:6410   */\n      add\n        /* \"#utility.yul\":6389:6441   */\n      mstore\n        /* \"#utility.yul\":6272:6448   */\n      pop\n      jump\t// out\n        /* \"#utility.yul\":6454:6820   */\n    tag_97:\n        /* \"#utility.yul\":6596:6599   */\n      0x00\n        /* \"#utility.yul\":6617:6684   */\n      tag_169\n        /* \"#utility.yul\":6681:6683   */\n      0x1a\n        /* \"#utility.yul\":6676:6679   */\n      dup4\n        /* \"#utility.yul\":6617:6684   */\n      tag_91\n      jump\t// in\n    tag_169:\n        /* \"#utility.yul\":6610:6684   */\n      swap2\n      pop\n        /* \"#utility.yul\":6693:6786   */\n      tag_170\n        /* \"#utility.yul\":6782:6785   */\n      dup3\n        /* \"#utility.yul\":6693:6786   */\n      tag_96\n      jump\t// in\n    tag_170:\n        /* \"#utility.yul\":6811:6813   */\n      0x20\n        /* \"#utility.yul\":6806:6809   */\n      dup3\n        /* \"#utility.yul\":6802:6814   */\n      add\n        /* \"#utility.yul\":6795:6814   */\n      swap1\n      pop\n        /* \"#utility.yul\":6454:6820   */\n      swap2\n      swap1\n      pop\n      jump\t// out\n        /* \"#utility.yul\":6826:7245   */\n    tag_45:\n        /* \"#utility.yul\":6992:6996   */\n      0x00\n        /* \"#utility.yul\":7030:7032   */\n      0x20\n        /* \"#utility.yul\":7019:7028   */\n      dup3\n        /* \"#utility.yul\":7015:7033   */\n      add\n        /* \"#utility.yul\":7007:7033   */\n      swap1\n      pop\n        /* \"#utility.yul\":7079:7088   */\n      dup2\n        /* \"#utility.yul\":7073:7077   */\n      dup2\n        /* \"#utility.yul\":7069:7089   */\n      sub\n        /* \"#utility.yul\":7065:7066   */\n      0x00\n        /* \"#utility.yul\":7054:7063   */\n      dup4\n        /* \"#utility.yul\":7050:7067   */\n      add\n        /* \"#utility.yul\":7043:7090   */\n      mstore\n        /* \"#utility.yul\":7107:7238   */\n      tag_172\n        /* \"#utility.yul\":7233:7237   */\n      dup2\n        /* \"#utility.yul\":7107:7238   */\n      tag_97\n      jump\t// in\n    tag_172:\n        /* \"#utility.yul\":7099:7238   */\n      swap1\n      pop\n        /* \"#utility.yul\":6826:7245   */\n      swap2\n      swap1\n      pop\n      jump\t// out\n        /* \"#utility.yul\":7251:7424   */\n    tag_98:\n        /* \"#utility.yul\":7391:7416   */\n      0x546f6b656e7320616c72656164792072656c6561736564000000000000000000\n        /* \"#utility.yul\":7387:7388   */\n      0x00\n        /* \"#utility.yul\":7379:7385   */\n      dup3\n        /* \"#utility.yul\":7375:7389   */\n      add\n        /* \"#utility.yul\":7368:7417   */\n      mstore\n        /* \"#utility.yul\":7251:7424   */\n      pop\n      jump\t// out\n        /* \"#utility.yul\":7430:7796   */\n    tag_99:\n        /* \"#utility.yul\":7572:7575   */\n      0x00\n        /* \"#utility.yul\":7593:7660   */\n      tag_175\n        /* \"#utility.yul\":7657:7659   */\n      0x17\n        /* \"#utility.yul\":7652:7655   */\n      dup4\n        /* \"#utility.yul\":7593:7660   */\n      tag_91\n      jump\t// in\n    tag_175:\n        /* \"#utility.yul\":7586:7660   */\n      swap2\n      pop\n        /* \"#utility.yul\":7669:7762   */\n      tag_176\n        /* \"#utility.yul\":7758:7761   */\n      dup3\n        /* \"#utility.yul\":7669:7762   */\n      tag_98\n      jump\t// in\n    tag_176:\n        /* \"#utility.yul\":7787:7789   */\n      0x20\n        /* \"#utility.yul\":7782:7785   */\n      dup3\n        /* \"#utility.yul\":7778:7790   */\n      add\n        /* \"#utility.yul\":7771:7790   */\n      swap1\n      pop\n        /* \"#utility.yul\":7430:7796   */\n      swap2\n      swap1\n      pop\n      jump\t// out\n        /* \"#utility.yul\":7802:8221   */\n    tag_48:\n        /* \"#utility.yul\":7968:7972   */\n      0x00\n        /* \"#utility.yul\":8006:8008   */\n      0x20\n        /* \"#utility.yul\":7995:8004   */\n      dup3\n        /* \"#utility.yul\":7991:8009   */\n      add\n        /* \"#utility.yul\":7983:8009   */\n      swap1\n      pop\n        /* \"#utility.yul\":8055:8064   */\n      dup2\n        /* \"#utility.yul\":8049:8053   */\n      dup2\n        /* \"#utility.yul\":8045:8065   */\n      sub\n        /* \"#utility.yul\":8041:8042   */\n      0x00\n        /* \"#utility.yul\":8030:8039   */\n      dup4\n        /* \"#utility.yul\":8026:8043   */\n      add\n        /* \"#utility.yul\":8019:8066   */\n      mstore\n        /* \"#utility.yul\":8083:8214   */\n      tag_178\n        /* \"#utility.yul\":8209:8213   */\n      dup2\n        /* \"#utility.yul\":8083:8214   */\n      tag_99\n      jump\t// in\n    tag_178:\n        /* \"#utility.yul\":8075:8214   */\n      swap1\n      pop\n        /* \"#utility.yul\":7802:8221   */\n      swap2\n      swap1\n      pop\n      jump\t// out\n        /* \"#utility.yul\":8227:8408   */\n    tag_100:\n        /* \"#utility.yul\":8367:8400   */\n      0x4e6f20746f6b656e7320617661696c61626c6520666f722072656c6561736500\n        /* \"#utility.yul\":8363:8364   */\n      0x00\n        /* \"#utility.yul\":8355:8361   */\n      dup3\n        /* \"#utility.yul\":8351:8365   */\n      add\n        /* \"#utility.yul\":8344:8401   */\n      mstore\n        /* \"#utility.yul\":8227:8408   */\n      pop\n      jump\t// out\n        /* \"#utility.yul\":8414:8780   */\n    tag_101:\n        /* \"#utility.yul\":8556:8559   */\n      0x00\n        /* \"#utility.yul\":8577:8644   */\n      tag_181\n        /* \"#utility.yul\":8641:8643   */\n      0x1f\n        /* \"#utility.yul\":8636:8639   */\n      dup4\n        /* \"#utility.yul\":8577:8644   */\n      tag_91\n      jump\t// in\n    tag_181:\n        /* \"#utility.yul\":8570:8644   */\n      swap2\n      pop\n        /* \"#utility.yul\":8653:8746   */\n      tag_182\n        /* \"#utility.yul\":8742:8745   */\n      dup3\n        /* \"#utility.yul\":8653:8746   */\n      tag_100\n      jump\t// in\n    tag_182:\n        /* \"#utility.yul\":8771:8773   */\n      0x20\n        /* \"#utility.yul\":8766:8769   */\n      dup3\n        /* \"#utility.yul\":8762:8774   */\n      add\n        /* \"#utility.yul\":8755:8774   */\n      swap1\n      pop\n        /* \"#utility.yul\":8414:8780   */\n      swap2\n      swap1\n      pop\n      jump\t// out\n        /* \"#utility.yul\":8786:9205   */\n    tag_52:\n        /* \"#utility.yul\":8952:8956   */\n      0x00\n        /* \"#utility.yul\":8990:8992   */\n      0x20\n        /* \"#utility.yul\":8979:8988   */\n      dup3\n        /* \"#utility.yul\":8975:8993   */\n      add\n        /* \"#utility.yul\":8967:8993   */\n      swap1\n      pop\n        /* \"#utility.yul\":9039:9048   */\n      dup2\n        /* \"#utility.yul\":9033:9037   */\n      dup2\n        /* \"#utility.yul\":9029:9049   */\n      sub\n        /* \"#utility.yul\":9025:9026   */\n      0x00\n        /* \"#utility.yul\":9014:9023   */\n      dup4\n        /* \"#utility.yul\":9010:9027   */\n      add\n        /* \"#utility.yul\":9003:9050   */\n      mstore\n        /* \"#utility.yul\":9067:9198   */\n      tag_184\n        /* \"#utility.yul\":9193:9197   */\n      dup2\n        /* \"#utility.yul\":9067:9198   */\n      tag_101\n      jump\t// in\n    tag_184:\n        /* \"#utility.yul\":9059:9198   */\n      swap1\n      pop\n        /* \"#utility.yul\":8786:9205   */\n      swap2\n      swap1\n      pop\n      jump\t// out\n        /* \"#utility.yul\":9211:9543   */\n    tag_54:\n        /* \"#utility.yul\":9332:9336   */\n      0x00\n        /* \"#utility.yul\":9370:9372   */\n      0x40\n        /* \"#utility.yul\":9359:9368   */\n      dup3\n        /* \"#utility.yul\":9355:9373   */\n      add\n        /* \"#utility.yul\":9347:9373   */\n      swap1\n      pop\n        /* \"#utility.yul\":9383:9454   */\n      tag_186\n        /* \"#utility.yul\":9451:9452   */\n      0x00\n        /* \"#utility.yul\":9440:9449   */\n      dup4\n        /* \"#utility.yul\":9436:9453   */\n      add\n        /* \"#utility.yul\":9427:9433   */\n      dup6\n        /* \"#utility.yul\":9383:9454   */\n      tag_88\n      jump\t// in\n    tag_186:\n        /* \"#utility.yul\":9464:9536   */\n      tag_187\n        /* \"#utility.yul\":9532:9534   */\n      0x20\n        /* \"#utility.yul\":9521:9530   */\n      dup4\n        /* \"#utility.yul\":9517:9535   */\n      add\n        /* \"#utility.yul\":9508:9514   */\n      dup5\n        /* \"#utility.yul\":9464:9536   */\n      tag_87\n      jump\t// in\n    tag_187:\n        /* \"#utility.yul\":9211:9543   */\n      swap4\n      swap3\n      pop\n      pop\n      pop\n      jump\t// out\n        /* \"#utility.yul\":9549:9665   */\n    tag_102:\n        /* \"#utility.yul\":9619:9640   */\n      tag_189\n        /* \"#utility.yul\":9634:9639   */\n      dup2\n        /* \"#utility.yul\":9619:9640   */\n      tag_89\n      jump\t// in\n    tag_189:\n        /* \"#utility.yul\":9612:9617   */\n      dup2\n        /* \"#utility.yul\":9609:9641   */\n      eq\n        /* \"#utility.yul\":9599:9659   */\n      tag_190\n      jumpi\n        /* \"#utility.yul\":9655:9656   */\n      0x00\n        /* \"#utility.yul\":9652:9653   */\n      dup1\n        /* \"#utility.yul\":9645:9657   */\n      revert\n        /* \"#utility.yul\":9599:9659   */\n    tag_190:\n        /* \"#utility.yul\":9549:9665   */\n      pop\n      jump\t// out\n        /* \"#utility.yul\":9671:9808   */\n    tag_103:\n        /* \"#utility.yul\":9725:9730   */\n      0x00\n        /* \"#utility.yul\":9756:9762   */\n      dup2\n        /* \"#utility.yul\":9750:9763   */\n      mload\n        /* \"#utility.yul\":9741:9763   */\n      swap1\n      pop\n        /* \"#utility.yul\":9772:9802   */\n      tag_192\n        /* \"#utility.yul\":9796:9801   */\n      dup2\n        /* \"#utility.yul\":9772:9802   */\n      tag_102\n      jump\t// in\n    tag_192:\n        /* \"#utility.yul\":9671:9808   */\n      swap3\n      swap2\n      pop\n      pop\n      jump\t// out\n        /* \"#utility.yul\":9814:10159   */\n    tag_58:\n        /* \"#utility.yul\":9881:9887   */\n      0x00\n        /* \"#utility.yul\":9930:9932   */\n      0x20\n        /* \"#utility.yul\":9918:9927   */\n      dup3\n        /* \"#utility.yul\":9909:9916   */\n      dup5\n        /* \"#utility.yul\":9905:9928   */\n      sub\n        /* \"#utility.yul\":9901:9933   */\n      slt\n        /* \"#utility.yul\":9898:10017   */\n      iszero\n      tag_194\n      jumpi\n        /* \"#utility.yul\":9936:10015   */\n      tag_195\n      tag_78\n      jump\t// in\n    tag_195:\n        /* \"#utility.yul\":9898:10017   */\n    tag_194:\n        /* \"#utility.yul\":10056:10057   */\n      0x00\n        /* \"#utility.yul\":10081:10142   */\n      tag_196\n        /* \"#utility.yul\":10134:10141   */\n      dup5\n        /* \"#utility.yul\":10125:10131   */\n      dup3\n        /* \"#utility.yul\":10114:10123   */\n      dup6\n        /* \"#utility.yul\":10110:10132   */\n      add\n        /* \"#utility.yul\":10081:10142   */\n      tag_103\n      jump\t// in\n    tag_196:\n        /* \"#utility.yul\":10071:10142   */\n      swap2\n      pop\n        /* \"#utility.yul\":10027:10152   */\n      pop\n        /* \"#utility.yul\":9814:10159   */\n      swap3\n      swap2\n      pop\n      pop\n      jump\t// out\n        /* \"#utility.yul\":10165:10345   */\n    tag_104:\n        /* \"#utility.yul\":10213:10290   */\n      0x4e487b7100000000000000000000000000000000000000000000000000000000\n        /* \"#utility.yul\":10210:10211   */\n      0x00\n        /* \"#utility.yul\":10203:10291   */\n      mstore\n        /* \"#utility.yul\":10310:10314   */\n      0x11\n        /* \"#utility.yul\":10307:10308   */\n      0x04\n        /* \"#utility.yul\":10300:10315   */\n      mstore\n        /* \"#utility.yul\":10334:10338   */\n      0x24\n        /* \"#utility.yul\":10331:10332   */\n      0x00\n        /* \"#utility.yul\":10324:10339   */\n      revert\n        /* \"#utility.yul\":10351:10542   */\n    tag_64:\n        /* \"#utility.yul\":10391:10394   */\n      0x00\n        /* \"#utility.yul\":10410:10430   */\n      tag_199\n        /* \"#utility.yul\":10428:10429   */\n      dup3\n        /* \"#utility.yul\":10410:10430   */\n      tag_84\n      jump\t// in\n    tag_199:\n        /* \"#utility.yul\":10405:10430   */\n      swap2\n      pop\n        /* \"#utility.yul\":10444:10464   */\n      tag_200\n        /* \"#utility.yul\":10462:10463   */\n      dup4\n        /* \"#utility.yul\":10444:10464   */\n      tag_84\n      jump\t// in\n    tag_200:\n        /* \"#utility.yul\":10439:10464   */\n      swap3\n      pop\n        /* \"#utility.yul\":10487:10488   */\n      dup3\n        /* \"#utility.yul\":10484:10485   */\n      dup3\n        /* \"#utility.yul\":10480:10489   */\n      add\n        /* \"#utility.yul\":10473:10489   */\n      swap1\n      pop\n        /* \"#utility.yul\":10508:10511   */\n      dup1\n        /* \"#utility.yul\":10505:10506   */\n      dup3\n        /* \"#utility.yul\":10502:10512   */\n      gt\n        /* \"#utility.yul\":10499:10535   */\n      iszero\n      tag_201\n      jumpi\n        /* \"#utility.yul\":10515:10533   */\n      tag_202\n      tag_104\n      jump\t// in\n    tag_202:\n        /* \"#utility.yul\":10499:10535   */\n    tag_201:\n        /* \"#utility.yul\":10351:10542   */\n      swap3\n      swap2\n      pop\n      pop\n      jump\t// out\n        /* \"#utility.yul\":10548:10742   */\n    tag_71:\n        /* \"#utility.yul\":10588:10592   */\n      0x00\n        /* \"#utility.yul\":10608:10628   */\n      tag_204\n        /* \"#utility.yul\":10626:10627   */\n      dup3\n        /* \"#utility.yul\":10608:10628   */\n      tag_84\n      jump\t// in\n    tag_204:\n        /* \"#utility.yul\":10603:10628   */\n      swap2\n      pop\n        /* \"#utility.yul\":10642:10662   */\n      tag_205\n        /* \"#utility.yul\":10660:10661   */\n      dup4\n        /* \"#utility.yul\":10642:10662   */\n      tag_84\n      jump\t// in\n    tag_205:\n        /* \"#utility.yul\":10637:10662   */\n      swap3\n      pop\n        /* \"#utility.yul\":10686:10687   */\n      dup3\n        /* \"#utility.yul\":10683:10684   */\n      dup3\n        /* \"#utility.yul\":10679:10688   */\n      sub\n        /* \"#utility.yul\":10671:10688   */\n      swap1\n      pop\n        /* \"#utility.yul\":10710:10711   */\n      dup2\n        /* \"#utility.yul\":10704:10708   */\n      dup2\n        /* \"#utility.yul\":10701:10712   */\n      gt\n        /* \"#utility.yul\":10698:10735   */\n      iszero\n      tag_206\n      jumpi\n        /* \"#utility.yul\":10715:10733   */\n      tag_207\n      tag_104\n      jump\t// in\n    tag_207:\n        /* \"#utility.yul\":10698:10735   */\n    tag_206:\n        /* \"#utility.yul\":10548:10742   */\n      swap3\n      swap2\n      pop\n      pop\n      jump\t// out\n        /* \"#utility.yul\":10748:11158   */\n    tag_74:\n        /* \"#utility.yul\":10788:10795   */\n      0x00\n        /* \"#utility.yul\":10811:10831   */\n      tag_209\n        /* \"#utility.yul\":10829:10830   */\n      dup3\n        /* \"#utility.yul\":10811:10831   */\n      tag_84\n      jump\t// in\n    tag_209:\n        /* \"#utility.yul\":10806:10831   */\n      swap2\n      pop\n        /* \"#utility.yul\":10845:10865   */\n      tag_210\n        /* \"#utility.yul\":10863:10864   */\n      dup4\n        /* \"#utility.yul\":10845:10865   */\n      tag_84\n      jump\t// in\n    tag_210:\n        /* \"#utility.yul\":10840:10865   */\n      swap3\n      pop\n        /* \"#utility.yul\":10900:10901   */\n      dup3\n        /* \"#utility.yul\":10897:10898   */\n      dup3\n        /* \"#utility.yul\":10893:10902   */\n      mul\n        /* \"#utility.yul\":10922:10952   */\n      tag_211\n        /* \"#utility.yul\":10940:10951   */\n      dup2\n        /* \"#utility.yul\":10922:10952   */\n      tag_84\n      jump\t// in\n    tag_211:\n        /* \"#utility.yul\":10911:10952   */\n      swap2\n      pop\n        /* \"#utility.yul\":11101:11102   */\n      dup3\n        /* \"#utility.yul\":11092:11099   */\n      dup3\n        /* \"#utility.yul\":11088:11103   */\n      div\n        /* \"#utility.yul\":11085:11086   */\n      dup5\n        /* \"#utility.yul\":11082:11104   */\n      eq\n        /* \"#utility.yul\":11062:11063   */\n      dup4\n        /* \"#utility.yul\":11055:11064   */\n      iszero\n        /* \"#utility.yul\":11035:11118   */\n      or\n        /* \"#utility.yul\":11012:11151   */\n      tag_212\n      jumpi\n        /* \"#utility.yul\":11131:11149   */\n      tag_213\n      tag_104\n      jump\t// in\n    tag_213:\n        /* \"#utility.yul\":11012:11151   */\n    tag_212:\n        /* \"#utility.yul\":10796:11158   */\n      pop\n        /* \"#utility.yul\":10748:11158   */\n      swap3\n      swap2\n      pop\n      pop\n      jump\t// out\n        /* \"#utility.yul\":11164:11344   */\n    tag_105:\n        /* \"#utility.yul\":11212:11289   */\n      0x4e487b7100000000000000000000000000000000000000000000000000000000\n        /* \"#utility.yul\":11209:11210   */\n      0x00\n        /* \"#utility.yul\":11202:11290   */\n      mstore\n        /* \"#utility.yul\":11309:11313   */\n      0x12\n        /* \"#utility.yul\":11306:11307   */\n      0x04\n        /* \"#utility.yul\":11299:11314   */\n      mstore\n        /* \"#utility.yul\":11333:11337   */\n      0x24\n        /* \"#utility.yul\":11330:11331   */\n      0x00\n        /* \"#utility.yul\":11323:11338   */\n      revert\n        /* \"#utility.yul\":11350:11535   */\n    tag_76:\n        /* \"#utility.yul\":11390:11391   */\n      0x00\n        /* \"#utility.yul\":11407:11427   */\n      tag_216\n        /* \"#utility.yul\":11425:11426   */\n      dup3\n        /* \"#utility.yul\":11407:11427   */\n      tag_84\n      jump\t// in\n    tag_216:\n        /* \"#utility.yul\":11402:11427   */\n      swap2\n      pop\n        /* \"#utility.yul\":11441:11461   */\n      tag_217\n        /* \"#utility.yul\":11459:11460   */\n      dup4\n        /* \"#utility.yul\":11441:11461   */\n      tag_84\n      jump\t// in\n    tag_217:\n        /* \"#utility.yul\":11436:11461   */\n      swap3\n      pop\n        /* \"#utility.yul\":11480:11481   */\n      dup3\n        /* \"#utility.yul\":11470:11505   */\n      tag_218\n      jumpi\n        /* \"#utility.yul\":11485:11503   */\n      tag_219\n      tag_105\n      jump\t// in\n    tag_219:\n        /* \"#utility.yul\":11470:11505   */\n    tag_218:\n        /* \"#utility.yul\":11527:11528   */\n      dup3\n        /* \"#utility.yul\":11524:11525   */\n      dup3\n        /* \"#utility.yul\":11520:11529   */\n      div\n        /* \"#utility.yul\":11515:11529   */\n      swap1\n      pop\n        /* \"#utility.yul\":11350:11535   */\n      swap3\n      swap2\n      pop\n      pop\n      jump\t// out\n\n    auxdata: 0xa264697066735822122036ae033e3374dd365b215af2538affce62ca05b7924b13162feab98a5e4e570664736f6c63430008140033\n}\n",
				"bytecode": {
					"linkReferences": {},
					"object": "608060405234801562000010575f80fd5b5060405162000f0038038062000f00833981810160405281019062000036919062000153565b5f73ffffffffffffffffffffffffffffffffffffffff168173ffffffffffffffffffffffffffffffffffffffff1603620000a7576040517f08c379a00000000000000000000000000000000000000000000000000000000081526004016200009e90620001e1565b60405180910390fd5b8060025f6101000a81548173ffffffffffffffffffffffffffffffffffffffff021916908373ffffffffffffffffffffffffffffffffffffffff1602179055505062000201565b5f80fd5b5f73ffffffffffffffffffffffffffffffffffffffff82169050919050565b5f6200011d82620000f2565b9050919050565b6200012f8162000111565b81146200013a575f80fd5b50565b5f815190506200014d8162000124565b92915050565b5f602082840312156200016b576200016a620000ee565b5b5f6200017a848285016200013d565b91505092915050565b5f82825260208201905092915050565b7f496e76616c696420746f6b656e206164647265737300000000000000000000005f82015250565b5f620001c960158362000183565b9150620001d68262000193565b602082019050919050565b5f6020820190508181035f830152620001fa81620001bb565b9050919050565b610cf1806200020f5f395ff3fe608060405234801561000f575f80fd5b5060043610610060575f3560e01c80631bf0b08b146100645780633dee03971461008057806387b0be48146100b05780639d76ea58146100cc578063fdb20ccb146100ea578063ffa06b2a1461011f575b5f80fd5b61007e6004803603810190610079919061078b565b61014f565b005b61009a60048036038101906100959190610802565b6102cd565b6040516100a7919061083c565b60405180910390f35b6100ca60048036038101906100c59190610802565b6102e2565b005b6100d4610564565b6040516100e19190610864565b60405180910390f35b61010460048036038101906100ff9190610802565b610589565b60405161011696959493929190610897565b60405180910390f35b61013960048036038101906101349190610802565b6105cc565b604051610146919061083c565b60405180910390f35b5f73ffffffffffffffffffffffffffffffffffffffff168573ffffffffffffffffffffffffffffffffffffffff16036101bd576040517f08c379a00000000000000000000000000000000000000000000000000000000081526004016101b490610950565b60405180910390fd5b5f805f8773ffffffffffffffffffffffffffffffffffffffff1673ffffffffffffffffffffffffffffffffffffffff1681526020019081526020015f20600101541461023e576040517f08c379a0000000000000000000000000000000000000000000000000000000008152600401610235906109b8565b60405180910390fd5b5f805f8773ffffffffffffffffffffffffffffffffffffffff1673ffffffffffffffffffffffffffffffffffffffff1681526020019081526020015f20905084815f01819055508381600101819055508281600201819055508181600301819055505f81600401819055506001816005015f6101000a81548160ff021916908315150217905550505050505050565b6001602052805f5260405f205f915090505481565b5f805f8373ffffffffffffffffffffffffffffffffffffffff1673ffffffffffffffffffffffffffffffffffffffff1681526020019081526020015f209050806005015f9054906101000a900460ff16610371576040517f08c379a000000000000000000000000000000000000000000000000000000000815260040161036890610a20565b60405180910390fd5b5f60015f8473ffffffffffffffffffffffffffffffffffffffff1673ffffffffffffffffffffffffffffffffffffffff1681526020019081526020015f2054146103f0576040517f08c379a00000000000000000000000000000000000000000000000000000000081526004016103e790610a88565b60405180910390fd5b5f6103fa836105cc565b90505f811161043e576040517f08c379a000000000000000000000000000000000000000000000000000000000815260040161043590610af0565b60405180910390fd5b8060015f8573ffffffffffffffffffffffffffffffffffffffff1673ffffffffffffffffffffffffffffffffffffffff1681526020019081526020015f208190555060025f9054906101000a900473ffffffffffffffffffffffffffffffffffffffff1673ffffffffffffffffffffffffffffffffffffffff1663a9059cbb84836040518363ffffffff1660e01b81526004016104dc929190610b0e565b6020604051808303815f875af11580156104f8573d5f803e3d5ffd5b505050506040513d601f19601f8201168201806040525081019061051c9190610b5f565b508082600401819055507fc7798891864187665ac6dd119286e44ec13f014527aeeb2b8eb3fd413df931798382604051610557929190610b0e565b60405180910390a1505050565b60025f9054906101000a900473ffffffffffffffffffffffffffffffffffffffff1681565b5f602052805f5260405f205f91509050805f015490806001015490806002015490806003015490806004015490806005015f9054906101000a900460ff16905086565b5f805f808473ffffffffffffffffffffffffffffffffffffffff1673ffffffffffffffffffffffffffffffffffffffff1681526020019081526020015f209050806005015f9054906101000a900460ff1661065c576040517f08c379a000000000000000000000000000000000000000000000000000000000815260040161065390610a20565b60405180910390fd5b806002015481600101546106709190610bb7565b421015610680575f9150506106f5565b806003015481600101546106949190610bb7565b42106106a657805f01549150506106f5565b5f8160010154426106b79190610bea565b90505f826002015483600301546106ce9190610bea565b90505f8183855f01546106e19190610c1d565b6106eb9190610c8b565b9050809450505050505b919050565b5f80fd5b5f73ffffffffffffffffffffffffffffffffffffffff82169050919050565b5f610727826106fe565b9050919050565b6107378161071d565b8114610741575f80fd5b50565b5f813590506107528161072e565b92915050565b5f819050919050565b61076a81610758565b8114610774575f80fd5b50565b5f8135905061078581610761565b92915050565b5f805f805f60a086880312156107a4576107a36106fa565b5b5f6107b188828901610744565b95505060206107c288828901610777565b94505060406107d388828901610777565b93505060606107e488828901610777565b92505060806107f588828901610777565b9150509295509295909350565b5f60208284031215610817576108166106fa565b5b5f61082484828501610744565b91505092915050565b61083681610758565b82525050565b5f60208201905061084f5f83018461082d565b92915050565b61085e8161071d565b82525050565b5f6020820190506108775f830184610855565b92915050565b5f8115159050919050565b6108918161087d565b82525050565b5f60c0820190506108aa5f83018961082d565b6108b7602083018861082d565b6108c4604083018761082d565b6108d1606083018661082d565b6108de608083018561082d565b6108eb60a0830184610888565b979650505050505050565b5f82825260208201905092915050565b7f496e76616c69642062656e6566696369617279206164647265737300000000005f82015250565b5f61093a601b836108f6565b915061094582610906565b602082019050919050565b5f6020820190508181035f8301526109678161092e565b9050919050565b7f56657374696e67207363686564756c6520616c726561647920657869737473005f82015250565b5f6109a2601f836108f6565b91506109ad8261096e565b602082019050919050565b5f6020820190508181035f8301526109cf81610996565b9050919050565b7f56657374696e67207363686564756c65206e6f7420666f756e640000000000005f82015250565b5f610a0a601a836108f6565b9150610a15826109d6565b602082019050919050565b5f6020820190508181035f830152610a37816109fe565b9050919050565b7f546f6b656e7320616c72656164792072656c65617365640000000000000000005f82015250565b5f610a726017836108f6565b9150610a7d82610a3e565b602082019050919050565b5f6020820190508181035f830152610a9f81610a66565b9050919050565b7f4e6f20746f6b656e7320617661696c61626c6520666f722072656c65617365005f82015250565b5f610ada601f836108f6565b9150610ae582610aa6565b602082019050919050565b5f6020820190508181035f830152610b0781610ace565b9050919050565b5f604082019050610b215f830185610855565b610b2e602083018461082d565b9392505050565b610b3e8161087d565b8114610b48575f80fd5b50565b5f81519050610b5981610b35565b92915050565b5f60208284031215610b7457610b736106fa565b5b5f610b8184828501610b4b565b91505092915050565b7f4e487b71000000000000000000000000000000000000000000000000000000005f52601160045260245ffd5b5f610bc182610758565b9150610bcc83610758565b9250828201905080821115610be457610be3610b8a565b5b92915050565b5f610bf482610758565b9150610bff83610758565b9250828203905081811115610c1757610c16610b8a565b5b92915050565b5f610c2782610758565b9150610c3283610758565b9250828202610c4081610758565b91508282048414831517610c5757610c56610b8a565b5b5092915050565b7f4e487b71000000000000000000000000000000000000000000000000000000005f52601260045260245ffd5b5f610c9582610758565b9150610ca083610758565b925082610cb057610caf610c5e565b5b82820490509291505056fea264697066735822122036ae033e3374dd365b215af2538affce62ca05b7924b13162feab98a5e4e570664736f6c63430008140033",
					"opcodes": "PUSH1 0x80 PUSH1 0x40 MSTORE CALLVALUE DUP1 ISZERO PUSH3 0x10 JUMPI PUSH0 DUP1 REVERT JUMPDEST POP PUSH1 0x40 MLOAD PUSH3 0xF00 CODESIZE SUB DUP1 PUSH3 0xF00 DUP4 CODECOPY DUP2 DUP2 ADD PUSH1 0x40 MSTORE DUP2 ADD SWAP1 PUSH3 0x36 SWAP2 SWAP1 PUSH3 0x153 JUMP JUMPDEST PUSH0 PUSH20 0xFFFFFFFFFFFFFFFFFFFFFFFFFFFFFFFFFFFFFFFF AND DUP2 PUSH20 0xFFFFFFFFFFFFFFFFFFFFFFFFFFFFFFFFFFFFFFFF AND SUB PUSH3 0xA7 JUMPI PUSH1 0x40 MLOAD PUSH32 0x8C379A000000000000000000000000000000000000000000000000000000000 DUP2 MSTORE PUSH1 0x4 ADD PUSH3 0x9E SWAP1 PUSH3 0x1E1 JUMP JUMPDEST PUSH1 0x40 MLOAD DUP1 SWAP2 SUB SWAP1 REVERT JUMPDEST DUP1 PUSH1 0x2 PUSH0 PUSH2 0x100 EXP DUP2 SLOAD DUP2 PUSH20 0xFFFFFFFFFFFFFFFFFFFFFFFFFFFFFFFFFFFFFFFF MUL NOT AND SWAP1 DUP4 PUSH20 0xFFFFFFFFFFFFFFFFFFFFFFFFFFFFFFFFFFFFFFFF AND MUL OR SWAP1 SSTORE POP POP PUSH3 0x201 JUMP JUMPDEST PUSH0 DUP1 REVERT JUMPDEST PUSH0 PUSH20 0xFFFFFFFFFFFFFFFFFFFFFFFFFFFFFFFFFFFFFFFF DUP3 AND SWAP1 POP SWAP2 SWAP1 POP JUMP JUMPDEST PUSH0 PUSH3 0x11D DUP3 PUSH3 0xF2 JUMP JUMPDEST SWAP1 POP SWAP2 SWAP1 POP JUMP JUMPDEST PUSH3 0x12F DUP2 PUSH3 0x111 JUMP JUMPDEST DUP2 EQ PUSH3 0x13A JUMPI PUSH0 DUP1 REVERT JUMPDEST POP JUMP JUMPDEST PUSH0 DUP2 MLOAD SWAP1 POP PUSH3 0x14D DUP2 PUSH3 0x124 JUMP JUMPDEST SWAP3 SWAP2 POP POP JUMP JUMPDEST PUSH0 PUSH1 0x20 DUP3 DUP5 SUB SLT ISZERO PUSH3 0x16B JUMPI PUSH3 0x16A PUSH3 0xEE JUMP JUMPDEST JUMPDEST PUSH0 PUSH3 0x17A DUP5 DUP3 DUP6 ADD PUSH3 0x13D JUMP JUMPDEST SWAP2 POP POP SWAP3 SWAP2 POP POP JUMP JUMPDEST PUSH0 DUP3 DUP3 MSTORE PUSH1 0x20 DUP3 ADD SWAP1 POP SWAP3 SWAP2 POP POP JUMP JUMPDEST PUSH32 0x496E76616C696420746F6B656E20616464726573730000000000000000000000 PUSH0 DUP3 ADD MSTORE POP JUMP JUMPDEST PUSH0 PUSH3 0x1C9 PUSH1 0x15 DUP4 PUSH3 0x183 JUMP JUMPDEST SWAP2 POP PUSH3 0x1D6 DUP3 PUSH3 0x193 JUMP JUMPDEST PUSH1 0x20 DUP3 ADD SWAP1 POP SWAP2 SWAP1 POP JUMP JUMPDEST PUSH0 PUSH1 0x20 DUP3 ADD SWAP1 POP DUP2 DUP2 SUB PUSH0 DUP4 ADD MSTORE PUSH3 0x1FA DUP2 PUSH3 0x1BB JUMP JUMPDEST SWAP1 POP SWAP2 SWAP1 POP JUMP JUMPDEST PUSH2 0xCF1 DUP1 PUSH3 0x20F PUSH0 CODECOPY PUSH0 RETURN INVALID PUSH1 0x80 PUSH1 0x40 MSTORE CALLVALUE DUP1 ISZERO PUSH2 0xF JUMPI PUSH0 DUP1 REVERT JUMPDEST POP PUSH1 0x4 CALLDATASIZE LT PUSH2 0x60 JUMPI PUSH0 CALLDATALOAD PUSH1 0xE0 SHR DUP1 PUSH4 0x1BF0B08B EQ PUSH2 0x64 JUMPI DUP1 PUSH4 0x3DEE0397 EQ PUSH2 0x80 JUMPI DUP1 PUSH4 0x87B0BE48 EQ PUSH2 0xB0 JUMPI DUP1 PUSH4 0x9D76EA58 EQ PUSH2 0xCC JUMPI DUP1 PUSH4 0xFDB20CCB EQ PUSH2 0xEA JUMPI DUP1 PUSH4 0xFFA06B2A EQ PUSH2 0x11F JUMPI JUMPDEST PUSH0 DUP1 REVERT JUMPDEST PUSH2 0x7E PUSH1 0x4 DUP1 CALLDATASIZE SUB DUP2 ADD SWAP1 PUSH2 0x79 SWAP2 SWAP1 PUSH2 0x78B JUMP JUMPDEST PUSH2 0x14F JUMP JUMPDEST STOP JUMPDEST PUSH2 0x9A PUSH1 0x4 DUP1 CALLDATASIZE SUB DUP2 ADD SWAP1 PUSH2 0x95 SWAP2 SWAP1 PUSH2 0x802 JUMP JUMPDEST PUSH2 0x2CD JUMP JUMPDEST PUSH1 0x40 MLOAD PUSH2 0xA7 SWAP2 SWAP1 PUSH2 0x83C JUMP JUMPDEST PUSH1 0x40 MLOAD DUP1 SWAP2 SUB SWAP1 RETURN JUMPDEST PUSH2 0xCA PUSH1 0x4 DUP1 CALLDATASIZE SUB DUP2 ADD SWAP1 PUSH2 0xC5 SWAP2 SWAP1 PUSH2 0x802 JUMP JUMPDEST PUSH2 0x2E2 JUMP JUMPDEST STOP JUMPDEST PUSH2 0xD4 PUSH2 0x564 JUMP JUMPDEST PUSH1 0x40 MLOAD PUSH2 0xE1 SWAP2 SWAP1 PUSH2 0x864 JUMP JUMPDEST PUSH1 0x40 MLOAD DUP1 SWAP2 SUB SWAP1 RETURN JUMPDEST PUSH2 0x104 PUSH1 0x4 DUP1 CALLDATASIZE SUB DUP2 ADD SWAP1 PUSH2 0xFF SWAP2 SWAP1 PUSH2 0x802 JUMP JUMPDEST PUSH2 0x589 JUMP JUMPDEST PUSH1 0x40 MLOAD PUSH2 0x116 SWAP7 SWAP6 SWAP5 SWAP4 SWAP3 SWAP2 SWAP1 PUSH2 0x897 JUMP JUMPDEST PUSH1 0x40 MLOAD DUP1 SWAP2 SUB SWAP1 RETURN JUMPDEST PUSH2 0x139 PUSH1 0x4 DUP1 CALLDATASIZE SUB DUP2 ADD SWAP1 PUSH2 0x134 SWAP2 SWAP1 PUSH2 0x802 JUMP JUMPDEST PUSH2 0x5CC JUMP JUMPDEST PUSH1 0x40 MLOAD PUSH2 0x146 SWAP2 SWAP1 PUSH2 0x83C JUMP JUMPDEST PUSH1 0x40 MLOAD DUP1 SWAP2 SUB SWAP1 RETURN JUMPDEST PUSH0 PUSH20 0xFFFFFFFFFFFFFFFFFFFFFFFFFFFFFFFFFFFFFFFF AND DUP6 PUSH20 0xFFFFFFFFFFFFFFFFFFFFFFFFFFFFFFFFFFFFFFFF AND SUB PUSH2 0x1BD JUMPI PUSH1 0x40 MLOAD PUSH32 0x8C379A000000000000000000000000000000000000000000000000000000000 DUP2 MSTORE PUSH1 0x4 ADD PUSH2 0x1B4 SWAP1 PUSH2 0x950 JUMP JUMPDEST PUSH1 0x40 MLOAD DUP1 SWAP2 SUB SWAP1 REVERT JUMPDEST PUSH0 DUP1 PUSH0 DUP8 PUSH20 0xFFFFFFFFFFFFFFFFFFFFFFFFFFFFFFFFFFFFFFFF AND PUSH20 0xFFFFFFFFFFFFFFFFFFFFFFFFFFFFFFFFFFFFFFFF AND DUP2 MSTORE PUSH1 0x20 ADD SWAP1 DUP2 MSTORE PUSH1 0x20 ADD PUSH0 KECCAK256 PUSH1 0x1 ADD SLOAD EQ PUSH2 0x23E JUMPI PUSH1 0x40 MLOAD PUSH32 0x8C379A000000000000000000000000000000000000000000000000000000000 DUP2 MSTORE PUSH1 0x4 ADD PUSH2 0x235 SWAP1 PUSH2 0x9B8 JUMP JUMPDEST PUSH1 0x40 MLOAD DUP1 SWAP2 SUB SWAP1 REVERT JUMPDEST PUSH0 DUP1 PUSH0 DUP8 PUSH20 0xFFFFFFFFFFFFFFFFFFFFFFFFFFFFFFFFFFFFFFFF AND PUSH20 0xFFFFFFFFFFFFFFFFFFFFFFFFFFFFFFFFFFFFFFFF AND DUP2 MSTORE PUSH1 0x20 ADD SWAP1 DUP2 MSTORE PUSH1 0x20 ADD PUSH0 KECCAK256 SWAP1 POP DUP5 DUP2 PUSH0 ADD DUP2 SWAP1 SSTORE POP DUP4 DUP2 PUSH1 0x1 ADD DUP2 SWAP1 SSTORE POP DUP3 DUP2 PUSH1 0x2 ADD DUP2 SWAP1 SSTORE POP DUP2 DUP2 PUSH1 0x3 ADD DUP2 SWAP1 SSTORE POP PUSH0 DUP2 PUSH1 0x4 ADD DUP2 SWAP1 SSTORE POP PUSH1 0x1 DUP2 PUSH1 0x5 ADD PUSH0 PUSH2 0x100 EXP DUP2 SLOAD DUP2 PUSH1 0xFF MUL NOT AND SWAP1 DUP4 ISZERO ISZERO MUL OR SWAP1 SSTORE POP POP POP POP POP POP POP JUMP JUMPDEST PUSH1 0x1 PUSH1 0x20 MSTORE DUP1 PUSH0 MSTORE PUSH1 0x40 PUSH0 KECCAK256 PUSH0 SWAP2 POP SWAP1 POP SLOAD DUP2 JUMP JUMPDEST PUSH0 DUP1 PUSH0 DUP4 PUSH20 0xFFFFFFFFFFFFFFFFFFFFFFFFFFFFFFFFFFFFFFFF AND PUSH20 0xFFFFFFFFFFFFFFFFFFFFFFFFFFFFFFFFFFFFFFFF AND DUP2 MSTORE PUSH1 0x20 ADD SWAP1 DUP2 MSTORE PUSH1 0x20 ADD PUSH0 KECCAK256 SWAP1 POP DUP1 PUSH1 0x5 ADD PUSH0 SWAP1 SLOAD SWAP1 PUSH2 0x100 EXP SWAP1 DIV PUSH1 0xFF AND PUSH2 0x371 JUMPI PUSH1 0x40 MLOAD PUSH32 0x8C379A000000000000000000000000000000000000000000000000000000000 DUP2 MSTORE PUSH1 0x4 ADD PUSH2 0x368 SWAP1 PUSH2 0xA20 JUMP JUMPDEST PUSH1 0x40 MLOAD DUP1 SWAP2 SUB SWAP1 REVERT JUMPDEST PUSH0 PUSH1 0x1 PUSH0 DUP5 PUSH20 0xFFFFFFFFFFFFFFFFFFFFFFFFFFFFFFFFFFFFFFFF AND PUSH20 0xFFFFFFFFFFFFFFFFFFFFFFFFFFFFFFFFFFFFFFFF AND DUP2 MSTORE PUSH1 0x20 ADD SWAP1 DUP2 MSTORE PUSH1 0x20 ADD PUSH0 KECCAK256 SLOAD EQ PUSH2 0x3F0 JUMPI PUSH1 0x40 MLOAD PUSH32 0x8C379A000000000000000000000000000000000000000000000000000000000 DUP2 MSTORE PUSH1 0x4 ADD PUSH2 0x3E7 SWAP1 PUSH2 0xA88 JUMP JUMPDEST PUSH1 0x40 MLOAD DUP1 SWAP2 SUB SWAP1 REVERT JUMPDEST PUSH0 PUSH2 0x3FA DUP4 PUSH2 0x5CC JUMP JUMPDEST SWAP1 POP PUSH0 DUP2 GT PUSH2 0x43E JUMPI PUSH1 0x40 MLOAD PUSH32 0x8C379A000000000000000000000000000000000000000000000000000000000 DUP2 MSTORE PUSH1 0x4 ADD PUSH2 0x435 SWAP1 PUSH2 0xAF0 JUMP JUMPDEST PUSH1 0x40 MLOAD DUP1 SWAP2 SUB SWAP1 REVERT JUMPDEST DUP1 PUSH1 0x1 PUSH0 DUP6 PUSH20 0xFFFFFFFFFFFFFFFFFFFFFFFFFFFFFFFFFFFFFFFF AND PUSH20 0xFFFFFFFFFFFFFFFFFFFFFFFFFFFFFFFFFFFFFFFF AND DUP2 MSTORE PUSH1 0x20 ADD SWAP1 DUP2 MSTORE PUSH1 0x20 ADD PUSH0 KECCAK256 DUP2 SWAP1 SSTORE POP PUSH1 0x2 PUSH0 SWAP1 SLOAD SWAP1 PUSH2 0x100 EXP SWAP1 DIV PUSH20 0xFFFFFFFFFFFFFFFFFFFFFFFFFFFFFFFFFFFFFFFF AND PUSH20 0xFFFFFFFFFFFFFFFFFFFFFFFFFFFFFFFFFFFFFFFF AND PUSH4 0xA9059CBB DUP5 DUP4 PUSH1 0x40 MLOAD DUP4 PUSH4 0xFFFFFFFF AND PUSH1 0xE0 SHL DUP2 MSTORE PUSH1 0x4 ADD PUSH2 0x4DC SWAP3 SWAP2 SWAP1 PUSH2 0xB0E JUMP JUMPDEST PUSH1 0x20 PUSH1 0x40 MLOAD DUP1 DUP4 SUB DUP2 PUSH0 DUP8 GAS CALL ISZERO DUP1 ISZERO PUSH2 0x4F8 JUMPI RETURNDATASIZE PUSH0 DUP1 RETURNDATACOPY RETURNDATASIZE PUSH0 REVERT JUMPDEST POP POP POP POP PUSH1 0x40 MLOAD RETURNDATASIZE PUSH1 0x1F NOT PUSH1 0x1F DUP3 ADD AND DUP3 ADD DUP1 PUSH1 0x40 MSTORE POP DUP2 ADD SWAP1 PUSH2 0x51C SWAP2 SWAP1 PUSH2 0xB5F JUMP JUMPDEST POP DUP1 DUP3 PUSH1 0x4 ADD DUP2 SWAP1 SSTORE POP PUSH32 0xC7798891864187665AC6DD119286E44EC13F014527AEEB2B8EB3FD413DF93179 DUP4 DUP3 PUSH1 0x40 MLOAD PUSH2 0x557 SWAP3 SWAP2 SWAP1 PUSH2 0xB0E JUMP JUMPDEST PUSH1 0x40 MLOAD DUP1 SWAP2 SUB SWAP1 LOG1 POP POP POP JUMP JUMPDEST PUSH1 0x2 PUSH0 SWAP1 SLOAD SWAP1 PUSH2 0x100 EXP SWAP1 DIV PUSH20 0xFFFFFFFFFFFFFFFFFFFFFFFFFFFFFFFFFFFFFFFF AND DUP2 JUMP JUMPDEST PUSH0 PUSH1 0x20 MSTORE DUP1 PUSH0 MSTORE PUSH1 0x40 PUSH0 KECCAK256 PUSH0 SWAP2 POP SWAP1 POP DUP1 PUSH0 ADD SLOAD SWAP1 DUP1 PUSH1 0x1 ADD SLOAD SWAP1 DUP1 PUSH1 0x2 ADD SLOAD SWAP1 DUP1 PUSH1 0x3 ADD SLOAD SWAP1 DUP1 PUSH1 0x4 ADD SLOAD SWAP1 DUP1 PUSH1 0x5 ADD PUSH0 SWAP1 SLOAD SWAP1 PUSH2 0x100 EXP SWAP1 DIV PUSH1 0xFF AND SWAP1 POP DUP7 JUMP JUMPDEST PUSH0 DUP1 PUSH0 DUP1 DUP5 PUSH20 0xFFFFFFFFFFFFFFFFFFFFFFFFFFFFFFFFFFFFFFFF AND PUSH20 0xFFFFFFFFFFFFFFFFFFFFFFFFFFFFFFFFFFFFFFFF AND DUP2 MSTORE PUSH1 0x20 ADD SWAP1 DUP2 MSTORE PUSH1 0x20 ADD PUSH0 KECCAK256 SWAP1 POP DUP1 PUSH1 0x5 ADD PUSH0 SWAP1 SLOAD SWAP1 PUSH2 0x100 EXP SWAP1 DIV PUSH1 0xFF AND PUSH2 0x65C JUMPI PUSH1 0x40 MLOAD PUSH32 0x8C379A000000000000000000000000000000000000000000000000000000000 DUP2 MSTORE PUSH1 0x4 ADD PUSH2 0x653 SWAP1 PUSH2 0xA20 JUMP JUMPDEST PUSH1 0x40 MLOAD DUP1 SWAP2 SUB SWAP1 REVERT JUMPDEST DUP1 PUSH1 0x2 ADD SLOAD DUP2 PUSH1 0x1 ADD SLOAD PUSH2 0x670 SWAP2 SWAP1 PUSH2 0xBB7 JUMP JUMPDEST TIMESTAMP LT ISZERO PUSH2 0x680 JUMPI PUSH0 SWAP2 POP POP PUSH2 0x6F5 JUMP JUMPDEST DUP1 PUSH1 0x3 ADD SLOAD DUP2 PUSH1 0x1 ADD SLOAD PUSH2 0x694 SWAP2 SWAP1 PUSH2 0xBB7 JUMP JUMPDEST TIMESTAMP LT PUSH2 0x6A6 JUMPI DUP1 PUSH0 ADD SLOAD SWAP2 POP POP PUSH2 0x6F5 JUMP JUMPDEST PUSH0 DUP2 PUSH1 0x1 ADD SLOAD TIMESTAMP PUSH2 0x6B7 SWAP2 SWAP1 PUSH2 0xBEA JUMP JUMPDEST SWAP1 POP PUSH0 DUP3 PUSH1 0x2 ADD SLOAD DUP4 PUSH1 0x3 ADD SLOAD PUSH2 0x6CE SWAP2 SWAP1 PUSH2 0xBEA JUMP JUMPDEST SWAP1 POP PUSH0 DUP2 DUP4 DUP6 PUSH0 ADD SLOAD PUSH2 0x6E1 SWAP2 SWAP1 PUSH2 0xC1D JUMP JUMPDEST PUSH2 0x6EB SWAP2 SWAP1 PUSH2 0xC8B JUMP JUMPDEST SWAP1 POP DUP1 SWAP5 POP POP POP POP POP JUMPDEST SWAP2 SWAP1 POP JUMP JUMPDEST PUSH0 DUP1 REVERT JUMPDEST PUSH0 PUSH20 0xFFFFFFFFFFFFFFFFFFFFFFFFFFFFFFFFFFFFFFFF DUP3 AND SWAP1 POP SWAP2 SWAP1 POP JUMP JUMPDEST PUSH0 PUSH2 0x727 DUP3 PUSH2 0x6FE JUMP JUMPDEST SWAP1 POP SWAP2 SWAP1 POP JUMP JUMPDEST PUSH2 0x737 DUP2 PUSH2 0x71D JUMP JUMPDEST DUP2 EQ PUSH2 0x741 JUMPI PUSH0 DUP1 REVERT JUMPDEST POP JUMP JUMPDEST PUSH0 DUP2 CALLDATALOAD SWAP1 POP PUSH2 0x752 DUP2 PUSH2 0x72E JUMP JUMPDEST SWAP3 SWAP2 POP POP JUMP JUMPDEST PUSH0 DUP2 SWAP1 POP SWAP2 SWAP1 POP JUMP JUMPDEST PUSH2 0x76A DUP2 PUSH2 0x758 JUMP JUMPDEST DUP2 EQ PUSH2 0x774 JUMPI PUSH0 DUP1 REVERT JUMPDEST POP JUMP JUMPDEST PUSH0 DUP2 CALLDATALOAD SWAP1 POP PUSH2 0x785 DUP2 PUSH2 0x761 JUMP JUMPDEST SWAP3 SWAP2 POP POP JUMP JUMPDEST PUSH0 DUP1 PUSH0 DUP1 PUSH0 PUSH1 0xA0 DUP7 DUP9 SUB SLT ISZERO PUSH2 0x7A4 JUMPI PUSH2 0x7A3 PUSH2 0x6FA JUMP JUMPDEST JUMPDEST PUSH0 PUSH2 0x7B1 DUP9 DUP3 DUP10 ADD PUSH2 0x744 JUMP JUMPDEST SWAP6 POP POP PUSH1 0x20 PUSH2 0x7C2 DUP9 DUP3 DUP10 ADD PUSH2 0x777 JUMP JUMPDEST SWAP5 POP POP PUSH1 0x40 PUSH2 0x7D3 DUP9 DUP3 DUP10 ADD PUSH2 0x777 JUMP JUMPDEST SWAP4 POP POP PUSH1 0x60 PUSH2 0x7E4 DUP9 DUP3 DUP10 ADD PUSH2 0x777 JUMP JUMPDEST SWAP3 POP POP PUSH1 0x80 PUSH2 0x7F5 DUP9 DUP3 DUP10 ADD PUSH2 0x777 JUMP JUMPDEST SWAP2 POP POP SWAP3 SWAP6 POP SWAP3 SWAP6 SWAP1 SWAP4 POP JUMP JUMPDEST PUSH0 PUSH1 0x20 DUP3 DUP5 SUB SLT ISZERO PUSH2 0x817 JUMPI PUSH2 0x816 PUSH2 0x6FA JUMP JUMPDEST JUMPDEST PUSH0 PUSH2 0x824 DUP5 DUP3 DUP6 ADD PUSH2 0x744 JUMP JUMPDEST SWAP2 POP POP SWAP3 SWAP2 POP POP JUMP JUMPDEST PUSH2 0x836 DUP2 PUSH2 0x758 JUMP JUMPDEST DUP3 MSTORE POP POP JUMP JUMPDEST PUSH0 PUSH1 0x20 DUP3 ADD SWAP1 POP PUSH2 0x84F PUSH0 DUP4 ADD DUP5 PUSH2 0x82D JUMP JUMPDEST SWAP3 SWAP2 POP POP JUMP JUMPDEST PUSH2 0x85E DUP2 PUSH2 0x71D JUMP JUMPDEST DUP3 MSTORE POP POP JUMP JUMPDEST PUSH0 PUSH1 0x20 DUP3 ADD SWAP1 POP PUSH2 0x877 PUSH0 DUP4 ADD DUP5 PUSH2 0x855 JUMP JUMPDEST SWAP3 SWAP2 POP POP JUMP JUMPDEST PUSH0 DUP2 ISZERO ISZERO SWAP1 POP SWAP2 SWAP1 POP JUMP JUMPDEST PUSH2 0x891 DUP2 PUSH2 0x87D JUMP JUMPDEST DUP3 MSTORE POP POP JUMP JUMPDEST PUSH0 PUSH1 0xC0 DUP3 ADD SWAP1 POP PUSH2 0x8AA PUSH0 DUP4 ADD DUP10 PUSH2 0x82D JUMP JUMPDEST PUSH2 0x8B7 PUSH1 0x20 DUP4 ADD DUP9 PUSH2 0x82D JUMP JUMPDEST PUSH2 0x8C4 PUSH1 0x40 DUP4 ADD DUP8 PUSH2 0x82D JUMP JUMPDEST PUSH2 0x8D1 PUSH1 0x60 DUP4 ADD DUP7 PUSH2 0x82D JUMP JUMPDEST PUSH2 0x8DE PUSH1 0x80 DUP4 ADD DUP6 PUSH2 0x82D JUMP JUMPDEST PUSH2 0x8EB PUSH1 0xA0 DUP4 ADD DUP5 PUSH2 0x888 JUMP JUMPDEST SWAP8 SWAP7 POP POP POP POP POP POP POP JUMP JUMPDEST PUSH0 DUP3 DUP3 MSTORE PUSH1 0x20 DUP3 ADD SWAP1 POP SWAP3 SWAP2 POP POP JUMP JUMPDEST PUSH32 0x496E76616C69642062656E656669636961727920616464726573730000000000 PUSH0 DUP3 ADD MSTORE POP JUMP JUMPDEST PUSH0 PUSH2 0x93A PUSH1 0x1B DUP4 PUSH2 0x8F6 JUMP JUMPDEST SWAP2 POP PUSH2 0x945 DUP3 PUSH2 0x906 JUMP JUMPDEST PUSH1 0x20 DUP3 ADD SWAP1 POP SWAP2 SWAP1 POP JUMP JUMPDEST PUSH0 PUSH1 0x20 DUP3 ADD SWAP1 POP DUP2 DUP2 SUB PUSH0 DUP4 ADD MSTORE PUSH2 0x967 DUP2 PUSH2 0x92E JUMP JUMPDEST SWAP1 POP SWAP2 SWAP1 POP JUMP JUMPDEST PUSH32 0x56657374696E67207363686564756C6520616C72656164792065786973747300 PUSH0 DUP3 ADD MSTORE POP JUMP JUMPDEST PUSH0 PUSH2 0x9A2 PUSH1 0x1F DUP4 PUSH2 0x8F6 JUMP JUMPDEST SWAP2 POP PUSH2 0x9AD DUP3 PUSH2 0x96E JUMP JUMPDEST PUSH1 0x20 DUP3 ADD SWAP1 POP SWAP2 SWAP1 POP JUMP JUMPDEST PUSH0 PUSH1 0x20 DUP3 ADD SWAP1 POP DUP2 DUP2 SUB PUSH0 DUP4 ADD MSTORE PUSH2 0x9CF DUP2 PUSH2 0x996 JUMP JUMPDEST SWAP1 POP SWAP2 SWAP1 POP JUMP JUMPDEST PUSH32 0x56657374696E67207363686564756C65206E6F7420666F756E64000000000000 PUSH0 DUP3 ADD MSTORE POP JUMP JUMPDEST PUSH0 PUSH2 0xA0A PUSH1 0x1A DUP4 PUSH2 0x8F6 JUMP JUMPDEST SWAP2 POP PUSH2 0xA15 DUP3 PUSH2 0x9D6 JUMP JUMPDEST PUSH1 0x20 DUP3 ADD SWAP1 POP SWAP2 SWAP1 POP JUMP JUMPDEST PUSH0 PUSH1 0x20 DUP3 ADD SWAP1 POP DUP2 DUP2 SUB PUSH0 DUP4 ADD MSTORE PUSH2 0xA37 DUP2 PUSH2 0x9FE JUMP JUMPDEST SWAP1 POP SWAP2 SWAP1 POP JUMP JUMPDEST PUSH32 0x546F6B656E7320616C72656164792072656C6561736564000000000000000000 PUSH0 DUP3 ADD MSTORE POP JUMP JUMPDEST PUSH0 PUSH2 0xA72 PUSH1 0x17 DUP4 PUSH2 0x8F6 JUMP JUMPDEST SWAP2 POP PUSH2 0xA7D DUP3 PUSH2 0xA3E JUMP JUMPDEST PUSH1 0x20 DUP3 ADD SWAP1 POP SWAP2 SWAP1 POP JUMP JUMPDEST PUSH0 PUSH1 0x20 DUP3 ADD SWAP1 POP DUP2 DUP2 SUB PUSH0 DUP4 ADD MSTORE PUSH2 0xA9F DUP2 PUSH2 0xA66 JUMP JUMPDEST SWAP1 POP SWAP2 SWAP1 POP JUMP JUMPDEST PUSH32 0x4E6F20746F6B656E7320617661696C61626C6520666F722072656C6561736500 PUSH0 DUP3 ADD MSTORE POP JUMP JUMPDEST PUSH0 PUSH2 0xADA PUSH1 0x1F DUP4 PUSH2 0x8F6 JUMP JUMPDEST SWAP2 POP PUSH2 0xAE5 DUP3 PUSH2 0xAA6 JUMP JUMPDEST PUSH1 0x20 DUP3 ADD SWAP1 POP SWAP2 SWAP1 POP JUMP JUMPDEST PUSH0 PUSH1 0x20 DUP3 ADD SWAP1 POP DUP2 DUP2 SUB PUSH0 DUP4 ADD MSTORE PUSH2 0xB07 DUP2 PUSH2 0xACE JUMP JUMPDEST SWAP1 POP SWAP2 SWAP1 POP JUMP JUMPDEST PUSH0 PUSH1 0x40 DUP3 ADD SWAP1 POP PUSH2 0xB21 PUSH0 DUP4 ADD DUP6 PUSH2 0x855 JUMP JUMPDEST PUSH2 0xB2E PUSH1 0x20 DUP4 ADD DUP5 PUSH2 0x82D JUMP JUMPDEST SWAP4 SWAP3 POP POP POP JUMP JUMPDEST PUSH2 0xB3E DUP2 PUSH2 0x87D JUMP JUMPDEST DUP2 EQ PUSH2 0xB48 JUMPI PUSH0 DUP1 REVERT JUMPDEST POP JUMP JUMPDEST PUSH0 DUP2 MLOAD SWAP1 POP PUSH2 0xB59 DUP2 PUSH2 0xB35 JUMP JUMPDEST SWAP3 SWAP2 POP POP JUMP JUMPDEST PUSH0 PUSH1 0x20 DUP3 DUP5 SUB SLT ISZERO PUSH2 0xB74 JUMPI PUSH2 0xB73 PUSH2 0x6FA JUMP JUMPDEST JUMPDEST PUSH0 PUSH2 0xB81 DUP5 DUP3 DUP6 ADD PUSH2 0xB4B JUMP JUMPDEST SWAP2 POP POP SWAP3 SWAP2 POP POP JUMP JUMPDEST PUSH32 0x4E487B7100000000000000000000000000000000000000000000000000000000 PUSH0 MSTORE PUSH1 0x11 PUSH1 0x4 MSTORE PUSH1 0x24 PUSH0 REVERT JUMPDEST PUSH0 PUSH2 0xBC1 DUP3 PUSH2 0x758 JUMP JUMPDEST SWAP2 POP PUSH2 0xBCC DUP4 PUSH2 0x758 JUMP JUMPDEST SWAP3 POP DUP3 DUP3 ADD SWAP1 POP DUP1 DUP3 GT ISZERO PUSH2 0xBE4 JUMPI PUSH2 0xBE3 PUSH2 0xB8A JUMP JUMPDEST JUMPDEST SWAP3 SWAP2 POP POP JUMP JUMPDEST PUSH0 PUSH2 0xBF4 DUP3 PUSH2 0x758 JUMP JUMPDEST SWAP2 POP PUSH2 0xBFF DUP4 PUSH2 0x758 JUMP JUMPDEST SWAP3 POP DUP3 DUP3 SUB SWAP1 POP DUP2 DUP2 GT ISZERO PUSH2 0xC17 JUMPI PUSH2 0xC16 PUSH2 0xB8A JUMP JUMPDEST JUMPDEST SWAP3 SWAP2 POP POP JUMP JUMPDEST PUSH0 PUSH2 0xC27 DUP3 PUSH2 0x758 JUMP JUMPDEST SWAP2 POP PUSH2 0xC32 DUP4 PUSH2 0x758 JUMP JUMPDEST SWAP3 POP DUP3 DUP3 MUL PUSH2 0xC40 DUP2 PUSH2 0x758 JUMP JUMPDEST SWAP2 POP DUP3 DUP3 DIV DUP5 EQ DUP4 ISZERO OR PUSH2 0xC57 JUMPI PUSH2 0xC56 PUSH2 0xB8A JUMP JUMPDEST JUMPDEST POP SWAP3 SWAP2 POP POP JUMP JUMPDEST PUSH32 0x4E487B7100000000000000000000000000000000000000000000000000000000 PUSH0 MSTORE PUSH1 0x12 PUSH1 0x4 MSTORE PUSH1 0x24 PUSH0 REVERT JUMPDEST PUSH0 PUSH2 0xC95 DUP3 PUSH2 0x758 JUMP JUMPDEST SWAP2 POP PUSH2 0xCA0 DUP4 PUSH2 0x758 JUMP JUMPDEST SWAP3 POP DUP3 PUSH2 0xCB0 JUMPI PUSH2 0xCAF PUSH2 0xC5E JUMP JUMPDEST JUMPDEST DUP3 DUP3 DIV SWAP1 POP SWAP3 SWAP2 POP POP JUMP INVALID LOG2 PUSH5 0x6970667358 0x22 SLT KECCAK256 CALLDATASIZE 0xAE SUB RETURNDATACOPY CALLER PUSH21 0xDD365B215AF2538AFFCE62CA05B7924B13162FEAB9 DUP11 0x5E 0x4E JUMPI MOD PUSH5 0x736F6C6343 STOP ADDMOD EQ STOP CALLER "
				},
				"gasEstimates": {
					"creation": {
						"codeDepositCost": "662600",
						"executionCost": "infinite",
						"totalCost": "infinite"
					},
					"external": {
						"calculateVestedAmount(address)": "infinite",
						"createVestingSchedule(address,uint256,uint256,uint256,uint256)": "infinite",
						"releaseTokens(address)": "infinite",
						"tokenAddress()": "2552",
						"vestedTokens(address)": "2802",
						"vestingSchedules(address)": "infinite"
					}
				},
				"methodIdentifiers": {
					"calculateVestedAmount(address)": "ffa06b2a",
					"createVestingSchedule(address,uint256,uint256,uint256,uint256)": "1bf0b08b",
					"releaseTokens(address)": "87b0be48",
					"tokenAddress()": "9d76ea58",
					"vestedTokens(address)": "3dee0397",
					"vestingSchedules(address)": "fdb20ccb"
				}
			},
			"storageLayout": {
				"storage": [
					{
						"astId": 19,
						"contract": "vesting.sol:TokenVesting",
						"label": "vestingSchedules",
						"offset": 0,
						"slot": "0",
						"type": "t_mapping(t_address,t_struct(VestingSchedule)14_storage)"
					},
					{
						"astId": 23,
						"contract": "vesting.sol:TokenVesting",
						"label": "vestedTokens",
						"offset": 0,
						"slot": "1",
						"type": "t_mapping(t_address,t_uint256)"
					},
					{
						"astId": 25,
						"contract": "vesting.sol:TokenVesting",
						"label": "tokenAddress",
						"offset": 0,
						"slot": "2",
						"type": "t_address"
					}
				],
				"types": {
					"t_address": {
						"encoding": "inplace",
						"label": "address",
						"numberOfBytes": "20"
					},
					"t_bool": {
						"encoding": "inplace",
						"label": "bool",
						"numberOfBytes": "1"
					},
					"t_mapping(t_address,t_struct(VestingSchedule)14_storage)": {
						"encoding": "mapping",
						"key": "t_address",
						"label": "mapping(address => struct TokenVesting.VestingSchedule)",
						"numberOfBytes": "32",
						"value": "t_struct(VestingSchedule)14_storage"
					},
					"t_mapping(t_address,t_uint256)": {
						"encoding": "mapping",
						"key": "t_address",
						"label": "mapping(address => uint256)",
						"numberOfBytes": "32",
						"value": "t_uint256"
					},
					"t_struct(VestingSchedule)14_storage": {
						"encoding": "inplace",
						"label": "struct TokenVesting.VestingSchedule",
						"members": [
							{
								"astId": 3,
								"contract": "vesting.sol:TokenVesting",
								"label": "totalTokens",
								"offset": 0,
								"slot": "0",
								"type": "t_uint256"
							},
							{
								"astId": 5,
								"contract": "vesting.sol:TokenVesting",
								"label": "startTime",
								"offset": 0,
								"slot": "1",
								"type": "t_uint256"
							},
							{
								"astId": 7,
								"contract": "vesting.sol:TokenVesting",
								"label": "cliffDuration",
								"offset": 0,
								"slot": "2",
								"type": "t_uint256"
							},
							{
								"astId": 9,
								"contract": "vesting.sol:TokenVesting",
								"label": "vestingDuration",
								"offset": 0,
								"slot": "3",
								"type": "t_uint256"
							},
							{
								"astId": 11,
								"contract": "vesting.sol:TokenVesting",
								"label": "releasedTokens",
								"offset": 0,
								"slot": "4",
								"type": "t_uint256"
							},
							{
								"astId": 13,
								"contract": "vesting.sol:TokenVesting",
								"label": "isActive",
								"offset": 0,
								"slot": "5",
								"type": "t_bool"
							}
						],
						"numberOfBytes": "192"
					},
					"t_uint256": {
						"encoding": "inplace",
						"label": "uint256",
						"numberOfBytes": "32"
					}
				}
			},
			"userdoc": {
				"kind": "user",
				"methods": {},
				"version": 1
			}
		}
	}
}