{
	"Borrow_Lending.sol": {
		"Borrow_Lending": {
			"abi": [
				{
					"inputs": [
						{
							"internalType": "address",
							"name": "",
							"type": "address"
						}
					],
					"name": "BorrowAmount",
					"outputs": [
						{
							"internalType": "uint256",
							"name": "",
							"type": "uint256"
						}
					],
					"stateMutability": "view",
					"type": "function"
				},
				{
					"inputs": [
						{
							"internalType": "address",
							"name": "",
							"type": "address"
						}
					],
					"name": "DepositAmount",
					"outputs": [
						{
							"internalType": "uint256",
							"name": "",
							"type": "uint256"
						}
					],
					"stateMutability": "view",
					"type": "function"
				},
				{
					"inputs": [],
					"name": "TotalRefund",
					"outputs": [
						{
							"internalType": "uint256",
							"name": "PendingRefund",
							"type": "uint256"
						}
					],
					"stateMutability": "view",
					"type": "function"
				},
				{
					"inputs": [
						{
							"internalType": "uint256",
							"name": "bamount",
							"type": "uint256"
						}
					],
					"name": "borrowFund",
					"outputs": [],
					"stateMutability": "payable",
					"type": "function"
				},
				{
					"inputs": [],
					"name": "checkBorrow",
					"outputs": [
						{
							"internalType": "bool",
							"name": "",
							"type": "bool"
						}
					],
					"stateMutability": "view",
					"type": "function"
				},
				{
					"inputs": [
						{
							"internalType": "uint256",
							"name": "_damount",
							"type": "uint256"
						}
					],
					"name": "depositFund",
					"outputs": [],
					"stateMutability": "payable",
					"type": "function"
				},
				{
					"inputs": [],
					"name": "removeLiquidity",
					"outputs": [],
					"stateMutability": "payable",
					"type": "function"
				},
				{
					"inputs": [
						{
							"internalType": "uint256",
							"name": "amount",
							"type": "uint256"
						}
					],
					"name": "returnFund",
					"outputs": [],
					"stateMutability": "payable",
					"type": "function"
				},
				{
					"inputs": [],
					"name": "updatedPool",
					"outputs": [
						{
							"internalType": "uint256",
							"name": "",
							"type": "uint256"
						}
					],
					"stateMutability": "view",
					"type": "function"
				}
			],
			"devdoc": {
				"kind": "dev",
				"methods": {},
				"version": 1
			},
			"evm": {
				"assembly": "    /* \"Borrow_Lending.sol\":350:2861  contract Borrow_Lending... */\n  mstore(0x40, 0x80)\n    /* \"Borrow_Lending.sol\":418:419  0 */\n  0x00\n    /* \"Borrow_Lending.sol\":401:419  uint totalPool = 0 */\n  0x01\n  sstore\n    /* \"Borrow_Lending.sol\":452:453  0 */\n  0x00\n    /* \"Borrow_Lending.sol\":426:453  uint public updatedPool = 0 */\n  0x02\n  sstore\n    /* \"Borrow_Lending.sol\":481:482  0 */\n  0x00\n    /* \"Borrow_Lending.sol\":460:482  uint withIntAmount = 0 */\n  0x03\n  sstore\n    /* \"Borrow_Lending.sol\":511:512  0 */\n  0x00\n    /* \"Borrow_Lending.sol\":489:512  uint withPendingInt = 0 */\n  0x04\n  sstore\n    /* \"Borrow_Lending.sol\":350:2861  contract Borrow_Lending... */\n  callvalue\n  dup1\n  iszero\n  tag_1\n  jumpi\n  0x00\n  dup1\n  revert\ntag_1:\n  pop\n  dataSize(sub_0)\n  dup1\n  dataOffset(sub_0)\n  0x00\n  codecopy\n  0x00\n  return\nstop\n\nsub_0: assembly {\n        /* \"Borrow_Lending.sol\":350:2861  contract Borrow_Lending... */\n      mstore(0x40, 0x80)\n      jumpi(tag_1, lt(calldatasize, 0x04))\n      shr(0xe0, calldataload(0x00))\n      dup1\n      0x64f72b21\n      gt\n      tag_11\n      jumpi\n      dup1\n      0x64f72b21\n      eq\n      tag_6\n      jumpi\n      dup1\n      0x67b9a286\n      eq\n      tag_7\n      jumpi\n      dup1\n      0x981faa9a\n      eq\n      tag_8\n      jumpi\n      dup1\n      0xaec965d7\n      eq\n      tag_9\n      jumpi\n      dup1\n      0xc31b0ea0\n      eq\n      tag_10\n      jumpi\n      jump(tag_1)\n    tag_11:\n      dup1\n      0x02bae403\n      eq\n      tag_2\n      jumpi\n      dup1\n      0x2844f234\n      eq\n      tag_3\n      jumpi\n      dup1\n      0x585e5d20\n      eq\n      tag_4\n      jumpi\n      dup1\n      0x59ae2f1b\n      eq\n      tag_5\n      jumpi\n    tag_1:\n      0x00\n      dup1\n      revert\n        /* \"Borrow_Lending.sol\":1567:1955  function returnFund(uint amount) payable public... */\n    tag_2:\n      tag_12\n      0x04\n      dup1\n      calldatasize\n      sub\n      dup2\n      add\n      swap1\n      tag_13\n      swap2\n      swap1\n      tag_14\n      jump\t// in\n    tag_13:\n      tag_15\n      jump\t// in\n    tag_12:\n      stop\n        /* \"Borrow_Lending.sol\":2642:2858  function checkBorrow() public view returns(bool)... */\n    tag_3:\n      callvalue\n      dup1\n      iszero\n      tag_16\n      jumpi\n      0x00\n      dup1\n      revert\n    tag_16:\n      pop\n      tag_17\n      tag_18\n      jump\t// in\n    tag_17:\n      mload(0x40)\n      tag_19\n      swap2\n      swap1\n      tag_20\n      jump\t// in\n    tag_19:\n      mload(0x40)\n      dup1\n      swap2\n      sub\n      swap1\n      return\n        /* \"Borrow_Lending.sol\":675:964  function depositFund(uint _damount) payable public //Lending... */\n    tag_4:\n      tag_21\n      0x04\n      dup1\n      calldatasize\n      sub\n      dup2\n      add\n      swap1\n      tag_22\n      swap2\n      swap1\n      tag_14\n      jump\t// in\n    tag_22:\n      tag_23\n      jump\t// in\n    tag_21:\n      stop\n        /* \"Borrow_Lending.sol\":2514:2634  function TotalRefund() public view returns(uint PendingRefund)... */\n    tag_5:\n      callvalue\n      dup1\n      iszero\n      tag_24\n      jumpi\n      0x00\n      dup1\n      revert\n    tag_24:\n      pop\n      tag_25\n      tag_26\n      jump\t// in\n    tag_25:\n      mload(0x40)\n      tag_27\n      swap2\n      swap1\n      tag_28\n      jump\t// in\n    tag_27:\n      mload(0x40)\n      dup1\n      swap2\n      sub\n      swap1\n      return\n        /* \"Borrow_Lending.sol\":521:567  mapping (address => uint) public DepositAmount */\n    tag_6:\n      callvalue\n      dup1\n      iszero\n      tag_29\n      jumpi\n      0x00\n      dup1\n      revert\n    tag_29:\n      pop\n      tag_30\n      0x04\n      dup1\n      calldatasize\n      sub\n      dup2\n      add\n      swap1\n      tag_31\n      swap2\n      swap1\n      tag_32\n      jump\t// in\n    tag_31:\n      tag_33\n      jump\t// in\n    tag_30:\n      mload(0x40)\n      tag_34\n      swap2\n      swap1\n      tag_28\n      jump\t// in\n    tag_34:\n      mload(0x40)\n      dup1\n      swap2\n      sub\n      swap1\n      return\n        /* \"Borrow_Lending.sol\":1963:2498  function removeLiquidity() payable public  ... */\n    tag_7:\n      tag_35\n      tag_36\n      jump\t// in\n    tag_35:\n      stop\n        /* \"Borrow_Lending.sol\":426:453  uint public updatedPool = 0 */\n    tag_8:\n      callvalue\n      dup1\n      iszero\n      tag_37\n      jumpi\n      0x00\n      dup1\n      revert\n    tag_37:\n      pop\n      tag_38\n      tag_39\n      jump\t// in\n    tag_38:\n      mload(0x40)\n      tag_40\n      swap2\n      swap1\n      tag_28\n      jump\t// in\n    tag_40:\n      mload(0x40)\n      dup1\n      swap2\n      sub\n      swap1\n      return\n        /* \"Borrow_Lending.sol\":574:619  mapping (address => uint) public BorrowAmount */\n    tag_9:\n      callvalue\n      dup1\n      iszero\n      tag_41\n      jumpi\n      0x00\n      dup1\n      revert\n    tag_41:\n      pop\n      tag_42\n      0x04\n      dup1\n      calldatasize\n      sub\n      dup2\n      add\n      swap1\n      tag_43\n      swap2\n      swap1\n      tag_32\n      jump\t// in\n    tag_43:\n      tag_44\n      jump\t// in\n    tag_42:\n      mload(0x40)\n      tag_45\n      swap2\n      swap1\n      tag_28\n      jump\t// in\n    tag_45:\n      mload(0x40)\n      dup1\n      swap2\n      sub\n      swap1\n      return\n        /* \"Borrow_Lending.sol\":972:1559  function borrowFund(uint bamount) payable public ... */\n    tag_10:\n      tag_46\n      0x04\n      dup1\n      calldatasize\n      sub\n      dup2\n      add\n      swap1\n      tag_47\n      swap2\n      swap1\n      tag_14\n      jump\t// in\n    tag_47:\n      tag_48\n      jump\t// in\n    tag_46:\n      stop\n        /* \"Borrow_Lending.sol\":1567:1955  function returnFund(uint amount) payable public... */\n    tag_15:\n        /* \"Borrow_Lending.sol\":1666:1667  0 */\n      0x00\n        /* \"Borrow_Lending.sol\":1639:1651  withInterest */\n      0x07\n        /* \"Borrow_Lending.sol\":1639:1663  withInterest[msg.sender] */\n      0x00\n        /* \"Borrow_Lending.sol\":1652:1662  msg.sender */\n      caller\n        /* \"Borrow_Lending.sol\":1639:1663  withInterest[msg.sender] */\n      0xffffffffffffffffffffffffffffffffffffffff\n      and\n      0xffffffffffffffffffffffffffffffffffffffff\n      and\n      dup2\n      mstore\n      0x20\n      add\n      swap1\n      dup2\n      mstore\n      0x20\n      add\n      0x00\n      keccak256\n      sload\n        /* \"Borrow_Lending.sol\":1639:1667  withInterest[msg.sender] > 0 */\n      gt\n        /* \"Borrow_Lending.sol\":1631:1698  require(withInterest[msg.sender] > 0, \"You didn't borrow any fund\") */\n      tag_50\n      jumpi\n      mload(0x40)\n      0x08c379a000000000000000000000000000000000000000000000000000000000\n      dup2\n      mstore\n      0x04\n      add\n      tag_51\n      swap1\n      tag_52\n      jump\t// in\n    tag_51:\n      mload(0x40)\n      dup1\n      swap2\n      sub\n      swap1\n      revert\n    tag_50:\n        /* \"Borrow_Lending.sol\":1727:1739  withInterest */\n      0x07\n        /* \"Borrow_Lending.sol\":1727:1751  withInterest[msg.sender] */\n      0x00\n        /* \"Borrow_Lending.sol\":1740:1750  msg.sender */\n      caller\n        /* \"Borrow_Lending.sol\":1727:1751  withInterest[msg.sender] */\n      0xffffffffffffffffffffffffffffffffffffffff\n      and\n      0xffffffffffffffffffffffffffffffffffffffff\n      and\n      dup2\n      mstore\n      0x20\n      add\n      swap1\n      dup2\n      mstore\n      0x20\n      add\n      0x00\n      keccak256\n      sload\n        /* \"Borrow_Lending.sol\":1717:1723  amount */\n      dup2\n        /* \"Borrow_Lending.sol\":1717:1751  amount <= withInterest[msg.sender] */\n      gt\n      iszero\n        /* \"Borrow_Lending.sol\":1709:1783  require(amount <= withInterest[msg.sender],\"you can't refund more amount\") */\n      tag_53\n      jumpi\n      mload(0x40)\n      0x08c379a000000000000000000000000000000000000000000000000000000000\n      dup2\n      mstore\n      0x04\n      add\n      tag_54\n      swap1\n      tag_55\n      jump\t// in\n    tag_54:\n      mload(0x40)\n      dup1\n      swap2\n      sub\n      swap1\n      revert\n    tag_53:\n        /* \"Borrow_Lending.sol\":1895:1901  amount */\n      dup1\n        /* \"Borrow_Lending.sol\":1867:1879  withInterest */\n      0x07\n        /* \"Borrow_Lending.sol\":1867:1891  withInterest[msg.sender] */\n      0x00\n        /* \"Borrow_Lending.sol\":1880:1890  msg.sender */\n      caller\n        /* \"Borrow_Lending.sol\":1867:1891  withInterest[msg.sender] */\n      0xffffffffffffffffffffffffffffffffffffffff\n      and\n      0xffffffffffffffffffffffffffffffffffffffff\n      and\n      dup2\n      mstore\n      0x20\n      add\n      swap1\n      dup2\n      mstore\n      0x20\n      add\n      0x00\n      keccak256\n      0x00\n        /* \"Borrow_Lending.sol\":1867:1901  withInterest[msg.sender] -= amount */\n      dup3\n      dup3\n      sload\n      tag_56\n      swap2\n      swap1\n      tag_57\n      jump\t// in\n    tag_56:\n      swap3\n      pop\n      pop\n      dup2\n      swap1\n      sstore\n      pop\n        /* \"Borrow_Lending.sol\":1941:1947  amount */\n      dup1\n        /* \"Borrow_Lending.sol\":1927:1938  updatedPool */\n      sload(0x02)\n        /* \"Borrow_Lending.sol\":1927:1947  updatedPool + amount */\n      tag_58\n      swap2\n      swap1\n      tag_59\n      jump\t// in\n    tag_58:\n        /* \"Borrow_Lending.sol\":1913:1924  updatedPool */\n      0x02\n        /* \"Borrow_Lending.sol\":1913:1947  updatedPool = updatedPool + amount */\n      dup2\n      swap1\n      sstore\n      pop\n        /* \"Borrow_Lending.sol\":1567:1955  function returnFund(uint amount) payable public... */\n      pop\n      jump\t// out\n        /* \"Borrow_Lending.sol\":2642:2858  function checkBorrow() public view returns(bool)... */\n    tag_18:\n        /* \"Borrow_Lending.sol\":2685:2689  bool */\n      0x00\n        /* \"Borrow_Lending.sol\":2737:2738  0 */\n      dup1\n        /* \"Borrow_Lending.sol\":2710:2722  withInterest */\n      0x07\n        /* \"Borrow_Lending.sol\":2710:2734  withInterest[msg.sender] */\n      0x00\n        /* \"Borrow_Lending.sol\":2723:2733  msg.sender */\n      caller\n        /* \"Borrow_Lending.sol\":2710:2734  withInterest[msg.sender] */\n      0xffffffffffffffffffffffffffffffffffffffff\n      and\n      0xffffffffffffffffffffffffffffffffffffffff\n      and\n      dup2\n      mstore\n      0x20\n      add\n      swap1\n      dup2\n      mstore\n      0x20\n      add\n      0x00\n      keccak256\n      sload\n        /* \"Borrow_Lending.sol\":2710:2738  withInterest[msg.sender] > 0 */\n      gt\n        /* \"Borrow_Lending.sol\":2707:2851  if(withInterest[msg.sender] > 0)... */\n      iszero\n      tag_61\n      jumpi\n        /* \"Borrow_Lending.sol\":2771:2775  true */\n      0x01\n        /* \"Borrow_Lending.sol\":2764:2775  return true */\n      swap1\n      pop\n      jump(tag_60)\n        /* \"Borrow_Lending.sol\":2707:2851  if(withInterest[msg.sender] > 0)... */\n    tag_61:\n        /* \"Borrow_Lending.sol\":2834:2839  false */\n      0x00\n        /* \"Borrow_Lending.sol\":2827:2839  return false */\n      swap1\n      pop\n        /* \"Borrow_Lending.sol\":2642:2858  function checkBorrow() public view returns(bool)... */\n    tag_60:\n      swap1\n      jump\t// out\n        /* \"Borrow_Lending.sol\":675:964  function depositFund(uint _damount) payable public //Lending... */\n    tag_23:\n        /* \"Borrow_Lending.sol\":771:772  0 */\n      0x00\n        /* \"Borrow_Lending.sol\":760:768  _damount */\n      dup2\n        /* \"Borrow_Lending.sol\":760:772  _damount > 0 */\n      gt\n        /* \"Borrow_Lending.sol\":752:804  require(_damount > 0,\"amount mus be greater than 0\") */\n      tag_64\n      jumpi\n      mload(0x40)\n      0x08c379a000000000000000000000000000000000000000000000000000000000\n      dup2\n      mstore\n      0x04\n      add\n      tag_65\n      swap1\n      tag_66\n      jump\t// in\n    tag_65:\n      mload(0x40)\n      dup1\n      swap2\n      sub\n      swap1\n      revert\n    tag_64:\n        /* \"Borrow_Lending.sol\":825:833  _damount */\n      dup1\n        /* \"Borrow_Lending.sol\":815:822  damount */\n      0x00\n        /* \"Borrow_Lending.sol\":815:833  damount = _damount */\n      dup2\n      swap1\n      sstore\n      pop\n        /* \"Borrow_Lending.sol\":857:864  damount */\n      sload(0x00)\n        /* \"Borrow_Lending.sol\":844:853  totalPool */\n      0x01\n      0x00\n        /* \"Borrow_Lending.sol\":844:864  totalPool += damount */\n      dup3\n      dup3\n      sload\n      tag_67\n      swap2\n      swap1\n      tag_59\n      jump\t// in\n    tag_67:\n      swap3\n      pop\n      pop\n      dup2\n      swap1\n      sstore\n      pop\n        /* \"Borrow_Lending.sol\":889:898  totalPool */\n      sload(0x01)\n        /* \"Borrow_Lending.sol\":875:886  updatedPool */\n      0x02\n        /* \"Borrow_Lending.sol\":875:898  updatedPool = totalPool */\n      dup2\n      swap1\n      sstore\n      pop\n        /* \"Borrow_Lending.sol\":938:946  _damount */\n      dup1\n        /* \"Borrow_Lending.sol\":909:922  DepositAmount */\n      0x05\n        /* \"Borrow_Lending.sol\":909:934  DepositAmount[msg.sender] */\n      0x00\n        /* \"Borrow_Lending.sol\":923:933  msg.sender */\n      caller\n        /* \"Borrow_Lending.sol\":909:934  DepositAmount[msg.sender] */\n      0xffffffffffffffffffffffffffffffffffffffff\n      and\n      0xffffffffffffffffffffffffffffffffffffffff\n      and\n      dup2\n      mstore\n      0x20\n      add\n      swap1\n      dup2\n      mstore\n      0x20\n      add\n      0x00\n      keccak256\n      0x00\n        /* \"Borrow_Lending.sol\":909:946  DepositAmount[msg.sender] += _damount */\n      dup3\n      dup3\n      sload\n      tag_68\n      swap2\n      swap1\n      tag_59\n      jump\t// in\n    tag_68:\n      swap3\n      pop\n      pop\n      dup2\n      swap1\n      sstore\n      pop\n        /* \"Borrow_Lending.sol\":675:964  function depositFund(uint _damount) payable public //Lending... */\n      pop\n      jump\t// out\n        /* \"Borrow_Lending.sol\":2514:2634  function TotalRefund() public view returns(uint PendingRefund)... */\n    tag_26:\n        /* \"Borrow_Lending.sol\":2557:2575  uint PendingRefund */\n      0x00\n        /* \"Borrow_Lending.sol\":2601:2613  withInterest */\n      0x07\n        /* \"Borrow_Lending.sol\":2601:2625  withInterest[msg.sender] */\n      0x00\n        /* \"Borrow_Lending.sol\":2614:2624  msg.sender */\n      caller\n        /* \"Borrow_Lending.sol\":2601:2625  withInterest[msg.sender] */\n      0xffffffffffffffffffffffffffffffffffffffff\n      and\n      0xffffffffffffffffffffffffffffffffffffffff\n      and\n      dup2\n      mstore\n      0x20\n      add\n      swap1\n      dup2\n      mstore\n      0x20\n      add\n      0x00\n      keccak256\n      sload\n        /* \"Borrow_Lending.sol\":2593:2626  return (withInterest[msg.sender]) */\n      swap1\n      pop\n        /* \"Borrow_Lending.sol\":2514:2634  function TotalRefund() public view returns(uint PendingRefund)... */\n      swap1\n      jump\t// out\n        /* \"Borrow_Lending.sol\":521:567  mapping (address => uint) public DepositAmount */\n    tag_33:\n      mstore(0x20, 0x05)\n      dup1\n      0x00\n      mstore\n      keccak256(0x00, 0x40)\n      0x00\n      swap2\n      pop\n      swap1\n      pop\n      sload\n      dup2\n      jump\t// out\n        /* \"Borrow_Lending.sol\":1963:2498  function removeLiquidity() payable public  ... */\n    tag_36:\n        /* \"Borrow_Lending.sol\":2059:2060  0 */\n      0x00\n        /* \"Borrow_Lending.sol\":2031:2044  DepositAmount */\n      0x05\n        /* \"Borrow_Lending.sol\":2031:2056  DepositAmount[msg.sender] */\n      0x00\n        /* \"Borrow_Lending.sol\":2045:2055  msg.sender */\n      caller\n        /* \"Borrow_Lending.sol\":2031:2056  DepositAmount[msg.sender] */\n      0xffffffffffffffffffffffffffffffffffffffff\n      and\n      0xffffffffffffffffffffffffffffffffffffffff\n      and\n      dup2\n      mstore\n      0x20\n      add\n      swap1\n      dup2\n      mstore\n      0x20\n      add\n      0x00\n      keccak256\n      sload\n        /* \"Borrow_Lending.sol\":2031:2060  DepositAmount[msg.sender] > 0 */\n      gt\n        /* \"Borrow_Lending.sol\":2023:2091  require(DepositAmount[msg.sender] > 0,\"You didn't deposit any fund\") */\n      tag_71\n      jumpi\n      mload(0x40)\n      0x08c379a000000000000000000000000000000000000000000000000000000000\n      dup2\n      mstore\n      0x04\n      add\n      tag_72\n      swap1\n      tag_73\n      jump\t// in\n    tag_72:\n      mload(0x40)\n      dup1\n      swap2\n      sub\n      swap1\n      revert\n    tag_71:\n        /* \"Borrow_Lending.sol\":2135:2148  DepositAmount */\n      0x05\n        /* \"Borrow_Lending.sol\":2135:2160  DepositAmount[msg.sender] */\n      0x00\n        /* \"Borrow_Lending.sol\":2149:2159  msg.sender */\n      caller\n        /* \"Borrow_Lending.sol\":2135:2160  DepositAmount[msg.sender] */\n      0xffffffffffffffffffffffffffffffffffffffff\n      and\n      0xffffffffffffffffffffffffffffffffffffffff\n      and\n      dup2\n      mstore\n      0x20\n      add\n      swap1\n      dup2\n      mstore\n      0x20\n      add\n      0x00\n      keccak256\n      sload\n        /* \"Borrow_Lending.sol\":2110:2131  address(this).balance */\n      selfbalance\n        /* \"Borrow_Lending.sol\":2110:2160  address(this).balance >= DepositAmount[msg.sender] */\n      lt\n      iszero\n        /* \"Borrow_Lending.sol\":2102:2188  require(address(this).balance >= DepositAmount[msg.sender],\"there is not enough fund\") */\n      tag_74\n      jumpi\n      mload(0x40)\n      0x08c379a000000000000000000000000000000000000000000000000000000000\n      dup2\n      mstore\n      0x04\n      add\n      tag_75\n      swap1\n      tag_76\n      jump\t// in\n    tag_75:\n      mload(0x40)\n      dup1\n      swap2\n      sub\n      swap1\n      revert\n    tag_74:\n        /* \"Borrow_Lending.sol\":2199:2216  uint IntLiquidity */\n      0x00\n        /* \"Borrow_Lending.sol\":2255:2258  100 */\n      0x64\n        /* \"Borrow_Lending.sol\":2249:2250  8 */\n      0x08\n        /* \"Borrow_Lending.sol\":2221:2234  DepositAmount */\n      0x05\n        /* \"Borrow_Lending.sol\":2221:2246  DepositAmount[msg.sender] */\n      0x00\n        /* \"Borrow_Lending.sol\":2235:2245  msg.sender */\n      caller\n        /* \"Borrow_Lending.sol\":2221:2246  DepositAmount[msg.sender] */\n      0xffffffffffffffffffffffffffffffffffffffff\n      and\n      0xffffffffffffffffffffffffffffffffffffffff\n      and\n      dup2\n      mstore\n      0x20\n      add\n      swap1\n      dup2\n      mstore\n      0x20\n      add\n      0x00\n      keccak256\n      sload\n        /* \"Borrow_Lending.sol\":2221:2250  DepositAmount[msg.sender] * 8 */\n      tag_77\n      swap2\n      swap1\n      tag_78\n      jump\t// in\n    tag_77:\n        /* \"Borrow_Lending.sol\":2219:2258  ( DepositAmount[msg.sender] * 8 ) / 100 */\n      tag_79\n      swap2\n      swap1\n      tag_80\n      jump\t// in\n    tag_79:\n        /* \"Borrow_Lending.sol\":2199:2258  uint IntLiquidity = ( DepositAmount[msg.sender] * 8 ) / 100 */\n      swap1\n      pop\n        /* \"Borrow_Lending.sol\":2269:2290  uint withIntLiquidity */\n      0x00\n        /* \"Borrow_Lending.sol\":2308:2321  DepositAmount */\n      0x05\n        /* \"Borrow_Lending.sol\":2308:2333  DepositAmount[msg.sender] */\n      0x00\n        /* \"Borrow_Lending.sol\":2322:2332  msg.sender */\n      caller\n        /* \"Borrow_Lending.sol\":2308:2333  DepositAmount[msg.sender] */\n      0xffffffffffffffffffffffffffffffffffffffff\n      and\n      0xffffffffffffffffffffffffffffffffffffffff\n      and\n      dup2\n      mstore\n      0x20\n      add\n      swap1\n      dup2\n      mstore\n      0x20\n      add\n      0x00\n      keccak256\n      sload\n        /* \"Borrow_Lending.sol\":2293:2305  IntLiquidity */\n      dup3\n        /* \"Borrow_Lending.sol\":2293:2333  IntLiquidity + DepositAmount[msg.sender] */\n      tag_81\n      swap2\n      swap1\n      tag_59\n      jump\t// in\n    tag_81:\n        /* \"Borrow_Lending.sol\":2269:2333  uint withIntLiquidity = IntLiquidity + DepositAmount[msg.sender] */\n      swap1\n      pop\n        /* \"Borrow_Lending.sol\":2352:2362  msg.sender */\n      caller\n        /* \"Borrow_Lending.sol\":2344:2372  payable(msg.sender).transfer */\n      0xffffffffffffffffffffffffffffffffffffffff\n      and\n        /* \"Borrow_Lending.sol\":2344:2390  payable(msg.sender).transfer(withIntLiquidity) */\n      0x08fc\n        /* \"Borrow_Lending.sol\":2373:2389  withIntLiquidity */\n      dup3\n        /* \"Borrow_Lending.sol\":2344:2390  payable(msg.sender).transfer(withIntLiquidity) */\n      swap1\n      dup2\n      iszero\n      mul\n      swap1\n      mload(0x40)\n      0x00\n      mload(0x40)\n      dup1\n      dup4\n      sub\n      dup2\n      dup6\n      dup9\n      dup9\n      call\n      swap4\n      pop\n      pop\n      pop\n      pop\n      iszero\n      dup1\n      iszero\n      tag_83\n      jumpi\n      returndatasize\n      0x00\n      dup1\n      returndatacopy\n      revert(0x00, returndatasize)\n    tag_83:\n      pop\n        /* \"Borrow_Lending.sol\":2416:2429  DepositAmount */\n      0x05\n        /* \"Borrow_Lending.sol\":2416:2441  DepositAmount[msg.sender] */\n      0x00\n        /* \"Borrow_Lending.sol\":2430:2440  msg.sender */\n      caller\n        /* \"Borrow_Lending.sol\":2416:2441  DepositAmount[msg.sender] */\n      0xffffffffffffffffffffffffffffffffffffffff\n      and\n      0xffffffffffffffffffffffffffffffffffffffff\n      and\n      dup2\n      mstore\n      0x20\n      add\n      swap1\n      dup2\n      mstore\n      0x20\n      add\n      0x00\n      keccak256\n      sload\n        /* \"Borrow_Lending.sol\":2401:2412  updatedPool */\n      0x02\n      0x00\n        /* \"Borrow_Lending.sol\":2401:2441  updatedPool -= DepositAmount[msg.sender] */\n      dup3\n      dup3\n      sload\n      tag_84\n      swap2\n      swap1\n      tag_57\n      jump\t// in\n    tag_84:\n      swap3\n      pop\n      pop\n      dup2\n      swap1\n      sstore\n      pop\n        /* \"Borrow_Lending.sol\":2465:2478  DepositAmount */\n      0x05\n        /* \"Borrow_Lending.sol\":2465:2490  DepositAmount[msg.sender] */\n      0x00\n        /* \"Borrow_Lending.sol\":2479:2489  msg.sender */\n      caller\n        /* \"Borrow_Lending.sol\":2465:2490  DepositAmount[msg.sender] */\n      0xffffffffffffffffffffffffffffffffffffffff\n      and\n      0xffffffffffffffffffffffffffffffffffffffff\n      and\n      dup2\n      mstore\n      0x20\n      add\n      swap1\n      dup2\n      mstore\n      0x20\n      add\n      0x00\n      keccak256\n      sload\n        /* \"Borrow_Lending.sol\":2452:2461  totalPool */\n      0x01\n      0x00\n        /* \"Borrow_Lending.sol\":2452:2490  totalPool -= DepositAmount[msg.sender] */\n      dup3\n      dup3\n      sload\n      tag_85\n      swap2\n      swap1\n      tag_57\n      jump\t// in\n    tag_85:\n      swap3\n      pop\n      pop\n      dup2\n      swap1\n      sstore\n      pop\n        /* \"Borrow_Lending.sol\":2012:2498  {... */\n      pop\n      pop\n        /* \"Borrow_Lending.sol\":1963:2498  function removeLiquidity() payable public  ... */\n      jump\t// out\n        /* \"Borrow_Lending.sol\":426:453  uint public updatedPool = 0 */\n    tag_39:\n      sload(0x02)\n      dup2\n      jump\t// out\n        /* \"Borrow_Lending.sol\":574:619  mapping (address => uint) public BorrowAmount */\n    tag_44:\n      mstore(0x20, 0x06)\n      dup1\n      0x00\n      mstore\n      keccak256(0x00, 0x40)\n      0x00\n      swap2\n      pop\n      swap1\n      pop\n      sload\n      dup2\n      jump\t// out\n        /* \"Borrow_Lending.sol\":972:1559  function borrowFund(uint bamount) payable public ... */\n    tag_48:\n        /* \"Borrow_Lending.sol\":1057:1064  damount */\n      sload(0x00)\n        /* \"Borrow_Lending.sol\":1046:1053  bamount */\n      dup2\n        /* \"Borrow_Lending.sol\":1046:1064  bamount <= damount */\n      gt\n      iszero\n        /* \"Borrow_Lending.sol\":1038:1105  require(bamount <= damount, \"you can't borrow more than deposited\") */\n      tag_87\n      jumpi\n      mload(0x40)\n      0x08c379a000000000000000000000000000000000000000000000000000000000\n      dup2\n      mstore\n      0x04\n      add\n      tag_88\n      swap1\n      tag_89\n      jump\t// in\n    tag_88:\n      mload(0x40)\n      dup1\n      swap2\n      sub\n      swap1\n      revert\n    tag_87:\n        /* \"Borrow_Lending.sol\":1138:1139  0 */\n      0x00\n        /* \"Borrow_Lending.sol\":1124:1135  updatedPool */\n      sload(0x02)\n        /* \"Borrow_Lending.sol\":1124:1139  updatedPool > 0 */\n      gt\n        /* \"Borrow_Lending.sol\":1116:1176  require(updatedPool > 0,\"sorry there is no fund for borrow\") */\n      tag_90\n      jumpi\n      mload(0x40)\n      0x08c379a000000000000000000000000000000000000000000000000000000000\n      dup2\n      mstore\n      0x04\n      add\n      tag_91\n      swap1\n      tag_92\n      jump\t// in\n    tag_91:\n      mload(0x40)\n      dup1\n      swap2\n      sub\n      swap1\n      revert\n    tag_90:\n        /* \"Borrow_Lending.sol\":1215:1222  bamount */\n      dup1\n        /* \"Borrow_Lending.sol\":1187:1199  BorrowAmount */\n      0x06\n        /* \"Borrow_Lending.sol\":1187:1211  BorrowAmount[msg.sender] */\n      0x00\n        /* \"Borrow_Lending.sol\":1200:1210  msg.sender */\n      caller\n        /* \"Borrow_Lending.sol\":1187:1211  BorrowAmount[msg.sender] */\n      0xffffffffffffffffffffffffffffffffffffffff\n      and\n      0xffffffffffffffffffffffffffffffffffffffff\n      and\n      dup2\n      mstore\n      0x20\n      add\n      swap1\n      dup2\n      mstore\n      0x20\n      add\n      0x00\n      keccak256\n      0x00\n        /* \"Borrow_Lending.sol\":1187:1222  BorrowAmount[msg.sender] += bamount */\n      dup3\n      dup3\n      sload\n      tag_93\n      swap2\n      swap1\n      tag_59\n      jump\t// in\n    tag_93:\n      swap3\n      pop\n      pop\n      dup2\n      swap1\n      sstore\n      pop\n        /* \"Borrow_Lending.sol\":1241:1251  msg.sender */\n      caller\n        /* \"Borrow_Lending.sol\":1233:1261  payable(msg.sender).transfer */\n      0xffffffffffffffffffffffffffffffffffffffff\n      and\n        /* \"Borrow_Lending.sol\":1233:1270  payable(msg.sender).transfer(bamount) */\n      0x08fc\n        /* \"Borrow_Lending.sol\":1262:1269  bamount */\n      dup3\n        /* \"Borrow_Lending.sol\":1233:1270  payable(msg.sender).transfer(bamount) */\n      swap1\n      dup2\n      iszero\n      mul\n      swap1\n      mload(0x40)\n      0x00\n      mload(0x40)\n      dup1\n      dup4\n      sub\n      dup2\n      dup6\n      dup9\n      dup9\n      call\n      swap4\n      pop\n      pop\n      pop\n      pop\n      iszero\n      dup1\n      iszero\n      tag_95\n      jumpi\n      returndatasize\n      0x00\n      dup1\n      returndatacopy\n      revert(0x00, returndatasize)\n    tag_95:\n      pop\n        /* \"Borrow_Lending.sol\":1298:1305  bamount */\n      dup1\n        /* \"Borrow_Lending.sol\":1283:1294  updatedPool */\n      0x02\n      0x00\n        /* \"Borrow_Lending.sol\":1283:1305  updatedPool -= bamount */\n      dup3\n      dup3\n      sload\n      tag_96\n      swap2\n      swap1\n      tag_57\n      jump\t// in\n    tag_96:\n      swap3\n      pop\n      pop\n      dup2\n      swap1\n      sstore\n      pop\n        /* \"Borrow_Lending.sol\":1318:1337  uint interestAmount */\n      0x00\n        /* \"Borrow_Lending.sol\":1376:1379  100 */\n      0x64\n        /* \"Borrow_Lending.sol\":1369:1371  10 */\n      0x0a\n        /* \"Borrow_Lending.sol\":1342:1354  BorrowAmount */\n      0x06\n        /* \"Borrow_Lending.sol\":1342:1366  BorrowAmount[msg.sender] */\n      0x00\n        /* \"Borrow_Lending.sol\":1355:1365  msg.sender */\n      caller\n        /* \"Borrow_Lending.sol\":1342:1366  BorrowAmount[msg.sender] */\n      0xffffffffffffffffffffffffffffffffffffffff\n      and\n      0xffffffffffffffffffffffffffffffffffffffff\n      and\n      dup2\n      mstore\n      0x20\n      add\n      swap1\n      dup2\n      mstore\n      0x20\n      add\n      0x00\n      keccak256\n      sload\n        /* \"Borrow_Lending.sol\":1342:1371  BorrowAmount[msg.sender] * 10 */\n      tag_97\n      swap2\n      swap1\n      tag_78\n      jump\t// in\n    tag_97:\n        /* \"Borrow_Lending.sol\":1340:1379  ( BorrowAmount[msg.sender] * 10 ) / 100 */\n      tag_98\n      swap2\n      swap1\n      tag_80\n      jump\t// in\n    tag_98:\n        /* \"Borrow_Lending.sol\":1318:1379  uint interestAmount = ( BorrowAmount[msg.sender] * 10 ) / 100 */\n      swap1\n      pop\n        /* \"Borrow_Lending.sol\":1433:1447  interestAmount */\n      dup1\n        /* \"Borrow_Lending.sol\":1406:1418  BorrowAmount */\n      0x06\n        /* \"Borrow_Lending.sol\":1406:1430  BorrowAmount[msg.sender] */\n      0x00\n        /* \"Borrow_Lending.sol\":1419:1429  msg.sender */\n      caller\n        /* \"Borrow_Lending.sol\":1406:1430  BorrowAmount[msg.sender] */\n      0xffffffffffffffffffffffffffffffffffffffff\n      and\n      0xffffffffffffffffffffffffffffffffffffffff\n      and\n      dup2\n      mstore\n      0x20\n      add\n      swap1\n      dup2\n      mstore\n      0x20\n      add\n      0x00\n      keccak256\n      sload\n        /* \"Borrow_Lending.sol\":1406:1447  BorrowAmount[msg.sender] + interestAmount */\n      tag_99\n      swap2\n      swap1\n      tag_59\n      jump\t// in\n    tag_99:\n        /* \"Borrow_Lending.sol\":1390:1403  withIntAmount */\n      0x03\n        /* \"Borrow_Lending.sol\":1390:1447  withIntAmount = BorrowAmount[msg.sender] + interestAmount */\n      dup2\n      swap1\n      sstore\n      pop\n        /* \"Borrow_Lending.sol\":1486:1499  withIntAmount */\n      sload(0x03)\n        /* \"Borrow_Lending.sol\":1458:1470  withInterest */\n      0x07\n        /* \"Borrow_Lending.sol\":1458:1482  withInterest[msg.sender] */\n      0x00\n        /* \"Borrow_Lending.sol\":1471:1481  msg.sender */\n      caller\n        /* \"Borrow_Lending.sol\":1458:1482  withInterest[msg.sender] */\n      0xffffffffffffffffffffffffffffffffffffffff\n      and\n      0xffffffffffffffffffffffffffffffffffffffff\n      and\n      dup2\n      mstore\n      0x20\n      add\n      swap1\n      dup2\n      mstore\n      0x20\n      add\n      0x00\n      keccak256\n      0x00\n        /* \"Borrow_Lending.sol\":1458:1499  withInterest[msg.sender] += withIntAmount */\n      dup3\n      dup3\n      sload\n      tag_100\n      swap2\n      swap1\n      tag_59\n      jump\t// in\n    tag_100:\n      swap3\n      pop\n      pop\n      dup2\n      swap1\n      sstore\n      pop\n        /* \"Borrow_Lending.sol\":1527:1539  withInterest */\n      0x07\n        /* \"Borrow_Lending.sol\":1527:1551  withInterest[msg.sender] */\n      0x00\n        /* \"Borrow_Lending.sol\":1540:1550  msg.sender */\n      caller\n        /* \"Borrow_Lending.sol\":1527:1551  withInterest[msg.sender] */\n      0xffffffffffffffffffffffffffffffffffffffff\n      and\n      0xffffffffffffffffffffffffffffffffffffffff\n      and\n      dup2\n      mstore\n      0x20\n      add\n      swap1\n      dup2\n      mstore\n      0x20\n      add\n      0x00\n      keccak256\n      sload\n        /* \"Borrow_Lending.sol\":1510:1524  withPendingInt */\n      0x04\n        /* \"Borrow_Lending.sol\":1510:1551  withPendingInt = withInterest[msg.sender] */\n      dup2\n      swap1\n      sstore\n      pop\n        /* \"Borrow_Lending.sol\":1027:1559  {... */\n      pop\n        /* \"Borrow_Lending.sol\":972:1559  function borrowFund(uint bamount) payable public ... */\n      pop\n      jump\t// out\n        /* \"#utility.yul\":88:205   */\n    tag_102:\n        /* \"#utility.yul\":197:198   */\n      0x00\n        /* \"#utility.yul\":194:195   */\n      dup1\n        /* \"#utility.yul\":187:199   */\n      revert\n        /* \"#utility.yul\":334:411   */\n    tag_104:\n        /* \"#utility.yul\":371:378   */\n      0x00\n        /* \"#utility.yul\":400:405   */\n      dup2\n        /* \"#utility.yul\":389:405   */\n      swap1\n      pop\n        /* \"#utility.yul\":334:411   */\n      swap2\n      swap1\n      pop\n      jump\t// out\n        /* \"#utility.yul\":417:539   */\n    tag_105:\n        /* \"#utility.yul\":490:514   */\n      tag_137\n        /* \"#utility.yul\":508:513   */\n      dup2\n        /* \"#utility.yul\":490:514   */\n      tag_104\n      jump\t// in\n    tag_137:\n        /* \"#utility.yul\":483:488   */\n      dup2\n        /* \"#utility.yul\":480:515   */\n      eq\n        /* \"#utility.yul\":470:533   */\n      tag_138\n      jumpi\n        /* \"#utility.yul\":529:530   */\n      0x00\n        /* \"#utility.yul\":526:527   */\n      dup1\n        /* \"#utility.yul\":519:531   */\n      revert\n        /* \"#utility.yul\":470:533   */\n    tag_138:\n        /* \"#utility.yul\":417:539   */\n      pop\n      jump\t// out\n        /* \"#utility.yul\":545:684   */\n    tag_106:\n        /* \"#utility.yul\":591:596   */\n      0x00\n        /* \"#utility.yul\":629:635   */\n      dup2\n        /* \"#utility.yul\":616:636   */\n      calldataload\n        /* \"#utility.yul\":607:636   */\n      swap1\n      pop\n        /* \"#utility.yul\":645:678   */\n      tag_140\n        /* \"#utility.yul\":672:677   */\n      dup2\n        /* \"#utility.yul\":645:678   */\n      tag_105\n      jump\t// in\n    tag_140:\n        /* \"#utility.yul\":545:684   */\n      swap3\n      swap2\n      pop\n      pop\n      jump\t// out\n        /* \"#utility.yul\":690:1019   */\n    tag_14:\n        /* \"#utility.yul\":749:755   */\n      0x00\n        /* \"#utility.yul\":798:800   */\n      0x20\n        /* \"#utility.yul\":786:795   */\n      dup3\n        /* \"#utility.yul\":777:784   */\n      dup5\n        /* \"#utility.yul\":773:796   */\n      sub\n        /* \"#utility.yul\":769:801   */\n      slt\n        /* \"#utility.yul\":766:885   */\n      iszero\n      tag_142\n      jumpi\n        /* \"#utility.yul\":804:883   */\n      tag_143\n      tag_102\n      jump\t// in\n    tag_143:\n        /* \"#utility.yul\":766:885   */\n    tag_142:\n        /* \"#utility.yul\":924:925   */\n      0x00\n        /* \"#utility.yul\":949:1002   */\n      tag_144\n        /* \"#utility.yul\":994:1001   */\n      dup5\n        /* \"#utility.yul\":985:991   */\n      dup3\n        /* \"#utility.yul\":974:983   */\n      dup6\n        /* \"#utility.yul\":970:992   */\n      add\n        /* \"#utility.yul\":949:1002   */\n      tag_106\n      jump\t// in\n    tag_144:\n        /* \"#utility.yul\":939:1002   */\n      swap2\n      pop\n        /* \"#utility.yul\":895:1012   */\n      pop\n        /* \"#utility.yul\":690:1019   */\n      swap3\n      swap2\n      pop\n      pop\n      jump\t// out\n        /* \"#utility.yul\":1025:1115   */\n    tag_107:\n        /* \"#utility.yul\":1059:1066   */\n      0x00\n        /* \"#utility.yul\":1102:1107   */\n      dup2\n        /* \"#utility.yul\":1095:1108   */\n      iszero\n        /* \"#utility.yul\":1088:1109   */\n      iszero\n        /* \"#utility.yul\":1077:1109   */\n      swap1\n      pop\n        /* \"#utility.yul\":1025:1115   */\n      swap2\n      swap1\n      pop\n      jump\t// out\n        /* \"#utility.yul\":1121:1230   */\n    tag_108:\n        /* \"#utility.yul\":1202:1223   */\n      tag_147\n        /* \"#utility.yul\":1217:1222   */\n      dup2\n        /* \"#utility.yul\":1202:1223   */\n      tag_107\n      jump\t// in\n    tag_147:\n        /* \"#utility.yul\":1197:1200   */\n      dup3\n        /* \"#utility.yul\":1190:1224   */\n      mstore\n        /* \"#utility.yul\":1121:1230   */\n      pop\n      pop\n      jump\t// out\n        /* \"#utility.yul\":1236:1446   */\n    tag_20:\n        /* \"#utility.yul\":1323:1327   */\n      0x00\n        /* \"#utility.yul\":1361:1363   */\n      0x20\n        /* \"#utility.yul\":1350:1359   */\n      dup3\n        /* \"#utility.yul\":1346:1364   */\n      add\n        /* \"#utility.yul\":1338:1364   */\n      swap1\n      pop\n        /* \"#utility.yul\":1374:1439   */\n      tag_149\n        /* \"#utility.yul\":1436:1437   */\n      0x00\n        /* \"#utility.yul\":1425:1434   */\n      dup4\n        /* \"#utility.yul\":1421:1438   */\n      add\n        /* \"#utility.yul\":1412:1418   */\n      dup5\n        /* \"#utility.yul\":1374:1439   */\n      tag_108\n      jump\t// in\n    tag_149:\n        /* \"#utility.yul\":1236:1446   */\n      swap3\n      swap2\n      pop\n      pop\n      jump\t// out\n        /* \"#utility.yul\":1452:1570   */\n    tag_109:\n        /* \"#utility.yul\":1539:1563   */\n      tag_151\n        /* \"#utility.yul\":1557:1562   */\n      dup2\n        /* \"#utility.yul\":1539:1563   */\n      tag_104\n      jump\t// in\n    tag_151:\n        /* \"#utility.yul\":1534:1537   */\n      dup3\n        /* \"#utility.yul\":1527:1564   */\n      mstore\n        /* \"#utility.yul\":1452:1570   */\n      pop\n      pop\n      jump\t// out\n        /* \"#utility.yul\":1576:1798   */\n    tag_28:\n        /* \"#utility.yul\":1669:1673   */\n      0x00\n        /* \"#utility.yul\":1707:1709   */\n      0x20\n        /* \"#utility.yul\":1696:1705   */\n      dup3\n        /* \"#utility.yul\":1692:1710   */\n      add\n        /* \"#utility.yul\":1684:1710   */\n      swap1\n      pop\n        /* \"#utility.yul\":1720:1791   */\n      tag_153\n        /* \"#utility.yul\":1788:1789   */\n      0x00\n        /* \"#utility.yul\":1777:1786   */\n      dup4\n        /* \"#utility.yul\":1773:1790   */\n      add\n        /* \"#utility.yul\":1764:1770   */\n      dup5\n        /* \"#utility.yul\":1720:1791   */\n      tag_109\n      jump\t// in\n    tag_153:\n        /* \"#utility.yul\":1576:1798   */\n      swap3\n      swap2\n      pop\n      pop\n      jump\t// out\n        /* \"#utility.yul\":1804:1930   */\n    tag_110:\n        /* \"#utility.yul\":1841:1848   */\n      0x00\n        /* \"#utility.yul\":1881:1923   */\n      0xffffffffffffffffffffffffffffffffffffffff\n        /* \"#utility.yul\":1874:1879   */\n      dup3\n        /* \"#utility.yul\":1870:1924   */\n      and\n        /* \"#utility.yul\":1859:1924   */\n      swap1\n      pop\n        /* \"#utility.yul\":1804:1930   */\n      swap2\n      swap1\n      pop\n      jump\t// out\n        /* \"#utility.yul\":1936:2032   */\n    tag_111:\n        /* \"#utility.yul\":1973:1980   */\n      0x00\n        /* \"#utility.yul\":2002:2026   */\n      tag_156\n        /* \"#utility.yul\":2020:2025   */\n      dup3\n        /* \"#utility.yul\":2002:2026   */\n      tag_110\n      jump\t// in\n    tag_156:\n        /* \"#utility.yul\":1991:2026   */\n      swap1\n      pop\n        /* \"#utility.yul\":1936:2032   */\n      swap2\n      swap1\n      pop\n      jump\t// out\n        /* \"#utility.yul\":2038:2160   */\n    tag_112:\n        /* \"#utility.yul\":2111:2135   */\n      tag_158\n        /* \"#utility.yul\":2129:2134   */\n      dup2\n        /* \"#utility.yul\":2111:2135   */\n      tag_111\n      jump\t// in\n    tag_158:\n        /* \"#utility.yul\":2104:2109   */\n      dup2\n        /* \"#utility.yul\":2101:2136   */\n      eq\n        /* \"#utility.yul\":2091:2154   */\n      tag_159\n      jumpi\n        /* \"#utility.yul\":2150:2151   */\n      0x00\n        /* \"#utility.yul\":2147:2148   */\n      dup1\n        /* \"#utility.yul\":2140:2152   */\n      revert\n        /* \"#utility.yul\":2091:2154   */\n    tag_159:\n        /* \"#utility.yul\":2038:2160   */\n      pop\n      jump\t// out\n        /* \"#utility.yul\":2166:2305   */\n    tag_113:\n        /* \"#utility.yul\":2212:2217   */\n      0x00\n        /* \"#utility.yul\":2250:2256   */\n      dup2\n        /* \"#utility.yul\":2237:2257   */\n      calldataload\n        /* \"#utility.yul\":2228:2257   */\n      swap1\n      pop\n        /* \"#utility.yul\":2266:2299   */\n      tag_161\n        /* \"#utility.yul\":2293:2298   */\n      dup2\n        /* \"#utility.yul\":2266:2299   */\n      tag_112\n      jump\t// in\n    tag_161:\n        /* \"#utility.yul\":2166:2305   */\n      swap3\n      swap2\n      pop\n      pop\n      jump\t// out\n        /* \"#utility.yul\":2311:2640   */\n    tag_32:\n        /* \"#utility.yul\":2370:2376   */\n      0x00\n        /* \"#utility.yul\":2419:2421   */\n      0x20\n        /* \"#utility.yul\":2407:2416   */\n      dup3\n        /* \"#utility.yul\":2398:2405   */\n      dup5\n        /* \"#utility.yul\":2394:2417   */\n      sub\n        /* \"#utility.yul\":2390:2422   */\n      slt\n        /* \"#utility.yul\":2387:2506   */\n      iszero\n      tag_163\n      jumpi\n        /* \"#utility.yul\":2425:2504   */\n      tag_164\n      tag_102\n      jump\t// in\n    tag_164:\n        /* \"#utility.yul\":2387:2506   */\n    tag_163:\n        /* \"#utility.yul\":2545:2546   */\n      0x00\n        /* \"#utility.yul\":2570:2623   */\n      tag_165\n        /* \"#utility.yul\":2615:2622   */\n      dup5\n        /* \"#utility.yul\":2606:2612   */\n      dup3\n        /* \"#utility.yul\":2595:2604   */\n      dup6\n        /* \"#utility.yul\":2591:2613   */\n      add\n        /* \"#utility.yul\":2570:2623   */\n      tag_113\n      jump\t// in\n    tag_165:\n        /* \"#utility.yul\":2560:2623   */\n      swap2\n      pop\n        /* \"#utility.yul\":2516:2633   */\n      pop\n        /* \"#utility.yul\":2311:2640   */\n      swap3\n      swap2\n      pop\n      pop\n      jump\t// out\n        /* \"#utility.yul\":2646:2815   */\n    tag_114:\n        /* \"#utility.yul\":2730:2741   */\n      0x00\n        /* \"#utility.yul\":2764:2770   */\n      dup3\n        /* \"#utility.yul\":2759:2762   */\n      dup3\n        /* \"#utility.yul\":2752:2771   */\n      mstore\n        /* \"#utility.yul\":2804:2808   */\n      0x20\n        /* \"#utility.yul\":2799:2802   */\n      dup3\n        /* \"#utility.yul\":2795:2809   */\n      add\n        /* \"#utility.yul\":2780:2809   */\n      swap1\n      pop\n        /* \"#utility.yul\":2646:2815   */\n      swap3\n      swap2\n      pop\n      pop\n      jump\t// out\n        /* \"#utility.yul\":2821:2997   */\n    tag_115:\n        /* \"#utility.yul\":2961:2989   */\n      0x596f75206469646e277420626f72726f7720616e792066756e64000000000000\n        /* \"#utility.yul\":2957:2958   */\n      0x00\n        /* \"#utility.yul\":2949:2955   */\n      dup3\n        /* \"#utility.yul\":2945:2959   */\n      add\n        /* \"#utility.yul\":2938:2990   */\n      mstore\n        /* \"#utility.yul\":2821:2997   */\n      pop\n      jump\t// out\n        /* \"#utility.yul\":3003:3369   */\n    tag_116:\n        /* \"#utility.yul\":3145:3148   */\n      0x00\n        /* \"#utility.yul\":3166:3233   */\n      tag_169\n        /* \"#utility.yul\":3230:3232   */\n      0x1a\n        /* \"#utility.yul\":3225:3228   */\n      dup4\n        /* \"#utility.yul\":3166:3233   */\n      tag_114\n      jump\t// in\n    tag_169:\n        /* \"#utility.yul\":3159:3233   */\n      swap2\n      pop\n        /* \"#utility.yul\":3242:3335   */\n      tag_170\n        /* \"#utility.yul\":3331:3334   */\n      dup3\n        /* \"#utility.yul\":3242:3335   */\n      tag_115\n      jump\t// in\n    tag_170:\n        /* \"#utility.yul\":3360:3362   */\n      0x20\n        /* \"#utility.yul\":3355:3358   */\n      dup3\n        /* \"#utility.yul\":3351:3363   */\n      add\n        /* \"#utility.yul\":3344:3363   */\n      swap1\n      pop\n        /* \"#utility.yul\":3003:3369   */\n      swap2\n      swap1\n      pop\n      jump\t// out\n        /* \"#utility.yul\":3375:3794   */\n    tag_52:\n        /* \"#utility.yul\":3541:3545   */\n      0x00\n        /* \"#utility.yul\":3579:3581   */\n      0x20\n        /* \"#utility.yul\":3568:3577   */\n      dup3\n        /* \"#utility.yul\":3564:3582   */\n      add\n        /* \"#utility.yul\":3556:3582   */\n      swap1\n      pop\n        /* \"#utility.yul\":3628:3637   */\n      dup2\n        /* \"#utility.yul\":3622:3626   */\n      dup2\n        /* \"#utility.yul\":3618:3638   */\n      sub\n        /* \"#utility.yul\":3614:3615   */\n      0x00\n        /* \"#utility.yul\":3603:3612   */\n      dup4\n        /* \"#utility.yul\":3599:3616   */\n      add\n        /* \"#utility.yul\":3592:3639   */\n      mstore\n        /* \"#utility.yul\":3656:3787   */\n      tag_172\n        /* \"#utility.yul\":3782:3786   */\n      dup2\n        /* \"#utility.yul\":3656:3787   */\n      tag_116\n      jump\t// in\n    tag_172:\n        /* \"#utility.yul\":3648:3787   */\n      swap1\n      pop\n        /* \"#utility.yul\":3375:3794   */\n      swap2\n      swap1\n      pop\n      jump\t// out\n        /* \"#utility.yul\":3800:3978   */\n    tag_117:\n        /* \"#utility.yul\":3940:3970   */\n      0x796f752063616e277420726566756e64206d6f726520616d6f756e7400000000\n        /* \"#utility.yul\":3936:3937   */\n      0x00\n        /* \"#utility.yul\":3928:3934   */\n      dup3\n        /* \"#utility.yul\":3924:3938   */\n      add\n        /* \"#utility.yul\":3917:3971   */\n      mstore\n        /* \"#utility.yul\":3800:3978   */\n      pop\n      jump\t// out\n        /* \"#utility.yul\":3984:4350   */\n    tag_118:\n        /* \"#utility.yul\":4126:4129   */\n      0x00\n        /* \"#utility.yul\":4147:4214   */\n      tag_175\n        /* \"#utility.yul\":4211:4213   */\n      0x1c\n        /* \"#utility.yul\":4206:4209   */\n      dup4\n        /* \"#utility.yul\":4147:4214   */\n      tag_114\n      jump\t// in\n    tag_175:\n        /* \"#utility.yul\":4140:4214   */\n      swap2\n      pop\n        /* \"#utility.yul\":4223:4316   */\n      tag_176\n        /* \"#utility.yul\":4312:4315   */\n      dup3\n        /* \"#utility.yul\":4223:4316   */\n      tag_117\n      jump\t// in\n    tag_176:\n        /* \"#utility.yul\":4341:4343   */\n      0x20\n        /* \"#utility.yul\":4336:4339   */\n      dup3\n        /* \"#utility.yul\":4332:4344   */\n      add\n        /* \"#utility.yul\":4325:4344   */\n      swap1\n      pop\n        /* \"#utility.yul\":3984:4350   */\n      swap2\n      swap1\n      pop\n      jump\t// out\n        /* \"#utility.yul\":4356:4775   */\n    tag_55:\n        /* \"#utility.yul\":4522:4526   */\n      0x00\n        /* \"#utility.yul\":4560:4562   */\n      0x20\n        /* \"#utility.yul\":4549:4558   */\n      dup3\n        /* \"#utility.yul\":4545:4563   */\n      add\n        /* \"#utility.yul\":4537:4563   */\n      swap1\n      pop\n        /* \"#utility.yul\":4609:4618   */\n      dup2\n        /* \"#utility.yul\":4603:4607   */\n      dup2\n        /* \"#utility.yul\":4599:4619   */\n      sub\n        /* \"#utility.yul\":4595:4596   */\n      0x00\n        /* \"#utility.yul\":4584:4593   */\n      dup4\n        /* \"#utility.yul\":4580:4597   */\n      add\n        /* \"#utility.yul\":4573:4620   */\n      mstore\n        /* \"#utility.yul\":4637:4768   */\n      tag_178\n        /* \"#utility.yul\":4763:4767   */\n      dup2\n        /* \"#utility.yul\":4637:4768   */\n      tag_118\n      jump\t// in\n    tag_178:\n        /* \"#utility.yul\":4629:4768   */\n      swap1\n      pop\n        /* \"#utility.yul\":4356:4775   */\n      swap2\n      swap1\n      pop\n      jump\t// out\n        /* \"#utility.yul\":4781:4961   */\n    tag_119:\n        /* \"#utility.yul\":4829:4906   */\n      0x4e487b7100000000000000000000000000000000000000000000000000000000\n        /* \"#utility.yul\":4826:4827   */\n      0x00\n        /* \"#utility.yul\":4819:4907   */\n      mstore\n        /* \"#utility.yul\":4926:4930   */\n      0x11\n        /* \"#utility.yul\":4923:4924   */\n      0x04\n        /* \"#utility.yul\":4916:4931   */\n      mstore\n        /* \"#utility.yul\":4950:4954   */\n      0x24\n        /* \"#utility.yul\":4947:4948   */\n      0x00\n        /* \"#utility.yul\":4940:4955   */\n      revert\n        /* \"#utility.yul\":4967:5161   */\n    tag_57:\n        /* \"#utility.yul\":5007:5011   */\n      0x00\n        /* \"#utility.yul\":5027:5047   */\n      tag_181\n        /* \"#utility.yul\":5045:5046   */\n      dup3\n        /* \"#utility.yul\":5027:5047   */\n      tag_104\n      jump\t// in\n    tag_181:\n        /* \"#utility.yul\":5022:5047   */\n      swap2\n      pop\n        /* \"#utility.yul\":5061:5081   */\n      tag_182\n        /* \"#utility.yul\":5079:5080   */\n      dup4\n        /* \"#utility.yul\":5061:5081   */\n      tag_104\n      jump\t// in\n    tag_182:\n        /* \"#utility.yul\":5056:5081   */\n      swap3\n      pop\n        /* \"#utility.yul\":5105:5106   */\n      dup3\n        /* \"#utility.yul\":5102:5103   */\n      dup3\n        /* \"#utility.yul\":5098:5107   */\n      sub\n        /* \"#utility.yul\":5090:5107   */\n      swap1\n      pop\n        /* \"#utility.yul\":5129:5130   */\n      dup2\n        /* \"#utility.yul\":5123:5127   */\n      dup2\n        /* \"#utility.yul\":5120:5131   */\n      gt\n        /* \"#utility.yul\":5117:5154   */\n      iszero\n      tag_183\n      jumpi\n        /* \"#utility.yul\":5134:5152   */\n      tag_184\n      tag_119\n      jump\t// in\n    tag_184:\n        /* \"#utility.yul\":5117:5154   */\n    tag_183:\n        /* \"#utility.yul\":4967:5161   */\n      swap3\n      swap2\n      pop\n      pop\n      jump\t// out\n        /* \"#utility.yul\":5167:5358   */\n    tag_59:\n        /* \"#utility.yul\":5207:5210   */\n      0x00\n        /* \"#utility.yul\":5226:5246   */\n      tag_186\n        /* \"#utility.yul\":5244:5245   */\n      dup3\n        /* \"#utility.yul\":5226:5246   */\n      tag_104\n      jump\t// in\n    tag_186:\n        /* \"#utility.yul\":5221:5246   */\n      swap2\n      pop\n        /* \"#utility.yul\":5260:5280   */\n      tag_187\n        /* \"#utility.yul\":5278:5279   */\n      dup4\n        /* \"#utility.yul\":5260:5280   */\n      tag_104\n      jump\t// in\n    tag_187:\n        /* \"#utility.yul\":5255:5280   */\n      swap3\n      pop\n        /* \"#utility.yul\":5303:5304   */\n      dup3\n        /* \"#utility.yul\":5300:5301   */\n      dup3\n        /* \"#utility.yul\":5296:5305   */\n      add\n        /* \"#utility.yul\":5289:5305   */\n      swap1\n      pop\n        /* \"#utility.yul\":5324:5327   */\n      dup1\n        /* \"#utility.yul\":5321:5322   */\n      dup3\n        /* \"#utility.yul\":5318:5328   */\n      gt\n        /* \"#utility.yul\":5315:5351   */\n      iszero\n      tag_188\n      jumpi\n        /* \"#utility.yul\":5331:5349   */\n      tag_189\n      tag_119\n      jump\t// in\n    tag_189:\n        /* \"#utility.yul\":5315:5351   */\n    tag_188:\n        /* \"#utility.yul\":5167:5358   */\n      swap3\n      swap2\n      pop\n      pop\n      jump\t// out\n        /* \"#utility.yul\":5364:5542   */\n    tag_120:\n        /* \"#utility.yul\":5504:5534   */\n      0x616d6f756e74206d75732062652067726561746572207468616e203000000000\n        /* \"#utility.yul\":5500:5501   */\n      0x00\n        /* \"#utility.yul\":5492:5498   */\n      dup3\n        /* \"#utility.yul\":5488:5502   */\n      add\n        /* \"#utility.yul\":5481:5535   */\n      mstore\n        /* \"#utility.yul\":5364:5542   */\n      pop\n      jump\t// out\n        /* \"#utility.yul\":5548:5914   */\n    tag_121:\n        /* \"#utility.yul\":5690:5693   */\n      0x00\n        /* \"#utility.yul\":5711:5778   */\n      tag_192\n        /* \"#utility.yul\":5775:5777   */\n      0x1c\n        /* \"#utility.yul\":5770:5773   */\n      dup4\n        /* \"#utility.yul\":5711:5778   */\n      tag_114\n      jump\t// in\n    tag_192:\n        /* \"#utility.yul\":5704:5778   */\n      swap2\n      pop\n        /* \"#utility.yul\":5787:5880   */\n      tag_193\n        /* \"#utility.yul\":5876:5879   */\n      dup3\n        /* \"#utility.yul\":5787:5880   */\n      tag_120\n      jump\t// in\n    tag_193:\n        /* \"#utility.yul\":5905:5907   */\n      0x20\n        /* \"#utility.yul\":5900:5903   */\n      dup3\n        /* \"#utility.yul\":5896:5908   */\n      add\n        /* \"#utility.yul\":5889:5908   */\n      swap1\n      pop\n        /* \"#utility.yul\":5548:5914   */\n      swap2\n      swap1\n      pop\n      jump\t// out\n        /* \"#utility.yul\":5920:6339   */\n    tag_66:\n        /* \"#utility.yul\":6086:6090   */\n      0x00\n        /* \"#utility.yul\":6124:6126   */\n      0x20\n        /* \"#utility.yul\":6113:6122   */\n      dup3\n        /* \"#utility.yul\":6109:6127   */\n      add\n        /* \"#utility.yul\":6101:6127   */\n      swap1\n      pop\n        /* \"#utility.yul\":6173:6182   */\n      dup2\n        /* \"#utility.yul\":6167:6171   */\n      dup2\n        /* \"#utility.yul\":6163:6183   */\n      sub\n        /* \"#utility.yul\":6159:6160   */\n      0x00\n        /* \"#utility.yul\":6148:6157   */\n      dup4\n        /* \"#utility.yul\":6144:6161   */\n      add\n        /* \"#utility.yul\":6137:6184   */\n      mstore\n        /* \"#utility.yul\":6201:6332   */\n      tag_195\n        /* \"#utility.yul\":6327:6331   */\n      dup2\n        /* \"#utility.yul\":6201:6332   */\n      tag_121\n      jump\t// in\n    tag_195:\n        /* \"#utility.yul\":6193:6332   */\n      swap1\n      pop\n        /* \"#utility.yul\":5920:6339   */\n      swap2\n      swap1\n      pop\n      jump\t// out\n        /* \"#utility.yul\":6345:6522   */\n    tag_122:\n        /* \"#utility.yul\":6485:6514   */\n      0x596f75206469646e2774206465706f73697420616e792066756e640000000000\n        /* \"#utility.yul\":6481:6482   */\n      0x00\n        /* \"#utility.yul\":6473:6479   */\n      dup3\n        /* \"#utility.yul\":6469:6483   */\n      add\n        /* \"#utility.yul\":6462:6515   */\n      mstore\n        /* \"#utility.yul\":6345:6522   */\n      pop\n      jump\t// out\n        /* \"#utility.yul\":6528:6894   */\n    tag_123:\n        /* \"#utility.yul\":6670:6673   */\n      0x00\n        /* \"#utility.yul\":6691:6758   */\n      tag_198\n        /* \"#utility.yul\":6755:6757   */\n      0x1b\n        /* \"#utility.yul\":6750:6753   */\n      dup4\n        /* \"#utility.yul\":6691:6758   */\n      tag_114\n      jump\t// in\n    tag_198:\n        /* \"#utility.yul\":6684:6758   */\n      swap2\n      pop\n        /* \"#utility.yul\":6767:6860   */\n      tag_199\n        /* \"#utility.yul\":6856:6859   */\n      dup3\n        /* \"#utility.yul\":6767:6860   */\n      tag_122\n      jump\t// in\n    tag_199:\n        /* \"#utility.yul\":6885:6887   */\n      0x20\n        /* \"#utility.yul\":6880:6883   */\n      dup3\n        /* \"#utility.yul\":6876:6888   */\n      add\n        /* \"#utility.yul\":6869:6888   */\n      swap1\n      pop\n        /* \"#utility.yul\":6528:6894   */\n      swap2\n      swap1\n      pop\n      jump\t// out\n        /* \"#utility.yul\":6900:7319   */\n    tag_73:\n        /* \"#utility.yul\":7066:7070   */\n      0x00\n        /* \"#utility.yul\":7104:7106   */\n      0x20\n        /* \"#utility.yul\":7093:7102   */\n      dup3\n        /* \"#utility.yul\":7089:7107   */\n      add\n        /* \"#utility.yul\":7081:7107   */\n      swap1\n      pop\n        /* \"#utility.yul\":7153:7162   */\n      dup2\n        /* \"#utility.yul\":7147:7151   */\n      dup2\n        /* \"#utility.yul\":7143:7163   */\n      sub\n        /* \"#utility.yul\":7139:7140   */\n      0x00\n        /* \"#utility.yul\":7128:7137   */\n      dup4\n        /* \"#utility.yul\":7124:7141   */\n      add\n        /* \"#utility.yul\":7117:7164   */\n      mstore\n        /* \"#utility.yul\":7181:7312   */\n      tag_201\n        /* \"#utility.yul\":7307:7311   */\n      dup2\n        /* \"#utility.yul\":7181:7312   */\n      tag_123\n      jump\t// in\n    tag_201:\n        /* \"#utility.yul\":7173:7312   */\n      swap1\n      pop\n        /* \"#utility.yul\":6900:7319   */\n      swap2\n      swap1\n      pop\n      jump\t// out\n        /* \"#utility.yul\":7325:7499   */\n    tag_124:\n        /* \"#utility.yul\":7465:7491   */\n      0x7468657265206973206e6f7420656e6f7567682066756e640000000000000000\n        /* \"#utility.yul\":7461:7462   */\n      0x00\n        /* \"#utility.yul\":7453:7459   */\n      dup3\n        /* \"#utility.yul\":7449:7463   */\n      add\n        /* \"#utility.yul\":7442:7492   */\n      mstore\n        /* \"#utility.yul\":7325:7499   */\n      pop\n      jump\t// out\n        /* \"#utility.yul\":7505:7871   */\n    tag_125:\n        /* \"#utility.yul\":7647:7650   */\n      0x00\n        /* \"#utility.yul\":7668:7735   */\n      tag_204\n        /* \"#utility.yul\":7732:7734   */\n      0x18\n        /* \"#utility.yul\":7727:7730   */\n      dup4\n        /* \"#utility.yul\":7668:7735   */\n      tag_114\n      jump\t// in\n    tag_204:\n        /* \"#utility.yul\":7661:7735   */\n      swap2\n      pop\n        /* \"#utility.yul\":7744:7837   */\n      tag_205\n        /* \"#utility.yul\":7833:7836   */\n      dup3\n        /* \"#utility.yul\":7744:7837   */\n      tag_124\n      jump\t// in\n    tag_205:\n        /* \"#utility.yul\":7862:7864   */\n      0x20\n        /* \"#utility.yul\":7857:7860   */\n      dup3\n        /* \"#utility.yul\":7853:7865   */\n      add\n        /* \"#utility.yul\":7846:7865   */\n      swap1\n      pop\n        /* \"#utility.yul\":7505:7871   */\n      swap2\n      swap1\n      pop\n      jump\t// out\n        /* \"#utility.yul\":7877:8296   */\n    tag_76:\n        /* \"#utility.yul\":8043:8047   */\n      0x00\n        /* \"#utility.yul\":8081:8083   */\n      0x20\n        /* \"#utility.yul\":8070:8079   */\n      dup3\n        /* \"#utility.yul\":8066:8084   */\n      add\n        /* \"#utility.yul\":8058:8084   */\n      swap1\n      pop\n        /* \"#utility.yul\":8130:8139   */\n      dup2\n        /* \"#utility.yul\":8124:8128   */\n      dup2\n        /* \"#utility.yul\":8120:8140   */\n      sub\n        /* \"#utility.yul\":8116:8117   */\n      0x00\n        /* \"#utility.yul\":8105:8114   */\n      dup4\n        /* \"#utility.yul\":8101:8118   */\n      add\n        /* \"#utility.yul\":8094:8141   */\n      mstore\n        /* \"#utility.yul\":8158:8289   */\n      tag_207\n        /* \"#utility.yul\":8284:8288   */\n      dup2\n        /* \"#utility.yul\":8158:8289   */\n      tag_125\n      jump\t// in\n    tag_207:\n        /* \"#utility.yul\":8150:8289   */\n      swap1\n      pop\n        /* \"#utility.yul\":7877:8296   */\n      swap2\n      swap1\n      pop\n      jump\t// out\n        /* \"#utility.yul\":8302:8712   */\n    tag_78:\n        /* \"#utility.yul\":8342:8349   */\n      0x00\n        /* \"#utility.yul\":8365:8385   */\n      tag_209\n        /* \"#utility.yul\":8383:8384   */\n      dup3\n        /* \"#utility.yul\":8365:8385   */\n      tag_104\n      jump\t// in\n    tag_209:\n        /* \"#utility.yul\":8360:8385   */\n      swap2\n      pop\n        /* \"#utility.yul\":8399:8419   */\n      tag_210\n        /* \"#utility.yul\":8417:8418   */\n      dup4\n        /* \"#utility.yul\":8399:8419   */\n      tag_104\n      jump\t// in\n    tag_210:\n        /* \"#utility.yul\":8394:8419   */\n      swap3\n      pop\n        /* \"#utility.yul\":8454:8455   */\n      dup3\n        /* \"#utility.yul\":8451:8452   */\n      dup3\n        /* \"#utility.yul\":8447:8456   */\n      mul\n        /* \"#utility.yul\":8476:8506   */\n      tag_211\n        /* \"#utility.yul\":8494:8505   */\n      dup2\n        /* \"#utility.yul\":8476:8506   */\n      tag_104\n      jump\t// in\n    tag_211:\n        /* \"#utility.yul\":8465:8506   */\n      swap2\n      pop\n        /* \"#utility.yul\":8655:8656   */\n      dup3\n        /* \"#utility.yul\":8646:8653   */\n      dup3\n        /* \"#utility.yul\":8642:8657   */\n      div\n        /* \"#utility.yul\":8639:8640   */\n      dup5\n        /* \"#utility.yul\":8636:8658   */\n      eq\n        /* \"#utility.yul\":8616:8617   */\n      dup4\n        /* \"#utility.yul\":8609:8618   */\n      iszero\n        /* \"#utility.yul\":8589:8672   */\n      or\n        /* \"#utility.yul\":8566:8705   */\n      tag_212\n      jumpi\n        /* \"#utility.yul\":8685:8703   */\n      tag_213\n      tag_119\n      jump\t// in\n    tag_213:\n        /* \"#utility.yul\":8566:8705   */\n    tag_212:\n        /* \"#utility.yul\":8350:8712   */\n      pop\n        /* \"#utility.yul\":8302:8712   */\n      swap3\n      swap2\n      pop\n      pop\n      jump\t// out\n        /* \"#utility.yul\":8718:8898   */\n    tag_126:\n        /* \"#utility.yul\":8766:8843   */\n      0x4e487b7100000000000000000000000000000000000000000000000000000000\n        /* \"#utility.yul\":8763:8764   */\n      0x00\n        /* \"#utility.yul\":8756:8844   */\n      mstore\n        /* \"#utility.yul\":8863:8867   */\n      0x12\n        /* \"#utility.yul\":8860:8861   */\n      0x04\n        /* \"#utility.yul\":8853:8868   */\n      mstore\n        /* \"#utility.yul\":8887:8891   */\n      0x24\n        /* \"#utility.yul\":8884:8885   */\n      0x00\n        /* \"#utility.yul\":8877:8892   */\n      revert\n        /* \"#utility.yul\":8904:9089   */\n    tag_80:\n        /* \"#utility.yul\":8944:8945   */\n      0x00\n        /* \"#utility.yul\":8961:8981   */\n      tag_216\n        /* \"#utility.yul\":8979:8980   */\n      dup3\n        /* \"#utility.yul\":8961:8981   */\n      tag_104\n      jump\t// in\n    tag_216:\n        /* \"#utility.yul\":8956:8981   */\n      swap2\n      pop\n        /* \"#utility.yul\":8995:9015   */\n      tag_217\n        /* \"#utility.yul\":9013:9014   */\n      dup4\n        /* \"#utility.yul\":8995:9015   */\n      tag_104\n      jump\t// in\n    tag_217:\n        /* \"#utility.yul\":8990:9015   */\n      swap3\n      pop\n        /* \"#utility.yul\":9034:9035   */\n      dup3\n        /* \"#utility.yul\":9024:9059   */\n      tag_218\n      jumpi\n        /* \"#utility.yul\":9039:9057   */\n      tag_219\n      tag_126\n      jump\t// in\n    tag_219:\n        /* \"#utility.yul\":9024:9059   */\n    tag_218:\n        /* \"#utility.yul\":9081:9082   */\n      dup3\n        /* \"#utility.yul\":9078:9079   */\n      dup3\n        /* \"#utility.yul\":9074:9083   */\n      div\n        /* \"#utility.yul\":9069:9083   */\n      swap1\n      pop\n        /* \"#utility.yul\":8904:9089   */\n      swap3\n      swap2\n      pop\n      pop\n      jump\t// out\n        /* \"#utility.yul\":9095:9318   */\n    tag_127:\n        /* \"#utility.yul\":9235:9269   */\n      0x796f752063616e277420626f72726f77206d6f7265207468616e206465706f73\n        /* \"#utility.yul\":9231:9232   */\n      0x00\n        /* \"#utility.yul\":9223:9229   */\n      dup3\n        /* \"#utility.yul\":9219:9233   */\n      add\n        /* \"#utility.yul\":9212:9270   */\n      mstore\n        /* \"#utility.yul\":9304:9310   */\n      0x6974656400000000000000000000000000000000000000000000000000000000\n        /* \"#utility.yul\":9299:9301   */\n      0x20\n        /* \"#utility.yul\":9291:9297   */\n      dup3\n        /* \"#utility.yul\":9287:9302   */\n      add\n        /* \"#utility.yul\":9280:9311   */\n      mstore\n        /* \"#utility.yul\":9095:9318   */\n      pop\n      jump\t// out\n        /* \"#utility.yul\":9324:9690   */\n    tag_128:\n        /* \"#utility.yul\":9466:9469   */\n      0x00\n        /* \"#utility.yul\":9487:9554   */\n      tag_222\n        /* \"#utility.yul\":9551:9553   */\n      0x24\n        /* \"#utility.yul\":9546:9549   */\n      dup4\n        /* \"#utility.yul\":9487:9554   */\n      tag_114\n      jump\t// in\n    tag_222:\n        /* \"#utility.yul\":9480:9554   */\n      swap2\n      pop\n        /* \"#utility.yul\":9563:9656   */\n      tag_223\n        /* \"#utility.yul\":9652:9655   */\n      dup3\n        /* \"#utility.yul\":9563:9656   */\n      tag_127\n      jump\t// in\n    tag_223:\n        /* \"#utility.yul\":9681:9683   */\n      0x40\n        /* \"#utility.yul\":9676:9679   */\n      dup3\n        /* \"#utility.yul\":9672:9684   */\n      add\n        /* \"#utility.yul\":9665:9684   */\n      swap1\n      pop\n        /* \"#utility.yul\":9324:9690   */\n      swap2\n      swap1\n      pop\n      jump\t// out\n        /* \"#utility.yul\":9696:10115   */\n    tag_89:\n        /* \"#utility.yul\":9862:9866   */\n      0x00\n        /* \"#utility.yul\":9900:9902   */\n      0x20\n        /* \"#utility.yul\":9889:9898   */\n      dup3\n        /* \"#utility.yul\":9885:9903   */\n      add\n        /* \"#utility.yul\":9877:9903   */\n      swap1\n      pop\n        /* \"#utility.yul\":9949:9958   */\n      dup2\n        /* \"#utility.yul\":9943:9947   */\n      dup2\n        /* \"#utility.yul\":9939:9959   */\n      sub\n        /* \"#utility.yul\":9935:9936   */\n      0x00\n        /* \"#utility.yul\":9924:9933   */\n      dup4\n        /* \"#utility.yul\":9920:9937   */\n      add\n        /* \"#utility.yul\":9913:9960   */\n      mstore\n        /* \"#utility.yul\":9977:10108   */\n      tag_225\n        /* \"#utility.yul\":10103:10107   */\n      dup2\n        /* \"#utility.yul\":9977:10108   */\n      tag_128\n      jump\t// in\n    tag_225:\n        /* \"#utility.yul\":9969:10108   */\n      swap1\n      pop\n        /* \"#utility.yul\":9696:10115   */\n      swap2\n      swap1\n      pop\n      jump\t// out\n        /* \"#utility.yul\":10121:10341   */\n    tag_129:\n        /* \"#utility.yul\":10261:10295   */\n      0x736f727279207468657265206973206e6f2066756e6420666f7220626f72726f\n        /* \"#utility.yul\":10257:10258   */\n      0x00\n        /* \"#utility.yul\":10249:10255   */\n      dup3\n        /* \"#utility.yul\":10245:10259   */\n      add\n        /* \"#utility.yul\":10238:10296   */\n      mstore\n        /* \"#utility.yul\":10330:10333   */\n      0x7700000000000000000000000000000000000000000000000000000000000000\n        /* \"#utility.yul\":10325:10327   */\n      0x20\n        /* \"#utility.yul\":10317:10323   */\n      dup3\n        /* \"#utility.yul\":10313:10328   */\n      add\n        /* \"#utility.yul\":10306:10334   */\n      mstore\n        /* \"#utility.yul\":10121:10341   */\n      pop\n      jump\t// out\n        /* \"#utility.yul\":10347:10713   */\n    tag_130:\n        /* \"#utility.yul\":10489:10492   */\n      0x00\n        /* \"#utility.yul\":10510:10577   */\n      tag_228\n        /* \"#utility.yul\":10574:10576   */\n      0x21\n        /* \"#utility.yul\":10569:10572   */\n      dup4\n        /* \"#utility.yul\":10510:10577   */\n      tag_114\n      jump\t// in\n    tag_228:\n        /* \"#utility.yul\":10503:10577   */\n      swap2\n      pop\n        /* \"#utility.yul\":10586:10679   */\n      tag_229\n        /* \"#utility.yul\":10675:10678   */\n      dup3\n        /* \"#utility.yul\":10586:10679   */\n      tag_129\n      jump\t// in\n    tag_229:\n        /* \"#utility.yul\":10704:10706   */\n      0x40\n        /* \"#utility.yul\":10699:10702   */\n      dup3\n        /* \"#utility.yul\":10695:10707   */\n      add\n        /* \"#utility.yul\":10688:10707   */\n      swap1\n      pop\n        /* \"#utility.yul\":10347:10713   */\n      swap2\n      swap1\n      pop\n      jump\t// out\n        /* \"#utility.yul\":10719:11138   */\n    tag_92:\n        /* \"#utility.yul\":10885:10889   */\n      0x00\n        /* \"#utility.yul\":10923:10925   */\n      0x20\n        /* \"#utility.yul\":10912:10921   */\n      dup3\n        /* \"#utility.yul\":10908:10926   */\n      add\n        /* \"#utility.yul\":10900:10926   */\n      swap1\n      pop\n        /* \"#utility.yul\":10972:10981   */\n      dup2\n        /* \"#utility.yul\":10966:10970   */\n      dup2\n        /* \"#utility.yul\":10962:10982   */\n      sub\n        /* \"#utility.yul\":10958:10959   */\n      0x00\n        /* \"#utility.yul\":10947:10956   */\n      dup4\n        /* \"#utility.yul\":10943:10960   */\n      add\n        /* \"#utility.yul\":10936:10983   */\n      mstore\n        /* \"#utility.yul\":11000:11131   */\n      tag_231\n        /* \"#utility.yul\":11126:11130   */\n      dup2\n        /* \"#utility.yul\":11000:11131   */\n      tag_130\n      jump\t// in\n    tag_231:\n        /* \"#utility.yul\":10992:11131   */\n      swap1\n      pop\n        /* \"#utility.yul\":10719:11138   */\n      swap2\n      swap1\n      pop\n      jump\t// out\n\n    auxdata: 0xa2646970667358221220f8aa405b1da0cafcb445e2776032e988ac47c1632f74949ef4931ab118b8a52a64736f6c63430008140033\n}\n",
				"bytecode": {
					"linkReferences": {},
					"object": "60806040525f6001555f6002555f6003555f60045534801561001f575f80fd5b50610fbf8061002d5f395ff3fe608060405260043610610085575f3560e01c806364f72b211161005857806364f72b211461011557806367b9a28614610151578063981faa9a1461015b578063aec965d714610185578063c31b0ea0146101c157610085565b806302bae403146100895780632844f234146100a5578063585e5d20146100cf57806359ae2f1b146100eb575b5f80fd5b6100a3600480360381019061009e9190610a19565b6101dd565b005b3480156100b0575f80fd5b506100b9610346565b6040516100c69190610a5e565b60405180910390f35b6100e960048036038101906100e49190610a19565b61039c565b005b3480156100f6575f80fd5b506100ff61045c565b60405161010c9190610a86565b60405180910390f35b348015610120575f80fd5b5061013b60048036038101906101369190610af9565b6104a0565b6040516101489190610a86565b60405180910390f35b6101596104b5565b005b348015610166575f80fd5b5061016f61074b565b60405161017c9190610a86565b60405180910390f35b348015610190575f80fd5b506101ab60048036038101906101a69190610af9565b610751565b6040516101b89190610a86565b60405180910390f35b6101db60048036038101906101d69190610a19565b610766565b005b5f60075f3373ffffffffffffffffffffffffffffffffffffffff1673ffffffffffffffffffffffffffffffffffffffff1681526020019081526020015f20541161025c576040517f08c379a000000000000000000000000000000000000000000000000000000000815260040161025390610b7e565b60405180910390fd5b60075f3373ffffffffffffffffffffffffffffffffffffffff1673ffffffffffffffffffffffffffffffffffffffff1681526020019081526020015f20548111156102dc576040517f08c379a00000000000000000000000000000000000000000000000000000000081526004016102d390610be6565b60405180910390fd5b8060075f3373ffffffffffffffffffffffffffffffffffffffff1673ffffffffffffffffffffffffffffffffffffffff1681526020019081526020015f205f8282546103289190610c31565b925050819055508060025461033d9190610c64565b60028190555050565b5f8060075f3373ffffffffffffffffffffffffffffffffffffffff1673ffffffffffffffffffffffffffffffffffffffff1681526020019081526020015f205411156103955760019050610399565b5f90505b90565b5f81116103de576040517f08c379a00000000000000000000000000000000000000000000000000000000081526004016103d590610ce1565b60405180910390fd5b805f819055505f5460015f8282546103f69190610c64565b925050819055506001546002819055508060055f3373ffffffffffffffffffffffffffffffffffffffff1673ffffffffffffffffffffffffffffffffffffffff1681526020019081526020015f205f8282546104529190610c64565b9250508190555050565b5f60075f3373ffffffffffffffffffffffffffffffffffffffff1673ffffffffffffffffffffffffffffffffffffffff1681526020019081526020015f2054905090565b6005602052805f5260405f205f915090505481565b5f60055f3373ffffffffffffffffffffffffffffffffffffffff1673ffffffffffffffffffffffffffffffffffffffff1681526020019081526020015f205411610534576040517f08c379a000000000000000000000000000000000000000000000000000000000815260040161052b90610d49565b60405180910390fd5b60055f3373ffffffffffffffffffffffffffffffffffffffff1673ffffffffffffffffffffffffffffffffffffffff1681526020019081526020015f20544710156105b4576040517f08c379a00000000000000000000000000000000000000000000000000000000081526004016105ab90610db1565b60405180910390fd5b5f6064600860055f3373ffffffffffffffffffffffffffffffffffffffff1673ffffffffffffffffffffffffffffffffffffffff1681526020019081526020015f20546106019190610dcf565b61060b9190610e3d565b90505f60055f3373ffffffffffffffffffffffffffffffffffffffff1673ffffffffffffffffffffffffffffffffffffffff1681526020019081526020015f2054826106579190610c64565b90503373ffffffffffffffffffffffffffffffffffffffff166108fc8290811502906040515f60405180830381858888f1935050505015801561069c573d5f803e3d5ffd5b5060055f3373ffffffffffffffffffffffffffffffffffffffff1673ffffffffffffffffffffffffffffffffffffffff1681526020019081526020015f205460025f8282546106eb9190610c31565b9250508190555060055f3373ffffffffffffffffffffffffffffffffffffffff1673ffffffffffffffffffffffffffffffffffffffff1681526020019081526020015f205460015f8282546107409190610c31565b925050819055505050565b60025481565b6006602052805f5260405f205f915090505481565b5f548111156107aa576040517f08c379a00000000000000000000000000000000000000000000000000000000081526004016107a190610edd565b60405180910390fd5b5f600254116107ee576040517f08c379a00000000000000000000000000000000000000000000000000000000081526004016107e590610f6b565b60405180910390fd5b8060065f3373ffffffffffffffffffffffffffffffffffffffff1673ffffffffffffffffffffffffffffffffffffffff1681526020019081526020015f205f82825461083a9190610c64565b925050819055503373ffffffffffffffffffffffffffffffffffffffff166108fc8290811502906040515f60405180830381858888f19350505050158015610884573d5f803e3d5ffd5b508060025f8282546108969190610c31565b925050819055505f6064600a60065f3373ffffffffffffffffffffffffffffffffffffffff1673ffffffffffffffffffffffffffffffffffffffff1681526020019081526020015f20546108ea9190610dcf565b6108f49190610e3d565b90508060065f3373ffffffffffffffffffffffffffffffffffffffff1673ffffffffffffffffffffffffffffffffffffffff1681526020019081526020015f205461093f9190610c64565b60038190555060035460075f3373ffffffffffffffffffffffffffffffffffffffff1673ffffffffffffffffffffffffffffffffffffffff1681526020019081526020015f205f8282546109939190610c64565b9250508190555060075f3373ffffffffffffffffffffffffffffffffffffffff1673ffffffffffffffffffffffffffffffffffffffff1681526020019081526020015f20546004819055505050565b5f80fd5b5f819050919050565b6109f8816109e6565b8114610a02575f80fd5b50565b5f81359050610a13816109ef565b92915050565b5f60208284031215610a2e57610a2d6109e2565b5b5f610a3b84828501610a05565b91505092915050565b5f8115159050919050565b610a5881610a44565b82525050565b5f602082019050610a715f830184610a4f565b92915050565b610a80816109e6565b82525050565b5f602082019050610a995f830184610a77565b92915050565b5f73ffffffffffffffffffffffffffffffffffffffff82169050919050565b5f610ac882610a9f565b9050919050565b610ad881610abe565b8114610ae2575f80fd5b50565b5f81359050610af381610acf565b92915050565b5f60208284031215610b0e57610b0d6109e2565b5b5f610b1b84828501610ae5565b91505092915050565b5f82825260208201905092915050565b7f596f75206469646e277420626f72726f7720616e792066756e640000000000005f82015250565b5f610b68601a83610b24565b9150610b7382610b34565b602082019050919050565b5f6020820190508181035f830152610b9581610b5c565b9050919050565b7f796f752063616e277420726566756e64206d6f726520616d6f756e74000000005f82015250565b5f610bd0601c83610b24565b9150610bdb82610b9c565b602082019050919050565b5f6020820190508181035f830152610bfd81610bc4565b9050919050565b7f4e487b71000000000000000000000000000000000000000000000000000000005f52601160045260245ffd5b5f610c3b826109e6565b9150610c46836109e6565b9250828203905081811115610c5e57610c5d610c04565b5b92915050565b5f610c6e826109e6565b9150610c79836109e6565b9250828201905080821115610c9157610c90610c04565b5b92915050565b7f616d6f756e74206d75732062652067726561746572207468616e2030000000005f82015250565b5f610ccb601c83610b24565b9150610cd682610c97565b602082019050919050565b5f6020820190508181035f830152610cf881610cbf565b9050919050565b7f596f75206469646e2774206465706f73697420616e792066756e6400000000005f82015250565b5f610d33601b83610b24565b9150610d3e82610cff565b602082019050919050565b5f6020820190508181035f830152610d6081610d27565b9050919050565b7f7468657265206973206e6f7420656e6f7567682066756e6400000000000000005f82015250565b5f610d9b601883610b24565b9150610da682610d67565b602082019050919050565b5f6020820190508181035f830152610dc881610d8f565b9050919050565b5f610dd9826109e6565b9150610de4836109e6565b9250828202610df2816109e6565b91508282048414831517610e0957610e08610c04565b5b5092915050565b7f4e487b71000000000000000000000000000000000000000000000000000000005f52601260045260245ffd5b5f610e47826109e6565b9150610e52836109e6565b925082610e6257610e61610e10565b5b828204905092915050565b7f796f752063616e277420626f72726f77206d6f7265207468616e206465706f735f8201527f6974656400000000000000000000000000000000000000000000000000000000602082015250565b5f610ec7602483610b24565b9150610ed282610e6d565b604082019050919050565b5f6020820190508181035f830152610ef481610ebb565b9050919050565b7f736f727279207468657265206973206e6f2066756e6420666f7220626f72726f5f8201527f7700000000000000000000000000000000000000000000000000000000000000602082015250565b5f610f55602183610b24565b9150610f6082610efb565b604082019050919050565b5f6020820190508181035f830152610f8281610f49565b905091905056fea2646970667358221220f8aa405b1da0cafcb445e2776032e988ac47c1632f74949ef4931ab118b8a52a64736f6c63430008140033",
					"opcodes": "PUSH1 0x80 PUSH1 0x40 MSTORE PUSH0 PUSH1 0x1 SSTORE PUSH0 PUSH1 0x2 SSTORE PUSH0 PUSH1 0x3 SSTORE PUSH0 PUSH1 0x4 SSTORE CALLVALUE DUP1 ISZERO PUSH2 0x1F JUMPI PUSH0 DUP1 REVERT JUMPDEST POP PUSH2 0xFBF DUP1 PUSH2 0x2D PUSH0 CODECOPY PUSH0 RETURN INVALID PUSH1 0x80 PUSH1 0x40 MSTORE PUSH1 0x4 CALLDATASIZE LT PUSH2 0x85 JUMPI PUSH0 CALLDATALOAD PUSH1 0xE0 SHR DUP1 PUSH4 0x64F72B21 GT PUSH2 0x58 JUMPI DUP1 PUSH4 0x64F72B21 EQ PUSH2 0x115 JUMPI DUP1 PUSH4 0x67B9A286 EQ PUSH2 0x151 JUMPI DUP1 PUSH4 0x981FAA9A EQ PUSH2 0x15B JUMPI DUP1 PUSH4 0xAEC965D7 EQ PUSH2 0x185 JUMPI DUP1 PUSH4 0xC31B0EA0 EQ PUSH2 0x1C1 JUMPI PUSH2 0x85 JUMP JUMPDEST DUP1 PUSH4 0x2BAE403 EQ PUSH2 0x89 JUMPI DUP1 PUSH4 0x2844F234 EQ PUSH2 0xA5 JUMPI DUP1 PUSH4 0x585E5D20 EQ PUSH2 0xCF JUMPI DUP1 PUSH4 0x59AE2F1B EQ PUSH2 0xEB JUMPI JUMPDEST PUSH0 DUP1 REVERT JUMPDEST PUSH2 0xA3 PUSH1 0x4 DUP1 CALLDATASIZE SUB DUP2 ADD SWAP1 PUSH2 0x9E SWAP2 SWAP1 PUSH2 0xA19 JUMP JUMPDEST PUSH2 0x1DD JUMP JUMPDEST STOP JUMPDEST CALLVALUE DUP1 ISZERO PUSH2 0xB0 JUMPI PUSH0 DUP1 REVERT JUMPDEST POP PUSH2 0xB9 PUSH2 0x346 JUMP JUMPDEST PUSH1 0x40 MLOAD PUSH2 0xC6 SWAP2 SWAP1 PUSH2 0xA5E JUMP JUMPDEST PUSH1 0x40 MLOAD DUP1 SWAP2 SUB SWAP1 RETURN JUMPDEST PUSH2 0xE9 PUSH1 0x4 DUP1 CALLDATASIZE SUB DUP2 ADD SWAP1 PUSH2 0xE4 SWAP2 SWAP1 PUSH2 0xA19 JUMP JUMPDEST PUSH2 0x39C JUMP JUMPDEST STOP JUMPDEST CALLVALUE DUP1 ISZERO PUSH2 0xF6 JUMPI PUSH0 DUP1 REVERT JUMPDEST POP PUSH2 0xFF PUSH2 0x45C JUMP JUMPDEST PUSH1 0x40 MLOAD PUSH2 0x10C SWAP2 SWAP1 PUSH2 0xA86 JUMP JUMPDEST PUSH1 0x40 MLOAD DUP1 SWAP2 SUB SWAP1 RETURN JUMPDEST CALLVALUE DUP1 ISZERO PUSH2 0x120 JUMPI PUSH0 DUP1 REVERT JUMPDEST POP PUSH2 0x13B PUSH1 0x4 DUP1 CALLDATASIZE SUB DUP2 ADD SWAP1 PUSH2 0x136 SWAP2 SWAP1 PUSH2 0xAF9 JUMP JUMPDEST PUSH2 0x4A0 JUMP JUMPDEST PUSH1 0x40 MLOAD PUSH2 0x148 SWAP2 SWAP1 PUSH2 0xA86 JUMP JUMPDEST PUSH1 0x40 MLOAD DUP1 SWAP2 SUB SWAP1 RETURN JUMPDEST PUSH2 0x159 PUSH2 0x4B5 JUMP JUMPDEST STOP JUMPDEST CALLVALUE DUP1 ISZERO PUSH2 0x166 JUMPI PUSH0 DUP1 REVERT JUMPDEST POP PUSH2 0x16F PUSH2 0x74B JUMP JUMPDEST PUSH1 0x40 MLOAD PUSH2 0x17C SWAP2 SWAP1 PUSH2 0xA86 JUMP JUMPDEST PUSH1 0x40 MLOAD DUP1 SWAP2 SUB SWAP1 RETURN JUMPDEST CALLVALUE DUP1 ISZERO PUSH2 0x190 JUMPI PUSH0 DUP1 REVERT JUMPDEST POP PUSH2 0x1AB PUSH1 0x4 DUP1 CALLDATASIZE SUB DUP2 ADD SWAP1 PUSH2 0x1A6 SWAP2 SWAP1 PUSH2 0xAF9 JUMP JUMPDEST PUSH2 0x751 JUMP JUMPDEST PUSH1 0x40 MLOAD PUSH2 0x1B8 SWAP2 SWAP1 PUSH2 0xA86 JUMP JUMPDEST PUSH1 0x40 MLOAD DUP1 SWAP2 SUB SWAP1 RETURN JUMPDEST PUSH2 0x1DB PUSH1 0x4 DUP1 CALLDATASIZE SUB DUP2 ADD SWAP1 PUSH2 0x1D6 SWAP2 SWAP1 PUSH2 0xA19 JUMP JUMPDEST PUSH2 0x766 JUMP JUMPDEST STOP JUMPDEST PUSH0 PUSH1 0x7 PUSH0 CALLER PUSH20 0xFFFFFFFFFFFFFFFFFFFFFFFFFFFFFFFFFFFFFFFF AND PUSH20 0xFFFFFFFFFFFFFFFFFFFFFFFFFFFFFFFFFFFFFFFF AND DUP2 MSTORE PUSH1 0x20 ADD SWAP1 DUP2 MSTORE PUSH1 0x20 ADD PUSH0 KECCAK256 SLOAD GT PUSH2 0x25C JUMPI PUSH1 0x40 MLOAD PUSH32 0x8C379A000000000000000000000000000000000000000000000000000000000 DUP2 MSTORE PUSH1 0x4 ADD PUSH2 0x253 SWAP1 PUSH2 0xB7E JUMP JUMPDEST PUSH1 0x40 MLOAD DUP1 SWAP2 SUB SWAP1 REVERT JUMPDEST PUSH1 0x7 PUSH0 CALLER PUSH20 0xFFFFFFFFFFFFFFFFFFFFFFFFFFFFFFFFFFFFFFFF AND PUSH20 0xFFFFFFFFFFFFFFFFFFFFFFFFFFFFFFFFFFFFFFFF AND DUP2 MSTORE PUSH1 0x20 ADD SWAP1 DUP2 MSTORE PUSH1 0x20 ADD PUSH0 KECCAK256 SLOAD DUP2 GT ISZERO PUSH2 0x2DC JUMPI PUSH1 0x40 MLOAD PUSH32 0x8C379A000000000000000000000000000000000000000000000000000000000 DUP2 MSTORE PUSH1 0x4 ADD PUSH2 0x2D3 SWAP1 PUSH2 0xBE6 JUMP JUMPDEST PUSH1 0x40 MLOAD DUP1 SWAP2 SUB SWAP1 REVERT JUMPDEST DUP1 PUSH1 0x7 PUSH0 CALLER PUSH20 0xFFFFFFFFFFFFFFFFFFFFFFFFFFFFFFFFFFFFFFFF AND PUSH20 0xFFFFFFFFFFFFFFFFFFFFFFFFFFFFFFFFFFFFFFFF AND DUP2 MSTORE PUSH1 0x20 ADD SWAP1 DUP2 MSTORE PUSH1 0x20 ADD PUSH0 KECCAK256 PUSH0 DUP3 DUP3 SLOAD PUSH2 0x328 SWAP2 SWAP1 PUSH2 0xC31 JUMP JUMPDEST SWAP3 POP POP DUP2 SWAP1 SSTORE POP DUP1 PUSH1 0x2 SLOAD PUSH2 0x33D SWAP2 SWAP1 PUSH2 0xC64 JUMP JUMPDEST PUSH1 0x2 DUP2 SWAP1 SSTORE POP POP JUMP JUMPDEST PUSH0 DUP1 PUSH1 0x7 PUSH0 CALLER PUSH20 0xFFFFFFFFFFFFFFFFFFFFFFFFFFFFFFFFFFFFFFFF AND PUSH20 0xFFFFFFFFFFFFFFFFFFFFFFFFFFFFFFFFFFFFFFFF AND DUP2 MSTORE PUSH1 0x20 ADD SWAP1 DUP2 MSTORE PUSH1 0x20 ADD PUSH0 KECCAK256 SLOAD GT ISZERO PUSH2 0x395 JUMPI PUSH1 0x1 SWAP1 POP PUSH2 0x399 JUMP JUMPDEST PUSH0 SWAP1 POP JUMPDEST SWAP1 JUMP JUMPDEST PUSH0 DUP2 GT PUSH2 0x3DE JUMPI PUSH1 0x40 MLOAD PUSH32 0x8C379A000000000000000000000000000000000000000000000000000000000 DUP2 MSTORE PUSH1 0x4 ADD PUSH2 0x3D5 SWAP1 PUSH2 0xCE1 JUMP JUMPDEST PUSH1 0x40 MLOAD DUP1 SWAP2 SUB SWAP1 REVERT JUMPDEST DUP1 PUSH0 DUP2 SWAP1 SSTORE POP PUSH0 SLOAD PUSH1 0x1 PUSH0 DUP3 DUP3 SLOAD PUSH2 0x3F6 SWAP2 SWAP1 PUSH2 0xC64 JUMP JUMPDEST SWAP3 POP POP DUP2 SWAP1 SSTORE POP PUSH1 0x1 SLOAD PUSH1 0x2 DUP2 SWAP1 SSTORE POP DUP1 PUSH1 0x5 PUSH0 CALLER PUSH20 0xFFFFFFFFFFFFFFFFFFFFFFFFFFFFFFFFFFFFFFFF AND PUSH20 0xFFFFFFFFFFFFFFFFFFFFFFFFFFFFFFFFFFFFFFFF AND DUP2 MSTORE PUSH1 0x20 ADD SWAP1 DUP2 MSTORE PUSH1 0x20 ADD PUSH0 KECCAK256 PUSH0 DUP3 DUP3 SLOAD PUSH2 0x452 SWAP2 SWAP1 PUSH2 0xC64 JUMP JUMPDEST SWAP3 POP POP DUP2 SWAP1 SSTORE POP POP JUMP JUMPDEST PUSH0 PUSH1 0x7 PUSH0 CALLER PUSH20 0xFFFFFFFFFFFFFFFFFFFFFFFFFFFFFFFFFFFFFFFF AND PUSH20 0xFFFFFFFFFFFFFFFFFFFFFFFFFFFFFFFFFFFFFFFF AND DUP2 MSTORE PUSH1 0x20 ADD SWAP1 DUP2 MSTORE PUSH1 0x20 ADD PUSH0 KECCAK256 SLOAD SWAP1 POP SWAP1 JUMP JUMPDEST PUSH1 0x5 PUSH1 0x20 MSTORE DUP1 PUSH0 MSTORE PUSH1 0x40 PUSH0 KECCAK256 PUSH0 SWAP2 POP SWAP1 POP SLOAD DUP2 JUMP JUMPDEST PUSH0 PUSH1 0x5 PUSH0 CALLER PUSH20 0xFFFFFFFFFFFFFFFFFFFFFFFFFFFFFFFFFFFFFFFF AND PUSH20 0xFFFFFFFFFFFFFFFFFFFFFFFFFFFFFFFFFFFFFFFF AND DUP2 MSTORE PUSH1 0x20 ADD SWAP1 DUP2 MSTORE PUSH1 0x20 ADD PUSH0 KECCAK256 SLOAD GT PUSH2 0x534 JUMPI PUSH1 0x40 MLOAD PUSH32 0x8C379A000000000000000000000000000000000000000000000000000000000 DUP2 MSTORE PUSH1 0x4 ADD PUSH2 0x52B SWAP1 PUSH2 0xD49 JUMP JUMPDEST PUSH1 0x40 MLOAD DUP1 SWAP2 SUB SWAP1 REVERT JUMPDEST PUSH1 0x5 PUSH0 CALLER PUSH20 0xFFFFFFFFFFFFFFFFFFFFFFFFFFFFFFFFFFFFFFFF AND PUSH20 0xFFFFFFFFFFFFFFFFFFFFFFFFFFFFFFFFFFFFFFFF AND DUP2 MSTORE PUSH1 0x20 ADD SWAP1 DUP2 MSTORE PUSH1 0x20 ADD PUSH0 KECCAK256 SLOAD SELFBALANCE LT ISZERO PUSH2 0x5B4 JUMPI PUSH1 0x40 MLOAD PUSH32 0x8C379A000000000000000000000000000000000000000000000000000000000 DUP2 MSTORE PUSH1 0x4 ADD PUSH2 0x5AB SWAP1 PUSH2 0xDB1 JUMP JUMPDEST PUSH1 0x40 MLOAD DUP1 SWAP2 SUB SWAP1 REVERT JUMPDEST PUSH0 PUSH1 0x64 PUSH1 0x8 PUSH1 0x5 PUSH0 CALLER PUSH20 0xFFFFFFFFFFFFFFFFFFFFFFFFFFFFFFFFFFFFFFFF AND PUSH20 0xFFFFFFFFFFFFFFFFFFFFFFFFFFFFFFFFFFFFFFFF AND DUP2 MSTORE PUSH1 0x20 ADD SWAP1 DUP2 MSTORE PUSH1 0x20 ADD PUSH0 KECCAK256 SLOAD PUSH2 0x601 SWAP2 SWAP1 PUSH2 0xDCF JUMP JUMPDEST PUSH2 0x60B SWAP2 SWAP1 PUSH2 0xE3D JUMP JUMPDEST SWAP1 POP PUSH0 PUSH1 0x5 PUSH0 CALLER PUSH20 0xFFFFFFFFFFFFFFFFFFFFFFFFFFFFFFFFFFFFFFFF AND PUSH20 0xFFFFFFFFFFFFFFFFFFFFFFFFFFFFFFFFFFFFFFFF AND DUP2 MSTORE PUSH1 0x20 ADD SWAP1 DUP2 MSTORE PUSH1 0x20 ADD PUSH0 KECCAK256 SLOAD DUP3 PUSH2 0x657 SWAP2 SWAP1 PUSH2 0xC64 JUMP JUMPDEST SWAP1 POP CALLER PUSH20 0xFFFFFFFFFFFFFFFFFFFFFFFFFFFFFFFFFFFFFFFF AND PUSH2 0x8FC DUP3 SWAP1 DUP2 ISZERO MUL SWAP1 PUSH1 0x40 MLOAD PUSH0 PUSH1 0x40 MLOAD DUP1 DUP4 SUB DUP2 DUP6 DUP9 DUP9 CALL SWAP4 POP POP POP POP ISZERO DUP1 ISZERO PUSH2 0x69C JUMPI RETURNDATASIZE PUSH0 DUP1 RETURNDATACOPY RETURNDATASIZE PUSH0 REVERT JUMPDEST POP PUSH1 0x5 PUSH0 CALLER PUSH20 0xFFFFFFFFFFFFFFFFFFFFFFFFFFFFFFFFFFFFFFFF AND PUSH20 0xFFFFFFFFFFFFFFFFFFFFFFFFFFFFFFFFFFFFFFFF AND DUP2 MSTORE PUSH1 0x20 ADD SWAP1 DUP2 MSTORE PUSH1 0x20 ADD PUSH0 KECCAK256 SLOAD PUSH1 0x2 PUSH0 DUP3 DUP3 SLOAD PUSH2 0x6EB SWAP2 SWAP1 PUSH2 0xC31 JUMP JUMPDEST SWAP3 POP POP DUP2 SWAP1 SSTORE POP PUSH1 0x5 PUSH0 CALLER PUSH20 0xFFFFFFFFFFFFFFFFFFFFFFFFFFFFFFFFFFFFFFFF AND PUSH20 0xFFFFFFFFFFFFFFFFFFFFFFFFFFFFFFFFFFFFFFFF AND DUP2 MSTORE PUSH1 0x20 ADD SWAP1 DUP2 MSTORE PUSH1 0x20 ADD PUSH0 KECCAK256 SLOAD PUSH1 0x1 PUSH0 DUP3 DUP3 SLOAD PUSH2 0x740 SWAP2 SWAP1 PUSH2 0xC31 JUMP JUMPDEST SWAP3 POP POP DUP2 SWAP1 SSTORE POP POP POP JUMP JUMPDEST PUSH1 0x2 SLOAD DUP2 JUMP JUMPDEST PUSH1 0x6 PUSH1 0x20 MSTORE DUP1 PUSH0 MSTORE PUSH1 0x40 PUSH0 KECCAK256 PUSH0 SWAP2 POP SWAP1 POP SLOAD DUP2 JUMP JUMPDEST PUSH0 SLOAD DUP2 GT ISZERO PUSH2 0x7AA JUMPI PUSH1 0x40 MLOAD PUSH32 0x8C379A000000000000000000000000000000000000000000000000000000000 DUP2 MSTORE PUSH1 0x4 ADD PUSH2 0x7A1 SWAP1 PUSH2 0xEDD JUMP JUMPDEST PUSH1 0x40 MLOAD DUP1 SWAP2 SUB SWAP1 REVERT JUMPDEST PUSH0 PUSH1 0x2 SLOAD GT PUSH2 0x7EE JUMPI PUSH1 0x40 MLOAD PUSH32 0x8C379A000000000000000000000000000000000000000000000000000000000 DUP2 MSTORE PUSH1 0x4 ADD PUSH2 0x7E5 SWAP1 PUSH2 0xF6B JUMP JUMPDEST PUSH1 0x40 MLOAD DUP1 SWAP2 SUB SWAP1 REVERT JUMPDEST DUP1 PUSH1 0x6 PUSH0 CALLER PUSH20 0xFFFFFFFFFFFFFFFFFFFFFFFFFFFFFFFFFFFFFFFF AND PUSH20 0xFFFFFFFFFFFFFFFFFFFFFFFFFFFFFFFFFFFFFFFF AND DUP2 MSTORE PUSH1 0x20 ADD SWAP1 DUP2 MSTORE PUSH1 0x20 ADD PUSH0 KECCAK256 PUSH0 DUP3 DUP3 SLOAD PUSH2 0x83A SWAP2 SWAP1 PUSH2 0xC64 JUMP JUMPDEST SWAP3 POP POP DUP2 SWAP1 SSTORE POP CALLER PUSH20 0xFFFFFFFFFFFFFFFFFFFFFFFFFFFFFFFFFFFFFFFF AND PUSH2 0x8FC DUP3 SWAP1 DUP2 ISZERO MUL SWAP1 PUSH1 0x40 MLOAD PUSH0 PUSH1 0x40 MLOAD DUP1 DUP4 SUB DUP2 DUP6 DUP9 DUP9 CALL SWAP4 POP POP POP POP ISZERO DUP1 ISZERO PUSH2 0x884 JUMPI RETURNDATASIZE PUSH0 DUP1 RETURNDATACOPY RETURNDATASIZE PUSH0 REVERT JUMPDEST POP DUP1 PUSH1 0x2 PUSH0 DUP3 DUP3 SLOAD PUSH2 0x896 SWAP2 SWAP1 PUSH2 0xC31 JUMP JUMPDEST SWAP3 POP POP DUP2 SWAP1 SSTORE POP PUSH0 PUSH1 0x64 PUSH1 0xA PUSH1 0x6 PUSH0 CALLER PUSH20 0xFFFFFFFFFFFFFFFFFFFFFFFFFFFFFFFFFFFFFFFF AND PUSH20 0xFFFFFFFFFFFFFFFFFFFFFFFFFFFFFFFFFFFFFFFF AND DUP2 MSTORE PUSH1 0x20 ADD SWAP1 DUP2 MSTORE PUSH1 0x20 ADD PUSH0 KECCAK256 SLOAD PUSH2 0x8EA SWAP2 SWAP1 PUSH2 0xDCF JUMP JUMPDEST PUSH2 0x8F4 SWAP2 SWAP1 PUSH2 0xE3D JUMP JUMPDEST SWAP1 POP DUP1 PUSH1 0x6 PUSH0 CALLER PUSH20 0xFFFFFFFFFFFFFFFFFFFFFFFFFFFFFFFFFFFFFFFF AND PUSH20 0xFFFFFFFFFFFFFFFFFFFFFFFFFFFFFFFFFFFFFFFF AND DUP2 MSTORE PUSH1 0x20 ADD SWAP1 DUP2 MSTORE PUSH1 0x20 ADD PUSH0 KECCAK256 SLOAD PUSH2 0x93F SWAP2 SWAP1 PUSH2 0xC64 JUMP JUMPDEST PUSH1 0x3 DUP2 SWAP1 SSTORE POP PUSH1 0x3 SLOAD PUSH1 0x7 PUSH0 CALLER PUSH20 0xFFFFFFFFFFFFFFFFFFFFFFFFFFFFFFFFFFFFFFFF AND PUSH20 0xFFFFFFFFFFFFFFFFFFFFFFFFFFFFFFFFFFFFFFFF AND DUP2 MSTORE PUSH1 0x20 ADD SWAP1 DUP2 MSTORE PUSH1 0x20 ADD PUSH0 KECCAK256 PUSH0 DUP3 DUP3 SLOAD PUSH2 0x993 SWAP2 SWAP1 PUSH2 0xC64 JUMP JUMPDEST SWAP3 POP POP DUP2 SWAP1 SSTORE POP PUSH1 0x7 PUSH0 CALLER PUSH20 0xFFFFFFFFFFFFFFFFFFFFFFFFFFFFFFFFFFFFFFFF AND PUSH20 0xFFFFFFFFFFFFFFFFFFFFFFFFFFFFFFFFFFFFFFFF AND DUP2 MSTORE PUSH1 0x20 ADD SWAP1 DUP2 MSTORE PUSH1 0x20 ADD PUSH0 KECCAK256 SLOAD PUSH1 0x4 DUP2 SWAP1 SSTORE POP POP POP JUMP JUMPDEST PUSH0 DUP1 REVERT JUMPDEST PUSH0 DUP2 SWAP1 POP SWAP2 SWAP1 POP JUMP JUMPDEST PUSH2 0x9F8 DUP2 PUSH2 0x9E6 JUMP JUMPDEST DUP2 EQ PUSH2 0xA02 JUMPI PUSH0 DUP1 REVERT JUMPDEST POP JUMP JUMPDEST PUSH0 DUP2 CALLDATALOAD SWAP1 POP PUSH2 0xA13 DUP2 PUSH2 0x9EF JUMP JUMPDEST SWAP3 SWAP2 POP POP JUMP JUMPDEST PUSH0 PUSH1 0x20 DUP3 DUP5 SUB SLT ISZERO PUSH2 0xA2E JUMPI PUSH2 0xA2D PUSH2 0x9E2 JUMP JUMPDEST JUMPDEST PUSH0 PUSH2 0xA3B DUP5 DUP3 DUP6 ADD PUSH2 0xA05 JUMP JUMPDEST SWAP2 POP POP SWAP3 SWAP2 POP POP JUMP JUMPDEST PUSH0 DUP2 ISZERO ISZERO SWAP1 POP SWAP2 SWAP1 POP JUMP JUMPDEST PUSH2 0xA58 DUP2 PUSH2 0xA44 JUMP JUMPDEST DUP3 MSTORE POP POP JUMP JUMPDEST PUSH0 PUSH1 0x20 DUP3 ADD SWAP1 POP PUSH2 0xA71 PUSH0 DUP4 ADD DUP5 PUSH2 0xA4F JUMP JUMPDEST SWAP3 SWAP2 POP POP JUMP JUMPDEST PUSH2 0xA80 DUP2 PUSH2 0x9E6 JUMP JUMPDEST DUP3 MSTORE POP POP JUMP JUMPDEST PUSH0 PUSH1 0x20 DUP3 ADD SWAP1 POP PUSH2 0xA99 PUSH0 DUP4 ADD DUP5 PUSH2 0xA77 JUMP JUMPDEST SWAP3 SWAP2 POP POP JUMP JUMPDEST PUSH0 PUSH20 0xFFFFFFFFFFFFFFFFFFFFFFFFFFFFFFFFFFFFFFFF DUP3 AND SWAP1 POP SWAP2 SWAP1 POP JUMP JUMPDEST PUSH0 PUSH2 0xAC8 DUP3 PUSH2 0xA9F JUMP JUMPDEST SWAP1 POP SWAP2 SWAP1 POP JUMP JUMPDEST PUSH2 0xAD8 DUP2 PUSH2 0xABE JUMP JUMPDEST DUP2 EQ PUSH2 0xAE2 JUMPI PUSH0 DUP1 REVERT JUMPDEST POP JUMP JUMPDEST PUSH0 DUP2 CALLDATALOAD SWAP1 POP PUSH2 0xAF3 DUP2 PUSH2 0xACF JUMP JUMPDEST SWAP3 SWAP2 POP POP JUMP JUMPDEST PUSH0 PUSH1 0x20 DUP3 DUP5 SUB SLT ISZERO PUSH2 0xB0E JUMPI PUSH2 0xB0D PUSH2 0x9E2 JUMP JUMPDEST JUMPDEST PUSH0 PUSH2 0xB1B DUP5 DUP3 DUP6 ADD PUSH2 0xAE5 JUMP JUMPDEST SWAP2 POP POP SWAP3 SWAP2 POP POP JUMP JUMPDEST PUSH0 DUP3 DUP3 MSTORE PUSH1 0x20 DUP3 ADD SWAP1 POP SWAP3 SWAP2 POP POP JUMP JUMPDEST PUSH32 0x596F75206469646E277420626F72726F7720616E792066756E64000000000000 PUSH0 DUP3 ADD MSTORE POP JUMP JUMPDEST PUSH0 PUSH2 0xB68 PUSH1 0x1A DUP4 PUSH2 0xB24 JUMP JUMPDEST SWAP2 POP PUSH2 0xB73 DUP3 PUSH2 0xB34 JUMP JUMPDEST PUSH1 0x20 DUP3 ADD SWAP1 POP SWAP2 SWAP1 POP JUMP JUMPDEST PUSH0 PUSH1 0x20 DUP3 ADD SWAP1 POP DUP2 DUP2 SUB PUSH0 DUP4 ADD MSTORE PUSH2 0xB95 DUP2 PUSH2 0xB5C JUMP JUMPDEST SWAP1 POP SWAP2 SWAP1 POP JUMP JUMPDEST PUSH32 0x796F752063616E277420726566756E64206D6F726520616D6F756E7400000000 PUSH0 DUP3 ADD MSTORE POP JUMP JUMPDEST PUSH0 PUSH2 0xBD0 PUSH1 0x1C DUP4 PUSH2 0xB24 JUMP JUMPDEST SWAP2 POP PUSH2 0xBDB DUP3 PUSH2 0xB9C JUMP JUMPDEST PUSH1 0x20 DUP3 ADD SWAP1 POP SWAP2 SWAP1 POP JUMP JUMPDEST PUSH0 PUSH1 0x20 DUP3 ADD SWAP1 POP DUP2 DUP2 SUB PUSH0 DUP4 ADD MSTORE PUSH2 0xBFD DUP2 PUSH2 0xBC4 JUMP JUMPDEST SWAP1 POP SWAP2 SWAP1 POP JUMP JUMPDEST PUSH32 0x4E487B7100000000000000000000000000000000000000000000000000000000 PUSH0 MSTORE PUSH1 0x11 PUSH1 0x4 MSTORE PUSH1 0x24 PUSH0 REVERT JUMPDEST PUSH0 PUSH2 0xC3B DUP3 PUSH2 0x9E6 JUMP JUMPDEST SWAP2 POP PUSH2 0xC46 DUP4 PUSH2 0x9E6 JUMP JUMPDEST SWAP3 POP DUP3 DUP3 SUB SWAP1 POP DUP2 DUP2 GT ISZERO PUSH2 0xC5E JUMPI PUSH2 0xC5D PUSH2 0xC04 JUMP JUMPDEST JUMPDEST SWAP3 SWAP2 POP POP JUMP JUMPDEST PUSH0 PUSH2 0xC6E DUP3 PUSH2 0x9E6 JUMP JUMPDEST SWAP2 POP PUSH2 0xC79 DUP4 PUSH2 0x9E6 JUMP JUMPDEST SWAP3 POP DUP3 DUP3 ADD SWAP1 POP DUP1 DUP3 GT ISZERO PUSH2 0xC91 JUMPI PUSH2 0xC90 PUSH2 0xC04 JUMP JUMPDEST JUMPDEST SWAP3 SWAP2 POP POP JUMP JUMPDEST PUSH32 0x616D6F756E74206D75732062652067726561746572207468616E203000000000 PUSH0 DUP3 ADD MSTORE POP JUMP JUMPDEST PUSH0 PUSH2 0xCCB PUSH1 0x1C DUP4 PUSH2 0xB24 JUMP JUMPDEST SWAP2 POP PUSH2 0xCD6 DUP3 PUSH2 0xC97 JUMP JUMPDEST PUSH1 0x20 DUP3 ADD SWAP1 POP SWAP2 SWAP1 POP JUMP JUMPDEST PUSH0 PUSH1 0x20 DUP3 ADD SWAP1 POP DUP2 DUP2 SUB PUSH0 DUP4 ADD MSTORE PUSH2 0xCF8 DUP2 PUSH2 0xCBF JUMP JUMPDEST SWAP1 POP SWAP2 SWAP1 POP JUMP JUMPDEST PUSH32 0x596F75206469646E2774206465706F73697420616E792066756E640000000000 PUSH0 DUP3 ADD MSTORE POP JUMP JUMPDEST PUSH0 PUSH2 0xD33 PUSH1 0x1B DUP4 PUSH2 0xB24 JUMP JUMPDEST SWAP2 POP PUSH2 0xD3E DUP3 PUSH2 0xCFF JUMP JUMPDEST PUSH1 0x20 DUP3 ADD SWAP1 POP SWAP2 SWAP1 POP JUMP JUMPDEST PUSH0 PUSH1 0x20 DUP3 ADD SWAP1 POP DUP2 DUP2 SUB PUSH0 DUP4 ADD MSTORE PUSH2 0xD60 DUP2 PUSH2 0xD27 JUMP JUMPDEST SWAP1 POP SWAP2 SWAP1 POP JUMP JUMPDEST PUSH32 0x7468657265206973206E6F7420656E6F7567682066756E640000000000000000 PUSH0 DUP3 ADD MSTORE POP JUMP JUMPDEST PUSH0 PUSH2 0xD9B PUSH1 0x18 DUP4 PUSH2 0xB24 JUMP JUMPDEST SWAP2 POP PUSH2 0xDA6 DUP3 PUSH2 0xD67 JUMP JUMPDEST PUSH1 0x20 DUP3 ADD SWAP1 POP SWAP2 SWAP1 POP JUMP JUMPDEST PUSH0 PUSH1 0x20 DUP3 ADD SWAP1 POP DUP2 DUP2 SUB PUSH0 DUP4 ADD MSTORE PUSH2 0xDC8 DUP2 PUSH2 0xD8F JUMP JUMPDEST SWAP1 POP SWAP2 SWAP1 POP JUMP JUMPDEST PUSH0 PUSH2 0xDD9 DUP3 PUSH2 0x9E6 JUMP JUMPDEST SWAP2 POP PUSH2 0xDE4 DUP4 PUSH2 0x9E6 JUMP JUMPDEST SWAP3 POP DUP3 DUP3 MUL PUSH2 0xDF2 DUP2 PUSH2 0x9E6 JUMP JUMPDEST SWAP2 POP DUP3 DUP3 DIV DUP5 EQ DUP4 ISZERO OR PUSH2 0xE09 JUMPI PUSH2 0xE08 PUSH2 0xC04 JUMP JUMPDEST JUMPDEST POP SWAP3 SWAP2 POP POP JUMP JUMPDEST PUSH32 0x4E487B7100000000000000000000000000000000000000000000000000000000 PUSH0 MSTORE PUSH1 0x12 PUSH1 0x4 MSTORE PUSH1 0x24 PUSH0 REVERT JUMPDEST PUSH0 PUSH2 0xE47 DUP3 PUSH2 0x9E6 JUMP JUMPDEST SWAP2 POP PUSH2 0xE52 DUP4 PUSH2 0x9E6 JUMP JUMPDEST SWAP3 POP DUP3 PUSH2 0xE62 JUMPI PUSH2 0xE61 PUSH2 0xE10 JUMP JUMPDEST JUMPDEST DUP3 DUP3 DIV SWAP1 POP SWAP3 SWAP2 POP POP JUMP JUMPDEST PUSH32 0x796F752063616E277420626F72726F77206D6F7265207468616E206465706F73 PUSH0 DUP3 ADD MSTORE PUSH32 0x6974656400000000000000000000000000000000000000000000000000000000 PUSH1 0x20 DUP3 ADD MSTORE POP JUMP JUMPDEST PUSH0 PUSH2 0xEC7 PUSH1 0x24 DUP4 PUSH2 0xB24 JUMP JUMPDEST SWAP2 POP PUSH2 0xED2 DUP3 PUSH2 0xE6D JUMP JUMPDEST PUSH1 0x40 DUP3 ADD SWAP1 POP SWAP2 SWAP1 POP JUMP JUMPDEST PUSH0 PUSH1 0x20 DUP3 ADD SWAP1 POP DUP2 DUP2 SUB PUSH0 DUP4 ADD MSTORE PUSH2 0xEF4 DUP2 PUSH2 0xEBB JUMP JUMPDEST SWAP1 POP SWAP2 SWAP1 POP JUMP JUMPDEST PUSH32 0x736F727279207468657265206973206E6F2066756E6420666F7220626F72726F PUSH0 DUP3 ADD MSTORE PUSH32 0x7700000000000000000000000000000000000000000000000000000000000000 PUSH1 0x20 DUP3 ADD MSTORE POP JUMP JUMPDEST PUSH0 PUSH2 0xF55 PUSH1 0x21 DUP4 PUSH2 0xB24 JUMP JUMPDEST SWAP2 POP PUSH2 0xF60 DUP3 PUSH2 0xEFB JUMP JUMPDEST PUSH1 0x40 DUP3 ADD SWAP1 POP SWAP2 SWAP1 POP JUMP JUMPDEST PUSH0 PUSH1 0x20 DUP3 ADD SWAP1 POP DUP2 DUP2 SUB PUSH0 DUP4 ADD MSTORE PUSH2 0xF82 DUP2 PUSH2 0xF49 JUMP JUMPDEST SWAP1 POP SWAP2 SWAP1 POP JUMP INVALID LOG2 PUSH5 0x6970667358 0x22 SLT KECCAK256 0xF8 0xAA BLOCKHASH JUMPDEST SAR LOG0 0xCA 0xFC 0xB4 GASLIMIT 0xE2 PUSH24 0x6032E988AC47C1632F74949EF4931AB118B8A52A64736F6C PUSH4 0x43000814 STOP CALLER "
				},
				"gasEstimates": {
					"creation": {
						"codeDepositCost": "806200",
						"executionCost": "20856",
						"totalCost": "827056"
					},
					"external": {
						"BorrowAmount(address)": "2868",
						"DepositAmount(address)": "2802",
						"TotalRefund()": "2586",
						"borrowFund(uint256)": "infinite",
						"checkBorrow()": "2585",
						"depositFund(uint256)": "infinite",
						"removeLiquidity()": "infinite",
						"returnFund(uint256)": "infinite",
						"updatedPool()": "2469"
					}
				},
				"methodIdentifiers": {
					"BorrowAmount(address)": "aec965d7",
					"DepositAmount(address)": "64f72b21",
					"TotalRefund()": "59ae2f1b",
					"borrowFund(uint256)": "c31b0ea0",
					"checkBorrow()": "2844f234",
					"depositFund(uint256)": "585e5d20",
					"removeLiquidity()": "67b9a286",
					"returnFund(uint256)": "02bae403",
					"updatedPool()": "981faa9a"
				}
			},
			"storageLayout": {
				"storage": [
					{
						"astId": 31,
						"contract": "Borrow_Lending.sol:Borrow_Lending",
						"label": "damount",
						"offset": 0,
						"slot": "0",
						"type": "t_uint256"
					},
					{
						"astId": 34,
						"contract": "Borrow_Lending.sol:Borrow_Lending",
						"label": "totalPool",
						"offset": 0,
						"slot": "1",
						"type": "t_uint256"
					},
					{
						"astId": 37,
						"contract": "Borrow_Lending.sol:Borrow_Lending",
						"label": "updatedPool",
						"offset": 0,
						"slot": "2",
						"type": "t_uint256"
					},
					{
						"astId": 40,
						"contract": "Borrow_Lending.sol:Borrow_Lending",
						"label": "withIntAmount",
						"offset": 0,
						"slot": "3",
						"type": "t_uint256"
					},
					{
						"astId": 43,
						"contract": "Borrow_Lending.sol:Borrow_Lending",
						"label": "withPendingInt",
						"offset": 0,
						"slot": "4",
						"type": "t_uint256"
					},
					{
						"astId": 47,
						"contract": "Borrow_Lending.sol:Borrow_Lending",
						"label": "DepositAmount",
						"offset": 0,
						"slot": "5",
						"type": "t_mapping(t_address,t_uint256)"
					},
					{
						"astId": 51,
						"contract": "Borrow_Lending.sol:Borrow_Lending",
						"label": "BorrowAmount",
						"offset": 0,
						"slot": "6",
						"type": "t_mapping(t_address,t_uint256)"
					},
					{
						"astId": 55,
						"contract": "Borrow_Lending.sol:Borrow_Lending",
						"label": "withInterest",
						"offset": 0,
						"slot": "7",
						"type": "t_mapping(t_address,t_uint256)"
					}
				],
				"types": {
					"t_address": {
						"encoding": "inplace",
						"label": "address",
						"numberOfBytes": "20"
					},
					"t_mapping(t_address,t_uint256)": {
						"encoding": "mapping",
						"key": "t_address",
						"label": "mapping(address => uint256)",
						"numberOfBytes": "32",
						"value": "t_uint256"
					},
					"t_uint256": {
						"encoding": "inplace",
						"label": "uint256",
						"numberOfBytes": "32"
					}
				}
			},
			"userdoc": {
				"kind": "user",
				"methods": {},
				"version": 1
			}
		}
	}
}