{
	"CrowdFunding.sol": {
		"CrowdFunding": {
			"abi": [
				{
					"inputs": [],
					"stateMutability": "nonpayable",
					"type": "constructor"
				},
				{
					"anonymous": false,
					"inputs": [
						{
							"indexed": false,
							"internalType": "uint256",
							"name": "campaignId",
							"type": "uint256"
						},
						{
							"indexed": false,
							"internalType": "string",
							"name": "campaignName",
							"type": "string"
						},
						{
							"indexed": false,
							"internalType": "uint256",
							"name": "targetAmount",
							"type": "uint256"
						},
						{
							"indexed": false,
							"internalType": "uint256",
							"name": "timeDuration",
							"type": "uint256"
						}
					],
					"name": "CampaignCreated",
					"type": "event"
				},
				{
					"anonymous": false,
					"inputs": [
						{
							"indexed": false,
							"internalType": "uint256",
							"name": "campaignId",
							"type": "uint256"
						},
						{
							"indexed": false,
							"internalType": "address",
							"name": "contributor",
							"type": "address"
						},
						{
							"indexed": false,
							"internalType": "uint256",
							"name": "amount",
							"type": "uint256"
						}
					],
					"name": "ContributionMade",
					"type": "event"
				},
				{
					"anonymous": false,
					"inputs": [
						{
							"indexed": false,
							"internalType": "uint256",
							"name": "campaignId",
							"type": "uint256"
						},
						{
							"indexed": false,
							"internalType": "address",
							"name": "contributor",
							"type": "address"
						},
						{
							"indexed": false,
							"internalType": "uint256",
							"name": "amount",
							"type": "uint256"
						}
					],
					"name": "RefundIssued",
					"type": "event"
				},
				{
					"anonymous": false,
					"inputs": [
						{
							"indexed": false,
							"internalType": "address",
							"name": "recipient",
							"type": "address"
						},
						{
							"indexed": false,
							"internalType": "uint256",
							"name": "amount",
							"type": "uint256"
						}
					],
					"name": "TokensIssued",
					"type": "event"
				},
				{
					"inputs": [],
					"name": "TOTAL_TOKEN_SUPPLY",
					"outputs": [
						{
							"internalType": "uint256",
							"name": "",
							"type": "uint256"
						}
					],
					"stateMutability": "view",
					"type": "function"
				},
				{
					"inputs": [
						{
							"internalType": "uint256",
							"name": "",
							"type": "uint256"
						},
						{
							"internalType": "address",
							"name": "",
							"type": "address"
						}
					],
					"name": "campaignContributions",
					"outputs": [
						{
							"internalType": "uint256",
							"name": "",
							"type": "uint256"
						}
					],
					"stateMutability": "view",
					"type": "function"
				},
				{
					"inputs": [
						{
							"internalType": "uint256",
							"name": "",
							"type": "uint256"
						},
						{
							"internalType": "uint256",
							"name": "",
							"type": "uint256"
						}
					],
					"name": "campaignContributors",
					"outputs": [
						{
							"internalType": "address",
							"name": "",
							"type": "address"
						}
					],
					"stateMutability": "view",
					"type": "function"
				},
				{
					"inputs": [],
					"name": "campaignIdCounter",
					"outputs": [
						{
							"internalType": "uint256",
							"name": "",
							"type": "uint256"
						}
					],
					"stateMutability": "view",
					"type": "function"
				},
				{
					"inputs": [
						{
							"internalType": "uint256",
							"name": "",
							"type": "uint256"
						}
					],
					"name": "campaigns",
					"outputs": [
						{
							"internalType": "string",
							"name": "campaignName",
							"type": "string"
						},
						{
							"internalType": "uint256",
							"name": "targetAmount",
							"type": "uint256"
						},
						{
							"internalType": "uint256",
							"name": "timeDuration",
							"type": "uint256"
						},
						{
							"internalType": "uint256",
							"name": "raisedFund",
							"type": "uint256"
						},
						{
							"internalType": "uint256",
							"name": "pendingRaisedFund",
							"type": "uint256"
						},
						{
							"internalType": "bool",
							"name": "funded",
							"type": "bool"
						}
					],
					"stateMutability": "view",
					"type": "function"
				},
				{
					"inputs": [
						{
							"internalType": "uint256",
							"name": "_campaignId",
							"type": "uint256"
						}
					],
					"name": "contributeToCampaign",
					"outputs": [],
					"stateMutability": "payable",
					"type": "function"
				},
				{
					"inputs": [
						{
							"internalType": "string",
							"name": "_campaignName",
							"type": "string"
						},
						{
							"internalType": "uint256",
							"name": "_targetAmount",
							"type": "uint256"
						},
						{
							"internalType": "uint256",
							"name": "_timeDuration",
							"type": "uint256"
						}
					],
					"name": "createCampaign",
					"outputs": [
						{
							"internalType": "uint256",
							"name": "",
							"type": "uint256"
						}
					],
					"stateMutability": "nonpayable",
					"type": "function"
				},
				{
					"inputs": [
						{
							"internalType": "uint256",
							"name": "_campaignId",
							"type": "uint256"
						}
					],
					"name": "requestRefund",
					"outputs": [],
					"stateMutability": "nonpayable",
					"type": "function"
				},
				{
					"inputs": [
						{
							"internalType": "address",
							"name": "",
							"type": "address"
						}
					],
					"name": "tokenBalances",
					"outputs": [
						{
							"internalType": "uint256",
							"name": "",
							"type": "uint256"
						}
					],
					"stateMutability": "view",
					"type": "function"
				}
			],
			"devdoc": {
				"kind": "dev",
				"methods": {},
				"version": 1
			},
			"evm": {
				"assembly": "    /* \"CrowdFunding.sol\":60:4936  contract CrowdFunding ... */\n  mstore(0x40, 0x80)\n    /* \"CrowdFunding.sol\":957:973  constructor() {} */\n  callvalue\n  dup1\n  iszero\n  tag_1\n  jumpi\n  0x00\n  dup1\n  revert\ntag_1:\n  pop\n    /* \"CrowdFunding.sol\":60:4936  contract CrowdFunding ... */\n  dataSize(sub_0)\n  dup1\n  dataOffset(sub_0)\n  0x00\n  codecopy\n  0x00\n  return\nstop\n\nsub_0: assembly {\n        /* \"CrowdFunding.sol\":60:4936  contract CrowdFunding ... */\n      mstore(0x40, 0x80)\n      jumpi(tag_1, lt(calldatasize, 0x04))\n      shr(0xe0, calldataload(0x00))\n      dup1\n      0x3020580b\n      gt\n      tag_11\n      jumpi\n      dup1\n      0x3020580b\n      eq\n      tag_6\n      jumpi\n      dup1\n      0x523fba7f\n      eq\n      tag_7\n      jumpi\n      dup1\n      0xa4b2409e\n      eq\n      tag_8\n      jumpi\n      dup1\n      0xccf053ba\n      eq\n      tag_9\n      jumpi\n      dup1\n      0xff96de21\n      eq\n      tag_10\n      jumpi\n      jump(tag_1)\n    tag_11:\n      dup1\n      0x0b7ef89b\n      eq\n      tag_2\n      jumpi\n      dup1\n      0x141961bc\n      eq\n      tag_3\n      jumpi\n      dup1\n      0x22c59958\n      eq\n      tag_4\n      jumpi\n      dup1\n      0x2e618676\n      eq\n      tag_5\n      jumpi\n    tag_1:\n      0x00\n      dup1\n      revert\n        /* \"CrowdFunding.sol\":1784:2839  function contributeToCampaign(uint _campaignId) payable public ... */\n    tag_2:\n      tag_12\n      0x04\n      dup1\n      calldatasize\n      sub\n      dup2\n      add\n      swap1\n      tag_13\n      swap2\n      swap1\n      tag_14\n      jump\t// in\n    tag_13:\n      tag_15\n      jump\t// in\n    tag_12:\n      stop\n        /* \"CrowdFunding.sol\":295:337  mapping(uint => Campaign) public campaigns */\n    tag_3:\n      callvalue\n      dup1\n      iszero\n      tag_16\n      jumpi\n      0x00\n      dup1\n      revert\n    tag_16:\n      pop\n      tag_17\n      0x04\n      dup1\n      calldatasize\n      sub\n      dup2\n      add\n      swap1\n      tag_18\n      swap2\n      swap1\n      tag_14\n      jump\t// in\n    tag_18:\n      tag_19\n      jump\t// in\n    tag_17:\n      mload(0x40)\n      tag_20\n      swap7\n      swap6\n      swap5\n      swap4\n      swap3\n      swap2\n      swap1\n      tag_21\n      jump\t// in\n    tag_20:\n      mload(0x40)\n      dup1\n      swap2\n      sub\n      swap1\n      return\n        /* \"CrowdFunding.sol\":344:414  mapping(uint => mapping(address => uint)) public campaignContributions */\n    tag_4:\n      callvalue\n      dup1\n      iszero\n      tag_22\n      jumpi\n      0x00\n      dup1\n      revert\n    tag_22:\n      pop\n      tag_23\n      0x04\n      dup1\n      calldatasize\n      sub\n      dup2\n      add\n      swap1\n      tag_24\n      swap2\n      swap1\n      tag_25\n      jump\t// in\n    tag_24:\n      tag_26\n      jump\t// in\n    tag_23:\n      mload(0x40)\n      tag_27\n      swap2\n      swap1\n      tag_28\n      jump\t// in\n    tag_27:\n      mload(0x40)\n      dup1\n      swap2\n      sub\n      swap1\n      return\n        /* \"CrowdFunding.sol\":484:513  uint public campaignIdCounter */\n    tag_5:\n      callvalue\n      dup1\n      iszero\n      tag_29\n      jumpi\n      0x00\n      dup1\n      revert\n    tag_29:\n      pop\n      tag_30\n      tag_31\n      jump\t// in\n    tag_30:\n      mload(0x40)\n      tag_32\n      swap2\n      swap1\n      tag_28\n      jump\t// in\n    tag_32:\n      mload(0x40)\n      dup1\n      swap2\n      sub\n      swap1\n      return\n        /* \"CrowdFunding.sol\":981:1776  function createCampaign(string memory _campaignName, uint _targetAmount, uint _timeDuration) public returns(uint) ... */\n    tag_6:\n      callvalue\n      dup1\n      iszero\n      tag_33\n      jumpi\n      0x00\n      dup1\n      revert\n    tag_33:\n      pop\n      tag_34\n      0x04\n      dup1\n      calldatasize\n      sub\n      dup2\n      add\n      swap1\n      tag_35\n      swap2\n      swap1\n      tag_36\n      jump\t// in\n    tag_35:\n      tag_37\n      jump\t// in\n    tag_34:\n      mload(0x40)\n      tag_38\n      swap2\n      swap1\n      tag_28\n      jump\t// in\n    tag_38:\n      mload(0x40)\n      dup1\n      swap2\n      sub\n      swap1\n      return\n        /* \"CrowdFunding.sol\":903:948  mapping(address => uint) public tokenBalances */\n    tag_7:\n      callvalue\n      dup1\n      iszero\n      tag_39\n      jumpi\n      0x00\n      dup1\n      revert\n    tag_39:\n      pop\n      tag_40\n      0x04\n      dup1\n      calldatasize\n      sub\n      dup2\n      add\n      swap1\n      tag_41\n      swap2\n      swap1\n      tag_42\n      jump\t// in\n    tag_41:\n      tag_43\n      jump\t// in\n    tag_40:\n      mload(0x40)\n      tag_44\n      swap2\n      swap1\n      tag_28\n      jump\t// in\n    tag_44:\n      mload(0x40)\n      dup1\n      swap2\n      sub\n      swap1\n      return\n        /* \"CrowdFunding.sol\":4279:4931  function requestRefund(uint _campaignId) public ... */\n    tag_8:\n      callvalue\n      dup1\n      iszero\n      tag_45\n      jumpi\n      0x00\n      dup1\n      revert\n    tag_45:\n      pop\n      tag_46\n      0x04\n      dup1\n      calldatasize\n      sub\n      dup2\n      add\n      swap1\n      tag_47\n      swap2\n      swap1\n      tag_14\n      jump\t// in\n    tag_47:\n      tag_48\n      jump\t// in\n    tag_46:\n      stop\n        /* \"CrowdFunding.sol\":520:575  uint public constant TOTAL_TOKEN_SUPPLY = 1_000_000_000 */\n    tag_9:\n      callvalue\n      dup1\n      iszero\n      tag_49\n      jumpi\n      0x00\n      dup1\n      revert\n    tag_49:\n      pop\n      tag_50\n      tag_51\n      jump\t// in\n    tag_50:\n      mload(0x40)\n      tag_52\n      swap2\n      swap1\n      tag_28\n      jump\t// in\n    tag_52:\n      mload(0x40)\n      dup1\n      swap2\n      sub\n      swap1\n      return\n        /* \"CrowdFunding.sol\":421:475  mapping(uint => address[]) public campaignContributors */\n    tag_10:\n      callvalue\n      dup1\n      iszero\n      tag_53\n      jumpi\n      0x00\n      dup1\n      revert\n    tag_53:\n      pop\n      tag_54\n      0x04\n      dup1\n      calldatasize\n      sub\n      dup2\n      add\n      swap1\n      tag_55\n      swap2\n      swap1\n      tag_56\n      jump\t// in\n    tag_55:\n      tag_57\n      jump\t// in\n    tag_54:\n      mload(0x40)\n      tag_58\n      swap2\n      swap1\n      tag_59\n      jump\t// in\n    tag_58:\n      mload(0x40)\n      dup1\n      swap2\n      sub\n      swap1\n      return\n        /* \"CrowdFunding.sol\":1784:2839  function contributeToCampaign(uint _campaignId) payable public ... */\n    tag_15:\n        /* \"CrowdFunding.sol\":1910:1911  0 */\n      0x00\n        /* \"CrowdFunding.sol\":1872:1881  campaigns */\n      dup1\n        /* \"CrowdFunding.sol\":1872:1894  campaigns[_campaignId] */\n      0x00\n        /* \"CrowdFunding.sol\":1882:1893  _campaignId */\n      dup4\n        /* \"CrowdFunding.sol\":1872:1894  campaigns[_campaignId] */\n      dup2\n      mstore\n      0x20\n      add\n      swap1\n      dup2\n      mstore\n      0x20\n      add\n      0x00\n      keccak256\n        /* \"CrowdFunding.sol\":1872:1907  campaigns[_campaignId].targetAmount */\n      0x01\n      add\n      sload\n        /* \"CrowdFunding.sol\":1872:1911  campaigns[_campaignId].targetAmount > 0 */\n      gt\n        /* \"CrowdFunding.sol\":1864:1939  require(campaigns[_campaignId].targetAmount > 0, \"Campaign does not exist\") */\n      tag_61\n      jumpi\n      mload(0x40)\n      0x08c379a000000000000000000000000000000000000000000000000000000000\n      dup2\n      mstore\n      0x04\n      add\n      tag_62\n      swap1\n      tag_63\n      jump\t// in\n    tag_62:\n      mload(0x40)\n      dup1\n      swap2\n      sub\n      swap1\n      revert\n    tag_61:\n        /* \"CrowdFunding.sol\":1959:1968  campaigns */\n      0x00\n        /* \"CrowdFunding.sol\":1959:1981  campaigns[_campaignId] */\n      dup1\n        /* \"CrowdFunding.sol\":1969:1980  _campaignId */\n      dup3\n        /* \"CrowdFunding.sol\":1959:1981  campaigns[_campaignId] */\n      dup2\n      mstore\n      0x20\n      add\n      swap1\n      dup2\n      mstore\n      0x20\n      add\n      0x00\n      keccak256\n        /* \"CrowdFunding.sol\":1959:1988  campaigns[_campaignId].funded */\n      0x05\n      add\n      0x00\n      swap1\n      sload\n      swap1\n      0x0100\n      exp\n      swap1\n      div\n      0xff\n      and\n        /* \"CrowdFunding.sol\":1958:1988  !campaigns[_campaignId].funded */\n      iszero\n        /* \"CrowdFunding.sol\":1950:2038  require(!campaigns[_campaignId].funded, \"Campaign has already reached its funding goal\") */\n      tag_64\n      jumpi\n      mload(0x40)\n      0x08c379a000000000000000000000000000000000000000000000000000000000\n      dup2\n      mstore\n      0x04\n      add\n      tag_65\n      swap1\n      tag_66\n      jump\t// in\n    tag_65:\n      mload(0x40)\n      dup1\n      swap2\n      sub\n      swap1\n      revert\n    tag_64:\n        /* \"CrowdFunding.sol\":2069:2070  0 */\n      0x00\n        /* \"CrowdFunding.sol\":2057:2066  msg.value */\n      callvalue\n        /* \"CrowdFunding.sol\":2057:2070  msg.value > 0 */\n      gt\n        /* \"CrowdFunding.sol\":2049:2120  require(msg.value > 0, \"Contribution amount must be greater than zero\") */\n      tag_67\n      jumpi\n      mload(0x40)\n      0x08c379a000000000000000000000000000000000000000000000000000000000\n      dup2\n      mstore\n      0x04\n      add\n      tag_68\n      swap1\n      tag_69\n      jump\t// in\n    tag_68:\n      mload(0x40)\n      dup1\n      swap2\n      sub\n      swap1\n      revert\n    tag_67:\n        /* \"CrowdFunding.sol\":2170:2179  msg.value */\n      callvalue\n        /* \"CrowdFunding.sol\":2133:2142  campaigns */\n      0x00\n        /* \"CrowdFunding.sol\":2133:2155  campaigns[_campaignId] */\n      dup1\n        /* \"CrowdFunding.sol\":2143:2154  _campaignId */\n      dup4\n        /* \"CrowdFunding.sol\":2133:2155  campaigns[_campaignId] */\n      dup2\n      mstore\n      0x20\n      add\n      swap1\n      dup2\n      mstore\n      0x20\n      add\n      0x00\n      keccak256\n        /* \"CrowdFunding.sol\":2133:2166  campaigns[_campaignId].raisedFund */\n      0x03\n      add\n      0x00\n        /* \"CrowdFunding.sol\":2133:2179  campaigns[_campaignId].raisedFund += msg.value */\n      dup3\n      dup3\n      sload\n      tag_70\n      swap2\n      swap1\n      tag_71\n      jump\t// in\n    tag_70:\n      swap3\n      pop\n      pop\n      dup2\n      swap1\n      sstore\n      pop\n        /* \"CrowdFunding.sol\":2234:2243  msg.value */\n      callvalue\n        /* \"CrowdFunding.sol\":2190:2199  campaigns */\n      0x00\n        /* \"CrowdFunding.sol\":2190:2212  campaigns[_campaignId] */\n      dup1\n        /* \"CrowdFunding.sol\":2200:2211  _campaignId */\n      dup4\n        /* \"CrowdFunding.sol\":2190:2212  campaigns[_campaignId] */\n      dup2\n      mstore\n      0x20\n      add\n      swap1\n      dup2\n      mstore\n      0x20\n      add\n      0x00\n      keccak256\n        /* \"CrowdFunding.sol\":2190:2230  campaigns[_campaignId].pendingRaisedFund */\n      0x04\n      add\n      0x00\n        /* \"CrowdFunding.sol\":2190:2243  campaigns[_campaignId].pendingRaisedFund -= msg.value */\n      dup3\n      dup3\n      sload\n      tag_72\n      swap2\n      swap1\n      tag_73\n      jump\t// in\n    tag_72:\n      swap3\n      pop\n      pop\n      dup2\n      swap1\n      sstore\n      pop\n        /* \"CrowdFunding.sol\":2304:2313  msg.value */\n      callvalue\n        /* \"CrowdFunding.sol\":2254:2275  campaignContributions */\n      0x01\n        /* \"CrowdFunding.sol\":2254:2288  campaignContributions[_campaignId] */\n      0x00\n        /* \"CrowdFunding.sol\":2276:2287  _campaignId */\n      dup4\n        /* \"CrowdFunding.sol\":2254:2288  campaignContributions[_campaignId] */\n      dup2\n      mstore\n      0x20\n      add\n      swap1\n      dup2\n      mstore\n      0x20\n      add\n      0x00\n      keccak256\n        /* \"CrowdFunding.sol\":2254:2300  campaignContributions[_campaignId][msg.sender] */\n      0x00\n        /* \"CrowdFunding.sol\":2289:2299  msg.sender */\n      caller\n        /* \"CrowdFunding.sol\":2254:2300  campaignContributions[_campaignId][msg.sender] */\n      0xffffffffffffffffffffffffffffffffffffffff\n      and\n      0xffffffffffffffffffffffffffffffffffffffff\n      and\n      dup2\n      mstore\n      0x20\n      add\n      swap1\n      dup2\n      mstore\n      0x20\n      add\n      0x00\n      keccak256\n      0x00\n        /* \"CrowdFunding.sol\":2254:2313  campaignContributions[_campaignId][msg.sender] += msg.value */\n      dup3\n      dup3\n      sload\n      tag_74\n      swap2\n      swap1\n      tag_71\n      jump\t// in\n    tag_74:\n      swap3\n      pop\n      pop\n      dup2\n      swap1\n      sstore\n      pop\n        /* \"CrowdFunding.sol\":2462:2471  msg.value */\n      callvalue\n        /* \"CrowdFunding.sol\":2412:2433  campaignContributions */\n      0x01\n        /* \"CrowdFunding.sol\":2412:2446  campaignContributions[_campaignId] */\n      0x00\n        /* \"CrowdFunding.sol\":2434:2445  _campaignId */\n      dup4\n        /* \"CrowdFunding.sol\":2412:2446  campaignContributions[_campaignId] */\n      dup2\n      mstore\n      0x20\n      add\n      swap1\n      dup2\n      mstore\n      0x20\n      add\n      0x00\n      keccak256\n        /* \"CrowdFunding.sol\":2412:2458  campaignContributions[_campaignId][msg.sender] */\n      0x00\n        /* \"CrowdFunding.sol\":2447:2457  msg.sender */\n      caller\n        /* \"CrowdFunding.sol\":2412:2458  campaignContributions[_campaignId][msg.sender] */\n      0xffffffffffffffffffffffffffffffffffffffff\n      and\n      0xffffffffffffffffffffffffffffffffffffffff\n      and\n      dup2\n      mstore\n      0x20\n      add\n      swap1\n      dup2\n      mstore\n      0x20\n      add\n      0x00\n      keccak256\n      sload\n        /* \"CrowdFunding.sol\":2412:2471  campaignContributions[_campaignId][msg.sender] == msg.value */\n      sub\n        /* \"CrowdFunding.sol\":2408:2560  if (campaignContributions[_campaignId][msg.sender] == msg.value) ... */\n      tag_75\n      jumpi\n        /* \"CrowdFunding.sol\":2498:2518  campaignContributors */\n      0x02\n        /* \"CrowdFunding.sol\":2498:2531  campaignContributors[_campaignId] */\n      0x00\n        /* \"CrowdFunding.sol\":2519:2530  _campaignId */\n      dup3\n        /* \"CrowdFunding.sol\":2498:2531  campaignContributors[_campaignId] */\n      dup2\n      mstore\n      0x20\n      add\n      swap1\n      dup2\n      mstore\n      0x20\n      add\n      0x00\n      keccak256\n        /* \"CrowdFunding.sol\":2537:2547  msg.sender */\n      caller\n        /* \"CrowdFunding.sol\":2498:2548  campaignContributors[_campaignId].push(msg.sender) */\n      swap1\n      dup1\n      0x01\n      dup2\n      sload\n      add\n      dup1\n      dup3\n      sstore\n      dup1\n      swap2\n      pop\n      pop\n      0x01\n      swap1\n      sub\n      swap1\n      0x00\n      mstore\n      keccak256(0x00, 0x20)\n      add\n      0x00\n      swap1\n      swap2\n      swap1\n      swap2\n      swap1\n      swap2\n      0x0100\n      exp\n      dup2\n      sload\n      dup2\n      0xffffffffffffffffffffffffffffffffffffffff\n      mul\n      not\n      and\n      swap1\n      dup4\n      0xffffffffffffffffffffffffffffffffffffffff\n      and\n      mul\n      or\n      swap1\n      sstore\n      pop\n        /* \"CrowdFunding.sol\":2408:2560  if (campaignContributions[_campaignId][msg.sender] == msg.value) ... */\n    tag_75:\n        /* \"CrowdFunding.sol\":2577:2629  ContributionMade(_campaignId, msg.sender, msg.value) */\n      0x0a4a91237423e0a1766a761c7cb029311d8b95d6b1b81db1b949a70c98b4e08e\n        /* \"CrowdFunding.sol\":2594:2605  _campaignId */\n      dup2\n        /* \"CrowdFunding.sol\":2607:2617  msg.sender */\n      caller\n        /* \"CrowdFunding.sol\":2619:2628  msg.value */\n      callvalue\n        /* \"CrowdFunding.sol\":2577:2629  ContributionMade(_campaignId, msg.sender, msg.value) */\n      mload(0x40)\n      tag_77\n      swap4\n      swap3\n      swap2\n      swap1\n      tag_78\n      jump\t// in\n    tag_77:\n      mload(0x40)\n      dup1\n      swap2\n      sub\n      swap1\n      log1\n        /* \"CrowdFunding.sol\":2683:2692  campaigns */\n      0x00\n        /* \"CrowdFunding.sol\":2683:2705  campaigns[_campaignId] */\n      dup1\n        /* \"CrowdFunding.sol\":2693:2704  _campaignId */\n      dup3\n        /* \"CrowdFunding.sol\":2683:2705  campaigns[_campaignId] */\n      dup2\n      mstore\n      0x20\n      add\n      swap1\n      dup2\n      mstore\n      0x20\n      add\n      0x00\n      keccak256\n        /* \"CrowdFunding.sol\":2683:2718  campaigns[_campaignId].targetAmount */\n      0x01\n      add\n      sload\n        /* \"CrowdFunding.sol\":2646:2655  campaigns */\n      0x00\n        /* \"CrowdFunding.sol\":2646:2668  campaigns[_campaignId] */\n      dup1\n        /* \"CrowdFunding.sol\":2656:2667  _campaignId */\n      dup4\n        /* \"CrowdFunding.sol\":2646:2668  campaigns[_campaignId] */\n      dup2\n      mstore\n      0x20\n      add\n      swap1\n      dup2\n      mstore\n      0x20\n      add\n      0x00\n      keccak256\n        /* \"CrowdFunding.sol\":2646:2679  campaigns[_campaignId].raisedFund */\n      0x03\n      add\n      sload\n        /* \"CrowdFunding.sol\":2646:2718  campaigns[_campaignId].raisedFund >= campaigns[_campaignId].targetAmount */\n      lt\n        /* \"CrowdFunding.sol\":2642:2832  if (campaigns[_campaignId].raisedFund >= campaigns[_campaignId].targetAmount) ... */\n      tag_79\n      jumpi\n        /* \"CrowdFunding.sol\":2777:2781  true */\n      0x01\n        /* \"CrowdFunding.sol\":2745:2754  campaigns */\n      0x00\n        /* \"CrowdFunding.sol\":2745:2767  campaigns[_campaignId] */\n      dup1\n        /* \"CrowdFunding.sol\":2755:2766  _campaignId */\n      dup4\n        /* \"CrowdFunding.sol\":2745:2767  campaigns[_campaignId] */\n      dup2\n      mstore\n      0x20\n      add\n      swap1\n      dup2\n      mstore\n      0x20\n      add\n      0x00\n      keccak256\n        /* \"CrowdFunding.sol\":2745:2774  campaigns[_campaignId].funded */\n      0x05\n      add\n      0x00\n        /* \"CrowdFunding.sol\":2745:2781  campaigns[_campaignId].funded = true */\n      0x0100\n      exp\n      dup2\n      sload\n      dup2\n      0xff\n      mul\n      not\n      and\n      swap1\n      dup4\n      iszero\n      iszero\n      mul\n      or\n      swap1\n      sstore\n      pop\n        /* \"CrowdFunding.sol\":2796:2820  issueTokens(_campaignId) */\n      tag_80\n        /* \"CrowdFunding.sol\":2808:2819  _campaignId */\n      dup2\n        /* \"CrowdFunding.sol\":2796:2807  issueTokens */\n      tag_81\n        /* \"CrowdFunding.sol\":2796:2820  issueTokens(_campaignId) */\n      jump\t// in\n    tag_80:\n        /* \"CrowdFunding.sol\":2642:2832  if (campaigns[_campaignId].raisedFund >= campaigns[_campaignId].targetAmount) ... */\n    tag_79:\n        /* \"CrowdFunding.sol\":1784:2839  function contributeToCampaign(uint _campaignId) payable public ... */\n      pop\n      jump\t// out\n        /* \"CrowdFunding.sol\":295:337  mapping(uint => Campaign) public campaigns */\n    tag_19:\n      mstore(0x20, 0x00)\n      dup1\n      0x00\n      mstore\n      keccak256(0x00, 0x40)\n      0x00\n      swap2\n      pop\n      swap1\n      pop\n      dup1\n      0x00\n      add\n      dup1\n      sload\n      tag_82\n      swap1\n      tag_83\n      jump\t// in\n    tag_82:\n      dup1\n      0x1f\n      add\n      0x20\n      dup1\n      swap2\n      div\n      mul\n      0x20\n      add\n      mload(0x40)\n      swap1\n      dup2\n      add\n      0x40\n      mstore\n      dup1\n      swap3\n      swap2\n      swap1\n      dup2\n      dup2\n      mstore\n      0x20\n      add\n      dup3\n      dup1\n      sload\n      tag_84\n      swap1\n      tag_83\n      jump\t// in\n    tag_84:\n      dup1\n      iszero\n      tag_85\n      jumpi\n      dup1\n      0x1f\n      lt\n      tag_86\n      jumpi\n      0x0100\n      dup1\n      dup4\n      sload\n      div\n      mul\n      dup4\n      mstore\n      swap2\n      0x20\n      add\n      swap2\n      jump(tag_85)\n    tag_86:\n      dup3\n      add\n      swap2\n      swap1\n      0x00\n      mstore\n      keccak256(0x00, 0x20)\n      swap1\n    tag_87:\n      dup2\n      sload\n      dup2\n      mstore\n      swap1\n      0x01\n      add\n      swap1\n      0x20\n      add\n      dup1\n      dup4\n      gt\n      tag_87\n      jumpi\n      dup3\n      swap1\n      sub\n      0x1f\n      and\n      dup3\n      add\n      swap2\n    tag_85:\n      pop\n      pop\n      pop\n      pop\n      pop\n      swap1\n      dup1\n      0x01\n      add\n      sload\n      swap1\n      dup1\n      0x02\n      add\n      sload\n      swap1\n      dup1\n      0x03\n      add\n      sload\n      swap1\n      dup1\n      0x04\n      add\n      sload\n      swap1\n      dup1\n      0x05\n      add\n      0x00\n      swap1\n      sload\n      swap1\n      0x0100\n      exp\n      swap1\n      div\n      0xff\n      and\n      swap1\n      pop\n      dup7\n      jump\t// out\n        /* \"CrowdFunding.sol\":344:414  mapping(uint => mapping(address => uint)) public campaignContributions */\n    tag_26:\n      mstore(0x20, 0x01)\n      dup2\n      0x00\n      mstore\n      mstore(0x20, keccak256(0x00, 0x40))\n      dup1\n      0x00\n      mstore\n      keccak256(0x00, 0x40)\n      0x00\n      swap2\n      pop\n      swap2\n      pop\n      pop\n      sload\n      dup2\n      jump\t// out\n        /* \"CrowdFunding.sol\":484:513  uint public campaignIdCounter */\n    tag_31:\n      sload(0x03)\n      dup2\n      jump\t// out\n        /* \"CrowdFunding.sol\":981:1776  function createCampaign(string memory _campaignName, uint _targetAmount, uint _timeDuration) public returns(uint) ... */\n    tag_37:\n        /* \"CrowdFunding.sol\":1089:1093  uint */\n      0x00\n        /* \"CrowdFunding.sol\":1136:1137  0 */\n      dup1\n        /* \"CrowdFunding.sol\":1120:1133  _targetAmount */\n      dup4\n        /* \"CrowdFunding.sol\":1120:1137  _targetAmount > 0 */\n      gt\n        /* \"CrowdFunding.sol\":1112:1181  require(_targetAmount > 0, \"Target amount must be greater than zero\") */\n      tag_89\n      jumpi\n      mload(0x40)\n      0x08c379a000000000000000000000000000000000000000000000000000000000\n      dup2\n      mstore\n      0x04\n      add\n      tag_90\n      swap1\n      tag_91\n      jump\t// in\n    tag_90:\n      mload(0x40)\n      dup1\n      swap2\n      sub\n      swap1\n      revert\n    tag_89:\n        /* \"CrowdFunding.sol\":1216:1231  block.timestamp */\n      timestamp\n        /* \"CrowdFunding.sol\":1200:1213  _timeDuration */\n      dup3\n        /* \"CrowdFunding.sol\":1200:1231  _timeDuration > block.timestamp */\n      gt\n        /* \"CrowdFunding.sol\":1192:1271  require(_timeDuration > block.timestamp, \"Time duration must be in the future\") */\n      tag_92\n      jumpi\n      mload(0x40)\n      0x08c379a000000000000000000000000000000000000000000000000000000000\n      dup2\n      mstore\n      0x04\n      add\n      tag_93\n      swap1\n      tag_94\n      jump\t// in\n    tag_93:\n      mload(0x40)\n      dup1\n      swap2\n      sub\n      swap1\n      revert\n    tag_92:\n        /* \"CrowdFunding.sol\":1284:1299  uint campaignId */\n      0x00\n        /* \"CrowdFunding.sol\":1304:1321  campaignIdCounter */\n      0x03\n      0x00\n        /* \"CrowdFunding.sol\":1302:1321  ++campaignIdCounter */\n      dup2\n      sload\n      tag_95\n      swap1\n      tag_96\n      jump\t// in\n    tag_95:\n      swap2\n      swap1\n      pop\n      dup2\n      swap1\n      sstore\n        /* \"CrowdFunding.sol\":1284:1321  uint campaignId = ++campaignIdCounter */\n      swap1\n      pop\n        /* \"CrowdFunding.sol\":1334:1359  Campaign storage campaign */\n      0x00\n        /* \"CrowdFunding.sol\":1362:1371  campaigns */\n      dup1\n        /* \"CrowdFunding.sol\":1362:1383  campaigns[campaignId] */\n      0x00\n        /* \"CrowdFunding.sol\":1372:1382  campaignId */\n      dup4\n        /* \"CrowdFunding.sol\":1362:1383  campaigns[campaignId] */\n      dup2\n      mstore\n      0x20\n      add\n      swap1\n      dup2\n      mstore\n      0x20\n      add\n      0x00\n      keccak256\n        /* \"CrowdFunding.sol\":1334:1383  Campaign storage campaign = campaigns[campaignId] */\n      swap1\n      pop\n        /* \"CrowdFunding.sol\":1418:1431  _campaignName */\n      dup6\n        /* \"CrowdFunding.sol\":1394:1402  campaign */\n      dup2\n        /* \"CrowdFunding.sol\":1394:1415  campaign.campaignName */\n      0x00\n      add\n        /* \"CrowdFunding.sol\":1394:1431  campaign.campaignName = _campaignName */\n      swap1\n      dup2\n      tag_97\n      swap2\n      swap1\n      tag_98\n      jump\t// in\n    tag_97:\n      pop\n        /* \"CrowdFunding.sol\":1466:1479  _targetAmount */\n      dup5\n        /* \"CrowdFunding.sol\":1442:1450  campaign */\n      dup2\n        /* \"CrowdFunding.sol\":1442:1463  campaign.targetAmount */\n      0x01\n      add\n        /* \"CrowdFunding.sol\":1442:1479  campaign.targetAmount = _targetAmount */\n      dup2\n      swap1\n      sstore\n      pop\n        /* \"CrowdFunding.sol\":1514:1527  _timeDuration */\n      dup4\n        /* \"CrowdFunding.sol\":1490:1498  campaign */\n      dup2\n        /* \"CrowdFunding.sol\":1490:1511  campaign.timeDuration */\n      0x02\n      add\n        /* \"CrowdFunding.sol\":1490:1527  campaign.timeDuration = _timeDuration */\n      dup2\n      swap1\n      sstore\n      pop\n        /* \"CrowdFunding.sol\":1560:1561  0 */\n      0x00\n        /* \"CrowdFunding.sol\":1538:1546  campaign */\n      dup2\n        /* \"CrowdFunding.sol\":1538:1557  campaign.raisedFund */\n      0x03\n      add\n        /* \"CrowdFunding.sol\":1538:1561  campaign.raisedFund = 0 */\n      dup2\n      swap1\n      sstore\n      pop\n        /* \"CrowdFunding.sol\":1601:1614  _targetAmount */\n      dup5\n        /* \"CrowdFunding.sol\":1572:1580  campaign */\n      dup2\n        /* \"CrowdFunding.sol\":1572:1598  campaign.pendingRaisedFund */\n      0x04\n      add\n        /* \"CrowdFunding.sol\":1572:1614  campaign.pendingRaisedFund = _targetAmount */\n      dup2\n      swap1\n      sstore\n      pop\n        /* \"CrowdFunding.sol\":1643:1648  false */\n      0x00\n        /* \"CrowdFunding.sol\":1625:1633  campaign */\n      dup2\n        /* \"CrowdFunding.sol\":1625:1640  campaign.funded */\n      0x05\n      add\n      0x00\n        /* \"CrowdFunding.sol\":1625:1648  campaign.funded = false */\n      0x0100\n      exp\n      dup2\n      sload\n      dup2\n      0xff\n      mul\n      not\n      and\n      swap1\n      dup4\n      iszero\n      iszero\n      mul\n      or\n      swap1\n      sstore\n      pop\n        /* \"CrowdFunding.sol\":1666:1738  CampaignCreated(campaignId, _campaignName, _targetAmount, _timeDuration) */\n      0x02fe3fddd43aad14ae5c30d5d694f19ecb065dfde85bb591b91e8af1448724d2\n        /* \"CrowdFunding.sol\":1682:1692  campaignId */\n      dup3\n        /* \"CrowdFunding.sol\":1694:1707  _campaignName */\n      dup8\n        /* \"CrowdFunding.sol\":1709:1722  _targetAmount */\n      dup8\n        /* \"CrowdFunding.sol\":1724:1737  _timeDuration */\n      dup8\n        /* \"CrowdFunding.sol\":1666:1738  CampaignCreated(campaignId, _campaignName, _targetAmount, _timeDuration) */\n      mload(0x40)\n      tag_99\n      swap5\n      swap4\n      swap3\n      swap2\n      swap1\n      tag_100\n      jump\t// in\n    tag_99:\n      mload(0x40)\n      dup1\n      swap2\n      sub\n      swap1\n      log1\n        /* \"CrowdFunding.sol\":1758:1768  campaignId */\n      dup2\n        /* \"CrowdFunding.sol\":1751:1768  return campaignId */\n      swap3\n      pop\n      pop\n      pop\n        /* \"CrowdFunding.sol\":981:1776  function createCampaign(string memory _campaignName, uint _targetAmount, uint _timeDuration) public returns(uint) ... */\n      swap4\n      swap3\n      pop\n      pop\n      pop\n      jump\t// out\n        /* \"CrowdFunding.sol\":903:948  mapping(address => uint) public tokenBalances */\n    tag_43:\n      mstore(0x20, 0x04)\n      dup1\n      0x00\n      mstore\n      keccak256(0x00, 0x40)\n      0x00\n      swap2\n      pop\n      swap1\n      pop\n      sload\n      dup2\n      jump\t// out\n        /* \"CrowdFunding.sol\":4279:4931  function requestRefund(uint _campaignId) public ... */\n    tag_48:\n        /* \"CrowdFunding.sol\":4390:4391  0 */\n      0x00\n        /* \"CrowdFunding.sol\":4352:4361  campaigns */\n      dup1\n        /* \"CrowdFunding.sol\":4352:4374  campaigns[_campaignId] */\n      0x00\n        /* \"CrowdFunding.sol\":4362:4373  _campaignId */\n      dup4\n        /* \"CrowdFunding.sol\":4352:4374  campaigns[_campaignId] */\n      dup2\n      mstore\n      0x20\n      add\n      swap1\n      dup2\n      mstore\n      0x20\n      add\n      0x00\n      keccak256\n        /* \"CrowdFunding.sol\":4352:4387  campaigns[_campaignId].targetAmount */\n      0x01\n      add\n      sload\n        /* \"CrowdFunding.sol\":4352:4391  campaigns[_campaignId].targetAmount > 0 */\n      gt\n        /* \"CrowdFunding.sol\":4344:4419  require(campaigns[_campaignId].targetAmount > 0, \"Campaign does not exist\") */\n      tag_102\n      jumpi\n      mload(0x40)\n      0x08c379a000000000000000000000000000000000000000000000000000000000\n      dup2\n      mstore\n      0x04\n      add\n      tag_103\n      swap1\n      tag_63\n      jump\t// in\n    tag_103:\n      mload(0x40)\n      dup1\n      swap2\n      sub\n      swap1\n      revert\n    tag_102:\n        /* \"CrowdFunding.sol\":4474:4483  campaigns */\n      0x00\n        /* \"CrowdFunding.sol\":4474:4496  campaigns[_campaignId] */\n      dup1\n        /* \"CrowdFunding.sol\":4484:4495  _campaignId */\n      dup3\n        /* \"CrowdFunding.sol\":4474:4496  campaigns[_campaignId] */\n      dup2\n      mstore\n      0x20\n      add\n      swap1\n      dup2\n      mstore\n      0x20\n      add\n      0x00\n      keccak256\n        /* \"CrowdFunding.sol\":4474:4509  campaigns[_campaignId].targetAmount */\n      0x01\n      add\n      sload\n        /* \"CrowdFunding.sol\":4438:4447  campaigns */\n      0x00\n        /* \"CrowdFunding.sol\":4438:4460  campaigns[_campaignId] */\n      dup1\n        /* \"CrowdFunding.sol\":4448:4459  _campaignId */\n      dup4\n        /* \"CrowdFunding.sol\":4438:4460  campaigns[_campaignId] */\n      dup2\n      mstore\n      0x20\n      add\n      swap1\n      dup2\n      mstore\n      0x20\n      add\n      0x00\n      keccak256\n        /* \"CrowdFunding.sol\":4438:4471  campaigns[_campaignId].raisedFund */\n      0x03\n      add\n      sload\n        /* \"CrowdFunding.sol\":4438:4509  campaigns[_campaignId].raisedFund < campaigns[_campaignId].targetAmount */\n      lt\n        /* \"CrowdFunding.sol\":4430:4551  require(campaigns[_campaignId].raisedFund < campaigns[_campaignId].targetAmount, \"Campaign has reached its funding goal\") */\n      tag_104\n      jumpi\n      mload(0x40)\n      0x08c379a000000000000000000000000000000000000000000000000000000000\n      dup2\n      mstore\n      0x04\n      add\n      tag_105\n      swap1\n      tag_106\n      jump\t// in\n    tag_105:\n      mload(0x40)\n      dup1\n      swap2\n      sub\n      swap1\n      revert\n    tag_104:\n        /* \"CrowdFunding.sol\":4619:4620  0 */\n      0x00\n        /* \"CrowdFunding.sol\":4570:4591  campaignContributions */\n      0x01\n        /* \"CrowdFunding.sol\":4570:4604  campaignContributions[_campaignId] */\n      0x00\n        /* \"CrowdFunding.sol\":4592:4603  _campaignId */\n      dup4\n        /* \"CrowdFunding.sol\":4570:4604  campaignContributions[_campaignId] */\n      dup2\n      mstore\n      0x20\n      add\n      swap1\n      dup2\n      mstore\n      0x20\n      add\n      0x00\n      keccak256\n        /* \"CrowdFunding.sol\":4570:4616  campaignContributions[_campaignId][msg.sender] */\n      0x00\n        /* \"CrowdFunding.sol\":4605:4615  msg.sender */\n      caller\n        /* \"CrowdFunding.sol\":4570:4616  campaignContributions[_campaignId][msg.sender] */\n      0xffffffffffffffffffffffffffffffffffffffff\n      and\n      0xffffffffffffffffffffffffffffffffffffffff\n      and\n      dup2\n      mstore\n      0x20\n      add\n      swap1\n      dup2\n      mstore\n      0x20\n      add\n      0x00\n      keccak256\n      sload\n        /* \"CrowdFunding.sol\":4570:4620  campaignContributions[_campaignId][msg.sender] > 0 */\n      gt\n        /* \"CrowdFunding.sol\":4562:4663  require(campaignContributions[_campaignId][msg.sender] > 0, \"No contribution found for the campaign\") */\n      tag_107\n      jumpi\n      mload(0x40)\n      0x08c379a000000000000000000000000000000000000000000000000000000000\n      dup2\n      mstore\n      0x04\n      add\n      tag_108\n      swap1\n      tag_109\n      jump\t// in\n    tag_108:\n      mload(0x40)\n      dup1\n      swap2\n      sub\n      swap1\n      revert\n    tag_107:\n        /* \"CrowdFunding.sol\":4676:4693  uint refundAmount */\n      0x00\n        /* \"CrowdFunding.sol\":4696:4717  campaignContributions */\n      0x01\n        /* \"CrowdFunding.sol\":4696:4730  campaignContributions[_campaignId] */\n      0x00\n        /* \"CrowdFunding.sol\":4718:4729  _campaignId */\n      dup4\n        /* \"CrowdFunding.sol\":4696:4730  campaignContributions[_campaignId] */\n      dup2\n      mstore\n      0x20\n      add\n      swap1\n      dup2\n      mstore\n      0x20\n      add\n      0x00\n      keccak256\n        /* \"CrowdFunding.sol\":4696:4742  campaignContributions[_campaignId][msg.sender] */\n      0x00\n        /* \"CrowdFunding.sol\":4731:4741  msg.sender */\n      caller\n        /* \"CrowdFunding.sol\":4696:4742  campaignContributions[_campaignId][msg.sender] */\n      0xffffffffffffffffffffffffffffffffffffffff\n      and\n      0xffffffffffffffffffffffffffffffffffffffff\n      and\n      dup2\n      mstore\n      0x20\n      add\n      swap1\n      dup2\n      mstore\n      0x20\n      add\n      0x00\n      keccak256\n      sload\n        /* \"CrowdFunding.sol\":4676:4742  uint refundAmount = campaignContributions[_campaignId][msg.sender] */\n      swap1\n      pop\n        /* \"CrowdFunding.sol\":4802:4803  0 */\n      0x00\n        /* \"CrowdFunding.sol\":4753:4774  campaignContributions */\n      0x01\n        /* \"CrowdFunding.sol\":4753:4787  campaignContributions[_campaignId] */\n      0x00\n        /* \"CrowdFunding.sol\":4775:4786  _campaignId */\n      dup5\n        /* \"CrowdFunding.sol\":4753:4787  campaignContributions[_campaignId] */\n      dup2\n      mstore\n      0x20\n      add\n      swap1\n      dup2\n      mstore\n      0x20\n      add\n      0x00\n      keccak256\n        /* \"CrowdFunding.sol\":4753:4799  campaignContributions[_campaignId][msg.sender] */\n      0x00\n        /* \"CrowdFunding.sol\":4788:4798  msg.sender */\n      caller\n        /* \"CrowdFunding.sol\":4753:4799  campaignContributions[_campaignId][msg.sender] */\n      0xffffffffffffffffffffffffffffffffffffffff\n      and\n      0xffffffffffffffffffffffffffffffffffffffff\n      and\n      dup2\n      mstore\n      0x20\n      add\n      swap1\n      dup2\n      mstore\n      0x20\n      add\n      0x00\n      keccak256\n        /* \"CrowdFunding.sol\":4753:4803  campaignContributions[_campaignId][msg.sender] = 0 */\n      dup2\n      swap1\n      sstore\n      pop\n        /* \"CrowdFunding.sol\":4822:4832  msg.sender */\n      caller\n        /* \"CrowdFunding.sol\":4814:4842  payable(msg.sender).transfer */\n      0xffffffffffffffffffffffffffffffffffffffff\n      and\n        /* \"CrowdFunding.sol\":4814:4856  payable(msg.sender).transfer(refundAmount) */\n      0x08fc\n        /* \"CrowdFunding.sol\":4843:4855  refundAmount */\n      dup3\n        /* \"CrowdFunding.sol\":4814:4856  payable(msg.sender).transfer(refundAmount) */\n      swap1\n      dup2\n      iszero\n      mul\n      swap1\n      mload(0x40)\n      0x00\n      mload(0x40)\n      dup1\n      dup4\n      sub\n      dup2\n      dup6\n      dup9\n      dup9\n      call\n      swap4\n      pop\n      pop\n      pop\n      pop\n      iszero\n      dup1\n      iszero\n      tag_111\n      jumpi\n      returndatasize\n      0x00\n      dup1\n      returndatacopy\n      revert(0x00, returndatasize)\n    tag_111:\n      pop\n        /* \"CrowdFunding.sol\":4872:4923  RefundIssued(_campaignId, msg.sender, refundAmount) */\n      0x7a482fdeb6bc9a1376f597068a214a7a39472bb2eff1b8cad21ba04f49ddca1b\n        /* \"CrowdFunding.sol\":4885:4896  _campaignId */\n      dup3\n        /* \"CrowdFunding.sol\":4898:4908  msg.sender */\n      caller\n        /* \"CrowdFunding.sol\":4910:4922  refundAmount */\n      dup4\n        /* \"CrowdFunding.sol\":4872:4923  RefundIssued(_campaignId, msg.sender, refundAmount) */\n      mload(0x40)\n      tag_112\n      swap4\n      swap3\n      swap2\n      swap1\n      tag_78\n      jump\t// in\n    tag_112:\n      mload(0x40)\n      dup1\n      swap2\n      sub\n      swap1\n      log1\n        /* \"CrowdFunding.sol\":4333:4931  {... */\n      pop\n        /* \"CrowdFunding.sol\":4279:4931  function requestRefund(uint _campaignId) public ... */\n      pop\n      jump\t// out\n        /* \"CrowdFunding.sol\":520:575  uint public constant TOTAL_TOKEN_SUPPLY = 1_000_000_000 */\n    tag_51:\n        /* \"CrowdFunding.sol\":562:575  1_000_000_000 */\n      0x3b9aca00\n        /* \"CrowdFunding.sol\":520:575  uint public constant TOTAL_TOKEN_SUPPLY = 1_000_000_000 */\n      dup2\n      jump\t// out\n        /* \"CrowdFunding.sol\":421:475  mapping(uint => address[]) public campaignContributors */\n    tag_57:\n      mstore(0x20, 0x02)\n      dup2\n      0x00\n      mstore\n      keccak256(0x00, 0x40)\n      dup2\n      dup2\n      sload\n      dup2\n      lt\n      tag_113\n      jumpi\n      0x00\n      dup1\n      revert\n    tag_113:\n      swap1\n      0x00\n      mstore\n      keccak256(0x00, 0x20)\n      add\n      0x00\n      swap2\n      pop\n      swap2\n      pop\n      swap1\n      sload\n      swap1\n      0x0100\n      exp\n      swap1\n      div\n      0xffffffffffffffffffffffffffffffffffffffff\n      and\n      dup2\n      jump\t// out\n        /* \"CrowdFunding.sol\":2847:4271  function issueTokens(uint _campaignId) internal ... */\n    tag_81:\n        /* \"CrowdFunding.sol\":2957:2966  campaigns */\n      0x00\n        /* \"CrowdFunding.sol\":2957:2979  campaigns[_campaignId] */\n      dup1\n        /* \"CrowdFunding.sol\":2967:2978  _campaignId */\n      dup3\n        /* \"CrowdFunding.sol\":2957:2979  campaigns[_campaignId] */\n      dup2\n      mstore\n      0x20\n      add\n      swap1\n      dup2\n      mstore\n      0x20\n      add\n      0x00\n      keccak256\n        /* \"CrowdFunding.sol\":2957:2992  campaigns[_campaignId].targetAmount */\n      0x01\n      add\n      sload\n        /* \"CrowdFunding.sol\":2920:2929  campaigns */\n      0x00\n        /* \"CrowdFunding.sol\":2920:2942  campaigns[_campaignId] */\n      dup1\n        /* \"CrowdFunding.sol\":2930:2941  _campaignId */\n      dup4\n        /* \"CrowdFunding.sol\":2920:2942  campaigns[_campaignId] */\n      dup2\n      mstore\n      0x20\n      add\n      swap1\n      dup2\n      mstore\n      0x20\n      add\n      0x00\n      keccak256\n        /* \"CrowdFunding.sol\":2920:2953  campaigns[_campaignId].raisedFund */\n      0x03\n      add\n      sload\n        /* \"CrowdFunding.sol\":2920:2992  campaigns[_campaignId].raisedFund >= campaigns[_campaignId].targetAmount */\n      lt\n      iszero\n        /* \"CrowdFunding.sol\":2912:3021  require(campaigns[_campaignId].raisedFund >= campaigns[_campaignId].targetAmount, \"Funding goal not reached\") */\n      tag_116\n      jumpi\n      mload(0x40)\n      0x08c379a000000000000000000000000000000000000000000000000000000000\n      dup2\n      mstore\n      0x04\n      add\n      tag_117\n      swap1\n      tag_118\n      jump\t// in\n    tag_117:\n      mload(0x40)\n      dup1\n      swap2\n      sub\n      swap1\n      revert\n    tag_116:\n        /* \"CrowdFunding.sol\":3034:3057  uint totalContributions */\n      0x00\n        /* \"CrowdFunding.sol\":3060:3069  campaigns */\n      dup1\n        /* \"CrowdFunding.sol\":3060:3082  campaigns[_campaignId] */\n      0x00\n        /* \"CrowdFunding.sol\":3070:3081  _campaignId */\n      dup4\n        /* \"CrowdFunding.sol\":3060:3082  campaigns[_campaignId] */\n      dup2\n      mstore\n      0x20\n      add\n      swap1\n      dup2\n      mstore\n      0x20\n      add\n      0x00\n      keccak256\n        /* \"CrowdFunding.sol\":3060:3093  campaigns[_campaignId].raisedFund */\n      0x03\n      add\n      sload\n        /* \"CrowdFunding.sol\":3034:3093  uint totalContributions = campaigns[_campaignId].raisedFund */\n      swap1\n      pop\n        /* \"CrowdFunding.sol\":3104:3120  uint tokenSupply */\n      0x00\n        /* \"CrowdFunding.sol\":3151:3154  100 */\n      0x64\n        /* \"CrowdFunding.sol\":3145:3147  10 */\n      0x0a\n        /* \"CrowdFunding.sol\":3124:3142  totalContributions */\n      dup4\n        /* \"CrowdFunding.sol\":3124:3147  totalContributions * 10 */\n      tag_119\n      swap2\n      swap1\n      tag_120\n      jump\t// in\n    tag_119:\n        /* \"CrowdFunding.sol\":3123:3154  (totalContributions * 10) / 100 */\n      tag_121\n      swap2\n      swap1\n      tag_122\n      jump\t// in\n    tag_121:\n        /* \"CrowdFunding.sol\":3104:3154  uint tokenSupply = (totalContributions * 10) / 100 */\n      swap1\n      pop\n        /* \"CrowdFunding.sol\":3286:3308  uint totalTokensIssued */\n      0x00\n        /* \"CrowdFunding.sol\":3328:3334  uint i */\n      dup1\n        /* \"CrowdFunding.sol\":3323:3950  for (uint i = 0; i < campaignContributors[_campaignId].length; i++) ... */\n    tag_123:\n        /* \"CrowdFunding.sol\":3344:3364  campaignContributors */\n      0x02\n        /* \"CrowdFunding.sol\":3344:3377  campaignContributors[_campaignId] */\n      0x00\n        /* \"CrowdFunding.sol\":3365:3376  _campaignId */\n      dup7\n        /* \"CrowdFunding.sol\":3344:3377  campaignContributors[_campaignId] */\n      dup2\n      mstore\n      0x20\n      add\n      swap1\n      dup2\n      mstore\n      0x20\n      add\n      0x00\n      keccak256\n        /* \"CrowdFunding.sol\":3344:3384  campaignContributors[_campaignId].length */\n      dup1\n      sload\n      swap1\n      pop\n        /* \"CrowdFunding.sol\":3340:3341  i */\n      dup2\n        /* \"CrowdFunding.sol\":3340:3384  i < campaignContributors[_campaignId].length */\n      lt\n        /* \"CrowdFunding.sol\":3323:3950  for (uint i = 0; i < campaignContributors[_campaignId].length; i++) ... */\n      iszero\n      tag_124\n      jumpi\n        /* \"CrowdFunding.sol\":3416:3435  address contributor */\n      0x00\n        /* \"CrowdFunding.sol\":3438:3458  campaignContributors */\n      0x02\n        /* \"CrowdFunding.sol\":3438:3471  campaignContributors[_campaignId] */\n      0x00\n        /* \"CrowdFunding.sol\":3459:3470  _campaignId */\n      dup8\n        /* \"CrowdFunding.sol\":3438:3471  campaignContributors[_campaignId] */\n      dup2\n      mstore\n      0x20\n      add\n      swap1\n      dup2\n      mstore\n      0x20\n      add\n      0x00\n      keccak256\n        /* \"CrowdFunding.sol\":3472:3473  i */\n      dup3\n        /* \"CrowdFunding.sol\":3438:3474  campaignContributors[_campaignId][i] */\n      dup2\n      sload\n      dup2\n      lt\n      tag_126\n      jumpi\n      tag_127\n      tag_128\n      jump\t// in\n    tag_127:\n    tag_126:\n      swap1\n      0x00\n      mstore\n      keccak256(0x00, 0x20)\n      add\n      0x00\n      swap1\n      sload\n      swap1\n      0x0100\n      exp\n      swap1\n      div\n      0xffffffffffffffffffffffffffffffffffffffff\n      and\n        /* \"CrowdFunding.sol\":3416:3474  address contributor = campaignContributors[_campaignId][i] */\n      swap1\n      pop\n        /* \"CrowdFunding.sol\":3489:3506  uint contribution */\n      0x00\n        /* \"CrowdFunding.sol\":3509:3530  campaignContributions */\n      0x01\n        /* \"CrowdFunding.sol\":3509:3543  campaignContributions[_campaignId] */\n      0x00\n        /* \"CrowdFunding.sol\":3531:3542  _campaignId */\n      dup9\n        /* \"CrowdFunding.sol\":3509:3543  campaignContributions[_campaignId] */\n      dup2\n      mstore\n      0x20\n      add\n      swap1\n      dup2\n      mstore\n      0x20\n      add\n      0x00\n      keccak256\n        /* \"CrowdFunding.sol\":3509:3556  campaignContributions[_campaignId][contributor] */\n      0x00\n        /* \"CrowdFunding.sol\":3544:3555  contributor */\n      dup4\n        /* \"CrowdFunding.sol\":3509:3556  campaignContributions[_campaignId][contributor] */\n      0xffffffffffffffffffffffffffffffffffffffff\n      and\n      0xffffffffffffffffffffffffffffffffffffffff\n      and\n      dup2\n      mstore\n      0x20\n      add\n      swap1\n      dup2\n      mstore\n      0x20\n      add\n      0x00\n      keccak256\n      sload\n        /* \"CrowdFunding.sol\":3489:3556  uint contribution = campaignContributions[_campaignId][contributor] */\n      swap1\n      pop\n        /* \"CrowdFunding.sol\":3571:3589  uint tokensToIssue */\n      0x00\n        /* \"CrowdFunding.sol\":3623:3641  totalContributions */\n      dup7\n        /* \"CrowdFunding.sol\":3608:3619  tokenSupply */\n      dup7\n        /* \"CrowdFunding.sol\":3593:3605  contribution */\n      dup4\n        /* \"CrowdFunding.sol\":3593:3619  contribution * tokenSupply */\n      tag_130\n      swap2\n      swap1\n      tag_120\n      jump\t// in\n    tag_130:\n        /* \"CrowdFunding.sol\":3592:3641  (contribution * tokenSupply) / totalContributions */\n      tag_131\n      swap2\n      swap1\n      tag_122\n      jump\t// in\n    tag_131:\n        /* \"CrowdFunding.sol\":3571:3641  uint tokensToIssue = (contribution * tokenSupply) / totalContributions */\n      swap1\n      pop\n        /* \"CrowdFunding.sol\":3656:3667  Token token */\n      0x00\n        /* \"CrowdFunding.sol\":3680:3693  tokensToIssue */\n      dup2\n        /* \"CrowdFunding.sol\":3670:3694  new Token(tokensToIssue) */\n      mload(0x40)\n      tag_132\n      swap1\n      tag_133\n      jump\t// in\n    tag_132:\n      tag_134\n      swap2\n      swap1\n      tag_28\n      jump\t// in\n    tag_134:\n      mload(0x40)\n      dup1\n      swap2\n      sub\n      swap1\n      0x00\n      create\n      dup1\n      iszero\n      dup1\n      iszero\n      tag_135\n      jumpi\n      returndatasize\n      0x00\n      dup1\n      returndatacopy\n      revert(0x00, returndatasize)\n    tag_135:\n      pop\n        /* \"CrowdFunding.sol\":3656:3694  Token token = new Token(tokensToIssue) */\n      swap1\n      pop\n        /* \"CrowdFunding.sol\":3739:3752  tokensToIssue */\n      dup2\n        /* \"CrowdFunding.sol\":3709:3722  tokenBalances */\n      0x04\n        /* \"CrowdFunding.sol\":3709:3735  tokenBalances[contributor] */\n      0x00\n        /* \"CrowdFunding.sol\":3723:3734  contributor */\n      dup7\n        /* \"CrowdFunding.sol\":3709:3735  tokenBalances[contributor] */\n      0xffffffffffffffffffffffffffffffffffffffff\n      and\n      0xffffffffffffffffffffffffffffffffffffffff\n      and\n      dup2\n      mstore\n      0x20\n      add\n      swap1\n      dup2\n      mstore\n      0x20\n      add\n      0x00\n      keccak256\n      0x00\n        /* \"CrowdFunding.sol\":3709:3752  tokenBalances[contributor] += tokensToIssue */\n      dup3\n      dup3\n      sload\n      tag_136\n      swap2\n      swap1\n      tag_71\n      jump\t// in\n    tag_136:\n      swap3\n      pop\n      pop\n      dup2\n      swap1\n      sstore\n      pop\n        /* \"CrowdFunding.sol\":3767:3772  token */\n      dup1\n        /* \"CrowdFunding.sol\":3767:3781  token.transfer */\n      0xffffffffffffffffffffffffffffffffffffffff\n      and\n      0xa9059cbb\n        /* \"CrowdFunding.sol\":3782:3793  contributor */\n      dup6\n        /* \"CrowdFunding.sol\":3795:3808  tokensToIssue */\n      dup5\n        /* \"CrowdFunding.sol\":3767:3809  token.transfer(contributor, tokensToIssue) */\n      mload(0x40)\n      dup4\n      0xffffffff\n      and\n      0xe0\n      shl\n      dup2\n      mstore\n      0x04\n      add\n      tag_137\n      swap3\n      swap2\n      swap1\n      tag_138\n      jump\t// in\n    tag_137:\n      0x20\n      mload(0x40)\n      dup1\n      dup4\n      sub\n      dup2\n      0x00\n      dup8\n      gas\n      call\n      iszero\n      dup1\n      iszero\n      tag_140\n      jumpi\n      returndatasize\n      0x00\n      dup1\n      returndatacopy\n      revert(0x00, returndatasize)\n    tag_140:\n      pop\n      pop\n      pop\n      pop\n      mload(0x40)\n      returndatasize\n      not(0x1f)\n      0x1f\n      dup3\n      add\n      and\n      dup3\n      add\n      dup1\n      0x40\n      mstore\n      pop\n      dup2\n      add\n      swap1\n      tag_141\n      swap2\n      swap1\n      tag_142\n      jump\t// in\n    tag_141:\n      pop\n        /* \"CrowdFunding.sol\":3855:3868  tokensToIssue */\n      dup2\n        /* \"CrowdFunding.sol\":3834:3868  totalTokensIssued += tokensToIssue */\n      dup7\n      tag_143\n      swap2\n      swap1\n      tag_71\n      jump\t// in\n    tag_143:\n      swap6\n      pop\n        /* \"CrowdFunding.sol\":3898:3938  TokensIssued(contributor, tokensToIssue) */\n      0x21d739f160a7464fddaac4a1d1517d84e76b75618a053943b345c408c4160fe0\n        /* \"CrowdFunding.sol\":3911:3922  contributor */\n      dup5\n        /* \"CrowdFunding.sol\":3924:3937  tokensToIssue */\n      dup4\n        /* \"CrowdFunding.sol\":3898:3938  TokensIssued(contributor, tokensToIssue) */\n      mload(0x40)\n      tag_144\n      swap3\n      swap2\n      swap1\n      tag_138\n      jump\t// in\n    tag_144:\n      mload(0x40)\n      dup1\n      swap2\n      sub\n      swap1\n      log1\n        /* \"CrowdFunding.sol\":3401:3950  {... */\n      pop\n      pop\n      pop\n      pop\n        /* \"CrowdFunding.sol\":3386:3389  i++ */\n      dup1\n      dup1\n      tag_145\n      swap1\n      tag_96\n      jump\t// in\n    tag_145:\n      swap2\n      pop\n      pop\n        /* \"CrowdFunding.sol\":3323:3950  for (uint i = 0; i < campaignContributors[_campaignId].length; i++) ... */\n      jump(tag_123)\n    tag_124:\n      pop\n        /* \"CrowdFunding.sol\":4025:4045  uint remainingTokens */\n      0x00\n        /* \"CrowdFunding.sol\":4062:4079  totalTokensIssued */\n      dup2\n        /* \"CrowdFunding.sol\":4048:4059  tokenSupply */\n      dup4\n        /* \"CrowdFunding.sol\":4048:4079  tokenSupply - totalTokensIssued */\n      tag_146\n      swap2\n      swap1\n      tag_73\n      jump\t// in\n    tag_146:\n        /* \"CrowdFunding.sol\":4025:4079  uint remainingTokens = tokenSupply - totalTokensIssued */\n      swap1\n      pop\n        /* \"CrowdFunding.sol\":4090:4110  Token remainingToken */\n      0x00\n        /* \"CrowdFunding.sol\":4123:4138  remainingTokens */\n      dup2\n        /* \"CrowdFunding.sol\":4113:4139  new Token(remainingTokens) */\n      mload(0x40)\n      tag_147\n      swap1\n      tag_133\n      jump\t// in\n    tag_147:\n      tag_148\n      swap2\n      swap1\n      tag_28\n      jump\t// in\n    tag_148:\n      mload(0x40)\n      dup1\n      swap2\n      sub\n      swap1\n      0x00\n      create\n      dup1\n      iszero\n      dup1\n      iszero\n      tag_149\n      jumpi\n      returndatasize\n      0x00\n      dup1\n      returndatacopy\n      revert(0x00, returndatasize)\n    tag_149:\n      pop\n        /* \"CrowdFunding.sol\":4090:4139  Token remainingToken = new Token(remainingTokens) */\n      swap1\n      pop\n        /* \"CrowdFunding.sol\":4182:4197  remainingTokens */\n      dup2\n        /* \"CrowdFunding.sol\":4150:4163  tokenBalances */\n      0x04\n        /* \"CrowdFunding.sol\":4150:4178  tokenBalances[address(this)] */\n      0x00\n        /* \"CrowdFunding.sol\":4172:4176  this */\n      address\n        /* \"CrowdFunding.sol\":4150:4178  tokenBalances[address(this)] */\n      0xffffffffffffffffffffffffffffffffffffffff\n      and\n      0xffffffffffffffffffffffffffffffffffffffff\n      and\n      dup2\n      mstore\n      0x20\n      add\n      swap1\n      dup2\n      mstore\n      0x20\n      add\n      0x00\n      keccak256\n      0x00\n        /* \"CrowdFunding.sol\":4150:4197  tokenBalances[address(this)] += remainingTokens */\n      dup3\n      dup3\n      sload\n      tag_150\n      swap2\n      swap1\n      tag_71\n      jump\t// in\n    tag_150:\n      swap3\n      pop\n      pop\n      dup2\n      swap1\n      sstore\n      pop\n        /* \"CrowdFunding.sol\":4208:4222  remainingToken */\n      dup1\n        /* \"CrowdFunding.sol\":4208:4231  remainingToken.transfer */\n      0xffffffffffffffffffffffffffffffffffffffff\n      and\n      0xa9059cbb\n        /* \"CrowdFunding.sol\":4240:4244  this */\n      address\n        /* \"CrowdFunding.sol\":4247:4262  remainingTokens */\n      dup5\n        /* \"CrowdFunding.sol\":4208:4263  remainingToken.transfer(address(this), remainingTokens) */\n      mload(0x40)\n      dup4\n      0xffffffff\n      and\n      0xe0\n      shl\n      dup2\n      mstore\n      0x04\n      add\n      tag_151\n      swap3\n      swap2\n      swap1\n      tag_138\n      jump\t// in\n    tag_151:\n      0x20\n      mload(0x40)\n      dup1\n      dup4\n      sub\n      dup2\n      0x00\n      dup8\n      gas\n      call\n      iszero\n      dup1\n      iszero\n      tag_153\n      jumpi\n      returndatasize\n      0x00\n      dup1\n      returndatacopy\n      revert(0x00, returndatasize)\n    tag_153:\n      pop\n      pop\n      pop\n      pop\n      mload(0x40)\n      returndatasize\n      not(0x1f)\n      0x1f\n      dup3\n      add\n      and\n      dup3\n      add\n      dup1\n      0x40\n      mstore\n      pop\n      dup2\n      add\n      swap1\n      tag_154\n      swap2\n      swap1\n      tag_142\n      jump\t// in\n    tag_154:\n      pop\n        /* \"CrowdFunding.sol\":2901:4271  {... */\n      pop\n      pop\n      pop\n      pop\n      pop\n        /* \"CrowdFunding.sol\":2847:4271  function issueTokens(uint _campaignId) internal ... */\n      pop\n      jump\t// out\n    tag_133:\n      dataSize(sub_0)\n      dup1\n      dataOffset(sub_0)\n      dup4\n      codecopy\n      add\n      swap1\n      jump\t// out\n        /* \"#utility.yul\":7:82   */\n    tag_155:\n        /* \"#utility.yul\":40:46   */\n      0x00\n        /* \"#utility.yul\":73:75   */\n      0x40\n        /* \"#utility.yul\":67:76   */\n      mload\n        /* \"#utility.yul\":57:76   */\n      swap1\n      pop\n        /* \"#utility.yul\":7:82   */\n      swap1\n      jump\t// out\n        /* \"#utility.yul\":88:205   */\n    tag_156:\n        /* \"#utility.yul\":197:198   */\n      0x00\n        /* \"#utility.yul\":194:195   */\n      dup1\n        /* \"#utility.yul\":187:199   */\n      revert\n        /* \"#utility.yul\":211:328   */\n    tag_157:\n        /* \"#utility.yul\":320:321   */\n      0x00\n        /* \"#utility.yul\":317:318   */\n      dup1\n        /* \"#utility.yul\":310:322   */\n      revert\n        /* \"#utility.yul\":334:411   */\n    tag_158:\n        /* \"#utility.yul\":371:378   */\n      0x00\n        /* \"#utility.yul\":400:405   */\n      dup2\n        /* \"#utility.yul\":389:405   */\n      swap1\n      pop\n        /* \"#utility.yul\":334:411   */\n      swap2\n      swap1\n      pop\n      jump\t// out\n        /* \"#utility.yul\":417:539   */\n    tag_159:\n        /* \"#utility.yul\":490:514   */\n      tag_225\n        /* \"#utility.yul\":508:513   */\n      dup2\n        /* \"#utility.yul\":490:514   */\n      tag_158\n      jump\t// in\n    tag_225:\n        /* \"#utility.yul\":483:488   */\n      dup2\n        /* \"#utility.yul\":480:515   */\n      eq\n        /* \"#utility.yul\":470:533   */\n      tag_226\n      jumpi\n        /* \"#utility.yul\":529:530   */\n      0x00\n        /* \"#utility.yul\":526:527   */\n      dup1\n        /* \"#utility.yul\":519:531   */\n      revert\n        /* \"#utility.yul\":470:533   */\n    tag_226:\n        /* \"#utility.yul\":417:539   */\n      pop\n      jump\t// out\n        /* \"#utility.yul\":545:684   */\n    tag_160:\n        /* \"#utility.yul\":591:596   */\n      0x00\n        /* \"#utility.yul\":629:635   */\n      dup2\n        /* \"#utility.yul\":616:636   */\n      calldataload\n        /* \"#utility.yul\":607:636   */\n      swap1\n      pop\n        /* \"#utility.yul\":645:678   */\n      tag_228\n        /* \"#utility.yul\":672:677   */\n      dup2\n        /* \"#utility.yul\":645:678   */\n      tag_159\n      jump\t// in\n    tag_228:\n        /* \"#utility.yul\":545:684   */\n      swap3\n      swap2\n      pop\n      pop\n      jump\t// out\n        /* \"#utility.yul\":690:1019   */\n    tag_14:\n        /* \"#utility.yul\":749:755   */\n      0x00\n        /* \"#utility.yul\":798:800   */\n      0x20\n        /* \"#utility.yul\":786:795   */\n      dup3\n        /* \"#utility.yul\":777:784   */\n      dup5\n        /* \"#utility.yul\":773:796   */\n      sub\n        /* \"#utility.yul\":769:801   */\n      slt\n        /* \"#utility.yul\":766:885   */\n      iszero\n      tag_230\n      jumpi\n        /* \"#utility.yul\":804:883   */\n      tag_231\n      tag_156\n      jump\t// in\n    tag_231:\n        /* \"#utility.yul\":766:885   */\n    tag_230:\n        /* \"#utility.yul\":924:925   */\n      0x00\n        /* \"#utility.yul\":949:1002   */\n      tag_232\n        /* \"#utility.yul\":994:1001   */\n      dup5\n        /* \"#utility.yul\":985:991   */\n      dup3\n        /* \"#utility.yul\":974:983   */\n      dup6\n        /* \"#utility.yul\":970:992   */\n      add\n        /* \"#utility.yul\":949:1002   */\n      tag_160\n      jump\t// in\n    tag_232:\n        /* \"#utility.yul\":939:1002   */\n      swap2\n      pop\n        /* \"#utility.yul\":895:1012   */\n      pop\n        /* \"#utility.yul\":690:1019   */\n      swap3\n      swap2\n      pop\n      pop\n      jump\t// out\n        /* \"#utility.yul\":1025:1124   */\n    tag_161:\n        /* \"#utility.yul\":1077:1083   */\n      0x00\n        /* \"#utility.yul\":1111:1116   */\n      dup2\n        /* \"#utility.yul\":1105:1117   */\n      mload\n        /* \"#utility.yul\":1095:1117   */\n      swap1\n      pop\n        /* \"#utility.yul\":1025:1124   */\n      swap2\n      swap1\n      pop\n      jump\t// out\n        /* \"#utility.yul\":1130:1299   */\n    tag_162:\n        /* \"#utility.yul\":1214:1225   */\n      0x00\n        /* \"#utility.yul\":1248:1254   */\n      dup3\n        /* \"#utility.yul\":1243:1246   */\n      dup3\n        /* \"#utility.yul\":1236:1255   */\n      mstore\n        /* \"#utility.yul\":1288:1292   */\n      0x20\n        /* \"#utility.yul\":1283:1286   */\n      dup3\n        /* \"#utility.yul\":1279:1293   */\n      add\n        /* \"#utility.yul\":1264:1293   */\n      swap1\n      pop\n        /* \"#utility.yul\":1130:1299   */\n      swap3\n      swap2\n      pop\n      pop\n      jump\t// out\n        /* \"#utility.yul\":1305:1551   */\n    tag_163:\n        /* \"#utility.yul\":1386:1387   */\n      0x00\n        /* \"#utility.yul\":1396:1509   */\n    tag_236:\n        /* \"#utility.yul\":1410:1416   */\n      dup4\n        /* \"#utility.yul\":1407:1408   */\n      dup2\n        /* \"#utility.yul\":1404:1417   */\n      lt\n        /* \"#utility.yul\":1396:1509   */\n      iszero\n      tag_238\n      jumpi\n        /* \"#utility.yul\":1495:1496   */\n      dup1\n        /* \"#utility.yul\":1490:1493   */\n      dup3\n        /* \"#utility.yul\":1486:1497   */\n      add\n        /* \"#utility.yul\":1480:1498   */\n      mload\n        /* \"#utility.yul\":1476:1477   */\n      dup2\n        /* \"#utility.yul\":1471:1474   */\n      dup5\n        /* \"#utility.yul\":1467:1478   */\n      add\n        /* \"#utility.yul\":1460:1499   */\n      mstore\n        /* \"#utility.yul\":1432:1434   */\n      0x20\n        /* \"#utility.yul\":1429:1430   */\n      dup2\n        /* \"#utility.yul\":1425:1435   */\n      add\n        /* \"#utility.yul\":1420:1435   */\n      swap1\n      pop\n        /* \"#utility.yul\":1396:1509   */\n      jump(tag_236)\n    tag_238:\n        /* \"#utility.yul\":1543:1544   */\n      0x00\n        /* \"#utility.yul\":1534:1540   */\n      dup5\n        /* \"#utility.yul\":1529:1532   */\n      dup5\n        /* \"#utility.yul\":1525:1541   */\n      add\n        /* \"#utility.yul\":1518:1545   */\n      mstore\n        /* \"#utility.yul\":1367:1551   */\n      pop\n        /* \"#utility.yul\":1305:1551   */\n      pop\n      pop\n      pop\n      jump\t// out\n        /* \"#utility.yul\":1557:1659   */\n    tag_164:\n        /* \"#utility.yul\":1598:1604   */\n      0x00\n        /* \"#utility.yul\":1649:1651   */\n      0x1f\n        /* \"#utility.yul\":1645:1652   */\n      not\n        /* \"#utility.yul\":1640:1642   */\n      0x1f\n        /* \"#utility.yul\":1633:1638   */\n      dup4\n        /* \"#utility.yul\":1629:1643   */\n      add\n        /* \"#utility.yul\":1625:1653   */\n      and\n        /* \"#utility.yul\":1615:1653   */\n      swap1\n      pop\n        /* \"#utility.yul\":1557:1659   */\n      swap2\n      swap1\n      pop\n      jump\t// out\n        /* \"#utility.yul\":1665:2042   */\n    tag_165:\n        /* \"#utility.yul\":1753:1756   */\n      0x00\n        /* \"#utility.yul\":1781:1820   */\n      tag_241\n        /* \"#utility.yul\":1814:1819   */\n      dup3\n        /* \"#utility.yul\":1781:1820   */\n      tag_161\n      jump\t// in\n    tag_241:\n        /* \"#utility.yul\":1836:1907   */\n      tag_242\n        /* \"#utility.yul\":1900:1906   */\n      dup2\n        /* \"#utility.yul\":1895:1898   */\n      dup6\n        /* \"#utility.yul\":1836:1907   */\n      tag_162\n      jump\t// in\n    tag_242:\n        /* \"#utility.yul\":1829:1907   */\n      swap4\n      pop\n        /* \"#utility.yul\":1916:1981   */\n      tag_243\n        /* \"#utility.yul\":1974:1980   */\n      dup2\n        /* \"#utility.yul\":1969:1972   */\n      dup6\n        /* \"#utility.yul\":1962:1966   */\n      0x20\n        /* \"#utility.yul\":1955:1960   */\n      dup7\n        /* \"#utility.yul\":1951:1967   */\n      add\n        /* \"#utility.yul\":1916:1981   */\n      tag_163\n      jump\t// in\n    tag_243:\n        /* \"#utility.yul\":2006:2035   */\n      tag_244\n        /* \"#utility.yul\":2028:2034   */\n      dup2\n        /* \"#utility.yul\":2006:2035   */\n      tag_164\n      jump\t// in\n    tag_244:\n        /* \"#utility.yul\":2001:2004   */\n      dup5\n        /* \"#utility.yul\":1997:2036   */\n      add\n        /* \"#utility.yul\":1990:2036   */\n      swap2\n      pop\n        /* \"#utility.yul\":1757:2042   */\n      pop\n        /* \"#utility.yul\":1665:2042   */\n      swap3\n      swap2\n      pop\n      pop\n      jump\t// out\n        /* \"#utility.yul\":2048:2166   */\n    tag_166:\n        /* \"#utility.yul\":2135:2159   */\n      tag_246\n        /* \"#utility.yul\":2153:2158   */\n      dup2\n        /* \"#utility.yul\":2135:2159   */\n      tag_158\n      jump\t// in\n    tag_246:\n        /* \"#utility.yul\":2130:2133   */\n      dup3\n        /* \"#utility.yul\":2123:2160   */\n      mstore\n        /* \"#utility.yul\":2048:2166   */\n      pop\n      pop\n      jump\t// out\n        /* \"#utility.yul\":2172:2262   */\n    tag_167:\n        /* \"#utility.yul\":2206:2213   */\n      0x00\n        /* \"#utility.yul\":2249:2254   */\n      dup2\n        /* \"#utility.yul\":2242:2255   */\n      iszero\n        /* \"#utility.yul\":2235:2256   */\n      iszero\n        /* \"#utility.yul\":2224:2256   */\n      swap1\n      pop\n        /* \"#utility.yul\":2172:2262   */\n      swap2\n      swap1\n      pop\n      jump\t// out\n        /* \"#utility.yul\":2268:2377   */\n    tag_168:\n        /* \"#utility.yul\":2349:2370   */\n      tag_249\n        /* \"#utility.yul\":2364:2369   */\n      dup2\n        /* \"#utility.yul\":2349:2370   */\n      tag_167\n      jump\t// in\n    tag_249:\n        /* \"#utility.yul\":2344:2347   */\n      dup3\n        /* \"#utility.yul\":2337:2371   */\n      mstore\n        /* \"#utility.yul\":2268:2377   */\n      pop\n      pop\n      jump\t// out\n        /* \"#utility.yul\":2383:3237   */\n    tag_21:\n        /* \"#utility.yul\":2630:2634   */\n      0x00\n        /* \"#utility.yul\":2668:2671   */\n      0xc0\n        /* \"#utility.yul\":2657:2666   */\n      dup3\n        /* \"#utility.yul\":2653:2672   */\n      add\n        /* \"#utility.yul\":2645:2672   */\n      swap1\n      pop\n        /* \"#utility.yul\":2718:2727   */\n      dup2\n        /* \"#utility.yul\":2712:2716   */\n      dup2\n        /* \"#utility.yul\":2708:2728   */\n      sub\n        /* \"#utility.yul\":2704:2705   */\n      0x00\n        /* \"#utility.yul\":2693:2702   */\n      dup4\n        /* \"#utility.yul\":2689:2706   */\n      add\n        /* \"#utility.yul\":2682:2729   */\n      mstore\n        /* \"#utility.yul\":2746:2824   */\n      tag_251\n        /* \"#utility.yul\":2819:2823   */\n      dup2\n        /* \"#utility.yul\":2810:2816   */\n      dup10\n        /* \"#utility.yul\":2746:2824   */\n      tag_165\n      jump\t// in\n    tag_251:\n        /* \"#utility.yul\":2738:2824   */\n      swap1\n      pop\n        /* \"#utility.yul\":2834:2906   */\n      tag_252\n        /* \"#utility.yul\":2902:2904   */\n      0x20\n        /* \"#utility.yul\":2891:2900   */\n      dup4\n        /* \"#utility.yul\":2887:2905   */\n      add\n        /* \"#utility.yul\":2878:2884   */\n      dup9\n        /* \"#utility.yul\":2834:2906   */\n      tag_166\n      jump\t// in\n    tag_252:\n        /* \"#utility.yul\":2916:2988   */\n      tag_253\n        /* \"#utility.yul\":2984:2986   */\n      0x40\n        /* \"#utility.yul\":2973:2982   */\n      dup4\n        /* \"#utility.yul\":2969:2987   */\n      add\n        /* \"#utility.yul\":2960:2966   */\n      dup8\n        /* \"#utility.yul\":2916:2988   */\n      tag_166\n      jump\t// in\n    tag_253:\n        /* \"#utility.yul\":2998:3070   */\n      tag_254\n        /* \"#utility.yul\":3066:3068   */\n      0x60\n        /* \"#utility.yul\":3055:3064   */\n      dup4\n        /* \"#utility.yul\":3051:3069   */\n      add\n        /* \"#utility.yul\":3042:3048   */\n      dup7\n        /* \"#utility.yul\":2998:3070   */\n      tag_166\n      jump\t// in\n    tag_254:\n        /* \"#utility.yul\":3080:3153   */\n      tag_255\n        /* \"#utility.yul\":3148:3151   */\n      0x80\n        /* \"#utility.yul\":3137:3146   */\n      dup4\n        /* \"#utility.yul\":3133:3152   */\n      add\n        /* \"#utility.yul\":3124:3130   */\n      dup6\n        /* \"#utility.yul\":3080:3153   */\n      tag_166\n      jump\t// in\n    tag_255:\n        /* \"#utility.yul\":3163:3230   */\n      tag_256\n        /* \"#utility.yul\":3225:3228   */\n      0xa0\n        /* \"#utility.yul\":3214:3223   */\n      dup4\n        /* \"#utility.yul\":3210:3229   */\n      add\n        /* \"#utility.yul\":3201:3207   */\n      dup5\n        /* \"#utility.yul\":3163:3230   */\n      tag_168\n      jump\t// in\n    tag_256:\n        /* \"#utility.yul\":2383:3237   */\n      swap8\n      swap7\n      pop\n      pop\n      pop\n      pop\n      pop\n      pop\n      pop\n      jump\t// out\n        /* \"#utility.yul\":3243:3369   */\n    tag_169:\n        /* \"#utility.yul\":3280:3287   */\n      0x00\n        /* \"#utility.yul\":3320:3362   */\n      0xffffffffffffffffffffffffffffffffffffffff\n        /* \"#utility.yul\":3313:3318   */\n      dup3\n        /* \"#utility.yul\":3309:3363   */\n      and\n        /* \"#utility.yul\":3298:3363   */\n      swap1\n      pop\n        /* \"#utility.yul\":3243:3369   */\n      swap2\n      swap1\n      pop\n      jump\t// out\n        /* \"#utility.yul\":3375:3471   */\n    tag_170:\n        /* \"#utility.yul\":3412:3419   */\n      0x00\n        /* \"#utility.yul\":3441:3465   */\n      tag_259\n        /* \"#utility.yul\":3459:3464   */\n      dup3\n        /* \"#utility.yul\":3441:3465   */\n      tag_169\n      jump\t// in\n    tag_259:\n        /* \"#utility.yul\":3430:3465   */\n      swap1\n      pop\n        /* \"#utility.yul\":3375:3471   */\n      swap2\n      swap1\n      pop\n      jump\t// out\n        /* \"#utility.yul\":3477:3599   */\n    tag_171:\n        /* \"#utility.yul\":3550:3574   */\n      tag_261\n        /* \"#utility.yul\":3568:3573   */\n      dup2\n        /* \"#utility.yul\":3550:3574   */\n      tag_170\n      jump\t// in\n    tag_261:\n        /* \"#utility.yul\":3543:3548   */\n      dup2\n        /* \"#utility.yul\":3540:3575   */\n      eq\n        /* \"#utility.yul\":3530:3593   */\n      tag_262\n      jumpi\n        /* \"#utility.yul\":3589:3590   */\n      0x00\n        /* \"#utility.yul\":3586:3587   */\n      dup1\n        /* \"#utility.yul\":3579:3591   */\n      revert\n        /* \"#utility.yul\":3530:3593   */\n    tag_262:\n        /* \"#utility.yul\":3477:3599   */\n      pop\n      jump\t// out\n        /* \"#utility.yul\":3605:3744   */\n    tag_172:\n        /* \"#utility.yul\":3651:3656   */\n      0x00\n        /* \"#utility.yul\":3689:3695   */\n      dup2\n        /* \"#utility.yul\":3676:3696   */\n      calldataload\n        /* \"#utility.yul\":3667:3696   */\n      swap1\n      pop\n        /* \"#utility.yul\":3705:3738   */\n      tag_264\n        /* \"#utility.yul\":3732:3737   */\n      dup2\n        /* \"#utility.yul\":3705:3738   */\n      tag_171\n      jump\t// in\n    tag_264:\n        /* \"#utility.yul\":3605:3744   */\n      swap3\n      swap2\n      pop\n      pop\n      jump\t// out\n        /* \"#utility.yul\":3750:4224   */\n    tag_25:\n        /* \"#utility.yul\":3818:3824   */\n      0x00\n        /* \"#utility.yul\":3826:3832   */\n      dup1\n        /* \"#utility.yul\":3875:3877   */\n      0x40\n        /* \"#utility.yul\":3863:3872   */\n      dup4\n        /* \"#utility.yul\":3854:3861   */\n      dup6\n        /* \"#utility.yul\":3850:3873   */\n      sub\n        /* \"#utility.yul\":3846:3878   */\n      slt\n        /* \"#utility.yul\":3843:3962   */\n      iszero\n      tag_266\n      jumpi\n        /* \"#utility.yul\":3881:3960   */\n      tag_267\n      tag_156\n      jump\t// in\n    tag_267:\n        /* \"#utility.yul\":3843:3962   */\n    tag_266:\n        /* \"#utility.yul\":4001:4002   */\n      0x00\n        /* \"#utility.yul\":4026:4079   */\n      tag_268\n        /* \"#utility.yul\":4071:4078   */\n      dup6\n        /* \"#utility.yul\":4062:4068   */\n      dup3\n        /* \"#utility.yul\":4051:4060   */\n      dup7\n        /* \"#utility.yul\":4047:4069   */\n      add\n        /* \"#utility.yul\":4026:4079   */\n      tag_160\n      jump\t// in\n    tag_268:\n        /* \"#utility.yul\":4016:4079   */\n      swap3\n      pop\n        /* \"#utility.yul\":3972:4089   */\n      pop\n        /* \"#utility.yul\":4128:4130   */\n      0x20\n        /* \"#utility.yul\":4154:4207   */\n      tag_269\n        /* \"#utility.yul\":4199:4206   */\n      dup6\n        /* \"#utility.yul\":4190:4196   */\n      dup3\n        /* \"#utility.yul\":4179:4188   */\n      dup7\n        /* \"#utility.yul\":4175:4197   */\n      add\n        /* \"#utility.yul\":4154:4207   */\n      tag_172\n      jump\t// in\n    tag_269:\n        /* \"#utility.yul\":4144:4207   */\n      swap2\n      pop\n        /* \"#utility.yul\":4099:4217   */\n      pop\n        /* \"#utility.yul\":3750:4224   */\n      swap3\n      pop\n      swap3\n      swap1\n      pop\n      jump\t// out\n        /* \"#utility.yul\":4230:4452   */\n    tag_28:\n        /* \"#utility.yul\":4323:4327   */\n      0x00\n        /* \"#utility.yul\":4361:4363   */\n      0x20\n        /* \"#utility.yul\":4350:4359   */\n      dup3\n        /* \"#utility.yul\":4346:4364   */\n      add\n        /* \"#utility.yul\":4338:4364   */\n      swap1\n      pop\n        /* \"#utility.yul\":4374:4445   */\n      tag_271\n        /* \"#utility.yul\":4442:4443   */\n      0x00\n        /* \"#utility.yul\":4431:4440   */\n      dup4\n        /* \"#utility.yul\":4427:4444   */\n      add\n        /* \"#utility.yul\":4418:4424   */\n      dup5\n        /* \"#utility.yul\":4374:4445   */\n      tag_166\n      jump\t// in\n    tag_271:\n        /* \"#utility.yul\":4230:4452   */\n      swap3\n      swap2\n      pop\n      pop\n      jump\t// out\n        /* \"#utility.yul\":4458:4575   */\n    tag_173:\n        /* \"#utility.yul\":4567:4568   */\n      0x00\n        /* \"#utility.yul\":4564:4565   */\n      dup1\n        /* \"#utility.yul\":4557:4569   */\n      revert\n        /* \"#utility.yul\":4581:4698   */\n    tag_174:\n        /* \"#utility.yul\":4690:4691   */\n      0x00\n        /* \"#utility.yul\":4687:4688   */\n      dup1\n        /* \"#utility.yul\":4680:4692   */\n      revert\n        /* \"#utility.yul\":4704:4884   */\n    tag_175:\n        /* \"#utility.yul\":4752:4829   */\n      0x4e487b7100000000000000000000000000000000000000000000000000000000\n        /* \"#utility.yul\":4749:4750   */\n      0x00\n        /* \"#utility.yul\":4742:4830   */\n      mstore\n        /* \"#utility.yul\":4849:4853   */\n      0x41\n        /* \"#utility.yul\":4846:4847   */\n      0x04\n        /* \"#utility.yul\":4839:4854   */\n      mstore\n        /* \"#utility.yul\":4873:4877   */\n      0x24\n        /* \"#utility.yul\":4870:4871   */\n      0x00\n        /* \"#utility.yul\":4863:4878   */\n      revert\n        /* \"#utility.yul\":4890:5171   */\n    tag_176:\n        /* \"#utility.yul\":4973:5000   */\n      tag_276\n        /* \"#utility.yul\":4995:4999   */\n      dup3\n        /* \"#utility.yul\":4973:5000   */\n      tag_164\n      jump\t// in\n    tag_276:\n        /* \"#utility.yul\":4965:4971   */\n      dup2\n        /* \"#utility.yul\":4961:5001   */\n      add\n        /* \"#utility.yul\":5103:5109   */\n      dup2\n        /* \"#utility.yul\":5091:5101   */\n      dup2\n        /* \"#utility.yul\":5088:5110   */\n      lt\n        /* \"#utility.yul\":5067:5085   */\n      0xffffffffffffffff\n        /* \"#utility.yul\":5055:5065   */\n      dup3\n        /* \"#utility.yul\":5052:5086   */\n      gt\n        /* \"#utility.yul\":5049:5111   */\n      or\n        /* \"#utility.yul\":5046:5134   */\n      iszero\n      tag_277\n      jumpi\n        /* \"#utility.yul\":5114:5132   */\n      tag_278\n      tag_175\n      jump\t// in\n    tag_278:\n        /* \"#utility.yul\":5046:5134   */\n    tag_277:\n        /* \"#utility.yul\":5154:5164   */\n      dup1\n        /* \"#utility.yul\":5150:5152   */\n      0x40\n        /* \"#utility.yul\":5143:5165   */\n      mstore\n        /* \"#utility.yul\":4933:5171   */\n      pop\n        /* \"#utility.yul\":4890:5171   */\n      pop\n      pop\n      jump\t// out\n        /* \"#utility.yul\":5177:5306   */\n    tag_177:\n        /* \"#utility.yul\":5211:5217   */\n      0x00\n        /* \"#utility.yul\":5238:5258   */\n      tag_280\n      tag_155\n      jump\t// in\n    tag_280:\n        /* \"#utility.yul\":5228:5258   */\n      swap1\n      pop\n        /* \"#utility.yul\":5267:5300   */\n      tag_281\n        /* \"#utility.yul\":5295:5299   */\n      dup3\n        /* \"#utility.yul\":5287:5293   */\n      dup3\n        /* \"#utility.yul\":5267:5300   */\n      tag_176\n      jump\t// in\n    tag_281:\n        /* \"#utility.yul\":5177:5306   */\n      swap2\n      swap1\n      pop\n      jump\t// out\n        /* \"#utility.yul\":5312:5620   */\n    tag_178:\n        /* \"#utility.yul\":5374:5378   */\n      0x00\n        /* \"#utility.yul\":5464:5482   */\n      0xffffffffffffffff\n        /* \"#utility.yul\":5456:5462   */\n      dup3\n        /* \"#utility.yul\":5453:5483   */\n      gt\n        /* \"#utility.yul\":5450:5506   */\n      iszero\n      tag_283\n      jumpi\n        /* \"#utility.yul\":5486:5504   */\n      tag_284\n      tag_175\n      jump\t// in\n    tag_284:\n        /* \"#utility.yul\":5450:5506   */\n    tag_283:\n        /* \"#utility.yul\":5524:5553   */\n      tag_285\n        /* \"#utility.yul\":5546:5552   */\n      dup3\n        /* \"#utility.yul\":5524:5553   */\n      tag_164\n      jump\t// in\n    tag_285:\n        /* \"#utility.yul\":5516:5553   */\n      swap1\n      pop\n        /* \"#utility.yul\":5608:5612   */\n      0x20\n        /* \"#utility.yul\":5602:5606   */\n      dup2\n        /* \"#utility.yul\":5598:5613   */\n      add\n        /* \"#utility.yul\":5590:5613   */\n      swap1\n      pop\n        /* \"#utility.yul\":5312:5620   */\n      swap2\n      swap1\n      pop\n      jump\t// out\n        /* \"#utility.yul\":5626:5772   */\n    tag_179:\n        /* \"#utility.yul\":5723:5729   */\n      dup3\n        /* \"#utility.yul\":5718:5721   */\n      dup2\n        /* \"#utility.yul\":5713:5716   */\n      dup4\n        /* \"#utility.yul\":5700:5730   */\n      calldatacopy\n        /* \"#utility.yul\":5764:5765   */\n      0x00\n        /* \"#utility.yul\":5755:5761   */\n      dup4\n        /* \"#utility.yul\":5750:5753   */\n      dup4\n        /* \"#utility.yul\":5746:5762   */\n      add\n        /* \"#utility.yul\":5739:5766   */\n      mstore\n        /* \"#utility.yul\":5626:5772   */\n      pop\n      pop\n      pop\n      jump\t// out\n        /* \"#utility.yul\":5778:6203   */\n    tag_180:\n        /* \"#utility.yul\":5856:5861   */\n      0x00\n        /* \"#utility.yul\":5881:5947   */\n      tag_288\n        /* \"#utility.yul\":5897:5946   */\n      tag_289\n        /* \"#utility.yul\":5939:5945   */\n      dup5\n        /* \"#utility.yul\":5897:5946   */\n      tag_178\n      jump\t// in\n    tag_289:\n        /* \"#utility.yul\":5881:5947   */\n      tag_177\n      jump\t// in\n    tag_288:\n        /* \"#utility.yul\":5872:5947   */\n      swap1\n      pop\n        /* \"#utility.yul\":5970:5976   */\n      dup3\n        /* \"#utility.yul\":5963:5968   */\n      dup2\n        /* \"#utility.yul\":5956:5977   */\n      mstore\n        /* \"#utility.yul\":6008:6012   */\n      0x20\n        /* \"#utility.yul\":6001:6006   */\n      dup2\n        /* \"#utility.yul\":5997:6013   */\n      add\n        /* \"#utility.yul\":6046:6049   */\n      dup5\n        /* \"#utility.yul\":6037:6043   */\n      dup5\n        /* \"#utility.yul\":6032:6035   */\n      dup5\n        /* \"#utility.yul\":6028:6044   */\n      add\n        /* \"#utility.yul\":6025:6050   */\n      gt\n        /* \"#utility.yul\":6022:6134   */\n      iszero\n      tag_290\n      jumpi\n        /* \"#utility.yul\":6053:6132   */\n      tag_291\n      tag_174\n      jump\t// in\n    tag_291:\n        /* \"#utility.yul\":6022:6134   */\n    tag_290:\n        /* \"#utility.yul\":6143:6197   */\n      tag_292\n        /* \"#utility.yul\":6190:6196   */\n      dup5\n        /* \"#utility.yul\":6185:6188   */\n      dup3\n        /* \"#utility.yul\":6180:6183   */\n      dup6\n        /* \"#utility.yul\":6143:6197   */\n      tag_179\n      jump\t// in\n    tag_292:\n        /* \"#utility.yul\":5862:6203   */\n      pop\n        /* \"#utility.yul\":5778:6203   */\n      swap4\n      swap3\n      pop\n      pop\n      pop\n      jump\t// out\n        /* \"#utility.yul\":6223:6563   */\n    tag_181:\n        /* \"#utility.yul\":6279:6284   */\n      0x00\n        /* \"#utility.yul\":6328:6331   */\n      dup3\n        /* \"#utility.yul\":6321:6325   */\n      0x1f\n        /* \"#utility.yul\":6313:6319   */\n      dup4\n        /* \"#utility.yul\":6309:6326   */\n      add\n        /* \"#utility.yul\":6305:6332   */\n      slt\n        /* \"#utility.yul\":6295:6417   */\n      tag_294\n      jumpi\n        /* \"#utility.yul\":6336:6415   */\n      tag_295\n      tag_173\n      jump\t// in\n    tag_295:\n        /* \"#utility.yul\":6295:6417   */\n    tag_294:\n        /* \"#utility.yul\":6453:6459   */\n      dup2\n        /* \"#utility.yul\":6440:6460   */\n      calldataload\n        /* \"#utility.yul\":6478:6557   */\n      tag_296\n        /* \"#utility.yul\":6553:6556   */\n      dup5\n        /* \"#utility.yul\":6545:6551   */\n      dup3\n        /* \"#utility.yul\":6538:6542   */\n      0x20\n        /* \"#utility.yul\":6530:6536   */\n      dup7\n        /* \"#utility.yul\":6526:6543   */\n      add\n        /* \"#utility.yul\":6478:6557   */\n      tag_180\n      jump\t// in\n    tag_296:\n        /* \"#utility.yul\":6469:6557   */\n      swap2\n      pop\n        /* \"#utility.yul\":6285:6563   */\n      pop\n        /* \"#utility.yul\":6223:6563   */\n      swap3\n      swap2\n      pop\n      pop\n      jump\t// out\n        /* \"#utility.yul\":6569:7368   */\n    tag_36:\n        /* \"#utility.yul\":6656:6662   */\n      0x00\n        /* \"#utility.yul\":6664:6670   */\n      dup1\n        /* \"#utility.yul\":6672:6678   */\n      0x00\n        /* \"#utility.yul\":6721:6723   */\n      0x60\n        /* \"#utility.yul\":6709:6718   */\n      dup5\n        /* \"#utility.yul\":6700:6707   */\n      dup7\n        /* \"#utility.yul\":6696:6719   */\n      sub\n        /* \"#utility.yul\":6692:6724   */\n      slt\n        /* \"#utility.yul\":6689:6808   */\n      iszero\n      tag_298\n      jumpi\n        /* \"#utility.yul\":6727:6806   */\n      tag_299\n      tag_156\n      jump\t// in\n    tag_299:\n        /* \"#utility.yul\":6689:6808   */\n    tag_298:\n        /* \"#utility.yul\":6875:6876   */\n      0x00\n        /* \"#utility.yul\":6864:6873   */\n      dup5\n        /* \"#utility.yul\":6860:6877   */\n      add\n        /* \"#utility.yul\":6847:6878   */\n      calldataload\n        /* \"#utility.yul\":6905:6923   */\n      0xffffffffffffffff\n        /* \"#utility.yul\":6897:6903   */\n      dup2\n        /* \"#utility.yul\":6894:6924   */\n      gt\n        /* \"#utility.yul\":6891:7008   */\n      iszero\n      tag_300\n      jumpi\n        /* \"#utility.yul\":6927:7006   */\n      tag_301\n      tag_157\n      jump\t// in\n    tag_301:\n        /* \"#utility.yul\":6891:7008   */\n    tag_300:\n        /* \"#utility.yul\":7032:7095   */\n      tag_302\n        /* \"#utility.yul\":7087:7094   */\n      dup7\n        /* \"#utility.yul\":7078:7084   */\n      dup3\n        /* \"#utility.yul\":7067:7076   */\n      dup8\n        /* \"#utility.yul\":7063:7085   */\n      add\n        /* \"#utility.yul\":7032:7095   */\n      tag_181\n      jump\t// in\n    tag_302:\n        /* \"#utility.yul\":7022:7095   */\n      swap4\n      pop\n        /* \"#utility.yul\":6818:7105   */\n      pop\n        /* \"#utility.yul\":7144:7146   */\n      0x20\n        /* \"#utility.yul\":7170:7223   */\n      tag_303\n        /* \"#utility.yul\":7215:7222   */\n      dup7\n        /* \"#utility.yul\":7206:7212   */\n      dup3\n        /* \"#utility.yul\":7195:7204   */\n      dup8\n        /* \"#utility.yul\":7191:7213   */\n      add\n        /* \"#utility.yul\":7170:7223   */\n      tag_160\n      jump\t// in\n    tag_303:\n        /* \"#utility.yul\":7160:7223   */\n      swap3\n      pop\n        /* \"#utility.yul\":7115:7233   */\n      pop\n        /* \"#utility.yul\":7272:7274   */\n      0x40\n        /* \"#utility.yul\":7298:7351   */\n      tag_304\n        /* \"#utility.yul\":7343:7350   */\n      dup7\n        /* \"#utility.yul\":7334:7340   */\n      dup3\n        /* \"#utility.yul\":7323:7332   */\n      dup8\n        /* \"#utility.yul\":7319:7341   */\n      add\n        /* \"#utility.yul\":7298:7351   */\n      tag_160\n      jump\t// in\n    tag_304:\n        /* \"#utility.yul\":7288:7351   */\n      swap2\n      pop\n        /* \"#utility.yul\":7243:7361   */\n      pop\n        /* \"#utility.yul\":6569:7368   */\n      swap3\n      pop\n      swap3\n      pop\n      swap3\n      jump\t// out\n        /* \"#utility.yul\":7374:7703   */\n    tag_42:\n        /* \"#utility.yul\":7433:7439   */\n      0x00\n        /* \"#utility.yul\":7482:7484   */\n      0x20\n        /* \"#utility.yul\":7470:7479   */\n      dup3\n        /* \"#utility.yul\":7461:7468   */\n      dup5\n        /* \"#utility.yul\":7457:7480   */\n      sub\n        /* \"#utility.yul\":7453:7485   */\n      slt\n        /* \"#utility.yul\":7450:7569   */\n      iszero\n      tag_306\n      jumpi\n        /* \"#utility.yul\":7488:7567   */\n      tag_307\n      tag_156\n      jump\t// in\n    tag_307:\n        /* \"#utility.yul\":7450:7569   */\n    tag_306:\n        /* \"#utility.yul\":7608:7609   */\n      0x00\n        /* \"#utility.yul\":7633:7686   */\n      tag_308\n        /* \"#utility.yul\":7678:7685   */\n      dup5\n        /* \"#utility.yul\":7669:7675   */\n      dup3\n        /* \"#utility.yul\":7658:7667   */\n      dup6\n        /* \"#utility.yul\":7654:7676   */\n      add\n        /* \"#utility.yul\":7633:7686   */\n      tag_172\n      jump\t// in\n    tag_308:\n        /* \"#utility.yul\":7623:7686   */\n      swap2\n      pop\n        /* \"#utility.yul\":7579:7696   */\n      pop\n        /* \"#utility.yul\":7374:7703   */\n      swap3\n      swap2\n      pop\n      pop\n      jump\t// out\n        /* \"#utility.yul\":7709:8183   */\n    tag_56:\n        /* \"#utility.yul\":7777:7783   */\n      0x00\n        /* \"#utility.yul\":7785:7791   */\n      dup1\n        /* \"#utility.yul\":7834:7836   */\n      0x40\n        /* \"#utility.yul\":7822:7831   */\n      dup4\n        /* \"#utility.yul\":7813:7820   */\n      dup6\n        /* \"#utility.yul\":7809:7832   */\n      sub\n        /* \"#utility.yul\":7805:7837   */\n      slt\n        /* \"#utility.yul\":7802:7921   */\n      iszero\n      tag_310\n      jumpi\n        /* \"#utility.yul\":7840:7919   */\n      tag_311\n      tag_156\n      jump\t// in\n    tag_311:\n        /* \"#utility.yul\":7802:7921   */\n    tag_310:\n        /* \"#utility.yul\":7960:7961   */\n      0x00\n        /* \"#utility.yul\":7985:8038   */\n      tag_312\n        /* \"#utility.yul\":8030:8037   */\n      dup6\n        /* \"#utility.yul\":8021:8027   */\n      dup3\n        /* \"#utility.yul\":8010:8019   */\n      dup7\n        /* \"#utility.yul\":8006:8028   */\n      add\n        /* \"#utility.yul\":7985:8038   */\n      tag_160\n      jump\t// in\n    tag_312:\n        /* \"#utility.yul\":7975:8038   */\n      swap3\n      pop\n        /* \"#utility.yul\":7931:8048   */\n      pop\n        /* \"#utility.yul\":8087:8089   */\n      0x20\n        /* \"#utility.yul\":8113:8166   */\n      tag_313\n        /* \"#utility.yul\":8158:8165   */\n      dup6\n        /* \"#utility.yul\":8149:8155   */\n      dup3\n        /* \"#utility.yul\":8138:8147   */\n      dup7\n        /* \"#utility.yul\":8134:8156   */\n      add\n        /* \"#utility.yul\":8113:8166   */\n      tag_160\n      jump\t// in\n    tag_313:\n        /* \"#utility.yul\":8103:8166   */\n      swap2\n      pop\n        /* \"#utility.yul\":8058:8176   */\n      pop\n        /* \"#utility.yul\":7709:8183   */\n      swap3\n      pop\n      swap3\n      swap1\n      pop\n      jump\t// out\n        /* \"#utility.yul\":8189:8307   */\n    tag_182:\n        /* \"#utility.yul\":8276:8300   */\n      tag_315\n        /* \"#utility.yul\":8294:8299   */\n      dup2\n        /* \"#utility.yul\":8276:8300   */\n      tag_170\n      jump\t// in\n    tag_315:\n        /* \"#utility.yul\":8271:8274   */\n      dup3\n        /* \"#utility.yul\":8264:8301   */\n      mstore\n        /* \"#utility.yul\":8189:8307   */\n      pop\n      pop\n      jump\t// out\n        /* \"#utility.yul\":8313:8535   */\n    tag_59:\n        /* \"#utility.yul\":8406:8410   */\n      0x00\n        /* \"#utility.yul\":8444:8446   */\n      0x20\n        /* \"#utility.yul\":8433:8442   */\n      dup3\n        /* \"#utility.yul\":8429:8447   */\n      add\n        /* \"#utility.yul\":8421:8447   */\n      swap1\n      pop\n        /* \"#utility.yul\":8457:8528   */\n      tag_317\n        /* \"#utility.yul\":8525:8526   */\n      0x00\n        /* \"#utility.yul\":8514:8523   */\n      dup4\n        /* \"#utility.yul\":8510:8527   */\n      add\n        /* \"#utility.yul\":8501:8507   */\n      dup5\n        /* \"#utility.yul\":8457:8528   */\n      tag_182\n      jump\t// in\n    tag_317:\n        /* \"#utility.yul\":8313:8535   */\n      swap3\n      swap2\n      pop\n      pop\n      jump\t// out\n        /* \"#utility.yul\":8541:8714   */\n    tag_183:\n        /* \"#utility.yul\":8681:8706   */\n      0x43616d706169676e20646f6573206e6f74206578697374000000000000000000\n        /* \"#utility.yul\":8677:8678   */\n      0x00\n        /* \"#utility.yul\":8669:8675   */\n      dup3\n        /* \"#utility.yul\":8665:8679   */\n      add\n        /* \"#utility.yul\":8658:8707   */\n      mstore\n        /* \"#utility.yul\":8541:8714   */\n      pop\n      jump\t// out\n        /* \"#utility.yul\":8720:9086   */\n    tag_184:\n        /* \"#utility.yul\":8862:8865   */\n      0x00\n        /* \"#utility.yul\":8883:8950   */\n      tag_320\n        /* \"#utility.yul\":8947:8949   */\n      0x17\n        /* \"#utility.yul\":8942:8945   */\n      dup4\n        /* \"#utility.yul\":8883:8950   */\n      tag_162\n      jump\t// in\n    tag_320:\n        /* \"#utility.yul\":8876:8950   */\n      swap2\n      pop\n        /* \"#utility.yul\":8959:9052   */\n      tag_321\n        /* \"#utility.yul\":9048:9051   */\n      dup3\n        /* \"#utility.yul\":8959:9052   */\n      tag_183\n      jump\t// in\n    tag_321:\n        /* \"#utility.yul\":9077:9079   */\n      0x20\n        /* \"#utility.yul\":9072:9075   */\n      dup3\n        /* \"#utility.yul\":9068:9080   */\n      add\n        /* \"#utility.yul\":9061:9080   */\n      swap1\n      pop\n        /* \"#utility.yul\":8720:9086   */\n      swap2\n      swap1\n      pop\n      jump\t// out\n        /* \"#utility.yul\":9092:9511   */\n    tag_63:\n        /* \"#utility.yul\":9258:9262   */\n      0x00\n        /* \"#utility.yul\":9296:9298   */\n      0x20\n        /* \"#utility.yul\":9285:9294   */\n      dup3\n        /* \"#utility.yul\":9281:9299   */\n      add\n        /* \"#utility.yul\":9273:9299   */\n      swap1\n      pop\n        /* \"#utility.yul\":9345:9354   */\n      dup2\n        /* \"#utility.yul\":9339:9343   */\n      dup2\n        /* \"#utility.yul\":9335:9355   */\n      sub\n        /* \"#utility.yul\":9331:9332   */\n      0x00\n        /* \"#utility.yul\":9320:9329   */\n      dup4\n        /* \"#utility.yul\":9316:9333   */\n      add\n        /* \"#utility.yul\":9309:9356   */\n      mstore\n        /* \"#utility.yul\":9373:9504   */\n      tag_323\n        /* \"#utility.yul\":9499:9503   */\n      dup2\n        /* \"#utility.yul\":9373:9504   */\n      tag_184\n      jump\t// in\n    tag_323:\n        /* \"#utility.yul\":9365:9504   */\n      swap1\n      pop\n        /* \"#utility.yul\":9092:9511   */\n      swap2\n      swap1\n      pop\n      jump\t// out\n        /* \"#utility.yul\":9517:9749   */\n    tag_185:\n        /* \"#utility.yul\":9657:9691   */\n      0x43616d706169676e2068617320616c7265616479207265616368656420697473\n        /* \"#utility.yul\":9653:9654   */\n      0x00\n        /* \"#utility.yul\":9645:9651   */\n      dup3\n        /* \"#utility.yul\":9641:9655   */\n      add\n        /* \"#utility.yul\":9634:9692   */\n      mstore\n        /* \"#utility.yul\":9726:9741   */\n      0x2066756e64696e6720676f616c00000000000000000000000000000000000000\n        /* \"#utility.yul\":9721:9723   */\n      0x20\n        /* \"#utility.yul\":9713:9719   */\n      dup3\n        /* \"#utility.yul\":9709:9724   */\n      add\n        /* \"#utility.yul\":9702:9742   */\n      mstore\n        /* \"#utility.yul\":9517:9749   */\n      pop\n      jump\t// out\n        /* \"#utility.yul\":9755:10121   */\n    tag_186:\n        /* \"#utility.yul\":9897:9900   */\n      0x00\n        /* \"#utility.yul\":9918:9985   */\n      tag_326\n        /* \"#utility.yul\":9982:9984   */\n      0x2d\n        /* \"#utility.yul\":9977:9980   */\n      dup4\n        /* \"#utility.yul\":9918:9985   */\n      tag_162\n      jump\t// in\n    tag_326:\n        /* \"#utility.yul\":9911:9985   */\n      swap2\n      pop\n        /* \"#utility.yul\":9994:10087   */\n      tag_327\n        /* \"#utility.yul\":10083:10086   */\n      dup3\n        /* \"#utility.yul\":9994:10087   */\n      tag_185\n      jump\t// in\n    tag_327:\n        /* \"#utility.yul\":10112:10114   */\n      0x40\n        /* \"#utility.yul\":10107:10110   */\n      dup3\n        /* \"#utility.yul\":10103:10115   */\n      add\n        /* \"#utility.yul\":10096:10115   */\n      swap1\n      pop\n        /* \"#utility.yul\":9755:10121   */\n      swap2\n      swap1\n      pop\n      jump\t// out\n        /* \"#utility.yul\":10127:10546   */\n    tag_66:\n        /* \"#utility.yul\":10293:10297   */\n      0x00\n        /* \"#utility.yul\":10331:10333   */\n      0x20\n        /* \"#utility.yul\":10320:10329   */\n      dup3\n        /* \"#utility.yul\":10316:10334   */\n      add\n        /* \"#utility.yul\":10308:10334   */\n      swap1\n      pop\n        /* \"#utility.yul\":10380:10389   */\n      dup2\n        /* \"#utility.yul\":10374:10378   */\n      dup2\n        /* \"#utility.yul\":10370:10390   */\n      sub\n        /* \"#utility.yul\":10366:10367   */\n      0x00\n        /* \"#utility.yul\":10355:10364   */\n      dup4\n        /* \"#utility.yul\":10351:10368   */\n      add\n        /* \"#utility.yul\":10344:10391   */\n      mstore\n        /* \"#utility.yul\":10408:10539   */\n      tag_329\n        /* \"#utility.yul\":10534:10538   */\n      dup2\n        /* \"#utility.yul\":10408:10539   */\n      tag_186\n      jump\t// in\n    tag_329:\n        /* \"#utility.yul\":10400:10539   */\n      swap1\n      pop\n        /* \"#utility.yul\":10127:10546   */\n      swap2\n      swap1\n      pop\n      jump\t// out\n        /* \"#utility.yul\":10552:10784   */\n    tag_187:\n        /* \"#utility.yul\":10692:10726   */\n      0x436f6e747269627574696f6e20616d6f756e74206d7573742062652067726561\n        /* \"#utility.yul\":10688:10689   */\n      0x00\n        /* \"#utility.yul\":10680:10686   */\n      dup3\n        /* \"#utility.yul\":10676:10690   */\n      add\n        /* \"#utility.yul\":10669:10727   */\n      mstore\n        /* \"#utility.yul\":10761:10776   */\n      0x746572207468616e207a65726f00000000000000000000000000000000000000\n        /* \"#utility.yul\":10756:10758   */\n      0x20\n        /* \"#utility.yul\":10748:10754   */\n      dup3\n        /* \"#utility.yul\":10744:10759   */\n      add\n        /* \"#utility.yul\":10737:10777   */\n      mstore\n        /* \"#utility.yul\":10552:10784   */\n      pop\n      jump\t// out\n        /* \"#utility.yul\":10790:11156   */\n    tag_188:\n        /* \"#utility.yul\":10932:10935   */\n      0x00\n        /* \"#utility.yul\":10953:11020   */\n      tag_332\n        /* \"#utility.yul\":11017:11019   */\n      0x2d\n        /* \"#utility.yul\":11012:11015   */\n      dup4\n        /* \"#utility.yul\":10953:11020   */\n      tag_162\n      jump\t// in\n    tag_332:\n        /* \"#utility.yul\":10946:11020   */\n      swap2\n      pop\n        /* \"#utility.yul\":11029:11122   */\n      tag_333\n        /* \"#utility.yul\":11118:11121   */\n      dup3\n        /* \"#utility.yul\":11029:11122   */\n      tag_187\n      jump\t// in\n    tag_333:\n        /* \"#utility.yul\":11147:11149   */\n      0x40\n        /* \"#utility.yul\":11142:11145   */\n      dup3\n        /* \"#utility.yul\":11138:11150   */\n      add\n        /* \"#utility.yul\":11131:11150   */\n      swap1\n      pop\n        /* \"#utility.yul\":10790:11156   */\n      swap2\n      swap1\n      pop\n      jump\t// out\n        /* \"#utility.yul\":11162:11581   */\n    tag_69:\n        /* \"#utility.yul\":11328:11332   */\n      0x00\n        /* \"#utility.yul\":11366:11368   */\n      0x20\n        /* \"#utility.yul\":11355:11364   */\n      dup3\n        /* \"#utility.yul\":11351:11369   */\n      add\n        /* \"#utility.yul\":11343:11369   */\n      swap1\n      pop\n        /* \"#utility.yul\":11415:11424   */\n      dup2\n        /* \"#utility.yul\":11409:11413   */\n      dup2\n        /* \"#utility.yul\":11405:11425   */\n      sub\n        /* \"#utility.yul\":11401:11402   */\n      0x00\n        /* \"#utility.yul\":11390:11399   */\n      dup4\n        /* \"#utility.yul\":11386:11403   */\n      add\n        /* \"#utility.yul\":11379:11426   */\n      mstore\n        /* \"#utility.yul\":11443:11574   */\n      tag_335\n        /* \"#utility.yul\":11569:11573   */\n      dup2\n        /* \"#utility.yul\":11443:11574   */\n      tag_188\n      jump\t// in\n    tag_335:\n        /* \"#utility.yul\":11435:11574   */\n      swap1\n      pop\n        /* \"#utility.yul\":11162:11581   */\n      swap2\n      swap1\n      pop\n      jump\t// out\n        /* \"#utility.yul\":11587:11767   */\n    tag_189:\n        /* \"#utility.yul\":11635:11712   */\n      0x4e487b7100000000000000000000000000000000000000000000000000000000\n        /* \"#utility.yul\":11632:11633   */\n      0x00\n        /* \"#utility.yul\":11625:11713   */\n      mstore\n        /* \"#utility.yul\":11732:11736   */\n      0x11\n        /* \"#utility.yul\":11729:11730   */\n      0x04\n        /* \"#utility.yul\":11722:11737   */\n      mstore\n        /* \"#utility.yul\":11756:11760   */\n      0x24\n        /* \"#utility.yul\":11753:11754   */\n      0x00\n        /* \"#utility.yul\":11746:11761   */\n      revert\n        /* \"#utility.yul\":11773:11964   */\n    tag_71:\n        /* \"#utility.yul\":11813:11816   */\n      0x00\n        /* \"#utility.yul\":11832:11852   */\n      tag_338\n        /* \"#utility.yul\":11850:11851   */\n      dup3\n        /* \"#utility.yul\":11832:11852   */\n      tag_158\n      jump\t// in\n    tag_338:\n        /* \"#utility.yul\":11827:11852   */\n      swap2\n      pop\n        /* \"#utility.yul\":11866:11886   */\n      tag_339\n        /* \"#utility.yul\":11884:11885   */\n      dup4\n        /* \"#utility.yul\":11866:11886   */\n      tag_158\n      jump\t// in\n    tag_339:\n        /* \"#utility.yul\":11861:11886   */\n      swap3\n      pop\n        /* \"#utility.yul\":11909:11910   */\n      dup3\n        /* \"#utility.yul\":11906:11907   */\n      dup3\n        /* \"#utility.yul\":11902:11911   */\n      add\n        /* \"#utility.yul\":11895:11911   */\n      swap1\n      pop\n        /* \"#utility.yul\":11930:11933   */\n      dup1\n        /* \"#utility.yul\":11927:11928   */\n      dup3\n        /* \"#utility.yul\":11924:11934   */\n      gt\n        /* \"#utility.yul\":11921:11957   */\n      iszero\n      tag_340\n      jumpi\n        /* \"#utility.yul\":11937:11955   */\n      tag_341\n      tag_189\n      jump\t// in\n    tag_341:\n        /* \"#utility.yul\":11921:11957   */\n    tag_340:\n        /* \"#utility.yul\":11773:11964   */\n      swap3\n      swap2\n      pop\n      pop\n      jump\t// out\n        /* \"#utility.yul\":11970:12164   */\n    tag_73:\n        /* \"#utility.yul\":12010:12014   */\n      0x00\n        /* \"#utility.yul\":12030:12050   */\n      tag_343\n        /* \"#utility.yul\":12048:12049   */\n      dup3\n        /* \"#utility.yul\":12030:12050   */\n      tag_158\n      jump\t// in\n    tag_343:\n        /* \"#utility.yul\":12025:12050   */\n      swap2\n      pop\n        /* \"#utility.yul\":12064:12084   */\n      tag_344\n        /* \"#utility.yul\":12082:12083   */\n      dup4\n        /* \"#utility.yul\":12064:12084   */\n      tag_158\n      jump\t// in\n    tag_344:\n        /* \"#utility.yul\":12059:12084   */\n      swap3\n      pop\n        /* \"#utility.yul\":12108:12109   */\n      dup3\n        /* \"#utility.yul\":12105:12106   */\n      dup3\n        /* \"#utility.yul\":12101:12110   */\n      sub\n        /* \"#utility.yul\":12093:12110   */\n      swap1\n      pop\n        /* \"#utility.yul\":12132:12133   */\n      dup2\n        /* \"#utility.yul\":12126:12130   */\n      dup2\n        /* \"#utility.yul\":12123:12134   */\n      gt\n        /* \"#utility.yul\":12120:12157   */\n      iszero\n      tag_345\n      jumpi\n        /* \"#utility.yul\":12137:12155   */\n      tag_346\n      tag_189\n      jump\t// in\n    tag_346:\n        /* \"#utility.yul\":12120:12157   */\n    tag_345:\n        /* \"#utility.yul\":11970:12164   */\n      swap3\n      swap2\n      pop\n      pop\n      jump\t// out\n        /* \"#utility.yul\":12170:12612   */\n    tag_78:\n        /* \"#utility.yul\":12319:12323   */\n      0x00\n        /* \"#utility.yul\":12357:12359   */\n      0x60\n        /* \"#utility.yul\":12346:12355   */\n      dup3\n        /* \"#utility.yul\":12342:12360   */\n      add\n        /* \"#utility.yul\":12334:12360   */\n      swap1\n      pop\n        /* \"#utility.yul\":12370:12441   */\n      tag_348\n        /* \"#utility.yul\":12438:12439   */\n      0x00\n        /* \"#utility.yul\":12427:12436   */\n      dup4\n        /* \"#utility.yul\":12423:12440   */\n      add\n        /* \"#utility.yul\":12414:12420   */\n      dup7\n        /* \"#utility.yul\":12370:12441   */\n      tag_166\n      jump\t// in\n    tag_348:\n        /* \"#utility.yul\":12451:12523   */\n      tag_349\n        /* \"#utility.yul\":12519:12521   */\n      0x20\n        /* \"#utility.yul\":12508:12517   */\n      dup4\n        /* \"#utility.yul\":12504:12522   */\n      add\n        /* \"#utility.yul\":12495:12501   */\n      dup6\n        /* \"#utility.yul\":12451:12523   */\n      tag_182\n      jump\t// in\n    tag_349:\n        /* \"#utility.yul\":12533:12605   */\n      tag_350\n        /* \"#utility.yul\":12601:12603   */\n      0x40\n        /* \"#utility.yul\":12590:12599   */\n      dup4\n        /* \"#utility.yul\":12586:12604   */\n      add\n        /* \"#utility.yul\":12577:12583   */\n      dup5\n        /* \"#utility.yul\":12533:12605   */\n      tag_166\n      jump\t// in\n    tag_350:\n        /* \"#utility.yul\":12170:12612   */\n      swap5\n      swap4\n      pop\n      pop\n      pop\n      pop\n      jump\t// out\n        /* \"#utility.yul\":12618:12798   */\n    tag_190:\n        /* \"#utility.yul\":12666:12743   */\n      0x4e487b7100000000000000000000000000000000000000000000000000000000\n        /* \"#utility.yul\":12663:12664   */\n      0x00\n        /* \"#utility.yul\":12656:12744   */\n      mstore\n        /* \"#utility.yul\":12763:12767   */\n      0x22\n        /* \"#utility.yul\":12760:12761   */\n      0x04\n        /* \"#utility.yul\":12753:12768   */\n      mstore\n        /* \"#utility.yul\":12787:12791   */\n      0x24\n        /* \"#utility.yul\":12784:12785   */\n      0x00\n        /* \"#utility.yul\":12777:12792   */\n      revert\n        /* \"#utility.yul\":12804:13124   */\n    tag_83:\n        /* \"#utility.yul\":12848:12854   */\n      0x00\n        /* \"#utility.yul\":12885:12886   */\n      0x02\n        /* \"#utility.yul\":12879:12883   */\n      dup3\n        /* \"#utility.yul\":12875:12887   */\n      div\n        /* \"#utility.yul\":12865:12887   */\n      swap1\n      pop\n        /* \"#utility.yul\":12932:12933   */\n      0x01\n        /* \"#utility.yul\":12926:12930   */\n      dup3\n        /* \"#utility.yul\":12922:12934   */\n      and\n        /* \"#utility.yul\":12953:12971   */\n      dup1\n        /* \"#utility.yul\":12943:13024   */\n      tag_353\n      jumpi\n        /* \"#utility.yul\":13009:13013   */\n      0x7f\n        /* \"#utility.yul\":13001:13007   */\n      dup3\n        /* \"#utility.yul\":12997:13014   */\n      and\n        /* \"#utility.yul\":12987:13014   */\n      swap2\n      pop\n        /* \"#utility.yul\":12943:13024   */\n    tag_353:\n        /* \"#utility.yul\":13071:13073   */\n      0x20\n        /* \"#utility.yul\":13063:13069   */\n      dup3\n        /* \"#utility.yul\":13060:13074   */\n      lt\n        /* \"#utility.yul\":13040:13058   */\n      dup2\n        /* \"#utility.yul\":13037:13075   */\n      sub\n        /* \"#utility.yul\":13034:13118   */\n      tag_354\n      jumpi\n        /* \"#utility.yul\":13090:13108   */\n      tag_355\n      tag_190\n      jump\t// in\n    tag_355:\n        /* \"#utility.yul\":13034:13118   */\n    tag_354:\n        /* \"#utility.yul\":12855:13124   */\n      pop\n        /* \"#utility.yul\":12804:13124   */\n      swap2\n      swap1\n      pop\n      jump\t// out\n        /* \"#utility.yul\":13130:13356   */\n    tag_191:\n        /* \"#utility.yul\":13270:13304   */\n      0x54617267657420616d6f756e74206d7573742062652067726561746572207468\n        /* \"#utility.yul\":13266:13267   */\n      0x00\n        /* \"#utility.yul\":13258:13264   */\n      dup3\n        /* \"#utility.yul\":13254:13268   */\n      add\n        /* \"#utility.yul\":13247:13305   */\n      mstore\n        /* \"#utility.yul\":13339:13348   */\n      0x616e207a65726f00000000000000000000000000000000000000000000000000\n        /* \"#utility.yul\":13334:13336   */\n      0x20\n        /* \"#utility.yul\":13326:13332   */\n      dup3\n        /* \"#utility.yul\":13322:13337   */\n      add\n        /* \"#utility.yul\":13315:13349   */\n      mstore\n        /* \"#utility.yul\":13130:13356   */\n      pop\n      jump\t// out\n        /* \"#utility.yul\":13362:13728   */\n    tag_192:\n        /* \"#utility.yul\":13504:13507   */\n      0x00\n        /* \"#utility.yul\":13525:13592   */\n      tag_358\n        /* \"#utility.yul\":13589:13591   */\n      0x27\n        /* \"#utility.yul\":13584:13587   */\n      dup4\n        /* \"#utility.yul\":13525:13592   */\n      tag_162\n      jump\t// in\n    tag_358:\n        /* \"#utility.yul\":13518:13592   */\n      swap2\n      pop\n        /* \"#utility.yul\":13601:13694   */\n      tag_359\n        /* \"#utility.yul\":13690:13693   */\n      dup3\n        /* \"#utility.yul\":13601:13694   */\n      tag_191\n      jump\t// in\n    tag_359:\n        /* \"#utility.yul\":13719:13721   */\n      0x40\n        /* \"#utility.yul\":13714:13717   */\n      dup3\n        /* \"#utility.yul\":13710:13722   */\n      add\n        /* \"#utility.yul\":13703:13722   */\n      swap1\n      pop\n        /* \"#utility.yul\":13362:13728   */\n      swap2\n      swap1\n      pop\n      jump\t// out\n        /* \"#utility.yul\":13734:14153   */\n    tag_91:\n        /* \"#utility.yul\":13900:13904   */\n      0x00\n        /* \"#utility.yul\":13938:13940   */\n      0x20\n        /* \"#utility.yul\":13927:13936   */\n      dup3\n        /* \"#utility.yul\":13923:13941   */\n      add\n        /* \"#utility.yul\":13915:13941   */\n      swap1\n      pop\n        /* \"#utility.yul\":13987:13996   */\n      dup2\n        /* \"#utility.yul\":13981:13985   */\n      dup2\n        /* \"#utility.yul\":13977:13997   */\n      sub\n        /* \"#utility.yul\":13973:13974   */\n      0x00\n        /* \"#utility.yul\":13962:13971   */\n      dup4\n        /* \"#utility.yul\":13958:13975   */\n      add\n        /* \"#utility.yul\":13951:13998   */\n      mstore\n        /* \"#utility.yul\":14015:14146   */\n      tag_361\n        /* \"#utility.yul\":14141:14145   */\n      dup2\n        /* \"#utility.yul\":14015:14146   */\n      tag_192\n      jump\t// in\n    tag_361:\n        /* \"#utility.yul\":14007:14146   */\n      swap1\n      pop\n        /* \"#utility.yul\":13734:14153   */\n      swap2\n      swap1\n      pop\n      jump\t// out\n        /* \"#utility.yul\":14159:14381   */\n    tag_193:\n        /* \"#utility.yul\":14299:14333   */\n      0x54696d65206475726174696f6e206d75737420626520696e2074686520667574\n        /* \"#utility.yul\":14295:14296   */\n      0x00\n        /* \"#utility.yul\":14287:14293   */\n      dup3\n        /* \"#utility.yul\":14283:14297   */\n      add\n        /* \"#utility.yul\":14276:14334   */\n      mstore\n        /* \"#utility.yul\":14368:14373   */\n      0x7572650000000000000000000000000000000000000000000000000000000000\n        /* \"#utility.yul\":14363:14365   */\n      0x20\n        /* \"#utility.yul\":14355:14361   */\n      dup3\n        /* \"#utility.yul\":14351:14366   */\n      add\n        /* \"#utility.yul\":14344:14374   */\n      mstore\n        /* \"#utility.yul\":14159:14381   */\n      pop\n      jump\t// out\n        /* \"#utility.yul\":14387:14753   */\n    tag_194:\n        /* \"#utility.yul\":14529:14532   */\n      0x00\n        /* \"#utility.yul\":14550:14617   */\n      tag_364\n        /* \"#utility.yul\":14614:14616   */\n      0x23\n        /* \"#utility.yul\":14609:14612   */\n      dup4\n        /* \"#utility.yul\":14550:14617   */\n      tag_162\n      jump\t// in\n    tag_364:\n        /* \"#utility.yul\":14543:14617   */\n      swap2\n      pop\n        /* \"#utility.yul\":14626:14719   */\n      tag_365\n        /* \"#utility.yul\":14715:14718   */\n      dup3\n        /* \"#utility.yul\":14626:14719   */\n      tag_193\n      jump\t// in\n    tag_365:\n        /* \"#utility.yul\":14744:14746   */\n      0x40\n        /* \"#utility.yul\":14739:14742   */\n      dup3\n        /* \"#utility.yul\":14735:14747   */\n      add\n        /* \"#utility.yul\":14728:14747   */\n      swap1\n      pop\n        /* \"#utility.yul\":14387:14753   */\n      swap2\n      swap1\n      pop\n      jump\t// out\n        /* \"#utility.yul\":14759:15178   */\n    tag_94:\n        /* \"#utility.yul\":14925:14929   */\n      0x00\n        /* \"#utility.yul\":14963:14965   */\n      0x20\n        /* \"#utility.yul\":14952:14961   */\n      dup3\n        /* \"#utility.yul\":14948:14966   */\n      add\n        /* \"#utility.yul\":14940:14966   */\n      swap1\n      pop\n        /* \"#utility.yul\":15012:15021   */\n      dup2\n        /* \"#utility.yul\":15006:15010   */\n      dup2\n        /* \"#utility.yul\":15002:15022   */\n      sub\n        /* \"#utility.yul\":14998:14999   */\n      0x00\n        /* \"#utility.yul\":14987:14996   */\n      dup4\n        /* \"#utility.yul\":14983:15000   */\n      add\n        /* \"#utility.yul\":14976:15023   */\n      mstore\n        /* \"#utility.yul\":15040:15171   */\n      tag_367\n        /* \"#utility.yul\":15166:15170   */\n      dup2\n        /* \"#utility.yul\":15040:15171   */\n      tag_194\n      jump\t// in\n    tag_367:\n        /* \"#utility.yul\":15032:15171   */\n      swap1\n      pop\n        /* \"#utility.yul\":14759:15178   */\n      swap2\n      swap1\n      pop\n      jump\t// out\n        /* \"#utility.yul\":15184:15417   */\n    tag_96:\n        /* \"#utility.yul\":15223:15226   */\n      0x00\n        /* \"#utility.yul\":15246:15270   */\n      tag_369\n        /* \"#utility.yul\":15264:15269   */\n      dup3\n        /* \"#utility.yul\":15246:15270   */\n      tag_158\n      jump\t// in\n    tag_369:\n        /* \"#utility.yul\":15237:15270   */\n      swap2\n      pop\n        /* \"#utility.yul\":15292:15358   */\n      0xffffffffffffffffffffffffffffffffffffffffffffffffffffffffffffffff\n        /* \"#utility.yul\":15285:15290   */\n      dup3\n        /* \"#utility.yul\":15282:15359   */\n      sub\n        /* \"#utility.yul\":15279:15382   */\n      tag_370\n      jumpi\n        /* \"#utility.yul\":15362:15380   */\n      tag_371\n      tag_189\n      jump\t// in\n    tag_371:\n        /* \"#utility.yul\":15279:15382   */\n    tag_370:\n        /* \"#utility.yul\":15409:15410   */\n      0x01\n        /* \"#utility.yul\":15402:15407   */\n      dup3\n        /* \"#utility.yul\":15398:15411   */\n      add\n        /* \"#utility.yul\":15391:15411   */\n      swap1\n      pop\n        /* \"#utility.yul\":15184:15417   */\n      swap2\n      swap1\n      pop\n      jump\t// out\n        /* \"#utility.yul\":15423:15564   */\n    tag_195:\n        /* \"#utility.yul\":15472:15476   */\n      0x00\n        /* \"#utility.yul\":15495:15498   */\n      dup2\n        /* \"#utility.yul\":15487:15498   */\n      swap1\n      pop\n        /* \"#utility.yul\":15518:15521   */\n      dup2\n        /* \"#utility.yul\":15515:15516   */\n      0x00\n        /* \"#utility.yul\":15508:15522   */\n      mstore\n        /* \"#utility.yul\":15552:15556   */\n      0x20\n        /* \"#utility.yul\":15549:15550   */\n      0x00\n        /* \"#utility.yul\":15539:15557   */\n      keccak256\n        /* \"#utility.yul\":15531:15557   */\n      swap1\n      pop\n        /* \"#utility.yul\":15423:15564   */\n      swap2\n      swap1\n      pop\n      jump\t// out\n        /* \"#utility.yul\":15570:15663   */\n    tag_196:\n        /* \"#utility.yul\":15607:15613   */\n      0x00\n        /* \"#utility.yul\":15654:15656   */\n      0x20\n        /* \"#utility.yul\":15649:15651   */\n      0x1f\n        /* \"#utility.yul\":15642:15647   */\n      dup4\n        /* \"#utility.yul\":15638:15652   */\n      add\n        /* \"#utility.yul\":15634:15657   */\n      div\n        /* \"#utility.yul\":15624:15657   */\n      swap1\n      pop\n        /* \"#utility.yul\":15570:15663   */\n      swap2\n      swap1\n      pop\n      jump\t// out\n        /* \"#utility.yul\":15669:15776   */\n    tag_197:\n        /* \"#utility.yul\":15713:15721   */\n      0x00\n        /* \"#utility.yul\":15763:15768   */\n      dup3\n        /* \"#utility.yul\":15757:15761   */\n      dup3\n        /* \"#utility.yul\":15753:15769   */\n      shl\n        /* \"#utility.yul\":15732:15769   */\n      swap1\n      pop\n        /* \"#utility.yul\":15669:15776   */\n      swap3\n      swap2\n      pop\n      pop\n      jump\t// out\n        /* \"#utility.yul\":15782:16175   */\n    tag_198:\n        /* \"#utility.yul\":15851:15857   */\n      0x00\n        /* \"#utility.yul\":15901:15902   */\n      0x08\n        /* \"#utility.yul\":15889:15899   */\n      dup4\n        /* \"#utility.yul\":15885:15903   */\n      mul\n        /* \"#utility.yul\":15924:16021   */\n      tag_376\n        /* \"#utility.yul\":15954:16020   */\n      0xffffffffffffffffffffffffffffffffffffffffffffffffffffffffffffffff\n        /* \"#utility.yul\":15943:15952   */\n      dup3\n        /* \"#utility.yul\":15924:16021   */\n      tag_197\n      jump\t// in\n    tag_376:\n        /* \"#utility.yul\":16042:16081   */\n      tag_377\n        /* \"#utility.yul\":16072:16080   */\n      dup7\n        /* \"#utility.yul\":16061:16070   */\n      dup4\n        /* \"#utility.yul\":16042:16081   */\n      tag_197\n      jump\t// in\n    tag_377:\n        /* \"#utility.yul\":16030:16081   */\n      swap6\n      pop\n        /* \"#utility.yul\":16114:16118   */\n      dup1\n        /* \"#utility.yul\":16110:16119   */\n      not\n        /* \"#utility.yul\":16103:16108   */\n      dup5\n        /* \"#utility.yul\":16099:16120   */\n      and\n        /* \"#utility.yul\":16090:16120   */\n      swap4\n      pop\n        /* \"#utility.yul\":16163:16167   */\n      dup1\n        /* \"#utility.yul\":16153:16161   */\n      dup7\n        /* \"#utility.yul\":16149:16168   */\n      and\n        /* \"#utility.yul\":16142:16147   */\n      dup5\n        /* \"#utility.yul\":16139:16169   */\n      or\n        /* \"#utility.yul\":16129:16169   */\n      swap3\n      pop\n        /* \"#utility.yul\":15858:16175   */\n      pop\n      pop\n        /* \"#utility.yul\":15782:16175   */\n      swap4\n      swap3\n      pop\n      pop\n      pop\n      jump\t// out\n        /* \"#utility.yul\":16181:16241   */\n    tag_199:\n        /* \"#utility.yul\":16209:16212   */\n      0x00\n        /* \"#utility.yul\":16230:16235   */\n      dup2\n        /* \"#utility.yul\":16223:16235   */\n      swap1\n      pop\n        /* \"#utility.yul\":16181:16241   */\n      swap2\n      swap1\n      pop\n      jump\t// out\n        /* \"#utility.yul\":16247:16389   */\n    tag_200:\n        /* \"#utility.yul\":16297:16306   */\n      0x00\n        /* \"#utility.yul\":16330:16383   */\n      tag_380\n        /* \"#utility.yul\":16348:16382   */\n      tag_381\n        /* \"#utility.yul\":16357:16381   */\n      tag_382\n        /* \"#utility.yul\":16375:16380   */\n      dup5\n        /* \"#utility.yul\":16357:16381   */\n      tag_158\n      jump\t// in\n    tag_382:\n        /* \"#utility.yul\":16348:16382   */\n      tag_199\n      jump\t// in\n    tag_381:\n        /* \"#utility.yul\":16330:16383   */\n      tag_158\n      jump\t// in\n    tag_380:\n        /* \"#utility.yul\":16317:16383   */\n      swap1\n      pop\n        /* \"#utility.yul\":16247:16389   */\n      swap2\n      swap1\n      pop\n      jump\t// out\n        /* \"#utility.yul\":16395:16470   */\n    tag_201:\n        /* \"#utility.yul\":16438:16441   */\n      0x00\n        /* \"#utility.yul\":16459:16464   */\n      dup2\n        /* \"#utility.yul\":16452:16464   */\n      swap1\n      pop\n        /* \"#utility.yul\":16395:16470   */\n      swap2\n      swap1\n      pop\n      jump\t// out\n        /* \"#utility.yul\":16476:16745   */\n    tag_202:\n        /* \"#utility.yul\":16586:16625   */\n      tag_385\n        /* \"#utility.yul\":16617:16624   */\n      dup4\n        /* \"#utility.yul\":16586:16625   */\n      tag_200\n      jump\t// in\n    tag_385:\n        /* \"#utility.yul\":16647:16738   */\n      tag_386\n        /* \"#utility.yul\":16696:16737   */\n      tag_387\n        /* \"#utility.yul\":16720:16736   */\n      dup3\n        /* \"#utility.yul\":16696:16737   */\n      tag_201\n      jump\t// in\n    tag_387:\n        /* \"#utility.yul\":16688:16694   */\n      dup5\n        /* \"#utility.yul\":16681:16685   */\n      dup5\n        /* \"#utility.yul\":16675:16686   */\n      sload\n        /* \"#utility.yul\":16647:16738   */\n      tag_198\n      jump\t// in\n    tag_386:\n        /* \"#utility.yul\":16641:16645   */\n      dup3\n        /* \"#utility.yul\":16634:16739   */\n      sstore\n        /* \"#utility.yul\":16552:16745   */\n      pop\n        /* \"#utility.yul\":16476:16745   */\n      pop\n      pop\n      pop\n      jump\t// out\n        /* \"#utility.yul\":16751:16824   */\n    tag_203:\n        /* \"#utility.yul\":16796:16799   */\n      0x00\n        /* \"#utility.yul\":16751:16824   */\n      swap1\n      jump\t// out\n        /* \"#utility.yul\":16830:17019   */\n    tag_204:\n        /* \"#utility.yul\":16907:16939   */\n      tag_390\n      tag_203\n      jump\t// in\n    tag_390:\n        /* \"#utility.yul\":16948:17013   */\n      tag_391\n        /* \"#utility.yul\":17006:17012   */\n      dup2\n        /* \"#utility.yul\":16998:17004   */\n      dup5\n        /* \"#utility.yul\":16992:16996   */\n      dup5\n        /* \"#utility.yul\":16948:17013   */\n      tag_202\n      jump\t// in\n    tag_391:\n        /* \"#utility.yul\":16883:17019   */\n      pop\n        /* \"#utility.yul\":16830:17019   */\n      pop\n      pop\n      jump\t// out\n        /* \"#utility.yul\":17025:17211   */\n    tag_205:\n        /* \"#utility.yul\":17085:17205   */\n    tag_393:\n        /* \"#utility.yul\":17102:17105   */\n      dup2\n        /* \"#utility.yul\":17095:17100   */\n      dup2\n        /* \"#utility.yul\":17092:17106   */\n      lt\n        /* \"#utility.yul\":17085:17205   */\n      iszero\n      tag_395\n      jumpi\n        /* \"#utility.yul\":17156:17195   */\n      tag_396\n        /* \"#utility.yul\":17193:17194   */\n      0x00\n        /* \"#utility.yul\":17186:17191   */\n      dup3\n        /* \"#utility.yul\":17156:17195   */\n      tag_204\n      jump\t// in\n    tag_396:\n        /* \"#utility.yul\":17129:17130   */\n      0x01\n        /* \"#utility.yul\":17122:17127   */\n      dup2\n        /* \"#utility.yul\":17118:17131   */\n      add\n        /* \"#utility.yul\":17109:17131   */\n      swap1\n      pop\n        /* \"#utility.yul\":17085:17205   */\n      jump(tag_393)\n    tag_395:\n        /* \"#utility.yul\":17025:17211   */\n      pop\n      pop\n      jump\t// out\n        /* \"#utility.yul\":17217:17760   */\n    tag_206:\n        /* \"#utility.yul\":17318:17320   */\n      0x1f\n        /* \"#utility.yul\":17313:17316   */\n      dup3\n        /* \"#utility.yul\":17310:17321   */\n      gt\n        /* \"#utility.yul\":17307:17753   */\n      iszero\n      tag_398\n      jumpi\n        /* \"#utility.yul\":17352:17390   */\n      tag_399\n        /* \"#utility.yul\":17384:17389   */\n      dup2\n        /* \"#utility.yul\":17352:17390   */\n      tag_195\n      jump\t// in\n    tag_399:\n        /* \"#utility.yul\":17436:17465   */\n      tag_400\n        /* \"#utility.yul\":17454:17464   */\n      dup5\n        /* \"#utility.yul\":17436:17465   */\n      tag_196\n      jump\t// in\n    tag_400:\n        /* \"#utility.yul\":17426:17434   */\n      dup2\n        /* \"#utility.yul\":17422:17466   */\n      add\n        /* \"#utility.yul\":17619:17621   */\n      0x20\n        /* \"#utility.yul\":17607:17617   */\n      dup6\n        /* \"#utility.yul\":17604:17622   */\n      lt\n        /* \"#utility.yul\":17601:17650   */\n      iszero\n      tag_401\n      jumpi\n        /* \"#utility.yul\":17640:17648   */\n      dup2\n        /* \"#utility.yul\":17625:17648   */\n      swap1\n      pop\n        /* \"#utility.yul\":17601:17650   */\n    tag_401:\n        /* \"#utility.yul\":17663:17743   */\n      tag_402\n        /* \"#utility.yul\":17719:17741   */\n      tag_403\n        /* \"#utility.yul\":17737:17740   */\n      dup6\n        /* \"#utility.yul\":17719:17741   */\n      tag_196\n      jump\t// in\n    tag_403:\n        /* \"#utility.yul\":17709:17717   */\n      dup4\n        /* \"#utility.yul\":17705:17742   */\n      add\n        /* \"#utility.yul\":17692:17703   */\n      dup3\n        /* \"#utility.yul\":17663:17743   */\n      tag_205\n      jump\t// in\n    tag_402:\n        /* \"#utility.yul\":17322:17753   */\n      pop\n      pop\n        /* \"#utility.yul\":17307:17753   */\n    tag_398:\n        /* \"#utility.yul\":17217:17760   */\n      pop\n      pop\n      pop\n      jump\t// out\n        /* \"#utility.yul\":17766:17883   */\n    tag_207:\n        /* \"#utility.yul\":17820:17828   */\n      0x00\n        /* \"#utility.yul\":17870:17875   */\n      dup3\n        /* \"#utility.yul\":17864:17868   */\n      dup3\n        /* \"#utility.yul\":17860:17876   */\n      shr\n        /* \"#utility.yul\":17839:17876   */\n      swap1\n      pop\n        /* \"#utility.yul\":17766:17883   */\n      swap3\n      swap2\n      pop\n      pop\n      jump\t// out\n        /* \"#utility.yul\":17889:18058   */\n    tag_208:\n        /* \"#utility.yul\":17933:17939   */\n      0x00\n        /* \"#utility.yul\":17966:18017   */\n      tag_406\n        /* \"#utility.yul\":18014:18015   */\n      0x00\n        /* \"#utility.yul\":18010:18016   */\n      not\n        /* \"#utility.yul\":18002:18007   */\n      dup5\n        /* \"#utility.yul\":17999:18000   */\n      0x08\n        /* \"#utility.yul\":17995:18008   */\n      mul\n        /* \"#utility.yul\":17966:18017   */\n      tag_207\n      jump\t// in\n    tag_406:\n        /* \"#utility.yul\":17962:18018   */\n      not\n        /* \"#utility.yul\":18047:18051   */\n      dup1\n        /* \"#utility.yul\":18041:18045   */\n      dup4\n        /* \"#utility.yul\":18037:18052   */\n      and\n        /* \"#utility.yul\":18027:18052   */\n      swap2\n      pop\n        /* \"#utility.yul\":17940:18058   */\n      pop\n        /* \"#utility.yul\":17889:18058   */\n      swap3\n      swap2\n      pop\n      pop\n      jump\t// out\n        /* \"#utility.yul\":18063:18358   */\n    tag_209:\n        /* \"#utility.yul\":18139:18143   */\n      0x00\n        /* \"#utility.yul\":18285:18314   */\n      tag_408\n        /* \"#utility.yul\":18310:18313   */\n      dup4\n        /* \"#utility.yul\":18304:18308   */\n      dup4\n        /* \"#utility.yul\":18285:18314   */\n      tag_208\n      jump\t// in\n    tag_408:\n        /* \"#utility.yul\":18277:18314   */\n      swap2\n      pop\n        /* \"#utility.yul\":18347:18350   */\n      dup3\n        /* \"#utility.yul\":18344:18345   */\n      0x02\n        /* \"#utility.yul\":18340:18351   */\n      mul\n        /* \"#utility.yul\":18334:18338   */\n      dup3\n        /* \"#utility.yul\":18331:18352   */\n      or\n        /* \"#utility.yul\":18323:18352   */\n      swap1\n      pop\n        /* \"#utility.yul\":18063:18358   */\n      swap3\n      swap2\n      pop\n      pop\n      jump\t// out\n        /* \"#utility.yul\":18363:19758   */\n    tag_98:\n        /* \"#utility.yul\":18480:18517   */\n      tag_410\n        /* \"#utility.yul\":18513:18516   */\n      dup3\n        /* \"#utility.yul\":18480:18517   */\n      tag_161\n      jump\t// in\n    tag_410:\n        /* \"#utility.yul\":18582:18600   */\n      0xffffffffffffffff\n        /* \"#utility.yul\":18574:18580   */\n      dup2\n        /* \"#utility.yul\":18571:18601   */\n      gt\n        /* \"#utility.yul\":18568:18624   */\n      iszero\n      tag_411\n      jumpi\n        /* \"#utility.yul\":18604:18622   */\n      tag_412\n      tag_175\n      jump\t// in\n    tag_412:\n        /* \"#utility.yul\":18568:18624   */\n    tag_411:\n        /* \"#utility.yul\":18648:18686   */\n      tag_413\n        /* \"#utility.yul\":18680:18684   */\n      dup3\n        /* \"#utility.yul\":18674:18685   */\n      sload\n        /* \"#utility.yul\":18648:18686   */\n      tag_83\n      jump\t// in\n    tag_413:\n        /* \"#utility.yul\":18733:18800   */\n      tag_414\n        /* \"#utility.yul\":18793:18799   */\n      dup3\n        /* \"#utility.yul\":18785:18791   */\n      dup3\n        /* \"#utility.yul\":18779:18783   */\n      dup6\n        /* \"#utility.yul\":18733:18800   */\n      tag_206\n      jump\t// in\n    tag_414:\n        /* \"#utility.yul\":18827:18828   */\n      0x00\n        /* \"#utility.yul\":18851:18855   */\n      0x20\n        /* \"#utility.yul\":18838:18855   */\n      swap1\n      pop\n        /* \"#utility.yul\":18883:18885   */\n      0x1f\n        /* \"#utility.yul\":18875:18881   */\n      dup4\n        /* \"#utility.yul\":18872:18886   */\n      gt\n        /* \"#utility.yul\":18900:18901   */\n      0x01\n        /* \"#utility.yul\":18895:19513   */\n      dup2\n      eq\n      tag_416\n      jumpi\n        /* \"#utility.yul\":19557:19558   */\n      0x00\n        /* \"#utility.yul\":19574:19580   */\n      dup5\n        /* \"#utility.yul\":19571:19648   */\n      iszero\n      tag_417\n      jumpi\n        /* \"#utility.yul\":19623:19632   */\n      dup3\n        /* \"#utility.yul\":19618:19621   */\n      dup8\n        /* \"#utility.yul\":19614:19633   */\n      add\n        /* \"#utility.yul\":19608:19634   */\n      mload\n        /* \"#utility.yul\":19599:19634   */\n      swap1\n      pop\n        /* \"#utility.yul\":19571:19648   */\n    tag_417:\n        /* \"#utility.yul\":19674:19741   */\n      tag_418\n        /* \"#utility.yul\":19734:19740   */\n      dup6\n        /* \"#utility.yul\":19727:19732   */\n      dup3\n        /* \"#utility.yul\":19674:19741   */\n      tag_209\n      jump\t// in\n    tag_418:\n        /* \"#utility.yul\":19668:19672   */\n      dup7\n        /* \"#utility.yul\":19661:19742   */\n      sstore\n        /* \"#utility.yul\":19530:19752   */\n      pop\n        /* \"#utility.yul\":18865:19752   */\n      jump(tag_415)\n        /* \"#utility.yul\":18895:19513   */\n    tag_416:\n        /* \"#utility.yul\":18947:18951   */\n      0x1f\n        /* \"#utility.yul\":18943:18952   */\n      not\n        /* \"#utility.yul\":18935:18941   */\n      dup5\n        /* \"#utility.yul\":18931:18953   */\n      and\n        /* \"#utility.yul\":18981:19018   */\n      tag_419\n        /* \"#utility.yul\":19013:19017   */\n      dup7\n        /* \"#utility.yul\":18981:19018   */\n      tag_195\n      jump\t// in\n    tag_419:\n        /* \"#utility.yul\":19040:19041   */\n      0x00\n        /* \"#utility.yul\":19054:19262   */\n    tag_420:\n        /* \"#utility.yul\":19068:19075   */\n      dup3\n        /* \"#utility.yul\":19065:19066   */\n      dup2\n        /* \"#utility.yul\":19062:19076   */\n      lt\n        /* \"#utility.yul\":19054:19262   */\n      iszero\n      tag_422\n      jumpi\n        /* \"#utility.yul\":19147:19156   */\n      dup5\n        /* \"#utility.yul\":19142:19145   */\n      dup10\n        /* \"#utility.yul\":19138:19157   */\n      add\n        /* \"#utility.yul\":19132:19158   */\n      mload\n        /* \"#utility.yul\":19124:19130   */\n      dup3\n        /* \"#utility.yul\":19117:19159   */\n      sstore\n        /* \"#utility.yul\":19198:19199   */\n      0x01\n        /* \"#utility.yul\":19190:19196   */\n      dup3\n        /* \"#utility.yul\":19186:19200   */\n      add\n        /* \"#utility.yul\":19176:19200   */\n      swap2\n      pop\n        /* \"#utility.yul\":19245:19247   */\n      0x20\n        /* \"#utility.yul\":19234:19243   */\n      dup6\n        /* \"#utility.yul\":19230:19248   */\n      add\n        /* \"#utility.yul\":19217:19248   */\n      swap5\n      pop\n        /* \"#utility.yul\":19091:19095   */\n      0x20\n        /* \"#utility.yul\":19088:19089   */\n      dup2\n        /* \"#utility.yul\":19084:19096   */\n      add\n        /* \"#utility.yul\":19079:19096   */\n      swap1\n      pop\n        /* \"#utility.yul\":19054:19262   */\n      jump(tag_420)\n    tag_422:\n        /* \"#utility.yul\":19290:19296   */\n      dup7\n        /* \"#utility.yul\":19281:19288   */\n      dup4\n        /* \"#utility.yul\":19278:19297   */\n      lt\n        /* \"#utility.yul\":19275:19454   */\n      iszero\n      tag_423\n      jumpi\n        /* \"#utility.yul\":19348:19357   */\n      dup5\n        /* \"#utility.yul\":19343:19346   */\n      dup10\n        /* \"#utility.yul\":19339:19358   */\n      add\n        /* \"#utility.yul\":19333:19359   */\n      mload\n        /* \"#utility.yul\":19391:19439   */\n      tag_424\n        /* \"#utility.yul\":19433:19437   */\n      0x1f\n        /* \"#utility.yul\":19425:19431   */\n      dup10\n        /* \"#utility.yul\":19421:19438   */\n      and\n        /* \"#utility.yul\":19410:19419   */\n      dup3\n        /* \"#utility.yul\":19391:19439   */\n      tag_208\n      jump\t// in\n    tag_424:\n        /* \"#utility.yul\":19383:19389   */\n      dup4\n        /* \"#utility.yul\":19376:19440   */\n      sstore\n        /* \"#utility.yul\":19298:19454   */\n      pop\n        /* \"#utility.yul\":19275:19454   */\n    tag_423:\n        /* \"#utility.yul\":19500:19501   */\n      0x01\n        /* \"#utility.yul\":19496:19497   */\n      0x02\n        /* \"#utility.yul\":19488:19494   */\n      dup9\n        /* \"#utility.yul\":19484:19498   */\n      mul\n        /* \"#utility.yul\":19480:19502   */\n      add\n        /* \"#utility.yul\":19474:19478   */\n      dup9\n        /* \"#utility.yul\":19467:19503   */\n      sstore\n        /* \"#utility.yul\":18902:19513   */\n      pop\n      pop\n      pop\n        /* \"#utility.yul\":18865:19752   */\n    tag_415:\n      pop\n        /* \"#utility.yul\":18455:19758   */\n      pop\n      pop\n      pop\n        /* \"#utility.yul\":18363:19758   */\n      pop\n      pop\n      jump\t// out\n        /* \"#utility.yul\":19764:20408   */\n    tag_100:\n        /* \"#utility.yul\":19961:19965   */\n      0x00\n        /* \"#utility.yul\":19999:20002   */\n      0x80\n        /* \"#utility.yul\":19988:19997   */\n      dup3\n        /* \"#utility.yul\":19984:20003   */\n      add\n        /* \"#utility.yul\":19976:20003   */\n      swap1\n      pop\n        /* \"#utility.yul\":20013:20084   */\n      tag_426\n        /* \"#utility.yul\":20081:20082   */\n      0x00\n        /* \"#utility.yul\":20070:20079   */\n      dup4\n        /* \"#utility.yul\":20066:20083   */\n      add\n        /* \"#utility.yul\":20057:20063   */\n      dup8\n        /* \"#utility.yul\":20013:20084   */\n      tag_166\n      jump\t// in\n    tag_426:\n        /* \"#utility.yul\":20131:20140   */\n      dup2\n        /* \"#utility.yul\":20125:20129   */\n      dup2\n        /* \"#utility.yul\":20121:20141   */\n      sub\n        /* \"#utility.yul\":20116:20118   */\n      0x20\n        /* \"#utility.yul\":20105:20114   */\n      dup4\n        /* \"#utility.yul\":20101:20119   */\n      add\n        /* \"#utility.yul\":20094:20142   */\n      mstore\n        /* \"#utility.yul\":20159:20237   */\n      tag_427\n        /* \"#utility.yul\":20232:20236   */\n      dup2\n        /* \"#utility.yul\":20223:20229   */\n      dup7\n        /* \"#utility.yul\":20159:20237   */\n      tag_165\n      jump\t// in\n    tag_427:\n        /* \"#utility.yul\":20151:20237   */\n      swap1\n      pop\n        /* \"#utility.yul\":20247:20319   */\n      tag_428\n        /* \"#utility.yul\":20315:20317   */\n      0x40\n        /* \"#utility.yul\":20304:20313   */\n      dup4\n        /* \"#utility.yul\":20300:20318   */\n      add\n        /* \"#utility.yul\":20291:20297   */\n      dup6\n        /* \"#utility.yul\":20247:20319   */\n      tag_166\n      jump\t// in\n    tag_428:\n        /* \"#utility.yul\":20329:20401   */\n      tag_429\n        /* \"#utility.yul\":20397:20399   */\n      0x60\n        /* \"#utility.yul\":20386:20395   */\n      dup4\n        /* \"#utility.yul\":20382:20400   */\n      add\n        /* \"#utility.yul\":20373:20379   */\n      dup5\n        /* \"#utility.yul\":20329:20401   */\n      tag_166\n      jump\t// in\n    tag_429:\n        /* \"#utility.yul\":19764:20408   */\n      swap6\n      swap5\n      pop\n      pop\n      pop\n      pop\n      pop\n      jump\t// out\n        /* \"#utility.yul\":20414:20638   */\n    tag_210:\n        /* \"#utility.yul\":20554:20588   */\n      0x43616d706169676e206861732072656163686564206974732066756e64696e67\n        /* \"#utility.yul\":20550:20551   */\n      0x00\n        /* \"#utility.yul\":20542:20548   */\n      dup3\n        /* \"#utility.yul\":20538:20552   */\n      add\n        /* \"#utility.yul\":20531:20589   */\n      mstore\n        /* \"#utility.yul\":20623:20630   */\n      0x20676f616c000000000000000000000000000000000000000000000000000000\n        /* \"#utility.yul\":20618:20620   */\n      0x20\n        /* \"#utility.yul\":20610:20616   */\n      dup3\n        /* \"#utility.yul\":20606:20621   */\n      add\n        /* \"#utility.yul\":20599:20631   */\n      mstore\n        /* \"#utility.yul\":20414:20638   */\n      pop\n      jump\t// out\n        /* \"#utility.yul\":20644:21010   */\n    tag_211:\n        /* \"#utility.yul\":20786:20789   */\n      0x00\n        /* \"#utility.yul\":20807:20874   */\n      tag_432\n        /* \"#utility.yul\":20871:20873   */\n      0x25\n        /* \"#utility.yul\":20866:20869   */\n      dup4\n        /* \"#utility.yul\":20807:20874   */\n      tag_162\n      jump\t// in\n    tag_432:\n        /* \"#utility.yul\":20800:20874   */\n      swap2\n      pop\n        /* \"#utility.yul\":20883:20976   */\n      tag_433\n        /* \"#utility.yul\":20972:20975   */\n      dup3\n        /* \"#utility.yul\":20883:20976   */\n      tag_210\n      jump\t// in\n    tag_433:\n        /* \"#utility.yul\":21001:21003   */\n      0x40\n        /* \"#utility.yul\":20996:20999   */\n      dup3\n        /* \"#utility.yul\":20992:21004   */\n      add\n        /* \"#utility.yul\":20985:21004   */\n      swap1\n      pop\n        /* \"#utility.yul\":20644:21010   */\n      swap2\n      swap1\n      pop\n      jump\t// out\n        /* \"#utility.yul\":21016:21435   */\n    tag_106:\n        /* \"#utility.yul\":21182:21186   */\n      0x00\n        /* \"#utility.yul\":21220:21222   */\n      0x20\n        /* \"#utility.yul\":21209:21218   */\n      dup3\n        /* \"#utility.yul\":21205:21223   */\n      add\n        /* \"#utility.yul\":21197:21223   */\n      swap1\n      pop\n        /* \"#utility.yul\":21269:21278   */\n      dup2\n        /* \"#utility.yul\":21263:21267   */\n      dup2\n        /* \"#utility.yul\":21259:21279   */\n      sub\n        /* \"#utility.yul\":21255:21256   */\n      0x00\n        /* \"#utility.yul\":21244:21253   */\n      dup4\n        /* \"#utility.yul\":21240:21257   */\n      add\n        /* \"#utility.yul\":21233:21280   */\n      mstore\n        /* \"#utility.yul\":21297:21428   */\n      tag_435\n        /* \"#utility.yul\":21423:21427   */\n      dup2\n        /* \"#utility.yul\":21297:21428   */\n      tag_211\n      jump\t// in\n    tag_435:\n        /* \"#utility.yul\":21289:21428   */\n      swap1\n      pop\n        /* \"#utility.yul\":21016:21435   */\n      swap2\n      swap1\n      pop\n      jump\t// out\n        /* \"#utility.yul\":21441:21666   */\n    tag_212:\n        /* \"#utility.yul\":21581:21615   */\n      0x4e6f20636f6e747269627574696f6e20666f756e6420666f7220746865206361\n        /* \"#utility.yul\":21577:21578   */\n      0x00\n        /* \"#utility.yul\":21569:21575   */\n      dup3\n        /* \"#utility.yul\":21565:21579   */\n      add\n        /* \"#utility.yul\":21558:21616   */\n      mstore\n        /* \"#utility.yul\":21650:21658   */\n      0x6d706169676e0000000000000000000000000000000000000000000000000000\n        /* \"#utility.yul\":21645:21647   */\n      0x20\n        /* \"#utility.yul\":21637:21643   */\n      dup3\n        /* \"#utility.yul\":21633:21648   */\n      add\n        /* \"#utility.yul\":21626:21659   */\n      mstore\n        /* \"#utility.yul\":21441:21666   */\n      pop\n      jump\t// out\n        /* \"#utility.yul\":21672:22038   */\n    tag_213:\n        /* \"#utility.yul\":21814:21817   */\n      0x00\n        /* \"#utility.yul\":21835:21902   */\n      tag_438\n        /* \"#utility.yul\":21899:21901   */\n      0x26\n        /* \"#utility.yul\":21894:21897   */\n      dup4\n        /* \"#utility.yul\":21835:21902   */\n      tag_162\n      jump\t// in\n    tag_438:\n        /* \"#utility.yul\":21828:21902   */\n      swap2\n      pop\n        /* \"#utility.yul\":21911:22004   */\n      tag_439\n        /* \"#utility.yul\":22000:22003   */\n      dup3\n        /* \"#utility.yul\":21911:22004   */\n      tag_212\n      jump\t// in\n    tag_439:\n        /* \"#utility.yul\":22029:22031   */\n      0x40\n        /* \"#utility.yul\":22024:22027   */\n      dup3\n        /* \"#utility.yul\":22020:22032   */\n      add\n        /* \"#utility.yul\":22013:22032   */\n      swap1\n      pop\n        /* \"#utility.yul\":21672:22038   */\n      swap2\n      swap1\n      pop\n      jump\t// out\n        /* \"#utility.yul\":22044:22463   */\n    tag_109:\n        /* \"#utility.yul\":22210:22214   */\n      0x00\n        /* \"#utility.yul\":22248:22250   */\n      0x20\n        /* \"#utility.yul\":22237:22246   */\n      dup3\n        /* \"#utility.yul\":22233:22251   */\n      add\n        /* \"#utility.yul\":22225:22251   */\n      swap1\n      pop\n        /* \"#utility.yul\":22297:22306   */\n      dup2\n        /* \"#utility.yul\":22291:22295   */\n      dup2\n        /* \"#utility.yul\":22287:22307   */\n      sub\n        /* \"#utility.yul\":22283:22284   */\n      0x00\n        /* \"#utility.yul\":22272:22281   */\n      dup4\n        /* \"#utility.yul\":22268:22285   */\n      add\n        /* \"#utility.yul\":22261:22308   */\n      mstore\n        /* \"#utility.yul\":22325:22456   */\n      tag_441\n        /* \"#utility.yul\":22451:22455   */\n      dup2\n        /* \"#utility.yul\":22325:22456   */\n      tag_213\n      jump\t// in\n    tag_441:\n        /* \"#utility.yul\":22317:22456   */\n      swap1\n      pop\n        /* \"#utility.yul\":22044:22463   */\n      swap2\n      swap1\n      pop\n      jump\t// out\n        /* \"#utility.yul\":22469:22643   */\n    tag_214:\n        /* \"#utility.yul\":22609:22635   */\n      0x46756e64696e6720676f616c206e6f7420726561636865640000000000000000\n        /* \"#utility.yul\":22605:22606   */\n      0x00\n        /* \"#utility.yul\":22597:22603   */\n      dup3\n        /* \"#utility.yul\":22593:22607   */\n      add\n        /* \"#utility.yul\":22586:22636   */\n      mstore\n        /* \"#utility.yul\":22469:22643   */\n      pop\n      jump\t// out\n        /* \"#utility.yul\":22649:23015   */\n    tag_215:\n        /* \"#utility.yul\":22791:22794   */\n      0x00\n        /* \"#utility.yul\":22812:22879   */\n      tag_444\n        /* \"#utility.yul\":22876:22878   */\n      0x18\n        /* \"#utility.yul\":22871:22874   */\n      dup4\n        /* \"#utility.yul\":22812:22879   */\n      tag_162\n      jump\t// in\n    tag_444:\n        /* \"#utility.yul\":22805:22879   */\n      swap2\n      pop\n        /* \"#utility.yul\":22888:22981   */\n      tag_445\n        /* \"#utility.yul\":22977:22980   */\n      dup3\n        /* \"#utility.yul\":22888:22981   */\n      tag_214\n      jump\t// in\n    tag_445:\n        /* \"#utility.yul\":23006:23008   */\n      0x20\n        /* \"#utility.yul\":23001:23004   */\n      dup3\n        /* \"#utility.yul\":22997:23009   */\n      add\n        /* \"#utility.yul\":22990:23009   */\n      swap1\n      pop\n        /* \"#utility.yul\":22649:23015   */\n      swap2\n      swap1\n      pop\n      jump\t// out\n        /* \"#utility.yul\":23021:23440   */\n    tag_118:\n        /* \"#utility.yul\":23187:23191   */\n      0x00\n        /* \"#utility.yul\":23225:23227   */\n      0x20\n        /* \"#utility.yul\":23214:23223   */\n      dup3\n        /* \"#utility.yul\":23210:23228   */\n      add\n        /* \"#utility.yul\":23202:23228   */\n      swap1\n      pop\n        /* \"#utility.yul\":23274:23283   */\n      dup2\n        /* \"#utility.yul\":23268:23272   */\n      dup2\n        /* \"#utility.yul\":23264:23284   */\n      sub\n        /* \"#utility.yul\":23260:23261   */\n      0x00\n        /* \"#utility.yul\":23249:23258   */\n      dup4\n        /* \"#utility.yul\":23245:23262   */\n      add\n        /* \"#utility.yul\":23238:23285   */\n      mstore\n        /* \"#utility.yul\":23302:23433   */\n      tag_447\n        /* \"#utility.yul\":23428:23432   */\n      dup2\n        /* \"#utility.yul\":23302:23433   */\n      tag_215\n      jump\t// in\n    tag_447:\n        /* \"#utility.yul\":23294:23433   */\n      swap1\n      pop\n        /* \"#utility.yul\":23021:23440   */\n      swap2\n      swap1\n      pop\n      jump\t// out\n        /* \"#utility.yul\":23446:23856   */\n    tag_120:\n        /* \"#utility.yul\":23486:23493   */\n      0x00\n        /* \"#utility.yul\":23509:23529   */\n      tag_449\n        /* \"#utility.yul\":23527:23528   */\n      dup3\n        /* \"#utility.yul\":23509:23529   */\n      tag_158\n      jump\t// in\n    tag_449:\n        /* \"#utility.yul\":23504:23529   */\n      swap2\n      pop\n        /* \"#utility.yul\":23543:23563   */\n      tag_450\n        /* \"#utility.yul\":23561:23562   */\n      dup4\n        /* \"#utility.yul\":23543:23563   */\n      tag_158\n      jump\t// in\n    tag_450:\n        /* \"#utility.yul\":23538:23563   */\n      swap3\n      pop\n        /* \"#utility.yul\":23598:23599   */\n      dup3\n        /* \"#utility.yul\":23595:23596   */\n      dup3\n        /* \"#utility.yul\":23591:23600   */\n      mul\n        /* \"#utility.yul\":23620:23650   */\n      tag_451\n        /* \"#utility.yul\":23638:23649   */\n      dup2\n        /* \"#utility.yul\":23620:23650   */\n      tag_158\n      jump\t// in\n    tag_451:\n        /* \"#utility.yul\":23609:23650   */\n      swap2\n      pop\n        /* \"#utility.yul\":23799:23800   */\n      dup3\n        /* \"#utility.yul\":23790:23797   */\n      dup3\n        /* \"#utility.yul\":23786:23801   */\n      div\n        /* \"#utility.yul\":23783:23784   */\n      dup5\n        /* \"#utility.yul\":23780:23802   */\n      eq\n        /* \"#utility.yul\":23760:23761   */\n      dup4\n        /* \"#utility.yul\":23753:23762   */\n      iszero\n        /* \"#utility.yul\":23733:23816   */\n      or\n        /* \"#utility.yul\":23710:23849   */\n      tag_452\n      jumpi\n        /* \"#utility.yul\":23829:23847   */\n      tag_453\n      tag_189\n      jump\t// in\n    tag_453:\n        /* \"#utility.yul\":23710:23849   */\n    tag_452:\n        /* \"#utility.yul\":23494:23856   */\n      pop\n        /* \"#utility.yul\":23446:23856   */\n      swap3\n      swap2\n      pop\n      pop\n      jump\t// out\n        /* \"#utility.yul\":23862:24042   */\n    tag_216:\n        /* \"#utility.yul\":23910:23987   */\n      0x4e487b7100000000000000000000000000000000000000000000000000000000\n        /* \"#utility.yul\":23907:23908   */\n      0x00\n        /* \"#utility.yul\":23900:23988   */\n      mstore\n        /* \"#utility.yul\":24007:24011   */\n      0x12\n        /* \"#utility.yul\":24004:24005   */\n      0x04\n        /* \"#utility.yul\":23997:24012   */\n      mstore\n        /* \"#utility.yul\":24031:24035   */\n      0x24\n        /* \"#utility.yul\":24028:24029   */\n      0x00\n        /* \"#utility.yul\":24021:24036   */\n      revert\n        /* \"#utility.yul\":24048:24233   */\n    tag_122:\n        /* \"#utility.yul\":24088:24089   */\n      0x00\n        /* \"#utility.yul\":24105:24125   */\n      tag_456\n        /* \"#utility.yul\":24123:24124   */\n      dup3\n        /* \"#utility.yul\":24105:24125   */\n      tag_158\n      jump\t// in\n    tag_456:\n        /* \"#utility.yul\":24100:24125   */\n      swap2\n      pop\n        /* \"#utility.yul\":24139:24159   */\n      tag_457\n        /* \"#utility.yul\":24157:24158   */\n      dup4\n        /* \"#utility.yul\":24139:24159   */\n      tag_158\n      jump\t// in\n    tag_457:\n        /* \"#utility.yul\":24134:24159   */\n      swap3\n      pop\n        /* \"#utility.yul\":24178:24179   */\n      dup3\n        /* \"#utility.yul\":24168:24203   */\n      tag_458\n      jumpi\n        /* \"#utility.yul\":24183:24201   */\n      tag_459\n      tag_216\n      jump\t// in\n    tag_459:\n        /* \"#utility.yul\":24168:24203   */\n    tag_458:\n        /* \"#utility.yul\":24225:24226   */\n      dup3\n        /* \"#utility.yul\":24222:24223   */\n      dup3\n        /* \"#utility.yul\":24218:24227   */\n      div\n        /* \"#utility.yul\":24213:24227   */\n      swap1\n      pop\n        /* \"#utility.yul\":24048:24233   */\n      swap3\n      swap2\n      pop\n      pop\n      jump\t// out\n        /* \"#utility.yul\":24239:24419   */\n    tag_128:\n        /* \"#utility.yul\":24287:24364   */\n      0x4e487b7100000000000000000000000000000000000000000000000000000000\n        /* \"#utility.yul\":24284:24285   */\n      0x00\n        /* \"#utility.yul\":24277:24365   */\n      mstore\n        /* \"#utility.yul\":24384:24388   */\n      0x32\n        /* \"#utility.yul\":24381:24382   */\n      0x04\n        /* \"#utility.yul\":24374:24389   */\n      mstore\n        /* \"#utility.yul\":24408:24412   */\n      0x24\n        /* \"#utility.yul\":24405:24406   */\n      0x00\n        /* \"#utility.yul\":24398:24413   */\n      revert\n        /* \"#utility.yul\":24425:24757   */\n    tag_138:\n        /* \"#utility.yul\":24546:24550   */\n      0x00\n        /* \"#utility.yul\":24584:24586   */\n      0x40\n        /* \"#utility.yul\":24573:24582   */\n      dup3\n        /* \"#utility.yul\":24569:24587   */\n      add\n        /* \"#utility.yul\":24561:24587   */\n      swap1\n      pop\n        /* \"#utility.yul\":24597:24668   */\n      tag_462\n        /* \"#utility.yul\":24665:24666   */\n      0x00\n        /* \"#utility.yul\":24654:24663   */\n      dup4\n        /* \"#utility.yul\":24650:24667   */\n      add\n        /* \"#utility.yul\":24641:24647   */\n      dup6\n        /* \"#utility.yul\":24597:24668   */\n      tag_182\n      jump\t// in\n    tag_462:\n        /* \"#utility.yul\":24678:24750   */\n      tag_463\n        /* \"#utility.yul\":24746:24748   */\n      0x20\n        /* \"#utility.yul\":24735:24744   */\n      dup4\n        /* \"#utility.yul\":24731:24749   */\n      add\n        /* \"#utility.yul\":24722:24728   */\n      dup5\n        /* \"#utility.yul\":24678:24750   */\n      tag_166\n      jump\t// in\n    tag_463:\n        /* \"#utility.yul\":24425:24757   */\n      swap4\n      swap3\n      pop\n      pop\n      pop\n      jump\t// out\n        /* \"#utility.yul\":24763:24879   */\n    tag_217:\n        /* \"#utility.yul\":24833:24854   */\n      tag_465\n        /* \"#utility.yul\":24848:24853   */\n      dup2\n        /* \"#utility.yul\":24833:24854   */\n      tag_167\n      jump\t// in\n    tag_465:\n        /* \"#utility.yul\":24826:24831   */\n      dup2\n        /* \"#utility.yul\":24823:24855   */\n      eq\n        /* \"#utility.yul\":24813:24873   */\n      tag_466\n      jumpi\n        /* \"#utility.yul\":24869:24870   */\n      0x00\n        /* \"#utility.yul\":24866:24867   */\n      dup1\n        /* \"#utility.yul\":24859:24871   */\n      revert\n        /* \"#utility.yul\":24813:24873   */\n    tag_466:\n        /* \"#utility.yul\":24763:24879   */\n      pop\n      jump\t// out\n        /* \"#utility.yul\":24885:25022   */\n    tag_218:\n        /* \"#utility.yul\":24939:24944   */\n      0x00\n        /* \"#utility.yul\":24970:24976   */\n      dup2\n        /* \"#utility.yul\":24964:24977   */\n      mload\n        /* \"#utility.yul\":24955:24977   */\n      swap1\n      pop\n        /* \"#utility.yul\":24986:25016   */\n      tag_468\n        /* \"#utility.yul\":25010:25015   */\n      dup2\n        /* \"#utility.yul\":24986:25016   */\n      tag_217\n      jump\t// in\n    tag_468:\n        /* \"#utility.yul\":24885:25022   */\n      swap3\n      swap2\n      pop\n      pop\n      jump\t// out\n        /* \"#utility.yul\":25028:25373   */\n    tag_142:\n        /* \"#utility.yul\":25095:25101   */\n      0x00\n        /* \"#utility.yul\":25144:25146   */\n      0x20\n        /* \"#utility.yul\":25132:25141   */\n      dup3\n        /* \"#utility.yul\":25123:25130   */\n      dup5\n        /* \"#utility.yul\":25119:25142   */\n      sub\n        /* \"#utility.yul\":25115:25147   */\n      slt\n        /* \"#utility.yul\":25112:25231   */\n      iszero\n      tag_470\n      jumpi\n        /* \"#utility.yul\":25150:25229   */\n      tag_471\n      tag_156\n      jump\t// in\n    tag_471:\n        /* \"#utility.yul\":25112:25231   */\n    tag_470:\n        /* \"#utility.yul\":25270:25271   */\n      0x00\n        /* \"#utility.yul\":25295:25356   */\n      tag_472\n        /* \"#utility.yul\":25348:25355   */\n      dup5\n        /* \"#utility.yul\":25339:25345   */\n      dup3\n        /* \"#utility.yul\":25328:25337   */\n      dup6\n        /* \"#utility.yul\":25324:25346   */\n      add\n        /* \"#utility.yul\":25295:25356   */\n      tag_218\n      jump\t// in\n    tag_472:\n        /* \"#utility.yul\":25285:25356   */\n      swap2\n      pop\n        /* \"#utility.yul\":25241:25366   */\n      pop\n        /* \"#utility.yul\":25028:25373   */\n      swap3\n      swap2\n      pop\n      pop\n      jump\t// out\n    stop\n\n    sub_0: assembly {\n            /* \"CrowdFunding.sol\":4940:5565  contract Token ... */\n          mstore(0x40, 0x80)\n            /* \"CrowdFunding.sol\":5102:5286  constructor(uint256 _totalSupply) ... */\n          callvalue\n          dup1\n          iszero\n          tag_1\n          jumpi\n          0x00\n          dup1\n          revert\n        tag_1:\n          pop\n          mload(0x40)\n          sub(codesize, bytecodeSize)\n          dup1\n          bytecodeSize\n          dup4\n          codecopy\n          dup2\n          dup2\n          add\n          0x40\n          mstore\n          dup2\n          add\n          swap1\n          tag_2\n          swap2\n          swap1\n          tag_3\n          jump\t// in\n        tag_2:\n            /* \"CrowdFunding.sol\":5153:5169  name = \"MyToken\" */\n          mload(0x40)\n          dup1\n          0x40\n          add\n          0x40\n          mstore\n          dup1\n          0x07\n          dup2\n          mstore\n          0x20\n          add\n          0x4d79546f6b656e00000000000000000000000000000000000000000000000000\n          dup2\n          mstore\n          pop\n            /* \"CrowdFunding.sol\":5153:5157  name */\n          0x00\n            /* \"CrowdFunding.sol\":5153:5169  name = \"MyToken\" */\n          swap1\n          dup2\n          tag_6\n          swap2\n          swap1\n          tag_7\n          jump\t// in\n        tag_6:\n          pop\n            /* \"CrowdFunding.sol\":5180:5194  symbol = \"MTK\" */\n          mload(0x40)\n          dup1\n          0x40\n          add\n          0x40\n          mstore\n          dup1\n          0x03\n          dup2\n          mstore\n          0x20\n          add\n          0x4d544b0000000000000000000000000000000000000000000000000000000000\n          dup2\n          mstore\n          pop\n            /* \"CrowdFunding.sol\":5180:5186  symbol */\n          0x01\n            /* \"CrowdFunding.sol\":5180:5194  symbol = \"MTK\" */\n          swap1\n          dup2\n          tag_8\n          swap2\n          swap1\n          tag_7\n          jump\t// in\n        tag_8:\n          pop\n            /* \"CrowdFunding.sol\":5219:5231  _totalSupply */\n          dup1\n            /* \"CrowdFunding.sol\":5205:5216  totalSupply */\n          0x02\n            /* \"CrowdFunding.sol\":5205:5231  totalSupply = _totalSupply */\n          dup2\n          swap1\n          sstore\n          pop\n            /* \"CrowdFunding.sol\":5266:5278  _totalSupply */\n          dup1\n            /* \"CrowdFunding.sol\":5242:5251  balanceOf */\n          0x03\n            /* \"CrowdFunding.sol\":5242:5263  balanceOf[msg.sender] */\n          0x00\n            /* \"CrowdFunding.sol\":5252:5262  msg.sender */\n          caller\n            /* \"CrowdFunding.sol\":5242:5263  balanceOf[msg.sender] */\n          0xffffffffffffffffffffffffffffffffffffffff\n          and\n          0xffffffffffffffffffffffffffffffffffffffff\n          and\n          dup2\n          mstore\n          0x20\n          add\n          swap1\n          dup2\n          mstore\n          0x20\n          add\n          0x00\n          keccak256\n            /* \"CrowdFunding.sol\":5242:5278  balanceOf[msg.sender] = _totalSupply */\n          dup2\n          swap1\n          sstore\n          pop\n            /* \"CrowdFunding.sol\":5102:5286  constructor(uint256 _totalSupply) ... */\n          pop\n            /* \"CrowdFunding.sol\":4940:5565  contract Token ... */\n          jump(tag_9)\n            /* \"#utility.yul\":88:205   */\n        tag_11:\n            /* \"#utility.yul\":197:198   */\n          0x00\n            /* \"#utility.yul\":194:195   */\n          dup1\n            /* \"#utility.yul\":187:199   */\n          revert\n            /* \"#utility.yul\":334:411   */\n        tag_13:\n            /* \"#utility.yul\":371:378   */\n          0x00\n            /* \"#utility.yul\":400:405   */\n          dup2\n            /* \"#utility.yul\":389:405   */\n          swap1\n          pop\n            /* \"#utility.yul\":334:411   */\n          swap2\n          swap1\n          pop\n          jump\t// out\n            /* \"#utility.yul\":417:539   */\n        tag_14:\n            /* \"#utility.yul\":490:514   */\n          tag_41\n            /* \"#utility.yul\":508:513   */\n          dup2\n            /* \"#utility.yul\":490:514   */\n          tag_13\n          jump\t// in\n        tag_41:\n            /* \"#utility.yul\":483:488   */\n          dup2\n            /* \"#utility.yul\":480:515   */\n          eq\n            /* \"#utility.yul\":470:533   */\n          tag_42\n          jumpi\n            /* \"#utility.yul\":529:530   */\n          0x00\n            /* \"#utility.yul\":526:527   */\n          dup1\n            /* \"#utility.yul\":519:531   */\n          revert\n            /* \"#utility.yul\":470:533   */\n        tag_42:\n            /* \"#utility.yul\":417:539   */\n          pop\n          jump\t// out\n            /* \"#utility.yul\":545:688   */\n        tag_15:\n            /* \"#utility.yul\":602:607   */\n          0x00\n            /* \"#utility.yul\":633:639   */\n          dup2\n            /* \"#utility.yul\":627:640   */\n          mload\n            /* \"#utility.yul\":618:640   */\n          swap1\n          pop\n            /* \"#utility.yul\":649:682   */\n          tag_44\n            /* \"#utility.yul\":676:681   */\n          dup2\n            /* \"#utility.yul\":649:682   */\n          tag_14\n          jump\t// in\n        tag_44:\n            /* \"#utility.yul\":545:688   */\n          swap3\n          swap2\n          pop\n          pop\n          jump\t// out\n            /* \"#utility.yul\":694:1045   */\n        tag_3:\n            /* \"#utility.yul\":764:770   */\n          0x00\n            /* \"#utility.yul\":813:815   */\n          0x20\n            /* \"#utility.yul\":801:810   */\n          dup3\n            /* \"#utility.yul\":792:799   */\n          dup5\n            /* \"#utility.yul\":788:811   */\n          sub\n            /* \"#utility.yul\":784:816   */\n          slt\n            /* \"#utility.yul\":781:900   */\n          iszero\n          tag_46\n          jumpi\n            /* \"#utility.yul\":819:898   */\n          tag_47\n          tag_11\n          jump\t// in\n        tag_47:\n            /* \"#utility.yul\":781:900   */\n        tag_46:\n            /* \"#utility.yul\":939:940   */\n          0x00\n            /* \"#utility.yul\":964:1028   */\n          tag_48\n            /* \"#utility.yul\":1020:1027   */\n          dup5\n            /* \"#utility.yul\":1011:1017   */\n          dup3\n            /* \"#utility.yul\":1000:1009   */\n          dup6\n            /* \"#utility.yul\":996:1018   */\n          add\n            /* \"#utility.yul\":964:1028   */\n          tag_15\n          jump\t// in\n        tag_48:\n            /* \"#utility.yul\":954:1028   */\n          swap2\n          pop\n            /* \"#utility.yul\":910:1038   */\n          pop\n            /* \"#utility.yul\":694:1045   */\n          swap3\n          swap2\n          pop\n          pop\n          jump\t// out\n            /* \"#utility.yul\":1051:1150   */\n        tag_16:\n            /* \"#utility.yul\":1103:1109   */\n          0x00\n            /* \"#utility.yul\":1137:1142   */\n          dup2\n            /* \"#utility.yul\":1131:1143   */\n          mload\n            /* \"#utility.yul\":1121:1143   */\n          swap1\n          pop\n            /* \"#utility.yul\":1051:1150   */\n          swap2\n          swap1\n          pop\n          jump\t// out\n            /* \"#utility.yul\":1156:1336   */\n        tag_17:\n            /* \"#utility.yul\":1204:1281   */\n          0x4e487b7100000000000000000000000000000000000000000000000000000000\n            /* \"#utility.yul\":1201:1202   */\n          0x00\n            /* \"#utility.yul\":1194:1282   */\n          mstore\n            /* \"#utility.yul\":1301:1305   */\n          0x41\n            /* \"#utility.yul\":1298:1299   */\n          0x04\n            /* \"#utility.yul\":1291:1306   */\n          mstore\n            /* \"#utility.yul\":1325:1329   */\n          0x24\n            /* \"#utility.yul\":1322:1323   */\n          0x00\n            /* \"#utility.yul\":1315:1330   */\n          revert\n            /* \"#utility.yul\":1342:1522   */\n        tag_18:\n            /* \"#utility.yul\":1390:1467   */\n          0x4e487b7100000000000000000000000000000000000000000000000000000000\n            /* \"#utility.yul\":1387:1388   */\n          0x00\n            /* \"#utility.yul\":1380:1468   */\n          mstore\n            /* \"#utility.yul\":1487:1491   */\n          0x22\n            /* \"#utility.yul\":1484:1485   */\n          0x04\n            /* \"#utility.yul\":1477:1492   */\n          mstore\n            /* \"#utility.yul\":1511:1515   */\n          0x24\n            /* \"#utility.yul\":1508:1509   */\n          0x00\n            /* \"#utility.yul\":1501:1516   */\n          revert\n            /* \"#utility.yul\":1528:1848   */\n        tag_19:\n            /* \"#utility.yul\":1572:1578   */\n          0x00\n            /* \"#utility.yul\":1609:1610   */\n          0x02\n            /* \"#utility.yul\":1603:1607   */\n          dup3\n            /* \"#utility.yul\":1599:1611   */\n          div\n            /* \"#utility.yul\":1589:1611   */\n          swap1\n          pop\n            /* \"#utility.yul\":1656:1657   */\n          0x01\n            /* \"#utility.yul\":1650:1654   */\n          dup3\n            /* \"#utility.yul\":1646:1658   */\n          and\n            /* \"#utility.yul\":1677:1695   */\n          dup1\n            /* \"#utility.yul\":1667:1748   */\n          tag_53\n          jumpi\n            /* \"#utility.yul\":1733:1737   */\n          0x7f\n            /* \"#utility.yul\":1725:1731   */\n          dup3\n            /* \"#utility.yul\":1721:1738   */\n          and\n            /* \"#utility.yul\":1711:1738   */\n          swap2\n          pop\n            /* \"#utility.yul\":1667:1748   */\n        tag_53:\n            /* \"#utility.yul\":1795:1797   */\n          0x20\n            /* \"#utility.yul\":1787:1793   */\n          dup3\n            /* \"#utility.yul\":1784:1798   */\n          lt\n            /* \"#utility.yul\":1764:1782   */\n          dup2\n            /* \"#utility.yul\":1761:1799   */\n          sub\n            /* \"#utility.yul\":1758:1842   */\n          tag_54\n          jumpi\n            /* \"#utility.yul\":1814:1832   */\n          tag_55\n          tag_18\n          jump\t// in\n        tag_55:\n            /* \"#utility.yul\":1758:1842   */\n        tag_54:\n            /* \"#utility.yul\":1579:1848   */\n          pop\n            /* \"#utility.yul\":1528:1848   */\n          swap2\n          swap1\n          pop\n          jump\t// out\n            /* \"#utility.yul\":1854:1995   */\n        tag_20:\n            /* \"#utility.yul\":1903:1907   */\n          0x00\n            /* \"#utility.yul\":1926:1929   */\n          dup2\n            /* \"#utility.yul\":1918:1929   */\n          swap1\n          pop\n            /* \"#utility.yul\":1949:1952   */\n          dup2\n            /* \"#utility.yul\":1946:1947   */\n          0x00\n            /* \"#utility.yul\":1939:1953   */\n          mstore\n            /* \"#utility.yul\":1983:1987   */\n          0x20\n            /* \"#utility.yul\":1980:1981   */\n          0x00\n            /* \"#utility.yul\":1970:1988   */\n          keccak256\n            /* \"#utility.yul\":1962:1988   */\n          swap1\n          pop\n            /* \"#utility.yul\":1854:1995   */\n          swap2\n          swap1\n          pop\n          jump\t// out\n            /* \"#utility.yul\":2001:2094   */\n        tag_21:\n            /* \"#utility.yul\":2038:2044   */\n          0x00\n            /* \"#utility.yul\":2085:2087   */\n          0x20\n            /* \"#utility.yul\":2080:2082   */\n          0x1f\n            /* \"#utility.yul\":2073:2078   */\n          dup4\n            /* \"#utility.yul\":2069:2083   */\n          add\n            /* \"#utility.yul\":2065:2088   */\n          div\n            /* \"#utility.yul\":2055:2088   */\n          swap1\n          pop\n            /* \"#utility.yul\":2001:2094   */\n          swap2\n          swap1\n          pop\n          jump\t// out\n            /* \"#utility.yul\":2100:2207   */\n        tag_22:\n            /* \"#utility.yul\":2144:2152   */\n          0x00\n            /* \"#utility.yul\":2194:2199   */\n          dup3\n            /* \"#utility.yul\":2188:2192   */\n          dup3\n            /* \"#utility.yul\":2184:2200   */\n          shl\n            /* \"#utility.yul\":2163:2200   */\n          swap1\n          pop\n            /* \"#utility.yul\":2100:2207   */\n          swap3\n          swap2\n          pop\n          pop\n          jump\t// out\n            /* \"#utility.yul\":2213:2606   */\n        tag_23:\n            /* \"#utility.yul\":2282:2288   */\n          0x00\n            /* \"#utility.yul\":2332:2333   */\n          0x08\n            /* \"#utility.yul\":2320:2330   */\n          dup4\n            /* \"#utility.yul\":2316:2334   */\n          mul\n            /* \"#utility.yul\":2355:2452   */\n          tag_60\n            /* \"#utility.yul\":2385:2451   */\n          0xffffffffffffffffffffffffffffffffffffffffffffffffffffffffffffffff\n            /* \"#utility.yul\":2374:2383   */\n          dup3\n            /* \"#utility.yul\":2355:2452   */\n          tag_22\n          jump\t// in\n        tag_60:\n            /* \"#utility.yul\":2473:2512   */\n          tag_61\n            /* \"#utility.yul\":2503:2511   */\n          dup7\n            /* \"#utility.yul\":2492:2501   */\n          dup4\n            /* \"#utility.yul\":2473:2512   */\n          tag_22\n          jump\t// in\n        tag_61:\n            /* \"#utility.yul\":2461:2512   */\n          swap6\n          pop\n            /* \"#utility.yul\":2545:2549   */\n          dup1\n            /* \"#utility.yul\":2541:2550   */\n          not\n            /* \"#utility.yul\":2534:2539   */\n          dup5\n            /* \"#utility.yul\":2530:2551   */\n          and\n            /* \"#utility.yul\":2521:2551   */\n          swap4\n          pop\n            /* \"#utility.yul\":2594:2598   */\n          dup1\n            /* \"#utility.yul\":2584:2592   */\n          dup7\n            /* \"#utility.yul\":2580:2599   */\n          and\n            /* \"#utility.yul\":2573:2578   */\n          dup5\n            /* \"#utility.yul\":2570:2600   */\n          or\n            /* \"#utility.yul\":2560:2600   */\n          swap3\n          pop\n            /* \"#utility.yul\":2289:2606   */\n          pop\n          pop\n            /* \"#utility.yul\":2213:2606   */\n          swap4\n          swap3\n          pop\n          pop\n          pop\n          jump\t// out\n            /* \"#utility.yul\":2612:2672   */\n        tag_24:\n            /* \"#utility.yul\":2640:2643   */\n          0x00\n            /* \"#utility.yul\":2661:2666   */\n          dup2\n            /* \"#utility.yul\":2654:2666   */\n          swap1\n          pop\n            /* \"#utility.yul\":2612:2672   */\n          swap2\n          swap1\n          pop\n          jump\t// out\n            /* \"#utility.yul\":2678:2820   */\n        tag_25:\n            /* \"#utility.yul\":2728:2737   */\n          0x00\n            /* \"#utility.yul\":2761:2814   */\n          tag_64\n            /* \"#utility.yul\":2779:2813   */\n          tag_65\n            /* \"#utility.yul\":2788:2812   */\n          tag_66\n            /* \"#utility.yul\":2806:2811   */\n          dup5\n            /* \"#utility.yul\":2788:2812   */\n          tag_13\n          jump\t// in\n        tag_66:\n            /* \"#utility.yul\":2779:2813   */\n          tag_24\n          jump\t// in\n        tag_65:\n            /* \"#utility.yul\":2761:2814   */\n          tag_13\n          jump\t// in\n        tag_64:\n            /* \"#utility.yul\":2748:2814   */\n          swap1\n          pop\n            /* \"#utility.yul\":2678:2820   */\n          swap2\n          swap1\n          pop\n          jump\t// out\n            /* \"#utility.yul\":2826:2901   */\n        tag_26:\n            /* \"#utility.yul\":2869:2872   */\n          0x00\n            /* \"#utility.yul\":2890:2895   */\n          dup2\n            /* \"#utility.yul\":2883:2895   */\n          swap1\n          pop\n            /* \"#utility.yul\":2826:2901   */\n          swap2\n          swap1\n          pop\n          jump\t// out\n            /* \"#utility.yul\":2907:3176   */\n        tag_27:\n            /* \"#utility.yul\":3017:3056   */\n          tag_69\n            /* \"#utility.yul\":3048:3055   */\n          dup4\n            /* \"#utility.yul\":3017:3056   */\n          tag_25\n          jump\t// in\n        tag_69:\n            /* \"#utility.yul\":3078:3169   */\n          tag_70\n            /* \"#utility.yul\":3127:3168   */\n          tag_71\n            /* \"#utility.yul\":3151:3167   */\n          dup3\n            /* \"#utility.yul\":3127:3168   */\n          tag_26\n          jump\t// in\n        tag_71:\n            /* \"#utility.yul\":3119:3125   */\n          dup5\n            /* \"#utility.yul\":3112:3116   */\n          dup5\n            /* \"#utility.yul\":3106:3117   */\n          sload\n            /* \"#utility.yul\":3078:3169   */\n          tag_23\n          jump\t// in\n        tag_70:\n            /* \"#utility.yul\":3072:3076   */\n          dup3\n            /* \"#utility.yul\":3065:3170   */\n          sstore\n            /* \"#utility.yul\":2983:3176   */\n          pop\n            /* \"#utility.yul\":2907:3176   */\n          pop\n          pop\n          pop\n          jump\t// out\n            /* \"#utility.yul\":3182:3255   */\n        tag_28:\n            /* \"#utility.yul\":3227:3230   */\n          0x00\n            /* \"#utility.yul\":3182:3255   */\n          swap1\n          jump\t// out\n            /* \"#utility.yul\":3261:3450   */\n        tag_29:\n            /* \"#utility.yul\":3338:3370   */\n          tag_74\n          tag_28\n          jump\t// in\n        tag_74:\n            /* \"#utility.yul\":3379:3444   */\n          tag_75\n            /* \"#utility.yul\":3437:3443   */\n          dup2\n            /* \"#utility.yul\":3429:3435   */\n          dup5\n            /* \"#utility.yul\":3423:3427   */\n          dup5\n            /* \"#utility.yul\":3379:3444   */\n          tag_27\n          jump\t// in\n        tag_75:\n            /* \"#utility.yul\":3314:3450   */\n          pop\n            /* \"#utility.yul\":3261:3450   */\n          pop\n          pop\n          jump\t// out\n            /* \"#utility.yul\":3456:3642   */\n        tag_30:\n            /* \"#utility.yul\":3516:3636   */\n        tag_77:\n            /* \"#utility.yul\":3533:3536   */\n          dup2\n            /* \"#utility.yul\":3526:3531   */\n          dup2\n            /* \"#utility.yul\":3523:3537   */\n          lt\n            /* \"#utility.yul\":3516:3636   */\n          iszero\n          tag_79\n          jumpi\n            /* \"#utility.yul\":3587:3626   */\n          tag_80\n            /* \"#utility.yul\":3624:3625   */\n          0x00\n            /* \"#utility.yul\":3617:3622   */\n          dup3\n            /* \"#utility.yul\":3587:3626   */\n          tag_29\n          jump\t// in\n        tag_80:\n            /* \"#utility.yul\":3560:3561   */\n          0x01\n            /* \"#utility.yul\":3553:3558   */\n          dup2\n            /* \"#utility.yul\":3549:3562   */\n          add\n            /* \"#utility.yul\":3540:3562   */\n          swap1\n          pop\n            /* \"#utility.yul\":3516:3636   */\n          jump(tag_77)\n        tag_79:\n            /* \"#utility.yul\":3456:3642   */\n          pop\n          pop\n          jump\t// out\n            /* \"#utility.yul\":3648:4191   */\n        tag_31:\n            /* \"#utility.yul\":3749:3751   */\n          0x1f\n            /* \"#utility.yul\":3744:3747   */\n          dup3\n            /* \"#utility.yul\":3741:3752   */\n          gt\n            /* \"#utility.yul\":3738:4184   */\n          iszero\n          tag_82\n          jumpi\n            /* \"#utility.yul\":3783:3821   */\n          tag_83\n            /* \"#utility.yul\":3815:3820   */\n          dup2\n            /* \"#utility.yul\":3783:3821   */\n          tag_20\n          jump\t// in\n        tag_83:\n            /* \"#utility.yul\":3867:3896   */\n          tag_84\n            /* \"#utility.yul\":3885:3895   */\n          dup5\n            /* \"#utility.yul\":3867:3896   */\n          tag_21\n          jump\t// in\n        tag_84:\n            /* \"#utility.yul\":3857:3865   */\n          dup2\n            /* \"#utility.yul\":3853:3897   */\n          add\n            /* \"#utility.yul\":4050:4052   */\n          0x20\n            /* \"#utility.yul\":4038:4048   */\n          dup6\n            /* \"#utility.yul\":4035:4053   */\n          lt\n            /* \"#utility.yul\":4032:4081   */\n          iszero\n          tag_85\n          jumpi\n            /* \"#utility.yul\":4071:4079   */\n          dup2\n            /* \"#utility.yul\":4056:4079   */\n          swap1\n          pop\n            /* \"#utility.yul\":4032:4081   */\n        tag_85:\n            /* \"#utility.yul\":4094:4174   */\n          tag_86\n            /* \"#utility.yul\":4150:4172   */\n          tag_87\n            /* \"#utility.yul\":4168:4171   */\n          dup6\n            /* \"#utility.yul\":4150:4172   */\n          tag_21\n          jump\t// in\n        tag_87:\n            /* \"#utility.yul\":4140:4148   */\n          dup4\n            /* \"#utility.yul\":4136:4173   */\n          add\n            /* \"#utility.yul\":4123:4134   */\n          dup3\n            /* \"#utility.yul\":4094:4174   */\n          tag_30\n          jump\t// in\n        tag_86:\n            /* \"#utility.yul\":3753:4184   */\n          pop\n          pop\n            /* \"#utility.yul\":3738:4184   */\n        tag_82:\n            /* \"#utility.yul\":3648:4191   */\n          pop\n          pop\n          pop\n          jump\t// out\n            /* \"#utility.yul\":4197:4314   */\n        tag_32:\n            /* \"#utility.yul\":4251:4259   */\n          0x00\n            /* \"#utility.yul\":4301:4306   */\n          dup3\n            /* \"#utility.yul\":4295:4299   */\n          dup3\n            /* \"#utility.yul\":4291:4307   */\n          shr\n            /* \"#utility.yul\":4270:4307   */\n          swap1\n          pop\n            /* \"#utility.yul\":4197:4314   */\n          swap3\n          swap2\n          pop\n          pop\n          jump\t// out\n            /* \"#utility.yul\":4320:4489   */\n        tag_33:\n            /* \"#utility.yul\":4364:4370   */\n          0x00\n            /* \"#utility.yul\":4397:4448   */\n          tag_90\n            /* \"#utility.yul\":4445:4446   */\n          0x00\n            /* \"#utility.yul\":4441:4447   */\n          not\n            /* \"#utility.yul\":4433:4438   */\n          dup5\n            /* \"#utility.yul\":4430:4431   */\n          0x08\n            /* \"#utility.yul\":4426:4439   */\n          mul\n            /* \"#utility.yul\":4397:4448   */\n          tag_32\n          jump\t// in\n        tag_90:\n            /* \"#utility.yul\":4393:4449   */\n          not\n            /* \"#utility.yul\":4478:4482   */\n          dup1\n            /* \"#utility.yul\":4472:4476   */\n          dup4\n            /* \"#utility.yul\":4468:4483   */\n          and\n            /* \"#utility.yul\":4458:4483   */\n          swap2\n          pop\n            /* \"#utility.yul\":4371:4489   */\n          pop\n            /* \"#utility.yul\":4320:4489   */\n          swap3\n          swap2\n          pop\n          pop\n          jump\t// out\n            /* \"#utility.yul\":4494:4789   */\n        tag_34:\n            /* \"#utility.yul\":4570:4574   */\n          0x00\n            /* \"#utility.yul\":4716:4745   */\n          tag_92\n            /* \"#utility.yul\":4741:4744   */\n          dup4\n            /* \"#utility.yul\":4735:4739   */\n          dup4\n            /* \"#utility.yul\":4716:4745   */\n          tag_33\n          jump\t// in\n        tag_92:\n            /* \"#utility.yul\":4708:4745   */\n          swap2\n          pop\n            /* \"#utility.yul\":4778:4781   */\n          dup3\n            /* \"#utility.yul\":4775:4776   */\n          0x02\n            /* \"#utility.yul\":4771:4782   */\n          mul\n            /* \"#utility.yul\":4765:4769   */\n          dup3\n            /* \"#utility.yul\":4762:4783   */\n          or\n            /* \"#utility.yul\":4754:4783   */\n          swap1\n          pop\n            /* \"#utility.yul\":4494:4789   */\n          swap3\n          swap2\n          pop\n          pop\n          jump\t// out\n            /* \"#utility.yul\":4794:6189   */\n        tag_7:\n            /* \"#utility.yul\":4911:4948   */\n          tag_94\n            /* \"#utility.yul\":4944:4947   */\n          dup3\n            /* \"#utility.yul\":4911:4948   */\n          tag_16\n          jump\t// in\n        tag_94:\n            /* \"#utility.yul\":5013:5031   */\n          0xffffffffffffffff\n            /* \"#utility.yul\":5005:5011   */\n          dup2\n            /* \"#utility.yul\":5002:5032   */\n          gt\n            /* \"#utility.yul\":4999:5055   */\n          iszero\n          tag_95\n          jumpi\n            /* \"#utility.yul\":5035:5053   */\n          tag_96\n          tag_17\n          jump\t// in\n        tag_96:\n            /* \"#utility.yul\":4999:5055   */\n        tag_95:\n            /* \"#utility.yul\":5079:5117   */\n          tag_97\n            /* \"#utility.yul\":5111:5115   */\n          dup3\n            /* \"#utility.yul\":5105:5116   */\n          sload\n            /* \"#utility.yul\":5079:5117   */\n          tag_19\n          jump\t// in\n        tag_97:\n            /* \"#utility.yul\":5164:5231   */\n          tag_98\n            /* \"#utility.yul\":5224:5230   */\n          dup3\n            /* \"#utility.yul\":5216:5222   */\n          dup3\n            /* \"#utility.yul\":5210:5214   */\n          dup6\n            /* \"#utility.yul\":5164:5231   */\n          tag_31\n          jump\t// in\n        tag_98:\n            /* \"#utility.yul\":5258:5259   */\n          0x00\n            /* \"#utility.yul\":5282:5286   */\n          0x20\n            /* \"#utility.yul\":5269:5286   */\n          swap1\n          pop\n            /* \"#utility.yul\":5314:5316   */\n          0x1f\n            /* \"#utility.yul\":5306:5312   */\n          dup4\n            /* \"#utility.yul\":5303:5317   */\n          gt\n            /* \"#utility.yul\":5331:5332   */\n          0x01\n            /* \"#utility.yul\":5326:5944   */\n          dup2\n          eq\n          tag_100\n          jumpi\n            /* \"#utility.yul\":5988:5989   */\n          0x00\n            /* \"#utility.yul\":6005:6011   */\n          dup5\n            /* \"#utility.yul\":6002:6079   */\n          iszero\n          tag_101\n          jumpi\n            /* \"#utility.yul\":6054:6063   */\n          dup3\n            /* \"#utility.yul\":6049:6052   */\n          dup8\n            /* \"#utility.yul\":6045:6064   */\n          add\n            /* \"#utility.yul\":6039:6065   */\n          mload\n            /* \"#utility.yul\":6030:6065   */\n          swap1\n          pop\n            /* \"#utility.yul\":6002:6079   */\n        tag_101:\n            /* \"#utility.yul\":6105:6172   */\n          tag_102\n            /* \"#utility.yul\":6165:6171   */\n          dup6\n            /* \"#utility.yul\":6158:6163   */\n          dup3\n            /* \"#utility.yul\":6105:6172   */\n          tag_34\n          jump\t// in\n        tag_102:\n            /* \"#utility.yul\":6099:6103   */\n          dup7\n            /* \"#utility.yul\":6092:6173   */\n          sstore\n            /* \"#utility.yul\":5961:6183   */\n          pop\n            /* \"#utility.yul\":5296:6183   */\n          jump(tag_99)\n            /* \"#utility.yul\":5326:5944   */\n        tag_100:\n            /* \"#utility.yul\":5378:5382   */\n          0x1f\n            /* \"#utility.yul\":5374:5383   */\n          not\n            /* \"#utility.yul\":5366:5372   */\n          dup5\n            /* \"#utility.yul\":5362:5384   */\n          and\n            /* \"#utility.yul\":5412:5449   */\n          tag_103\n            /* \"#utility.yul\":5444:5448   */\n          dup7\n            /* \"#utility.yul\":5412:5449   */\n          tag_20\n          jump\t// in\n        tag_103:\n            /* \"#utility.yul\":5471:5472   */\n          0x00\n            /* \"#utility.yul\":5485:5693   */\n        tag_104:\n            /* \"#utility.yul\":5499:5506   */\n          dup3\n            /* \"#utility.yul\":5496:5497   */\n          dup2\n            /* \"#utility.yul\":5493:5507   */\n          lt\n            /* \"#utility.yul\":5485:5693   */\n          iszero\n          tag_106\n          jumpi\n            /* \"#utility.yul\":5578:5587   */\n          dup5\n            /* \"#utility.yul\":5573:5576   */\n          dup10\n            /* \"#utility.yul\":5569:5588   */\n          add\n            /* \"#utility.yul\":5563:5589   */\n          mload\n            /* \"#utility.yul\":5555:5561   */\n          dup3\n            /* \"#utility.yul\":5548:5590   */\n          sstore\n            /* \"#utility.yul\":5629:5630   */\n          0x01\n            /* \"#utility.yul\":5621:5627   */\n          dup3\n            /* \"#utility.yul\":5617:5631   */\n          add\n            /* \"#utility.yul\":5607:5631   */\n          swap2\n          pop\n            /* \"#utility.yul\":5676:5678   */\n          0x20\n            /* \"#utility.yul\":5665:5674   */\n          dup6\n            /* \"#utility.yul\":5661:5679   */\n          add\n            /* \"#utility.yul\":5648:5679   */\n          swap5\n          pop\n            /* \"#utility.yul\":5522:5526   */\n          0x20\n            /* \"#utility.yul\":5519:5520   */\n          dup2\n            /* \"#utility.yul\":5515:5527   */\n          add\n            /* \"#utility.yul\":5510:5527   */\n          swap1\n          pop\n            /* \"#utility.yul\":5485:5693   */\n          jump(tag_104)\n        tag_106:\n            /* \"#utility.yul\":5721:5727   */\n          dup7\n            /* \"#utility.yul\":5712:5719   */\n          dup4\n            /* \"#utility.yul\":5709:5728   */\n          lt\n            /* \"#utility.yul\":5706:5885   */\n          iszero\n          tag_107\n          jumpi\n            /* \"#utility.yul\":5779:5788   */\n          dup5\n            /* \"#utility.yul\":5774:5777   */\n          dup10\n            /* \"#utility.yul\":5770:5789   */\n          add\n            /* \"#utility.yul\":5764:5790   */\n          mload\n            /* \"#utility.yul\":5822:5870   */\n          tag_108\n            /* \"#utility.yul\":5864:5868   */\n          0x1f\n            /* \"#utility.yul\":5856:5862   */\n          dup10\n            /* \"#utility.yul\":5852:5869   */\n          and\n            /* \"#utility.yul\":5841:5850   */\n          dup3\n            /* \"#utility.yul\":5822:5870   */\n          tag_33\n          jump\t// in\n        tag_108:\n            /* \"#utility.yul\":5814:5820   */\n          dup4\n            /* \"#utility.yul\":5807:5871   */\n          sstore\n            /* \"#utility.yul\":5729:5885   */\n          pop\n            /* \"#utility.yul\":5706:5885   */\n        tag_107:\n            /* \"#utility.yul\":5931:5932   */\n          0x01\n            /* \"#utility.yul\":5927:5928   */\n          0x02\n            /* \"#utility.yul\":5919:5925   */\n          dup9\n            /* \"#utility.yul\":5915:5929   */\n          mul\n            /* \"#utility.yul\":5911:5933   */\n          add\n            /* \"#utility.yul\":5905:5909   */\n          dup9\n            /* \"#utility.yul\":5898:5934   */\n          sstore\n            /* \"#utility.yul\":5333:5944   */\n          pop\n          pop\n          pop\n            /* \"#utility.yul\":5296:6183   */\n        tag_99:\n          pop\n            /* \"#utility.yul\":4886:6189   */\n          pop\n          pop\n          pop\n            /* \"#utility.yul\":4794:6189   */\n          pop\n          pop\n          jump\t// out\n            /* \"CrowdFunding.sol\":4940:5565  contract Token ... */\n        tag_9:\n          dataSize(sub_0)\n          dup1\n          dataOffset(sub_0)\n          0x00\n          codecopy\n          0x00\n          return\n        stop\n\n        sub_0: assembly {\n                /* \"CrowdFunding.sol\":4940:5565  contract Token ... */\n              mstore(0x40, 0x80)\n              callvalue\n              dup1\n              iszero\n              tag_1\n              jumpi\n              0x00\n              dup1\n              revert\n            tag_1:\n              pop\n              jumpi(tag_2, lt(calldatasize, 0x04))\n              shr(0xe0, calldataload(0x00))\n              dup1\n              0x06fdde03\n              eq\n              tag_3\n              jumpi\n              dup1\n              0x18160ddd\n              eq\n              tag_4\n              jumpi\n              dup1\n              0x70a08231\n              eq\n              tag_5\n              jumpi\n              dup1\n              0x95d89b41\n              eq\n              tag_6\n              jumpi\n              dup1\n              0xa9059cbb\n              eq\n              tag_7\n              jumpi\n            tag_2:\n              0x00\n              dup1\n              revert\n                /* \"CrowdFunding.sol\":4964:4982  string public name */\n            tag_3:\n              tag_8\n              tag_9\n              jump\t// in\n            tag_8:\n              mload(0x40)\n              tag_10\n              swap2\n              swap1\n              tag_11\n              jump\t// in\n            tag_10:\n              mload(0x40)\n              dup1\n              swap2\n              sub\n              swap1\n              return\n                /* \"CrowdFunding.sol\":5016:5042  uint256 public totalSupply */\n            tag_4:\n              tag_12\n              tag_13\n              jump\t// in\n            tag_12:\n              mload(0x40)\n              tag_14\n              swap2\n              swap1\n              tag_15\n              jump\t// in\n            tag_14:\n              mload(0x40)\n              dup1\n              swap2\n              sub\n              swap1\n              return\n                /* \"CrowdFunding.sol\":5049:5093  mapping(address => uint256) public balanceOf */\n            tag_5:\n              tag_16\n              0x04\n              dup1\n              calldatasize\n              sub\n              dup2\n              add\n              swap1\n              tag_17\n              swap2\n              swap1\n              tag_18\n              jump\t// in\n            tag_17:\n              tag_19\n              jump\t// in\n            tag_16:\n              mload(0x40)\n              tag_20\n              swap2\n              swap1\n              tag_15\n              jump\t// in\n            tag_20:\n              mload(0x40)\n              dup1\n              swap2\n              sub\n              swap1\n              return\n                /* \"CrowdFunding.sol\":4989:5009  string public symbol */\n            tag_6:\n              tag_21\n              tag_22\n              jump\t// in\n            tag_21:\n              mload(0x40)\n              tag_23\n              swap2\n              swap1\n              tag_11\n              jump\t// in\n            tag_23:\n              mload(0x40)\n              dup1\n              swap2\n              sub\n              swap1\n              return\n                /* \"CrowdFunding.sol\":5294:5559  function transfer(address _to, uint256 _amount) public returns (bool) ... */\n            tag_7:\n              tag_24\n              0x04\n              dup1\n              calldatasize\n              sub\n              dup2\n              add\n              swap1\n              tag_25\n              swap2\n              swap1\n              tag_26\n              jump\t// in\n            tag_25:\n              tag_27\n              jump\t// in\n            tag_24:\n              mload(0x40)\n              tag_28\n              swap2\n              swap1\n              tag_29\n              jump\t// in\n            tag_28:\n              mload(0x40)\n              dup1\n              swap2\n              sub\n              swap1\n              return\n                /* \"CrowdFunding.sol\":4964:4982  string public name */\n            tag_9:\n              0x00\n              dup1\n              sload\n              tag_30\n              swap1\n              tag_31\n              jump\t// in\n            tag_30:\n              dup1\n              0x1f\n              add\n              0x20\n              dup1\n              swap2\n              div\n              mul\n              0x20\n              add\n              mload(0x40)\n              swap1\n              dup2\n              add\n              0x40\n              mstore\n              dup1\n              swap3\n              swap2\n              swap1\n              dup2\n              dup2\n              mstore\n              0x20\n              add\n              dup3\n              dup1\n              sload\n              tag_32\n              swap1\n              tag_31\n              jump\t// in\n            tag_32:\n              dup1\n              iszero\n              tag_33\n              jumpi\n              dup1\n              0x1f\n              lt\n              tag_34\n              jumpi\n              0x0100\n              dup1\n              dup4\n              sload\n              div\n              mul\n              dup4\n              mstore\n              swap2\n              0x20\n              add\n              swap2\n              jump(tag_33)\n            tag_34:\n              dup3\n              add\n              swap2\n              swap1\n              0x00\n              mstore\n              keccak256(0x00, 0x20)\n              swap1\n            tag_35:\n              dup2\n              sload\n              dup2\n              mstore\n              swap1\n              0x01\n              add\n              swap1\n              0x20\n              add\n              dup1\n              dup4\n              gt\n              tag_35\n              jumpi\n              dup3\n              swap1\n              sub\n              0x1f\n              and\n              dup3\n              add\n              swap2\n            tag_33:\n              pop\n              pop\n              pop\n              pop\n              pop\n              dup2\n              jump\t// out\n                /* \"CrowdFunding.sol\":5016:5042  uint256 public totalSupply */\n            tag_13:\n              sload(0x02)\n              dup2\n              jump\t// out\n                /* \"CrowdFunding.sol\":5049:5093  mapping(address => uint256) public balanceOf */\n            tag_19:\n              mstore(0x20, 0x03)\n              dup1\n              0x00\n              mstore\n              keccak256(0x00, 0x40)\n              0x00\n              swap2\n              pop\n              swap1\n              pop\n              sload\n              dup2\n              jump\t// out\n                /* \"CrowdFunding.sol\":4989:5009  string public symbol */\n            tag_22:\n              0x01\n              dup1\n              sload\n              tag_36\n              swap1\n              tag_31\n              jump\t// in\n            tag_36:\n              dup1\n              0x1f\n              add\n              0x20\n              dup1\n              swap2\n              div\n              mul\n              0x20\n              add\n              mload(0x40)\n              swap1\n              dup2\n              add\n              0x40\n              mstore\n              dup1\n              swap3\n              swap2\n              swap1\n              dup2\n              dup2\n              mstore\n              0x20\n              add\n              dup3\n              dup1\n              sload\n              tag_37\n              swap1\n              tag_31\n              jump\t// in\n            tag_37:\n              dup1\n              iszero\n              tag_38\n              jumpi\n              dup1\n              0x1f\n              lt\n              tag_39\n              jumpi\n              0x0100\n              dup1\n              dup4\n              sload\n              div\n              mul\n              dup4\n              mstore\n              swap2\n              0x20\n              add\n              swap2\n              jump(tag_38)\n            tag_39:\n              dup3\n              add\n              swap2\n              swap1\n              0x00\n              mstore\n              keccak256(0x00, 0x20)\n              swap1\n            tag_40:\n              dup2\n              sload\n              dup2\n              mstore\n              swap1\n              0x01\n              add\n              swap1\n              0x20\n              add\n              dup1\n              dup4\n              gt\n              tag_40\n              jumpi\n              dup3\n              swap1\n              sub\n              0x1f\n              and\n              dup3\n              add\n              swap2\n            tag_38:\n              pop\n              pop\n              pop\n              pop\n              pop\n              dup2\n              jump\t// out\n                /* \"CrowdFunding.sol\":5294:5559  function transfer(address _to, uint256 _amount) public returns (bool) ... */\n            tag_27:\n                /* \"CrowdFunding.sol\":5358:5362  bool */\n              0x00\n                /* \"CrowdFunding.sol\":5414:5421  _amount */\n              dup2\n                /* \"CrowdFunding.sol\":5389:5398  balanceOf */\n              0x03\n                /* \"CrowdFunding.sol\":5389:5410  balanceOf[msg.sender] */\n              0x00\n                /* \"CrowdFunding.sol\":5399:5409  msg.sender */\n              caller\n                /* \"CrowdFunding.sol\":5389:5410  balanceOf[msg.sender] */\n              0xffffffffffffffffffffffffffffffffffffffff\n              and\n              0xffffffffffffffffffffffffffffffffffffffff\n              and\n              dup2\n              mstore\n              0x20\n              add\n              swap1\n              dup2\n              mstore\n              0x20\n              add\n              0x00\n              keccak256\n              sload\n                /* \"CrowdFunding.sol\":5389:5421  balanceOf[msg.sender] >= _amount */\n              lt\n              iszero\n                /* \"CrowdFunding.sol\":5381:5446  require(balanceOf[msg.sender] >= _amount, \"Insufficient balance\") */\n              tag_42\n              jumpi\n              mload(0x40)\n              0x08c379a000000000000000000000000000000000000000000000000000000000\n              dup2\n              mstore\n              0x04\n              add\n              tag_43\n              swap1\n              tag_44\n              jump\t// in\n            tag_43:\n              mload(0x40)\n              dup1\n              swap2\n              sub\n              swap1\n              revert\n            tag_42:\n                /* \"CrowdFunding.sol\":5484:5491  _amount */\n              dup2\n                /* \"CrowdFunding.sol\":5459:5468  balanceOf */\n              0x03\n                /* \"CrowdFunding.sol\":5459:5480  balanceOf[msg.sender] */\n              0x00\n                /* \"CrowdFunding.sol\":5469:5479  msg.sender */\n              caller\n                /* \"CrowdFunding.sol\":5459:5480  balanceOf[msg.sender] */\n              0xffffffffffffffffffffffffffffffffffffffff\n              and\n              0xffffffffffffffffffffffffffffffffffffffff\n              and\n              dup2\n              mstore\n              0x20\n              add\n              swap1\n              dup2\n              mstore\n              0x20\n              add\n              0x00\n              keccak256\n              0x00\n                /* \"CrowdFunding.sol\":5459:5491  balanceOf[msg.sender] -= _amount */\n              dup3\n              dup3\n              sload\n              tag_45\n              swap2\n              swap1\n              tag_46\n              jump\t// in\n            tag_45:\n              swap3\n              pop\n              pop\n              dup2\n              swap1\n              sstore\n              pop\n                /* \"CrowdFunding.sol\":5520:5527  _amount */\n              dup2\n                /* \"CrowdFunding.sol\":5502:5511  balanceOf */\n              0x03\n                /* \"CrowdFunding.sol\":5502:5516  balanceOf[_to] */\n              0x00\n                /* \"CrowdFunding.sol\":5512:5515  _to */\n              dup6\n                /* \"CrowdFunding.sol\":5502:5516  balanceOf[_to] */\n              0xffffffffffffffffffffffffffffffffffffffff\n              and\n              0xffffffffffffffffffffffffffffffffffffffff\n              and\n              dup2\n              mstore\n              0x20\n              add\n              swap1\n              dup2\n              mstore\n              0x20\n              add\n              0x00\n              keccak256\n              0x00\n                /* \"CrowdFunding.sol\":5502:5527  balanceOf[_to] += _amount */\n              dup3\n              dup3\n              sload\n              tag_47\n              swap2\n              swap1\n              tag_48\n              jump\t// in\n            tag_47:\n              swap3\n              pop\n              pop\n              dup2\n              swap1\n              sstore\n              pop\n                /* \"CrowdFunding.sol\":5547:5551  true */\n              0x01\n                /* \"CrowdFunding.sol\":5540:5551  return true */\n              swap1\n              pop\n                /* \"CrowdFunding.sol\":5294:5559  function transfer(address _to, uint256 _amount) public returns (bool) ... */\n              swap3\n              swap2\n              pop\n              pop\n              jump\t// out\n                /* \"#utility.yul\":7:106   */\n            tag_49:\n                /* \"#utility.yul\":59:65   */\n              0x00\n                /* \"#utility.yul\":93:98   */\n              dup2\n                /* \"#utility.yul\":87:99   */\n              mload\n                /* \"#utility.yul\":77:99   */\n              swap1\n              pop\n                /* \"#utility.yul\":7:106   */\n              swap2\n              swap1\n              pop\n              jump\t// out\n                /* \"#utility.yul\":112:281   */\n            tag_50:\n                /* \"#utility.yul\":196:207   */\n              0x00\n                /* \"#utility.yul\":230:236   */\n              dup3\n                /* \"#utility.yul\":225:228   */\n              dup3\n                /* \"#utility.yul\":218:237   */\n              mstore\n                /* \"#utility.yul\":270:274   */\n              0x20\n                /* \"#utility.yul\":265:268   */\n              dup3\n                /* \"#utility.yul\":261:275   */\n              add\n                /* \"#utility.yul\":246:275   */\n              swap1\n              pop\n                /* \"#utility.yul\":112:281   */\n              swap3\n              swap2\n              pop\n              pop\n              jump\t// out\n                /* \"#utility.yul\":287:533   */\n            tag_51:\n                /* \"#utility.yul\":368:369   */\n              0x00\n                /* \"#utility.yul\":378:491   */\n            tag_75:\n                /* \"#utility.yul\":392:398   */\n              dup4\n                /* \"#utility.yul\":389:390   */\n              dup2\n                /* \"#utility.yul\":386:399   */\n              lt\n                /* \"#utility.yul\":378:491   */\n              iszero\n              tag_77\n              jumpi\n                /* \"#utility.yul\":477:478   */\n              dup1\n                /* \"#utility.yul\":472:475   */\n              dup3\n                /* \"#utility.yul\":468:479   */\n              add\n                /* \"#utility.yul\":462:480   */\n              mload\n                /* \"#utility.yul\":458:459   */\n              dup2\n                /* \"#utility.yul\":453:456   */\n              dup5\n                /* \"#utility.yul\":449:460   */\n              add\n                /* \"#utility.yul\":442:481   */\n              mstore\n                /* \"#utility.yul\":414:416   */\n              0x20\n                /* \"#utility.yul\":411:412   */\n              dup2\n                /* \"#utility.yul\":407:417   */\n              add\n                /* \"#utility.yul\":402:417   */\n              swap1\n              pop\n                /* \"#utility.yul\":378:491   */\n              jump(tag_75)\n            tag_77:\n                /* \"#utility.yul\":525:526   */\n              0x00\n                /* \"#utility.yul\":516:522   */\n              dup5\n                /* \"#utility.yul\":511:514   */\n              dup5\n                /* \"#utility.yul\":507:523   */\n              add\n                /* \"#utility.yul\":500:527   */\n              mstore\n                /* \"#utility.yul\":349:533   */\n              pop\n                /* \"#utility.yul\":287:533   */\n              pop\n              pop\n              pop\n              jump\t// out\n                /* \"#utility.yul\":539:641   */\n            tag_52:\n                /* \"#utility.yul\":580:586   */\n              0x00\n                /* \"#utility.yul\":631:633   */\n              0x1f\n                /* \"#utility.yul\":627:634   */\n              not\n                /* \"#utility.yul\":622:624   */\n              0x1f\n                /* \"#utility.yul\":615:620   */\n              dup4\n                /* \"#utility.yul\":611:625   */\n              add\n                /* \"#utility.yul\":607:635   */\n              and\n                /* \"#utility.yul\":597:635   */\n              swap1\n              pop\n                /* \"#utility.yul\":539:641   */\n              swap2\n              swap1\n              pop\n              jump\t// out\n                /* \"#utility.yul\":647:1024   */\n            tag_53:\n                /* \"#utility.yul\":735:738   */\n              0x00\n                /* \"#utility.yul\":763:802   */\n              tag_80\n                /* \"#utility.yul\":796:801   */\n              dup3\n                /* \"#utility.yul\":763:802   */\n              tag_49\n              jump\t// in\n            tag_80:\n                /* \"#utility.yul\":818:889   */\n              tag_81\n                /* \"#utility.yul\":882:888   */\n              dup2\n                /* \"#utility.yul\":877:880   */\n              dup6\n                /* \"#utility.yul\":818:889   */\n              tag_50\n              jump\t// in\n            tag_81:\n                /* \"#utility.yul\":811:889   */\n              swap4\n              pop\n                /* \"#utility.yul\":898:963   */\n              tag_82\n                /* \"#utility.yul\":956:962   */\n              dup2\n                /* \"#utility.yul\":951:954   */\n              dup6\n                /* \"#utility.yul\":944:948   */\n              0x20\n                /* \"#utility.yul\":937:942   */\n              dup7\n                /* \"#utility.yul\":933:949   */\n              add\n                /* \"#utility.yul\":898:963   */\n              tag_51\n              jump\t// in\n            tag_82:\n                /* \"#utility.yul\":988:1017   */\n              tag_83\n                /* \"#utility.yul\":1010:1016   */\n              dup2\n                /* \"#utility.yul\":988:1017   */\n              tag_52\n              jump\t// in\n            tag_83:\n                /* \"#utility.yul\":983:986   */\n              dup5\n                /* \"#utility.yul\":979:1018   */\n              add\n                /* \"#utility.yul\":972:1018   */\n              swap2\n              pop\n                /* \"#utility.yul\":739:1024   */\n              pop\n                /* \"#utility.yul\":647:1024   */\n              swap3\n              swap2\n              pop\n              pop\n              jump\t// out\n                /* \"#utility.yul\":1030:1343   */\n            tag_11:\n                /* \"#utility.yul\":1143:1147   */\n              0x00\n                /* \"#utility.yul\":1181:1183   */\n              0x20\n                /* \"#utility.yul\":1170:1179   */\n              dup3\n                /* \"#utility.yul\":1166:1184   */\n              add\n                /* \"#utility.yul\":1158:1184   */\n              swap1\n              pop\n                /* \"#utility.yul\":1230:1239   */\n              dup2\n                /* \"#utility.yul\":1224:1228   */\n              dup2\n                /* \"#utility.yul\":1220:1240   */\n              sub\n                /* \"#utility.yul\":1216:1217   */\n              0x00\n                /* \"#utility.yul\":1205:1214   */\n              dup4\n                /* \"#utility.yul\":1201:1218   */\n              add\n                /* \"#utility.yul\":1194:1241   */\n              mstore\n                /* \"#utility.yul\":1258:1336   */\n              tag_85\n                /* \"#utility.yul\":1331:1335   */\n              dup2\n                /* \"#utility.yul\":1322:1328   */\n              dup5\n                /* \"#utility.yul\":1258:1336   */\n              tag_53\n              jump\t// in\n            tag_85:\n                /* \"#utility.yul\":1250:1336   */\n              swap1\n              pop\n                /* \"#utility.yul\":1030:1343   */\n              swap3\n              swap2\n              pop\n              pop\n              jump\t// out\n                /* \"#utility.yul\":1349:1426   */\n            tag_54:\n                /* \"#utility.yul\":1386:1393   */\n              0x00\n                /* \"#utility.yul\":1415:1420   */\n              dup2\n                /* \"#utility.yul\":1404:1420   */\n              swap1\n              pop\n                /* \"#utility.yul\":1349:1426   */\n              swap2\n              swap1\n              pop\n              jump\t// out\n                /* \"#utility.yul\":1432:1550   */\n            tag_55:\n                /* \"#utility.yul\":1519:1543   */\n              tag_88\n                /* \"#utility.yul\":1537:1542   */\n              dup2\n                /* \"#utility.yul\":1519:1543   */\n              tag_54\n              jump\t// in\n            tag_88:\n                /* \"#utility.yul\":1514:1517   */\n              dup3\n                /* \"#utility.yul\":1507:1544   */\n              mstore\n                /* \"#utility.yul\":1432:1550   */\n              pop\n              pop\n              jump\t// out\n                /* \"#utility.yul\":1556:1778   */\n            tag_15:\n                /* \"#utility.yul\":1649:1653   */\n              0x00\n                /* \"#utility.yul\":1687:1689   */\n              0x20\n                /* \"#utility.yul\":1676:1685   */\n              dup3\n                /* \"#utility.yul\":1672:1690   */\n              add\n                /* \"#utility.yul\":1664:1690   */\n              swap1\n              pop\n                /* \"#utility.yul\":1700:1771   */\n              tag_90\n                /* \"#utility.yul\":1768:1769   */\n              0x00\n                /* \"#utility.yul\":1757:1766   */\n              dup4\n                /* \"#utility.yul\":1753:1770   */\n              add\n                /* \"#utility.yul\":1744:1750   */\n              dup5\n                /* \"#utility.yul\":1700:1771   */\n              tag_55\n              jump\t// in\n            tag_90:\n                /* \"#utility.yul\":1556:1778   */\n              swap3\n              swap2\n              pop\n              pop\n              jump\t// out\n                /* \"#utility.yul\":1865:1982   */\n            tag_57:\n                /* \"#utility.yul\":1974:1975   */\n              0x00\n                /* \"#utility.yul\":1971:1972   */\n              dup1\n                /* \"#utility.yul\":1964:1976   */\n              revert\n                /* \"#utility.yul\":2111:2237   */\n            tag_59:\n                /* \"#utility.yul\":2148:2155   */\n              0x00\n                /* \"#utility.yul\":2188:2230   */\n              0xffffffffffffffffffffffffffffffffffffffff\n                /* \"#utility.yul\":2181:2186   */\n              dup3\n                /* \"#utility.yul\":2177:2231   */\n              and\n                /* \"#utility.yul\":2166:2231   */\n              swap1\n              pop\n                /* \"#utility.yul\":2111:2237   */\n              swap2\n              swap1\n              pop\n              jump\t// out\n                /* \"#utility.yul\":2243:2339   */\n            tag_60:\n                /* \"#utility.yul\":2280:2287   */\n              0x00\n                /* \"#utility.yul\":2309:2333   */\n              tag_96\n                /* \"#utility.yul\":2327:2332   */\n              dup3\n                /* \"#utility.yul\":2309:2333   */\n              tag_59\n              jump\t// in\n            tag_96:\n                /* \"#utility.yul\":2298:2333   */\n              swap1\n              pop\n                /* \"#utility.yul\":2243:2339   */\n              swap2\n              swap1\n              pop\n              jump\t// out\n                /* \"#utility.yul\":2345:2467   */\n            tag_61:\n                /* \"#utility.yul\":2418:2442   */\n              tag_98\n                /* \"#utility.yul\":2436:2441   */\n              dup2\n                /* \"#utility.yul\":2418:2442   */\n              tag_60\n              jump\t// in\n            tag_98:\n                /* \"#utility.yul\":2411:2416   */\n              dup2\n                /* \"#utility.yul\":2408:2443   */\n              eq\n                /* \"#utility.yul\":2398:2461   */\n              tag_99\n              jumpi\n                /* \"#utility.yul\":2457:2458   */\n              0x00\n                /* \"#utility.yul\":2454:2455   */\n              dup1\n                /* \"#utility.yul\":2447:2459   */\n              revert\n                /* \"#utility.yul\":2398:2461   */\n            tag_99:\n                /* \"#utility.yul\":2345:2467   */\n              pop\n              jump\t// out\n                /* \"#utility.yul\":2473:2612   */\n            tag_62:\n                /* \"#utility.yul\":2519:2524   */\n              0x00\n                /* \"#utility.yul\":2557:2563   */\n              dup2\n                /* \"#utility.yul\":2544:2564   */\n              calldataload\n                /* \"#utility.yul\":2535:2564   */\n              swap1\n              pop\n                /* \"#utility.yul\":2573:2606   */\n              tag_101\n                /* \"#utility.yul\":2600:2605   */\n              dup2\n                /* \"#utility.yul\":2573:2606   */\n              tag_61\n              jump\t// in\n            tag_101:\n                /* \"#utility.yul\":2473:2612   */\n              swap3\n              swap2\n              pop\n              pop\n              jump\t// out\n                /* \"#utility.yul\":2618:2947   */\n            tag_18:\n                /* \"#utility.yul\":2677:2683   */\n              0x00\n                /* \"#utility.yul\":2726:2728   */\n              0x20\n                /* \"#utility.yul\":2714:2723   */\n              dup3\n                /* \"#utility.yul\":2705:2712   */\n              dup5\n                /* \"#utility.yul\":2701:2724   */\n              sub\n                /* \"#utility.yul\":2697:2729   */\n              slt\n                /* \"#utility.yul\":2694:2813   */\n              iszero\n              tag_103\n              jumpi\n                /* \"#utility.yul\":2732:2811   */\n              tag_104\n              tag_57\n              jump\t// in\n            tag_104:\n                /* \"#utility.yul\":2694:2813   */\n            tag_103:\n                /* \"#utility.yul\":2852:2853   */\n              0x00\n                /* \"#utility.yul\":2877:2930   */\n              tag_105\n                /* \"#utility.yul\":2922:2929   */\n              dup5\n                /* \"#utility.yul\":2913:2919   */\n              dup3\n                /* \"#utility.yul\":2902:2911   */\n              dup6\n                /* \"#utility.yul\":2898:2920   */\n              add\n                /* \"#utility.yul\":2877:2930   */\n              tag_62\n              jump\t// in\n            tag_105:\n                /* \"#utility.yul\":2867:2930   */\n              swap2\n              pop\n                /* \"#utility.yul\":2823:2940   */\n              pop\n                /* \"#utility.yul\":2618:2947   */\n              swap3\n              swap2\n              pop\n              pop\n              jump\t// out\n                /* \"#utility.yul\":2953:3075   */\n            tag_63:\n                /* \"#utility.yul\":3026:3050   */\n              tag_107\n                /* \"#utility.yul\":3044:3049   */\n              dup2\n                /* \"#utility.yul\":3026:3050   */\n              tag_54\n              jump\t// in\n            tag_107:\n                /* \"#utility.yul\":3019:3024   */\n              dup2\n                /* \"#utility.yul\":3016:3051   */\n              eq\n                /* \"#utility.yul\":3006:3069   */\n              tag_108\n              jumpi\n                /* \"#utility.yul\":3065:3066   */\n              0x00\n                /* \"#utility.yul\":3062:3063   */\n              dup1\n                /* \"#utility.yul\":3055:3067   */\n              revert\n                /* \"#utility.yul\":3006:3069   */\n            tag_108:\n                /* \"#utility.yul\":2953:3075   */\n              pop\n              jump\t// out\n                /* \"#utility.yul\":3081:3220   */\n            tag_64:\n                /* \"#utility.yul\":3127:3132   */\n              0x00\n                /* \"#utility.yul\":3165:3171   */\n              dup2\n                /* \"#utility.yul\":3152:3172   */\n              calldataload\n                /* \"#utility.yul\":3143:3172   */\n              swap1\n              pop\n                /* \"#utility.yul\":3181:3214   */\n              tag_110\n                /* \"#utility.yul\":3208:3213   */\n              dup2\n                /* \"#utility.yul\":3181:3214   */\n              tag_63\n              jump\t// in\n            tag_110:\n                /* \"#utility.yul\":3081:3220   */\n              swap3\n              swap2\n              pop\n              pop\n              jump\t// out\n                /* \"#utility.yul\":3226:3700   */\n            tag_26:\n                /* \"#utility.yul\":3294:3300   */\n              0x00\n                /* \"#utility.yul\":3302:3308   */\n              dup1\n                /* \"#utility.yul\":3351:3353   */\n              0x40\n                /* \"#utility.yul\":3339:3348   */\n              dup4\n                /* \"#utility.yul\":3330:3337   */\n              dup6\n                /* \"#utility.yul\":3326:3349   */\n              sub\n                /* \"#utility.yul\":3322:3354   */\n              slt\n                /* \"#utility.yul\":3319:3438   */\n              iszero\n              tag_112\n              jumpi\n                /* \"#utility.yul\":3357:3436   */\n              tag_113\n              tag_57\n              jump\t// in\n            tag_113:\n                /* \"#utility.yul\":3319:3438   */\n            tag_112:\n                /* \"#utility.yul\":3477:3478   */\n              0x00\n                /* \"#utility.yul\":3502:3555   */\n              tag_114\n                /* \"#utility.yul\":3547:3554   */\n              dup6\n                /* \"#utility.yul\":3538:3544   */\n              dup3\n                /* \"#utility.yul\":3527:3536   */\n              dup7\n                /* \"#utility.yul\":3523:3545   */\n              add\n                /* \"#utility.yul\":3502:3555   */\n              tag_62\n              jump\t// in\n            tag_114:\n                /* \"#utility.yul\":3492:3555   */\n              swap3\n              pop\n                /* \"#utility.yul\":3448:3565   */\n              pop\n                /* \"#utility.yul\":3604:3606   */\n              0x20\n                /* \"#utility.yul\":3630:3683   */\n              tag_115\n                /* \"#utility.yul\":3675:3682   */\n              dup6\n                /* \"#utility.yul\":3666:3672   */\n              dup3\n                /* \"#utility.yul\":3655:3664   */\n              dup7\n                /* \"#utility.yul\":3651:3673   */\n              add\n                /* \"#utility.yul\":3630:3683   */\n              tag_64\n              jump\t// in\n            tag_115:\n                /* \"#utility.yul\":3620:3683   */\n              swap2\n              pop\n                /* \"#utility.yul\":3575:3693   */\n              pop\n                /* \"#utility.yul\":3226:3700   */\n              swap3\n              pop\n              swap3\n              swap1\n              pop\n              jump\t// out\n                /* \"#utility.yul\":3706:3796   */\n            tag_65:\n                /* \"#utility.yul\":3740:3747   */\n              0x00\n                /* \"#utility.yul\":3783:3788   */\n              dup2\n                /* \"#utility.yul\":3776:3789   */\n              iszero\n                /* \"#utility.yul\":3769:3790   */\n              iszero\n                /* \"#utility.yul\":3758:3790   */\n              swap1\n              pop\n                /* \"#utility.yul\":3706:3796   */\n              swap2\n              swap1\n              pop\n              jump\t// out\n                /* \"#utility.yul\":3802:3911   */\n            tag_66:\n                /* \"#utility.yul\":3883:3904   */\n              tag_118\n                /* \"#utility.yul\":3898:3903   */\n              dup2\n                /* \"#utility.yul\":3883:3904   */\n              tag_65\n              jump\t// in\n            tag_118:\n                /* \"#utility.yul\":3878:3881   */\n              dup3\n                /* \"#utility.yul\":3871:3905   */\n              mstore\n                /* \"#utility.yul\":3802:3911   */\n              pop\n              pop\n              jump\t// out\n                /* \"#utility.yul\":3917:4127   */\n            tag_29:\n                /* \"#utility.yul\":4004:4008   */\n              0x00\n                /* \"#utility.yul\":4042:4044   */\n              0x20\n                /* \"#utility.yul\":4031:4040   */\n              dup3\n                /* \"#utility.yul\":4027:4045   */\n              add\n                /* \"#utility.yul\":4019:4045   */\n              swap1\n              pop\n                /* \"#utility.yul\":4055:4120   */\n              tag_120\n                /* \"#utility.yul\":4117:4118   */\n              0x00\n                /* \"#utility.yul\":4106:4115   */\n              dup4\n                /* \"#utility.yul\":4102:4119   */\n              add\n                /* \"#utility.yul\":4093:4099   */\n              dup5\n                /* \"#utility.yul\":4055:4120   */\n              tag_66\n              jump\t// in\n            tag_120:\n                /* \"#utility.yul\":3917:4127   */\n              swap3\n              swap2\n              pop\n              pop\n              jump\t// out\n                /* \"#utility.yul\":4133:4313   */\n            tag_67:\n                /* \"#utility.yul\":4181:4258   */\n              0x4e487b7100000000000000000000000000000000000000000000000000000000\n                /* \"#utility.yul\":4178:4179   */\n              0x00\n                /* \"#utility.yul\":4171:4259   */\n              mstore\n                /* \"#utility.yul\":4278:4282   */\n              0x22\n                /* \"#utility.yul\":4275:4276   */\n              0x04\n                /* \"#utility.yul\":4268:4283   */\n              mstore\n                /* \"#utility.yul\":4302:4306   */\n              0x24\n                /* \"#utility.yul\":4299:4300   */\n              0x00\n                /* \"#utility.yul\":4292:4307   */\n              revert\n                /* \"#utility.yul\":4319:4639   */\n            tag_31:\n                /* \"#utility.yul\":4363:4369   */\n              0x00\n                /* \"#utility.yul\":4400:4401   */\n              0x02\n                /* \"#utility.yul\":4394:4398   */\n              dup3\n                /* \"#utility.yul\":4390:4402   */\n              div\n                /* \"#utility.yul\":4380:4402   */\n              swap1\n              pop\n                /* \"#utility.yul\":4447:4448   */\n              0x01\n                /* \"#utility.yul\":4441:4445   */\n              dup3\n                /* \"#utility.yul\":4437:4449   */\n              and\n                /* \"#utility.yul\":4468:4486   */\n              dup1\n                /* \"#utility.yul\":4458:4539   */\n              tag_123\n              jumpi\n                /* \"#utility.yul\":4524:4528   */\n              0x7f\n                /* \"#utility.yul\":4516:4522   */\n              dup3\n                /* \"#utility.yul\":4512:4529   */\n              and\n                /* \"#utility.yul\":4502:4529   */\n              swap2\n              pop\n                /* \"#utility.yul\":4458:4539   */\n            tag_123:\n                /* \"#utility.yul\":4586:4588   */\n              0x20\n                /* \"#utility.yul\":4578:4584   */\n              dup3\n                /* \"#utility.yul\":4575:4589   */\n              lt\n                /* \"#utility.yul\":4555:4573   */\n              dup2\n                /* \"#utility.yul\":4552:4590   */\n              sub\n                /* \"#utility.yul\":4549:4633   */\n              tag_124\n              jumpi\n                /* \"#utility.yul\":4605:4623   */\n              tag_125\n              tag_67\n              jump\t// in\n            tag_125:\n                /* \"#utility.yul\":4549:4633   */\n            tag_124:\n                /* \"#utility.yul\":4370:4639   */\n              pop\n                /* \"#utility.yul\":4319:4639   */\n              swap2\n              swap1\n              pop\n              jump\t// out\n                /* \"#utility.yul\":4645:4815   */\n            tag_68:\n                /* \"#utility.yul\":4785:4807   */\n              0x496e73756666696369656e742062616c616e6365000000000000000000000000\n                /* \"#utility.yul\":4781:4782   */\n              0x00\n                /* \"#utility.yul\":4773:4779   */\n              dup3\n                /* \"#utility.yul\":4769:4783   */\n              add\n                /* \"#utility.yul\":4762:4808   */\n              mstore\n                /* \"#utility.yul\":4645:4815   */\n              pop\n              jump\t// out\n                /* \"#utility.yul\":4821:5187   */\n            tag_69:\n                /* \"#utility.yul\":4963:4966   */\n              0x00\n                /* \"#utility.yul\":4984:5051   */\n              tag_128\n                /* \"#utility.yul\":5048:5050   */\n              0x14\n                /* \"#utility.yul\":5043:5046   */\n              dup4\n                /* \"#utility.yul\":4984:5051   */\n              tag_50\n              jump\t// in\n            tag_128:\n                /* \"#utility.yul\":4977:5051   */\n              swap2\n              pop\n                /* \"#utility.yul\":5060:5153   */\n              tag_129\n                /* \"#utility.yul\":5149:5152   */\n              dup3\n                /* \"#utility.yul\":5060:5153   */\n              tag_68\n              jump\t// in\n            tag_129:\n                /* \"#utility.yul\":5178:5180   */\n              0x20\n                /* \"#utility.yul\":5173:5176   */\n              dup3\n                /* \"#utility.yul\":5169:5181   */\n              add\n                /* \"#utility.yul\":5162:5181   */\n              swap1\n              pop\n                /* \"#utility.yul\":4821:5187   */\n              swap2\n              swap1\n              pop\n              jump\t// out\n                /* \"#utility.yul\":5193:5612   */\n            tag_44:\n                /* \"#utility.yul\":5359:5363   */\n              0x00\n                /* \"#utility.yul\":5397:5399   */\n              0x20\n                /* \"#utility.yul\":5386:5395   */\n              dup3\n                /* \"#utility.yul\":5382:5400   */\n              add\n                /* \"#utility.yul\":5374:5400   */\n              swap1\n              pop\n                /* \"#utility.yul\":5446:5455   */\n              dup2\n                /* \"#utility.yul\":5440:5444   */\n              dup2\n                /* \"#utility.yul\":5436:5456   */\n              sub\n                /* \"#utility.yul\":5432:5433   */\n              0x00\n                /* \"#utility.yul\":5421:5430   */\n              dup4\n                /* \"#utility.yul\":5417:5434   */\n              add\n                /* \"#utility.yul\":5410:5457   */\n              mstore\n                /* \"#utility.yul\":5474:5605   */\n              tag_131\n                /* \"#utility.yul\":5600:5604   */\n              dup2\n                /* \"#utility.yul\":5474:5605   */\n              tag_69\n              jump\t// in\n            tag_131:\n                /* \"#utility.yul\":5466:5605   */\n              swap1\n              pop\n                /* \"#utility.yul\":5193:5612   */\n              swap2\n              swap1\n              pop\n              jump\t// out\n                /* \"#utility.yul\":5618:5798   */\n            tag_70:\n                /* \"#utility.yul\":5666:5743   */\n              0x4e487b7100000000000000000000000000000000000000000000000000000000\n                /* \"#utility.yul\":5663:5664   */\n              0x00\n                /* \"#utility.yul\":5656:5744   */\n              mstore\n                /* \"#utility.yul\":5763:5767   */\n              0x11\n                /* \"#utility.yul\":5760:5761   */\n              0x04\n                /* \"#utility.yul\":5753:5768   */\n              mstore\n                /* \"#utility.yul\":5787:5791   */\n              0x24\n                /* \"#utility.yul\":5784:5785   */\n              0x00\n                /* \"#utility.yul\":5777:5792   */\n              revert\n                /* \"#utility.yul\":5804:5998   */\n            tag_46:\n                /* \"#utility.yul\":5844:5848   */\n              0x00\n                /* \"#utility.yul\":5864:5884   */\n              tag_134\n                /* \"#utility.yul\":5882:5883   */\n              dup3\n                /* \"#utility.yul\":5864:5884   */\n              tag_54\n              jump\t// in\n            tag_134:\n                /* \"#utility.yul\":5859:5884   */\n              swap2\n              pop\n                /* \"#utility.yul\":5898:5918   */\n              tag_135\n                /* \"#utility.yul\":5916:5917   */\n              dup4\n                /* \"#utility.yul\":5898:5918   */\n              tag_54\n              jump\t// in\n            tag_135:\n                /* \"#utility.yul\":5893:5918   */\n              swap3\n              pop\n                /* \"#utility.yul\":5942:5943   */\n              dup3\n                /* \"#utility.yul\":5939:5940   */\n              dup3\n                /* \"#utility.yul\":5935:5944   */\n              sub\n                /* \"#utility.yul\":5927:5944   */\n              swap1\n              pop\n                /* \"#utility.yul\":5966:5967   */\n              dup2\n                /* \"#utility.yul\":5960:5964   */\n              dup2\n                /* \"#utility.yul\":5957:5968   */\n              gt\n                /* \"#utility.yul\":5954:5991   */\n              iszero\n              tag_136\n              jumpi\n                /* \"#utility.yul\":5971:5989   */\n              tag_137\n              tag_70\n              jump\t// in\n            tag_137:\n                /* \"#utility.yul\":5954:5991   */\n            tag_136:\n                /* \"#utility.yul\":5804:5998   */\n              swap3\n              swap2\n              pop\n              pop\n              jump\t// out\n                /* \"#utility.yul\":6004:6195   */\n            tag_48:\n                /* \"#utility.yul\":6044:6047   */\n              0x00\n                /* \"#utility.yul\":6063:6083   */\n              tag_139\n                /* \"#utility.yul\":6081:6082   */\n              dup3\n                /* \"#utility.yul\":6063:6083   */\n              tag_54\n              jump\t// in\n            tag_139:\n                /* \"#utility.yul\":6058:6083   */\n              swap2\n              pop\n                /* \"#utility.yul\":6097:6117   */\n              tag_140\n                /* \"#utility.yul\":6115:6116   */\n              dup4\n                /* \"#utility.yul\":6097:6117   */\n              tag_54\n              jump\t// in\n            tag_140:\n                /* \"#utility.yul\":6092:6117   */\n              swap3\n              pop\n                /* \"#utility.yul\":6140:6141   */\n              dup3\n                /* \"#utility.yul\":6137:6138   */\n              dup3\n                /* \"#utility.yul\":6133:6142   */\n              add\n                /* \"#utility.yul\":6126:6142   */\n              swap1\n              pop\n                /* \"#utility.yul\":6161:6164   */\n              dup1\n                /* \"#utility.yul\":6158:6159   */\n              dup3\n                /* \"#utility.yul\":6155:6165   */\n              gt\n                /* \"#utility.yul\":6152:6188   */\n              iszero\n              tag_141\n              jumpi\n                /* \"#utility.yul\":6168:6186   */\n              tag_142\n              tag_70\n              jump\t// in\n            tag_142:\n                /* \"#utility.yul\":6152:6188   */\n            tag_141:\n                /* \"#utility.yul\":6004:6195   */\n              swap3\n              swap2\n              pop\n              pop\n              jump\t// out\n\n            auxdata: 0xa264697066735822122093c981371b38a01e9bb128b6aa36fa44787eaede9032addb91b50fb84e74328c64736f6c63430008140033\n        }\n    }\n\n    auxdata: 0xa2646970667358221220798ca0df83fcc4abafd28e5f3e93b7dc9bfd5544444f8029d61b8e963aa66b8564736f6c63430008140033\n}\n",
				"bytecode": {
					"linkReferences": {},
					"object": "608060405234801561000f575f80fd5b50612a1e8061001d5f395ff3fe60806040526004361062000091575f3560e01c80633020580b11620000605780633020580b146200016f578063523fba7f14620001b2578063a4b2409e14620001f5578063ccf053ba1462000222578063ff96de2114620002515762000091565b80630b7ef89b1462000095578063141961bc14620000b557806322c5995814620000fd5780632e6186761462000140575b5f80fd5b620000b36004803603810190620000ad919062000f59565b62000294565b005b348015620000c1575f80fd5b50620000e06004803603810190620000da919062000f59565b620005b7565b604051620000f4969594939291906200104a565b60405180910390f35b34801562000109575f80fd5b506200012860048036038101906200012291906200111d565b62000688565b60405162000137919062001162565b60405180910390f35b3480156200014c575f80fd5b5062000157620006a8565b60405162000166919062001162565b60405180910390f35b3480156200017b575f80fd5b506200019a6004803603810190620001949190620012c5565b620006ae565b604051620001a9919062001162565b60405180910390f35b348015620001be575f80fd5b50620001dd6004803603810190620001d791906200133d565b62000802565b604051620001ec919062001162565b60405180910390f35b34801562000201575f80fd5b506200022060048036038101906200021a919062000f59565b62000817565b005b3480156200022e575f80fd5b506200023962000a92565b60405162000248919062001162565b60405180910390f35b3480156200025d575f80fd5b506200027c60048036038101906200027691906200136d565b62000a9a565b6040516200028b9190620013c3565b60405180910390f35b5f805f8381526020019081526020015f206001015411620002ec576040517f08c379a0000000000000000000000000000000000000000000000000000000008152600401620002e3906200142c565b60405180910390fd5b5f808281526020019081526020015f206005015f9054906101000a900460ff16156200034f576040517f08c379a00000000000000000000000000000000000000000000000000000000081526004016200034690620014c0565b60405180910390fd5b5f341162000394576040517f08c379a00000000000000000000000000000000000000000000000000000000081526004016200038b9062001554565b60405180910390fd5b345f808381526020019081526020015f206003015f828254620003b89190620015a1565b92505081905550345f808381526020019081526020015f206004015f828254620003e39190620015db565b925050819055503460015f8381526020019081526020015f205f3373ffffffffffffffffffffffffffffffffffffffff1673ffffffffffffffffffffffffffffffffffffffff1681526020019081526020015f205f828254620004479190620015a1565b925050819055503460015f8381526020019081526020015f205f3373ffffffffffffffffffffffffffffffffffffffff1673ffffffffffffffffffffffffffffffffffffffff1681526020019081526020015f205403620005125760025f8281526020019081526020015f2033908060018154018082558091505060019003905f5260205f20015f9091909190916101000a81548173ffffffffffffffffffffffffffffffffffffffff021916908373ffffffffffffffffffffffffffffffffffffffff1602179055505b7f0a4a91237423e0a1766a761c7cb029311d8b95d6b1b81db1b949a70c98b4e08e813334604051620005479392919062001615565b60405180910390a15f808281526020019081526020015f20600101545f808381526020019081526020015f206003015410620005b45760015f808381526020019081526020015f206005015f6101000a81548160ff021916908315150217905550620005b38162000ae3565b5b50565b5f602052805f5260405f205f91509050805f018054620005d7906200167d565b80601f016020809104026020016040519081016040528092919081815260200182805462000605906200167d565b8015620006545780601f106200062a5761010080835404028352916020019162000654565b820191905f5260205f20905b8154815290600101906020018083116200063657829003601f168201915b505050505090806001015490806002015490806003015490806004015490806005015f9054906101000a900460ff16905086565b6001602052815f5260405f20602052805f5260405f205f91509150505481565b60035481565b5f808311620006f4576040517f08c379a0000000000000000000000000000000000000000000000000000000008152600401620006eb9062001725565b60405180910390fd5b42821162000739576040517f08c379a00000000000000000000000000000000000000000000000000000000081526004016200073090620017b9565b60405180910390fd5b5f60035f81546200074a90620017d9565b91905081905590505f805f8381526020019081526020015f20905085815f019081620007779190620019e8565b508481600101819055508381600201819055505f81600301819055508481600401819055505f816005015f6101000a81548160ff0219169083151502179055507f02fe3fddd43aad14ae5c30d5d694f19ecb065dfde85bb591b91e8af1448724d282878787604051620007ee949392919062001acc565b60405180910390a181925050509392505050565b6004602052805f5260405f205f915090505481565b5f805f8381526020019081526020015f2060010154116200086f576040517f08c379a000000000000000000000000000000000000000000000000000000000815260040162000866906200142c565b60405180910390fd5b5f808281526020019081526020015f20600101545f808381526020019081526020015f206003015410620008da576040517f08c379a0000000000000000000000000000000000000000000000000000000008152600401620008d19062001b92565b60405180910390fd5b5f60015f8381526020019081526020015f205f3373ffffffffffffffffffffffffffffffffffffffff1673ffffffffffffffffffffffffffffffffffffffff1681526020019081526020015f2054116200096b576040517f08c379a0000000000000000000000000000000000000000000000000000000008152600401620009629062001c26565b60405180910390fd5b5f60015f8381526020019081526020015f205f3373ffffffffffffffffffffffffffffffffffffffff1673ffffffffffffffffffffffffffffffffffffffff1681526020019081526020015f205490505f60015f8481526020019081526020015f205f3373ffffffffffffffffffffffffffffffffffffffff1673ffffffffffffffffffffffffffffffffffffffff1681526020019081526020015f20819055503373ffffffffffffffffffffffffffffffffffffffff166108fc8290811502906040515f60405180830381858888f1935050505015801562000a50573d5f803e3d5ffd5b507f7a482fdeb6bc9a1376f597068a214a7a39472bb2eff1b8cad21ba04f49ddca1b82338360405162000a869392919062001615565b60405180910390a15050565b633b9aca0081565b6002602052815f5260405f20818154811062000ab4575f80fd5b905f5260205f20015f915091509054906101000a900473ffffffffffffffffffffffffffffffffffffffff1681565b5f808281526020019081526020015f20600101545f808381526020019081526020015f2060030154101562000b4f576040517f08c379a000000000000000000000000000000000000000000000000000000000815260040162000b469062001c94565b60405180910390fd5b5f805f8381526020019081526020015f206003015490505f6064600a8362000b78919062001cb4565b62000b84919062001d2b565b90505f805b60025f8681526020019081526020015f208054905081101562000dd9575f60025f8781526020019081526020015f20828154811062000bcd5762000bcc62001d62565b5b905f5260205f20015f9054906101000a900473ffffffffffffffffffffffffffffffffffffffff1690505f60015f8881526020019081526020015f205f8373ffffffffffffffffffffffffffffffffffffffff1673ffffffffffffffffffffffffffffffffffffffff1681526020019081526020015f205490505f86868362000c57919062001cb4565b62000c63919062001d2b565b90505f8160405162000c759062000f02565b62000c81919062001162565b604051809103905ff08015801562000c9b573d5f803e3d5ffd5b5090508160045f8673ffffffffffffffffffffffffffffffffffffffff1673ffffffffffffffffffffffffffffffffffffffff1681526020019081526020015f205f82825462000cec9190620015a1565b925050819055508073ffffffffffffffffffffffffffffffffffffffff1663a9059cbb85846040518363ffffffff1660e01b815260040162000d3092919062001d8f565b6020604051808303815f875af115801562000d4d573d5f803e3d5ffd5b505050506040513d601f19601f8201168201806040525081019062000d73919062001de9565b50818662000d829190620015a1565b95507f21d739f160a7464fddaac4a1d1517d84e76b75618a053943b345c408c4160fe0848360405162000db792919062001d8f565b60405180910390a150505050808062000dd090620017d9565b91505062000b89565b505f818362000de99190620015db565b90505f8160405162000dfb9062000f02565b62000e07919062001162565b604051809103905ff08015801562000e21573d5f803e3d5ffd5b5090508160045f3073ffffffffffffffffffffffffffffffffffffffff1673ffffffffffffffffffffffffffffffffffffffff1681526020019081526020015f205f82825462000e729190620015a1565b925050819055508073ffffffffffffffffffffffffffffffffffffffff1663a9059cbb30846040518363ffffffff1660e01b815260040162000eb692919062001d8f565b6020604051808303815f875af115801562000ed3573d5f803e3d5ffd5b505050506040513d601f19601f8201168201806040525081019062000ef9919062001de9565b50505050505050565b610bcf8062001e1a83390190565b5f604051905090565b5f80fd5b5f80fd5b5f819050919050565b62000f358162000f21565b811462000f40575f80fd5b50565b5f8135905062000f538162000f2a565b92915050565b5f6020828403121562000f715762000f7062000f19565b5b5f62000f808482850162000f43565b91505092915050565b5f81519050919050565b5f82825260208201905092915050565b5f5b8381101562000fc257808201518184015260208101905062000fa5565b5f8484015250505050565b5f601f19601f8301169050919050565b5f62000fe98262000f89565b62000ff5818562000f93565b93506200100781856020860162000fa3565b620010128162000fcd565b840191505092915050565b620010288162000f21565b82525050565b5f8115159050919050565b62001044816200102e565b82525050565b5f60c0820190508181035f83015262001064818962000fdd565b90506200107560208301886200101d565b6200108460408301876200101d565b6200109360608301866200101d565b620010a260808301856200101d565b620010b160a083018462001039565b979650505050505050565b5f73ffffffffffffffffffffffffffffffffffffffff82169050919050565b5f620010e782620010bc565b9050919050565b620010f981620010db565b811462001104575f80fd5b50565b5f813590506200111781620010ee565b92915050565b5f806040838503121562001136576200113562000f19565b5b5f620011458582860162000f43565b9250506020620011588582860162001107565b9150509250929050565b5f602082019050620011775f8301846200101d565b92915050565b5f80fd5b5f80fd5b7f4e487b71000000000000000000000000000000000000000000000000000000005f52604160045260245ffd5b620011bd8262000fcd565b810181811067ffffffffffffffff82111715620011df57620011de62001185565b5b80604052505050565b5f620011f362000f10565b9050620012018282620011b2565b919050565b5f67ffffffffffffffff82111562001223576200122262001185565b5b6200122e8262000fcd565b9050602081019050919050565b828183375f83830152505050565b5f6200125f620012598462001206565b620011e8565b9050828152602081018484840111156200127e576200127d62001181565b5b6200128b8482856200123b565b509392505050565b5f82601f830112620012aa57620012a96200117d565b5b8135620012bc84826020860162001249565b91505092915050565b5f805f60608486031215620012df57620012de62000f19565b5b5f84013567ffffffffffffffff811115620012ff57620012fe62000f1d565b5b6200130d8682870162001293565b9350506020620013208682870162000f43565b9250506040620013338682870162000f43565b9150509250925092565b5f6020828403121562001355576200135462000f19565b5b5f620013648482850162001107565b91505092915050565b5f806040838503121562001386576200138562000f19565b5b5f620013958582860162000f43565b9250506020620013a88582860162000f43565b9150509250929050565b620013bd81620010db565b82525050565b5f602082019050620013d85f830184620013b2565b92915050565b7f43616d706169676e20646f6573206e6f742065786973740000000000000000005f82015250565b5f6200141460178362000f93565b91506200142182620013de565b602082019050919050565b5f6020820190508181035f830152620014458162001406565b9050919050565b7f43616d706169676e2068617320616c72656164792072656163686564206974735f8201527f2066756e64696e6720676f616c00000000000000000000000000000000000000602082015250565b5f620014a8602d8362000f93565b9150620014b5826200144c565b604082019050919050565b5f6020820190508181035f830152620014d9816200149a565b9050919050565b7f436f6e747269627574696f6e20616d6f756e74206d75737420626520677265615f8201527f746572207468616e207a65726f00000000000000000000000000000000000000602082015250565b5f6200153c602d8362000f93565b91506200154982620014e0565b604082019050919050565b5f6020820190508181035f8301526200156d816200152e565b9050919050565b7f4e487b71000000000000000000000000000000000000000000000000000000005f52601160045260245ffd5b5f620015ad8262000f21565b9150620015ba8362000f21565b9250828201905080821115620015d557620015d462001574565b5b92915050565b5f620015e78262000f21565b9150620015f48362000f21565b92508282039050818111156200160f576200160e62001574565b5b92915050565b5f6060820190506200162a5f8301866200101d565b620016396020830185620013b2565b6200164860408301846200101d565b949350505050565b7f4e487b71000000000000000000000000000000000000000000000000000000005f52602260045260245ffd5b5f60028204905060018216806200169557607f821691505b602082108103620016ab57620016aa62001650565b5b50919050565b7f54617267657420616d6f756e74206d75737420626520677265617465722074685f8201527f616e207a65726f00000000000000000000000000000000000000000000000000602082015250565b5f6200170d60278362000f93565b91506200171a82620016b1565b604082019050919050565b5f6020820190508181035f8301526200173e81620016ff565b9050919050565b7f54696d65206475726174696f6e206d75737420626520696e20746865206675745f8201527f7572650000000000000000000000000000000000000000000000000000000000602082015250565b5f620017a160238362000f93565b9150620017ae8262001745565b604082019050919050565b5f6020820190508181035f830152620017d28162001793565b9050919050565b5f620017e58262000f21565b91507fffffffffffffffffffffffffffffffffffffffffffffffffffffffffffffffff82036200181a576200181962001574565b5b600182019050919050565b5f819050815f5260205f209050919050565b5f6020601f8301049050919050565b5f82821b905092915050565b5f60088302620018837fffffffffffffffffffffffffffffffffffffffffffffffffffffffffffffffff8262001846565b6200188f868362001846565b95508019841693508086168417925050509392505050565b5f819050919050565b5f620018d0620018ca620018c48462000f21565b620018a7565b62000f21565b9050919050565b5f819050919050565b620018eb83620018b0565b62001903620018fa82620018d7565b84845462001852565b825550505050565b5f90565b620019196200190b565b62001926818484620018e0565b505050565b5b818110156200194d57620019415f826200190f565b6001810190506200192c565b5050565b601f8211156200199c57620019668162001825565b620019718462001837565b8101602085101562001981578190505b62001999620019908562001837565b8301826200192b565b50505b505050565b5f82821c905092915050565b5f620019be5f1984600802620019a1565b1980831691505092915050565b5f620019d88383620019ad565b9150826002028217905092915050565b620019f38262000f89565b67ffffffffffffffff81111562001a0f5762001a0e62001185565b5b62001a1b82546200167d565b62001a2882828562001951565b5f60209050601f83116001811462001a5e575f841562001a49578287015190505b62001a558582620019cb565b86555062001ac4565b601f19841662001a6e8662001825565b5f5b8281101562001a975784890151825560018201915060208501945060208101905062001a70565b8683101562001ab7578489015162001ab3601f891682620019ad565b8355505b6001600288020188555050505b505050505050565b5f60808201905062001ae15f8301876200101d565b818103602083015262001af5818662000fdd565b905062001b0660408301856200101d565b62001b1560608301846200101d565b95945050505050565b7f43616d706169676e206861732072656163686564206974732066756e64696e675f8201527f20676f616c000000000000000000000000000000000000000000000000000000602082015250565b5f62001b7a60258362000f93565b915062001b878262001b1e565b604082019050919050565b5f6020820190508181035f83015262001bab8162001b6c565b9050919050565b7f4e6f20636f6e747269627574696f6e20666f756e6420666f72207468652063615f8201527f6d706169676e0000000000000000000000000000000000000000000000000000602082015250565b5f62001c0e60268362000f93565b915062001c1b8262001bb2565b604082019050919050565b5f6020820190508181035f83015262001c3f8162001c00565b9050919050565b7f46756e64696e6720676f616c206e6f74207265616368656400000000000000005f82015250565b5f62001c7c60188362000f93565b915062001c898262001c46565b602082019050919050565b5f6020820190508181035f83015262001cad8162001c6e565b9050919050565b5f62001cc08262000f21565b915062001ccd8362000f21565b925082820262001cdd8162000f21565b9150828204841483151762001cf75762001cf662001574565b5b5092915050565b7f4e487b71000000000000000000000000000000000000000000000000000000005f52601260045260245ffd5b5f62001d378262000f21565b915062001d448362000f21565b92508262001d575762001d5662001cfe565b5b828204905092915050565b7f4e487b71000000000000000000000000000000000000000000000000000000005f52603260045260245ffd5b5f60408201905062001da45f830185620013b2565b62001db360208301846200101d565b9392505050565b62001dc5816200102e565b811462001dd0575f80fd5b50565b5f8151905062001de38162001dba565b92915050565b5f6020828403121562001e015762001e0062000f19565b5b5f62001e108482850162001dd3565b9150509291505056fe608060405234801562000010575f80fd5b5060405162000bcf38038062000bcf83398181016040528101906200003691906200014f565b6040518060400160405280600781526020017f4d79546f6b656e000000000000000000000000000000000000000000000000008152505f90816200007b9190620003da565b506040518060400160405280600381526020017f4d544b000000000000000000000000000000000000000000000000000000000081525060019081620000c29190620003da565b50806002819055508060035f3373ffffffffffffffffffffffffffffffffffffffff1673ffffffffffffffffffffffffffffffffffffffff1681526020019081526020015f208190555050620004be565b5f80fd5b5f819050919050565b6200012b8162000117565b811462000136575f80fd5b50565b5f81519050620001498162000120565b92915050565b5f6020828403121562000167576200016662000113565b5b5f620001768482850162000139565b91505092915050565b5f81519050919050565b7f4e487b71000000000000000000000000000000000000000000000000000000005f52604160045260245ffd5b7f4e487b71000000000000000000000000000000000000000000000000000000005f52602260045260245ffd5b5f6002820490506001821680620001fb57607f821691505b602082108103620002115762000210620001b6565b5b50919050565b5f819050815f5260205f209050919050565b5f6020601f8301049050919050565b5f82821b905092915050565b5f60088302620002757fffffffffffffffffffffffffffffffffffffffffffffffffffffffffffffffff8262000238565b62000281868362000238565b95508019841693508086168417925050509392505050565b5f819050919050565b5f620002c2620002bc620002b68462000117565b62000299565b62000117565b9050919050565b5f819050919050565b620002dd83620002a2565b620002f5620002ec82620002c9565b84845462000244565b825550505050565b5f90565b6200030b620002fd565b62000318818484620002d2565b505050565b5b818110156200033f57620003335f8262000301565b6001810190506200031e565b5050565b601f8211156200038e57620003588162000217565b620003638462000229565b8101602085101562000373578190505b6200038b620003828562000229565b8301826200031d565b50505b505050565b5f82821c905092915050565b5f620003b05f198460080262000393565b1980831691505092915050565b5f620003ca83836200039f565b9150826002028217905092915050565b620003e5826200017f565b67ffffffffffffffff81111562000401576200040062000189565b5b6200040d8254620001e3565b6200041a82828562000343565b5f60209050601f83116001811462000450575f84156200043b578287015190505b620004478582620003bd565b865550620004b6565b601f198416620004608662000217565b5f5b82811015620004895784890151825560018201915060208501945060208101905062000462565b86831015620004a95784890151620004a5601f8916826200039f565b8355505b6001600288020188555050505b505050505050565b61070380620004cc5f395ff3fe608060405234801561000f575f80fd5b5060043610610055575f3560e01c806306fdde031461005957806318160ddd1461007757806370a082311461009557806395d89b41146100c5578063a9059cbb146100e3575b5f80fd5b610061610113565b60405161006e9190610400565b60405180910390f35b61007f61019e565b60405161008c9190610438565b60405180910390f35b6100af60048036038101906100aa91906104af565b6101a4565b6040516100bc9190610438565b60405180910390f35b6100cd6101b9565b6040516100da9190610400565b60405180910390f35b6100fd60048036038101906100f89190610504565b610245565b60405161010a919061055c565b60405180910390f35b5f805461011f906105a2565b80601f016020809104026020016040519081016040528092919081815260200182805461014b906105a2565b80156101965780601f1061016d57610100808354040283529160200191610196565b820191905f5260205f20905b81548152906001019060200180831161017957829003601f168201915b505050505081565b60025481565b6003602052805f5260405f205f915090505481565b600180546101c6906105a2565b80601f01602080910402602001604051908101604052809291908181526020018280546101f2906105a2565b801561023d5780601f106102145761010080835404028352916020019161023d565b820191905f5260205f20905b81548152906001019060200180831161022057829003601f168201915b505050505081565b5f8160035f3373ffffffffffffffffffffffffffffffffffffffff1673ffffffffffffffffffffffffffffffffffffffff1681526020019081526020015f205410156102c6576040517f08c379a00000000000000000000000000000000000000000000000000000000081526004016102bd9061061c565b60405180910390fd5b8160035f3373ffffffffffffffffffffffffffffffffffffffff1673ffffffffffffffffffffffffffffffffffffffff1681526020019081526020015f205f8282546103129190610667565b925050819055508160035f8573ffffffffffffffffffffffffffffffffffffffff1673ffffffffffffffffffffffffffffffffffffffff1681526020019081526020015f205f828254610365919061069a565b925050819055506001905092915050565b5f81519050919050565b5f82825260208201905092915050565b5f5b838110156103ad578082015181840152602081019050610392565b5f8484015250505050565b5f601f19601f8301169050919050565b5f6103d282610376565b6103dc8185610380565b93506103ec818560208601610390565b6103f5816103b8565b840191505092915050565b5f6020820190508181035f83015261041881846103c8565b905092915050565b5f819050919050565b61043281610420565b82525050565b5f60208201905061044b5f830184610429565b92915050565b5f80fd5b5f73ffffffffffffffffffffffffffffffffffffffff82169050919050565b5f61047e82610455565b9050919050565b61048e81610474565b8114610498575f80fd5b50565b5f813590506104a981610485565b92915050565b5f602082840312156104c4576104c3610451565b5b5f6104d18482850161049b565b91505092915050565b6104e381610420565b81146104ed575f80fd5b50565b5f813590506104fe816104da565b92915050565b5f806040838503121561051a57610519610451565b5b5f6105278582860161049b565b9250506020610538858286016104f0565b9150509250929050565b5f8115159050919050565b61055681610542565b82525050565b5f60208201905061056f5f83018461054d565b92915050565b7f4e487b71000000000000000000000000000000000000000000000000000000005f52602260045260245ffd5b5f60028204905060018216806105b957607f821691505b6020821081036105cc576105cb610575565b5b50919050565b7f496e73756666696369656e742062616c616e63650000000000000000000000005f82015250565b5f610606601483610380565b9150610611826105d2565b602082019050919050565b5f6020820190508181035f830152610633816105fa565b9050919050565b7f4e487b71000000000000000000000000000000000000000000000000000000005f52601160045260245ffd5b5f61067182610420565b915061067c83610420565b92508282039050818111156106945761069361063a565b5b92915050565b5f6106a482610420565b91506106af83610420565b92508282019050808211156106c7576106c661063a565b5b9291505056fea264697066735822122093c981371b38a01e9bb128b6aa36fa44787eaede9032addb91b50fb84e74328c64736f6c63430008140033a2646970667358221220798ca0df83fcc4abafd28e5f3e93b7dc9bfd5544444f8029d61b8e963aa66b8564736f6c63430008140033",
					"opcodes": "PUSH1 0x80 PUSH1 0x40 MSTORE CALLVALUE DUP1 ISZERO PUSH2 0xF JUMPI PUSH0 DUP1 REVERT JUMPDEST POP PUSH2 0x2A1E DUP1 PUSH2 0x1D PUSH0 CODECOPY PUSH0 RETURN INVALID PUSH1 0x80 PUSH1 0x40 MSTORE PUSH1 0x4 CALLDATASIZE LT PUSH3 0x91 JUMPI PUSH0 CALLDATALOAD PUSH1 0xE0 SHR DUP1 PUSH4 0x3020580B GT PUSH3 0x60 JUMPI DUP1 PUSH4 0x3020580B EQ PUSH3 0x16F JUMPI DUP1 PUSH4 0x523FBA7F EQ PUSH3 0x1B2 JUMPI DUP1 PUSH4 0xA4B2409E EQ PUSH3 0x1F5 JUMPI DUP1 PUSH4 0xCCF053BA EQ PUSH3 0x222 JUMPI DUP1 PUSH4 0xFF96DE21 EQ PUSH3 0x251 JUMPI PUSH3 0x91 JUMP JUMPDEST DUP1 PUSH4 0xB7EF89B EQ PUSH3 0x95 JUMPI DUP1 PUSH4 0x141961BC EQ PUSH3 0xB5 JUMPI DUP1 PUSH4 0x22C59958 EQ PUSH3 0xFD JUMPI DUP1 PUSH4 0x2E618676 EQ PUSH3 0x140 JUMPI JUMPDEST PUSH0 DUP1 REVERT JUMPDEST PUSH3 0xB3 PUSH1 0x4 DUP1 CALLDATASIZE SUB DUP2 ADD SWAP1 PUSH3 0xAD SWAP2 SWAP1 PUSH3 0xF59 JUMP JUMPDEST PUSH3 0x294 JUMP JUMPDEST STOP JUMPDEST CALLVALUE DUP1 ISZERO PUSH3 0xC1 JUMPI PUSH0 DUP1 REVERT JUMPDEST POP PUSH3 0xE0 PUSH1 0x4 DUP1 CALLDATASIZE SUB DUP2 ADD SWAP1 PUSH3 0xDA SWAP2 SWAP1 PUSH3 0xF59 JUMP JUMPDEST PUSH3 0x5B7 JUMP JUMPDEST PUSH1 0x40 MLOAD PUSH3 0xF4 SWAP7 SWAP6 SWAP5 SWAP4 SWAP3 SWAP2 SWAP1 PUSH3 0x104A JUMP JUMPDEST PUSH1 0x40 MLOAD DUP1 SWAP2 SUB SWAP1 RETURN JUMPDEST CALLVALUE DUP1 ISZERO PUSH3 0x109 JUMPI PUSH0 DUP1 REVERT JUMPDEST POP PUSH3 0x128 PUSH1 0x4 DUP1 CALLDATASIZE SUB DUP2 ADD SWAP1 PUSH3 0x122 SWAP2 SWAP1 PUSH3 0x111D JUMP JUMPDEST PUSH3 0x688 JUMP JUMPDEST PUSH1 0x40 MLOAD PUSH3 0x137 SWAP2 SWAP1 PUSH3 0x1162 JUMP JUMPDEST PUSH1 0x40 MLOAD DUP1 SWAP2 SUB SWAP1 RETURN JUMPDEST CALLVALUE DUP1 ISZERO PUSH3 0x14C JUMPI PUSH0 DUP1 REVERT JUMPDEST POP PUSH3 0x157 PUSH3 0x6A8 JUMP JUMPDEST PUSH1 0x40 MLOAD PUSH3 0x166 SWAP2 SWAP1 PUSH3 0x1162 JUMP JUMPDEST PUSH1 0x40 MLOAD DUP1 SWAP2 SUB SWAP1 RETURN JUMPDEST CALLVALUE DUP1 ISZERO PUSH3 0x17B JUMPI PUSH0 DUP1 REVERT JUMPDEST POP PUSH3 0x19A PUSH1 0x4 DUP1 CALLDATASIZE SUB DUP2 ADD SWAP1 PUSH3 0x194 SWAP2 SWAP1 PUSH3 0x12C5 JUMP JUMPDEST PUSH3 0x6AE JUMP JUMPDEST PUSH1 0x40 MLOAD PUSH3 0x1A9 SWAP2 SWAP1 PUSH3 0x1162 JUMP JUMPDEST PUSH1 0x40 MLOAD DUP1 SWAP2 SUB SWAP1 RETURN JUMPDEST CALLVALUE DUP1 ISZERO PUSH3 0x1BE JUMPI PUSH0 DUP1 REVERT JUMPDEST POP PUSH3 0x1DD PUSH1 0x4 DUP1 CALLDATASIZE SUB DUP2 ADD SWAP1 PUSH3 0x1D7 SWAP2 SWAP1 PUSH3 0x133D JUMP JUMPDEST PUSH3 0x802 JUMP JUMPDEST PUSH1 0x40 MLOAD PUSH3 0x1EC SWAP2 SWAP1 PUSH3 0x1162 JUMP JUMPDEST PUSH1 0x40 MLOAD DUP1 SWAP2 SUB SWAP1 RETURN JUMPDEST CALLVALUE DUP1 ISZERO PUSH3 0x201 JUMPI PUSH0 DUP1 REVERT JUMPDEST POP PUSH3 0x220 PUSH1 0x4 DUP1 CALLDATASIZE SUB DUP2 ADD SWAP1 PUSH3 0x21A SWAP2 SWAP1 PUSH3 0xF59 JUMP JUMPDEST PUSH3 0x817 JUMP JUMPDEST STOP JUMPDEST CALLVALUE DUP1 ISZERO PUSH3 0x22E JUMPI PUSH0 DUP1 REVERT JUMPDEST POP PUSH3 0x239 PUSH3 0xA92 JUMP JUMPDEST PUSH1 0x40 MLOAD PUSH3 0x248 SWAP2 SWAP1 PUSH3 0x1162 JUMP JUMPDEST PUSH1 0x40 MLOAD DUP1 SWAP2 SUB SWAP1 RETURN JUMPDEST CALLVALUE DUP1 ISZERO PUSH3 0x25D JUMPI PUSH0 DUP1 REVERT JUMPDEST POP PUSH3 0x27C PUSH1 0x4 DUP1 CALLDATASIZE SUB DUP2 ADD SWAP1 PUSH3 0x276 SWAP2 SWAP1 PUSH3 0x136D JUMP JUMPDEST PUSH3 0xA9A JUMP JUMPDEST PUSH1 0x40 MLOAD PUSH3 0x28B SWAP2 SWAP1 PUSH3 0x13C3 JUMP JUMPDEST PUSH1 0x40 MLOAD DUP1 SWAP2 SUB SWAP1 RETURN JUMPDEST PUSH0 DUP1 PUSH0 DUP4 DUP2 MSTORE PUSH1 0x20 ADD SWAP1 DUP2 MSTORE PUSH1 0x20 ADD PUSH0 KECCAK256 PUSH1 0x1 ADD SLOAD GT PUSH3 0x2EC JUMPI PUSH1 0x40 MLOAD PUSH32 0x8C379A000000000000000000000000000000000000000000000000000000000 DUP2 MSTORE PUSH1 0x4 ADD PUSH3 0x2E3 SWAP1 PUSH3 0x142C JUMP JUMPDEST PUSH1 0x40 MLOAD DUP1 SWAP2 SUB SWAP1 REVERT JUMPDEST PUSH0 DUP1 DUP3 DUP2 MSTORE PUSH1 0x20 ADD SWAP1 DUP2 MSTORE PUSH1 0x20 ADD PUSH0 KECCAK256 PUSH1 0x5 ADD PUSH0 SWAP1 SLOAD SWAP1 PUSH2 0x100 EXP SWAP1 DIV PUSH1 0xFF AND ISZERO PUSH3 0x34F JUMPI PUSH1 0x40 MLOAD PUSH32 0x8C379A000000000000000000000000000000000000000000000000000000000 DUP2 MSTORE PUSH1 0x4 ADD PUSH3 0x346 SWAP1 PUSH3 0x14C0 JUMP JUMPDEST PUSH1 0x40 MLOAD DUP1 SWAP2 SUB SWAP1 REVERT JUMPDEST PUSH0 CALLVALUE GT PUSH3 0x394 JUMPI PUSH1 0x40 MLOAD PUSH32 0x8C379A000000000000000000000000000000000000000000000000000000000 DUP2 MSTORE PUSH1 0x4 ADD PUSH3 0x38B SWAP1 PUSH3 0x1554 JUMP JUMPDEST PUSH1 0x40 MLOAD DUP1 SWAP2 SUB SWAP1 REVERT JUMPDEST CALLVALUE PUSH0 DUP1 DUP4 DUP2 MSTORE PUSH1 0x20 ADD SWAP1 DUP2 MSTORE PUSH1 0x20 ADD PUSH0 KECCAK256 PUSH1 0x3 ADD PUSH0 DUP3 DUP3 SLOAD PUSH3 0x3B8 SWAP2 SWAP1 PUSH3 0x15A1 JUMP JUMPDEST SWAP3 POP POP DUP2 SWAP1 SSTORE POP CALLVALUE PUSH0 DUP1 DUP4 DUP2 MSTORE PUSH1 0x20 ADD SWAP1 DUP2 MSTORE PUSH1 0x20 ADD PUSH0 KECCAK256 PUSH1 0x4 ADD PUSH0 DUP3 DUP3 SLOAD PUSH3 0x3E3 SWAP2 SWAP1 PUSH3 0x15DB JUMP JUMPDEST SWAP3 POP POP DUP2 SWAP1 SSTORE POP CALLVALUE PUSH1 0x1 PUSH0 DUP4 DUP2 MSTORE PUSH1 0x20 ADD SWAP1 DUP2 MSTORE PUSH1 0x20 ADD PUSH0 KECCAK256 PUSH0 CALLER PUSH20 0xFFFFFFFFFFFFFFFFFFFFFFFFFFFFFFFFFFFFFFFF AND PUSH20 0xFFFFFFFFFFFFFFFFFFFFFFFFFFFFFFFFFFFFFFFF AND DUP2 MSTORE PUSH1 0x20 ADD SWAP1 DUP2 MSTORE PUSH1 0x20 ADD PUSH0 KECCAK256 PUSH0 DUP3 DUP3 SLOAD PUSH3 0x447 SWAP2 SWAP1 PUSH3 0x15A1 JUMP JUMPDEST SWAP3 POP POP DUP2 SWAP1 SSTORE POP CALLVALUE PUSH1 0x1 PUSH0 DUP4 DUP2 MSTORE PUSH1 0x20 ADD SWAP1 DUP2 MSTORE PUSH1 0x20 ADD PUSH0 KECCAK256 PUSH0 CALLER PUSH20 0xFFFFFFFFFFFFFFFFFFFFFFFFFFFFFFFFFFFFFFFF AND PUSH20 0xFFFFFFFFFFFFFFFFFFFFFFFFFFFFFFFFFFFFFFFF AND DUP2 MSTORE PUSH1 0x20 ADD SWAP1 DUP2 MSTORE PUSH1 0x20 ADD PUSH0 KECCAK256 SLOAD SUB PUSH3 0x512 JUMPI PUSH1 0x2 PUSH0 DUP3 DUP2 MSTORE PUSH1 0x20 ADD SWAP1 DUP2 MSTORE PUSH1 0x20 ADD PUSH0 KECCAK256 CALLER SWAP1 DUP1 PUSH1 0x1 DUP2 SLOAD ADD DUP1 DUP3 SSTORE DUP1 SWAP2 POP POP PUSH1 0x1 SWAP1 SUB SWAP1 PUSH0 MSTORE PUSH1 0x20 PUSH0 KECCAK256 ADD PUSH0 SWAP1 SWAP2 SWAP1 SWAP2 SWAP1 SWAP2 PUSH2 0x100 EXP DUP2 SLOAD DUP2 PUSH20 0xFFFFFFFFFFFFFFFFFFFFFFFFFFFFFFFFFFFFFFFF MUL NOT AND SWAP1 DUP4 PUSH20 0xFFFFFFFFFFFFFFFFFFFFFFFFFFFFFFFFFFFFFFFF AND MUL OR SWAP1 SSTORE POP JUMPDEST PUSH32 0xA4A91237423E0A1766A761C7CB029311D8B95D6B1B81DB1B949A70C98B4E08E DUP2 CALLER CALLVALUE PUSH1 0x40 MLOAD PUSH3 0x547 SWAP4 SWAP3 SWAP2 SWAP1 PUSH3 0x1615 JUMP JUMPDEST PUSH1 0x40 MLOAD DUP1 SWAP2 SUB SWAP1 LOG1 PUSH0 DUP1 DUP3 DUP2 MSTORE PUSH1 0x20 ADD SWAP1 DUP2 MSTORE PUSH1 0x20 ADD PUSH0 KECCAK256 PUSH1 0x1 ADD SLOAD PUSH0 DUP1 DUP4 DUP2 MSTORE PUSH1 0x20 ADD SWAP1 DUP2 MSTORE PUSH1 0x20 ADD PUSH0 KECCAK256 PUSH1 0x3 ADD SLOAD LT PUSH3 0x5B4 JUMPI PUSH1 0x1 PUSH0 DUP1 DUP4 DUP2 MSTORE PUSH1 0x20 ADD SWAP1 DUP2 MSTORE PUSH1 0x20 ADD PUSH0 KECCAK256 PUSH1 0x5 ADD PUSH0 PUSH2 0x100 EXP DUP2 SLOAD DUP2 PUSH1 0xFF MUL NOT AND SWAP1 DUP4 ISZERO ISZERO MUL OR SWAP1 SSTORE POP PUSH3 0x5B3 DUP2 PUSH3 0xAE3 JUMP JUMPDEST JUMPDEST POP JUMP JUMPDEST PUSH0 PUSH1 0x20 MSTORE DUP1 PUSH0 MSTORE PUSH1 0x40 PUSH0 KECCAK256 PUSH0 SWAP2 POP SWAP1 POP DUP1 PUSH0 ADD DUP1 SLOAD PUSH3 0x5D7 SWAP1 PUSH3 0x167D JUMP JUMPDEST DUP1 PUSH1 0x1F ADD PUSH1 0x20 DUP1 SWAP2 DIV MUL PUSH1 0x20 ADD PUSH1 0x40 MLOAD SWAP1 DUP2 ADD PUSH1 0x40 MSTORE DUP1 SWAP3 SWAP2 SWAP1 DUP2 DUP2 MSTORE PUSH1 0x20 ADD DUP3 DUP1 SLOAD PUSH3 0x605 SWAP1 PUSH3 0x167D JUMP JUMPDEST DUP1 ISZERO PUSH3 0x654 JUMPI DUP1 PUSH1 0x1F LT PUSH3 0x62A JUMPI PUSH2 0x100 DUP1 DUP4 SLOAD DIV MUL DUP4 MSTORE SWAP2 PUSH1 0x20 ADD SWAP2 PUSH3 0x654 JUMP JUMPDEST DUP3 ADD SWAP2 SWAP1 PUSH0 MSTORE PUSH1 0x20 PUSH0 KECCAK256 SWAP1 JUMPDEST DUP2 SLOAD DUP2 MSTORE SWAP1 PUSH1 0x1 ADD SWAP1 PUSH1 0x20 ADD DUP1 DUP4 GT PUSH3 0x636 JUMPI DUP3 SWAP1 SUB PUSH1 0x1F AND DUP3 ADD SWAP2 JUMPDEST POP POP POP POP POP SWAP1 DUP1 PUSH1 0x1 ADD SLOAD SWAP1 DUP1 PUSH1 0x2 ADD SLOAD SWAP1 DUP1 PUSH1 0x3 ADD SLOAD SWAP1 DUP1 PUSH1 0x4 ADD SLOAD SWAP1 DUP1 PUSH1 0x5 ADD PUSH0 SWAP1 SLOAD SWAP1 PUSH2 0x100 EXP SWAP1 DIV PUSH1 0xFF AND SWAP1 POP DUP7 JUMP JUMPDEST PUSH1 0x1 PUSH1 0x20 MSTORE DUP2 PUSH0 MSTORE PUSH1 0x40 PUSH0 KECCAK256 PUSH1 0x20 MSTORE DUP1 PUSH0 MSTORE PUSH1 0x40 PUSH0 KECCAK256 PUSH0 SWAP2 POP SWAP2 POP POP SLOAD DUP2 JUMP JUMPDEST PUSH1 0x3 SLOAD DUP2 JUMP JUMPDEST PUSH0 DUP1 DUP4 GT PUSH3 0x6F4 JUMPI PUSH1 0x40 MLOAD PUSH32 0x8C379A000000000000000000000000000000000000000000000000000000000 DUP2 MSTORE PUSH1 0x4 ADD PUSH3 0x6EB SWAP1 PUSH3 0x1725 JUMP JUMPDEST PUSH1 0x40 MLOAD DUP1 SWAP2 SUB SWAP1 REVERT JUMPDEST TIMESTAMP DUP3 GT PUSH3 0x739 JUMPI PUSH1 0x40 MLOAD PUSH32 0x8C379A000000000000000000000000000000000000000000000000000000000 DUP2 MSTORE PUSH1 0x4 ADD PUSH3 0x730 SWAP1 PUSH3 0x17B9 JUMP JUMPDEST PUSH1 0x40 MLOAD DUP1 SWAP2 SUB SWAP1 REVERT JUMPDEST PUSH0 PUSH1 0x3 PUSH0 DUP2 SLOAD PUSH3 0x74A SWAP1 PUSH3 0x17D9 JUMP JUMPDEST SWAP2 SWAP1 POP DUP2 SWAP1 SSTORE SWAP1 POP PUSH0 DUP1 PUSH0 DUP4 DUP2 MSTORE PUSH1 0x20 ADD SWAP1 DUP2 MSTORE PUSH1 0x20 ADD PUSH0 KECCAK256 SWAP1 POP DUP6 DUP2 PUSH0 ADD SWAP1 DUP2 PUSH3 0x777 SWAP2 SWAP1 PUSH3 0x19E8 JUMP JUMPDEST POP DUP5 DUP2 PUSH1 0x1 ADD DUP2 SWAP1 SSTORE POP DUP4 DUP2 PUSH1 0x2 ADD DUP2 SWAP1 SSTORE POP PUSH0 DUP2 PUSH1 0x3 ADD DUP2 SWAP1 SSTORE POP DUP5 DUP2 PUSH1 0x4 ADD DUP2 SWAP1 SSTORE POP PUSH0 DUP2 PUSH1 0x5 ADD PUSH0 PUSH2 0x100 EXP DUP2 SLOAD DUP2 PUSH1 0xFF MUL NOT AND SWAP1 DUP4 ISZERO ISZERO MUL OR SWAP1 SSTORE POP PUSH32 0x2FE3FDDD43AAD14AE5C30D5D694F19ECB065DFDE85BB591B91E8AF1448724D2 DUP3 DUP8 DUP8 DUP8 PUSH1 0x40 MLOAD PUSH3 0x7EE SWAP5 SWAP4 SWAP3 SWAP2 SWAP1 PUSH3 0x1ACC JUMP JUMPDEST PUSH1 0x40 MLOAD DUP1 SWAP2 SUB SWAP1 LOG1 DUP2 SWAP3 POP POP POP SWAP4 SWAP3 POP POP POP JUMP JUMPDEST PUSH1 0x4 PUSH1 0x20 MSTORE DUP1 PUSH0 MSTORE PUSH1 0x40 PUSH0 KECCAK256 PUSH0 SWAP2 POP SWAP1 POP SLOAD DUP2 JUMP JUMPDEST PUSH0 DUP1 PUSH0 DUP4 DUP2 MSTORE PUSH1 0x20 ADD SWAP1 DUP2 MSTORE PUSH1 0x20 ADD PUSH0 KECCAK256 PUSH1 0x1 ADD SLOAD GT PUSH3 0x86F JUMPI PUSH1 0x40 MLOAD PUSH32 0x8C379A000000000000000000000000000000000000000000000000000000000 DUP2 MSTORE PUSH1 0x4 ADD PUSH3 0x866 SWAP1 PUSH3 0x142C JUMP JUMPDEST PUSH1 0x40 MLOAD DUP1 SWAP2 SUB SWAP1 REVERT JUMPDEST PUSH0 DUP1 DUP3 DUP2 MSTORE PUSH1 0x20 ADD SWAP1 DUP2 MSTORE PUSH1 0x20 ADD PUSH0 KECCAK256 PUSH1 0x1 ADD SLOAD PUSH0 DUP1 DUP4 DUP2 MSTORE PUSH1 0x20 ADD SWAP1 DUP2 MSTORE PUSH1 0x20 ADD PUSH0 KECCAK256 PUSH1 0x3 ADD SLOAD LT PUSH3 0x8DA JUMPI PUSH1 0x40 MLOAD PUSH32 0x8C379A000000000000000000000000000000000000000000000000000000000 DUP2 MSTORE PUSH1 0x4 ADD PUSH3 0x8D1 SWAP1 PUSH3 0x1B92 JUMP JUMPDEST PUSH1 0x40 MLOAD DUP1 SWAP2 SUB SWAP1 REVERT JUMPDEST PUSH0 PUSH1 0x1 PUSH0 DUP4 DUP2 MSTORE PUSH1 0x20 ADD SWAP1 DUP2 MSTORE PUSH1 0x20 ADD PUSH0 KECCAK256 PUSH0 CALLER PUSH20 0xFFFFFFFFFFFFFFFFFFFFFFFFFFFFFFFFFFFFFFFF AND PUSH20 0xFFFFFFFFFFFFFFFFFFFFFFFFFFFFFFFFFFFFFFFF AND DUP2 MSTORE PUSH1 0x20 ADD SWAP1 DUP2 MSTORE PUSH1 0x20 ADD PUSH0 KECCAK256 SLOAD GT PUSH3 0x96B JUMPI PUSH1 0x40 MLOAD PUSH32 0x8C379A000000000000000000000000000000000000000000000000000000000 DUP2 MSTORE PUSH1 0x4 ADD PUSH3 0x962 SWAP1 PUSH3 0x1C26 JUMP JUMPDEST PUSH1 0x40 MLOAD DUP1 SWAP2 SUB SWAP1 REVERT JUMPDEST PUSH0 PUSH1 0x1 PUSH0 DUP4 DUP2 MSTORE PUSH1 0x20 ADD SWAP1 DUP2 MSTORE PUSH1 0x20 ADD PUSH0 KECCAK256 PUSH0 CALLER PUSH20 0xFFFFFFFFFFFFFFFFFFFFFFFFFFFFFFFFFFFFFFFF AND PUSH20 0xFFFFFFFFFFFFFFFFFFFFFFFFFFFFFFFFFFFFFFFF AND DUP2 MSTORE PUSH1 0x20 ADD SWAP1 DUP2 MSTORE PUSH1 0x20 ADD PUSH0 KECCAK256 SLOAD SWAP1 POP PUSH0 PUSH1 0x1 PUSH0 DUP5 DUP2 MSTORE PUSH1 0x20 ADD SWAP1 DUP2 MSTORE PUSH1 0x20 ADD PUSH0 KECCAK256 PUSH0 CALLER PUSH20 0xFFFFFFFFFFFFFFFFFFFFFFFFFFFFFFFFFFFFFFFF AND PUSH20 0xFFFFFFFFFFFFFFFFFFFFFFFFFFFFFFFFFFFFFFFF AND DUP2 MSTORE PUSH1 0x20 ADD SWAP1 DUP2 MSTORE PUSH1 0x20 ADD PUSH0 KECCAK256 DUP2 SWAP1 SSTORE POP CALLER PUSH20 0xFFFFFFFFFFFFFFFFFFFFFFFFFFFFFFFFFFFFFFFF AND PUSH2 0x8FC DUP3 SWAP1 DUP2 ISZERO MUL SWAP1 PUSH1 0x40 MLOAD PUSH0 PUSH1 0x40 MLOAD DUP1 DUP4 SUB DUP2 DUP6 DUP9 DUP9 CALL SWAP4 POP POP POP POP ISZERO DUP1 ISZERO PUSH3 0xA50 JUMPI RETURNDATASIZE PUSH0 DUP1 RETURNDATACOPY RETURNDATASIZE PUSH0 REVERT JUMPDEST POP PUSH32 0x7A482FDEB6BC9A1376F597068A214A7A39472BB2EFF1B8CAD21BA04F49DDCA1B DUP3 CALLER DUP4 PUSH1 0x40 MLOAD PUSH3 0xA86 SWAP4 SWAP3 SWAP2 SWAP1 PUSH3 0x1615 JUMP JUMPDEST PUSH1 0x40 MLOAD DUP1 SWAP2 SUB SWAP1 LOG1 POP POP JUMP JUMPDEST PUSH4 0x3B9ACA00 DUP2 JUMP JUMPDEST PUSH1 0x2 PUSH1 0x20 MSTORE DUP2 PUSH0 MSTORE PUSH1 0x40 PUSH0 KECCAK256 DUP2 DUP2 SLOAD DUP2 LT PUSH3 0xAB4 JUMPI PUSH0 DUP1 REVERT JUMPDEST SWAP1 PUSH0 MSTORE PUSH1 0x20 PUSH0 KECCAK256 ADD PUSH0 SWAP2 POP SWAP2 POP SWAP1 SLOAD SWAP1 PUSH2 0x100 EXP SWAP1 DIV PUSH20 0xFFFFFFFFFFFFFFFFFFFFFFFFFFFFFFFFFFFFFFFF AND DUP2 JUMP JUMPDEST PUSH0 DUP1 DUP3 DUP2 MSTORE PUSH1 0x20 ADD SWAP1 DUP2 MSTORE PUSH1 0x20 ADD PUSH0 KECCAK256 PUSH1 0x1 ADD SLOAD PUSH0 DUP1 DUP4 DUP2 MSTORE PUSH1 0x20 ADD SWAP1 DUP2 MSTORE PUSH1 0x20 ADD PUSH0 KECCAK256 PUSH1 0x3 ADD SLOAD LT ISZERO PUSH3 0xB4F JUMPI PUSH1 0x40 MLOAD PUSH32 0x8C379A000000000000000000000000000000000000000000000000000000000 DUP2 MSTORE PUSH1 0x4 ADD PUSH3 0xB46 SWAP1 PUSH3 0x1C94 JUMP JUMPDEST PUSH1 0x40 MLOAD DUP1 SWAP2 SUB SWAP1 REVERT JUMPDEST PUSH0 DUP1 PUSH0 DUP4 DUP2 MSTORE PUSH1 0x20 ADD SWAP1 DUP2 MSTORE PUSH1 0x20 ADD PUSH0 KECCAK256 PUSH1 0x3 ADD SLOAD SWAP1 POP PUSH0 PUSH1 0x64 PUSH1 0xA DUP4 PUSH3 0xB78 SWAP2 SWAP1 PUSH3 0x1CB4 JUMP JUMPDEST PUSH3 0xB84 SWAP2 SWAP1 PUSH3 0x1D2B JUMP JUMPDEST SWAP1 POP PUSH0 DUP1 JUMPDEST PUSH1 0x2 PUSH0 DUP7 DUP2 MSTORE PUSH1 0x20 ADD SWAP1 DUP2 MSTORE PUSH1 0x20 ADD PUSH0 KECCAK256 DUP1 SLOAD SWAP1 POP DUP2 LT ISZERO PUSH3 0xDD9 JUMPI PUSH0 PUSH1 0x2 PUSH0 DUP8 DUP2 MSTORE PUSH1 0x20 ADD SWAP1 DUP2 MSTORE PUSH1 0x20 ADD PUSH0 KECCAK256 DUP3 DUP2 SLOAD DUP2 LT PUSH3 0xBCD JUMPI PUSH3 0xBCC PUSH3 0x1D62 JUMP JUMPDEST JUMPDEST SWAP1 PUSH0 MSTORE PUSH1 0x20 PUSH0 KECCAK256 ADD PUSH0 SWAP1 SLOAD SWAP1 PUSH2 0x100 EXP SWAP1 DIV PUSH20 0xFFFFFFFFFFFFFFFFFFFFFFFFFFFFFFFFFFFFFFFF AND SWAP1 POP PUSH0 PUSH1 0x1 PUSH0 DUP9 DUP2 MSTORE PUSH1 0x20 ADD SWAP1 DUP2 MSTORE PUSH1 0x20 ADD PUSH0 KECCAK256 PUSH0 DUP4 PUSH20 0xFFFFFFFFFFFFFFFFFFFFFFFFFFFFFFFFFFFFFFFF AND PUSH20 0xFFFFFFFFFFFFFFFFFFFFFFFFFFFFFFFFFFFFFFFF AND DUP2 MSTORE PUSH1 0x20 ADD SWAP1 DUP2 MSTORE PUSH1 0x20 ADD PUSH0 KECCAK256 SLOAD SWAP1 POP PUSH0 DUP7 DUP7 DUP4 PUSH3 0xC57 SWAP2 SWAP1 PUSH3 0x1CB4 JUMP JUMPDEST PUSH3 0xC63 SWAP2 SWAP1 PUSH3 0x1D2B JUMP JUMPDEST SWAP1 POP PUSH0 DUP2 PUSH1 0x40 MLOAD PUSH3 0xC75 SWAP1 PUSH3 0xF02 JUMP JUMPDEST PUSH3 0xC81 SWAP2 SWAP1 PUSH3 0x1162 JUMP JUMPDEST PUSH1 0x40 MLOAD DUP1 SWAP2 SUB SWAP1 PUSH0 CREATE DUP1 ISZERO DUP1 ISZERO PUSH3 0xC9B JUMPI RETURNDATASIZE PUSH0 DUP1 RETURNDATACOPY RETURNDATASIZE PUSH0 REVERT JUMPDEST POP SWAP1 POP DUP2 PUSH1 0x4 PUSH0 DUP7 PUSH20 0xFFFFFFFFFFFFFFFFFFFFFFFFFFFFFFFFFFFFFFFF AND PUSH20 0xFFFFFFFFFFFFFFFFFFFFFFFFFFFFFFFFFFFFFFFF AND DUP2 MSTORE PUSH1 0x20 ADD SWAP1 DUP2 MSTORE PUSH1 0x20 ADD PUSH0 KECCAK256 PUSH0 DUP3 DUP3 SLOAD PUSH3 0xCEC SWAP2 SWAP1 PUSH3 0x15A1 JUMP JUMPDEST SWAP3 POP POP DUP2 SWAP1 SSTORE POP DUP1 PUSH20 0xFFFFFFFFFFFFFFFFFFFFFFFFFFFFFFFFFFFFFFFF AND PUSH4 0xA9059CBB DUP6 DUP5 PUSH1 0x40 MLOAD DUP4 PUSH4 0xFFFFFFFF AND PUSH1 0xE0 SHL DUP2 MSTORE PUSH1 0x4 ADD PUSH3 0xD30 SWAP3 SWAP2 SWAP1 PUSH3 0x1D8F JUMP JUMPDEST PUSH1 0x20 PUSH1 0x40 MLOAD DUP1 DUP4 SUB DUP2 PUSH0 DUP8 GAS CALL ISZERO DUP1 ISZERO PUSH3 0xD4D JUMPI RETURNDATASIZE PUSH0 DUP1 RETURNDATACOPY RETURNDATASIZE PUSH0 REVERT JUMPDEST POP POP POP POP PUSH1 0x40 MLOAD RETURNDATASIZE PUSH1 0x1F NOT PUSH1 0x1F DUP3 ADD AND DUP3 ADD DUP1 PUSH1 0x40 MSTORE POP DUP2 ADD SWAP1 PUSH3 0xD73 SWAP2 SWAP1 PUSH3 0x1DE9 JUMP JUMPDEST POP DUP2 DUP7 PUSH3 0xD82 SWAP2 SWAP1 PUSH3 0x15A1 JUMP JUMPDEST SWAP6 POP PUSH32 0x21D739F160A7464FDDAAC4A1D1517D84E76B75618A053943B345C408C4160FE0 DUP5 DUP4 PUSH1 0x40 MLOAD PUSH3 0xDB7 SWAP3 SWAP2 SWAP1 PUSH3 0x1D8F JUMP JUMPDEST PUSH1 0x40 MLOAD DUP1 SWAP2 SUB SWAP1 LOG1 POP POP POP POP DUP1 DUP1 PUSH3 0xDD0 SWAP1 PUSH3 0x17D9 JUMP JUMPDEST SWAP2 POP POP PUSH3 0xB89 JUMP JUMPDEST POP PUSH0 DUP2 DUP4 PUSH3 0xDE9 SWAP2 SWAP1 PUSH3 0x15DB JUMP JUMPDEST SWAP1 POP PUSH0 DUP2 PUSH1 0x40 MLOAD PUSH3 0xDFB SWAP1 PUSH3 0xF02 JUMP JUMPDEST PUSH3 0xE07 SWAP2 SWAP1 PUSH3 0x1162 JUMP JUMPDEST PUSH1 0x40 MLOAD DUP1 SWAP2 SUB SWAP1 PUSH0 CREATE DUP1 ISZERO DUP1 ISZERO PUSH3 0xE21 JUMPI RETURNDATASIZE PUSH0 DUP1 RETURNDATACOPY RETURNDATASIZE PUSH0 REVERT JUMPDEST POP SWAP1 POP DUP2 PUSH1 0x4 PUSH0 ADDRESS PUSH20 0xFFFFFFFFFFFFFFFFFFFFFFFFFFFFFFFFFFFFFFFF AND PUSH20 0xFFFFFFFFFFFFFFFFFFFFFFFFFFFFFFFFFFFFFFFF AND DUP2 MSTORE PUSH1 0x20 ADD SWAP1 DUP2 MSTORE PUSH1 0x20 ADD PUSH0 KECCAK256 PUSH0 DUP3 DUP3 SLOAD PUSH3 0xE72 SWAP2 SWAP1 PUSH3 0x15A1 JUMP JUMPDEST SWAP3 POP POP DUP2 SWAP1 SSTORE POP DUP1 PUSH20 0xFFFFFFFFFFFFFFFFFFFFFFFFFFFFFFFFFFFFFFFF AND PUSH4 0xA9059CBB ADDRESS DUP5 PUSH1 0x40 MLOAD DUP4 PUSH4 0xFFFFFFFF AND PUSH1 0xE0 SHL DUP2 MSTORE PUSH1 0x4 ADD PUSH3 0xEB6 SWAP3 SWAP2 SWAP1 PUSH3 0x1D8F JUMP JUMPDEST PUSH1 0x20 PUSH1 0x40 MLOAD DUP1 DUP4 SUB DUP2 PUSH0 DUP8 GAS CALL ISZERO DUP1 ISZERO PUSH3 0xED3 JUMPI RETURNDATASIZE PUSH0 DUP1 RETURNDATACOPY RETURNDATASIZE PUSH0 REVERT JUMPDEST POP POP POP POP PUSH1 0x40 MLOAD RETURNDATASIZE PUSH1 0x1F NOT PUSH1 0x1F DUP3 ADD AND DUP3 ADD DUP1 PUSH1 0x40 MSTORE POP DUP2 ADD SWAP1 PUSH3 0xEF9 SWAP2 SWAP1 PUSH3 0x1DE9 JUMP JUMPDEST POP POP POP POP POP POP POP JUMP JUMPDEST PUSH2 0xBCF DUP1 PUSH3 0x1E1A DUP4 CODECOPY ADD SWAP1 JUMP JUMPDEST PUSH0 PUSH1 0x40 MLOAD SWAP1 POP SWAP1 JUMP JUMPDEST PUSH0 DUP1 REVERT JUMPDEST PUSH0 DUP1 REVERT JUMPDEST PUSH0 DUP2 SWAP1 POP SWAP2 SWAP1 POP JUMP JUMPDEST PUSH3 0xF35 DUP2 PUSH3 0xF21 JUMP JUMPDEST DUP2 EQ PUSH3 0xF40 JUMPI PUSH0 DUP1 REVERT JUMPDEST POP JUMP JUMPDEST PUSH0 DUP2 CALLDATALOAD SWAP1 POP PUSH3 0xF53 DUP2 PUSH3 0xF2A JUMP JUMPDEST SWAP3 SWAP2 POP POP JUMP JUMPDEST PUSH0 PUSH1 0x20 DUP3 DUP5 SUB SLT ISZERO PUSH3 0xF71 JUMPI PUSH3 0xF70 PUSH3 0xF19 JUMP JUMPDEST JUMPDEST PUSH0 PUSH3 0xF80 DUP5 DUP3 DUP6 ADD PUSH3 0xF43 JUMP JUMPDEST SWAP2 POP POP SWAP3 SWAP2 POP POP JUMP JUMPDEST PUSH0 DUP2 MLOAD SWAP1 POP SWAP2 SWAP1 POP JUMP JUMPDEST PUSH0 DUP3 DUP3 MSTORE PUSH1 0x20 DUP3 ADD SWAP1 POP SWAP3 SWAP2 POP POP JUMP JUMPDEST PUSH0 JUMPDEST DUP4 DUP2 LT ISZERO PUSH3 0xFC2 JUMPI DUP1 DUP3 ADD MLOAD DUP2 DUP5 ADD MSTORE PUSH1 0x20 DUP2 ADD SWAP1 POP PUSH3 0xFA5 JUMP JUMPDEST PUSH0 DUP5 DUP5 ADD MSTORE POP POP POP POP JUMP JUMPDEST PUSH0 PUSH1 0x1F NOT PUSH1 0x1F DUP4 ADD AND SWAP1 POP SWAP2 SWAP1 POP JUMP JUMPDEST PUSH0 PUSH3 0xFE9 DUP3 PUSH3 0xF89 JUMP JUMPDEST PUSH3 0xFF5 DUP2 DUP6 PUSH3 0xF93 JUMP JUMPDEST SWAP4 POP PUSH3 0x1007 DUP2 DUP6 PUSH1 0x20 DUP7 ADD PUSH3 0xFA3 JUMP JUMPDEST PUSH3 0x1012 DUP2 PUSH3 0xFCD JUMP JUMPDEST DUP5 ADD SWAP2 POP POP SWAP3 SWAP2 POP POP JUMP JUMPDEST PUSH3 0x1028 DUP2 PUSH3 0xF21 JUMP JUMPDEST DUP3 MSTORE POP POP JUMP JUMPDEST PUSH0 DUP2 ISZERO ISZERO SWAP1 POP SWAP2 SWAP1 POP JUMP JUMPDEST PUSH3 0x1044 DUP2 PUSH3 0x102E JUMP JUMPDEST DUP3 MSTORE POP POP JUMP JUMPDEST PUSH0 PUSH1 0xC0 DUP3 ADD SWAP1 POP DUP2 DUP2 SUB PUSH0 DUP4 ADD MSTORE PUSH3 0x1064 DUP2 DUP10 PUSH3 0xFDD JUMP JUMPDEST SWAP1 POP PUSH3 0x1075 PUSH1 0x20 DUP4 ADD DUP9 PUSH3 0x101D JUMP JUMPDEST PUSH3 0x1084 PUSH1 0x40 DUP4 ADD DUP8 PUSH3 0x101D JUMP JUMPDEST PUSH3 0x1093 PUSH1 0x60 DUP4 ADD DUP7 PUSH3 0x101D JUMP JUMPDEST PUSH3 0x10A2 PUSH1 0x80 DUP4 ADD DUP6 PUSH3 0x101D JUMP JUMPDEST PUSH3 0x10B1 PUSH1 0xA0 DUP4 ADD DUP5 PUSH3 0x1039 JUMP JUMPDEST SWAP8 SWAP7 POP POP POP POP POP POP POP JUMP JUMPDEST PUSH0 PUSH20 0xFFFFFFFFFFFFFFFFFFFFFFFFFFFFFFFFFFFFFFFF DUP3 AND SWAP1 POP SWAP2 SWAP1 POP JUMP JUMPDEST PUSH0 PUSH3 0x10E7 DUP3 PUSH3 0x10BC JUMP JUMPDEST SWAP1 POP SWAP2 SWAP1 POP JUMP JUMPDEST PUSH3 0x10F9 DUP2 PUSH3 0x10DB JUMP JUMPDEST DUP2 EQ PUSH3 0x1104 JUMPI PUSH0 DUP1 REVERT JUMPDEST POP JUMP JUMPDEST PUSH0 DUP2 CALLDATALOAD SWAP1 POP PUSH3 0x1117 DUP2 PUSH3 0x10EE JUMP JUMPDEST SWAP3 SWAP2 POP POP JUMP JUMPDEST PUSH0 DUP1 PUSH1 0x40 DUP4 DUP6 SUB SLT ISZERO PUSH3 0x1136 JUMPI PUSH3 0x1135 PUSH3 0xF19 JUMP JUMPDEST JUMPDEST PUSH0 PUSH3 0x1145 DUP6 DUP3 DUP7 ADD PUSH3 0xF43 JUMP JUMPDEST SWAP3 POP POP PUSH1 0x20 PUSH3 0x1158 DUP6 DUP3 DUP7 ADD PUSH3 0x1107 JUMP JUMPDEST SWAP2 POP POP SWAP3 POP SWAP3 SWAP1 POP JUMP JUMPDEST PUSH0 PUSH1 0x20 DUP3 ADD SWAP1 POP PUSH3 0x1177 PUSH0 DUP4 ADD DUP5 PUSH3 0x101D JUMP JUMPDEST SWAP3 SWAP2 POP POP JUMP JUMPDEST PUSH0 DUP1 REVERT JUMPDEST PUSH0 DUP1 REVERT JUMPDEST PUSH32 0x4E487B7100000000000000000000000000000000000000000000000000000000 PUSH0 MSTORE PUSH1 0x41 PUSH1 0x4 MSTORE PUSH1 0x24 PUSH0 REVERT JUMPDEST PUSH3 0x11BD DUP3 PUSH3 0xFCD JUMP JUMPDEST DUP2 ADD DUP2 DUP2 LT PUSH8 0xFFFFFFFFFFFFFFFF DUP3 GT OR ISZERO PUSH3 0x11DF JUMPI PUSH3 0x11DE PUSH3 0x1185 JUMP JUMPDEST JUMPDEST DUP1 PUSH1 0x40 MSTORE POP POP POP JUMP JUMPDEST PUSH0 PUSH3 0x11F3 PUSH3 0xF10 JUMP JUMPDEST SWAP1 POP PUSH3 0x1201 DUP3 DUP3 PUSH3 0x11B2 JUMP JUMPDEST SWAP2 SWAP1 POP JUMP JUMPDEST PUSH0 PUSH8 0xFFFFFFFFFFFFFFFF DUP3 GT ISZERO PUSH3 0x1223 JUMPI PUSH3 0x1222 PUSH3 0x1185 JUMP JUMPDEST JUMPDEST PUSH3 0x122E DUP3 PUSH3 0xFCD JUMP JUMPDEST SWAP1 POP PUSH1 0x20 DUP2 ADD SWAP1 POP SWAP2 SWAP1 POP JUMP JUMPDEST DUP3 DUP2 DUP4 CALLDATACOPY PUSH0 DUP4 DUP4 ADD MSTORE POP POP POP JUMP JUMPDEST PUSH0 PUSH3 0x125F PUSH3 0x1259 DUP5 PUSH3 0x1206 JUMP JUMPDEST PUSH3 0x11E8 JUMP JUMPDEST SWAP1 POP DUP3 DUP2 MSTORE PUSH1 0x20 DUP2 ADD DUP5 DUP5 DUP5 ADD GT ISZERO PUSH3 0x127E JUMPI PUSH3 0x127D PUSH3 0x1181 JUMP JUMPDEST JUMPDEST PUSH3 0x128B DUP5 DUP3 DUP6 PUSH3 0x123B JUMP JUMPDEST POP SWAP4 SWAP3 POP POP POP JUMP JUMPDEST PUSH0 DUP3 PUSH1 0x1F DUP4 ADD SLT PUSH3 0x12AA JUMPI PUSH3 0x12A9 PUSH3 0x117D JUMP JUMPDEST JUMPDEST DUP2 CALLDATALOAD PUSH3 0x12BC DUP5 DUP3 PUSH1 0x20 DUP7 ADD PUSH3 0x1249 JUMP JUMPDEST SWAP2 POP POP SWAP3 SWAP2 POP POP JUMP JUMPDEST PUSH0 DUP1 PUSH0 PUSH1 0x60 DUP5 DUP7 SUB SLT ISZERO PUSH3 0x12DF JUMPI PUSH3 0x12DE PUSH3 0xF19 JUMP JUMPDEST JUMPDEST PUSH0 DUP5 ADD CALLDATALOAD PUSH8 0xFFFFFFFFFFFFFFFF DUP2 GT ISZERO PUSH3 0x12FF JUMPI PUSH3 0x12FE PUSH3 0xF1D JUMP JUMPDEST JUMPDEST PUSH3 0x130D DUP7 DUP3 DUP8 ADD PUSH3 0x1293 JUMP JUMPDEST SWAP4 POP POP PUSH1 0x20 PUSH3 0x1320 DUP7 DUP3 DUP8 ADD PUSH3 0xF43 JUMP JUMPDEST SWAP3 POP POP PUSH1 0x40 PUSH3 0x1333 DUP7 DUP3 DUP8 ADD PUSH3 0xF43 JUMP JUMPDEST SWAP2 POP POP SWAP3 POP SWAP3 POP SWAP3 JUMP JUMPDEST PUSH0 PUSH1 0x20 DUP3 DUP5 SUB SLT ISZERO PUSH3 0x1355 JUMPI PUSH3 0x1354 PUSH3 0xF19 JUMP JUMPDEST JUMPDEST PUSH0 PUSH3 0x1364 DUP5 DUP3 DUP6 ADD PUSH3 0x1107 JUMP JUMPDEST SWAP2 POP POP SWAP3 SWAP2 POP POP JUMP JUMPDEST PUSH0 DUP1 PUSH1 0x40 DUP4 DUP6 SUB SLT ISZERO PUSH3 0x1386 JUMPI PUSH3 0x1385 PUSH3 0xF19 JUMP JUMPDEST JUMPDEST PUSH0 PUSH3 0x1395 DUP6 DUP3 DUP7 ADD PUSH3 0xF43 JUMP JUMPDEST SWAP3 POP POP PUSH1 0x20 PUSH3 0x13A8 DUP6 DUP3 DUP7 ADD PUSH3 0xF43 JUMP JUMPDEST SWAP2 POP POP SWAP3 POP SWAP3 SWAP1 POP JUMP JUMPDEST PUSH3 0x13BD DUP2 PUSH3 0x10DB JUMP JUMPDEST DUP3 MSTORE POP POP JUMP JUMPDEST PUSH0 PUSH1 0x20 DUP3 ADD SWAP1 POP PUSH3 0x13D8 PUSH0 DUP4 ADD DUP5 PUSH3 0x13B2 JUMP JUMPDEST SWAP3 SWAP2 POP POP JUMP JUMPDEST PUSH32 0x43616D706169676E20646F6573206E6F74206578697374000000000000000000 PUSH0 DUP3 ADD MSTORE POP JUMP JUMPDEST PUSH0 PUSH3 0x1414 PUSH1 0x17 DUP4 PUSH3 0xF93 JUMP JUMPDEST SWAP2 POP PUSH3 0x1421 DUP3 PUSH3 0x13DE JUMP JUMPDEST PUSH1 0x20 DUP3 ADD SWAP1 POP SWAP2 SWAP1 POP JUMP JUMPDEST PUSH0 PUSH1 0x20 DUP3 ADD SWAP1 POP DUP2 DUP2 SUB PUSH0 DUP4 ADD MSTORE PUSH3 0x1445 DUP2 PUSH3 0x1406 JUMP JUMPDEST SWAP1 POP SWAP2 SWAP1 POP JUMP JUMPDEST PUSH32 0x43616D706169676E2068617320616C7265616479207265616368656420697473 PUSH0 DUP3 ADD MSTORE PUSH32 0x2066756E64696E6720676F616C00000000000000000000000000000000000000 PUSH1 0x20 DUP3 ADD MSTORE POP JUMP JUMPDEST PUSH0 PUSH3 0x14A8 PUSH1 0x2D DUP4 PUSH3 0xF93 JUMP JUMPDEST SWAP2 POP PUSH3 0x14B5 DUP3 PUSH3 0x144C JUMP JUMPDEST PUSH1 0x40 DUP3 ADD SWAP1 POP SWAP2 SWAP1 POP JUMP JUMPDEST PUSH0 PUSH1 0x20 DUP3 ADD SWAP1 POP DUP2 DUP2 SUB PUSH0 DUP4 ADD MSTORE PUSH3 0x14D9 DUP2 PUSH3 0x149A JUMP JUMPDEST SWAP1 POP SWAP2 SWAP1 POP JUMP JUMPDEST PUSH32 0x436F6E747269627574696F6E20616D6F756E74206D7573742062652067726561 PUSH0 DUP3 ADD MSTORE PUSH32 0x746572207468616E207A65726F00000000000000000000000000000000000000 PUSH1 0x20 DUP3 ADD MSTORE POP JUMP JUMPDEST PUSH0 PUSH3 0x153C PUSH1 0x2D DUP4 PUSH3 0xF93 JUMP JUMPDEST SWAP2 POP PUSH3 0x1549 DUP3 PUSH3 0x14E0 JUMP JUMPDEST PUSH1 0x40 DUP3 ADD SWAP1 POP SWAP2 SWAP1 POP JUMP JUMPDEST PUSH0 PUSH1 0x20 DUP3 ADD SWAP1 POP DUP2 DUP2 SUB PUSH0 DUP4 ADD MSTORE PUSH3 0x156D DUP2 PUSH3 0x152E JUMP JUMPDEST SWAP1 POP SWAP2 SWAP1 POP JUMP JUMPDEST PUSH32 0x4E487B7100000000000000000000000000000000000000000000000000000000 PUSH0 MSTORE PUSH1 0x11 PUSH1 0x4 MSTORE PUSH1 0x24 PUSH0 REVERT JUMPDEST PUSH0 PUSH3 0x15AD DUP3 PUSH3 0xF21 JUMP JUMPDEST SWAP2 POP PUSH3 0x15BA DUP4 PUSH3 0xF21 JUMP JUMPDEST SWAP3 POP DUP3 DUP3 ADD SWAP1 POP DUP1 DUP3 GT ISZERO PUSH3 0x15D5 JUMPI PUSH3 0x15D4 PUSH3 0x1574 JUMP JUMPDEST JUMPDEST SWAP3 SWAP2 POP POP JUMP JUMPDEST PUSH0 PUSH3 0x15E7 DUP3 PUSH3 0xF21 JUMP JUMPDEST SWAP2 POP PUSH3 0x15F4 DUP4 PUSH3 0xF21 JUMP JUMPDEST SWAP3 POP DUP3 DUP3 SUB SWAP1 POP DUP2 DUP2 GT ISZERO PUSH3 0x160F JUMPI PUSH3 0x160E PUSH3 0x1574 JUMP JUMPDEST JUMPDEST SWAP3 SWAP2 POP POP JUMP JUMPDEST PUSH0 PUSH1 0x60 DUP3 ADD SWAP1 POP PUSH3 0x162A PUSH0 DUP4 ADD DUP7 PUSH3 0x101D JUMP JUMPDEST PUSH3 0x1639 PUSH1 0x20 DUP4 ADD DUP6 PUSH3 0x13B2 JUMP JUMPDEST PUSH3 0x1648 PUSH1 0x40 DUP4 ADD DUP5 PUSH3 0x101D JUMP JUMPDEST SWAP5 SWAP4 POP POP POP POP JUMP JUMPDEST PUSH32 0x4E487B7100000000000000000000000000000000000000000000000000000000 PUSH0 MSTORE PUSH1 0x22 PUSH1 0x4 MSTORE PUSH1 0x24 PUSH0 REVERT JUMPDEST PUSH0 PUSH1 0x2 DUP3 DIV SWAP1 POP PUSH1 0x1 DUP3 AND DUP1 PUSH3 0x1695 JUMPI PUSH1 0x7F DUP3 AND SWAP2 POP JUMPDEST PUSH1 0x20 DUP3 LT DUP2 SUB PUSH3 0x16AB JUMPI PUSH3 0x16AA PUSH3 0x1650 JUMP JUMPDEST JUMPDEST POP SWAP2 SWAP1 POP JUMP JUMPDEST PUSH32 0x54617267657420616D6F756E74206D7573742062652067726561746572207468 PUSH0 DUP3 ADD MSTORE PUSH32 0x616E207A65726F00000000000000000000000000000000000000000000000000 PUSH1 0x20 DUP3 ADD MSTORE POP JUMP JUMPDEST PUSH0 PUSH3 0x170D PUSH1 0x27 DUP4 PUSH3 0xF93 JUMP JUMPDEST SWAP2 POP PUSH3 0x171A DUP3 PUSH3 0x16B1 JUMP JUMPDEST PUSH1 0x40 DUP3 ADD SWAP1 POP SWAP2 SWAP1 POP JUMP JUMPDEST PUSH0 PUSH1 0x20 DUP3 ADD SWAP1 POP DUP2 DUP2 SUB PUSH0 DUP4 ADD MSTORE PUSH3 0x173E DUP2 PUSH3 0x16FF JUMP JUMPDEST SWAP1 POP SWAP2 SWAP1 POP JUMP JUMPDEST PUSH32 0x54696D65206475726174696F6E206D75737420626520696E2074686520667574 PUSH0 DUP3 ADD MSTORE PUSH32 0x7572650000000000000000000000000000000000000000000000000000000000 PUSH1 0x20 DUP3 ADD MSTORE POP JUMP JUMPDEST PUSH0 PUSH3 0x17A1 PUSH1 0x23 DUP4 PUSH3 0xF93 JUMP JUMPDEST SWAP2 POP PUSH3 0x17AE DUP3 PUSH3 0x1745 JUMP JUMPDEST PUSH1 0x40 DUP3 ADD SWAP1 POP SWAP2 SWAP1 POP JUMP JUMPDEST PUSH0 PUSH1 0x20 DUP3 ADD SWAP1 POP DUP2 DUP2 SUB PUSH0 DUP4 ADD MSTORE PUSH3 0x17D2 DUP2 PUSH3 0x1793 JUMP JUMPDEST SWAP1 POP SWAP2 SWAP1 POP JUMP JUMPDEST PUSH0 PUSH3 0x17E5 DUP3 PUSH3 0xF21 JUMP JUMPDEST SWAP2 POP PUSH32 0xFFFFFFFFFFFFFFFFFFFFFFFFFFFFFFFFFFFFFFFFFFFFFFFFFFFFFFFFFFFFFFFF DUP3 SUB PUSH3 0x181A JUMPI PUSH3 0x1819 PUSH3 0x1574 JUMP JUMPDEST JUMPDEST PUSH1 0x1 DUP3 ADD SWAP1 POP SWAP2 SWAP1 POP JUMP JUMPDEST PUSH0 DUP2 SWAP1 POP DUP2 PUSH0 MSTORE PUSH1 0x20 PUSH0 KECCAK256 SWAP1 POP SWAP2 SWAP1 POP JUMP JUMPDEST PUSH0 PUSH1 0x20 PUSH1 0x1F DUP4 ADD DIV SWAP1 POP SWAP2 SWAP1 POP JUMP JUMPDEST PUSH0 DUP3 DUP3 SHL SWAP1 POP SWAP3 SWAP2 POP POP JUMP JUMPDEST PUSH0 PUSH1 0x8 DUP4 MUL PUSH3 0x1883 PUSH32 0xFFFFFFFFFFFFFFFFFFFFFFFFFFFFFFFFFFFFFFFFFFFFFFFFFFFFFFFFFFFFFFFF DUP3 PUSH3 0x1846 JUMP JUMPDEST PUSH3 0x188F DUP7 DUP4 PUSH3 0x1846 JUMP JUMPDEST SWAP6 POP DUP1 NOT DUP5 AND SWAP4 POP DUP1 DUP7 AND DUP5 OR SWAP3 POP POP POP SWAP4 SWAP3 POP POP POP JUMP JUMPDEST PUSH0 DUP2 SWAP1 POP SWAP2 SWAP1 POP JUMP JUMPDEST PUSH0 PUSH3 0x18D0 PUSH3 0x18CA PUSH3 0x18C4 DUP5 PUSH3 0xF21 JUMP JUMPDEST PUSH3 0x18A7 JUMP JUMPDEST PUSH3 0xF21 JUMP JUMPDEST SWAP1 POP SWAP2 SWAP1 POP JUMP JUMPDEST PUSH0 DUP2 SWAP1 POP SWAP2 SWAP1 POP JUMP JUMPDEST PUSH3 0x18EB DUP4 PUSH3 0x18B0 JUMP JUMPDEST PUSH3 0x1903 PUSH3 0x18FA DUP3 PUSH3 0x18D7 JUMP JUMPDEST DUP5 DUP5 SLOAD PUSH3 0x1852 JUMP JUMPDEST DUP3 SSTORE POP POP POP POP JUMP JUMPDEST PUSH0 SWAP1 JUMP JUMPDEST PUSH3 0x1919 PUSH3 0x190B JUMP JUMPDEST PUSH3 0x1926 DUP2 DUP5 DUP5 PUSH3 0x18E0 JUMP JUMPDEST POP POP POP JUMP JUMPDEST JUMPDEST DUP2 DUP2 LT ISZERO PUSH3 0x194D JUMPI PUSH3 0x1941 PUSH0 DUP3 PUSH3 0x190F JUMP JUMPDEST PUSH1 0x1 DUP2 ADD SWAP1 POP PUSH3 0x192C JUMP JUMPDEST POP POP JUMP JUMPDEST PUSH1 0x1F DUP3 GT ISZERO PUSH3 0x199C JUMPI PUSH3 0x1966 DUP2 PUSH3 0x1825 JUMP JUMPDEST PUSH3 0x1971 DUP5 PUSH3 0x1837 JUMP JUMPDEST DUP2 ADD PUSH1 0x20 DUP6 LT ISZERO PUSH3 0x1981 JUMPI DUP2 SWAP1 POP JUMPDEST PUSH3 0x1999 PUSH3 0x1990 DUP6 PUSH3 0x1837 JUMP JUMPDEST DUP4 ADD DUP3 PUSH3 0x192B JUMP JUMPDEST POP POP JUMPDEST POP POP POP JUMP JUMPDEST PUSH0 DUP3 DUP3 SHR SWAP1 POP SWAP3 SWAP2 POP POP JUMP JUMPDEST PUSH0 PUSH3 0x19BE PUSH0 NOT DUP5 PUSH1 0x8 MUL PUSH3 0x19A1 JUMP JUMPDEST NOT DUP1 DUP4 AND SWAP2 POP POP SWAP3 SWAP2 POP POP JUMP JUMPDEST PUSH0 PUSH3 0x19D8 DUP4 DUP4 PUSH3 0x19AD JUMP JUMPDEST SWAP2 POP DUP3 PUSH1 0x2 MUL DUP3 OR SWAP1 POP SWAP3 SWAP2 POP POP JUMP JUMPDEST PUSH3 0x19F3 DUP3 PUSH3 0xF89 JUMP JUMPDEST PUSH8 0xFFFFFFFFFFFFFFFF DUP2 GT ISZERO PUSH3 0x1A0F JUMPI PUSH3 0x1A0E PUSH3 0x1185 JUMP JUMPDEST JUMPDEST PUSH3 0x1A1B DUP3 SLOAD PUSH3 0x167D JUMP JUMPDEST PUSH3 0x1A28 DUP3 DUP3 DUP6 PUSH3 0x1951 JUMP JUMPDEST PUSH0 PUSH1 0x20 SWAP1 POP PUSH1 0x1F DUP4 GT PUSH1 0x1 DUP2 EQ PUSH3 0x1A5E JUMPI PUSH0 DUP5 ISZERO PUSH3 0x1A49 JUMPI DUP3 DUP8 ADD MLOAD SWAP1 POP JUMPDEST PUSH3 0x1A55 DUP6 DUP3 PUSH3 0x19CB JUMP JUMPDEST DUP7 SSTORE POP PUSH3 0x1AC4 JUMP JUMPDEST PUSH1 0x1F NOT DUP5 AND PUSH3 0x1A6E DUP7 PUSH3 0x1825 JUMP JUMPDEST PUSH0 JUMPDEST DUP3 DUP2 LT ISZERO PUSH3 0x1A97 JUMPI DUP5 DUP10 ADD MLOAD DUP3 SSTORE PUSH1 0x1 DUP3 ADD SWAP2 POP PUSH1 0x20 DUP6 ADD SWAP5 POP PUSH1 0x20 DUP2 ADD SWAP1 POP PUSH3 0x1A70 JUMP JUMPDEST DUP7 DUP4 LT ISZERO PUSH3 0x1AB7 JUMPI DUP5 DUP10 ADD MLOAD PUSH3 0x1AB3 PUSH1 0x1F DUP10 AND DUP3 PUSH3 0x19AD JUMP JUMPDEST DUP4 SSTORE POP JUMPDEST PUSH1 0x1 PUSH1 0x2 DUP9 MUL ADD DUP9 SSTORE POP POP POP JUMPDEST POP POP POP POP POP POP JUMP JUMPDEST PUSH0 PUSH1 0x80 DUP3 ADD SWAP1 POP PUSH3 0x1AE1 PUSH0 DUP4 ADD DUP8 PUSH3 0x101D JUMP JUMPDEST DUP2 DUP2 SUB PUSH1 0x20 DUP4 ADD MSTORE PUSH3 0x1AF5 DUP2 DUP7 PUSH3 0xFDD JUMP JUMPDEST SWAP1 POP PUSH3 0x1B06 PUSH1 0x40 DUP4 ADD DUP6 PUSH3 0x101D JUMP JUMPDEST PUSH3 0x1B15 PUSH1 0x60 DUP4 ADD DUP5 PUSH3 0x101D JUMP JUMPDEST SWAP6 SWAP5 POP POP POP POP POP JUMP JUMPDEST PUSH32 0x43616D706169676E206861732072656163686564206974732066756E64696E67 PUSH0 DUP3 ADD MSTORE PUSH32 0x20676F616C000000000000000000000000000000000000000000000000000000 PUSH1 0x20 DUP3 ADD MSTORE POP JUMP JUMPDEST PUSH0 PUSH3 0x1B7A PUSH1 0x25 DUP4 PUSH3 0xF93 JUMP JUMPDEST SWAP2 POP PUSH3 0x1B87 DUP3 PUSH3 0x1B1E JUMP JUMPDEST PUSH1 0x40 DUP3 ADD SWAP1 POP SWAP2 SWAP1 POP JUMP JUMPDEST PUSH0 PUSH1 0x20 DUP3 ADD SWAP1 POP DUP2 DUP2 SUB PUSH0 DUP4 ADD MSTORE PUSH3 0x1BAB DUP2 PUSH3 0x1B6C JUMP JUMPDEST SWAP1 POP SWAP2 SWAP1 POP JUMP JUMPDEST PUSH32 0x4E6F20636F6E747269627574696F6E20666F756E6420666F7220746865206361 PUSH0 DUP3 ADD MSTORE PUSH32 0x6D706169676E0000000000000000000000000000000000000000000000000000 PUSH1 0x20 DUP3 ADD MSTORE POP JUMP JUMPDEST PUSH0 PUSH3 0x1C0E PUSH1 0x26 DUP4 PUSH3 0xF93 JUMP JUMPDEST SWAP2 POP PUSH3 0x1C1B DUP3 PUSH3 0x1BB2 JUMP JUMPDEST PUSH1 0x40 DUP3 ADD SWAP1 POP SWAP2 SWAP1 POP JUMP JUMPDEST PUSH0 PUSH1 0x20 DUP3 ADD SWAP1 POP DUP2 DUP2 SUB PUSH0 DUP4 ADD MSTORE PUSH3 0x1C3F DUP2 PUSH3 0x1C00 JUMP JUMPDEST SWAP1 POP SWAP2 SWAP1 POP JUMP JUMPDEST PUSH32 0x46756E64696E6720676F616C206E6F7420726561636865640000000000000000 PUSH0 DUP3 ADD MSTORE POP JUMP JUMPDEST PUSH0 PUSH3 0x1C7C PUSH1 0x18 DUP4 PUSH3 0xF93 JUMP JUMPDEST SWAP2 POP PUSH3 0x1C89 DUP3 PUSH3 0x1C46 JUMP JUMPDEST PUSH1 0x20 DUP3 ADD SWAP1 POP SWAP2 SWAP1 POP JUMP JUMPDEST PUSH0 PUSH1 0x20 DUP3 ADD SWAP1 POP DUP2 DUP2 SUB PUSH0 DUP4 ADD MSTORE PUSH3 0x1CAD DUP2 PUSH3 0x1C6E JUMP JUMPDEST SWAP1 POP SWAP2 SWAP1 POP JUMP JUMPDEST PUSH0 PUSH3 0x1CC0 DUP3 PUSH3 0xF21 JUMP JUMPDEST SWAP2 POP PUSH3 0x1CCD DUP4 PUSH3 0xF21 JUMP JUMPDEST SWAP3 POP DUP3 DUP3 MUL PUSH3 0x1CDD DUP2 PUSH3 0xF21 JUMP JUMPDEST SWAP2 POP DUP3 DUP3 DIV DUP5 EQ DUP4 ISZERO OR PUSH3 0x1CF7 JUMPI PUSH3 0x1CF6 PUSH3 0x1574 JUMP JUMPDEST JUMPDEST POP SWAP3 SWAP2 POP POP JUMP JUMPDEST PUSH32 0x4E487B7100000000000000000000000000000000000000000000000000000000 PUSH0 MSTORE PUSH1 0x12 PUSH1 0x4 MSTORE PUSH1 0x24 PUSH0 REVERT JUMPDEST PUSH0 PUSH3 0x1D37 DUP3 PUSH3 0xF21 JUMP JUMPDEST SWAP2 POP PUSH3 0x1D44 DUP4 PUSH3 0xF21 JUMP JUMPDEST SWAP3 POP DUP3 PUSH3 0x1D57 JUMPI PUSH3 0x1D56 PUSH3 0x1CFE JUMP JUMPDEST JUMPDEST DUP3 DUP3 DIV SWAP1 POP SWAP3 SWAP2 POP POP JUMP JUMPDEST PUSH32 0x4E487B7100000000000000000000000000000000000000000000000000000000 PUSH0 MSTORE PUSH1 0x32 PUSH1 0x4 MSTORE PUSH1 0x24 PUSH0 REVERT JUMPDEST PUSH0 PUSH1 0x40 DUP3 ADD SWAP1 POP PUSH3 0x1DA4 PUSH0 DUP4 ADD DUP6 PUSH3 0x13B2 JUMP JUMPDEST PUSH3 0x1DB3 PUSH1 0x20 DUP4 ADD DUP5 PUSH3 0x101D JUMP JUMPDEST SWAP4 SWAP3 POP POP POP JUMP JUMPDEST PUSH3 0x1DC5 DUP2 PUSH3 0x102E JUMP JUMPDEST DUP2 EQ PUSH3 0x1DD0 JUMPI PUSH0 DUP1 REVERT JUMPDEST POP JUMP JUMPDEST PUSH0 DUP2 MLOAD SWAP1 POP PUSH3 0x1DE3 DUP2 PUSH3 0x1DBA JUMP JUMPDEST SWAP3 SWAP2 POP POP JUMP JUMPDEST PUSH0 PUSH1 0x20 DUP3 DUP5 SUB SLT ISZERO PUSH3 0x1E01 JUMPI PUSH3 0x1E00 PUSH3 0xF19 JUMP JUMPDEST JUMPDEST PUSH0 PUSH3 0x1E10 DUP5 DUP3 DUP6 ADD PUSH3 0x1DD3 JUMP JUMPDEST SWAP2 POP POP SWAP3 SWAP2 POP POP JUMP INVALID PUSH1 0x80 PUSH1 0x40 MSTORE CALLVALUE DUP1 ISZERO PUSH3 0x10 JUMPI PUSH0 DUP1 REVERT JUMPDEST POP PUSH1 0x40 MLOAD PUSH3 0xBCF CODESIZE SUB DUP1 PUSH3 0xBCF DUP4 CODECOPY DUP2 DUP2 ADD PUSH1 0x40 MSTORE DUP2 ADD SWAP1 PUSH3 0x36 SWAP2 SWAP1 PUSH3 0x14F JUMP JUMPDEST PUSH1 0x40 MLOAD DUP1 PUSH1 0x40 ADD PUSH1 0x40 MSTORE DUP1 PUSH1 0x7 DUP2 MSTORE PUSH1 0x20 ADD PUSH32 0x4D79546F6B656E00000000000000000000000000000000000000000000000000 DUP2 MSTORE POP PUSH0 SWAP1 DUP2 PUSH3 0x7B SWAP2 SWAP1 PUSH3 0x3DA JUMP JUMPDEST POP PUSH1 0x40 MLOAD DUP1 PUSH1 0x40 ADD PUSH1 0x40 MSTORE DUP1 PUSH1 0x3 DUP2 MSTORE PUSH1 0x20 ADD PUSH32 0x4D544B0000000000000000000000000000000000000000000000000000000000 DUP2 MSTORE POP PUSH1 0x1 SWAP1 DUP2 PUSH3 0xC2 SWAP2 SWAP1 PUSH3 0x3DA JUMP JUMPDEST POP DUP1 PUSH1 0x2 DUP2 SWAP1 SSTORE POP DUP1 PUSH1 0x3 PUSH0 CALLER PUSH20 0xFFFFFFFFFFFFFFFFFFFFFFFFFFFFFFFFFFFFFFFF AND PUSH20 0xFFFFFFFFFFFFFFFFFFFFFFFFFFFFFFFFFFFFFFFF AND DUP2 MSTORE PUSH1 0x20 ADD SWAP1 DUP2 MSTORE PUSH1 0x20 ADD PUSH0 KECCAK256 DUP2 SWAP1 SSTORE POP POP PUSH3 0x4BE JUMP JUMPDEST PUSH0 DUP1 REVERT JUMPDEST PUSH0 DUP2 SWAP1 POP SWAP2 SWAP1 POP JUMP JUMPDEST PUSH3 0x12B DUP2 PUSH3 0x117 JUMP JUMPDEST DUP2 EQ PUSH3 0x136 JUMPI PUSH0 DUP1 REVERT JUMPDEST POP JUMP JUMPDEST PUSH0 DUP2 MLOAD SWAP1 POP PUSH3 0x149 DUP2 PUSH3 0x120 JUMP JUMPDEST SWAP3 SWAP2 POP POP JUMP JUMPDEST PUSH0 PUSH1 0x20 DUP3 DUP5 SUB SLT ISZERO PUSH3 0x167 JUMPI PUSH3 0x166 PUSH3 0x113 JUMP JUMPDEST JUMPDEST PUSH0 PUSH3 0x176 DUP5 DUP3 DUP6 ADD PUSH3 0x139 JUMP JUMPDEST SWAP2 POP POP SWAP3 SWAP2 POP POP JUMP JUMPDEST PUSH0 DUP2 MLOAD SWAP1 POP SWAP2 SWAP1 POP JUMP JUMPDEST PUSH32 0x4E487B7100000000000000000000000000000000000000000000000000000000 PUSH0 MSTORE PUSH1 0x41 PUSH1 0x4 MSTORE PUSH1 0x24 PUSH0 REVERT JUMPDEST PUSH32 0x4E487B7100000000000000000000000000000000000000000000000000000000 PUSH0 MSTORE PUSH1 0x22 PUSH1 0x4 MSTORE PUSH1 0x24 PUSH0 REVERT JUMPDEST PUSH0 PUSH1 0x2 DUP3 DIV SWAP1 POP PUSH1 0x1 DUP3 AND DUP1 PUSH3 0x1FB JUMPI PUSH1 0x7F DUP3 AND SWAP2 POP JUMPDEST PUSH1 0x20 DUP3 LT DUP2 SUB PUSH3 0x211 JUMPI PUSH3 0x210 PUSH3 0x1B6 JUMP JUMPDEST JUMPDEST POP SWAP2 SWAP1 POP JUMP JUMPDEST PUSH0 DUP2 SWAP1 POP DUP2 PUSH0 MSTORE PUSH1 0x20 PUSH0 KECCAK256 SWAP1 POP SWAP2 SWAP1 POP JUMP JUMPDEST PUSH0 PUSH1 0x20 PUSH1 0x1F DUP4 ADD DIV SWAP1 POP SWAP2 SWAP1 POP JUMP JUMPDEST PUSH0 DUP3 DUP3 SHL SWAP1 POP SWAP3 SWAP2 POP POP JUMP JUMPDEST PUSH0 PUSH1 0x8 DUP4 MUL PUSH3 0x275 PUSH32 0xFFFFFFFFFFFFFFFFFFFFFFFFFFFFFFFFFFFFFFFFFFFFFFFFFFFFFFFFFFFFFFFF DUP3 PUSH3 0x238 JUMP JUMPDEST PUSH3 0x281 DUP7 DUP4 PUSH3 0x238 JUMP JUMPDEST SWAP6 POP DUP1 NOT DUP5 AND SWAP4 POP DUP1 DUP7 AND DUP5 OR SWAP3 POP POP POP SWAP4 SWAP3 POP POP POP JUMP JUMPDEST PUSH0 DUP2 SWAP1 POP SWAP2 SWAP1 POP JUMP JUMPDEST PUSH0 PUSH3 0x2C2 PUSH3 0x2BC PUSH3 0x2B6 DUP5 PUSH3 0x117 JUMP JUMPDEST PUSH3 0x299 JUMP JUMPDEST PUSH3 0x117 JUMP JUMPDEST SWAP1 POP SWAP2 SWAP1 POP JUMP JUMPDEST PUSH0 DUP2 SWAP1 POP SWAP2 SWAP1 POP JUMP JUMPDEST PUSH3 0x2DD DUP4 PUSH3 0x2A2 JUMP JUMPDEST PUSH3 0x2F5 PUSH3 0x2EC DUP3 PUSH3 0x2C9 JUMP JUMPDEST DUP5 DUP5 SLOAD PUSH3 0x244 JUMP JUMPDEST DUP3 SSTORE POP POP POP POP JUMP JUMPDEST PUSH0 SWAP1 JUMP JUMPDEST PUSH3 0x30B PUSH3 0x2FD JUMP JUMPDEST PUSH3 0x318 DUP2 DUP5 DUP5 PUSH3 0x2D2 JUMP JUMPDEST POP POP POP JUMP JUMPDEST JUMPDEST DUP2 DUP2 LT ISZERO PUSH3 0x33F JUMPI PUSH3 0x333 PUSH0 DUP3 PUSH3 0x301 JUMP JUMPDEST PUSH1 0x1 DUP2 ADD SWAP1 POP PUSH3 0x31E JUMP JUMPDEST POP POP JUMP JUMPDEST PUSH1 0x1F DUP3 GT ISZERO PUSH3 0x38E JUMPI PUSH3 0x358 DUP2 PUSH3 0x217 JUMP JUMPDEST PUSH3 0x363 DUP5 PUSH3 0x229 JUMP JUMPDEST DUP2 ADD PUSH1 0x20 DUP6 LT ISZERO PUSH3 0x373 JUMPI DUP2 SWAP1 POP JUMPDEST PUSH3 0x38B PUSH3 0x382 DUP6 PUSH3 0x229 JUMP JUMPDEST DUP4 ADD DUP3 PUSH3 0x31D JUMP JUMPDEST POP POP JUMPDEST POP POP POP JUMP JUMPDEST PUSH0 DUP3 DUP3 SHR SWAP1 POP SWAP3 SWAP2 POP POP JUMP JUMPDEST PUSH0 PUSH3 0x3B0 PUSH0 NOT DUP5 PUSH1 0x8 MUL PUSH3 0x393 JUMP JUMPDEST NOT DUP1 DUP4 AND SWAP2 POP POP SWAP3 SWAP2 POP POP JUMP JUMPDEST PUSH0 PUSH3 0x3CA DUP4 DUP4 PUSH3 0x39F JUMP JUMPDEST SWAP2 POP DUP3 PUSH1 0x2 MUL DUP3 OR SWAP1 POP SWAP3 SWAP2 POP POP JUMP JUMPDEST PUSH3 0x3E5 DUP3 PUSH3 0x17F JUMP JUMPDEST PUSH8 0xFFFFFFFFFFFFFFFF DUP2 GT ISZERO PUSH3 0x401 JUMPI PUSH3 0x400 PUSH3 0x189 JUMP JUMPDEST JUMPDEST PUSH3 0x40D DUP3 SLOAD PUSH3 0x1E3 JUMP JUMPDEST PUSH3 0x41A DUP3 DUP3 DUP6 PUSH3 0x343 JUMP JUMPDEST PUSH0 PUSH1 0x20 SWAP1 POP PUSH1 0x1F DUP4 GT PUSH1 0x1 DUP2 EQ PUSH3 0x450 JUMPI PUSH0 DUP5 ISZERO PUSH3 0x43B JUMPI DUP3 DUP8 ADD MLOAD SWAP1 POP JUMPDEST PUSH3 0x447 DUP6 DUP3 PUSH3 0x3BD JUMP JUMPDEST DUP7 SSTORE POP PUSH3 0x4B6 JUMP JUMPDEST PUSH1 0x1F NOT DUP5 AND PUSH3 0x460 DUP7 PUSH3 0x217 JUMP JUMPDEST PUSH0 JUMPDEST DUP3 DUP2 LT ISZERO PUSH3 0x489 JUMPI DUP5 DUP10 ADD MLOAD DUP3 SSTORE PUSH1 0x1 DUP3 ADD SWAP2 POP PUSH1 0x20 DUP6 ADD SWAP5 POP PUSH1 0x20 DUP2 ADD SWAP1 POP PUSH3 0x462 JUMP JUMPDEST DUP7 DUP4 LT ISZERO PUSH3 0x4A9 JUMPI DUP5 DUP10 ADD MLOAD PUSH3 0x4A5 PUSH1 0x1F DUP10 AND DUP3 PUSH3 0x39F JUMP JUMPDEST DUP4 SSTORE POP JUMPDEST PUSH1 0x1 PUSH1 0x2 DUP9 MUL ADD DUP9 SSTORE POP POP POP JUMPDEST POP POP POP POP POP POP JUMP JUMPDEST PUSH2 0x703 DUP1 PUSH3 0x4CC PUSH0 CODECOPY PUSH0 RETURN INVALID PUSH1 0x80 PUSH1 0x40 MSTORE CALLVALUE DUP1 ISZERO PUSH2 0xF JUMPI PUSH0 DUP1 REVERT JUMPDEST POP PUSH1 0x4 CALLDATASIZE LT PUSH2 0x55 JUMPI PUSH0 CALLDATALOAD PUSH1 0xE0 SHR DUP1 PUSH4 0x6FDDE03 EQ PUSH2 0x59 JUMPI DUP1 PUSH4 0x18160DDD EQ PUSH2 0x77 JUMPI DUP1 PUSH4 0x70A08231 EQ PUSH2 0x95 JUMPI DUP1 PUSH4 0x95D89B41 EQ PUSH2 0xC5 JUMPI DUP1 PUSH4 0xA9059CBB EQ PUSH2 0xE3 JUMPI JUMPDEST PUSH0 DUP1 REVERT JUMPDEST PUSH2 0x61 PUSH2 0x113 JUMP JUMPDEST PUSH1 0x40 MLOAD PUSH2 0x6E SWAP2 SWAP1 PUSH2 0x400 JUMP JUMPDEST PUSH1 0x40 MLOAD DUP1 SWAP2 SUB SWAP1 RETURN JUMPDEST PUSH2 0x7F PUSH2 0x19E JUMP JUMPDEST PUSH1 0x40 MLOAD PUSH2 0x8C SWAP2 SWAP1 PUSH2 0x438 JUMP JUMPDEST PUSH1 0x40 MLOAD DUP1 SWAP2 SUB SWAP1 RETURN JUMPDEST PUSH2 0xAF PUSH1 0x4 DUP1 CALLDATASIZE SUB DUP2 ADD SWAP1 PUSH2 0xAA SWAP2 SWAP1 PUSH2 0x4AF JUMP JUMPDEST PUSH2 0x1A4 JUMP JUMPDEST PUSH1 0x40 MLOAD PUSH2 0xBC SWAP2 SWAP1 PUSH2 0x438 JUMP JUMPDEST PUSH1 0x40 MLOAD DUP1 SWAP2 SUB SWAP1 RETURN JUMPDEST PUSH2 0xCD PUSH2 0x1B9 JUMP JUMPDEST PUSH1 0x40 MLOAD PUSH2 0xDA SWAP2 SWAP1 PUSH2 0x400 JUMP JUMPDEST PUSH1 0x40 MLOAD DUP1 SWAP2 SUB SWAP1 RETURN JUMPDEST PUSH2 0xFD PUSH1 0x4 DUP1 CALLDATASIZE SUB DUP2 ADD SWAP1 PUSH2 0xF8 SWAP2 SWAP1 PUSH2 0x504 JUMP JUMPDEST PUSH2 0x245 JUMP JUMPDEST PUSH1 0x40 MLOAD PUSH2 0x10A SWAP2 SWAP1 PUSH2 0x55C JUMP JUMPDEST PUSH1 0x40 MLOAD DUP1 SWAP2 SUB SWAP1 RETURN JUMPDEST PUSH0 DUP1 SLOAD PUSH2 0x11F SWAP1 PUSH2 0x5A2 JUMP JUMPDEST DUP1 PUSH1 0x1F ADD PUSH1 0x20 DUP1 SWAP2 DIV MUL PUSH1 0x20 ADD PUSH1 0x40 MLOAD SWAP1 DUP2 ADD PUSH1 0x40 MSTORE DUP1 SWAP3 SWAP2 SWAP1 DUP2 DUP2 MSTORE PUSH1 0x20 ADD DUP3 DUP1 SLOAD PUSH2 0x14B SWAP1 PUSH2 0x5A2 JUMP JUMPDEST DUP1 ISZERO PUSH2 0x196 JUMPI DUP1 PUSH1 0x1F LT PUSH2 0x16D JUMPI PUSH2 0x100 DUP1 DUP4 SLOAD DIV MUL DUP4 MSTORE SWAP2 PUSH1 0x20 ADD SWAP2 PUSH2 0x196 JUMP JUMPDEST DUP3 ADD SWAP2 SWAP1 PUSH0 MSTORE PUSH1 0x20 PUSH0 KECCAK256 SWAP1 JUMPDEST DUP2 SLOAD DUP2 MSTORE SWAP1 PUSH1 0x1 ADD SWAP1 PUSH1 0x20 ADD DUP1 DUP4 GT PUSH2 0x179 JUMPI DUP3 SWAP1 SUB PUSH1 0x1F AND DUP3 ADD SWAP2 JUMPDEST POP POP POP POP POP DUP2 JUMP JUMPDEST PUSH1 0x2 SLOAD DUP2 JUMP JUMPDEST PUSH1 0x3 PUSH1 0x20 MSTORE DUP1 PUSH0 MSTORE PUSH1 0x40 PUSH0 KECCAK256 PUSH0 SWAP2 POP SWAP1 POP SLOAD DUP2 JUMP JUMPDEST PUSH1 0x1 DUP1 SLOAD PUSH2 0x1C6 SWAP1 PUSH2 0x5A2 JUMP JUMPDEST DUP1 PUSH1 0x1F ADD PUSH1 0x20 DUP1 SWAP2 DIV MUL PUSH1 0x20 ADD PUSH1 0x40 MLOAD SWAP1 DUP2 ADD PUSH1 0x40 MSTORE DUP1 SWAP3 SWAP2 SWAP1 DUP2 DUP2 MSTORE PUSH1 0x20 ADD DUP3 DUP1 SLOAD PUSH2 0x1F2 SWAP1 PUSH2 0x5A2 JUMP JUMPDEST DUP1 ISZERO PUSH2 0x23D JUMPI DUP1 PUSH1 0x1F LT PUSH2 0x214 JUMPI PUSH2 0x100 DUP1 DUP4 SLOAD DIV MUL DUP4 MSTORE SWAP2 PUSH1 0x20 ADD SWAP2 PUSH2 0x23D JUMP JUMPDEST DUP3 ADD SWAP2 SWAP1 PUSH0 MSTORE PUSH1 0x20 PUSH0 KECCAK256 SWAP1 JUMPDEST DUP2 SLOAD DUP2 MSTORE SWAP1 PUSH1 0x1 ADD SWAP1 PUSH1 0x20 ADD DUP1 DUP4 GT PUSH2 0x220 JUMPI DUP3 SWAP1 SUB PUSH1 0x1F AND DUP3 ADD SWAP2 JUMPDEST POP POP POP POP POP DUP2 JUMP JUMPDEST PUSH0 DUP2 PUSH1 0x3 PUSH0 CALLER PUSH20 0xFFFFFFFFFFFFFFFFFFFFFFFFFFFFFFFFFFFFFFFF AND PUSH20 0xFFFFFFFFFFFFFFFFFFFFFFFFFFFFFFFFFFFFFFFF AND DUP2 MSTORE PUSH1 0x20 ADD SWAP1 DUP2 MSTORE PUSH1 0x20 ADD PUSH0 KECCAK256 SLOAD LT ISZERO PUSH2 0x2C6 JUMPI PUSH1 0x40 MLOAD PUSH32 0x8C379A000000000000000000000000000000000000000000000000000000000 DUP2 MSTORE PUSH1 0x4 ADD PUSH2 0x2BD SWAP1 PUSH2 0x61C JUMP JUMPDEST PUSH1 0x40 MLOAD DUP1 SWAP2 SUB SWAP1 REVERT JUMPDEST DUP2 PUSH1 0x3 PUSH0 CALLER PUSH20 0xFFFFFFFFFFFFFFFFFFFFFFFFFFFFFFFFFFFFFFFF AND PUSH20 0xFFFFFFFFFFFFFFFFFFFFFFFFFFFFFFFFFFFFFFFF AND DUP2 MSTORE PUSH1 0x20 ADD SWAP1 DUP2 MSTORE PUSH1 0x20 ADD PUSH0 KECCAK256 PUSH0 DUP3 DUP3 SLOAD PUSH2 0x312 SWAP2 SWAP1 PUSH2 0x667 JUMP JUMPDEST SWAP3 POP POP DUP2 SWAP1 SSTORE POP DUP2 PUSH1 0x3 PUSH0 DUP6 PUSH20 0xFFFFFFFFFFFFFFFFFFFFFFFFFFFFFFFFFFFFFFFF AND PUSH20 0xFFFFFFFFFFFFFFFFFFFFFFFFFFFFFFFFFFFFFFFF AND DUP2 MSTORE PUSH1 0x20 ADD SWAP1 DUP2 MSTORE PUSH1 0x20 ADD PUSH0 KECCAK256 PUSH0 DUP3 DUP3 SLOAD PUSH2 0x365 SWAP2 SWAP1 PUSH2 0x69A JUMP JUMPDEST SWAP3 POP POP DUP2 SWAP1 SSTORE POP PUSH1 0x1 SWAP1 POP SWAP3 SWAP2 POP POP JUMP JUMPDEST PUSH0 DUP2 MLOAD SWAP1 POP SWAP2 SWAP1 POP JUMP JUMPDEST PUSH0 DUP3 DUP3 MSTORE PUSH1 0x20 DUP3 ADD SWAP1 POP SWAP3 SWAP2 POP POP JUMP JUMPDEST PUSH0 JUMPDEST DUP4 DUP2 LT ISZERO PUSH2 0x3AD JUMPI DUP1 DUP3 ADD MLOAD DUP2 DUP5 ADD MSTORE PUSH1 0x20 DUP2 ADD SWAP1 POP PUSH2 0x392 JUMP JUMPDEST PUSH0 DUP5 DUP5 ADD MSTORE POP POP POP POP JUMP JUMPDEST PUSH0 PUSH1 0x1F NOT PUSH1 0x1F DUP4 ADD AND SWAP1 POP SWAP2 SWAP1 POP JUMP JUMPDEST PUSH0 PUSH2 0x3D2 DUP3 PUSH2 0x376 JUMP JUMPDEST PUSH2 0x3DC DUP2 DUP6 PUSH2 0x380 JUMP JUMPDEST SWAP4 POP PUSH2 0x3EC DUP2 DUP6 PUSH1 0x20 DUP7 ADD PUSH2 0x390 JUMP JUMPDEST PUSH2 0x3F5 DUP2 PUSH2 0x3B8 JUMP JUMPDEST DUP5 ADD SWAP2 POP POP SWAP3 SWAP2 POP POP JUMP JUMPDEST PUSH0 PUSH1 0x20 DUP3 ADD SWAP1 POP DUP2 DUP2 SUB PUSH0 DUP4 ADD MSTORE PUSH2 0x418 DUP2 DUP5 PUSH2 0x3C8 JUMP JUMPDEST SWAP1 POP SWAP3 SWAP2 POP POP JUMP JUMPDEST PUSH0 DUP2 SWAP1 POP SWAP2 SWAP1 POP JUMP JUMPDEST PUSH2 0x432 DUP2 PUSH2 0x420 JUMP JUMPDEST DUP3 MSTORE POP POP JUMP JUMPDEST PUSH0 PUSH1 0x20 DUP3 ADD SWAP1 POP PUSH2 0x44B PUSH0 DUP4 ADD DUP5 PUSH2 0x429 JUMP JUMPDEST SWAP3 SWAP2 POP POP JUMP JUMPDEST PUSH0 DUP1 REVERT JUMPDEST PUSH0 PUSH20 0xFFFFFFFFFFFFFFFFFFFFFFFFFFFFFFFFFFFFFFFF DUP3 AND SWAP1 POP SWAP2 SWAP1 POP JUMP JUMPDEST PUSH0 PUSH2 0x47E DUP3 PUSH2 0x455 JUMP JUMPDEST SWAP1 POP SWAP2 SWAP1 POP JUMP JUMPDEST PUSH2 0x48E DUP2 PUSH2 0x474 JUMP JUMPDEST DUP2 EQ PUSH2 0x498 JUMPI PUSH0 DUP1 REVERT JUMPDEST POP JUMP JUMPDEST PUSH0 DUP2 CALLDATALOAD SWAP1 POP PUSH2 0x4A9 DUP2 PUSH2 0x485 JUMP JUMPDEST SWAP3 SWAP2 POP POP JUMP JUMPDEST PUSH0 PUSH1 0x20 DUP3 DUP5 SUB SLT ISZERO PUSH2 0x4C4 JUMPI PUSH2 0x4C3 PUSH2 0x451 JUMP JUMPDEST JUMPDEST PUSH0 PUSH2 0x4D1 DUP5 DUP3 DUP6 ADD PUSH2 0x49B JUMP JUMPDEST SWAP2 POP POP SWAP3 SWAP2 POP POP JUMP JUMPDEST PUSH2 0x4E3 DUP2 PUSH2 0x420 JUMP JUMPDEST DUP2 EQ PUSH2 0x4ED JUMPI PUSH0 DUP1 REVERT JUMPDEST POP JUMP JUMPDEST PUSH0 DUP2 CALLDATALOAD SWAP1 POP PUSH2 0x4FE DUP2 PUSH2 0x4DA JUMP JUMPDEST SWAP3 SWAP2 POP POP JUMP JUMPDEST PUSH0 DUP1 PUSH1 0x40 DUP4 DUP6 SUB SLT ISZERO PUSH2 0x51A JUMPI PUSH2 0x519 PUSH2 0x451 JUMP JUMPDEST JUMPDEST PUSH0 PUSH2 0x527 DUP6 DUP3 DUP7 ADD PUSH2 0x49B JUMP JUMPDEST SWAP3 POP POP PUSH1 0x20 PUSH2 0x538 DUP6 DUP3 DUP7 ADD PUSH2 0x4F0 JUMP JUMPDEST SWAP2 POP POP SWAP3 POP SWAP3 SWAP1 POP JUMP JUMPDEST PUSH0 DUP2 ISZERO ISZERO SWAP1 POP SWAP2 SWAP1 POP JUMP JUMPDEST PUSH2 0x556 DUP2 PUSH2 0x542 JUMP JUMPDEST DUP3 MSTORE POP POP JUMP JUMPDEST PUSH0 PUSH1 0x20 DUP3 ADD SWAP1 POP PUSH2 0x56F PUSH0 DUP4 ADD DUP5 PUSH2 0x54D JUMP JUMPDEST SWAP3 SWAP2 POP POP JUMP JUMPDEST PUSH32 0x4E487B7100000000000000000000000000000000000000000000000000000000 PUSH0 MSTORE PUSH1 0x22 PUSH1 0x4 MSTORE PUSH1 0x24 PUSH0 REVERT JUMPDEST PUSH0 PUSH1 0x2 DUP3 DIV SWAP1 POP PUSH1 0x1 DUP3 AND DUP1 PUSH2 0x5B9 JUMPI PUSH1 0x7F DUP3 AND SWAP2 POP JUMPDEST PUSH1 0x20 DUP3 LT DUP2 SUB PUSH2 0x5CC JUMPI PUSH2 0x5CB PUSH2 0x575 JUMP JUMPDEST JUMPDEST POP SWAP2 SWAP1 POP JUMP JUMPDEST PUSH32 0x496E73756666696369656E742062616C616E6365000000000000000000000000 PUSH0 DUP3 ADD MSTORE POP JUMP JUMPDEST PUSH0 PUSH2 0x606 PUSH1 0x14 DUP4 PUSH2 0x380 JUMP JUMPDEST SWAP2 POP PUSH2 0x611 DUP3 PUSH2 0x5D2 JUMP JUMPDEST PUSH1 0x20 DUP3 ADD SWAP1 POP SWAP2 SWAP1 POP JUMP JUMPDEST PUSH0 PUSH1 0x20 DUP3 ADD SWAP1 POP DUP2 DUP2 SUB PUSH0 DUP4 ADD MSTORE PUSH2 0x633 DUP2 PUSH2 0x5FA JUMP JUMPDEST SWAP1 POP SWAP2 SWAP1 POP JUMP JUMPDEST PUSH32 0x4E487B7100000000000000000000000000000000000000000000000000000000 PUSH0 MSTORE PUSH1 0x11 PUSH1 0x4 MSTORE PUSH1 0x24 PUSH0 REVERT JUMPDEST PUSH0 PUSH2 0x671 DUP3 PUSH2 0x420 JUMP JUMPDEST SWAP2 POP PUSH2 0x67C DUP4 PUSH2 0x420 JUMP JUMPDEST SWAP3 POP DUP3 DUP3 SUB SWAP1 POP DUP2 DUP2 GT ISZERO PUSH2 0x694 JUMPI PUSH2 0x693 PUSH2 0x63A JUMP JUMPDEST JUMPDEST SWAP3 SWAP2 POP POP JUMP JUMPDEST PUSH0 PUSH2 0x6A4 DUP3 PUSH2 0x420 JUMP JUMPDEST SWAP2 POP PUSH2 0x6AF DUP4 PUSH2 0x420 JUMP JUMPDEST SWAP3 POP DUP3 DUP3 ADD SWAP1 POP DUP1 DUP3 GT ISZERO PUSH2 0x6C7 JUMPI PUSH2 0x6C6 PUSH2 0x63A JUMP JUMPDEST JUMPDEST SWAP3 SWAP2 POP POP JUMP INVALID LOG2 PUSH5 0x6970667358 0x22 SLT KECCAK256 SWAP4 0xC9 DUP2 CALLDATACOPY SHL CODESIZE LOG0 0x1E SWAP12 0xB1 0x28 0xB6 0xAA CALLDATASIZE STATICCALL PREVRANDAO PUSH25 0x7EAEDE9032ADDB91B50FB84E74328C64736F6C634300081400 CALLER LOG2 PUSH5 0x6970667358 0x22 SLT KECCAK256 PUSH26 0x8CA0DF83FCC4ABAFD28E5F3E93B7DC9BFD5544444F8029D61B8E SWAP7 GASPRICE 0xA6 PUSH12 0x8564736F6C63430008140033 "
				},
				"gasEstimates": {
					"creation": {
						"codeDepositCost": "2156400",
						"executionCost": "2292",
						"totalCost": "2158692"
					},
					"external": {
						"TOTAL_TOKEN_SUPPLY()": "391",
						"campaignContributions(uint256,address)": "infinite",
						"campaignContributors(uint256,uint256)": "infinite",
						"campaignIdCounter()": "2492",
						"campaigns(uint256)": "infinite",
						"contributeToCampaign(uint256)": "infinite",
						"createCampaign(string,uint256,uint256)": "infinite",
						"requestRefund(uint256)": "infinite",
						"tokenBalances(address)": "2824"
					},
					"internal": {
						"issueTokens(uint256)": "infinite"
					}
				},
				"methodIdentifiers": {
					"TOTAL_TOKEN_SUPPLY()": "ccf053ba",
					"campaignContributions(uint256,address)": "22c59958",
					"campaignContributors(uint256,uint256)": "ff96de21",
					"campaignIdCounter()": "2e618676",
					"campaigns(uint256)": "141961bc",
					"contributeToCampaign(uint256)": "0b7ef89b",
					"createCampaign(string,uint256,uint256)": "3020580b",
					"requestRefund(uint256)": "a4b2409e",
					"tokenBalances(address)": "523fba7f"
				}
			},
			"storageLayout": {
				"storage": [
					{
						"astId": 19,
						"contract": "CrowdFunding.sol:CrowdFunding",
						"label": "campaigns",
						"offset": 0,
						"slot": "0",
						"type": "t_mapping(t_uint256,t_struct(Campaign)14_storage)"
					},
					{
						"astId": 25,
						"contract": "CrowdFunding.sol:CrowdFunding",
						"label": "campaignContributions",
						"offset": 0,
						"slot": "1",
						"type": "t_mapping(t_uint256,t_mapping(t_address,t_uint256))"
					},
					{
						"astId": 30,
						"contract": "CrowdFunding.sol:CrowdFunding",
						"label": "campaignContributors",
						"offset": 0,
						"slot": "2",
						"type": "t_mapping(t_uint256,t_array(t_address)dyn_storage)"
					},
					{
						"astId": 32,
						"contract": "CrowdFunding.sol:CrowdFunding",
						"label": "campaignIdCounter",
						"offset": 0,
						"slot": "3",
						"type": "t_uint256"
					},
					{
						"astId": 71,
						"contract": "CrowdFunding.sol:CrowdFunding",
						"label": "tokenBalances",
						"offset": 0,
						"slot": "4",
						"type": "t_mapping(t_address,t_uint256)"
					}
				],
				"types": {
					"t_address": {
						"encoding": "inplace",
						"label": "address",
						"numberOfBytes": "20"
					},
					"t_array(t_address)dyn_storage": {
						"base": "t_address",
						"encoding": "dynamic_array",
						"label": "address[]",
						"numberOfBytes": "32"
					},
					"t_bool": {
						"encoding": "inplace",
						"label": "bool",
						"numberOfBytes": "1"
					},
					"t_mapping(t_address,t_uint256)": {
						"encoding": "mapping",
						"key": "t_address",
						"label": "mapping(address => uint256)",
						"numberOfBytes": "32",
						"value": "t_uint256"
					},
					"t_mapping(t_uint256,t_array(t_address)dyn_storage)": {
						"encoding": "mapping",
						"key": "t_uint256",
						"label": "mapping(uint256 => address[])",
						"numberOfBytes": "32",
						"value": "t_array(t_address)dyn_storage"
					},
					"t_mapping(t_uint256,t_mapping(t_address,t_uint256))": {
						"encoding": "mapping",
						"key": "t_uint256",
						"label": "mapping(uint256 => mapping(address => uint256))",
						"numberOfBytes": "32",
						"value": "t_mapping(t_address,t_uint256)"
					},
					"t_mapping(t_uint256,t_struct(Campaign)14_storage)": {
						"encoding": "mapping",
						"key": "t_uint256",
						"label": "mapping(uint256 => struct CrowdFunding.Campaign)",
						"numberOfBytes": "32",
						"value": "t_struct(Campaign)14_storage"
					},
					"t_string_storage": {
						"encoding": "bytes",
						"label": "string",
						"numberOfBytes": "32"
					},
					"t_struct(Campaign)14_storage": {
						"encoding": "inplace",
						"label": "struct CrowdFunding.Campaign",
						"members": [
							{
								"astId": 3,
								"contract": "CrowdFunding.sol:CrowdFunding",
								"label": "campaignName",
								"offset": 0,
								"slot": "0",
								"type": "t_string_storage"
							},
							{
								"astId": 5,
								"contract": "CrowdFunding.sol:CrowdFunding",
								"label": "targetAmount",
								"offset": 0,
								"slot": "1",
								"type": "t_uint256"
							},
							{
								"astId": 7,
								"contract": "CrowdFunding.sol:CrowdFunding",
								"label": "timeDuration",
								"offset": 0,
								"slot": "2",
								"type": "t_uint256"
							},
							{
								"astId": 9,
								"contract": "CrowdFunding.sol:CrowdFunding",
								"label": "raisedFund",
								"offset": 0,
								"slot": "3",
								"type": "t_uint256"
							},
							{
								"astId": 11,
								"contract": "CrowdFunding.sol:CrowdFunding",
								"label": "pendingRaisedFund",
								"offset": 0,
								"slot": "4",
								"type": "t_uint256"
							},
							{
								"astId": 13,
								"contract": "CrowdFunding.sol:CrowdFunding",
								"label": "funded",
								"offset": 0,
								"slot": "5",
								"type": "t_bool"
							}
						],
						"numberOfBytes": "192"
					},
					"t_uint256": {
						"encoding": "inplace",
						"label": "uint256",
						"numberOfBytes": "32"
					}
				}
			},
			"userdoc": {
				"kind": "user",
				"methods": {},
				"version": 1
			}
		}
	}
}