{
	"demo.sol": {
		"Escrow": {
			"abi": [
				{
					"anonymous": false,
					"inputs": [
						{
							"indexed": false,
							"internalType": "address",
							"name": "buyer",
							"type": "address"
						},
						{
							"indexed": false,
							"internalType": "address",
							"name": "seller",
							"type": "address"
						},
						{
							"indexed": false,
							"internalType": "uint256",
							"name": "amount",
							"type": "uint256"
						}
					],
					"name": "DisputeResolved",
					"type": "event"
				},
				{
					"anonymous": false,
					"inputs": [
						{
							"indexed": false,
							"internalType": "address",
							"name": "buyer",
							"type": "address"
						},
						{
							"indexed": false,
							"internalType": "address",
							"name": "seller",
							"type": "address"
						},
						{
							"indexed": false,
							"internalType": "uint256",
							"name": "amount",
							"type": "uint256"
						}
					],
					"name": "FundsDeposited",
					"type": "event"
				},
				{
					"anonymous": false,
					"inputs": [
						{
							"indexed": false,
							"internalType": "address",
							"name": "buyer",
							"type": "address"
						},
						{
							"indexed": false,
							"internalType": "address",
							"name": "seller",
							"type": "address"
						},
						{
							"indexed": false,
							"internalType": "uint256",
							"name": "amount",
							"type": "uint256"
						}
					],
					"name": "FundsReleased",
					"type": "event"
				},
				{
					"inputs": [],
					"name": "approveTransaction",
					"outputs": [],
					"stateMutability": "nonpayable",
					"type": "function"
				},
				{
					"inputs": [
						{
							"internalType": "address",
							"name": "_seller",
							"type": "address"
						}
					],
					"name": "depositFunds",
					"outputs": [],
					"stateMutability": "payable",
					"type": "function"
				},
				{
					"inputs": [
						{
							"internalType": "address",
							"name": "_buyer",
							"type": "address"
						}
					],
					"name": "disputeTransaction",
					"outputs": [],
					"stateMutability": "nonpayable",
					"type": "function"
				},
				{
					"inputs": [
						{
							"internalType": "address",
							"name": "_user",
							"type": "address"
						}
					],
					"name": "getTransactionStatus",
					"outputs": [
						{
							"internalType": "enum Escrow.EscrowStatus",
							"name": "",
							"type": "uint8"
						}
					],
					"stateMutability": "view",
					"type": "function"
				},
				{
					"inputs": [
						{
							"internalType": "address",
							"name": "_buyer",
							"type": "address"
						}
					],
					"name": "releaseFunds",
					"outputs": [],
					"stateMutability": "nonpayable",
					"type": "function"
				},
				{
					"inputs": [
						{
							"internalType": "address",
							"name": "",
							"type": "address"
						}
					],
					"name": "transactions",
					"outputs": [
						{
							"internalType": "address",
							"name": "buyer",
							"type": "address"
						},
						{
							"internalType": "address",
							"name": "seller",
							"type": "address"
						},
						{
							"internalType": "uint256",
							"name": "amount",
							"type": "uint256"
						},
						{
							"internalType": "enum Escrow.EscrowStatus",
							"name": "status",
							"type": "uint8"
						},
						{
							"internalType": "bool",
							"name": "buyerApproved",
							"type": "bool"
						},
						{
							"internalType": "bool",
							"name": "sellerApproved",
							"type": "bool"
						}
					],
					"stateMutability": "view",
					"type": "function"
				}
			],
			"devdoc": {
				"kind": "dev",
				"methods": {},
				"version": 1
			},
			"evm": {
				"assembly": "    /* \"demo.sol\":63:3396  contract Escrow {... */\n  mstore(0x40, 0x80)\n  callvalue\n  dup1\n  iszero\n  tag_1\n  jumpi\n  0x00\n  dup1\n  revert\ntag_1:\n  pop\n  dataSize(sub_0)\n  dup1\n  dataOffset(sub_0)\n  0x00\n  codecopy\n  0x00\n  return\nstop\n\nsub_0: assembly {\n        /* \"demo.sol\":63:3396  contract Escrow {... */\n      mstore(0x40, 0x80)\n      jumpi(tag_1, lt(calldatasize, 0x04))\n      shr(0xe0, calldataload(0x00))\n      dup1\n      0x192e7a7b\n      eq\n      tag_2\n      jumpi\n      dup1\n      0x33b7a674\n      eq\n      tag_3\n      jumpi\n      dup1\n      0x89bf0ece\n      eq\n      tag_4\n      jumpi\n      dup1\n      0x919747fb\n      eq\n      tag_5\n      jumpi\n      dup1\n      0xc32fdf34\n      eq\n      tag_6\n      jumpi\n      dup1\n      0xe8af4caa\n      eq\n      tag_7\n      jumpi\n    tag_1:\n      0x00\n      dup1\n      revert\n        /* \"demo.sol\":1244:1862  function releaseFunds(address _buyer) public {... */\n    tag_2:\n      callvalue\n      dup1\n      iszero\n      tag_8\n      jumpi\n      0x00\n      dup1\n      revert\n    tag_8:\n      pop\n      tag_9\n      0x04\n      dup1\n      calldatasize\n      sub\n      dup2\n      add\n      swap1\n      tag_10\n      swap2\n      swap1\n      tag_11\n      jump\t// in\n    tag_10:\n      tag_12\n      jump\t// in\n    tag_9:\n      stop\n        /* \"demo.sol\":2329:3253  function approveTransaction() public {... */\n    tag_3:\n      callvalue\n      dup1\n      iszero\n      tag_13\n      jumpi\n      0x00\n      dup1\n      revert\n    tag_13:\n      pop\n      tag_14\n      tag_15\n      jump\t// in\n    tag_14:\n      stop\n        /* \"demo.sol\":1870:2321  function disputeTransaction(address _buyer) public {... */\n    tag_4:\n      callvalue\n      dup1\n      iszero\n      tag_16\n      jumpi\n      0x00\n      dup1\n      revert\n    tag_16:\n      pop\n      tag_17\n      0x04\n      dup1\n      calldatasize\n      sub\n      dup2\n      add\n      swap1\n      tag_18\n      swap2\n      swap1\n      tag_11\n      jump\t// in\n    tag_18:\n      tag_19\n      jump\t// in\n    tag_17:\n      stop\n        /* \"demo.sol\":665:1236  function depositFunds(address _seller) public payable {... */\n    tag_5:\n      tag_20\n      0x04\n      dup1\n      calldatasize\n      sub\n      dup2\n      add\n      swap1\n      tag_21\n      swap2\n      swap1\n      tag_11\n      jump\t// in\n    tag_21:\n      tag_22\n      jump\t// in\n    tag_20:\n      stop\n        /* \"demo.sol\":381:432  mapping(address => Transaction) public transactions */\n    tag_6:\n      callvalue\n      dup1\n      iszero\n      tag_23\n      jumpi\n      0x00\n      dup1\n      revert\n    tag_23:\n      pop\n      tag_24\n      0x04\n      dup1\n      calldatasize\n      sub\n      dup2\n      add\n      swap1\n      tag_25\n      swap2\n      swap1\n      tag_11\n      jump\t// in\n    tag_25:\n      tag_26\n      jump\t// in\n    tag_24:\n      mload(0x40)\n      tag_27\n      swap7\n      swap6\n      swap5\n      swap4\n      swap3\n      swap2\n      swap1\n      tag_28\n      jump\t// in\n    tag_27:\n      mload(0x40)\n      dup1\n      swap2\n      sub\n      swap1\n      return\n        /* \"demo.sol\":3261:3393  function getTransactionStatus(address _user) public view returns (EscrowStatus) {... */\n    tag_7:\n      callvalue\n      dup1\n      iszero\n      tag_29\n      jumpi\n      0x00\n      dup1\n      revert\n    tag_29:\n      pop\n      tag_30\n      0x04\n      dup1\n      calldatasize\n      sub\n      dup2\n      add\n      swap1\n      tag_31\n      swap2\n      swap1\n      tag_11\n      jump\t// in\n    tag_31:\n      tag_32\n      jump\t// in\n    tag_30:\n      mload(0x40)\n      tag_33\n      swap2\n      swap1\n      tag_34\n      jump\t// in\n    tag_33:\n      mload(0x40)\n      dup1\n      swap2\n      sub\n      swap1\n      return\n        /* \"demo.sol\":1244:1862  function releaseFunds(address _buyer) public {... */\n    tag_12:\n        /* \"demo.sol\":1300:1331  Transaction storage transaction */\n      0x00\n        /* \"demo.sol\":1334:1346  transactions */\n      dup1\n        /* \"demo.sol\":1334:1354  transactions[_buyer] */\n      0x00\n        /* \"demo.sol\":1347:1353  _buyer */\n      dup4\n        /* \"demo.sol\":1334:1354  transactions[_buyer] */\n      0xffffffffffffffffffffffffffffffffffffffff\n      and\n      0xffffffffffffffffffffffffffffffffffffffff\n      and\n      dup2\n      mstore\n      0x20\n      add\n      swap1\n      dup2\n      mstore\n      0x20\n      add\n      0x00\n      keccak256\n        /* \"demo.sol\":1300:1354  Transaction storage transaction = transactions[_buyer] */\n      swap1\n      pop\n        /* \"demo.sol\":1395:1423  EscrowStatus.FUNDS_DEPOSITED */\n      0x01\n        /* \"demo.sol\":1373:1423  transaction.status == EscrowStatus.FUNDS_DEPOSITED */\n      0x03\n      dup2\n      gt\n      iszero\n      tag_36\n      jumpi\n      tag_37\n      tag_38\n      jump\t// in\n    tag_37:\n    tag_36:\n        /* \"demo.sol\":1373:1384  transaction */\n      dup2\n        /* \"demo.sol\":1373:1391  transaction.status */\n      0x03\n      add\n      0x00\n      swap1\n      sload\n      swap1\n      0x0100\n      exp\n      swap1\n      div\n      0xff\n      and\n        /* \"demo.sol\":1373:1423  transaction.status == EscrowStatus.FUNDS_DEPOSITED */\n      0x03\n      dup2\n      gt\n      iszero\n      tag_39\n      jumpi\n      tag_40\n      tag_38\n      jump\t// in\n    tag_40:\n    tag_39:\n      eq\n        /* \"demo.sol\":1365:1447  require(transaction.status == EscrowStatus.FUNDS_DEPOSITED, \"Funds not deposited\") */\n      tag_41\n      jumpi\n      mload(0x40)\n      0x08c379a000000000000000000000000000000000000000000000000000000000\n      dup2\n      mstore\n      0x04\n      add\n      tag_42\n      swap1\n      tag_43\n      jump\t// in\n    tag_42:\n      mload(0x40)\n      dup1\n      swap2\n      sub\n      swap1\n      revert\n    tag_41:\n        /* \"demo.sol\":1480:1491  transaction */\n      dup1\n        /* \"demo.sol\":1480:1498  transaction.seller */\n      0x01\n      add\n      0x00\n      swap1\n      sload\n      swap1\n      0x0100\n      exp\n      swap1\n      div\n      0xffffffffffffffffffffffffffffffffffffffff\n      and\n        /* \"demo.sol\":1466:1498  msg.sender == transaction.seller */\n      0xffffffffffffffffffffffffffffffffffffffff\n      and\n        /* \"demo.sol\":1466:1476  msg.sender */\n      caller\n        /* \"demo.sol\":1466:1498  msg.sender == transaction.seller */\n      0xffffffffffffffffffffffffffffffffffffffff\n      and\n      eq\n        /* \"demo.sol\":1458:1540  require(msg.sender == transaction.seller, \"Only the seller can release the funds\") */\n      tag_44\n      jumpi\n      mload(0x40)\n      0x08c379a000000000000000000000000000000000000000000000000000000000\n      dup2\n      mstore\n      0x04\n      add\n      tag_45\n      swap1\n      tag_46\n      jump\t// in\n    tag_45:\n      mload(0x40)\n      dup1\n      swap2\n      sub\n      swap1\n      revert\n    tag_44:\n        /* \"demo.sol\":1582:1586  true */\n      0x01\n        /* \"demo.sol\":1553:1564  transaction */\n      dup2\n        /* \"demo.sol\":1553:1579  transaction.sellerApproved */\n      0x03\n      add\n      0x02\n        /* \"demo.sol\":1553:1586  transaction.sellerApproved = true */\n      0x0100\n      exp\n      dup2\n      sload\n      dup2\n      0xff\n      mul\n      not\n      and\n      swap1\n      dup4\n      iszero\n      iszero\n      mul\n      or\n      swap1\n      sstore\n      pop\n        /* \"demo.sol\":1601:1612  transaction */\n      dup1\n        /* \"demo.sol\":1601:1626  transaction.buyerApproved */\n      0x03\n      add\n      0x01\n      swap1\n      sload\n      swap1\n      0x0100\n      exp\n      swap1\n      div\n      0xff\n      and\n        /* \"demo.sol\":1597:1855  if (transaction.buyerApproved) {... */\n      iszero\n      tag_47\n      jumpi\n        /* \"demo.sol\":1664:1691  EscrowStatus.FUNDS_RELEASED */\n      0x02\n        /* \"demo.sol\":1643:1654  transaction */\n      dup2\n        /* \"demo.sol\":1643:1661  transaction.status */\n      0x03\n      add\n      0x00\n        /* \"demo.sol\":1643:1691  transaction.status = EscrowStatus.FUNDS_RELEASED */\n      0x0100\n      exp\n      dup2\n      sload\n      dup2\n      0xff\n      mul\n      not\n      and\n      swap1\n      dup4\n      0x03\n      dup2\n      gt\n      iszero\n      tag_48\n      jumpi\n      tag_49\n      tag_38\n      jump\t// in\n    tag_49:\n    tag_48:\n      mul\n      or\n      swap1\n      sstore\n      pop\n        /* \"demo.sol\":1714:1725  transaction */\n      dup1\n        /* \"demo.sol\":1714:1732  transaction.seller */\n      0x01\n      add\n      0x00\n      swap1\n      sload\n      swap1\n      0x0100\n      exp\n      swap1\n      div\n      0xffffffffffffffffffffffffffffffffffffffff\n      and\n        /* \"demo.sol\":1706:1742  payable(transaction.seller).transfer */\n      0xffffffffffffffffffffffffffffffffffffffff\n      and\n        /* \"demo.sol\":1706:1762  payable(transaction.seller).transfer(transaction.amount) */\n      0x08fc\n        /* \"demo.sol\":1743:1754  transaction */\n      dup3\n        /* \"demo.sol\":1743:1761  transaction.amount */\n      0x02\n      add\n      sload\n        /* \"demo.sol\":1706:1762  payable(transaction.seller).transfer(transaction.amount) */\n      swap1\n      dup2\n      iszero\n      mul\n      swap1\n      mload(0x40)\n      0x00\n      mload(0x40)\n      dup1\n      dup4\n      sub\n      dup2\n      dup6\n      dup9\n      dup9\n      call\n      swap4\n      pop\n      pop\n      pop\n      pop\n      iszero\n      dup1\n      iszero\n      tag_51\n      jumpi\n      returndatasize\n      0x00\n      dup1\n      returndatacopy\n      revert(0x00, returndatasize)\n    tag_51:\n      pop\n        /* \"demo.sol\":1782:1843  FundsReleased(_buyer, transaction.seller, transaction.amount) */\n      0xeed10c470424824e4a4309075162f10b9989088b23fbed2349698cedd44493fb\n        /* \"demo.sol\":1796:1802  _buyer */\n      dup3\n        /* \"demo.sol\":1804:1815  transaction */\n      dup3\n        /* \"demo.sol\":1804:1822  transaction.seller */\n      0x01\n      add\n      0x00\n      swap1\n      sload\n      swap1\n      0x0100\n      exp\n      swap1\n      div\n      0xffffffffffffffffffffffffffffffffffffffff\n      and\n        /* \"demo.sol\":1824:1835  transaction */\n      dup4\n        /* \"demo.sol\":1824:1842  transaction.amount */\n      0x02\n      add\n      sload\n        /* \"demo.sol\":1782:1843  FundsReleased(_buyer, transaction.seller, transaction.amount) */\n      mload(0x40)\n      tag_52\n      swap4\n      swap3\n      swap2\n      swap1\n      tag_53\n      jump\t// in\n    tag_52:\n      mload(0x40)\n      dup1\n      swap2\n      sub\n      swap1\n      log1\n        /* \"demo.sol\":1597:1855  if (transaction.buyerApproved) {... */\n    tag_47:\n        /* \"demo.sol\":1289:1862  {... */\n      pop\n        /* \"demo.sol\":1244:1862  function releaseFunds(address _buyer) public {... */\n      pop\n      jump\t// out\n        /* \"demo.sol\":2329:3253  function approveTransaction() public {... */\n    tag_15:\n        /* \"demo.sol\":2377:2408  Transaction storage transaction */\n      0x00\n        /* \"demo.sol\":2411:2423  transactions */\n      dup1\n        /* \"demo.sol\":2411:2435  transactions[msg.sender] */\n      0x00\n        /* \"demo.sol\":2424:2434  msg.sender */\n      caller\n        /* \"demo.sol\":2411:2435  transactions[msg.sender] */\n      0xffffffffffffffffffffffffffffffffffffffff\n      and\n      0xffffffffffffffffffffffffffffffffffffffff\n      and\n      dup2\n      mstore\n      0x20\n      add\n      swap1\n      dup2\n      mstore\n      0x20\n      add\n      0x00\n      keccak256\n        /* \"demo.sol\":2377:2435  Transaction storage transaction = transactions[msg.sender] */\n      swap1\n      pop\n        /* \"demo.sol\":2476:2504  EscrowStatus.FUNDS_DEPOSITED */\n      0x01\n        /* \"demo.sol\":2454:2504  transaction.status == EscrowStatus.FUNDS_DEPOSITED */\n      0x03\n      dup2\n      gt\n      iszero\n      tag_55\n      jumpi\n      tag_56\n      tag_38\n      jump\t// in\n    tag_56:\n    tag_55:\n        /* \"demo.sol\":2454:2465  transaction */\n      dup2\n        /* \"demo.sol\":2454:2472  transaction.status */\n      0x03\n      add\n      0x00\n      swap1\n      sload\n      swap1\n      0x0100\n      exp\n      swap1\n      div\n      0xff\n      and\n        /* \"demo.sol\":2454:2504  transaction.status == EscrowStatus.FUNDS_DEPOSITED */\n      0x03\n      dup2\n      gt\n      iszero\n      tag_57\n      jumpi\n      tag_58\n      tag_38\n      jump\t// in\n    tag_58:\n    tag_57:\n      eq\n        /* \"demo.sol\":2446:2528  require(transaction.status == EscrowStatus.FUNDS_DEPOSITED, \"Funds not deposited\") */\n      tag_59\n      jumpi\n      mload(0x40)\n      0x08c379a000000000000000000000000000000000000000000000000000000000\n      dup2\n      mstore\n      0x04\n      add\n      tag_60\n      swap1\n      tag_43\n      jump\t// in\n    tag_60:\n      mload(0x40)\n      dup1\n      swap2\n      sub\n      swap1\n      revert\n    tag_59:\n        /* \"demo.sol\":2559:2570  transaction */\n      dup1\n        /* \"demo.sol\":2559:2576  transaction.buyer */\n      0x00\n      add\n      0x00\n      swap1\n      sload\n      swap1\n      0x0100\n      exp\n      swap1\n      div\n      0xffffffffffffffffffffffffffffffffffffffff\n      and\n        /* \"demo.sol\":2545:2576  msg.sender == transaction.buyer */\n      0xffffffffffffffffffffffffffffffffffffffff\n      and\n        /* \"demo.sol\":2545:2555  msg.sender */\n      caller\n        /* \"demo.sol\":2545:2576  msg.sender == transaction.buyer */\n      0xffffffffffffffffffffffffffffffffffffffff\n      and\n      sub\n        /* \"demo.sol\":2541:2935  if (msg.sender == transaction.buyer) {... */\n      tag_61\n      jumpi\n        /* \"demo.sol\":2602:2613  transaction */\n      dup1\n        /* \"demo.sol\":2602:2627  transaction.buyerApproved */\n      0x03\n      add\n      0x01\n      swap1\n      sload\n      swap1\n      0x0100\n      exp\n      swap1\n      div\n      0xff\n      and\n        /* \"demo.sol\":2601:2627  !transaction.buyerApproved */\n      iszero\n        /* \"demo.sol\":2593:2674  require(!transaction.buyerApproved, \"Buyer has already approved the transaction\") */\n      tag_62\n      jumpi\n      mload(0x40)\n      0x08c379a000000000000000000000000000000000000000000000000000000000\n      dup2\n      mstore\n      0x04\n      add\n      tag_63\n      swap1\n      tag_64\n      jump\t// in\n    tag_63:\n      mload(0x40)\n      dup1\n      swap2\n      sub\n      swap1\n      revert\n    tag_62:\n        /* \"demo.sol\":2717:2721  true */\n      0x01\n        /* \"demo.sol\":2689:2700  transaction */\n      dup2\n        /* \"demo.sol\":2689:2714  transaction.buyerApproved */\n      0x03\n      add\n      0x01\n        /* \"demo.sol\":2689:2721  transaction.buyerApproved = true */\n      0x0100\n      exp\n      dup2\n      sload\n      dup2\n      0xff\n      mul\n      not\n      and\n      swap1\n      dup4\n      iszero\n      iszero\n      mul\n      or\n      swap1\n      sstore\n      pop\n        /* \"demo.sol\":2541:2935  if (msg.sender == transaction.buyer) {... */\n      jump(tag_65)\n    tag_61:\n        /* \"demo.sol\":2757:2768  transaction */\n      dup1\n        /* \"demo.sol\":2757:2775  transaction.seller */\n      0x01\n      add\n      0x00\n      swap1\n      sload\n      swap1\n      0x0100\n      exp\n      swap1\n      div\n      0xffffffffffffffffffffffffffffffffffffffff\n      and\n        /* \"demo.sol\":2743:2775  msg.sender == transaction.seller */\n      0xffffffffffffffffffffffffffffffffffffffff\n      and\n        /* \"demo.sol\":2743:2753  msg.sender */\n      caller\n        /* \"demo.sol\":2743:2775  msg.sender == transaction.seller */\n      0xffffffffffffffffffffffffffffffffffffffff\n      and\n      sub\n        /* \"demo.sol\":2739:2935  if (msg.sender == transaction.seller) {... */\n      tag_66\n      jumpi\n        /* \"demo.sol\":2801:2812  transaction */\n      dup1\n        /* \"demo.sol\":2801:2827  transaction.sellerApproved */\n      0x03\n      add\n      0x02\n      swap1\n      sload\n      swap1\n      0x0100\n      exp\n      swap1\n      div\n      0xff\n      and\n        /* \"demo.sol\":2800:2827  !transaction.sellerApproved */\n      iszero\n        /* \"demo.sol\":2792:2875  require(!transaction.sellerApproved, \"Seller has already approved the transaction\") */\n      tag_67\n      jumpi\n      mload(0x40)\n      0x08c379a000000000000000000000000000000000000000000000000000000000\n      dup2\n      mstore\n      0x04\n      add\n      tag_68\n      swap1\n      tag_69\n      jump\t// in\n    tag_68:\n      mload(0x40)\n      dup1\n      swap2\n      sub\n      swap1\n      revert\n    tag_67:\n        /* \"demo.sol\":2919:2923  true */\n      0x01\n        /* \"demo.sol\":2890:2901  transaction */\n      dup2\n        /* \"demo.sol\":2890:2916  transaction.sellerApproved */\n      0x03\n      add\n      0x02\n        /* \"demo.sol\":2890:2923  transaction.sellerApproved = true */\n      0x0100\n      exp\n      dup2\n      sload\n      dup2\n      0xff\n      mul\n      not\n      and\n      swap1\n      dup4\n      iszero\n      iszero\n      mul\n      or\n      swap1\n      sstore\n      pop\n        /* \"demo.sol\":2739:2935  if (msg.sender == transaction.seller) {... */\n    tag_66:\n        /* \"demo.sol\":2541:2935  if (msg.sender == transaction.buyer) {... */\n    tag_65:\n        /* \"demo.sol\":2951:2962  transaction */\n      dup1\n        /* \"demo.sol\":2951:2976  transaction.buyerApproved */\n      0x03\n      add\n      0x01\n      swap1\n      sload\n      swap1\n      0x0100\n      exp\n      swap1\n      div\n      0xff\n      and\n        /* \"demo.sol\":2951:3006  transaction.buyerApproved && transaction.sellerApproved */\n      dup1\n      iszero\n      tag_70\n      jumpi\n      pop\n        /* \"demo.sol\":2980:2991  transaction */\n      dup1\n        /* \"demo.sol\":2980:3006  transaction.sellerApproved */\n      0x03\n      add\n      0x02\n      swap1\n      sload\n      swap1\n      0x0100\n      exp\n      swap1\n      div\n      0xff\n      and\n        /* \"demo.sol\":2951:3006  transaction.buyerApproved && transaction.sellerApproved */\n    tag_70:\n        /* \"demo.sol\":2947:3246  if (transaction.buyerApproved && transaction.sellerApproved) {... */\n      iszero\n      tag_71\n      jumpi\n        /* \"demo.sol\":3044:3071  EscrowStatus.FUNDS_RELEASED */\n      0x02\n        /* \"demo.sol\":3023:3034  transaction */\n      dup2\n        /* \"demo.sol\":3023:3041  transaction.status */\n      0x03\n      add\n      0x00\n        /* \"demo.sol\":3023:3071  transaction.status = EscrowStatus.FUNDS_RELEASED */\n      0x0100\n      exp\n      dup2\n      sload\n      dup2\n      0xff\n      mul\n      not\n      and\n      swap1\n      dup4\n      0x03\n      dup2\n      gt\n      iszero\n      tag_72\n      jumpi\n      tag_73\n      tag_38\n      jump\t// in\n    tag_73:\n    tag_72:\n      mul\n      or\n      swap1\n      sstore\n      pop\n        /* \"demo.sol\":3094:3105  transaction */\n      dup1\n        /* \"demo.sol\":3094:3112  transaction.seller */\n      0x01\n      add\n      0x00\n      swap1\n      sload\n      swap1\n      0x0100\n      exp\n      swap1\n      div\n      0xffffffffffffffffffffffffffffffffffffffff\n      and\n        /* \"demo.sol\":3086:3122  payable(transaction.seller).transfer */\n      0xffffffffffffffffffffffffffffffffffffffff\n      and\n        /* \"demo.sol\":3086:3142  payable(transaction.seller).transfer(transaction.amount) */\n      0x08fc\n        /* \"demo.sol\":3123:3134  transaction */\n      dup3\n        /* \"demo.sol\":3123:3141  transaction.amount */\n      0x02\n      add\n      sload\n        /* \"demo.sol\":3086:3142  payable(transaction.seller).transfer(transaction.amount) */\n      swap1\n      dup2\n      iszero\n      mul\n      swap1\n      mload(0x40)\n      0x00\n      mload(0x40)\n      dup1\n      dup4\n      sub\n      dup2\n      dup6\n      dup9\n      dup9\n      call\n      swap4\n      pop\n      pop\n      pop\n      pop\n      iszero\n      dup1\n      iszero\n      tag_75\n      jumpi\n      returndatasize\n      0x00\n      dup1\n      returndatacopy\n      revert(0x00, returndatasize)\n    tag_75:\n      pop\n        /* \"demo.sol\":3162:3234  FundsReleased(transaction.buyer, transaction.seller, transaction.amount) */\n      0xeed10c470424824e4a4309075162f10b9989088b23fbed2349698cedd44493fb\n        /* \"demo.sol\":3176:3187  transaction */\n      dup2\n        /* \"demo.sol\":3176:3193  transaction.buyer */\n      0x00\n      add\n      0x00\n      swap1\n      sload\n      swap1\n      0x0100\n      exp\n      swap1\n      div\n      0xffffffffffffffffffffffffffffffffffffffff\n      and\n        /* \"demo.sol\":3195:3206  transaction */\n      dup3\n        /* \"demo.sol\":3195:3213  transaction.seller */\n      0x01\n      add\n      0x00\n      swap1\n      sload\n      swap1\n      0x0100\n      exp\n      swap1\n      div\n      0xffffffffffffffffffffffffffffffffffffffff\n      and\n        /* \"demo.sol\":3215:3226  transaction */\n      dup4\n        /* \"demo.sol\":3215:3233  transaction.amount */\n      0x02\n      add\n      sload\n        /* \"demo.sol\":3162:3234  FundsReleased(transaction.buyer, transaction.seller, transaction.amount) */\n      mload(0x40)\n      tag_76\n      swap4\n      swap3\n      swap2\n      swap1\n      tag_53\n      jump\t// in\n    tag_76:\n      mload(0x40)\n      dup1\n      swap2\n      sub\n      swap1\n      log1\n        /* \"demo.sol\":2947:3246  if (transaction.buyerApproved && transaction.sellerApproved) {... */\n    tag_71:\n        /* \"demo.sol\":2366:3253  {... */\n      pop\n        /* \"demo.sol\":2329:3253  function approveTransaction() public {... */\n      jump\t// out\n        /* \"demo.sol\":1870:2321  function disputeTransaction(address _buyer) public {... */\n    tag_19:\n        /* \"demo.sol\":1932:1963  Transaction storage transaction */\n      0x00\n        /* \"demo.sol\":1966:1978  transactions */\n      dup1\n        /* \"demo.sol\":1966:1986  transactions[_buyer] */\n      0x00\n        /* \"demo.sol\":1979:1985  _buyer */\n      dup4\n        /* \"demo.sol\":1966:1986  transactions[_buyer] */\n      0xffffffffffffffffffffffffffffffffffffffff\n      and\n      0xffffffffffffffffffffffffffffffffffffffff\n      and\n      dup2\n      mstore\n      0x20\n      add\n      swap1\n      dup2\n      mstore\n      0x20\n      add\n      0x00\n      keccak256\n        /* \"demo.sol\":1932:1986  Transaction storage transaction = transactions[_buyer] */\n      swap1\n      pop\n        /* \"demo.sol\":2027:2055  EscrowStatus.FUNDS_DEPOSITED */\n      0x01\n        /* \"demo.sol\":2005:2055  transaction.status == EscrowStatus.FUNDS_DEPOSITED */\n      0x03\n      dup2\n      gt\n      iszero\n      tag_78\n      jumpi\n      tag_79\n      tag_38\n      jump\t// in\n    tag_79:\n    tag_78:\n        /* \"demo.sol\":2005:2016  transaction */\n      dup2\n        /* \"demo.sol\":2005:2023  transaction.status */\n      0x03\n      add\n      0x00\n      swap1\n      sload\n      swap1\n      0x0100\n      exp\n      swap1\n      div\n      0xff\n      and\n        /* \"demo.sol\":2005:2055  transaction.status == EscrowStatus.FUNDS_DEPOSITED */\n      0x03\n      dup2\n      gt\n      iszero\n      tag_80\n      jumpi\n      tag_81\n      tag_38\n      jump\t// in\n    tag_81:\n    tag_80:\n      eq\n        /* \"demo.sol\":1997:2079  require(transaction.status == EscrowStatus.FUNDS_DEPOSITED, \"Funds not deposited\") */\n      tag_82\n      jumpi\n      mload(0x40)\n      0x08c379a000000000000000000000000000000000000000000000000000000000\n      dup2\n      mstore\n      0x04\n      add\n      tag_83\n      swap1\n      tag_43\n      jump\t// in\n    tag_83:\n      mload(0x40)\n      dup1\n      swap2\n      sub\n      swap1\n      revert\n    tag_82:\n        /* \"demo.sol\":2112:2123  transaction */\n      dup1\n        /* \"demo.sol\":2112:2129  transaction.buyer */\n      0x00\n      add\n      0x00\n      swap1\n      sload\n      swap1\n      0x0100\n      exp\n      swap1\n      div\n      0xffffffffffffffffffffffffffffffffffffffff\n      and\n        /* \"demo.sol\":2098:2129  msg.sender == transaction.buyer */\n      0xffffffffffffffffffffffffffffffffffffffff\n      and\n        /* \"demo.sol\":2098:2108  msg.sender */\n      caller\n        /* \"demo.sol\":2098:2129  msg.sender == transaction.buyer */\n      0xffffffffffffffffffffffffffffffffffffffff\n      and\n      eq\n        /* \"demo.sol\":2090:2171  require(msg.sender == transaction.buyer, \"Only the buyer can initiate a dispute\") */\n      tag_84\n      jumpi\n      mload(0x40)\n      0x08c379a000000000000000000000000000000000000000000000000000000000\n      dup2\n      mstore\n      0x04\n      add\n      tag_85\n      swap1\n      tag_86\n      jump\t// in\n    tag_85:\n      mload(0x40)\n      dup1\n      swap2\n      sub\n      swap1\n      revert\n    tag_84:\n        /* \"demo.sol\":2205:2234  EscrowStatus.DISPUTE_RESOLVED */\n      0x03\n        /* \"demo.sol\":2184:2195  transaction */\n      dup2\n        /* \"demo.sol\":2184:2202  transaction.status */\n      0x03\n      add\n      0x00\n        /* \"demo.sol\":2184:2234  transaction.status = EscrowStatus.DISPUTE_RESOLVED */\n      0x0100\n      exp\n      dup2\n      sload\n      dup2\n      0xff\n      mul\n      not\n      and\n      swap1\n      dup4\n      0x03\n      dup2\n      gt\n      iszero\n      tag_87\n      jumpi\n      tag_88\n      tag_38\n      jump\t// in\n    tag_88:\n    tag_87:\n      mul\n      or\n      swap1\n      sstore\n      pop\n        /* \"demo.sol\":2250:2313  DisputeResolved(_buyer, transaction.seller, transaction.amount) */\n      0xc98fd1f80a8937b1fdeb951d0b63bf7c924a1872543ae2499295625b18abe70e\n        /* \"demo.sol\":2266:2272  _buyer */\n      dup3\n        /* \"demo.sol\":2274:2285  transaction */\n      dup3\n        /* \"demo.sol\":2274:2292  transaction.seller */\n      0x01\n      add\n      0x00\n      swap1\n      sload\n      swap1\n      0x0100\n      exp\n      swap1\n      div\n      0xffffffffffffffffffffffffffffffffffffffff\n      and\n        /* \"demo.sol\":2294:2305  transaction */\n      dup4\n        /* \"demo.sol\":2294:2312  transaction.amount */\n      0x02\n      add\n      sload\n        /* \"demo.sol\":2250:2313  DisputeResolved(_buyer, transaction.seller, transaction.amount) */\n      mload(0x40)\n      tag_89\n      swap4\n      swap3\n      swap2\n      swap1\n      tag_53\n      jump\t// in\n    tag_89:\n      mload(0x40)\n      dup1\n      swap2\n      sub\n      swap1\n      log1\n        /* \"demo.sol\":1921:2321  {... */\n      pop\n        /* \"demo.sol\":1870:2321  function disputeTransaction(address _buyer) public {... */\n      pop\n      jump\t// out\n        /* \"demo.sol\":665:1236  function depositFunds(address _seller) public payable {... */\n    tag_22:\n        /* \"demo.sol\":750:751  0 */\n      0x00\n        /* \"demo.sol\":738:747  msg.value */\n      callvalue\n        /* \"demo.sol\":738:751  msg.value > 0 */\n      gt\n        /* \"demo.sol\":730:796  require(msg.value > 0, \"Deposit amount must be greater than zero\") */\n      tag_91\n      jumpi\n      mload(0x40)\n      0x08c379a000000000000000000000000000000000000000000000000000000000\n      dup2\n      mstore\n      0x04\n      add\n      tag_92\n      swap1\n      tag_93\n      jump\t// in\n    tag_92:\n      mload(0x40)\n      dup1\n      swap2\n      sub\n      swap1\n      revert\n    tag_91:\n        /* \"demo.sol\":850:879  EscrowStatus.AWAITING_PAYMENT */\n      0x00\n        /* \"demo.sol\":815:879  transactions[msg.sender].status == EscrowStatus.AWAITING_PAYMENT */\n      0x03\n      dup2\n      gt\n      iszero\n      tag_94\n      jumpi\n      tag_95\n      tag_38\n      jump\t// in\n    tag_95:\n    tag_94:\n        /* \"demo.sol\":815:827  transactions */\n      0x00\n        /* \"demo.sol\":815:839  transactions[msg.sender] */\n      dup1\n        /* \"demo.sol\":828:838  msg.sender */\n      caller\n        /* \"demo.sol\":815:839  transactions[msg.sender] */\n      0xffffffffffffffffffffffffffffffffffffffff\n      and\n      0xffffffffffffffffffffffffffffffffffffffff\n      and\n      dup2\n      mstore\n      0x20\n      add\n      swap1\n      dup2\n      mstore\n      0x20\n      add\n      0x00\n      keccak256\n        /* \"demo.sol\":815:846  transactions[msg.sender].status */\n      0x03\n      add\n      0x00\n      swap1\n      sload\n      swap1\n      0x0100\n      exp\n      swap1\n      div\n      0xff\n      and\n        /* \"demo.sol\":815:879  transactions[msg.sender].status == EscrowStatus.AWAITING_PAYMENT */\n      0x03\n      dup2\n      gt\n      iszero\n      tag_96\n      jumpi\n      tag_97\n      tag_38\n      jump\t// in\n    tag_97:\n    tag_96:\n      eq\n        /* \"demo.sol\":807:912  require(transactions[msg.sender].status == EscrowStatus.AWAITING_PAYMENT, \"No pending transaction found\") */\n      tag_98\n      jumpi\n      mload(0x40)\n      0x08c379a000000000000000000000000000000000000000000000000000000000\n      dup2\n      mstore\n      0x04\n      add\n      tag_99\n      swap1\n      tag_100\n      jump\t// in\n    tag_99:\n      mload(0x40)\n      dup1\n      swap2\n      sub\n      swap1\n      revert\n    tag_98:\n        /* \"demo.sol\":925:956  Transaction storage transaction */\n      0x00\n        /* \"demo.sol\":959:971  transactions */\n      dup1\n        /* \"demo.sol\":959:983  transactions[msg.sender] */\n      0x00\n        /* \"demo.sol\":972:982  msg.sender */\n      caller\n        /* \"demo.sol\":959:983  transactions[msg.sender] */\n      0xffffffffffffffffffffffffffffffffffffffff\n      and\n      0xffffffffffffffffffffffffffffffffffffffff\n      and\n      dup2\n      mstore\n      0x20\n      add\n      swap1\n      dup2\n      mstore\n      0x20\n      add\n      0x00\n      keccak256\n        /* \"demo.sol\":925:983  Transaction storage transaction = transactions[msg.sender] */\n      swap1\n      pop\n        /* \"demo.sol\":1014:1024  msg.sender */\n      caller\n        /* \"demo.sol\":994:1005  transaction */\n      dup2\n        /* \"demo.sol\":994:1011  transaction.buyer */\n      0x00\n      add\n      0x00\n        /* \"demo.sol\":994:1024  transaction.buyer = msg.sender */\n      0x0100\n      exp\n      dup2\n      sload\n      dup2\n      0xffffffffffffffffffffffffffffffffffffffff\n      mul\n      not\n      and\n      swap1\n      dup4\n      0xffffffffffffffffffffffffffffffffffffffff\n      and\n      mul\n      or\n      swap1\n      sstore\n      pop\n        /* \"demo.sol\":1056:1063  _seller */\n      dup2\n        /* \"demo.sol\":1035:1046  transaction */\n      dup2\n        /* \"demo.sol\":1035:1053  transaction.seller */\n      0x01\n      add\n      0x00\n        /* \"demo.sol\":1035:1063  transaction.seller = _seller */\n      0x0100\n      exp\n      dup2\n      sload\n      dup2\n      0xffffffffffffffffffffffffffffffffffffffff\n      mul\n      not\n      and\n      swap1\n      dup4\n      0xffffffffffffffffffffffffffffffffffffffff\n      and\n      mul\n      or\n      swap1\n      sstore\n      pop\n        /* \"demo.sol\":1095:1104  msg.value */\n      callvalue\n        /* \"demo.sol\":1074:1085  transaction */\n      dup2\n        /* \"demo.sol\":1074:1092  transaction.amount */\n      0x02\n      add\n        /* \"demo.sol\":1074:1104  transaction.amount = msg.value */\n      dup2\n      swap1\n      sstore\n      pop\n        /* \"demo.sol\":1136:1164  EscrowStatus.FUNDS_DEPOSITED */\n      0x01\n        /* \"demo.sol\":1115:1126  transaction */\n      dup2\n        /* \"demo.sol\":1115:1133  transaction.status */\n      0x03\n      add\n      0x00\n        /* \"demo.sol\":1115:1164  transaction.status = EscrowStatus.FUNDS_DEPOSITED */\n      0x0100\n      exp\n      dup2\n      sload\n      dup2\n      0xff\n      mul\n      not\n      and\n      swap1\n      dup4\n      0x03\n      dup2\n      gt\n      iszero\n      tag_101\n      jumpi\n      tag_102\n      tag_38\n      jump\t// in\n    tag_102:\n    tag_101:\n      mul\n      or\n      swap1\n      sstore\n      pop\n        /* \"demo.sol\":1182:1228  FundsDeposited(msg.sender, _seller, msg.value) */\n      0xf0d0e99cae184d0187b093b48894117462462379674a6e11d89c3fbb618e96b0\n        /* \"demo.sol\":1197:1207  msg.sender */\n      caller\n        /* \"demo.sol\":1209:1216  _seller */\n      dup4\n        /* \"demo.sol\":1218:1227  msg.value */\n      callvalue\n        /* \"demo.sol\":1182:1228  FundsDeposited(msg.sender, _seller, msg.value) */\n      mload(0x40)\n      tag_103\n      swap4\n      swap3\n      swap2\n      swap1\n      tag_53\n      jump\t// in\n    tag_103:\n      mload(0x40)\n      dup1\n      swap2\n      sub\n      swap1\n      log1\n        /* \"demo.sol\":719:1236  {... */\n      pop\n        /* \"demo.sol\":665:1236  function depositFunds(address _seller) public payable {... */\n      pop\n      jump\t// out\n        /* \"demo.sol\":381:432  mapping(address => Transaction) public transactions */\n    tag_26:\n      mstore(0x20, 0x00)\n      dup1\n      0x00\n      mstore\n      keccak256(0x00, 0x40)\n      0x00\n      swap2\n      pop\n      swap1\n      pop\n      dup1\n      0x00\n      add\n      0x00\n      swap1\n      sload\n      swap1\n      0x0100\n      exp\n      swap1\n      div\n      0xffffffffffffffffffffffffffffffffffffffff\n      and\n      swap1\n      dup1\n      0x01\n      add\n      0x00\n      swap1\n      sload\n      swap1\n      0x0100\n      exp\n      swap1\n      div\n      0xffffffffffffffffffffffffffffffffffffffff\n      and\n      swap1\n      dup1\n      0x02\n      add\n      sload\n      swap1\n      dup1\n      0x03\n      add\n      0x00\n      swap1\n      sload\n      swap1\n      0x0100\n      exp\n      swap1\n      div\n      0xff\n      and\n      swap1\n      dup1\n      0x03\n      add\n      0x01\n      swap1\n      sload\n      swap1\n      0x0100\n      exp\n      swap1\n      div\n      0xff\n      and\n      swap1\n      dup1\n      0x03\n      add\n      0x02\n      swap1\n      sload\n      swap1\n      0x0100\n      exp\n      swap1\n      div\n      0xff\n      and\n      swap1\n      pop\n      dup7\n      jump\t// out\n        /* \"demo.sol\":3261:3393  function getTransactionStatus(address _user) public view returns (EscrowStatus) {... */\n    tag_32:\n        /* \"demo.sol\":3327:3339  EscrowStatus */\n      0x00\n        /* \"demo.sol\":3359:3371  transactions */\n      dup1\n        /* \"demo.sol\":3359:3378  transactions[_user] */\n      0x00\n        /* \"demo.sol\":3372:3377  _user */\n      dup4\n        /* \"demo.sol\":3359:3378  transactions[_user] */\n      0xffffffffffffffffffffffffffffffffffffffff\n      and\n      0xffffffffffffffffffffffffffffffffffffffff\n      and\n      dup2\n      mstore\n      0x20\n      add\n      swap1\n      dup2\n      mstore\n      0x20\n      add\n      0x00\n      keccak256\n        /* \"demo.sol\":3359:3385  transactions[_user].status */\n      0x03\n      add\n      0x00\n      swap1\n      sload\n      swap1\n      0x0100\n      exp\n      swap1\n      div\n      0xff\n      and\n        /* \"demo.sol\":3352:3385  return transactions[_user].status */\n      swap1\n      pop\n        /* \"demo.sol\":3261:3393  function getTransactionStatus(address _user) public view returns (EscrowStatus) {... */\n      swap2\n      swap1\n      pop\n      jump\t// out\n        /* \"#utility.yul\":88:205   */\n    tag_106:\n        /* \"#utility.yul\":197:198   */\n      0x00\n        /* \"#utility.yul\":194:195   */\n      dup1\n        /* \"#utility.yul\":187:199   */\n      revert\n        /* \"#utility.yul\":334:460   */\n    tag_108:\n        /* \"#utility.yul\":371:378   */\n      0x00\n        /* \"#utility.yul\":411:453   */\n      0xffffffffffffffffffffffffffffffffffffffff\n        /* \"#utility.yul\":404:409   */\n      dup3\n        /* \"#utility.yul\":400:454   */\n      and\n        /* \"#utility.yul\":389:454   */\n      swap1\n      pop\n        /* \"#utility.yul\":334:460   */\n      swap2\n      swap1\n      pop\n      jump\t// out\n        /* \"#utility.yul\":466:562   */\n    tag_109:\n        /* \"#utility.yul\":503:510   */\n      0x00\n        /* \"#utility.yul\":532:556   */\n      tag_142\n        /* \"#utility.yul\":550:555   */\n      dup3\n        /* \"#utility.yul\":532:556   */\n      tag_108\n      jump\t// in\n    tag_142:\n        /* \"#utility.yul\":521:556   */\n      swap1\n      pop\n        /* \"#utility.yul\":466:562   */\n      swap2\n      swap1\n      pop\n      jump\t// out\n        /* \"#utility.yul\":568:690   */\n    tag_110:\n        /* \"#utility.yul\":641:665   */\n      tag_144\n        /* \"#utility.yul\":659:664   */\n      dup2\n        /* \"#utility.yul\":641:665   */\n      tag_109\n      jump\t// in\n    tag_144:\n        /* \"#utility.yul\":634:639   */\n      dup2\n        /* \"#utility.yul\":631:666   */\n      eq\n        /* \"#utility.yul\":621:684   */\n      tag_145\n      jumpi\n        /* \"#utility.yul\":680:681   */\n      0x00\n        /* \"#utility.yul\":677:678   */\n      dup1\n        /* \"#utility.yul\":670:682   */\n      revert\n        /* \"#utility.yul\":621:684   */\n    tag_145:\n        /* \"#utility.yul\":568:690   */\n      pop\n      jump\t// out\n        /* \"#utility.yul\":696:835   */\n    tag_111:\n        /* \"#utility.yul\":742:747   */\n      0x00\n        /* \"#utility.yul\":780:786   */\n      dup2\n        /* \"#utility.yul\":767:787   */\n      calldataload\n        /* \"#utility.yul\":758:787   */\n      swap1\n      pop\n        /* \"#utility.yul\":796:829   */\n      tag_147\n        /* \"#utility.yul\":823:828   */\n      dup2\n        /* \"#utility.yul\":796:829   */\n      tag_110\n      jump\t// in\n    tag_147:\n        /* \"#utility.yul\":696:835   */\n      swap3\n      swap2\n      pop\n      pop\n      jump\t// out\n        /* \"#utility.yul\":841:1170   */\n    tag_11:\n        /* \"#utility.yul\":900:906   */\n      0x00\n        /* \"#utility.yul\":949:951   */\n      0x20\n        /* \"#utility.yul\":937:946   */\n      dup3\n        /* \"#utility.yul\":928:935   */\n      dup5\n        /* \"#utility.yul\":924:947   */\n      sub\n        /* \"#utility.yul\":920:952   */\n      slt\n        /* \"#utility.yul\":917:1036   */\n      iszero\n      tag_149\n      jumpi\n        /* \"#utility.yul\":955:1034   */\n      tag_150\n      tag_106\n      jump\t// in\n    tag_150:\n        /* \"#utility.yul\":917:1036   */\n    tag_149:\n        /* \"#utility.yul\":1075:1076   */\n      0x00\n        /* \"#utility.yul\":1100:1153   */\n      tag_151\n        /* \"#utility.yul\":1145:1152   */\n      dup5\n        /* \"#utility.yul\":1136:1142   */\n      dup3\n        /* \"#utility.yul\":1125:1134   */\n      dup6\n        /* \"#utility.yul\":1121:1143   */\n      add\n        /* \"#utility.yul\":1100:1153   */\n      tag_111\n      jump\t// in\n    tag_151:\n        /* \"#utility.yul\":1090:1153   */\n      swap2\n      pop\n        /* \"#utility.yul\":1046:1163   */\n      pop\n        /* \"#utility.yul\":841:1170   */\n      swap3\n      swap2\n      pop\n      pop\n      jump\t// out\n        /* \"#utility.yul\":1176:1294   */\n    tag_112:\n        /* \"#utility.yul\":1263:1287   */\n      tag_153\n        /* \"#utility.yul\":1281:1286   */\n      dup2\n        /* \"#utility.yul\":1263:1287   */\n      tag_109\n      jump\t// in\n    tag_153:\n        /* \"#utility.yul\":1258:1261   */\n      dup3\n        /* \"#utility.yul\":1251:1288   */\n      mstore\n        /* \"#utility.yul\":1176:1294   */\n      pop\n      pop\n      jump\t// out\n        /* \"#utility.yul\":1300:1377   */\n    tag_113:\n        /* \"#utility.yul\":1337:1344   */\n      0x00\n        /* \"#utility.yul\":1366:1371   */\n      dup2\n        /* \"#utility.yul\":1355:1371   */\n      swap1\n      pop\n        /* \"#utility.yul\":1300:1377   */\n      swap2\n      swap1\n      pop\n      jump\t// out\n        /* \"#utility.yul\":1383:1501   */\n    tag_114:\n        /* \"#utility.yul\":1470:1494   */\n      tag_156\n        /* \"#utility.yul\":1488:1493   */\n      dup2\n        /* \"#utility.yul\":1470:1494   */\n      tag_113\n      jump\t// in\n    tag_156:\n        /* \"#utility.yul\":1465:1468   */\n      dup3\n        /* \"#utility.yul\":1458:1495   */\n      mstore\n        /* \"#utility.yul\":1383:1501   */\n      pop\n      pop\n      jump\t// out\n        /* \"#utility.yul\":1507:1687   */\n    tag_38:\n        /* \"#utility.yul\":1555:1632   */\n      0x4e487b7100000000000000000000000000000000000000000000000000000000\n        /* \"#utility.yul\":1552:1553   */\n      0x00\n        /* \"#utility.yul\":1545:1633   */\n      mstore\n        /* \"#utility.yul\":1652:1656   */\n      0x21\n        /* \"#utility.yul\":1649:1650   */\n      0x04\n        /* \"#utility.yul\":1642:1657   */\n      mstore\n        /* \"#utility.yul\":1676:1680   */\n      0x24\n        /* \"#utility.yul\":1673:1674   */\n      0x00\n        /* \"#utility.yul\":1666:1681   */\n      revert\n        /* \"#utility.yul\":1693:1812   */\n    tag_115:\n        /* \"#utility.yul\":1780:1781   */\n      0x04\n        /* \"#utility.yul\":1773:1778   */\n      dup2\n        /* \"#utility.yul\":1770:1782   */\n      lt\n        /* \"#utility.yul\":1760:1806   */\n      tag_159\n      jumpi\n        /* \"#utility.yul\":1786:1804   */\n      tag_160\n      tag_38\n      jump\t// in\n    tag_160:\n        /* \"#utility.yul\":1760:1806   */\n    tag_159:\n        /* \"#utility.yul\":1693:1812   */\n      pop\n      jump\t// out\n        /* \"#utility.yul\":1818:1957   */\n    tag_116:\n        /* \"#utility.yul\":1869:1876   */\n      0x00\n        /* \"#utility.yul\":1898:1903   */\n      dup2\n        /* \"#utility.yul\":1887:1903   */\n      swap1\n      pop\n        /* \"#utility.yul\":1904:1951   */\n      tag_162\n        /* \"#utility.yul\":1945:1950   */\n      dup3\n        /* \"#utility.yul\":1904:1951   */\n      tag_115\n      jump\t// in\n    tag_162:\n        /* \"#utility.yul\":1818:1957   */\n      swap2\n      swap1\n      pop\n      jump\t// out\n        /* \"#utility.yul\":1963:2102   */\n    tag_117:\n        /* \"#utility.yul\":2025:2034   */\n      0x00\n        /* \"#utility.yul\":2058:2096   */\n      tag_164\n        /* \"#utility.yul\":2090:2095   */\n      dup3\n        /* \"#utility.yul\":2058:2096   */\n      tag_116\n      jump\t// in\n    tag_164:\n        /* \"#utility.yul\":2045:2096   */\n      swap1\n      pop\n        /* \"#utility.yul\":1963:2102   */\n      swap2\n      swap1\n      pop\n      jump\t// out\n        /* \"#utility.yul\":2108:2263   */\n    tag_118:\n        /* \"#utility.yul\":2207:2256   */\n      tag_166\n        /* \"#utility.yul\":2250:2255   */\n      dup2\n        /* \"#utility.yul\":2207:2256   */\n      tag_117\n      jump\t// in\n    tag_166:\n        /* \"#utility.yul\":2202:2205   */\n      dup3\n        /* \"#utility.yul\":2195:2257   */\n      mstore\n        /* \"#utility.yul\":2108:2263   */\n      pop\n      pop\n      jump\t// out\n        /* \"#utility.yul\":2269:2359   */\n    tag_119:\n        /* \"#utility.yul\":2303:2310   */\n      0x00\n        /* \"#utility.yul\":2346:2351   */\n      dup2\n        /* \"#utility.yul\":2339:2352   */\n      iszero\n        /* \"#utility.yul\":2332:2353   */\n      iszero\n        /* \"#utility.yul\":2321:2353   */\n      swap1\n      pop\n        /* \"#utility.yul\":2269:2359   */\n      swap2\n      swap1\n      pop\n      jump\t// out\n        /* \"#utility.yul\":2365:2474   */\n    tag_120:\n        /* \"#utility.yul\":2446:2467   */\n      tag_169\n        /* \"#utility.yul\":2461:2466   */\n      dup2\n        /* \"#utility.yul\":2446:2467   */\n      tag_119\n      jump\t// in\n    tag_169:\n        /* \"#utility.yul\":2441:2444   */\n      dup3\n        /* \"#utility.yul\":2434:2468   */\n      mstore\n        /* \"#utility.yul\":2365:2474   */\n      pop\n      pop\n      jump\t// out\n        /* \"#utility.yul\":2480:3255   */\n    tag_28:\n        /* \"#utility.yul\":2713:2717   */\n      0x00\n        /* \"#utility.yul\":2751:2754   */\n      0xc0\n        /* \"#utility.yul\":2740:2749   */\n      dup3\n        /* \"#utility.yul\":2736:2755   */\n      add\n        /* \"#utility.yul\":2728:2755   */\n      swap1\n      pop\n        /* \"#utility.yul\":2765:2836   */\n      tag_171\n        /* \"#utility.yul\":2833:2834   */\n      0x00\n        /* \"#utility.yul\":2822:2831   */\n      dup4\n        /* \"#utility.yul\":2818:2835   */\n      add\n        /* \"#utility.yul\":2809:2815   */\n      dup10\n        /* \"#utility.yul\":2765:2836   */\n      tag_112\n      jump\t// in\n    tag_171:\n        /* \"#utility.yul\":2846:2918   */\n      tag_172\n        /* \"#utility.yul\":2914:2916   */\n      0x20\n        /* \"#utility.yul\":2903:2912   */\n      dup4\n        /* \"#utility.yul\":2899:2917   */\n      add\n        /* \"#utility.yul\":2890:2896   */\n      dup9\n        /* \"#utility.yul\":2846:2918   */\n      tag_112\n      jump\t// in\n    tag_172:\n        /* \"#utility.yul\":2928:3000   */\n      tag_173\n        /* \"#utility.yul\":2996:2998   */\n      0x40\n        /* \"#utility.yul\":2985:2994   */\n      dup4\n        /* \"#utility.yul\":2981:2999   */\n      add\n        /* \"#utility.yul\":2972:2978   */\n      dup8\n        /* \"#utility.yul\":2928:3000   */\n      tag_114\n      jump\t// in\n    tag_173:\n        /* \"#utility.yul\":3010:3094   */\n      tag_174\n        /* \"#utility.yul\":3090:3092   */\n      0x60\n        /* \"#utility.yul\":3079:3088   */\n      dup4\n        /* \"#utility.yul\":3075:3093   */\n      add\n        /* \"#utility.yul\":3066:3072   */\n      dup7\n        /* \"#utility.yul\":3010:3094   */\n      tag_118\n      jump\t// in\n    tag_174:\n        /* \"#utility.yul\":3104:3171   */\n      tag_175\n        /* \"#utility.yul\":3166:3169   */\n      0x80\n        /* \"#utility.yul\":3155:3164   */\n      dup4\n        /* \"#utility.yul\":3151:3170   */\n      add\n        /* \"#utility.yul\":3142:3148   */\n      dup6\n        /* \"#utility.yul\":3104:3171   */\n      tag_120\n      jump\t// in\n    tag_175:\n        /* \"#utility.yul\":3181:3248   */\n      tag_176\n        /* \"#utility.yul\":3243:3246   */\n      0xa0\n        /* \"#utility.yul\":3232:3241   */\n      dup4\n        /* \"#utility.yul\":3228:3247   */\n      add\n        /* \"#utility.yul\":3219:3225   */\n      dup5\n        /* \"#utility.yul\":3181:3248   */\n      tag_120\n      jump\t// in\n    tag_176:\n        /* \"#utility.yul\":2480:3255   */\n      swap8\n      swap7\n      pop\n      pop\n      pop\n      pop\n      pop\n      pop\n      pop\n      jump\t// out\n        /* \"#utility.yul\":3261:3507   */\n    tag_34:\n        /* \"#utility.yul\":3366:3370   */\n      0x00\n        /* \"#utility.yul\":3404:3406   */\n      0x20\n        /* \"#utility.yul\":3393:3402   */\n      dup3\n        /* \"#utility.yul\":3389:3407   */\n      add\n        /* \"#utility.yul\":3381:3407   */\n      swap1\n      pop\n        /* \"#utility.yul\":3417:3500   */\n      tag_178\n        /* \"#utility.yul\":3497:3498   */\n      0x00\n        /* \"#utility.yul\":3486:3495   */\n      dup4\n        /* \"#utility.yul\":3482:3499   */\n      add\n        /* \"#utility.yul\":3473:3479   */\n      dup5\n        /* \"#utility.yul\":3417:3500   */\n      tag_118\n      jump\t// in\n    tag_178:\n        /* \"#utility.yul\":3261:3507   */\n      swap3\n      swap2\n      pop\n      pop\n      jump\t// out\n        /* \"#utility.yul\":3513:3682   */\n    tag_121:\n        /* \"#utility.yul\":3597:3608   */\n      0x00\n        /* \"#utility.yul\":3631:3637   */\n      dup3\n        /* \"#utility.yul\":3626:3629   */\n      dup3\n        /* \"#utility.yul\":3619:3638   */\n      mstore\n        /* \"#utility.yul\":3671:3675   */\n      0x20\n        /* \"#utility.yul\":3666:3669   */\n      dup3\n        /* \"#utility.yul\":3662:3676   */\n      add\n        /* \"#utility.yul\":3647:3676   */\n      swap1\n      pop\n        /* \"#utility.yul\":3513:3682   */\n      swap3\n      swap2\n      pop\n      pop\n      jump\t// out\n        /* \"#utility.yul\":3688:3857   */\n    tag_122:\n        /* \"#utility.yul\":3828:3849   */\n      0x46756e6473206e6f74206465706f736974656400000000000000000000000000\n        /* \"#utility.yul\":3824:3825   */\n      0x00\n        /* \"#utility.yul\":3816:3822   */\n      dup3\n        /* \"#utility.yul\":3812:3826   */\n      add\n        /* \"#utility.yul\":3805:3850   */\n      mstore\n        /* \"#utility.yul\":3688:3857   */\n      pop\n      jump\t// out\n        /* \"#utility.yul\":3863:4229   */\n    tag_123:\n        /* \"#utility.yul\":4005:4008   */\n      0x00\n        /* \"#utility.yul\":4026:4093   */\n      tag_182\n        /* \"#utility.yul\":4090:4092   */\n      0x13\n        /* \"#utility.yul\":4085:4088   */\n      dup4\n        /* \"#utility.yul\":4026:4093   */\n      tag_121\n      jump\t// in\n    tag_182:\n        /* \"#utility.yul\":4019:4093   */\n      swap2\n      pop\n        /* \"#utility.yul\":4102:4195   */\n      tag_183\n        /* \"#utility.yul\":4191:4194   */\n      dup3\n        /* \"#utility.yul\":4102:4195   */\n      tag_122\n      jump\t// in\n    tag_183:\n        /* \"#utility.yul\":4220:4222   */\n      0x20\n        /* \"#utility.yul\":4215:4218   */\n      dup3\n        /* \"#utility.yul\":4211:4223   */\n      add\n        /* \"#utility.yul\":4204:4223   */\n      swap1\n      pop\n        /* \"#utility.yul\":3863:4229   */\n      swap2\n      swap1\n      pop\n      jump\t// out\n        /* \"#utility.yul\":4235:4654   */\n    tag_43:\n        /* \"#utility.yul\":4401:4405   */\n      0x00\n        /* \"#utility.yul\":4439:4441   */\n      0x20\n        /* \"#utility.yul\":4428:4437   */\n      dup3\n        /* \"#utility.yul\":4424:4442   */\n      add\n        /* \"#utility.yul\":4416:4442   */\n      swap1\n      pop\n        /* \"#utility.yul\":4488:4497   */\n      dup2\n        /* \"#utility.yul\":4482:4486   */\n      dup2\n        /* \"#utility.yul\":4478:4498   */\n      sub\n        /* \"#utility.yul\":4474:4475   */\n      0x00\n        /* \"#utility.yul\":4463:4472   */\n      dup4\n        /* \"#utility.yul\":4459:4476   */\n      add\n        /* \"#utility.yul\":4452:4499   */\n      mstore\n        /* \"#utility.yul\":4516:4647   */\n      tag_185\n        /* \"#utility.yul\":4642:4646   */\n      dup2\n        /* \"#utility.yul\":4516:4647   */\n      tag_123\n      jump\t// in\n    tag_185:\n        /* \"#utility.yul\":4508:4647   */\n      swap1\n      pop\n        /* \"#utility.yul\":4235:4654   */\n      swap2\n      swap1\n      pop\n      jump\t// out\n        /* \"#utility.yul\":4660:4884   */\n    tag_124:\n        /* \"#utility.yul\":4800:4834   */\n      0x4f6e6c79207468652073656c6c65722063616e2072656c656173652074686520\n        /* \"#utility.yul\":4796:4797   */\n      0x00\n        /* \"#utility.yul\":4788:4794   */\n      dup3\n        /* \"#utility.yul\":4784:4798   */\n      add\n        /* \"#utility.yul\":4777:4835   */\n      mstore\n        /* \"#utility.yul\":4869:4876   */\n      0x66756e6473000000000000000000000000000000000000000000000000000000\n        /* \"#utility.yul\":4864:4866   */\n      0x20\n        /* \"#utility.yul\":4856:4862   */\n      dup3\n        /* \"#utility.yul\":4852:4867   */\n      add\n        /* \"#utility.yul\":4845:4877   */\n      mstore\n        /* \"#utility.yul\":4660:4884   */\n      pop\n      jump\t// out\n        /* \"#utility.yul\":4890:5256   */\n    tag_125:\n        /* \"#utility.yul\":5032:5035   */\n      0x00\n        /* \"#utility.yul\":5053:5120   */\n      tag_188\n        /* \"#utility.yul\":5117:5119   */\n      0x25\n        /* \"#utility.yul\":5112:5115   */\n      dup4\n        /* \"#utility.yul\":5053:5120   */\n      tag_121\n      jump\t// in\n    tag_188:\n        /* \"#utility.yul\":5046:5120   */\n      swap2\n      pop\n        /* \"#utility.yul\":5129:5222   */\n      tag_189\n        /* \"#utility.yul\":5218:5221   */\n      dup3\n        /* \"#utility.yul\":5129:5222   */\n      tag_124\n      jump\t// in\n    tag_189:\n        /* \"#utility.yul\":5247:5249   */\n      0x40\n        /* \"#utility.yul\":5242:5245   */\n      dup3\n        /* \"#utility.yul\":5238:5250   */\n      add\n        /* \"#utility.yul\":5231:5250   */\n      swap1\n      pop\n        /* \"#utility.yul\":4890:5256   */\n      swap2\n      swap1\n      pop\n      jump\t// out\n        /* \"#utility.yul\":5262:5681   */\n    tag_46:\n        /* \"#utility.yul\":5428:5432   */\n      0x00\n        /* \"#utility.yul\":5466:5468   */\n      0x20\n        /* \"#utility.yul\":5455:5464   */\n      dup3\n        /* \"#utility.yul\":5451:5469   */\n      add\n        /* \"#utility.yul\":5443:5469   */\n      swap1\n      pop\n        /* \"#utility.yul\":5515:5524   */\n      dup2\n        /* \"#utility.yul\":5509:5513   */\n      dup2\n        /* \"#utility.yul\":5505:5525   */\n      sub\n        /* \"#utility.yul\":5501:5502   */\n      0x00\n        /* \"#utility.yul\":5490:5499   */\n      dup4\n        /* \"#utility.yul\":5486:5503   */\n      add\n        /* \"#utility.yul\":5479:5526   */\n      mstore\n        /* \"#utility.yul\":5543:5674   */\n      tag_191\n        /* \"#utility.yul\":5669:5673   */\n      dup2\n        /* \"#utility.yul\":5543:5674   */\n      tag_125\n      jump\t// in\n    tag_191:\n        /* \"#utility.yul\":5535:5674   */\n      swap1\n      pop\n        /* \"#utility.yul\":5262:5681   */\n      swap2\n      swap1\n      pop\n      jump\t// out\n        /* \"#utility.yul\":5687:6129   */\n    tag_53:\n        /* \"#utility.yul\":5836:5840   */\n      0x00\n        /* \"#utility.yul\":5874:5876   */\n      0x60\n        /* \"#utility.yul\":5863:5872   */\n      dup3\n        /* \"#utility.yul\":5859:5877   */\n      add\n        /* \"#utility.yul\":5851:5877   */\n      swap1\n      pop\n        /* \"#utility.yul\":5887:5958   */\n      tag_193\n        /* \"#utility.yul\":5955:5956   */\n      0x00\n        /* \"#utility.yul\":5944:5953   */\n      dup4\n        /* \"#utility.yul\":5940:5957   */\n      add\n        /* \"#utility.yul\":5931:5937   */\n      dup7\n        /* \"#utility.yul\":5887:5958   */\n      tag_112\n      jump\t// in\n    tag_193:\n        /* \"#utility.yul\":5968:6040   */\n      tag_194\n        /* \"#utility.yul\":6036:6038   */\n      0x20\n        /* \"#utility.yul\":6025:6034   */\n      dup4\n        /* \"#utility.yul\":6021:6039   */\n      add\n        /* \"#utility.yul\":6012:6018   */\n      dup6\n        /* \"#utility.yul\":5968:6040   */\n      tag_112\n      jump\t// in\n    tag_194:\n        /* \"#utility.yul\":6050:6122   */\n      tag_195\n        /* \"#utility.yul\":6118:6120   */\n      0x40\n        /* \"#utility.yul\":6107:6116   */\n      dup4\n        /* \"#utility.yul\":6103:6121   */\n      add\n        /* \"#utility.yul\":6094:6100   */\n      dup5\n        /* \"#utility.yul\":6050:6122   */\n      tag_114\n      jump\t// in\n    tag_195:\n        /* \"#utility.yul\":5687:6129   */\n      swap5\n      swap4\n      pop\n      pop\n      pop\n      pop\n      jump\t// out\n        /* \"#utility.yul\":6135:6364   */\n    tag_126:\n        /* \"#utility.yul\":6275:6309   */\n      0x42757965722068617320616c726561647920617070726f766564207468652074\n        /* \"#utility.yul\":6271:6272   */\n      0x00\n        /* \"#utility.yul\":6263:6269   */\n      dup3\n        /* \"#utility.yul\":6259:6273   */\n      add\n        /* \"#utility.yul\":6252:6310   */\n      mstore\n        /* \"#utility.yul\":6344:6356   */\n      0x72616e73616374696f6e00000000000000000000000000000000000000000000\n        /* \"#utility.yul\":6339:6341   */\n      0x20\n        /* \"#utility.yul\":6331:6337   */\n      dup3\n        /* \"#utility.yul\":6327:6342   */\n      add\n        /* \"#utility.yul\":6320:6357   */\n      mstore\n        /* \"#utility.yul\":6135:6364   */\n      pop\n      jump\t// out\n        /* \"#utility.yul\":6370:6736   */\n    tag_127:\n        /* \"#utility.yul\":6512:6515   */\n      0x00\n        /* \"#utility.yul\":6533:6600   */\n      tag_198\n        /* \"#utility.yul\":6597:6599   */\n      0x2a\n        /* \"#utility.yul\":6592:6595   */\n      dup4\n        /* \"#utility.yul\":6533:6600   */\n      tag_121\n      jump\t// in\n    tag_198:\n        /* \"#utility.yul\":6526:6600   */\n      swap2\n      pop\n        /* \"#utility.yul\":6609:6702   */\n      tag_199\n        /* \"#utility.yul\":6698:6701   */\n      dup3\n        /* \"#utility.yul\":6609:6702   */\n      tag_126\n      jump\t// in\n    tag_199:\n        /* \"#utility.yul\":6727:6729   */\n      0x40\n        /* \"#utility.yul\":6722:6725   */\n      dup3\n        /* \"#utility.yul\":6718:6730   */\n      add\n        /* \"#utility.yul\":6711:6730   */\n      swap1\n      pop\n        /* \"#utility.yul\":6370:6736   */\n      swap2\n      swap1\n      pop\n      jump\t// out\n        /* \"#utility.yul\":6742:7161   */\n    tag_64:\n        /* \"#utility.yul\":6908:6912   */\n      0x00\n        /* \"#utility.yul\":6946:6948   */\n      0x20\n        /* \"#utility.yul\":6935:6944   */\n      dup3\n        /* \"#utility.yul\":6931:6949   */\n      add\n        /* \"#utility.yul\":6923:6949   */\n      swap1\n      pop\n        /* \"#utility.yul\":6995:7004   */\n      dup2\n        /* \"#utility.yul\":6989:6993   */\n      dup2\n        /* \"#utility.yul\":6985:7005   */\n      sub\n        /* \"#utility.yul\":6981:6982   */\n      0x00\n        /* \"#utility.yul\":6970:6979   */\n      dup4\n        /* \"#utility.yul\":6966:6983   */\n      add\n        /* \"#utility.yul\":6959:7006   */\n      mstore\n        /* \"#utility.yul\":7023:7154   */\n      tag_201\n        /* \"#utility.yul\":7149:7153   */\n      dup2\n        /* \"#utility.yul\":7023:7154   */\n      tag_127\n      jump\t// in\n    tag_201:\n        /* \"#utility.yul\":7015:7154   */\n      swap1\n      pop\n        /* \"#utility.yul\":6742:7161   */\n      swap2\n      swap1\n      pop\n      jump\t// out\n        /* \"#utility.yul\":7167:7397   */\n    tag_128:\n        /* \"#utility.yul\":7307:7341   */\n      0x53656c6c65722068617320616c726561647920617070726f7665642074686520\n        /* \"#utility.yul\":7303:7304   */\n      0x00\n        /* \"#utility.yul\":7295:7301   */\n      dup3\n        /* \"#utility.yul\":7291:7305   */\n      add\n        /* \"#utility.yul\":7284:7342   */\n      mstore\n        /* \"#utility.yul\":7376:7389   */\n      0x7472616e73616374696f6e000000000000000000000000000000000000000000\n        /* \"#utility.yul\":7371:7373   */\n      0x20\n        /* \"#utility.yul\":7363:7369   */\n      dup3\n        /* \"#utility.yul\":7359:7374   */\n      add\n        /* \"#utility.yul\":7352:7390   */\n      mstore\n        /* \"#utility.yul\":7167:7397   */\n      pop\n      jump\t// out\n        /* \"#utility.yul\":7403:7769   */\n    tag_129:\n        /* \"#utility.yul\":7545:7548   */\n      0x00\n        /* \"#utility.yul\":7566:7633   */\n      tag_204\n        /* \"#utility.yul\":7630:7632   */\n      0x2b\n        /* \"#utility.yul\":7625:7628   */\n      dup4\n        /* \"#utility.yul\":7566:7633   */\n      tag_121\n      jump\t// in\n    tag_204:\n        /* \"#utility.yul\":7559:7633   */\n      swap2\n      pop\n        /* \"#utility.yul\":7642:7735   */\n      tag_205\n        /* \"#utility.yul\":7731:7734   */\n      dup3\n        /* \"#utility.yul\":7642:7735   */\n      tag_128\n      jump\t// in\n    tag_205:\n        /* \"#utility.yul\":7760:7762   */\n      0x40\n        /* \"#utility.yul\":7755:7758   */\n      dup3\n        /* \"#utility.yul\":7751:7763   */\n      add\n        /* \"#utility.yul\":7744:7763   */\n      swap1\n      pop\n        /* \"#utility.yul\":7403:7769   */\n      swap2\n      swap1\n      pop\n      jump\t// out\n        /* \"#utility.yul\":7775:8194   */\n    tag_69:\n        /* \"#utility.yul\":7941:7945   */\n      0x00\n        /* \"#utility.yul\":7979:7981   */\n      0x20\n        /* \"#utility.yul\":7968:7977   */\n      dup3\n        /* \"#utility.yul\":7964:7982   */\n      add\n        /* \"#utility.yul\":7956:7982   */\n      swap1\n      pop\n        /* \"#utility.yul\":8028:8037   */\n      dup2\n        /* \"#utility.yul\":8022:8026   */\n      dup2\n        /* \"#utility.yul\":8018:8038   */\n      sub\n        /* \"#utility.yul\":8014:8015   */\n      0x00\n        /* \"#utility.yul\":8003:8012   */\n      dup4\n        /* \"#utility.yul\":7999:8016   */\n      add\n        /* \"#utility.yul\":7992:8039   */\n      mstore\n        /* \"#utility.yul\":8056:8187   */\n      tag_207\n        /* \"#utility.yul\":8182:8186   */\n      dup2\n        /* \"#utility.yul\":8056:8187   */\n      tag_129\n      jump\t// in\n    tag_207:\n        /* \"#utility.yul\":8048:8187   */\n      swap1\n      pop\n        /* \"#utility.yul\":7775:8194   */\n      swap2\n      swap1\n      pop\n      jump\t// out\n        /* \"#utility.yul\":8200:8424   */\n    tag_130:\n        /* \"#utility.yul\":8340:8374   */\n      0x4f6e6c79207468652062757965722063616e20696e6974696174652061206469\n        /* \"#utility.yul\":8336:8337   */\n      0x00\n        /* \"#utility.yul\":8328:8334   */\n      dup3\n        /* \"#utility.yul\":8324:8338   */\n      add\n        /* \"#utility.yul\":8317:8375   */\n      mstore\n        /* \"#utility.yul\":8409:8416   */\n      0x7370757465000000000000000000000000000000000000000000000000000000\n        /* \"#utility.yul\":8404:8406   */\n      0x20\n        /* \"#utility.yul\":8396:8402   */\n      dup3\n        /* \"#utility.yul\":8392:8407   */\n      add\n        /* \"#utility.yul\":8385:8417   */\n      mstore\n        /* \"#utility.yul\":8200:8424   */\n      pop\n      jump\t// out\n        /* \"#utility.yul\":8430:8796   */\n    tag_131:\n        /* \"#utility.yul\":8572:8575   */\n      0x00\n        /* \"#utility.yul\":8593:8660   */\n      tag_210\n        /* \"#utility.yul\":8657:8659   */\n      0x25\n        /* \"#utility.yul\":8652:8655   */\n      dup4\n        /* \"#utility.yul\":8593:8660   */\n      tag_121\n      jump\t// in\n    tag_210:\n        /* \"#utility.yul\":8586:8660   */\n      swap2\n      pop\n        /* \"#utility.yul\":8669:8762   */\n      tag_211\n        /* \"#utility.yul\":8758:8761   */\n      dup3\n        /* \"#utility.yul\":8669:8762   */\n      tag_130\n      jump\t// in\n    tag_211:\n        /* \"#utility.yul\":8787:8789   */\n      0x40\n        /* \"#utility.yul\":8782:8785   */\n      dup3\n        /* \"#utility.yul\":8778:8790   */\n      add\n        /* \"#utility.yul\":8771:8790   */\n      swap1\n      pop\n        /* \"#utility.yul\":8430:8796   */\n      swap2\n      swap1\n      pop\n      jump\t// out\n        /* \"#utility.yul\":8802:9221   */\n    tag_86:\n        /* \"#utility.yul\":8968:8972   */\n      0x00\n        /* \"#utility.yul\":9006:9008   */\n      0x20\n        /* \"#utility.yul\":8995:9004   */\n      dup3\n        /* \"#utility.yul\":8991:9009   */\n      add\n        /* \"#utility.yul\":8983:9009   */\n      swap1\n      pop\n        /* \"#utility.yul\":9055:9064   */\n      dup2\n        /* \"#utility.yul\":9049:9053   */\n      dup2\n        /* \"#utility.yul\":9045:9065   */\n      sub\n        /* \"#utility.yul\":9041:9042   */\n      0x00\n        /* \"#utility.yul\":9030:9039   */\n      dup4\n        /* \"#utility.yul\":9026:9043   */\n      add\n        /* \"#utility.yul\":9019:9066   */\n      mstore\n        /* \"#utility.yul\":9083:9214   */\n      tag_213\n        /* \"#utility.yul\":9209:9213   */\n      dup2\n        /* \"#utility.yul\":9083:9214   */\n      tag_131\n      jump\t// in\n    tag_213:\n        /* \"#utility.yul\":9075:9214   */\n      swap1\n      pop\n        /* \"#utility.yul\":8802:9221   */\n      swap2\n      swap1\n      pop\n      jump\t// out\n        /* \"#utility.yul\":9227:9454   */\n    tag_132:\n        /* \"#utility.yul\":9367:9401   */\n      0x4465706f73697420616d6f756e74206d75737420626520677265617465722074\n        /* \"#utility.yul\":9363:9364   */\n      0x00\n        /* \"#utility.yul\":9355:9361   */\n      dup3\n        /* \"#utility.yul\":9351:9365   */\n      add\n        /* \"#utility.yul\":9344:9402   */\n      mstore\n        /* \"#utility.yul\":9436:9446   */\n      0x68616e207a65726f000000000000000000000000000000000000000000000000\n        /* \"#utility.yul\":9431:9433   */\n      0x20\n        /* \"#utility.yul\":9423:9429   */\n      dup3\n        /* \"#utility.yul\":9419:9434   */\n      add\n        /* \"#utility.yul\":9412:9447   */\n      mstore\n        /* \"#utility.yul\":9227:9454   */\n      pop\n      jump\t// out\n        /* \"#utility.yul\":9460:9826   */\n    tag_133:\n        /* \"#utility.yul\":9602:9605   */\n      0x00\n        /* \"#utility.yul\":9623:9690   */\n      tag_216\n        /* \"#utility.yul\":9687:9689   */\n      0x28\n        /* \"#utility.yul\":9682:9685   */\n      dup4\n        /* \"#utility.yul\":9623:9690   */\n      tag_121\n      jump\t// in\n    tag_216:\n        /* \"#utility.yul\":9616:9690   */\n      swap2\n      pop\n        /* \"#utility.yul\":9699:9792   */\n      tag_217\n        /* \"#utility.yul\":9788:9791   */\n      dup3\n        /* \"#utility.yul\":9699:9792   */\n      tag_132\n      jump\t// in\n    tag_217:\n        /* \"#utility.yul\":9817:9819   */\n      0x40\n        /* \"#utility.yul\":9812:9815   */\n      dup3\n        /* \"#utility.yul\":9808:9820   */\n      add\n        /* \"#utility.yul\":9801:9820   */\n      swap1\n      pop\n        /* \"#utility.yul\":9460:9826   */\n      swap2\n      swap1\n      pop\n      jump\t// out\n        /* \"#utility.yul\":9832:10251   */\n    tag_93:\n        /* \"#utility.yul\":9998:10002   */\n      0x00\n        /* \"#utility.yul\":10036:10038   */\n      0x20\n        /* \"#utility.yul\":10025:10034   */\n      dup3\n        /* \"#utility.yul\":10021:10039   */\n      add\n        /* \"#utility.yul\":10013:10039   */\n      swap1\n      pop\n        /* \"#utility.yul\":10085:10094   */\n      dup2\n        /* \"#utility.yul\":10079:10083   */\n      dup2\n        /* \"#utility.yul\":10075:10095   */\n      sub\n        /* \"#utility.yul\":10071:10072   */\n      0x00\n        /* \"#utility.yul\":10060:10069   */\n      dup4\n        /* \"#utility.yul\":10056:10073   */\n      add\n        /* \"#utility.yul\":10049:10096   */\n      mstore\n        /* \"#utility.yul\":10113:10244   */\n      tag_219\n        /* \"#utility.yul\":10239:10243   */\n      dup2\n        /* \"#utility.yul\":10113:10244   */\n      tag_133\n      jump\t// in\n    tag_219:\n        /* \"#utility.yul\":10105:10244   */\n      swap1\n      pop\n        /* \"#utility.yul\":9832:10251   */\n      swap2\n      swap1\n      pop\n      jump\t// out\n        /* \"#utility.yul\":10257:10435   */\n    tag_134:\n        /* \"#utility.yul\":10397:10427   */\n      0x4e6f2070656e64696e67207472616e73616374696f6e20666f756e6400000000\n        /* \"#utility.yul\":10393:10394   */\n      0x00\n        /* \"#utility.yul\":10385:10391   */\n      dup3\n        /* \"#utility.yul\":10381:10395   */\n      add\n        /* \"#utility.yul\":10374:10428   */\n      mstore\n        /* \"#utility.yul\":10257:10435   */\n      pop\n      jump\t// out\n        /* \"#utility.yul\":10441:10807   */\n    tag_135:\n        /* \"#utility.yul\":10583:10586   */\n      0x00\n        /* \"#utility.yul\":10604:10671   */\n      tag_222\n        /* \"#utility.yul\":10668:10670   */\n      0x1c\n        /* \"#utility.yul\":10663:10666   */\n      dup4\n        /* \"#utility.yul\":10604:10671   */\n      tag_121\n      jump\t// in\n    tag_222:\n        /* \"#utility.yul\":10597:10671   */\n      swap2\n      pop\n        /* \"#utility.yul\":10680:10773   */\n      tag_223\n        /* \"#utility.yul\":10769:10772   */\n      dup3\n        /* \"#utility.yul\":10680:10773   */\n      tag_134\n      jump\t// in\n    tag_223:\n        /* \"#utility.yul\":10798:10800   */\n      0x20\n        /* \"#utility.yul\":10793:10796   */\n      dup3\n        /* \"#utility.yul\":10789:10801   */\n      add\n        /* \"#utility.yul\":10782:10801   */\n      swap1\n      pop\n        /* \"#utility.yul\":10441:10807   */\n      swap2\n      swap1\n      pop\n      jump\t// out\n        /* \"#utility.yul\":10813:11232   */\n    tag_100:\n        /* \"#utility.yul\":10979:10983   */\n      0x00\n        /* \"#utility.yul\":11017:11019   */\n      0x20\n        /* \"#utility.yul\":11006:11015   */\n      dup3\n        /* \"#utility.yul\":11002:11020   */\n      add\n        /* \"#utility.yul\":10994:11020   */\n      swap1\n      pop\n        /* \"#utility.yul\":11066:11075   */\n      dup2\n        /* \"#utility.yul\":11060:11064   */\n      dup2\n        /* \"#utility.yul\":11056:11076   */\n      sub\n        /* \"#utility.yul\":11052:11053   */\n      0x00\n        /* \"#utility.yul\":11041:11050   */\n      dup4\n        /* \"#utility.yul\":11037:11054   */\n      add\n        /* \"#utility.yul\":11030:11077   */\n      mstore\n        /* \"#utility.yul\":11094:11225   */\n      tag_225\n        /* \"#utility.yul\":11220:11224   */\n      dup2\n        /* \"#utility.yul\":11094:11225   */\n      tag_135\n      jump\t// in\n    tag_225:\n        /* \"#utility.yul\":11086:11225   */\n      swap1\n      pop\n        /* \"#utility.yul\":10813:11232   */\n      swap2\n      swap1\n      pop\n      jump\t// out\n\n    auxdata: 0xa26469706673582212202b8b6903e00976dd166e5adfe3645b3154c1a596529881acddd5a19dd1df56f364736f6c63430008140033\n}\n",
				"bytecode": {
					"linkReferences": {},
					"object": "608060405234801561000f575f80fd5b5061121c8061001d5f395ff3fe608060405260043610610054575f3560e01c8063192e7a7b1461005857806333b7a6741461008057806389bf0ece14610096578063919747fb146100be578063c32fdf34146100da578063e8af4caa1461011b575b5f80fd5b348015610063575f80fd5b5061007e60048036038101906100799190610cb4565b610157565b005b34801561008b575f80fd5b506100946103d0565b005b3480156100a1575f80fd5b506100bc60048036038101906100b79190610cb4565b610766565b005b6100d860048036038101906100d39190610cb4565b61093e565b005b3480156100e5575f80fd5b5061010060048036038101906100fb9190610cb4565b610b67565b60405161011296959493929190610d93565b60405180910390f35b348015610126575f80fd5b50610141600480360381019061013c9190610cb4565b610c02565b60405161014e9190610df2565b60405180910390f35b5f805f8373ffffffffffffffffffffffffffffffffffffffff1673ffffffffffffffffffffffffffffffffffffffff1681526020019081526020015f209050600160038111156101aa576101a9610d06565b5b816003015f9054906101000a900460ff1660038111156101cd576101cc610d06565b5b1461020d576040517f08c379a000000000000000000000000000000000000000000000000000000000815260040161020490610e65565b60405180910390fd5b806001015f9054906101000a900473ffffffffffffffffffffffffffffffffffffffff1673ffffffffffffffffffffffffffffffffffffffff163373ffffffffffffffffffffffffffffffffffffffff161461029e576040517f08c379a000000000000000000000000000000000000000000000000000000000815260040161029590610ef3565b60405180910390fd5b60018160030160026101000a81548160ff0219169083151502179055508060030160019054906101000a900460ff16156103cc576002816003015f6101000a81548160ff021916908360038111156102f9576102f8610d06565b5b0217905550806001015f9054906101000a900473ffffffffffffffffffffffffffffffffffffffff1673ffffffffffffffffffffffffffffffffffffffff166108fc826002015490811502906040515f60405180830381858888f19350505050158015610368573d5f803e3d5ffd5b507feed10c470424824e4a4309075162f10b9989088b23fbed2349698cedd44493fb82826001015f9054906101000a900473ffffffffffffffffffffffffffffffffffffffff1683600201546040516103c393929190610f11565b60405180910390a15b5050565b5f805f3373ffffffffffffffffffffffffffffffffffffffff1673ffffffffffffffffffffffffffffffffffffffff1681526020019081526020015f2090506001600381111561042357610422610d06565b5b816003015f9054906101000a900460ff16600381111561044657610445610d06565b5b14610486576040517f08c379a000000000000000000000000000000000000000000000000000000000815260040161047d90610e65565b60405180910390fd5b805f015f9054906101000a900473ffffffffffffffffffffffffffffffffffffffff1673ffffffffffffffffffffffffffffffffffffffff163373ffffffffffffffffffffffffffffffffffffffff160361054f578060030160019054906101000a900460ff161561052d576040517f08c379a000000000000000000000000000000000000000000000000000000000815260040161052490610fb6565b60405180910390fd5b60018160030160016101000a81548160ff021916908315150217905550610616565b806001015f9054906101000a900473ffffffffffffffffffffffffffffffffffffffff1673ffffffffffffffffffffffffffffffffffffffff163373ffffffffffffffffffffffffffffffffffffffff1603610615578060030160029054906101000a900460ff16156105f7576040517f08c379a00000000000000000000000000000000000000000000000000000000081526004016105ee90611044565b60405180910390fd5b60018160030160026101000a81548160ff0219169083151502179055505b5b8060030160019054906101000a900460ff16801561064257508060030160029054906101000a900460ff165b15610763576002816003015f6101000a81548160ff0219169083600381111561066e5761066d610d06565b5b0217905550806001015f9054906101000a900473ffffffffffffffffffffffffffffffffffffffff1673ffffffffffffffffffffffffffffffffffffffff166108fc826002015490811502906040515f60405180830381858888f193505050501580156106dd573d5f803e3d5ffd5b507feed10c470424824e4a4309075162f10b9989088b23fbed2349698cedd44493fb815f015f9054906101000a900473ffffffffffffffffffffffffffffffffffffffff16826001015f9054906101000a900473ffffffffffffffffffffffffffffffffffffffff16836002015460405161075a93929190610f11565b60405180910390a15b50565b5f805f8373ffffffffffffffffffffffffffffffffffffffff1673ffffffffffffffffffffffffffffffffffffffff1681526020019081526020015f209050600160038111156107b9576107b8610d06565b5b816003015f9054906101000a900460ff1660038111156107dc576107db610d06565b5b1461081c576040517f08c379a000000000000000000000000000000000000000000000000000000000815260040161081390610e65565b60405180910390fd5b805f015f9054906101000a900473ffffffffffffffffffffffffffffffffffffffff1673ffffffffffffffffffffffffffffffffffffffff163373ffffffffffffffffffffffffffffffffffffffff16146108ac576040517f08c379a00000000000000000000000000000000000000000000000000000000081526004016108a3906110d2565b60405180910390fd5b6003816003015f6101000a81548160ff021916908360038111156108d3576108d2610d06565b5b02179055507fc98fd1f80a8937b1fdeb951d0b63bf7c924a1872543ae2499295625b18abe70e82826001015f9054906101000a900473ffffffffffffffffffffffffffffffffffffffff16836002015460405161093293929190610f11565b60405180910390a15050565b5f3411610980576040517f08c379a000000000000000000000000000000000000000000000000000000000815260040161097790611160565b60405180910390fd5b5f600381111561099357610992610d06565b5b5f803373ffffffffffffffffffffffffffffffffffffffff1673ffffffffffffffffffffffffffffffffffffffff1681526020019081526020015f206003015f9054906101000a900460ff1660038111156109f1576109f0610d06565b5b14610a31576040517f08c379a0000000000000000000000000000000000000000000000000000000008152600401610a28906111c8565b60405180910390fd5b5f805f3373ffffffffffffffffffffffffffffffffffffffff1673ffffffffffffffffffffffffffffffffffffffff1681526020019081526020015f20905033815f015f6101000a81548173ffffffffffffffffffffffffffffffffffffffff021916908373ffffffffffffffffffffffffffffffffffffffff16021790555081816001015f6101000a81548173ffffffffffffffffffffffffffffffffffffffff021916908373ffffffffffffffffffffffffffffffffffffffff1602179055503481600201819055506001816003015f6101000a81548160ff02191690836003811115610b2357610b22610d06565b5b02179055507ff0d0e99cae184d0187b093b48894117462462379674a6e11d89c3fbb618e96b0338334604051610b5b93929190610f11565b60405180910390a15050565b5f602052805f5260405f205f91509050805f015f9054906101000a900473ffffffffffffffffffffffffffffffffffffffff1690806001015f9054906101000a900473ffffffffffffffffffffffffffffffffffffffff1690806002015490806003015f9054906101000a900460ff16908060030160019054906101000a900460ff16908060030160029054906101000a900460ff16905086565b5f805f8373ffffffffffffffffffffffffffffffffffffffff1673ffffffffffffffffffffffffffffffffffffffff1681526020019081526020015f206003015f9054906101000a900460ff169050919050565b5f80fd5b5f73ffffffffffffffffffffffffffffffffffffffff82169050919050565b5f610c8382610c5a565b9050919050565b610c9381610c79565b8114610c9d575f80fd5b50565b5f81359050610cae81610c8a565b92915050565b5f60208284031215610cc957610cc8610c56565b5b5f610cd684828501610ca0565b91505092915050565b610ce881610c79565b82525050565b5f819050919050565b610d0081610cee565b82525050565b7f4e487b71000000000000000000000000000000000000000000000000000000005f52602160045260245ffd5b60048110610d4457610d43610d06565b5b50565b5f819050610d5482610d33565b919050565b5f610d6382610d47565b9050919050565b610d7381610d59565b82525050565b5f8115159050919050565b610d8d81610d79565b82525050565b5f60c082019050610da65f830189610cdf565b610db36020830188610cdf565b610dc06040830187610cf7565b610dcd6060830186610d6a565b610dda6080830185610d84565b610de760a0830184610d84565b979650505050505050565b5f602082019050610e055f830184610d6a565b92915050565b5f82825260208201905092915050565b7f46756e6473206e6f74206465706f7369746564000000000000000000000000005f82015250565b5f610e4f601383610e0b565b9150610e5a82610e1b565b602082019050919050565b5f6020820190508181035f830152610e7c81610e43565b9050919050565b7f4f6e6c79207468652073656c6c65722063616e2072656c6561736520746865205f8201527f66756e6473000000000000000000000000000000000000000000000000000000602082015250565b5f610edd602583610e0b565b9150610ee882610e83565b604082019050919050565b5f6020820190508181035f830152610f0a81610ed1565b9050919050565b5f606082019050610f245f830186610cdf565b610f316020830185610cdf565b610f3e6040830184610cf7565b949350505050565b7f42757965722068617320616c726561647920617070726f7665642074686520745f8201527f72616e73616374696f6e00000000000000000000000000000000000000000000602082015250565b5f610fa0602a83610e0b565b9150610fab82610f46565b604082019050919050565b5f6020820190508181035f830152610fcd81610f94565b9050919050565b7f53656c6c65722068617320616c726561647920617070726f76656420746865205f8201527f7472616e73616374696f6e000000000000000000000000000000000000000000602082015250565b5f61102e602b83610e0b565b915061103982610fd4565b604082019050919050565b5f6020820190508181035f83015261105b81611022565b9050919050565b7f4f6e6c79207468652062757965722063616e20696e69746961746520612064695f8201527f7370757465000000000000000000000000000000000000000000000000000000602082015250565b5f6110bc602583610e0b565b91506110c782611062565b604082019050919050565b5f6020820190508181035f8301526110e9816110b0565b9050919050565b7f4465706f73697420616d6f756e74206d757374206265206772656174657220745f8201527f68616e207a65726f000000000000000000000000000000000000000000000000602082015250565b5f61114a602883610e0b565b9150611155826110f0565b604082019050919050565b5f6020820190508181035f8301526111778161113e565b9050919050565b7f4e6f2070656e64696e67207472616e73616374696f6e20666f756e64000000005f82015250565b5f6111b2601c83610e0b565b91506111bd8261117e565b602082019050919050565b5f6020820190508181035f8301526111df816111a6565b905091905056fea26469706673582212202b8b6903e00976dd166e5adfe3645b3154c1a596529881acddd5a19dd1df56f364736f6c63430008140033",
					"opcodes": "PUSH1 0x80 PUSH1 0x40 MSTORE CALLVALUE DUP1 ISZERO PUSH2 0xF JUMPI PUSH0 DUP1 REVERT JUMPDEST POP PUSH2 0x121C DUP1 PUSH2 0x1D PUSH0 CODECOPY PUSH0 RETURN INVALID PUSH1 0x80 PUSH1 0x40 MSTORE PUSH1 0x4 CALLDATASIZE LT PUSH2 0x54 JUMPI PUSH0 CALLDATALOAD PUSH1 0xE0 SHR DUP1 PUSH4 0x192E7A7B EQ PUSH2 0x58 JUMPI DUP1 PUSH4 0x33B7A674 EQ PUSH2 0x80 JUMPI DUP1 PUSH4 0x89BF0ECE EQ PUSH2 0x96 JUMPI DUP1 PUSH4 0x919747FB EQ PUSH2 0xBE JUMPI DUP1 PUSH4 0xC32FDF34 EQ PUSH2 0xDA JUMPI DUP1 PUSH4 0xE8AF4CAA EQ PUSH2 0x11B JUMPI JUMPDEST PUSH0 DUP1 REVERT JUMPDEST CALLVALUE DUP1 ISZERO PUSH2 0x63 JUMPI PUSH0 DUP1 REVERT JUMPDEST POP PUSH2 0x7E PUSH1 0x4 DUP1 CALLDATASIZE SUB DUP2 ADD SWAP1 PUSH2 0x79 SWAP2 SWAP1 PUSH2 0xCB4 JUMP JUMPDEST PUSH2 0x157 JUMP JUMPDEST STOP JUMPDEST CALLVALUE DUP1 ISZERO PUSH2 0x8B JUMPI PUSH0 DUP1 REVERT JUMPDEST POP PUSH2 0x94 PUSH2 0x3D0 JUMP JUMPDEST STOP JUMPDEST CALLVALUE DUP1 ISZERO PUSH2 0xA1 JUMPI PUSH0 DUP1 REVERT JUMPDEST POP PUSH2 0xBC PUSH1 0x4 DUP1 CALLDATASIZE SUB DUP2 ADD SWAP1 PUSH2 0xB7 SWAP2 SWAP1 PUSH2 0xCB4 JUMP JUMPDEST PUSH2 0x766 JUMP JUMPDEST STOP JUMPDEST PUSH2 0xD8 PUSH1 0x4 DUP1 CALLDATASIZE SUB DUP2 ADD SWAP1 PUSH2 0xD3 SWAP2 SWAP1 PUSH2 0xCB4 JUMP JUMPDEST PUSH2 0x93E JUMP JUMPDEST STOP JUMPDEST CALLVALUE DUP1 ISZERO PUSH2 0xE5 JUMPI PUSH0 DUP1 REVERT JUMPDEST POP PUSH2 0x100 PUSH1 0x4 DUP1 CALLDATASIZE SUB DUP2 ADD SWAP1 PUSH2 0xFB SWAP2 SWAP1 PUSH2 0xCB4 JUMP JUMPDEST PUSH2 0xB67 JUMP JUMPDEST PUSH1 0x40 MLOAD PUSH2 0x112 SWAP7 SWAP6 SWAP5 SWAP4 SWAP3 SWAP2 SWAP1 PUSH2 0xD93 JUMP JUMPDEST PUSH1 0x40 MLOAD DUP1 SWAP2 SUB SWAP1 RETURN JUMPDEST CALLVALUE DUP1 ISZERO PUSH2 0x126 JUMPI PUSH0 DUP1 REVERT JUMPDEST POP PUSH2 0x141 PUSH1 0x4 DUP1 CALLDATASIZE SUB DUP2 ADD SWAP1 PUSH2 0x13C SWAP2 SWAP1 PUSH2 0xCB4 JUMP JUMPDEST PUSH2 0xC02 JUMP JUMPDEST PUSH1 0x40 MLOAD PUSH2 0x14E SWAP2 SWAP1 PUSH2 0xDF2 JUMP JUMPDEST PUSH1 0x40 MLOAD DUP1 SWAP2 SUB SWAP1 RETURN JUMPDEST PUSH0 DUP1 PUSH0 DUP4 PUSH20 0xFFFFFFFFFFFFFFFFFFFFFFFFFFFFFFFFFFFFFFFF AND PUSH20 0xFFFFFFFFFFFFFFFFFFFFFFFFFFFFFFFFFFFFFFFF AND DUP2 MSTORE PUSH1 0x20 ADD SWAP1 DUP2 MSTORE PUSH1 0x20 ADD PUSH0 KECCAK256 SWAP1 POP PUSH1 0x1 PUSH1 0x3 DUP2 GT ISZERO PUSH2 0x1AA JUMPI PUSH2 0x1A9 PUSH2 0xD06 JUMP JUMPDEST JUMPDEST DUP2 PUSH1 0x3 ADD PUSH0 SWAP1 SLOAD SWAP1 PUSH2 0x100 EXP SWAP1 DIV PUSH1 0xFF AND PUSH1 0x3 DUP2 GT ISZERO PUSH2 0x1CD JUMPI PUSH2 0x1CC PUSH2 0xD06 JUMP JUMPDEST JUMPDEST EQ PUSH2 0x20D JUMPI PUSH1 0x40 MLOAD PUSH32 0x8C379A000000000000000000000000000000000000000000000000000000000 DUP2 MSTORE PUSH1 0x4 ADD PUSH2 0x204 SWAP1 PUSH2 0xE65 JUMP JUMPDEST PUSH1 0x40 MLOAD DUP1 SWAP2 SUB SWAP1 REVERT JUMPDEST DUP1 PUSH1 0x1 ADD PUSH0 SWAP1 SLOAD SWAP1 PUSH2 0x100 EXP SWAP1 DIV PUSH20 0xFFFFFFFFFFFFFFFFFFFFFFFFFFFFFFFFFFFFFFFF AND PUSH20 0xFFFFFFFFFFFFFFFFFFFFFFFFFFFFFFFFFFFFFFFF AND CALLER PUSH20 0xFFFFFFFFFFFFFFFFFFFFFFFFFFFFFFFFFFFFFFFF AND EQ PUSH2 0x29E JUMPI PUSH1 0x40 MLOAD PUSH32 0x8C379A000000000000000000000000000000000000000000000000000000000 DUP2 MSTORE PUSH1 0x4 ADD PUSH2 0x295 SWAP1 PUSH2 0xEF3 JUMP JUMPDEST PUSH1 0x40 MLOAD DUP1 SWAP2 SUB SWAP1 REVERT JUMPDEST PUSH1 0x1 DUP2 PUSH1 0x3 ADD PUSH1 0x2 PUSH2 0x100 EXP DUP2 SLOAD DUP2 PUSH1 0xFF MUL NOT AND SWAP1 DUP4 ISZERO ISZERO MUL OR SWAP1 SSTORE POP DUP1 PUSH1 0x3 ADD PUSH1 0x1 SWAP1 SLOAD SWAP1 PUSH2 0x100 EXP SWAP1 DIV PUSH1 0xFF AND ISZERO PUSH2 0x3CC JUMPI PUSH1 0x2 DUP2 PUSH1 0x3 ADD PUSH0 PUSH2 0x100 EXP DUP2 SLOAD DUP2 PUSH1 0xFF MUL NOT AND SWAP1 DUP4 PUSH1 0x3 DUP2 GT ISZERO PUSH2 0x2F9 JUMPI PUSH2 0x2F8 PUSH2 0xD06 JUMP JUMPDEST JUMPDEST MUL OR SWAP1 SSTORE POP DUP1 PUSH1 0x1 ADD PUSH0 SWAP1 SLOAD SWAP1 PUSH2 0x100 EXP SWAP1 DIV PUSH20 0xFFFFFFFFFFFFFFFFFFFFFFFFFFFFFFFFFFFFFFFF AND PUSH20 0xFFFFFFFFFFFFFFFFFFFFFFFFFFFFFFFFFFFFFFFF AND PUSH2 0x8FC DUP3 PUSH1 0x2 ADD SLOAD SWAP1 DUP2 ISZERO MUL SWAP1 PUSH1 0x40 MLOAD PUSH0 PUSH1 0x40 MLOAD DUP1 DUP4 SUB DUP2 DUP6 DUP9 DUP9 CALL SWAP4 POP POP POP POP ISZERO DUP1 ISZERO PUSH2 0x368 JUMPI RETURNDATASIZE PUSH0 DUP1 RETURNDATACOPY RETURNDATASIZE PUSH0 REVERT JUMPDEST POP PUSH32 0xEED10C470424824E4A4309075162F10B9989088B23FBED2349698CEDD44493FB DUP3 DUP3 PUSH1 0x1 ADD PUSH0 SWAP1 SLOAD SWAP1 PUSH2 0x100 EXP SWAP1 DIV PUSH20 0xFFFFFFFFFFFFFFFFFFFFFFFFFFFFFFFFFFFFFFFF AND DUP4 PUSH1 0x2 ADD SLOAD PUSH1 0x40 MLOAD PUSH2 0x3C3 SWAP4 SWAP3 SWAP2 SWAP1 PUSH2 0xF11 JUMP JUMPDEST PUSH1 0x40 MLOAD DUP1 SWAP2 SUB SWAP1 LOG1 JUMPDEST POP POP JUMP JUMPDEST PUSH0 DUP1 PUSH0 CALLER PUSH20 0xFFFFFFFFFFFFFFFFFFFFFFFFFFFFFFFFFFFFFFFF AND PUSH20 0xFFFFFFFFFFFFFFFFFFFFFFFFFFFFFFFFFFFFFFFF AND DUP2 MSTORE PUSH1 0x20 ADD SWAP1 DUP2 MSTORE PUSH1 0x20 ADD PUSH0 KECCAK256 SWAP1 POP PUSH1 0x1 PUSH1 0x3 DUP2 GT ISZERO PUSH2 0x423 JUMPI PUSH2 0x422 PUSH2 0xD06 JUMP JUMPDEST JUMPDEST DUP2 PUSH1 0x3 ADD PUSH0 SWAP1 SLOAD SWAP1 PUSH2 0x100 EXP SWAP1 DIV PUSH1 0xFF AND PUSH1 0x3 DUP2 GT ISZERO PUSH2 0x446 JUMPI PUSH2 0x445 PUSH2 0xD06 JUMP JUMPDEST JUMPDEST EQ PUSH2 0x486 JUMPI PUSH1 0x40 MLOAD PUSH32 0x8C379A000000000000000000000000000000000000000000000000000000000 DUP2 MSTORE PUSH1 0x4 ADD PUSH2 0x47D SWAP1 PUSH2 0xE65 JUMP JUMPDEST PUSH1 0x40 MLOAD DUP1 SWAP2 SUB SWAP1 REVERT JUMPDEST DUP1 PUSH0 ADD PUSH0 SWAP1 SLOAD SWAP1 PUSH2 0x100 EXP SWAP1 DIV PUSH20 0xFFFFFFFFFFFFFFFFFFFFFFFFFFFFFFFFFFFFFFFF AND PUSH20 0xFFFFFFFFFFFFFFFFFFFFFFFFFFFFFFFFFFFFFFFF AND CALLER PUSH20 0xFFFFFFFFFFFFFFFFFFFFFFFFFFFFFFFFFFFFFFFF AND SUB PUSH2 0x54F JUMPI DUP1 PUSH1 0x3 ADD PUSH1 0x1 SWAP1 SLOAD SWAP1 PUSH2 0x100 EXP SWAP1 DIV PUSH1 0xFF AND ISZERO PUSH2 0x52D JUMPI PUSH1 0x40 MLOAD PUSH32 0x8C379A000000000000000000000000000000000000000000000000000000000 DUP2 MSTORE PUSH1 0x4 ADD PUSH2 0x524 SWAP1 PUSH2 0xFB6 JUMP JUMPDEST PUSH1 0x40 MLOAD DUP1 SWAP2 SUB SWAP1 REVERT JUMPDEST PUSH1 0x1 DUP2 PUSH1 0x3 ADD PUSH1 0x1 PUSH2 0x100 EXP DUP2 SLOAD DUP2 PUSH1 0xFF MUL NOT AND SWAP1 DUP4 ISZERO ISZERO MUL OR SWAP1 SSTORE POP PUSH2 0x616 JUMP JUMPDEST DUP1 PUSH1 0x1 ADD PUSH0 SWAP1 SLOAD SWAP1 PUSH2 0x100 EXP SWAP1 DIV PUSH20 0xFFFFFFFFFFFFFFFFFFFFFFFFFFFFFFFFFFFFFFFF AND PUSH20 0xFFFFFFFFFFFFFFFFFFFFFFFFFFFFFFFFFFFFFFFF AND CALLER PUSH20 0xFFFFFFFFFFFFFFFFFFFFFFFFFFFFFFFFFFFFFFFF AND SUB PUSH2 0x615 JUMPI DUP1 PUSH1 0x3 ADD PUSH1 0x2 SWAP1 SLOAD SWAP1 PUSH2 0x100 EXP SWAP1 DIV PUSH1 0xFF AND ISZERO PUSH2 0x5F7 JUMPI PUSH1 0x40 MLOAD PUSH32 0x8C379A000000000000000000000000000000000000000000000000000000000 DUP2 MSTORE PUSH1 0x4 ADD PUSH2 0x5EE SWAP1 PUSH2 0x1044 JUMP JUMPDEST PUSH1 0x40 MLOAD DUP1 SWAP2 SUB SWAP1 REVERT JUMPDEST PUSH1 0x1 DUP2 PUSH1 0x3 ADD PUSH1 0x2 PUSH2 0x100 EXP DUP2 SLOAD DUP2 PUSH1 0xFF MUL NOT AND SWAP1 DUP4 ISZERO ISZERO MUL OR SWAP1 SSTORE POP JUMPDEST JUMPDEST DUP1 PUSH1 0x3 ADD PUSH1 0x1 SWAP1 SLOAD SWAP1 PUSH2 0x100 EXP SWAP1 DIV PUSH1 0xFF AND DUP1 ISZERO PUSH2 0x642 JUMPI POP DUP1 PUSH1 0x3 ADD PUSH1 0x2 SWAP1 SLOAD SWAP1 PUSH2 0x100 EXP SWAP1 DIV PUSH1 0xFF AND JUMPDEST ISZERO PUSH2 0x763 JUMPI PUSH1 0x2 DUP2 PUSH1 0x3 ADD PUSH0 PUSH2 0x100 EXP DUP2 SLOAD DUP2 PUSH1 0xFF MUL NOT AND SWAP1 DUP4 PUSH1 0x3 DUP2 GT ISZERO PUSH2 0x66E JUMPI PUSH2 0x66D PUSH2 0xD06 JUMP JUMPDEST JUMPDEST MUL OR SWAP1 SSTORE POP DUP1 PUSH1 0x1 ADD PUSH0 SWAP1 SLOAD SWAP1 PUSH2 0x100 EXP SWAP1 DIV PUSH20 0xFFFFFFFFFFFFFFFFFFFFFFFFFFFFFFFFFFFFFFFF AND PUSH20 0xFFFFFFFFFFFFFFFFFFFFFFFFFFFFFFFFFFFFFFFF AND PUSH2 0x8FC DUP3 PUSH1 0x2 ADD SLOAD SWAP1 DUP2 ISZERO MUL SWAP1 PUSH1 0x40 MLOAD PUSH0 PUSH1 0x40 MLOAD DUP1 DUP4 SUB DUP2 DUP6 DUP9 DUP9 CALL SWAP4 POP POP POP POP ISZERO DUP1 ISZERO PUSH2 0x6DD JUMPI RETURNDATASIZE PUSH0 DUP1 RETURNDATACOPY RETURNDATASIZE PUSH0 REVERT JUMPDEST POP PUSH32 0xEED10C470424824E4A4309075162F10B9989088B23FBED2349698CEDD44493FB DUP2 PUSH0 ADD PUSH0 SWAP1 SLOAD SWAP1 PUSH2 0x100 EXP SWAP1 DIV PUSH20 0xFFFFFFFFFFFFFFFFFFFFFFFFFFFFFFFFFFFFFFFF AND DUP3 PUSH1 0x1 ADD PUSH0 SWAP1 SLOAD SWAP1 PUSH2 0x100 EXP SWAP1 DIV PUSH20 0xFFFFFFFFFFFFFFFFFFFFFFFFFFFFFFFFFFFFFFFF AND DUP4 PUSH1 0x2 ADD SLOAD PUSH1 0x40 MLOAD PUSH2 0x75A SWAP4 SWAP3 SWAP2 SWAP1 PUSH2 0xF11 JUMP JUMPDEST PUSH1 0x40 MLOAD DUP1 SWAP2 SUB SWAP1 LOG1 JUMPDEST POP JUMP JUMPDEST PUSH0 DUP1 PUSH0 DUP4 PUSH20 0xFFFFFFFFFFFFFFFFFFFFFFFFFFFFFFFFFFFFFFFF AND PUSH20 0xFFFFFFFFFFFFFFFFFFFFFFFFFFFFFFFFFFFFFFFF AND DUP2 MSTORE PUSH1 0x20 ADD SWAP1 DUP2 MSTORE PUSH1 0x20 ADD PUSH0 KECCAK256 SWAP1 POP PUSH1 0x1 PUSH1 0x3 DUP2 GT ISZERO PUSH2 0x7B9 JUMPI PUSH2 0x7B8 PUSH2 0xD06 JUMP JUMPDEST JUMPDEST DUP2 PUSH1 0x3 ADD PUSH0 SWAP1 SLOAD SWAP1 PUSH2 0x100 EXP SWAP1 DIV PUSH1 0xFF AND PUSH1 0x3 DUP2 GT ISZERO PUSH2 0x7DC JUMPI PUSH2 0x7DB PUSH2 0xD06 JUMP JUMPDEST JUMPDEST EQ PUSH2 0x81C JUMPI PUSH1 0x40 MLOAD PUSH32 0x8C379A000000000000000000000000000000000000000000000000000000000 DUP2 MSTORE PUSH1 0x4 ADD PUSH2 0x813 SWAP1 PUSH2 0xE65 JUMP JUMPDEST PUSH1 0x40 MLOAD DUP1 SWAP2 SUB SWAP1 REVERT JUMPDEST DUP1 PUSH0 ADD PUSH0 SWAP1 SLOAD SWAP1 PUSH2 0x100 EXP SWAP1 DIV PUSH20 0xFFFFFFFFFFFFFFFFFFFFFFFFFFFFFFFFFFFFFFFF AND PUSH20 0xFFFFFFFFFFFFFFFFFFFFFFFFFFFFFFFFFFFFFFFF AND CALLER PUSH20 0xFFFFFFFFFFFFFFFFFFFFFFFFFFFFFFFFFFFFFFFF AND EQ PUSH2 0x8AC JUMPI PUSH1 0x40 MLOAD PUSH32 0x8C379A000000000000000000000000000000000000000000000000000000000 DUP2 MSTORE PUSH1 0x4 ADD PUSH2 0x8A3 SWAP1 PUSH2 0x10D2 JUMP JUMPDEST PUSH1 0x40 MLOAD DUP1 SWAP2 SUB SWAP1 REVERT JUMPDEST PUSH1 0x3 DUP2 PUSH1 0x3 ADD PUSH0 PUSH2 0x100 EXP DUP2 SLOAD DUP2 PUSH1 0xFF MUL NOT AND SWAP1 DUP4 PUSH1 0x3 DUP2 GT ISZERO PUSH2 0x8D3 JUMPI PUSH2 0x8D2 PUSH2 0xD06 JUMP JUMPDEST JUMPDEST MUL OR SWAP1 SSTORE POP PUSH32 0xC98FD1F80A8937B1FDEB951D0B63BF7C924A1872543AE2499295625B18ABE70E DUP3 DUP3 PUSH1 0x1 ADD PUSH0 SWAP1 SLOAD SWAP1 PUSH2 0x100 EXP SWAP1 DIV PUSH20 0xFFFFFFFFFFFFFFFFFFFFFFFFFFFFFFFFFFFFFFFF AND DUP4 PUSH1 0x2 ADD SLOAD PUSH1 0x40 MLOAD PUSH2 0x932 SWAP4 SWAP3 SWAP2 SWAP1 PUSH2 0xF11 JUMP JUMPDEST PUSH1 0x40 MLOAD DUP1 SWAP2 SUB SWAP1 LOG1 POP POP JUMP JUMPDEST PUSH0 CALLVALUE GT PUSH2 0x980 JUMPI PUSH1 0x40 MLOAD PUSH32 0x8C379A000000000000000000000000000000000000000000000000000000000 DUP2 MSTORE PUSH1 0x4 ADD PUSH2 0x977 SWAP1 PUSH2 0x1160 JUMP JUMPDEST PUSH1 0x40 MLOAD DUP1 SWAP2 SUB SWAP1 REVERT JUMPDEST PUSH0 PUSH1 0x3 DUP2 GT ISZERO PUSH2 0x993 JUMPI PUSH2 0x992 PUSH2 0xD06 JUMP JUMPDEST JUMPDEST PUSH0 DUP1 CALLER PUSH20 0xFFFFFFFFFFFFFFFFFFFFFFFFFFFFFFFFFFFFFFFF AND PUSH20 0xFFFFFFFFFFFFFFFFFFFFFFFFFFFFFFFFFFFFFFFF AND DUP2 MSTORE PUSH1 0x20 ADD SWAP1 DUP2 MSTORE PUSH1 0x20 ADD PUSH0 KECCAK256 PUSH1 0x3 ADD PUSH0 SWAP1 SLOAD SWAP1 PUSH2 0x100 EXP SWAP1 DIV PUSH1 0xFF AND PUSH1 0x3 DUP2 GT ISZERO PUSH2 0x9F1 JUMPI PUSH2 0x9F0 PUSH2 0xD06 JUMP JUMPDEST JUMPDEST EQ PUSH2 0xA31 JUMPI PUSH1 0x40 MLOAD PUSH32 0x8C379A000000000000000000000000000000000000000000000000000000000 DUP2 MSTORE PUSH1 0x4 ADD PUSH2 0xA28 SWAP1 PUSH2 0x11C8 JUMP JUMPDEST PUSH1 0x40 MLOAD DUP1 SWAP2 SUB SWAP1 REVERT JUMPDEST PUSH0 DUP1 PUSH0 CALLER PUSH20 0xFFFFFFFFFFFFFFFFFFFFFFFFFFFFFFFFFFFFFFFF AND PUSH20 0xFFFFFFFFFFFFFFFFFFFFFFFFFFFFFFFFFFFFFFFF AND DUP2 MSTORE PUSH1 0x20 ADD SWAP1 DUP2 MSTORE PUSH1 0x20 ADD PUSH0 KECCAK256 SWAP1 POP CALLER DUP2 PUSH0 ADD PUSH0 PUSH2 0x100 EXP DUP2 SLOAD DUP2 PUSH20 0xFFFFFFFFFFFFFFFFFFFFFFFFFFFFFFFFFFFFFFFF MUL NOT AND SWAP1 DUP4 PUSH20 0xFFFFFFFFFFFFFFFFFFFFFFFFFFFFFFFFFFFFFFFF AND MUL OR SWAP1 SSTORE POP DUP2 DUP2 PUSH1 0x1 ADD PUSH0 PUSH2 0x100 EXP DUP2 SLOAD DUP2 PUSH20 0xFFFFFFFFFFFFFFFFFFFFFFFFFFFFFFFFFFFFFFFF MUL NOT AND SWAP1 DUP4 PUSH20 0xFFFFFFFFFFFFFFFFFFFFFFFFFFFFFFFFFFFFFFFF AND MUL OR SWAP1 SSTORE POP CALLVALUE DUP2 PUSH1 0x2 ADD DUP2 SWAP1 SSTORE POP PUSH1 0x1 DUP2 PUSH1 0x3 ADD PUSH0 PUSH2 0x100 EXP DUP2 SLOAD DUP2 PUSH1 0xFF MUL NOT AND SWAP1 DUP4 PUSH1 0x3 DUP2 GT ISZERO PUSH2 0xB23 JUMPI PUSH2 0xB22 PUSH2 0xD06 JUMP JUMPDEST JUMPDEST MUL OR SWAP1 SSTORE POP PUSH32 0xF0D0E99CAE184D0187B093B48894117462462379674A6E11D89C3FBB618E96B0 CALLER DUP4 CALLVALUE PUSH1 0x40 MLOAD PUSH2 0xB5B SWAP4 SWAP3 SWAP2 SWAP1 PUSH2 0xF11 JUMP JUMPDEST PUSH1 0x40 MLOAD DUP1 SWAP2 SUB SWAP1 LOG1 POP POP JUMP JUMPDEST PUSH0 PUSH1 0x20 MSTORE DUP1 PUSH0 MSTORE PUSH1 0x40 PUSH0 KECCAK256 PUSH0 SWAP2 POP SWAP1 POP DUP1 PUSH0 ADD PUSH0 SWAP1 SLOAD SWAP1 PUSH2 0x100 EXP SWAP1 DIV PUSH20 0xFFFFFFFFFFFFFFFFFFFFFFFFFFFFFFFFFFFFFFFF AND SWAP1 DUP1 PUSH1 0x1 ADD PUSH0 SWAP1 SLOAD SWAP1 PUSH2 0x100 EXP SWAP1 DIV PUSH20 0xFFFFFFFFFFFFFFFFFFFFFFFFFFFFFFFFFFFFFFFF AND SWAP1 DUP1 PUSH1 0x2 ADD SLOAD SWAP1 DUP1 PUSH1 0x3 ADD PUSH0 SWAP1 SLOAD SWAP1 PUSH2 0x100 EXP SWAP1 DIV PUSH1 0xFF AND SWAP1 DUP1 PUSH1 0x3 ADD PUSH1 0x1 SWAP1 SLOAD SWAP1 PUSH2 0x100 EXP SWAP1 DIV PUSH1 0xFF AND SWAP1 DUP1 PUSH1 0x3 ADD PUSH1 0x2 SWAP1 SLOAD SWAP1 PUSH2 0x100 EXP SWAP1 DIV PUSH1 0xFF AND SWAP1 POP DUP7 JUMP JUMPDEST PUSH0 DUP1 PUSH0 DUP4 PUSH20 0xFFFFFFFFFFFFFFFFFFFFFFFFFFFFFFFFFFFFFFFF AND PUSH20 0xFFFFFFFFFFFFFFFFFFFFFFFFFFFFFFFFFFFFFFFF AND DUP2 MSTORE PUSH1 0x20 ADD SWAP1 DUP2 MSTORE PUSH1 0x20 ADD PUSH0 KECCAK256 PUSH1 0x3 ADD PUSH0 SWAP1 SLOAD SWAP1 PUSH2 0x100 EXP SWAP1 DIV PUSH1 0xFF AND SWAP1 POP SWAP2 SWAP1 POP JUMP JUMPDEST PUSH0 DUP1 REVERT JUMPDEST PUSH0 PUSH20 0xFFFFFFFFFFFFFFFFFFFFFFFFFFFFFFFFFFFFFFFF DUP3 AND SWAP1 POP SWAP2 SWAP1 POP JUMP JUMPDEST PUSH0 PUSH2 0xC83 DUP3 PUSH2 0xC5A JUMP JUMPDEST SWAP1 POP SWAP2 SWAP1 POP JUMP JUMPDEST PUSH2 0xC93 DUP2 PUSH2 0xC79 JUMP JUMPDEST DUP2 EQ PUSH2 0xC9D JUMPI PUSH0 DUP1 REVERT JUMPDEST POP JUMP JUMPDEST PUSH0 DUP2 CALLDATALOAD SWAP1 POP PUSH2 0xCAE DUP2 PUSH2 0xC8A JUMP JUMPDEST SWAP3 SWAP2 POP POP JUMP JUMPDEST PUSH0 PUSH1 0x20 DUP3 DUP5 SUB SLT ISZERO PUSH2 0xCC9 JUMPI PUSH2 0xCC8 PUSH2 0xC56 JUMP JUMPDEST JUMPDEST PUSH0 PUSH2 0xCD6 DUP5 DUP3 DUP6 ADD PUSH2 0xCA0 JUMP JUMPDEST SWAP2 POP POP SWAP3 SWAP2 POP POP JUMP JUMPDEST PUSH2 0xCE8 DUP2 PUSH2 0xC79 JUMP JUMPDEST DUP3 MSTORE POP POP JUMP JUMPDEST PUSH0 DUP2 SWAP1 POP SWAP2 SWAP1 POP JUMP JUMPDEST PUSH2 0xD00 DUP2 PUSH2 0xCEE JUMP JUMPDEST DUP3 MSTORE POP POP JUMP JUMPDEST PUSH32 0x4E487B7100000000000000000000000000000000000000000000000000000000 PUSH0 MSTORE PUSH1 0x21 PUSH1 0x4 MSTORE PUSH1 0x24 PUSH0 REVERT JUMPDEST PUSH1 0x4 DUP2 LT PUSH2 0xD44 JUMPI PUSH2 0xD43 PUSH2 0xD06 JUMP JUMPDEST JUMPDEST POP JUMP JUMPDEST PUSH0 DUP2 SWAP1 POP PUSH2 0xD54 DUP3 PUSH2 0xD33 JUMP JUMPDEST SWAP2 SWAP1 POP JUMP JUMPDEST PUSH0 PUSH2 0xD63 DUP3 PUSH2 0xD47 JUMP JUMPDEST SWAP1 POP SWAP2 SWAP1 POP JUMP JUMPDEST PUSH2 0xD73 DUP2 PUSH2 0xD59 JUMP JUMPDEST DUP3 MSTORE POP POP JUMP JUMPDEST PUSH0 DUP2 ISZERO ISZERO SWAP1 POP SWAP2 SWAP1 POP JUMP JUMPDEST PUSH2 0xD8D DUP2 PUSH2 0xD79 JUMP JUMPDEST DUP3 MSTORE POP POP JUMP JUMPDEST PUSH0 PUSH1 0xC0 DUP3 ADD SWAP1 POP PUSH2 0xDA6 PUSH0 DUP4 ADD DUP10 PUSH2 0xCDF JUMP JUMPDEST PUSH2 0xDB3 PUSH1 0x20 DUP4 ADD DUP9 PUSH2 0xCDF JUMP JUMPDEST PUSH2 0xDC0 PUSH1 0x40 DUP4 ADD DUP8 PUSH2 0xCF7 JUMP JUMPDEST PUSH2 0xDCD PUSH1 0x60 DUP4 ADD DUP7 PUSH2 0xD6A JUMP JUMPDEST PUSH2 0xDDA PUSH1 0x80 DUP4 ADD DUP6 PUSH2 0xD84 JUMP JUMPDEST PUSH2 0xDE7 PUSH1 0xA0 DUP4 ADD DUP5 PUSH2 0xD84 JUMP JUMPDEST SWAP8 SWAP7 POP POP POP POP POP POP POP JUMP JUMPDEST PUSH0 PUSH1 0x20 DUP3 ADD SWAP1 POP PUSH2 0xE05 PUSH0 DUP4 ADD DUP5 PUSH2 0xD6A JUMP JUMPDEST SWAP3 SWAP2 POP POP JUMP JUMPDEST PUSH0 DUP3 DUP3 MSTORE PUSH1 0x20 DUP3 ADD SWAP1 POP SWAP3 SWAP2 POP POP JUMP JUMPDEST PUSH32 0x46756E6473206E6F74206465706F736974656400000000000000000000000000 PUSH0 DUP3 ADD MSTORE POP JUMP JUMPDEST PUSH0 PUSH2 0xE4F PUSH1 0x13 DUP4 PUSH2 0xE0B JUMP JUMPDEST SWAP2 POP PUSH2 0xE5A DUP3 PUSH2 0xE1B JUMP JUMPDEST PUSH1 0x20 DUP3 ADD SWAP1 POP SWAP2 SWAP1 POP JUMP JUMPDEST PUSH0 PUSH1 0x20 DUP3 ADD SWAP1 POP DUP2 DUP2 SUB PUSH0 DUP4 ADD MSTORE PUSH2 0xE7C DUP2 PUSH2 0xE43 JUMP JUMPDEST SWAP1 POP SWAP2 SWAP1 POP JUMP JUMPDEST PUSH32 0x4F6E6C79207468652073656C6C65722063616E2072656C656173652074686520 PUSH0 DUP3 ADD MSTORE PUSH32 0x66756E6473000000000000000000000000000000000000000000000000000000 PUSH1 0x20 DUP3 ADD MSTORE POP JUMP JUMPDEST PUSH0 PUSH2 0xEDD PUSH1 0x25 DUP4 PUSH2 0xE0B JUMP JUMPDEST SWAP2 POP PUSH2 0xEE8 DUP3 PUSH2 0xE83 JUMP JUMPDEST PUSH1 0x40 DUP3 ADD SWAP1 POP SWAP2 SWAP1 POP JUMP JUMPDEST PUSH0 PUSH1 0x20 DUP3 ADD SWAP1 POP DUP2 DUP2 SUB PUSH0 DUP4 ADD MSTORE PUSH2 0xF0A DUP2 PUSH2 0xED1 JUMP JUMPDEST SWAP1 POP SWAP2 SWAP1 POP JUMP JUMPDEST PUSH0 PUSH1 0x60 DUP3 ADD SWAP1 POP PUSH2 0xF24 PUSH0 DUP4 ADD DUP7 PUSH2 0xCDF JUMP JUMPDEST PUSH2 0xF31 PUSH1 0x20 DUP4 ADD DUP6 PUSH2 0xCDF JUMP JUMPDEST PUSH2 0xF3E PUSH1 0x40 DUP4 ADD DUP5 PUSH2 0xCF7 JUMP JUMPDEST SWAP5 SWAP4 POP POP POP POP JUMP JUMPDEST PUSH32 0x42757965722068617320616C726561647920617070726F766564207468652074 PUSH0 DUP3 ADD MSTORE PUSH32 0x72616E73616374696F6E00000000000000000000000000000000000000000000 PUSH1 0x20 DUP3 ADD MSTORE POP JUMP JUMPDEST PUSH0 PUSH2 0xFA0 PUSH1 0x2A DUP4 PUSH2 0xE0B JUMP JUMPDEST SWAP2 POP PUSH2 0xFAB DUP3 PUSH2 0xF46 JUMP JUMPDEST PUSH1 0x40 DUP3 ADD SWAP1 POP SWAP2 SWAP1 POP JUMP JUMPDEST PUSH0 PUSH1 0x20 DUP3 ADD SWAP1 POP DUP2 DUP2 SUB PUSH0 DUP4 ADD MSTORE PUSH2 0xFCD DUP2 PUSH2 0xF94 JUMP JUMPDEST SWAP1 POP SWAP2 SWAP1 POP JUMP JUMPDEST PUSH32 0x53656C6C65722068617320616C726561647920617070726F7665642074686520 PUSH0 DUP3 ADD MSTORE PUSH32 0x7472616E73616374696F6E000000000000000000000000000000000000000000 PUSH1 0x20 DUP3 ADD MSTORE POP JUMP JUMPDEST PUSH0 PUSH2 0x102E PUSH1 0x2B DUP4 PUSH2 0xE0B JUMP JUMPDEST SWAP2 POP PUSH2 0x1039 DUP3 PUSH2 0xFD4 JUMP JUMPDEST PUSH1 0x40 DUP3 ADD SWAP1 POP SWAP2 SWAP1 POP JUMP JUMPDEST PUSH0 PUSH1 0x20 DUP3 ADD SWAP1 POP DUP2 DUP2 SUB PUSH0 DUP4 ADD MSTORE PUSH2 0x105B DUP2 PUSH2 0x1022 JUMP JUMPDEST SWAP1 POP SWAP2 SWAP1 POP JUMP JUMPDEST PUSH32 0x4F6E6C79207468652062757965722063616E20696E6974696174652061206469 PUSH0 DUP3 ADD MSTORE PUSH32 0x7370757465000000000000000000000000000000000000000000000000000000 PUSH1 0x20 DUP3 ADD MSTORE POP JUMP JUMPDEST PUSH0 PUSH2 0x10BC PUSH1 0x25 DUP4 PUSH2 0xE0B JUMP JUMPDEST SWAP2 POP PUSH2 0x10C7 DUP3 PUSH2 0x1062 JUMP JUMPDEST PUSH1 0x40 DUP3 ADD SWAP1 POP SWAP2 SWAP1 POP JUMP JUMPDEST PUSH0 PUSH1 0x20 DUP3 ADD SWAP1 POP DUP2 DUP2 SUB PUSH0 DUP4 ADD MSTORE PUSH2 0x10E9 DUP2 PUSH2 0x10B0 JUMP JUMPDEST SWAP1 POP SWAP2 SWAP1 POP JUMP JUMPDEST PUSH32 0x4465706F73697420616D6F756E74206D75737420626520677265617465722074 PUSH0 DUP3 ADD MSTORE PUSH32 0x68616E207A65726F000000000000000000000000000000000000000000000000 PUSH1 0x20 DUP3 ADD MSTORE POP JUMP JUMPDEST PUSH0 PUSH2 0x114A PUSH1 0x28 DUP4 PUSH2 0xE0B JUMP JUMPDEST SWAP2 POP PUSH2 0x1155 DUP3 PUSH2 0x10F0 JUMP JUMPDEST PUSH1 0x40 DUP3 ADD SWAP1 POP SWAP2 SWAP1 POP JUMP JUMPDEST PUSH0 PUSH1 0x20 DUP3 ADD SWAP1 POP DUP2 DUP2 SUB PUSH0 DUP4 ADD MSTORE PUSH2 0x1177 DUP2 PUSH2 0x113E JUMP JUMPDEST SWAP1 POP SWAP2 SWAP1 POP JUMP JUMPDEST PUSH32 0x4E6F2070656E64696E67207472616E73616374696F6E20666F756E6400000000 PUSH0 DUP3 ADD MSTORE POP JUMP JUMPDEST PUSH0 PUSH2 0x11B2 PUSH1 0x1C DUP4 PUSH2 0xE0B JUMP JUMPDEST SWAP2 POP PUSH2 0x11BD DUP3 PUSH2 0x117E JUMP JUMPDEST PUSH1 0x20 DUP3 ADD SWAP1 POP SWAP2 SWAP1 POP JUMP JUMPDEST PUSH0 PUSH1 0x20 DUP3 ADD SWAP1 POP DUP2 DUP2 SUB PUSH0 DUP4 ADD MSTORE PUSH2 0x11DF DUP2 PUSH2 0x11A6 JUMP JUMPDEST SWAP1 POP SWAP2 SWAP1 POP JUMP INVALID LOG2 PUSH5 0x6970667358 0x22 SLT KECCAK256 0x2B DUP12 PUSH10 0x3E00976DD166E5ADFE3 PUSH5 0x5B3154C1A5 SWAP7 MSTORE SWAP9 DUP2 0xAC 0xDD 0xD5 LOG1 SWAP14 0xD1 0xDF JUMP RETURN PUSH5 0x736F6C6343 STOP ADDMOD EQ STOP CALLER "
				},
				"gasEstimates": {
					"creation": {
						"codeDepositCost": "927200",
						"executionCost": "960",
						"totalCost": "928160"
					},
					"external": {
						"approveTransaction()": "infinite",
						"depositFunds(address)": "infinite",
						"disputeTransaction(address)": "infinite",
						"getTransactionStatus(address)": "3052",
						"releaseFunds(address)": "infinite",
						"transactions(address)": "infinite"
					}
				},
				"methodIdentifiers": {
					"approveTransaction()": "33b7a674",
					"depositFunds(address)": "919747fb",
					"disputeTransaction(address)": "89bf0ece",
					"getTransactionStatus(address)": "e8af4caa",
					"releaseFunds(address)": "192e7a7b",
					"transactions(address)": "c32fdf34"
				}
			},
			"storageLayout": {
				"storage": [
					{
						"astId": 25,
						"contract": "demo.sol:Escrow",
						"label": "transactions",
						"offset": 0,
						"slot": "0",
						"type": "t_mapping(t_address,t_struct(Transaction)20_storage)"
					}
				],
				"types": {
					"t_address": {
						"encoding": "inplace",
						"label": "address",
						"numberOfBytes": "20"
					},
					"t_bool": {
						"encoding": "inplace",
						"label": "bool",
						"numberOfBytes": "1"
					},
					"t_enum(EscrowStatus)6": {
						"encoding": "inplace",
						"label": "enum Escrow.EscrowStatus",
						"numberOfBytes": "1"
					},
					"t_mapping(t_address,t_struct(Transaction)20_storage)": {
						"encoding": "mapping",
						"key": "t_address",
						"label": "mapping(address => struct Escrow.Transaction)",
						"numberOfBytes": "32",
						"value": "t_struct(Transaction)20_storage"
					},
					"t_struct(Transaction)20_storage": {
						"encoding": "inplace",
						"label": "struct Escrow.Transaction",
						"members": [
							{
								"astId": 8,
								"contract": "demo.sol:Escrow",
								"label": "buyer",
								"offset": 0,
								"slot": "0",
								"type": "t_address"
							},
							{
								"astId": 10,
								"contract": "demo.sol:Escrow",
								"label": "seller",
								"offset": 0,
								"slot": "1",
								"type": "t_address"
							},
							{
								"astId": 12,
								"contract": "demo.sol:Escrow",
								"label": "amount",
								"offset": 0,
								"slot": "2",
								"type": "t_uint256"
							},
							{
								"astId": 15,
								"contract": "demo.sol:Escrow",
								"label": "status",
								"offset": 0,
								"slot": "3",
								"type": "t_enum(EscrowStatus)6"
							},
							{
								"astId": 17,
								"contract": "demo.sol:Escrow",
								"label": "buyerApproved",
								"offset": 1,
								"slot": "3",
								"type": "t_bool"
							},
							{
								"astId": 19,
								"contract": "demo.sol:Escrow",
								"label": "sellerApproved",
								"offset": 2,
								"slot": "3",
								"type": "t_bool"
							}
						],
						"numberOfBytes": "128"
					},
					"t_uint256": {
						"encoding": "inplace",
						"label": "uint256",
						"numberOfBytes": "32"
					}
				}
			},
			"userdoc": {
				"kind": "user",
				"methods": {},
				"version": 1
			}
		}
	}
}