{
	"data": {
		"bytecode": {
			"linkReferences": {},
			"object": "608060405234801561000f575f80fd5b50611ac48061001d5f395ff3fe60806040526004361061007a575f3560e01c80633020580b1161004d5780633020580b14610141578063523fba7f1461017d578063a4b2409e146101b9578063ff96de21146101e15761007a565b80630b7ef89b1461007e578063141961bc1461009a57806322c59958146100db5780632e61867614610117575b5f80fd5b61009860048036038101906100939190610d38565b61021d565b005b3480156100a5575f80fd5b506100c060048036038101906100bb9190610d38565b61052b565b6040516100d296959493929190610e16565b60405180910390f35b3480156100e6575f80fd5b5061010160048036038101906100fc9190610ed6565b6105f4565b60405161010e9190610f14565b60405180910390f35b348015610122575f80fd5b5061012b610614565b6040516101389190610f14565b60405180910390f35b34801561014c575f80fd5b5061016760048036038101906101629190611059565b61061a565b6040516101749190610f14565b60405180910390f35b348015610188575f80fd5b506101a3600480360381019061019e91906110c5565b610762565b6040516101b09190610f14565b60405180910390f35b3480156101c4575f80fd5b506101df60048036038101906101da9190610d38565b610777565b005b3480156101ec575f80fd5b50610207600480360381019061020291906110f0565b6109e6565b604051610214919061113d565b60405180910390f35b5f805f8381526020019081526020015f206001015411610272576040517f08c379a0000000000000000000000000000000000000000000000000000000008152600401610269906111a0565b60405180910390fd5b5f808281526020019081526020015f206005015f9054906101000a900460ff16156102d2576040517f08c379a00000000000000000000000000000000000000000000000000000000081526004016102c99061122e565b60405180910390fd5b5f3411610314576040517f08c379a000000000000000000000000000000000000000000000000000000000815260040161030b906112bc565b60405180910390fd5b345f808381526020019081526020015f206003015f8282546103369190611307565b92505081905550345f808381526020019081526020015f206004015f82825461035f919061133a565b925050819055503460015f8381526020019081526020015f205f3373ffffffffffffffffffffffffffffffffffffffff1673ffffffffffffffffffffffffffffffffffffffff1681526020019081526020015f205f8282546103c19190611307565b925050819055503460015f8381526020019081526020015f205f3373ffffffffffffffffffffffffffffffffffffffff1673ffffffffffffffffffffffffffffffffffffffff1681526020019081526020015f20540361048b5760025f8281526020019081526020015f2033908060018154018082558091505060019003905f5260205f20015f9091909190916101000a81548173ffffffffffffffffffffffffffffffffffffffff021916908373ffffffffffffffffffffffffffffffffffffffff1602179055505b7f0a4a91237423e0a1766a761c7cb029311d8b95d6b1b81db1b949a70c98b4e08e8133346040516104be9392919061136d565b60405180910390a15f808281526020019081526020015f20600101545f808381526020019081526020015f2060030154106105285760015f808381526020019081526020015f206005015f6101000a81548160ff02191690831515021790555061052781610a2e565b5b50565b5f602052805f5260405f205f91509050805f018054610549906113cf565b80601f0160208091040260200160405190810160405280929190818152602001828054610575906113cf565b80156105c05780601f10610597576101008083540402835291602001916105c0565b820191905f5260205f20905b8154815290600101906020018083116105a357829003601f168201915b505050505090806001015490806002015490806003015490806004015490806005015f9054906101000a900460ff16905086565b6001602052815f5260405f20602052805f5260405f205f91509150505481565b60035481565b5f80831161065d576040517f08c379a00000000000000000000000000000000000000000000000000000000081526004016106549061146f565b60405180910390fd5b42821161069f576040517f08c379a0000000000000000000000000000000000000000000000000000000008152600401610696906114fd565b60405180910390fd5b5f60035f81546106ae9061151b565b91905081905590505f805f8381526020019081526020015f20905085815f0190816106d991906116ff565b508481600101819055508381600201819055505f81600301819055508481600401819055505f816005015f6101000a81548160ff0219169083151502179055507f02fe3fddd43aad14ae5c30d5d694f19ecb065dfde85bb591b91e8af1448724d28287878760405161074e94939291906117ce565b60405180910390a181925050509392505050565b6004602052805f5260405f205f915090505481565b5f805f8381526020019081526020015f2060010154116107cc576040517f08c379a00000000000000000000000000000000000000000000000000000000081526004016107c3906111a0565b60405180910390fd5b5f808281526020019081526020015f20600101545f808381526020019081526020015f206003015410610834576040517f08c379a000000000000000000000000000000000000000000000000000000000815260040161082b90611888565b60405180910390fd5b5f60015f8381526020019081526020015f205f3373ffffffffffffffffffffffffffffffffffffffff1673ffffffffffffffffffffffffffffffffffffffff1681526020019081526020015f2054116108c2576040517f08c379a00000000000000000000000000000000000000000000000000000000081526004016108b990611916565b60405180910390fd5b5f60015f8381526020019081526020015f205f3373ffffffffffffffffffffffffffffffffffffffff1673ffffffffffffffffffffffffffffffffffffffff1681526020019081526020015f205490505f60015f8481526020019081526020015f205f3373ffffffffffffffffffffffffffffffffffffffff1673ffffffffffffffffffffffffffffffffffffffff1681526020019081526020015f20819055503373ffffffffffffffffffffffffffffffffffffffff166108fc8290811502906040515f60405180830381858888f193505050501580156109a6573d5f803e3d5ffd5b507f7a482fdeb6bc9a1376f597068a214a7a39472bb2eff1b8cad21ba04f49ddca1b8233836040516109da9392919061136d565b60405180910390a15050565b6002602052815f5260405f2081815481106109ff575f80fd5b905f5260205f20015f915091509054906101000a900473ffffffffffffffffffffffffffffffffffffffff1681565b5f808281526020019081526020015f20600101545f808381526020019081526020015f20600301541015610a97576040517f08c379a0000000000000000000000000000000000000000000000000000000008152600401610a8e9061197e565b60405180910390fd5b5f805f8381526020019081526020015f206003015490505f6064600a83610abe919061199c565b610ac89190611a0a565b90505f805b60025f8681526020019081526020015f2080549050811015610c51575f60025f8781526020019081526020015f208281548110610b0d57610b0c611a3a565b5b905f5260205f20015f9054906101000a900473ffffffffffffffffffffffffffffffffffffffff1690505f60015f8881526020019081526020015f205f8373ffffffffffffffffffffffffffffffffffffffff1673ffffffffffffffffffffffffffffffffffffffff1681526020019081526020015f205490505f868683610b95919061199c565b610b9f9190611a0a565b90508060045f8573ffffffffffffffffffffffffffffffffffffffff1673ffffffffffffffffffffffffffffffffffffffff1681526020019081526020015f205f828254610bed9190611307565b925050819055508085610c009190611307565b94507f21d739f160a7464fddaac4a1d1517d84e76b75618a053943b345c408c4160fe08382604051610c33929190611a67565b60405180910390a15050508080610c499061151b565b915050610acd565b505f8183610c5f919061133a565b90508060045f3073ffffffffffffffffffffffffffffffffffffffff1673ffffffffffffffffffffffffffffffffffffffff1681526020019081526020015f205f828254610cad9190611307565b925050819055507f21d739f160a7464fddaac4a1d1517d84e76b75618a053943b345c408c4160fe03082604051610ce5929190611a67565b60405180910390a15050505050565b5f604051905090565b5f80fd5b5f80fd5b5f819050919050565b610d1781610d05565b8114610d21575f80fd5b50565b5f81359050610d3281610d0e565b92915050565b5f60208284031215610d4d57610d4c610cfd565b5b5f610d5a84828501610d24565b91505092915050565b5f81519050919050565b5f82825260208201905092915050565b5f5b83811015610d9a578082015181840152602081019050610d7f565b5f8484015250505050565b5f601f19601f8301169050919050565b5f610dbf82610d63565b610dc98185610d6d565b9350610dd9818560208601610d7d565b610de281610da5565b840191505092915050565b610df681610d05565b82525050565b5f8115159050919050565b610e1081610dfc565b82525050565b5f60c0820190508181035f830152610e2e8189610db5565b9050610e3d6020830188610ded565b610e4a6040830187610ded565b610e576060830186610ded565b610e646080830185610ded565b610e7160a0830184610e07565b979650505050505050565b5f73ffffffffffffffffffffffffffffffffffffffff82169050919050565b5f610ea582610e7c565b9050919050565b610eb581610e9b565b8114610ebf575f80fd5b50565b5f81359050610ed081610eac565b92915050565b5f8060408385031215610eec57610eeb610cfd565b5b5f610ef985828601610d24565b9250506020610f0a85828601610ec2565b9150509250929050565b5f602082019050610f275f830184610ded565b92915050565b5f80fd5b5f80fd5b7f4e487b71000000000000000000000000000000000000000000000000000000005f52604160045260245ffd5b610f6b82610da5565b810181811067ffffffffffffffff82111715610f8a57610f89610f35565b5b80604052505050565b5f610f9c610cf4565b9050610fa88282610f62565b919050565b5f67ffffffffffffffff821115610fc757610fc6610f35565b5b610fd082610da5565b9050602081019050919050565b828183375f83830152505050565b5f610ffd610ff884610fad565b610f93565b90508281526020810184848401111561101957611018610f31565b5b611024848285610fdd565b509392505050565b5f82601f8301126110405761103f610f2d565b5b8135611050848260208601610feb565b91505092915050565b5f805f606084860312156110705761106f610cfd565b5b5f84013567ffffffffffffffff81111561108d5761108c610d01565b5b6110998682870161102c565b93505060206110aa86828701610d24565b92505060406110bb86828701610d24565b9150509250925092565b5f602082840312156110da576110d9610cfd565b5b5f6110e784828501610ec2565b91505092915050565b5f806040838503121561110657611105610cfd565b5b5f61111385828601610d24565b925050602061112485828601610d24565b9150509250929050565b61113781610e9b565b82525050565b5f6020820190506111505f83018461112e565b92915050565b7f43616d706169676e20646f6573206e6f742065786973740000000000000000005f82015250565b5f61118a601783610d6d565b915061119582611156565b602082019050919050565b5f6020820190508181035f8301526111b78161117e565b9050919050565b7f43616d706169676e2068617320616c72656164792072656163686564206974735f8201527f2066756e64696e6720676f616c00000000000000000000000000000000000000602082015250565b5f611218602d83610d6d565b9150611223826111be565b604082019050919050565b5f6020820190508181035f8301526112458161120c565b9050919050565b7f436f6e747269627574696f6e20616d6f756e74206d75737420626520677265615f8201527f746572207468616e207a65726f00000000000000000000000000000000000000602082015250565b5f6112a6602d83610d6d565b91506112b18261124c565b604082019050919050565b5f6020820190508181035f8301526112d38161129a565b9050919050565b7f4e487b71000000000000000000000000000000000000000000000000000000005f52601160045260245ffd5b5f61131182610d05565b915061131c83610d05565b9250828201905080821115611334576113336112da565b5b92915050565b5f61134482610d05565b915061134f83610d05565b9250828203905081811115611367576113666112da565b5b92915050565b5f6060820190506113805f830186610ded565b61138d602083018561112e565b61139a6040830184610ded565b949350505050565b7f4e487b71000000000000000000000000000000000000000000000000000000005f52602260045260245ffd5b5f60028204905060018216806113e657607f821691505b6020821081036113f9576113f86113a2565b5b50919050565b7f54617267657420616d6f756e74206d75737420626520677265617465722074685f8201527f616e207a65726f00000000000000000000000000000000000000000000000000602082015250565b5f611459602783610d6d565b9150611464826113ff565b604082019050919050565b5f6020820190508181035f8301526114868161144d565b9050919050565b7f54696d65206475726174696f6e206d75737420626520696e20746865206675745f8201527f7572650000000000000000000000000000000000000000000000000000000000602082015250565b5f6114e7602383610d6d565b91506114f28261148d565b604082019050919050565b5f6020820190508181035f830152611514816114db565b9050919050565b5f61152582610d05565b91507fffffffffffffffffffffffffffffffffffffffffffffffffffffffffffffffff8203611557576115566112da565b5b600182019050919050565b5f819050815f5260205f209050919050565b5f6020601f8301049050919050565b5f82821b905092915050565b5f600883026115be7fffffffffffffffffffffffffffffffffffffffffffffffffffffffffffffffff82611583565b6115c88683611583565b95508019841693508086168417925050509392505050565b5f819050919050565b5f6116036115fe6115f984610d05565b6115e0565b610d05565b9050919050565b5f819050919050565b61161c836115e9565b6116306116288261160a565b84845461158f565b825550505050565b5f90565b611644611638565b61164f818484611613565b505050565b5b81811015611672576116675f8261163c565b600181019050611655565b5050565b601f8211156116b75761168881611562565b61169184611574565b810160208510156116a0578190505b6116b46116ac85611574565b830182611654565b50505b505050565b5f82821c905092915050565b5f6116d75f19846008026116bc565b1980831691505092915050565b5f6116ef83836116c8565b9150826002028217905092915050565b61170882610d63565b67ffffffffffffffff81111561172157611720610f35565b5b61172b82546113cf565b611736828285611676565b5f60209050601f831160018114611767575f8415611755578287015190505b61175f85826116e4565b8655506117c6565b601f19841661177586611562565b5f5b8281101561179c57848901518255600182019150602085019450602081019050611777565b868310156117b957848901516117b5601f8916826116c8565b8355505b6001600288020188555050505b505050505050565b5f6080820190506117e15f830187610ded565b81810360208301526117f38186610db5565b90506118026040830185610ded565b61180f6060830184610ded565b95945050505050565b7f43616d706169676e206861732072656163686564206974732066756e64696e675f8201527f20676f616c000000000000000000000000000000000000000000000000000000602082015250565b5f611872602583610d6d565b915061187d82611818565b604082019050919050565b5f6020820190508181035f83015261189f81611866565b9050919050565b7f4e6f20636f6e747269627574696f6e20666f756e6420666f72207468652063615f8201527f6d706169676e0000000000000000000000000000000000000000000000000000602082015250565b5f611900602683610d6d565b915061190b826118a6565b604082019050919050565b5f6020820190508181035f83015261192d816118f4565b9050919050565b7f46756e64696e6720676f616c206e6f74207265616368656400000000000000005f82015250565b5f611968601883610d6d565b915061197382611934565b602082019050919050565b5f6020820190508181035f8301526119958161195c565b9050919050565b5f6119a682610d05565b91506119b183610d05565b92508282026119bf81610d05565b915082820484148315176119d6576119d56112da565b5b5092915050565b7f4e487b71000000000000000000000000000000000000000000000000000000005f52601260045260245ffd5b5f611a1482610d05565b9150611a1f83610d05565b925082611a2f57611a2e6119dd565b5b828204905092915050565b7f4e487b71000000000000000000000000000000000000000000000000000000005f52603260045260245ffd5b5f604082019050611a7a5f83018561112e565b611a876020830184610ded565b939250505056fea2646970667358221220ed5aea1add14424cd2778addc39cace4e6773ccc27fe79798c15b9f6dc5fadb264736f6c63430008140033",
			"opcodes": "PUSH1 0x80 PUSH1 0x40 MSTORE CALLVALUE DUP1 ISZERO PUSH2 0xF JUMPI PUSH0 DUP1 REVERT JUMPDEST POP PUSH2 0x1AC4 DUP1 PUSH2 0x1D PUSH0 CODECOPY PUSH0 RETURN INVALID PUSH1 0x80 PUSH1 0x40 MSTORE PUSH1 0x4 CALLDATASIZE LT PUSH2 0x7A JUMPI PUSH0 CALLDATALOAD PUSH1 0xE0 SHR DUP1 PUSH4 0x3020580B GT PUSH2 0x4D JUMPI DUP1 PUSH4 0x3020580B EQ PUSH2 0x141 JUMPI DUP1 PUSH4 0x523FBA7F EQ PUSH2 0x17D JUMPI DUP1 PUSH4 0xA4B2409E EQ PUSH2 0x1B9 JUMPI DUP1 PUSH4 0xFF96DE21 EQ PUSH2 0x1E1 JUMPI PUSH2 0x7A JUMP JUMPDEST DUP1 PUSH4 0xB7EF89B EQ PUSH2 0x7E JUMPI DUP1 PUSH4 0x141961BC EQ PUSH2 0x9A JUMPI DUP1 PUSH4 0x22C59958 EQ PUSH2 0xDB JUMPI DUP1 PUSH4 0x2E618676 EQ PUSH2 0x117 JUMPI JUMPDEST PUSH0 DUP1 REVERT JUMPDEST PUSH2 0x98 PUSH1 0x4 DUP1 CALLDATASIZE SUB DUP2 ADD SWAP1 PUSH2 0x93 SWAP2 SWAP1 PUSH2 0xD38 JUMP JUMPDEST PUSH2 0x21D JUMP JUMPDEST STOP JUMPDEST CALLVALUE DUP1 ISZERO PUSH2 0xA5 JUMPI PUSH0 DUP1 REVERT JUMPDEST POP PUSH2 0xC0 PUSH1 0x4 DUP1 CALLDATASIZE SUB DUP2 ADD SWAP1 PUSH2 0xBB SWAP2 SWAP1 PUSH2 0xD38 JUMP JUMPDEST PUSH2 0x52B JUMP JUMPDEST PUSH1 0x40 MLOAD PUSH2 0xD2 SWAP7 SWAP6 SWAP5 SWAP4 SWAP3 SWAP2 SWAP1 PUSH2 0xE16 JUMP JUMPDEST PUSH1 0x40 MLOAD DUP1 SWAP2 SUB SWAP1 RETURN JUMPDEST CALLVALUE DUP1 ISZERO PUSH2 0xE6 JUMPI PUSH0 DUP1 REVERT JUMPDEST POP PUSH2 0x101 PUSH1 0x4 DUP1 CALLDATASIZE SUB DUP2 ADD SWAP1 PUSH2 0xFC SWAP2 SWAP1 PUSH2 0xED6 JUMP JUMPDEST PUSH2 0x5F4 JUMP JUMPDEST PUSH1 0x40 MLOAD PUSH2 0x10E SWAP2 SWAP1 PUSH2 0xF14 JUMP JUMPDEST PUSH1 0x40 MLOAD DUP1 SWAP2 SUB SWAP1 RETURN JUMPDEST CALLVALUE DUP1 ISZERO PUSH2 0x122 JUMPI PUSH0 DUP1 REVERT JUMPDEST POP PUSH2 0x12B PUSH2 0x614 JUMP JUMPDEST PUSH1 0x40 MLOAD PUSH2 0x138 SWAP2 SWAP1 PUSH2 0xF14 JUMP JUMPDEST PUSH1 0x40 MLOAD DUP1 SWAP2 SUB SWAP1 RETURN JUMPDEST CALLVALUE DUP1 ISZERO PUSH2 0x14C JUMPI PUSH0 DUP1 REVERT JUMPDEST POP PUSH2 0x167 PUSH1 0x4 DUP1 CALLDATASIZE SUB DUP2 ADD SWAP1 PUSH2 0x162 SWAP2 SWAP1 PUSH2 0x1059 JUMP JUMPDEST PUSH2 0x61A JUMP JUMPDEST PUSH1 0x40 MLOAD PUSH2 0x174 SWAP2 SWAP1 PUSH2 0xF14 JUMP JUMPDEST PUSH1 0x40 MLOAD DUP1 SWAP2 SUB SWAP1 RETURN JUMPDEST CALLVALUE DUP1 ISZERO PUSH2 0x188 JUMPI PUSH0 DUP1 REVERT JUMPDEST POP PUSH2 0x1A3 PUSH1 0x4 DUP1 CALLDATASIZE SUB DUP2 ADD SWAP1 PUSH2 0x19E SWAP2 SWAP1 PUSH2 0x10C5 JUMP JUMPDEST PUSH2 0x762 JUMP JUMPDEST PUSH1 0x40 MLOAD PUSH2 0x1B0 SWAP2 SWAP1 PUSH2 0xF14 JUMP JUMPDEST PUSH1 0x40 MLOAD DUP1 SWAP2 SUB SWAP1 RETURN JUMPDEST CALLVALUE DUP1 ISZERO PUSH2 0x1C4 JUMPI PUSH0 DUP1 REVERT JUMPDEST POP PUSH2 0x1DF PUSH1 0x4 DUP1 CALLDATASIZE SUB DUP2 ADD SWAP1 PUSH2 0x1DA SWAP2 SWAP1 PUSH2 0xD38 JUMP JUMPDEST PUSH2 0x777 JUMP JUMPDEST STOP JUMPDEST CALLVALUE DUP1 ISZERO PUSH2 0x1EC JUMPI PUSH0 DUP1 REVERT JUMPDEST POP PUSH2 0x207 PUSH1 0x4 DUP1 CALLDATASIZE SUB DUP2 ADD SWAP1 PUSH2 0x202 SWAP2 SWAP1 PUSH2 0x10F0 JUMP JUMPDEST PUSH2 0x9E6 JUMP JUMPDEST PUSH1 0x40 MLOAD PUSH2 0x214 SWAP2 SWAP1 PUSH2 0x113D JUMP JUMPDEST PUSH1 0x40 MLOAD DUP1 SWAP2 SUB SWAP1 RETURN JUMPDEST PUSH0 DUP1 PUSH0 DUP4 DUP2 MSTORE PUSH1 0x20 ADD SWAP1 DUP2 MSTORE PUSH1 0x20 ADD PUSH0 KECCAK256 PUSH1 0x1 ADD SLOAD GT PUSH2 0x272 JUMPI PUSH1 0x40 MLOAD PUSH32 0x8C379A000000000000000000000000000000000000000000000000000000000 DUP2 MSTORE PUSH1 0x4 ADD PUSH2 0x269 SWAP1 PUSH2 0x11A0 JUMP JUMPDEST PUSH1 0x40 MLOAD DUP1 SWAP2 SUB SWAP1 REVERT JUMPDEST PUSH0 DUP1 DUP3 DUP2 MSTORE PUSH1 0x20 ADD SWAP1 DUP2 MSTORE PUSH1 0x20 ADD PUSH0 KECCAK256 PUSH1 0x5 ADD PUSH0 SWAP1 SLOAD SWAP1 PUSH2 0x100 EXP SWAP1 DIV PUSH1 0xFF AND ISZERO PUSH2 0x2D2 JUMPI PUSH1 0x40 MLOAD PUSH32 0x8C379A000000000000000000000000000000000000000000000000000000000 DUP2 MSTORE PUSH1 0x4 ADD PUSH2 0x2C9 SWAP1 PUSH2 0x122E JUMP JUMPDEST PUSH1 0x40 MLOAD DUP1 SWAP2 SUB SWAP1 REVERT JUMPDEST PUSH0 CALLVALUE GT PUSH2 0x314 JUMPI PUSH1 0x40 MLOAD PUSH32 0x8C379A000000000000000000000000000000000000000000000000000000000 DUP2 MSTORE PUSH1 0x4 ADD PUSH2 0x30B SWAP1 PUSH2 0x12BC JUMP JUMPDEST PUSH1 0x40 MLOAD DUP1 SWAP2 SUB SWAP1 REVERT JUMPDEST CALLVALUE PUSH0 DUP1 DUP4 DUP2 MSTORE PUSH1 0x20 ADD SWAP1 DUP2 MSTORE PUSH1 0x20 ADD PUSH0 KECCAK256 PUSH1 0x3 ADD PUSH0 DUP3 DUP3 SLOAD PUSH2 0x336 SWAP2 SWAP1 PUSH2 0x1307 JUMP JUMPDEST SWAP3 POP POP DUP2 SWAP1 SSTORE POP CALLVALUE PUSH0 DUP1 DUP4 DUP2 MSTORE PUSH1 0x20 ADD SWAP1 DUP2 MSTORE PUSH1 0x20 ADD PUSH0 KECCAK256 PUSH1 0x4 ADD PUSH0 DUP3 DUP3 SLOAD PUSH2 0x35F SWAP2 SWAP1 PUSH2 0x133A JUMP JUMPDEST SWAP3 POP POP DUP2 SWAP1 SSTORE POP CALLVALUE PUSH1 0x1 PUSH0 DUP4 DUP2 MSTORE PUSH1 0x20 ADD SWAP1 DUP2 MSTORE PUSH1 0x20 ADD PUSH0 KECCAK256 PUSH0 CALLER PUSH20 0xFFFFFFFFFFFFFFFFFFFFFFFFFFFFFFFFFFFFFFFF AND PUSH20 0xFFFFFFFFFFFFFFFFFFFFFFFFFFFFFFFFFFFFFFFF AND DUP2 MSTORE PUSH1 0x20 ADD SWAP1 DUP2 MSTORE PUSH1 0x20 ADD PUSH0 KECCAK256 PUSH0 DUP3 DUP3 SLOAD PUSH2 0x3C1 SWAP2 SWAP1 PUSH2 0x1307 JUMP JUMPDEST SWAP3 POP POP DUP2 SWAP1 SSTORE POP CALLVALUE PUSH1 0x1 PUSH0 DUP4 DUP2 MSTORE PUSH1 0x20 ADD SWAP1 DUP2 MSTORE PUSH1 0x20 ADD PUSH0 KECCAK256 PUSH0 CALLER PUSH20 0xFFFFFFFFFFFFFFFFFFFFFFFFFFFFFFFFFFFFFFFF AND PUSH20 0xFFFFFFFFFFFFFFFFFFFFFFFFFFFFFFFFFFFFFFFF AND DUP2 MSTORE PUSH1 0x20 ADD SWAP1 DUP2 MSTORE PUSH1 0x20 ADD PUSH0 KECCAK256 SLOAD SUB PUSH2 0x48B JUMPI PUSH1 0x2 PUSH0 DUP3 DUP2 MSTORE PUSH1 0x20 ADD SWAP1 DUP2 MSTORE PUSH1 0x20 ADD PUSH0 KECCAK256 CALLER SWAP1 DUP1 PUSH1 0x1 DUP2 SLOAD ADD DUP1 DUP3 SSTORE DUP1 SWAP2 POP POP PUSH1 0x1 SWAP1 SUB SWAP1 PUSH0 MSTORE PUSH1 0x20 PUSH0 KECCAK256 ADD PUSH0 SWAP1 SWAP2 SWAP1 SWAP2 SWAP1 SWAP2 PUSH2 0x100 EXP DUP2 SLOAD DUP2 PUSH20 0xFFFFFFFFFFFFFFFFFFFFFFFFFFFFFFFFFFFFFFFF MUL NOT AND SWAP1 DUP4 PUSH20 0xFFFFFFFFFFFFFFFFFFFFFFFFFFFFFFFFFFFFFFFF AND MUL OR SWAP1 SSTORE POP JUMPDEST PUSH32 0xA4A91237423E0A1766A761C7CB029311D8B95D6B1B81DB1B949A70C98B4E08E DUP2 CALLER CALLVALUE PUSH1 0x40 MLOAD PUSH2 0x4BE SWAP4 SWAP3 SWAP2 SWAP1 PUSH2 0x136D JUMP JUMPDEST PUSH1 0x40 MLOAD DUP1 SWAP2 SUB SWAP1 LOG1 PUSH0 DUP1 DUP3 DUP2 MSTORE PUSH1 0x20 ADD SWAP1 DUP2 MSTORE PUSH1 0x20 ADD PUSH0 KECCAK256 PUSH1 0x1 ADD SLOAD PUSH0 DUP1 DUP4 DUP2 MSTORE PUSH1 0x20 ADD SWAP1 DUP2 MSTORE PUSH1 0x20 ADD PUSH0 KECCAK256 PUSH1 0x3 ADD SLOAD LT PUSH2 0x528 JUMPI PUSH1 0x1 PUSH0 DUP1 DUP4 DUP2 MSTORE PUSH1 0x20 ADD SWAP1 DUP2 MSTORE PUSH1 0x20 ADD PUSH0 KECCAK256 PUSH1 0x5 ADD PUSH0 PUSH2 0x100 EXP DUP2 SLOAD DUP2 PUSH1 0xFF MUL NOT AND SWAP1 DUP4 ISZERO ISZERO MUL OR SWAP1 SSTORE POP PUSH2 0x527 DUP2 PUSH2 0xA2E JUMP JUMPDEST JUMPDEST POP JUMP JUMPDEST PUSH0 PUSH1 0x20 MSTORE DUP1 PUSH0 MSTORE PUSH1 0x40 PUSH0 KECCAK256 PUSH0 SWAP2 POP SWAP1 POP DUP1 PUSH0 ADD DUP1 SLOAD PUSH2 0x549 SWAP1 PUSH2 0x13CF JUMP JUMPDEST DUP1 PUSH1 0x1F ADD PUSH1 0x20 DUP1 SWAP2 DIV MUL PUSH1 0x20 ADD PUSH1 0x40 MLOAD SWAP1 DUP2 ADD PUSH1 0x40 MSTORE DUP1 SWAP3 SWAP2 SWAP1 DUP2 DUP2 MSTORE PUSH1 0x20 ADD DUP3 DUP1 SLOAD PUSH2 0x575 SWAP1 PUSH2 0x13CF JUMP JUMPDEST DUP1 ISZERO PUSH2 0x5C0 JUMPI DUP1 PUSH1 0x1F LT PUSH2 0x597 JUMPI PUSH2 0x100 DUP1 DUP4 SLOAD DIV MUL DUP4 MSTORE SWAP2 PUSH1 0x20 ADD SWAP2 PUSH2 0x5C0 JUMP JUMPDEST DUP3 ADD SWAP2 SWAP1 PUSH0 MSTORE PUSH1 0x20 PUSH0 KECCAK256 SWAP1 JUMPDEST DUP2 SLOAD DUP2 MSTORE SWAP1 PUSH1 0x1 ADD SWAP1 PUSH1 0x20 ADD DUP1 DUP4 GT PUSH2 0x5A3 JUMPI DUP3 SWAP1 SUB PUSH1 0x1F AND DUP3 ADD SWAP2 JUMPDEST POP POP POP POP POP SWAP1 DUP1 PUSH1 0x1 ADD SLOAD SWAP1 DUP1 PUSH1 0x2 ADD SLOAD SWAP1 DUP1 PUSH1 0x3 ADD SLOAD SWAP1 DUP1 PUSH1 0x4 ADD SLOAD SWAP1 DUP1 PUSH1 0x5 ADD PUSH0 SWAP1 SLOAD SWAP1 PUSH2 0x100 EXP SWAP1 DIV PUSH1 0xFF AND SWAP1 POP DUP7 JUMP JUMPDEST PUSH1 0x1 PUSH1 0x20 MSTORE DUP2 PUSH0 MSTORE PUSH1 0x40 PUSH0 KECCAK256 PUSH1 0x20 MSTORE DUP1 PUSH0 MSTORE PUSH1 0x40 PUSH0 KECCAK256 PUSH0 SWAP2 POP SWAP2 POP POP SLOAD DUP2 JUMP JUMPDEST PUSH1 0x3 SLOAD DUP2 JUMP JUMPDEST PUSH0 DUP1 DUP4 GT PUSH2 0x65D JUMPI PUSH1 0x40 MLOAD PUSH32 0x8C379A000000000000000000000000000000000000000000000000000000000 DUP2 MSTORE PUSH1 0x4 ADD PUSH2 0x654 SWAP1 PUSH2 0x146F JUMP JUMPDEST PUSH1 0x40 MLOAD DUP1 SWAP2 SUB SWAP1 REVERT JUMPDEST TIMESTAMP DUP3 GT PUSH2 0x69F JUMPI PUSH1 0x40 MLOAD PUSH32 0x8C379A000000000000000000000000000000000000000000000000000000000 DUP2 MSTORE PUSH1 0x4 ADD PUSH2 0x696 SWAP1 PUSH2 0x14FD JUMP JUMPDEST PUSH1 0x40 MLOAD DUP1 SWAP2 SUB SWAP1 REVERT JUMPDEST PUSH0 PUSH1 0x3 PUSH0 DUP2 SLOAD PUSH2 0x6AE SWAP1 PUSH2 0x151B JUMP JUMPDEST SWAP2 SWAP1 POP DUP2 SWAP1 SSTORE SWAP1 POP PUSH0 DUP1 PUSH0 DUP4 DUP2 MSTORE PUSH1 0x20 ADD SWAP1 DUP2 MSTORE PUSH1 0x20 ADD PUSH0 KECCAK256 SWAP1 POP DUP6 DUP2 PUSH0 ADD SWAP1 DUP2 PUSH2 0x6D9 SWAP2 SWAP1 PUSH2 0x16FF JUMP JUMPDEST POP DUP5 DUP2 PUSH1 0x1 ADD DUP2 SWAP1 SSTORE POP DUP4 DUP2 PUSH1 0x2 ADD DUP2 SWAP1 SSTORE POP PUSH0 DUP2 PUSH1 0x3 ADD DUP2 SWAP1 SSTORE POP DUP5 DUP2 PUSH1 0x4 ADD DUP2 SWAP1 SSTORE POP PUSH0 DUP2 PUSH1 0x5 ADD PUSH0 PUSH2 0x100 EXP DUP2 SLOAD DUP2 PUSH1 0xFF MUL NOT AND SWAP1 DUP4 ISZERO ISZERO MUL OR SWAP1 SSTORE POP PUSH32 0x2FE3FDDD43AAD14AE5C30D5D694F19ECB065DFDE85BB591B91E8AF1448724D2 DUP3 DUP8 DUP8 DUP8 PUSH1 0x40 MLOAD PUSH2 0x74E SWAP5 SWAP4 SWAP3 SWAP2 SWAP1 PUSH2 0x17CE JUMP JUMPDEST PUSH1 0x40 MLOAD DUP1 SWAP2 SUB SWAP1 LOG1 DUP2 SWAP3 POP POP POP SWAP4 SWAP3 POP POP POP JUMP JUMPDEST PUSH1 0x4 PUSH1 0x20 MSTORE DUP1 PUSH0 MSTORE PUSH1 0x40 PUSH0 KECCAK256 PUSH0 SWAP2 POP SWAP1 POP SLOAD DUP2 JUMP JUMPDEST PUSH0 DUP1 PUSH0 DUP4 DUP2 MSTORE PUSH1 0x20 ADD SWAP1 DUP2 MSTORE PUSH1 0x20 ADD PUSH0 KECCAK256 PUSH1 0x1 ADD SLOAD GT PUSH2 0x7CC JUMPI PUSH1 0x40 MLOAD PUSH32 0x8C379A000000000000000000000000000000000000000000000000000000000 DUP2 MSTORE PUSH1 0x4 ADD PUSH2 0x7C3 SWAP1 PUSH2 0x11A0 JUMP JUMPDEST PUSH1 0x40 MLOAD DUP1 SWAP2 SUB SWAP1 REVERT JUMPDEST PUSH0 DUP1 DUP3 DUP2 MSTORE PUSH1 0x20 ADD SWAP1 DUP2 MSTORE PUSH1 0x20 ADD PUSH0 KECCAK256 PUSH1 0x1 ADD SLOAD PUSH0 DUP1 DUP4 DUP2 MSTORE PUSH1 0x20 ADD SWAP1 DUP2 MSTORE PUSH1 0x20 ADD PUSH0 KECCAK256 PUSH1 0x3 ADD SLOAD LT PUSH2 0x834 JUMPI PUSH1 0x40 MLOAD PUSH32 0x8C379A000000000000000000000000000000000000000000000000000000000 DUP2 MSTORE PUSH1 0x4 ADD PUSH2 0x82B SWAP1 PUSH2 0x1888 JUMP JUMPDEST PUSH1 0x40 MLOAD DUP1 SWAP2 SUB SWAP1 REVERT JUMPDEST PUSH0 PUSH1 0x1 PUSH0 DUP4 DUP2 MSTORE PUSH1 0x20 ADD SWAP1 DUP2 MSTORE PUSH1 0x20 ADD PUSH0 KECCAK256 PUSH0 CALLER PUSH20 0xFFFFFFFFFFFFFFFFFFFFFFFFFFFFFFFFFFFFFFFF AND PUSH20 0xFFFFFFFFFFFFFFFFFFFFFFFFFFFFFFFFFFFFFFFF AND DUP2 MSTORE PUSH1 0x20 ADD SWAP1 DUP2 MSTORE PUSH1 0x20 ADD PUSH0 KECCAK256 SLOAD GT PUSH2 0x8C2 JUMPI PUSH1 0x40 MLOAD PUSH32 0x8C379A000000000000000000000000000000000000000000000000000000000 DUP2 MSTORE PUSH1 0x4 ADD PUSH2 0x8B9 SWAP1 PUSH2 0x1916 JUMP JUMPDEST PUSH1 0x40 MLOAD DUP1 SWAP2 SUB SWAP1 REVERT JUMPDEST PUSH0 PUSH1 0x1 PUSH0 DUP4 DUP2 MSTORE PUSH1 0x20 ADD SWAP1 DUP2 MSTORE PUSH1 0x20 ADD PUSH0 KECCAK256 PUSH0 CALLER PUSH20 0xFFFFFFFFFFFFFFFFFFFFFFFFFFFFFFFFFFFFFFFF AND PUSH20 0xFFFFFFFFFFFFFFFFFFFFFFFFFFFFFFFFFFFFFFFF AND DUP2 MSTORE PUSH1 0x20 ADD SWAP1 DUP2 MSTORE PUSH1 0x20 ADD PUSH0 KECCAK256 SLOAD SWAP1 POP PUSH0 PUSH1 0x1 PUSH0 DUP5 DUP2 MSTORE PUSH1 0x20 ADD SWAP1 DUP2 MSTORE PUSH1 0x20 ADD PUSH0 KECCAK256 PUSH0 CALLER PUSH20 0xFFFFFFFFFFFFFFFFFFFFFFFFFFFFFFFFFFFFFFFF AND PUSH20 0xFFFFFFFFFFFFFFFFFFFFFFFFFFFFFFFFFFFFFFFF AND DUP2 MSTORE PUSH1 0x20 ADD SWAP1 DUP2 MSTORE PUSH1 0x20 ADD PUSH0 KECCAK256 DUP2 SWAP1 SSTORE POP CALLER PUSH20 0xFFFFFFFFFFFFFFFFFFFFFFFFFFFFFFFFFFFFFFFF AND PUSH2 0x8FC DUP3 SWAP1 DUP2 ISZERO MUL SWAP1 PUSH1 0x40 MLOAD PUSH0 PUSH1 0x40 MLOAD DUP1 DUP4 SUB DUP2 DUP6 DUP9 DUP9 CALL SWAP4 POP POP POP POP ISZERO DUP1 ISZERO PUSH2 0x9A6 JUMPI RETURNDATASIZE PUSH0 DUP1 RETURNDATACOPY RETURNDATASIZE PUSH0 REVERT JUMPDEST POP PUSH32 0x7A482FDEB6BC9A1376F597068A214A7A39472BB2EFF1B8CAD21BA04F49DDCA1B DUP3 CALLER DUP4 PUSH1 0x40 MLOAD PUSH2 0x9DA SWAP4 SWAP3 SWAP2 SWAP1 PUSH2 0x136D JUMP JUMPDEST PUSH1 0x40 MLOAD DUP1 SWAP2 SUB SWAP1 LOG1 POP POP JUMP JUMPDEST PUSH1 0x2 PUSH1 0x20 MSTORE DUP2 PUSH0 MSTORE PUSH1 0x40 PUSH0 KECCAK256 DUP2 DUP2 SLOAD DUP2 LT PUSH2 0x9FF JUMPI PUSH0 DUP1 REVERT JUMPDEST SWAP1 PUSH0 MSTORE PUSH1 0x20 PUSH0 KECCAK256 ADD PUSH0 SWAP2 POP SWAP2 POP SWAP1 SLOAD SWAP1 PUSH2 0x100 EXP SWAP1 DIV PUSH20 0xFFFFFFFFFFFFFFFFFFFFFFFFFFFFFFFFFFFFFFFF AND DUP2 JUMP JUMPDEST PUSH0 DUP1 DUP3 DUP2 MSTORE PUSH1 0x20 ADD SWAP1 DUP2 MSTORE PUSH1 0x20 ADD PUSH0 KECCAK256 PUSH1 0x1 ADD SLOAD PUSH0 DUP1 DUP4 DUP2 MSTORE PUSH1 0x20 ADD SWAP1 DUP2 MSTORE PUSH1 0x20 ADD PUSH0 KECCAK256 PUSH1 0x3 ADD SLOAD LT ISZERO PUSH2 0xA97 JUMPI PUSH1 0x40 MLOAD PUSH32 0x8C379A000000000000000000000000000000000000000000000000000000000 DUP2 MSTORE PUSH1 0x4 ADD PUSH2 0xA8E SWAP1 PUSH2 0x197E JUMP JUMPDEST PUSH1 0x40 MLOAD DUP1 SWAP2 SUB SWAP1 REVERT JUMPDEST PUSH0 DUP1 PUSH0 DUP4 DUP2 MSTORE PUSH1 0x20 ADD SWAP1 DUP2 MSTORE PUSH1 0x20 ADD PUSH0 KECCAK256 PUSH1 0x3 ADD SLOAD SWAP1 POP PUSH0 PUSH1 0x64 PUSH1 0xA DUP4 PUSH2 0xABE SWAP2 SWAP1 PUSH2 0x199C JUMP JUMPDEST PUSH2 0xAC8 SWAP2 SWAP1 PUSH2 0x1A0A JUMP JUMPDEST SWAP1 POP PUSH0 DUP1 JUMPDEST PUSH1 0x2 PUSH0 DUP7 DUP2 MSTORE PUSH1 0x20 ADD SWAP1 DUP2 MSTORE PUSH1 0x20 ADD PUSH0 KECCAK256 DUP1 SLOAD SWAP1 POP DUP2 LT ISZERO PUSH2 0xC51 JUMPI PUSH0 PUSH1 0x2 PUSH0 DUP8 DUP2 MSTORE PUSH1 0x20 ADD SWAP1 DUP2 MSTORE PUSH1 0x20 ADD PUSH0 KECCAK256 DUP3 DUP2 SLOAD DUP2 LT PUSH2 0xB0D JUMPI PUSH2 0xB0C PUSH2 0x1A3A JUMP JUMPDEST JUMPDEST SWAP1 PUSH0 MSTORE PUSH1 0x20 PUSH0 KECCAK256 ADD PUSH0 SWAP1 SLOAD SWAP1 PUSH2 0x100 EXP SWAP1 DIV PUSH20 0xFFFFFFFFFFFFFFFFFFFFFFFFFFFFFFFFFFFFFFFF AND SWAP1 POP PUSH0 PUSH1 0x1 PUSH0 DUP9 DUP2 MSTORE PUSH1 0x20 ADD SWAP1 DUP2 MSTORE PUSH1 0x20 ADD PUSH0 KECCAK256 PUSH0 DUP4 PUSH20 0xFFFFFFFFFFFFFFFFFFFFFFFFFFFFFFFFFFFFFFFF AND PUSH20 0xFFFFFFFFFFFFFFFFFFFFFFFFFFFFFFFFFFFFFFFF AND DUP2 MSTORE PUSH1 0x20 ADD SWAP1 DUP2 MSTORE PUSH1 0x20 ADD PUSH0 KECCAK256 SLOAD SWAP1 POP PUSH0 DUP7 DUP7 DUP4 PUSH2 0xB95 SWAP2 SWAP1 PUSH2 0x199C JUMP JUMPDEST PUSH2 0xB9F SWAP2 SWAP1 PUSH2 0x1A0A JUMP JUMPDEST SWAP1 POP DUP1 PUSH1 0x4 PUSH0 DUP6 PUSH20 0xFFFFFFFFFFFFFFFFFFFFFFFFFFFFFFFFFFFFFFFF AND PUSH20 0xFFFFFFFFFFFFFFFFFFFFFFFFFFFFFFFFFFFFFFFF AND DUP2 MSTORE PUSH1 0x20 ADD SWAP1 DUP2 MSTORE PUSH1 0x20 ADD PUSH0 KECCAK256 PUSH0 DUP3 DUP3 SLOAD PUSH2 0xBED SWAP2 SWAP1 PUSH2 0x1307 JUMP JUMPDEST SWAP3 POP POP DUP2 SWAP1 SSTORE POP DUP1 DUP6 PUSH2 0xC00 SWAP2 SWAP1 PUSH2 0x1307 JUMP JUMPDEST SWAP5 POP PUSH32 0x21D739F160A7464FDDAAC4A1D1517D84E76B75618A053943B345C408C4160FE0 DUP4 DUP3 PUSH1 0x40 MLOAD PUSH2 0xC33 SWAP3 SWAP2 SWAP1 PUSH2 0x1A67 JUMP JUMPDEST PUSH1 0x40 MLOAD DUP1 SWAP2 SUB SWAP1 LOG1 POP POP POP DUP1 DUP1 PUSH2 0xC49 SWAP1 PUSH2 0x151B JUMP JUMPDEST SWAP2 POP POP PUSH2 0xACD JUMP JUMPDEST POP PUSH0 DUP2 DUP4 PUSH2 0xC5F SWAP2 SWAP1 PUSH2 0x133A JUMP JUMPDEST SWAP1 POP DUP1 PUSH1 0x4 PUSH0 ADDRESS PUSH20 0xFFFFFFFFFFFFFFFFFFFFFFFFFFFFFFFFFFFFFFFF AND PUSH20 0xFFFFFFFFFFFFFFFFFFFFFFFFFFFFFFFFFFFFFFFF AND DUP2 MSTORE PUSH1 0x20 ADD SWAP1 DUP2 MSTORE PUSH1 0x20 ADD PUSH0 KECCAK256 PUSH0 DUP3 DUP3 SLOAD PUSH2 0xCAD SWAP2 SWAP1 PUSH2 0x1307 JUMP JUMPDEST SWAP3 POP POP DUP2 SWAP1 SSTORE POP PUSH32 0x21D739F160A7464FDDAAC4A1D1517D84E76B75618A053943B345C408C4160FE0 ADDRESS DUP3 PUSH1 0x40 MLOAD PUSH2 0xCE5 SWAP3 SWAP2 SWAP1 PUSH2 0x1A67 JUMP JUMPDEST PUSH1 0x40 MLOAD DUP1 SWAP2 SUB SWAP1 LOG1 POP POP POP POP POP JUMP JUMPDEST PUSH0 PUSH1 0x40 MLOAD SWAP1 POP SWAP1 JUMP JUMPDEST PUSH0 DUP1 REVERT JUMPDEST PUSH0 DUP1 REVERT JUMPDEST PUSH0 DUP2 SWAP1 POP SWAP2 SWAP1 POP JUMP JUMPDEST PUSH2 0xD17 DUP2 PUSH2 0xD05 JUMP JUMPDEST DUP2 EQ PUSH2 0xD21 JUMPI PUSH0 DUP1 REVERT JUMPDEST POP JUMP JUMPDEST PUSH0 DUP2 CALLDATALOAD SWAP1 POP PUSH2 0xD32 DUP2 PUSH2 0xD0E JUMP JUMPDEST SWAP3 SWAP2 POP POP JUMP JUMPDEST PUSH0 PUSH1 0x20 DUP3 DUP5 SUB SLT ISZERO PUSH2 0xD4D JUMPI PUSH2 0xD4C PUSH2 0xCFD JUMP JUMPDEST JUMPDEST PUSH0 PUSH2 0xD5A DUP5 DUP3 DUP6 ADD PUSH2 0xD24 JUMP JUMPDEST SWAP2 POP POP SWAP3 SWAP2 POP POP JUMP JUMPDEST PUSH0 DUP2 MLOAD SWAP1 POP SWAP2 SWAP1 POP JUMP JUMPDEST PUSH0 DUP3 DUP3 MSTORE PUSH1 0x20 DUP3 ADD SWAP1 POP SWAP3 SWAP2 POP POP JUMP JUMPDEST PUSH0 JUMPDEST DUP4 DUP2 LT ISZERO PUSH2 0xD9A JUMPI DUP1 DUP3 ADD MLOAD DUP2 DUP5 ADD MSTORE PUSH1 0x20 DUP2 ADD SWAP1 POP PUSH2 0xD7F JUMP JUMPDEST PUSH0 DUP5 DUP5 ADD MSTORE POP POP POP POP JUMP JUMPDEST PUSH0 PUSH1 0x1F NOT PUSH1 0x1F DUP4 ADD AND SWAP1 POP SWAP2 SWAP1 POP JUMP JUMPDEST PUSH0 PUSH2 0xDBF DUP3 PUSH2 0xD63 JUMP JUMPDEST PUSH2 0xDC9 DUP2 DUP6 PUSH2 0xD6D JUMP JUMPDEST SWAP4 POP PUSH2 0xDD9 DUP2 DUP6 PUSH1 0x20 DUP7 ADD PUSH2 0xD7D JUMP JUMPDEST PUSH2 0xDE2 DUP2 PUSH2 0xDA5 JUMP JUMPDEST DUP5 ADD SWAP2 POP POP SWAP3 SWAP2 POP POP JUMP JUMPDEST PUSH2 0xDF6 DUP2 PUSH2 0xD05 JUMP JUMPDEST DUP3 MSTORE POP POP JUMP JUMPDEST PUSH0 DUP2 ISZERO ISZERO SWAP1 POP SWAP2 SWAP1 POP JUMP JUMPDEST PUSH2 0xE10 DUP2 PUSH2 0xDFC JUMP JUMPDEST DUP3 MSTORE POP POP JUMP JUMPDEST PUSH0 PUSH1 0xC0 DUP3 ADD SWAP1 POP DUP2 DUP2 SUB PUSH0 DUP4 ADD MSTORE PUSH2 0xE2E DUP2 DUP10 PUSH2 0xDB5 JUMP JUMPDEST SWAP1 POP PUSH2 0xE3D PUSH1 0x20 DUP4 ADD DUP9 PUSH2 0xDED JUMP JUMPDEST PUSH2 0xE4A PUSH1 0x40 DUP4 ADD DUP8 PUSH2 0xDED JUMP JUMPDEST PUSH2 0xE57 PUSH1 0x60 DUP4 ADD DUP7 PUSH2 0xDED JUMP JUMPDEST PUSH2 0xE64 PUSH1 0x80 DUP4 ADD DUP6 PUSH2 0xDED JUMP JUMPDEST PUSH2 0xE71 PUSH1 0xA0 DUP4 ADD DUP5 PUSH2 0xE07 JUMP JUMPDEST SWAP8 SWAP7 POP POP POP POP POP POP POP JUMP JUMPDEST PUSH0 PUSH20 0xFFFFFFFFFFFFFFFFFFFFFFFFFFFFFFFFFFFFFFFF DUP3 AND SWAP1 POP SWAP2 SWAP1 POP JUMP JUMPDEST PUSH0 PUSH2 0xEA5 DUP3 PUSH2 0xE7C JUMP JUMPDEST SWAP1 POP SWAP2 SWAP1 POP JUMP JUMPDEST PUSH2 0xEB5 DUP2 PUSH2 0xE9B JUMP JUMPDEST DUP2 EQ PUSH2 0xEBF JUMPI PUSH0 DUP1 REVERT JUMPDEST POP JUMP JUMPDEST PUSH0 DUP2 CALLDATALOAD SWAP1 POP PUSH2 0xED0 DUP2 PUSH2 0xEAC JUMP JUMPDEST SWAP3 SWAP2 POP POP JUMP JUMPDEST PUSH0 DUP1 PUSH1 0x40 DUP4 DUP6 SUB SLT ISZERO PUSH2 0xEEC JUMPI PUSH2 0xEEB PUSH2 0xCFD JUMP JUMPDEST JUMPDEST PUSH0 PUSH2 0xEF9 DUP6 DUP3 DUP7 ADD PUSH2 0xD24 JUMP JUMPDEST SWAP3 POP POP PUSH1 0x20 PUSH2 0xF0A DUP6 DUP3 DUP7 ADD PUSH2 0xEC2 JUMP JUMPDEST SWAP2 POP POP SWAP3 POP SWAP3 SWAP1 POP JUMP JUMPDEST PUSH0 PUSH1 0x20 DUP3 ADD SWAP1 POP PUSH2 0xF27 PUSH0 DUP4 ADD DUP5 PUSH2 0xDED JUMP JUMPDEST SWAP3 SWAP2 POP POP JUMP JUMPDEST PUSH0 DUP1 REVERT JUMPDEST PUSH0 DUP1 REVERT JUMPDEST PUSH32 0x4E487B7100000000000000000000000000000000000000000000000000000000 PUSH0 MSTORE PUSH1 0x41 PUSH1 0x4 MSTORE PUSH1 0x24 PUSH0 REVERT JUMPDEST PUSH2 0xF6B DUP3 PUSH2 0xDA5 JUMP JUMPDEST DUP2 ADD DUP2 DUP2 LT PUSH8 0xFFFFFFFFFFFFFFFF DUP3 GT OR ISZERO PUSH2 0xF8A JUMPI PUSH2 0xF89 PUSH2 0xF35 JUMP JUMPDEST JUMPDEST DUP1 PUSH1 0x40 MSTORE POP POP POP JUMP JUMPDEST PUSH0 PUSH2 0xF9C PUSH2 0xCF4 JUMP JUMPDEST SWAP1 POP PUSH2 0xFA8 DUP3 DUP3 PUSH2 0xF62 JUMP JUMPDEST SWAP2 SWAP1 POP JUMP JUMPDEST PUSH0 PUSH8 0xFFFFFFFFFFFFFFFF DUP3 GT ISZERO PUSH2 0xFC7 JUMPI PUSH2 0xFC6 PUSH2 0xF35 JUMP JUMPDEST JUMPDEST PUSH2 0xFD0 DUP3 PUSH2 0xDA5 JUMP JUMPDEST SWAP1 POP PUSH1 0x20 DUP2 ADD SWAP1 POP SWAP2 SWAP1 POP JUMP JUMPDEST DUP3 DUP2 DUP4 CALLDATACOPY PUSH0 DUP4 DUP4 ADD MSTORE POP POP POP JUMP JUMPDEST PUSH0 PUSH2 0xFFD PUSH2 0xFF8 DUP5 PUSH2 0xFAD JUMP JUMPDEST PUSH2 0xF93 JUMP JUMPDEST SWAP1 POP DUP3 DUP2 MSTORE PUSH1 0x20 DUP2 ADD DUP5 DUP5 DUP5 ADD GT ISZERO PUSH2 0x1019 JUMPI PUSH2 0x1018 PUSH2 0xF31 JUMP JUMPDEST JUMPDEST PUSH2 0x1024 DUP5 DUP3 DUP6 PUSH2 0xFDD JUMP JUMPDEST POP SWAP4 SWAP3 POP POP POP JUMP JUMPDEST PUSH0 DUP3 PUSH1 0x1F DUP4 ADD SLT PUSH2 0x1040 JUMPI PUSH2 0x103F PUSH2 0xF2D JUMP JUMPDEST JUMPDEST DUP2 CALLDATALOAD PUSH2 0x1050 DUP5 DUP3 PUSH1 0x20 DUP7 ADD PUSH2 0xFEB JUMP JUMPDEST SWAP2 POP POP SWAP3 SWAP2 POP POP JUMP JUMPDEST PUSH0 DUP1 PUSH0 PUSH1 0x60 DUP5 DUP7 SUB SLT ISZERO PUSH2 0x1070 JUMPI PUSH2 0x106F PUSH2 0xCFD JUMP JUMPDEST JUMPDEST PUSH0 DUP5 ADD CALLDATALOAD PUSH8 0xFFFFFFFFFFFFFFFF DUP2 GT ISZERO PUSH2 0x108D JUMPI PUSH2 0x108C PUSH2 0xD01 JUMP JUMPDEST JUMPDEST PUSH2 0x1099 DUP7 DUP3 DUP8 ADD PUSH2 0x102C JUMP JUMPDEST SWAP4 POP POP PUSH1 0x20 PUSH2 0x10AA DUP7 DUP3 DUP8 ADD PUSH2 0xD24 JUMP JUMPDEST SWAP3 POP POP PUSH1 0x40 PUSH2 0x10BB DUP7 DUP3 DUP8 ADD PUSH2 0xD24 JUMP JUMPDEST SWAP2 POP POP SWAP3 POP SWAP3 POP SWAP3 JUMP JUMPDEST PUSH0 PUSH1 0x20 DUP3 DUP5 SUB SLT ISZERO PUSH2 0x10DA JUMPI PUSH2 0x10D9 PUSH2 0xCFD JUMP JUMPDEST JUMPDEST PUSH0 PUSH2 0x10E7 DUP5 DUP3 DUP6 ADD PUSH2 0xEC2 JUMP JUMPDEST SWAP2 POP POP SWAP3 SWAP2 POP POP JUMP JUMPDEST PUSH0 DUP1 PUSH1 0x40 DUP4 DUP6 SUB SLT ISZERO PUSH2 0x1106 JUMPI PUSH2 0x1105 PUSH2 0xCFD JUMP JUMPDEST JUMPDEST PUSH0 PUSH2 0x1113 DUP6 DUP3 DUP7 ADD PUSH2 0xD24 JUMP JUMPDEST SWAP3 POP POP PUSH1 0x20 PUSH2 0x1124 DUP6 DUP3 DUP7 ADD PUSH2 0xD24 JUMP JUMPDEST SWAP2 POP POP SWAP3 POP SWAP3 SWAP1 POP JUMP JUMPDEST PUSH2 0x1137 DUP2 PUSH2 0xE9B JUMP JUMPDEST DUP3 MSTORE POP POP JUMP JUMPDEST PUSH0 PUSH1 0x20 DUP3 ADD SWAP1 POP PUSH2 0x1150 PUSH0 DUP4 ADD DUP5 PUSH2 0x112E JUMP JUMPDEST SWAP3 SWAP2 POP POP JUMP JUMPDEST PUSH32 0x43616D706169676E20646F6573206E6F74206578697374000000000000000000 PUSH0 DUP3 ADD MSTORE POP JUMP JUMPDEST PUSH0 PUSH2 0x118A PUSH1 0x17 DUP4 PUSH2 0xD6D JUMP JUMPDEST SWAP2 POP PUSH2 0x1195 DUP3 PUSH2 0x1156 JUMP JUMPDEST PUSH1 0x20 DUP3 ADD SWAP1 POP SWAP2 SWAP1 POP JUMP JUMPDEST PUSH0 PUSH1 0x20 DUP3 ADD SWAP1 POP DUP2 DUP2 SUB PUSH0 DUP4 ADD MSTORE PUSH2 0x11B7 DUP2 PUSH2 0x117E JUMP JUMPDEST SWAP1 POP SWAP2 SWAP1 POP JUMP JUMPDEST PUSH32 0x43616D706169676E2068617320616C7265616479207265616368656420697473 PUSH0 DUP3 ADD MSTORE PUSH32 0x2066756E64696E6720676F616C00000000000000000000000000000000000000 PUSH1 0x20 DUP3 ADD MSTORE POP JUMP JUMPDEST PUSH0 PUSH2 0x1218 PUSH1 0x2D DUP4 PUSH2 0xD6D JUMP JUMPDEST SWAP2 POP PUSH2 0x1223 DUP3 PUSH2 0x11BE JUMP JUMPDEST PUSH1 0x40 DUP3 ADD SWAP1 POP SWAP2 SWAP1 POP JUMP JUMPDEST PUSH0 PUSH1 0x20 DUP3 ADD SWAP1 POP DUP2 DUP2 SUB PUSH0 DUP4 ADD MSTORE PUSH2 0x1245 DUP2 PUSH2 0x120C JUMP JUMPDEST SWAP1 POP SWAP2 SWAP1 POP JUMP JUMPDEST PUSH32 0x436F6E747269627574696F6E20616D6F756E74206D7573742062652067726561 PUSH0 DUP3 ADD MSTORE PUSH32 0x746572207468616E207A65726F00000000000000000000000000000000000000 PUSH1 0x20 DUP3 ADD MSTORE POP JUMP JUMPDEST PUSH0 PUSH2 0x12A6 PUSH1 0x2D DUP4 PUSH2 0xD6D JUMP JUMPDEST SWAP2 POP PUSH2 0x12B1 DUP3 PUSH2 0x124C JUMP JUMPDEST PUSH1 0x40 DUP3 ADD SWAP1 POP SWAP2 SWAP1 POP JUMP JUMPDEST PUSH0 PUSH1 0x20 DUP3 ADD SWAP1 POP DUP2 DUP2 SUB PUSH0 DUP4 ADD MSTORE PUSH2 0x12D3 DUP2 PUSH2 0x129A JUMP JUMPDEST SWAP1 POP SWAP2 SWAP1 POP JUMP JUMPDEST PUSH32 0x4E487B7100000000000000000000000000000000000000000000000000000000 PUSH0 MSTORE PUSH1 0x11 PUSH1 0x4 MSTORE PUSH1 0x24 PUSH0 REVERT JUMPDEST PUSH0 PUSH2 0x1311 DUP3 PUSH2 0xD05 JUMP JUMPDEST SWAP2 POP PUSH2 0x131C DUP4 PUSH2 0xD05 JUMP JUMPDEST SWAP3 POP DUP3 DUP3 ADD SWAP1 POP DUP1 DUP3 GT ISZERO PUSH2 0x1334 JUMPI PUSH2 0x1333 PUSH2 0x12DA JUMP JUMPDEST JUMPDEST SWAP3 SWAP2 POP POP JUMP JUMPDEST PUSH0 PUSH2 0x1344 DUP3 PUSH2 0xD05 JUMP JUMPDEST SWAP2 POP PUSH2 0x134F DUP4 PUSH2 0xD05 JUMP JUMPDEST SWAP3 POP DUP3 DUP3 SUB SWAP1 POP DUP2 DUP2 GT ISZERO PUSH2 0x1367 JUMPI PUSH2 0x1366 PUSH2 0x12DA JUMP JUMPDEST JUMPDEST SWAP3 SWAP2 POP POP JUMP JUMPDEST PUSH0 PUSH1 0x60 DUP3 ADD SWAP1 POP PUSH2 0x1380 PUSH0 DUP4 ADD DUP7 PUSH2 0xDED JUMP JUMPDEST PUSH2 0x138D PUSH1 0x20 DUP4 ADD DUP6 PUSH2 0x112E JUMP JUMPDEST PUSH2 0x139A PUSH1 0x40 DUP4 ADD DUP5 PUSH2 0xDED JUMP JUMPDEST SWAP5 SWAP4 POP POP POP POP JUMP JUMPDEST PUSH32 0x4E487B7100000000000000000000000000000000000000000000000000000000 PUSH0 MSTORE PUSH1 0x22 PUSH1 0x4 MSTORE PUSH1 0x24 PUSH0 REVERT JUMPDEST PUSH0 PUSH1 0x2 DUP3 DIV SWAP1 POP PUSH1 0x1 DUP3 AND DUP1 PUSH2 0x13E6 JUMPI PUSH1 0x7F DUP3 AND SWAP2 POP JUMPDEST PUSH1 0x20 DUP3 LT DUP2 SUB PUSH2 0x13F9 JUMPI PUSH2 0x13F8 PUSH2 0x13A2 JUMP JUMPDEST JUMPDEST POP SWAP2 SWAP1 POP JUMP JUMPDEST PUSH32 0x54617267657420616D6F756E74206D7573742062652067726561746572207468 PUSH0 DUP3 ADD MSTORE PUSH32 0x616E207A65726F00000000000000000000000000000000000000000000000000 PUSH1 0x20 DUP3 ADD MSTORE POP JUMP JUMPDEST PUSH0 PUSH2 0x1459 PUSH1 0x27 DUP4 PUSH2 0xD6D JUMP JUMPDEST SWAP2 POP PUSH2 0x1464 DUP3 PUSH2 0x13FF JUMP JUMPDEST PUSH1 0x40 DUP3 ADD SWAP1 POP SWAP2 SWAP1 POP JUMP JUMPDEST PUSH0 PUSH1 0x20 DUP3 ADD SWAP1 POP DUP2 DUP2 SUB PUSH0 DUP4 ADD MSTORE PUSH2 0x1486 DUP2 PUSH2 0x144D JUMP JUMPDEST SWAP1 POP SWAP2 SWAP1 POP JUMP JUMPDEST PUSH32 0x54696D65206475726174696F6E206D75737420626520696E2074686520667574 PUSH0 DUP3 ADD MSTORE PUSH32 0x7572650000000000000000000000000000000000000000000000000000000000 PUSH1 0x20 DUP3 ADD MSTORE POP JUMP JUMPDEST PUSH0 PUSH2 0x14E7 PUSH1 0x23 DUP4 PUSH2 0xD6D JUMP JUMPDEST SWAP2 POP PUSH2 0x14F2 DUP3 PUSH2 0x148D JUMP JUMPDEST PUSH1 0x40 DUP3 ADD SWAP1 POP SWAP2 SWAP1 POP JUMP JUMPDEST PUSH0 PUSH1 0x20 DUP3 ADD SWAP1 POP DUP2 DUP2 SUB PUSH0 DUP4 ADD MSTORE PUSH2 0x1514 DUP2 PUSH2 0x14DB JUMP JUMPDEST SWAP1 POP SWAP2 SWAP1 POP JUMP JUMPDEST PUSH0 PUSH2 0x1525 DUP3 PUSH2 0xD05 JUMP JUMPDEST SWAP2 POP PUSH32 0xFFFFFFFFFFFFFFFFFFFFFFFFFFFFFFFFFFFFFFFFFFFFFFFFFFFFFFFFFFFFFFFF DUP3 SUB PUSH2 0x1557 JUMPI PUSH2 0x1556 PUSH2 0x12DA JUMP JUMPDEST JUMPDEST PUSH1 0x1 DUP3 ADD SWAP1 POP SWAP2 SWAP1 POP JUMP JUMPDEST PUSH0 DUP2 SWAP1 POP DUP2 PUSH0 MSTORE PUSH1 0x20 PUSH0 KECCAK256 SWAP1 POP SWAP2 SWAP1 POP JUMP JUMPDEST PUSH0 PUSH1 0x20 PUSH1 0x1F DUP4 ADD DIV SWAP1 POP SWAP2 SWAP1 POP JUMP JUMPDEST PUSH0 DUP3 DUP3 SHL SWAP1 POP SWAP3 SWAP2 POP POP JUMP JUMPDEST PUSH0 PUSH1 0x8 DUP4 MUL PUSH2 0x15BE PUSH32 0xFFFFFFFFFFFFFFFFFFFFFFFFFFFFFFFFFFFFFFFFFFFFFFFFFFFFFFFFFFFFFFFF DUP3 PUSH2 0x1583 JUMP JUMPDEST PUSH2 0x15C8 DUP7 DUP4 PUSH2 0x1583 JUMP JUMPDEST SWAP6 POP DUP1 NOT DUP5 AND SWAP4 POP DUP1 DUP7 AND DUP5 OR SWAP3 POP POP POP SWAP4 SWAP3 POP POP POP JUMP JUMPDEST PUSH0 DUP2 SWAP1 POP SWAP2 SWAP1 POP JUMP JUMPDEST PUSH0 PUSH2 0x1603 PUSH2 0x15FE PUSH2 0x15F9 DUP5 PUSH2 0xD05 JUMP JUMPDEST PUSH2 0x15E0 JUMP JUMPDEST PUSH2 0xD05 JUMP JUMPDEST SWAP1 POP SWAP2 SWAP1 POP JUMP JUMPDEST PUSH0 DUP2 SWAP1 POP SWAP2 SWAP1 POP JUMP JUMPDEST PUSH2 0x161C DUP4 PUSH2 0x15E9 JUMP JUMPDEST PUSH2 0x1630 PUSH2 0x1628 DUP3 PUSH2 0x160A JUMP JUMPDEST DUP5 DUP5 SLOAD PUSH2 0x158F JUMP JUMPDEST DUP3 SSTORE POP POP POP POP JUMP JUMPDEST PUSH0 SWAP1 JUMP JUMPDEST PUSH2 0x1644 PUSH2 0x1638 JUMP JUMPDEST PUSH2 0x164F DUP2 DUP5 DUP5 PUSH2 0x1613 JUMP JUMPDEST POP POP POP JUMP JUMPDEST JUMPDEST DUP2 DUP2 LT ISZERO PUSH2 0x1672 JUMPI PUSH2 0x1667 PUSH0 DUP3 PUSH2 0x163C JUMP JUMPDEST PUSH1 0x1 DUP2 ADD SWAP1 POP PUSH2 0x1655 JUMP JUMPDEST POP POP JUMP JUMPDEST PUSH1 0x1F DUP3 GT ISZERO PUSH2 0x16B7 JUMPI PUSH2 0x1688 DUP2 PUSH2 0x1562 JUMP JUMPDEST PUSH2 0x1691 DUP5 PUSH2 0x1574 JUMP JUMPDEST DUP2 ADD PUSH1 0x20 DUP6 LT ISZERO PUSH2 0x16A0 JUMPI DUP2 SWAP1 POP JUMPDEST PUSH2 0x16B4 PUSH2 0x16AC DUP6 PUSH2 0x1574 JUMP JUMPDEST DUP4 ADD DUP3 PUSH2 0x1654 JUMP JUMPDEST POP POP JUMPDEST POP POP POP JUMP JUMPDEST PUSH0 DUP3 DUP3 SHR SWAP1 POP SWAP3 SWAP2 POP POP JUMP JUMPDEST PUSH0 PUSH2 0x16D7 PUSH0 NOT DUP5 PUSH1 0x8 MUL PUSH2 0x16BC JUMP JUMPDEST NOT DUP1 DUP4 AND SWAP2 POP POP SWAP3 SWAP2 POP POP JUMP JUMPDEST PUSH0 PUSH2 0x16EF DUP4 DUP4 PUSH2 0x16C8 JUMP JUMPDEST SWAP2 POP DUP3 PUSH1 0x2 MUL DUP3 OR SWAP1 POP SWAP3 SWAP2 POP POP JUMP JUMPDEST PUSH2 0x1708 DUP3 PUSH2 0xD63 JUMP JUMPDEST PUSH8 0xFFFFFFFFFFFFFFFF DUP2 GT ISZERO PUSH2 0x1721 JUMPI PUSH2 0x1720 PUSH2 0xF35 JUMP JUMPDEST JUMPDEST PUSH2 0x172B DUP3 SLOAD PUSH2 0x13CF JUMP JUMPDEST PUSH2 0x1736 DUP3 DUP3 DUP6 PUSH2 0x1676 JUMP JUMPDEST PUSH0 PUSH1 0x20 SWAP1 POP PUSH1 0x1F DUP4 GT PUSH1 0x1 DUP2 EQ PUSH2 0x1767 JUMPI PUSH0 DUP5 ISZERO PUSH2 0x1755 JUMPI DUP3 DUP8 ADD MLOAD SWAP1 POP JUMPDEST PUSH2 0x175F DUP6 DUP3 PUSH2 0x16E4 JUMP JUMPDEST DUP7 SSTORE POP PUSH2 0x17C6 JUMP JUMPDEST PUSH1 0x1F NOT DUP5 AND PUSH2 0x1775 DUP7 PUSH2 0x1562 JUMP JUMPDEST PUSH0 JUMPDEST DUP3 DUP2 LT ISZERO PUSH2 0x179C JUMPI DUP5 DUP10 ADD MLOAD DUP3 SSTORE PUSH1 0x1 DUP3 ADD SWAP2 POP PUSH1 0x20 DUP6 ADD SWAP5 POP PUSH1 0x20 DUP2 ADD SWAP1 POP PUSH2 0x1777 JUMP JUMPDEST DUP7 DUP4 LT ISZERO PUSH2 0x17B9 JUMPI DUP5 DUP10 ADD MLOAD PUSH2 0x17B5 PUSH1 0x1F DUP10 AND DUP3 PUSH2 0x16C8 JUMP JUMPDEST DUP4 SSTORE POP JUMPDEST PUSH1 0x1 PUSH1 0x2 DUP9 MUL ADD DUP9 SSTORE POP POP POP JUMPDEST POP POP POP POP POP POP JUMP JUMPDEST PUSH0 PUSH1 0x80 DUP3 ADD SWAP1 POP PUSH2 0x17E1 PUSH0 DUP4 ADD DUP8 PUSH2 0xDED JUMP JUMPDEST DUP2 DUP2 SUB PUSH1 0x20 DUP4 ADD MSTORE PUSH2 0x17F3 DUP2 DUP7 PUSH2 0xDB5 JUMP JUMPDEST SWAP1 POP PUSH2 0x1802 PUSH1 0x40 DUP4 ADD DUP6 PUSH2 0xDED JUMP JUMPDEST PUSH2 0x180F PUSH1 0x60 DUP4 ADD DUP5 PUSH2 0xDED JUMP JUMPDEST SWAP6 SWAP5 POP POP POP POP POP JUMP JUMPDEST PUSH32 0x43616D706169676E206861732072656163686564206974732066756E64696E67 PUSH0 DUP3 ADD MSTORE PUSH32 0x20676F616C000000000000000000000000000000000000000000000000000000 PUSH1 0x20 DUP3 ADD MSTORE POP JUMP JUMPDEST PUSH0 PUSH2 0x1872 PUSH1 0x25 DUP4 PUSH2 0xD6D JUMP JUMPDEST SWAP2 POP PUSH2 0x187D DUP3 PUSH2 0x1818 JUMP JUMPDEST PUSH1 0x40 DUP3 ADD SWAP1 POP SWAP2 SWAP1 POP JUMP JUMPDEST PUSH0 PUSH1 0x20 DUP3 ADD SWAP1 POP DUP2 DUP2 SUB PUSH0 DUP4 ADD MSTORE PUSH2 0x189F DUP2 PUSH2 0x1866 JUMP JUMPDEST SWAP1 POP SWAP2 SWAP1 POP JUMP JUMPDEST PUSH32 0x4E6F20636F6E747269627574696F6E20666F756E6420666F7220746865206361 PUSH0 DUP3 ADD MSTORE PUSH32 0x6D706169676E0000000000000000000000000000000000000000000000000000 PUSH1 0x20 DUP3 ADD MSTORE POP JUMP JUMPDEST PUSH0 PUSH2 0x1900 PUSH1 0x26 DUP4 PUSH2 0xD6D JUMP JUMPDEST SWAP2 POP PUSH2 0x190B DUP3 PUSH2 0x18A6 JUMP JUMPDEST PUSH1 0x40 DUP3 ADD SWAP1 POP SWAP2 SWAP1 POP JUMP JUMPDEST PUSH0 PUSH1 0x20 DUP3 ADD SWAP1 POP DUP2 DUP2 SUB PUSH0 DUP4 ADD MSTORE PUSH2 0x192D DUP2 PUSH2 0x18F4 JUMP JUMPDEST SWAP1 POP SWAP2 SWAP1 POP JUMP JUMPDEST PUSH32 0x46756E64696E6720676F616C206E6F7420726561636865640000000000000000 PUSH0 DUP3 ADD MSTORE POP JUMP JUMPDEST PUSH0 PUSH2 0x1968 PUSH1 0x18 DUP4 PUSH2 0xD6D JUMP JUMPDEST SWAP2 POP PUSH2 0x1973 DUP3 PUSH2 0x1934 JUMP JUMPDEST PUSH1 0x20 DUP3 ADD SWAP1 POP SWAP2 SWAP1 POP JUMP JUMPDEST PUSH0 PUSH1 0x20 DUP3 ADD SWAP1 POP DUP2 DUP2 SUB PUSH0 DUP4 ADD MSTORE PUSH2 0x1995 DUP2 PUSH2 0x195C JUMP JUMPDEST SWAP1 POP SWAP2 SWAP1 POP JUMP JUMPDEST PUSH0 PUSH2 0x19A6 DUP3 PUSH2 0xD05 JUMP JUMPDEST SWAP2 POP PUSH2 0x19B1 DUP4 PUSH2 0xD05 JUMP JUMPDEST SWAP3 POP DUP3 DUP3 MUL PUSH2 0x19BF DUP2 PUSH2 0xD05 JUMP JUMPDEST SWAP2 POP DUP3 DUP3 DIV DUP5 EQ DUP4 ISZERO OR PUSH2 0x19D6 JUMPI PUSH2 0x19D5 PUSH2 0x12DA JUMP JUMPDEST JUMPDEST POP SWAP3 SWAP2 POP POP JUMP JUMPDEST PUSH32 0x4E487B7100000000000000000000000000000000000000000000000000000000 PUSH0 MSTORE PUSH1 0x12 PUSH1 0x4 MSTORE PUSH1 0x24 PUSH0 REVERT JUMPDEST PUSH0 PUSH2 0x1A14 DUP3 PUSH2 0xD05 JUMP JUMPDEST SWAP2 POP PUSH2 0x1A1F DUP4 PUSH2 0xD05 JUMP JUMPDEST SWAP3 POP DUP3 PUSH2 0x1A2F JUMPI PUSH2 0x1A2E PUSH2 0x19DD JUMP JUMPDEST JUMPDEST DUP3 DUP3 DIV SWAP1 POP SWAP3 SWAP2 POP POP JUMP JUMPDEST PUSH32 0x4E487B7100000000000000000000000000000000000000000000000000000000 PUSH0 MSTORE PUSH1 0x32 PUSH1 0x4 MSTORE PUSH1 0x24 PUSH0 REVERT JUMPDEST PUSH0 PUSH1 0x40 DUP3 ADD SWAP1 POP PUSH2 0x1A7A PUSH0 DUP4 ADD DUP6 PUSH2 0x112E JUMP JUMPDEST PUSH2 0x1A87 PUSH1 0x20 DUP4 ADD DUP5 PUSH2 0xDED JUMP JUMPDEST SWAP4 SWAP3 POP POP POP JUMP INVALID LOG2 PUSH5 0x6970667358 0x22 SLT KECCAK256 0xED GAS 0xEA BYTE 0xDD EQ TIMESTAMP 0x4C 0xD2 PUSH24 0x8ADDC39CACE4E6773CCC27FE79798C15B9F6DC5FADB26473 PUSH16 0x6C634300081400330000000000000000 "
		},
		"gasEstimates": {
			"creation": {
				"codeDepositCost": "1370400",
				"executionCost": "1429",
				"totalCost": "1371829"
			},
			"external": {
				"campaignContributions(uint256,address)": "infinite",
				"campaignContributors(uint256,uint256)": "infinite",
				"campaignIdCounter()": "2492",
				"campaigns(uint256)": "infinite",
				"contributeToCampaign(uint256)": "infinite",
				"createCampaign(string,uint256,uint256)": "infinite",
				"requestRefund(uint256)": "infinite",
				"tokenBalances(address)": "2824"
			},
			"internal": {
				"issueTokens(uint256)": "infinite"
			}
		},
		"methodIdentifiers": {
			"campaignContributions(uint256,address)": "22c59958",
			"campaignContributors(uint256,uint256)": "ff96de21",
			"campaignIdCounter()": "2e618676",
			"campaigns(uint256)": "141961bc",
			"contributeToCampaign(uint256)": "0b7ef89b",
			"createCampaign(string,uint256,uint256)": "3020580b",
			"requestRefund(uint256)": "a4b2409e",
			"tokenBalances(address)": "523fba7f"
		}
	},
	"abi": [
		{
			"inputs": [],
			"stateMutability": "nonpayable",
			"type": "constructor"
		},
		{
			"anonymous": false,
			"inputs": [
				{
					"indexed": false,
					"internalType": "uint256",
					"name": "campaignId",
					"type": "uint256"
				},
				{
					"indexed": false,
					"internalType": "string",
					"name": "campaignName",
					"type": "string"
				},
				{
					"indexed": false,
					"internalType": "uint256",
					"name": "targetAmount",
					"type": "uint256"
				},
				{
					"indexed": false,
					"internalType": "uint256",
					"name": "timeDuration",
					"type": "uint256"
				}
			],
			"name": "CampaignCreated",
			"type": "event"
		},
		{
			"anonymous": false,
			"inputs": [
				{
					"indexed": false,
					"internalType": "uint256",
					"name": "campaignId",
					"type": "uint256"
				},
				{
					"indexed": false,
					"internalType": "address",
					"name": "contributor",
					"type": "address"
				},
				{
					"indexed": false,
					"internalType": "uint256",
					"name": "amount",
					"type": "uint256"
				}
			],
			"name": "ContributionMade",
			"type": "event"
		},
		{
			"anonymous": false,
			"inputs": [
				{
					"indexed": false,
					"internalType": "uint256",
					"name": "campaignId",
					"type": "uint256"
				},
				{
					"indexed": false,
					"internalType": "address",
					"name": "contributor",
					"type": "address"
				},
				{
					"indexed": false,
					"internalType": "uint256",
					"name": "amount",
					"type": "uint256"
				}
			],
			"name": "RefundIssued",
			"type": "event"
		},
		{
			"anonymous": false,
			"inputs": [
				{
					"indexed": false,
					"internalType": "address",
					"name": "recipient",
					"type": "address"
				},
				{
					"indexed": false,
					"internalType": "uint256",
					"name": "amount",
					"type": "uint256"
				}
			],
			"name": "TokensIssued",
			"type": "event"
		},
		{
			"inputs": [
				{
					"internalType": "uint256",
					"name": "",
					"type": "uint256"
				},
				{
					"internalType": "address",
					"name": "",
					"type": "address"
				}
			],
			"name": "campaignContributions",
			"outputs": [
				{
					"internalType": "uint256",
					"name": "",
					"type": "uint256"
				}
			],
			"stateMutability": "view",
			"type": "function"
		},
		{
			"inputs": [
				{
					"internalType": "uint256",
					"name": "",
					"type": "uint256"
				},
				{
					"internalType": "uint256",
					"name": "",
					"type": "uint256"
				}
			],
			"name": "campaignContributors",
			"outputs": [
				{
					"internalType": "address",
					"name": "",
					"type": "address"
				}
			],
			"stateMutability": "view",
			"type": "function"
		},
		{
			"inputs": [],
			"name": "campaignIdCounter",
			"outputs": [
				{
					"internalType": "uint256",
					"name": "",
					"type": "uint256"
				}
			],
			"stateMutability": "view",
			"type": "function"
		},
		{
			"inputs": [
				{
					"internalType": "uint256",
					"name": "",
					"type": "uint256"
				}
			],
			"name": "campaigns",
			"outputs": [
				{
					"internalType": "string",
					"name": "campaignName",
					"type": "string"
				},
				{
					"internalType": "uint256",
					"name": "targetAmount",
					"type": "uint256"
				},
				{
					"internalType": "uint256",
					"name": "timeDuration",
					"type": "uint256"
				},
				{
					"internalType": "uint256",
					"name": "raisedFund",
					"type": "uint256"
				},
				{
					"internalType": "uint256",
					"name": "pendingRaisedFund",
					"type": "uint256"
				},
				{
					"internalType": "bool",
					"name": "funded",
					"type": "bool"
				}
			],
			"stateMutability": "view",
			"type": "function"
		},
		{
			"inputs": [
				{
					"internalType": "uint256",
					"name": "_campaignId",
					"type": "uint256"
				}
			],
			"name": "contributeToCampaign",
			"outputs": [],
			"stateMutability": "payable",
			"type": "function"
		},
		{
			"inputs": [
				{
					"internalType": "string",
					"name": "_campaignName",
					"type": "string"
				},
				{
					"internalType": "uint256",
					"name": "_targetAmount",
					"type": "uint256"
				},
				{
					"internalType": "uint256",
					"name": "_timeDuration",
					"type": "uint256"
				}
			],
			"name": "createCampaign",
			"outputs": [
				{
					"internalType": "uint256",
					"name": "",
					"type": "uint256"
				}
			],
			"stateMutability": "nonpayable",
			"type": "function"
		},
		{
			"inputs": [
				{
					"internalType": "uint256",
					"name": "_campaignId",
					"type": "uint256"
				}
			],
			"name": "requestRefund",
			"outputs": [],
			"stateMutability": "nonpayable",
			"type": "function"
		},
		{
			"inputs": [
				{
					"internalType": "address",
					"name": "",
					"type": "address"
				}
			],
			"name": "tokenBalances",
			"outputs": [
				{
					"internalType": "uint256",
					"name": "",
					"type": "uint256"
				}
			],
			"stateMutability": "view",
			"type": "function"
		}
	]
}